{
  "address": "0x97D247303960fC0FCA4fD703f3dAaf0ADdA07598",
  "abi": [
    {
      "anonymous": false,
      "inputs": [
        {
          "indexed": false,
          "internalType": "address",
          "name": "previousAdmin",
          "type": "address"
        },
        {
          "indexed": false,
          "internalType": "address",
          "name": "newAdmin",
          "type": "address"
        }
      ],
      "name": "AdminChanged",
      "type": "event"
    },
    {
      "anonymous": false,
      "inputs": [
        {
          "indexed": true,
          "internalType": "address",
          "name": "beacon",
          "type": "address"
        }
      ],
      "name": "BeaconUpgraded",
      "type": "event"
    },
    {
      "anonymous": false,
      "inputs": [
        {
          "indexed": false,
          "internalType": "uint256",
          "name": "amount",
          "type": "uint256"
        }
      ],
      "name": "ClaimAaveRewardTokenToTreasury",
      "type": "event"
    },
    {
      "anonymous": false,
      "inputs": [
        {
          "indexed": true,
          "internalType": "bytes32",
          "name": "role",
          "type": "bytes32"
        },
        {
          "indexed": true,
          "internalType": "bytes32",
          "name": "previousAdminRole",
          "type": "bytes32"
        },
        {
          "indexed": true,
          "internalType": "bytes32",
          "name": "newAdminRole",
          "type": "bytes32"
        }
      ],
      "name": "RoleAdminChanged",
      "type": "event"
    },
    {
      "anonymous": false,
      "inputs": [
        {
          "indexed": true,
          "internalType": "bytes32",
          "name": "role",
          "type": "bytes32"
        },
        {
          "indexed": true,
          "internalType": "address",
          "name": "account",
          "type": "address"
        },
        {
          "indexed": true,
          "internalType": "address",
          "name": "sender",
          "type": "address"
        }
      ],
      "name": "RoleGranted",
      "type": "event"
    },
    {
      "anonymous": false,
      "inputs": [
        {
          "indexed": true,
          "internalType": "bytes32",
          "name": "role",
          "type": "bytes32"
        },
        {
          "indexed": true,
          "internalType": "address",
          "name": "account",
          "type": "address"
        },
        {
          "indexed": true,
          "internalType": "address",
          "name": "sender",
          "type": "address"
        }
      ],
      "name": "RoleRevoked",
      "type": "event"
    },
    {
      "anonymous": false,
      "inputs": [
        {
          "indexed": true,
          "internalType": "address",
          "name": "implementation",
          "type": "address"
        }
      ],
      "name": "Upgraded",
      "type": "event"
    },
    {
      "anonymous": false,
      "inputs": [],
      "name": "WithdrawTreasuryFunds",
      "type": "event"
    },
    {
      "anonymous": false,
      "inputs": [
        {
          "indexed": false,
          "internalType": "uint256",
          "name": "unrealizedYield",
          "type": "uint256"
        },
        {
          "indexed": false,
          "internalType": "uint256",
          "name": "treasuryYieldPercent_e18",
          "type": "uint256"
        }
      ],
      "name": "YieldDistributed",
      "type": "event"
    },
    {
      "inputs": [],
      "name": "ADMIN_ROLE",
      "outputs": [
        {
          "internalType": "bytes32",
          "name": "",
          "type": "bytes32"
        }
      ],
      "stateMutability": "view",
      "type": "function"
    },
    {
      "inputs": [],
      "name": "DEFAULT_ADMIN_ROLE",
      "outputs": [
        {
          "internalType": "bytes32",
          "name": "",
          "type": "bytes32"
        }
      ],
      "stateMutability": "view",
      "type": "function"
    },
    {
      "inputs": [],
      "name": "UPGRADER_ROLE",
      "outputs": [
        {
          "internalType": "bytes32",
          "name": "",
          "type": "bytes32"
        }
      ],
      "stateMutability": "view",
      "type": "function"
    },
    {
      "inputs": [],
      "name": "aToken",
      "outputs": [
        {
          "internalType": "contract IERC20Upgradeable",
          "name": "",
          "type": "address"
        }
      ],
      "stateMutability": "view",
      "type": "function"
    },
    {
      "inputs": [],
      "name": "aaveIncentivesController",
      "outputs": [
        {
          "internalType": "contract IAaveIncentivesController",
          "name": "",
          "type": "address"
        }
      ],
      "stateMutability": "view",
      "type": "function"
    },
    {
      "inputs": [],
      "name": "amountReservedInCaseOfInsufficientYieldProviderLiquidity",
      "outputs": [
        {
          "internalType": "uint256",
          "name": "",
          "type": "uint256"
        }
      ],
      "stateMutability": "view",
      "type": "function"
    },
    {
      "inputs": [],
      "name": "claimAaveRewardsToTreasury",
      "outputs": [],
      "stateMutability": "nonpayable",
      "type": "function"
    },
    {
      "inputs": [
        {
          "internalType": "uint256",
          "name": "amount",
          "type": "uint256"
        }
      ],
      "name": "depositPaymentToken",
      "outputs": [],
      "stateMutability": "nonpayable",
      "type": "function"
    },
    {
      "inputs": [
        {
          "internalType": "uint256",
          "name": "totalValueRealizedForMarket",
          "type": "uint256"
        },
        {
          "internalType": "uint256",
          "name": "treasuryYieldPercent_e18",
          "type": "uint256"
        }
      ],
      "name": "distributeYieldForTreasuryAndReturnMarketAllocation",
      "outputs": [
        {
          "internalType": "uint256",
          "name": "",
          "type": "uint256"
        }
      ],
      "stateMutability": "nonpayable",
      "type": "function"
    },
    {
      "inputs": [
        {
          "internalType": "bytes32",
          "name": "role",
          "type": "bytes32"
        }
      ],
      "name": "getRoleAdmin",
      "outputs": [
        {
          "internalType": "bytes32",
          "name": "",
          "type": "bytes32"
        }
      ],
      "stateMutability": "view",
      "type": "function"
    },
    {
      "inputs": [
        {
          "internalType": "bytes32",
          "name": "role",
          "type": "bytes32"
        },
        {
          "internalType": "address",
          "name": "account",
          "type": "address"
        }
      ],
      "name": "grantRole",
      "outputs": [],
      "stateMutability": "nonpayable",
      "type": "function"
    },
    {
      "inputs": [
        {
          "internalType": "bytes32",
          "name": "role",
          "type": "bytes32"
        },
        {
          "internalType": "address",
          "name": "account",
          "type": "address"
        }
      ],
      "name": "hasRole",
      "outputs": [
        {
          "internalType": "bool",
          "name": "",
          "type": "bool"
        }
      ],
      "stateMutability": "view",
      "type": "function"
    },
    {
      "inputs": [
        {
          "internalType": "address",
          "name": "_longShort",
          "type": "address"
        },
        {
          "internalType": "address",
          "name": "_treasury",
          "type": "address"
        },
        {
          "internalType": "address",
          "name": "_paymentToken",
          "type": "address"
        },
        {
          "internalType": "address",
          "name": "_aToken",
          "type": "address"
        },
        {
          "internalType": "address",
          "name": "_poolAddressesProvider",
          "type": "address"
        },
        {
          "internalType": "address",
          "name": "_aaveIncentivesController",
          "type": "address"
        },
        {
          "internalType": "uint16",
          "name": "_aaveReferralCode",
          "type": "uint16"
        },
        {
          "internalType": "address",
          "name": "_admin",
          "type": "address"
        }
      ],
      "name": "initialize",
      "outputs": [],
      "stateMutability": "nonpayable",
      "type": "function"
    },
    {
      "inputs": [],
      "name": "initializeForMarket",
      "outputs": [],
      "stateMutability": "nonpayable",
      "type": "function"
    },
    {
      "inputs": [],
      "name": "isInitialized",
      "outputs": [
        {
          "internalType": "bool",
          "name": "",
          "type": "bool"
        }
      ],
      "stateMutability": "view",
      "type": "function"
    },
    {
      "inputs": [],
      "name": "longShort",
      "outputs": [
        {
          "internalType": "address",
          "name": "",
          "type": "address"
        }
      ],
      "stateMutability": "view",
      "type": "function"
    },
    {
      "inputs": [],
      "name": "paymentToken",
      "outputs": [
        {
          "internalType": "contract IERC20",
          "name": "",
          "type": "address"
        }
      ],
      "stateMutability": "view",
      "type": "function"
    },
    {
      "inputs": [],
      "name": "paymentTokenNotInYieldManager",
      "outputs": [
        {
          "internalType": "uint256",
          "name": "",
          "type": "uint256"
        }
      ],
      "stateMutability": "view",
      "type": "function"
    },
    {
      "inputs": [],
      "name": "poolAddressesProvider",
      "outputs": [
        {
          "internalType": "contract IPoolAddressesProvider",
          "name": "",
          "type": "address"
        }
      ],
      "stateMutability": "view",
      "type": "function"
    },
    {
      "inputs": [
        {
          "internalType": "uint256",
          "name": "amount",
          "type": "uint256"
        }
      ],
      "name": "removePaymentTokenFromMarket",
      "outputs": [],
      "stateMutability": "nonpayable",
      "type": "function"
    },
    {
      "inputs": [
        {
          "internalType": "bytes32",
          "name": "role",
          "type": "bytes32"
        },
        {
          "internalType": "address",
          "name": "account",
          "type": "address"
        }
      ],
      "name": "renounceRole",
      "outputs": [],
      "stateMutability": "nonpayable",
      "type": "function"
    },
    {
      "inputs": [
        {
          "internalType": "bytes32",
          "name": "role",
          "type": "bytes32"
        },
        {
          "internalType": "address",
          "name": "account",
          "type": "address"
        }
      ],
      "name": "revokeRole",
      "outputs": [],
      "stateMutability": "nonpayable",
      "type": "function"
    },
    {
      "inputs": [
        {
          "internalType": "bytes4",
          "name": "interfaceId",
          "type": "bytes4"
        }
      ],
      "name": "supportsInterface",
      "outputs": [
        {
          "internalType": "bool",
          "name": "",
          "type": "bool"
        }
      ],
      "stateMutability": "view",
      "type": "function"
    },
    {
      "inputs": [],
      "name": "totalReservedForTreasury",
      "outputs": [
        {
          "internalType": "uint256",
          "name": "",
          "type": "uint256"
        }
      ],
      "stateMutability": "view",
      "type": "function"
    },
    {
      "inputs": [
        {
          "internalType": "address",
          "name": "user",
          "type": "address"
        },
        {
          "internalType": "uint256",
          "name": "amount",
          "type": "uint256"
        }
      ],
      "name": "transferPaymentTokensToUser",
      "outputs": [],
      "stateMutability": "nonpayable",
      "type": "function"
    },
    {
      "inputs": [],
      "name": "treasury",
      "outputs": [
        {
          "internalType": "address",
          "name": "",
          "type": "address"
        }
      ],
      "stateMutability": "view",
      "type": "function"
    },
    {
      "inputs": [],
      "name": "updateLatestLendingPoolAddress",
      "outputs": [],
      "stateMutability": "nonpayable",
      "type": "function"
    },
    {
      "inputs": [
        {
          "internalType": "address",
          "name": "newImplementation",
          "type": "address"
        }
      ],
      "name": "upgradeTo",
      "outputs": [],
      "stateMutability": "nonpayable",
      "type": "function"
    },
    {
      "inputs": [
        {
          "internalType": "address",
          "name": "newImplementation",
          "type": "address"
        },
        {
          "internalType": "bytes",
          "name": "data",
          "type": "bytes"
        }
      ],
      "name": "upgradeToAndCall",
      "outputs": [],
      "stateMutability": "payable",
      "type": "function"
    },
    {
      "inputs": [],
      "name": "withdrawTreasuryFunds",
      "outputs": [],
      "stateMutability": "nonpayable",
      "type": "function"
    }
  ],
  "transactionHash": "0xeacfc516918fa3a72e85aa91146b23aeaf6d4822406597f1ea0104e533d42c8c",
  "args": [],
  "solcInputHash": "1965d55555abc54e9cdd4b16596f78b3",
  "bytecode": "0x60a0604052306080523480156200001557600080fd5b5073f10a7f10a7f10a7f10a7f10a7f10a7f10a7f10a76200003e81808080808060018162000045565b50620004fb565b6001600160a01b038816158015906200006657506001600160a01b03871615155b80156200007b57506001600160a01b03861615155b80156200009057506001600160a01b03851615155b8015620000a557506001600160a01b03841615155b8015620000ba57506001600160a01b03831615155b8015620000cf57506001600160a01b03811615155b620000d957600080fd5b620000e8565b60405180910390fd5b60fb80546001600160a01b03808b166001600160a01b03199283161790925560fc8054928a1692909116919091179055620001238162000195565b50610100805460fd80546001600160a01b039889166001600160a01b03199182161790915560fe80549789169782169790971790965560ff8054958816958716959095179094559190941661ffff909416600160a01b02929092166001600160b01b0319909116179190911790555050565b600054610100900460ff16620001b25760005460ff1615620001bc565b620001bc6200027a565b620002215760405162461bcd60e51b815260206004820152602e60248201527f496e697469616c697a61626c653a20636f6e747261637420697320616c72656160448201526d191e481a5b9a5d1a585b1a5e995960921b6064820152608401620000df565b600054610100900460ff1615801562000244576000805461ffff19166101011790555b6200024e62000298565b6200025862000314565b620002638262000370565b801562000276576000805461ff00191690555b5050565b60006200029230620003ec60201b620013541760201c565b15905090565b600054610100900460ff16620002f45760405162461bcd60e51b815260206004820152602b60248201526000805160206200290183398151915260448201526a6e697469616c697a696e6760a81b6064820152608401620000df565b620002fe620003f2565b62000308620003f2565b62000312620003f2565b565b600054610100900460ff16620002fe5760405162461bcd60e51b815260206004820152602b60248201526000805160206200290183398151915260448201526a6e697469616c697a696e6760a81b6064820152608401620000df565b6001600160a01b0381166200038457600080fd5b620003916000826200044e565b620003bd7fa49807205ce4d355092ef5a8a18f56e8913cf4a201fbe287825b095693c21775826200044e565b620003e97f189ab7a9244df0848122154315af71fe140f3db0fe014031783b0946b8c9d2e3826200044e565b50565b3b151590565b600054610100900460ff16620003125760405162461bcd60e51b815260206004820152602b60248201526000805160206200290183398151915260448201526a6e697469616c697a696e6760a81b6064820152608401620000df565b60008281526065602090815260408083206001600160a01b038516845290915290205462000276908390839060ff16620002765760008281526065602090815260408083206001600160a01b03851684529091529020805460ff19166001179055620004b73390565b6001600160a01b0316816001600160a01b0316837f2f8788117e7eff1d82e926ec794901d17c78024a50270940304540a733656f0d60405160405180910390a45050565b6080516123d56200052c60003960008181610a5301528181610a9301528181610c3f0152610c7f01526123d56000f3fe6080604052600436106101cd5760003560e01c80635f2475ca116100f7578063a0c1f15e11610095578063e622494711610064578063e62249471461052a578063eb6bffa214610541578063edf565cc14610561578063f72c0d8b1461057657600080fd5b8063a0c1f15e146104be578063a217fddf146104de578063ac76456c146104f3578063d547741f1461050a57600080fd5b806380e17d87116100d157806380e17d871461043e5780638a5599b21461045e5780639063ee201461047e57806391d148541461049e57600080fd5b80635f2475ca146103c957806361d027b3146103ea57806375b238fc1461040a57600080fd5b80633013ce291161016f578063392e53cd1161013e578063392e53cd14610360578063447479db146103815780634f1ef286146103965780635d3a3890146103a957600080fd5b80633013ce29146102eb57806334944bb01461030b57806336568abe146103205780633659cfe61461034057600080fd5b80632429e535116101ab5780632429e5351461023e578063248a9ca31461026357806329949872146102935780632f2ff15d146102cb57600080fd5b806301ffc9a7146101d257806315429969146102075780631c499b551461021e575b600080fd5b3480156101de57600080fd5b506101f26101ed366004611d8e565b6105aa565b60405190151581526020015b60405180910390f35b34801561021357600080fd5b5061021c6105e1565b005b34801561022a57600080fd5b5061021c610239366004611db8565b6106ce565b34801561024a57600080fd5b506102556101015481565b6040519081526020016101fe565b34801561026f57600080fd5b5061025561027e366004611db8565b60009081526065602052604090206001015490565b34801561029f57600080fd5b5060fb546102b3906001600160a01b031681565b6040516001600160a01b0390911681526020016101fe565b3480156102d757600080fd5b5061021c6102e6366004611de6565b610832565b3480156102f757600080fd5b5060fd546102b3906001600160a01b031681565b34801561031757600080fd5b5061021c610858565b34801561032c57600080fd5b5061021c61033b366004611de6565b6109ce565b34801561034c57600080fd5b5061021c61035b366004611e16565b610a48565b34801561036c57600080fd5b5060fc546101f290600160a01b900460ff1681565b34801561038d57600080fd5b5061021c610b0e565b61021c6103a4366004611e49565b610c34565b3480156103b557600080fd5b5061021c6103c4366004611f0d565b610cea565b3480156103d557600080fd5b50610100546102b3906001600160a01b031681565b3480156103f657600080fd5b5060fc546102b3906001600160a01b031681565b34801561041657600080fd5b506102557fa49807205ce4d355092ef5a8a18f56e8913cf4a201fbe287825b095693c2177581565b34801561044a57600080fd5b5060ff546102b3906001600160a01b031681565b34801561046a57600080fd5b50610255610479366004611fbd565b610de8565b34801561048a57600080fd5b5061021c610499366004611db8565b610f5a565b3480156104aa57600080fd5b506101f26104b9366004611de6565b61111c565b3480156104ca57600080fd5b5060fe546102b3906001600160a01b031681565b3480156104ea57600080fd5b50610255600081565b3480156104ff57600080fd5b506102556101025481565b34801561051657600080fd5b5061021c610525366004611de6565b611147565b34801561053657600080fd5b506102556101305481565b34801561054d57600080fd5b5061021c61055c366004611fdf565b61116d565b34801561056d57600080fd5b5061021c6112bb565b34801561058257600080fd5b506102557f189ab7a9244df0848122154315af71fe140f3db0fe014031783b0946b8c9d2e381565b60006001600160e01b03198216637965db0b60e01b14806105db57506301ffc9a760e01b6001600160e01b03198316145b92915050565b60fd5460ff546040805163026b1d5f60e01b815290516001600160a01b039384169363095ea7b393169163026b1d5f9160048083019260209291908290030181865afa158015610635573d6000803e3d6000fd5b505050506040513d601f19601f82011682018060405250810190610659919061200b565b6040516001600160e01b031960e084901b1681526001600160a01b03909116600482015260001960248201526044016020604051808303816000875af11580156106a7573d6000803e3d6000fd5b505050506040513d601f19601f820116820180604052508101906106cb9190612028565b50565b60fb546001600160a01b031633146107015760405162461bcd60e51b81526004016106f89061204a565b60405180910390fd5b610130548181101561081f5760ff60009054906101000a90046001600160a01b03166001600160a01b031663026b1d5f6040518163ffffffff1660e01b8152600401602060405180830381865afa158015610760573d6000803e3d6000fd5b505050506040513d601f19601f82011682018060405250810190610784919061200b565b60fd54604051631a4ca37b60e21b81526001600160a01b039182166004820152602481018590523060448201529116906369328dec906064016020604051808303816000875af19250505080156107f8575060408051601f3d908101601f191682019092526107f591810190612071565b60015b61081a5781610102600082825461080f91906120a0565b9091555061082e9050565b505050565b61082982826120b8565b610130555b5050565b60008281526065602052604090206001015461084e813361135a565b61081a83836113be565b61010054604051630cc7d40f60e11b81523060048201526001600160a01b0390911690600090829063198fa81e90602401602060405180830381865afa1580156108a6573d6000803e3d6000fd5b505050506040513d601f19601f820116820180604052508101906108ca9190612071565b6040805160018082528183019092529192506000919060208083019080368337505060fe5482519293506001600160a01b031691839150600090610910576109106120cf565b6001600160a01b03928316602091820292909201015260fc54604051633111e7b360e01b815285831692633111e7b392610952928692889216906004016120e5565b6020604051808303816000875af1158015610971573d6000803e3d6000fd5b505050506040513d601f19601f820116820180604052508101906109959190612071565b506040518281527fbdeb6031c2eac1ba6d1bd54a501b8942cf452ed6eb9f9a58512591a1faea22a49060200160405180910390a1505050565b6001600160a01b0381163314610a3e5760405162461bcd60e51b815260206004820152602f60248201527f416363657373436f6e74726f6c3a2063616e206f6e6c792072656e6f756e636560448201526e103937b632b9903337b91039b2b63360891b60648201526084016106f8565b61082e8282611444565b306001600160a01b037f0000000000000000000000000000000000000000000000000000000000000000161415610a915760405162461bcd60e51b81526004016106f890612149565b7f00000000000000000000000000000000000000000000000000000000000000006001600160a01b0316610ac36114ab565b6001600160a01b031614610ae95760405162461bcd60e51b81526004016106f890612195565b610af2816114d9565b604080516000808252602082019092526106cb91839190611504565b6101018054600090915560ff546040805163026b1d5f60e01b815290516001600160a01b039092169163026b1d5f916004808201926020929091908290030181865afa158015610b62573d6000803e3d6000fd5b505050506040513d601f19601f82011682018060405250810190610b86919061200b565b60fd5460fc54604051631a4ca37b60e21b81526001600160a01b0392831660048201526024810185905290821660448201529116906369328dec906064016020604051808303816000875af1158015610be3573d6000803e3d6000fd5b505050506040513d601f19601f82011682018060405250810190610c079190612071565b506040517f5b1d5b57337c7653ccd178787bc6e5aa6f8a6ee09b781e7a624d776e69d044cb90600090a150565b306001600160a01b037f0000000000000000000000000000000000000000000000000000000000000000161415610c7d5760405162461bcd60e51b81526004016106f890612149565b7f00000000000000000000000000000000000000000000000000000000000000006001600160a01b0316610caf6114ab565b6001600160a01b031614610cd55760405162461bcd60e51b81526004016106f890612195565b610cde826114d9565b61082e82826001611504565b610cfa888888888888888861164f565b856001600160a01b031663095ea7b3856001600160a01b031663026b1d5f6040518163ffffffff1660e01b8152600401602060405180830381865afa158015610d47573d6000803e3d6000fd5b505050506040513d601f19601f82011682018060405250810190610d6b919061200b565b6040516001600160e01b031960e084901b1681526001600160a01b03909116600482015260001960248201526044016020604051808303816000875af1158015610db9573d6000803e3d6000fd5b505050506040513d601f19601f82011682018060405250810190610ddd9190612028565b505050505050505050565b60fb546000906001600160a01b03163314610e155760405162461bcd60e51b81526004016106f89061204a565b6101305460fe546040516370a0823160e01b8152306004820152600092916001600160a01b0316906370a0823190602401602060405180830381865afa158015610e63573d6000803e3d6000fd5b505050506040513d601f19601f82011682018060405250810190610e879190612071565b610e9191906120a0565b610101546101025491925090600090610eaa83886120a0565b610eb491906120a0565b905082811415610eca57600093505050506105db565b6000610ed682856120b8565b90506000670de0b6b3a7640000610eed88846121e1565b610ef79190612200565b90506000610f0582846120b8565b9050610f1182866120a0565b6101015560408051848152602081018a90527ffe4996cd48c364c468cee70dd6b9061874ff01b05c5ea49311cbcabd9b9cb615910160405180910390a198975050505050505050565b60fb546001600160a01b03163314610f845760405162461bcd60e51b81526004016106f89061204a565b6101025415610fcc57806101025410610fb557806101026000828254610faa91906120b8565b909155506106cb9050565b61010254610fc390826120b8565b60006101025590505b60008161013054610fdd91906120a0565b9050683635c9adc5dea00000811015610ff7576101305550565b680ad78ebc5ac62000006101305560ff546040805163026b1d5f60e01b815290516001600160a01b039092169163026b1d5f916004808201926020929091908290030181865afa15801561104f573d6000803e3d6000fd5b505050506040513d601f19601f82011682018060405250810190611073919061200b565b60fd546001600160a01b039182169163e8eda9df911661109c680ad78ebc5ac6200000856120b8565b610100546040516001600160e01b031960e086901b1681526001600160a01b039093166004840152602483019190915230604483015261ffff600160a01b909104166064820152608401600060405180830381600087803b15801561110057600080fd5b505af1158015611114573d6000803e3d6000fd5b505050505050565b60009182526065602090815260408084206001600160a01b0393909316845291905290205460ff1690565b600082815260656020526040902060010154611163813361135a565b61081a8383611444565b60fb546001600160a01b031633146111975760405162461bcd60e51b81526004016106f89061204a565b60fd546111ae906001600160a01b03168383611787565b156111b7575050565b8061010260008282546111ca91906120b8565b909155505060ff546040805163026b1d5f60e01b815290516001600160a01b039092169163026b1d5f916004808201926020929091908290030181865afa158015611219573d6000803e3d6000fd5b505050506040513d601f19601f8201168201806040525081019061123d919061200b565b60fd54604051631a4ca37b60e21b81526001600160a01b0391821660048201526024810184905284821660448201529116906369328dec906064016020604051808303816000875af1158015611297573d6000803e3d6000fd5b505050506040513d601f19601f8201168201806040525081019061081a9190612071565b60fb546001600160a01b031633146112e55760405162461bcd60e51b81526004016106f89061204a565b60fc54600160a01b900460ff161561133f5760405162461bcd60e51b815260206004820152601f60248201527f5969656c64204d616e6167657220697320616c726561647920696e207573650060448201526064016106f8565b60fc805460ff60a01b1916600160a01b179055565b3b151590565b611364828261111c565b61082e5761137c816001600160a01b0316601461180c565b61138783602061180c565b604051602001611398929190612252565b60408051601f198184030181529082905262461bcd60e51b82526106f8916004016122c7565b6113c8828261111c565b61082e5760008281526065602090815260408083206001600160a01b03851684529091529020805460ff191660011790556114003390565b6001600160a01b0316816001600160a01b0316837f2f8788117e7eff1d82e926ec794901d17c78024a50270940304540a733656f0d60405160405180910390a45050565b61144e828261111c565b1561082e5760008281526065602090815260408083206001600160a01b0385168085529252808320805460ff1916905551339285917ff6391f5c32d9c69d2a47ea670b442974b53935d1edc7fd64eb21e047a839171b9190a45050565b7f360894a13ba1a3210667c828492db98dca3e2076cc3735a920a3ca505d382bbc546001600160a01b031690565b7f189ab7a9244df0848122154315af71fe140f3db0fe014031783b0946b8c9d2e361082e813361135a565b600061150e6114ab565b9050611519846119a8565b6000835111806115265750815b15611537576115358484611a4d565b505b7f4910fdfa16fed3260ed0e7147f7cc6da11a60208b5b9406d12a635614ffd9143805460ff1661164857805460ff191660011781556040516001600160a01b03831660248201526115b690869060440160408051601f198184030181529190526020810180516001600160e01b0316631b2ce7f360e11b179052611a4d565b50805460ff191681556115c76114ab565b6001600160a01b0316826001600160a01b03161461163f5760405162461bcd60e51b815260206004820152602f60248201527f45524331393637557067726164653a207570677261646520627265616b73206660448201526e75727468657220757067726164657360881b60648201526084016106f8565b61164885611b38565b5050505050565b6001600160a01b0388161580159061166f57506001600160a01b03871615155b801561168357506001600160a01b03861615155b801561169757506001600160a01b03851615155b80156116ab57506001600160a01b03841615155b80156116bf57506001600160a01b03831615155b80156116d357506001600160a01b03811615155b6116dc57600080fd5b60fb80546001600160a01b03808b166001600160a01b03199283161790925560fc8054928a169290911691909117905561171581611b78565b50610100805460fd80546001600160a01b039889166001600160a01b03199182161790915560fe80549789169782169790971790965560ff8054958816958716959095179094559190941661ffff909416600160a01b02929092166001600160b01b0319909116179190911790555050565b60405163a9059cbb60e01b81526001600160a01b038381166004830152602482018390526000919085169063a9059cbb906044016020604051808303816000875af19250505080156117f6575060408051601f3d908101601f191682019092526117f391810190612028565b60015b61180257506000611805565b90505b9392505050565b6060600061181b8360026121e1565b6118269060026120a0565b67ffffffffffffffff81111561183e5761183e611e33565b6040519080825280601f01601f191660200182016040528015611868576020820181803683370190505b509050600360fc1b81600081518110611883576118836120cf565b60200101906001600160f81b031916908160001a905350600f60fb1b816001815181106118b2576118b26120cf565b60200101906001600160f81b031916908160001a90535060006118d68460026121e1565b6118e19060016120a0565b90505b6001811115611959576f181899199a1a9b1b9c1cb0b131b232b360811b85600f1660108110611915576119156120cf565b1a60f81b82828151811061192b5761192b6120cf565b60200101906001600160f81b031916908160001a90535060049490941c93611952816122fa565b90506118e4565b5083156118055760405162461bcd60e51b815260206004820181905260248201527f537472696e67733a20686578206c656e67746820696e73756666696369656e7460448201526064016106f8565b803b611a0c5760405162461bcd60e51b815260206004820152602d60248201527f455243313936373a206e657720696d706c656d656e746174696f6e206973206e60448201526c1bdd08184818dbdb9d1c9858dd609a1b60648201526084016106f8565b7f360894a13ba1a3210667c828492db98dca3e2076cc3735a920a3ca505d382bbc80546001600160a01b0319166001600160a01b0392909216919091179055565b6060823b611aac5760405162461bcd60e51b815260206004820152602660248201527f416464726573733a2064656c65676174652063616c6c20746f206e6f6e2d636f6044820152651b9d1c9858dd60d21b60648201526084016106f8565b600080846001600160a01b031684604051611ac79190612311565b600060405180830381855af49150503d8060008114611b02576040519150601f19603f3d011682016040523d82523d6000602084013e611b07565b606091505b5091509150611b2f828260405180606001604052806027815260200161237960279139611c4a565b95945050505050565b611b41816119a8565b6040516001600160a01b038216907fbc7cd75a20ee27fd9adebab32041f755214dbc6bffa90cc0225b39da2e5c2d3b90600090a250565b600054610100900460ff16611b935760005460ff1615611b97565b303b155b611bfa5760405162461bcd60e51b815260206004820152602e60248201527f496e697469616c697a61626c653a20636f6e747261637420697320616c72656160448201526d191e481a5b9a5d1a585b1a5e995960921b60648201526084016106f8565b600054610100900460ff16158015611c1c576000805461ffff19166101011790555b611c24611c83565b611c2c611cc4565b611c3582611ceb565b801561082e576000805461ff00191690555050565b60608315611c59575081611805565b825115611c695782518084602001fd5b8160405162461bcd60e51b81526004016106f891906122c7565b600054610100900460ff16611caa5760405162461bcd60e51b81526004016106f89061232d565b611cb2611d5d565b611cba611d5d565b611cc2611d5d565b565b600054610100900460ff16611cb25760405162461bcd60e51b81526004016106f89061232d565b6001600160a01b038116611cfe57600080fd5b611d09600082611d84565b611d337fa49807205ce4d355092ef5a8a18f56e8913cf4a201fbe287825b095693c2177582611d84565b6106cb7f189ab7a9244df0848122154315af71fe140f3db0fe014031783b0946b8c9d2e382611d84565b600054610100900460ff16611cc25760405162461bcd60e51b81526004016106f89061232d565b61082e82826113be565b600060208284031215611da057600080fd5b81356001600160e01b03198116811461180557600080fd5b600060208284031215611dca57600080fd5b5035919050565b6001600160a01b03811681146106cb57600080fd5b60008060408385031215611df957600080fd5b823591506020830135611e0b81611dd1565b809150509250929050565b600060208284031215611e2857600080fd5b813561180581611dd1565b634e487b7160e01b600052604160045260246000fd5b60008060408385031215611e5c57600080fd5b8235611e6781611dd1565b9150602083013567ffffffffffffffff80821115611e8457600080fd5b818501915085601f830112611e9857600080fd5b813581811115611eaa57611eaa611e33565b604051601f8201601f19908116603f01168101908382118183101715611ed257611ed2611e33565b81604052828152886020848701011115611eeb57600080fd5b8260208601602083013760006020848301015280955050505050509250929050565b600080600080600080600080610100898b031215611f2a57600080fd5b8835611f3581611dd1565b97506020890135611f4581611dd1565b96506040890135611f5581611dd1565b95506060890135611f6581611dd1565b94506080890135611f7581611dd1565b935060a0890135611f8581611dd1565b925060c089013561ffff81168114611f9c57600080fd5b915060e0890135611fac81611dd1565b809150509295985092959890939650565b60008060408385031215611fd057600080fd5b50508035926020909101359150565b60008060408385031215611ff257600080fd5b8235611ffd81611dd1565b946020939093013593505050565b60006020828403121561201d57600080fd5b815161180581611dd1565b60006020828403121561203a57600080fd5b8151801515811461180557600080fd5b6020808252600d908201526c139bdd081b1bdb99d4da1bdc9d609a1b604082015260600190565b60006020828403121561208357600080fd5b5051919050565b634e487b7160e01b600052601160045260246000fd5b600082198211156120b3576120b361208a565b500190565b6000828210156120ca576120ca61208a565b500390565b634e487b7160e01b600052603260045260246000fd5b606080825284519082018190526000906020906080840190828801845b828110156121275781516001600160a01b031684529284019290840190600101612102565b50505090830194909452506001600160a01b0391909116604090910152919050565b6020808252602c908201527f46756e6374696f6e206d7573742062652063616c6c6564207468726f7567682060408201526b19195b1959d85d1958d85b1b60a21b606082015260800190565b6020808252602c908201527f46756e6374696f6e206d7573742062652063616c6c6564207468726f7567682060408201526b6163746976652070726f787960a01b606082015260800190565b60008160001904831182151516156121fb576121fb61208a565b500290565b60008261221d57634e487b7160e01b600052601260045260246000fd5b500490565b60005b8381101561223d578181015183820152602001612225565b8381111561224c576000848401525b50505050565b7f416363657373436f6e74726f6c3a206163636f756e742000000000000000000081526000835161228a816017850160208801612222565b7001034b99036b4b9b9b4b733903937b6329607d1b60179184019182015283516122bb816028840160208801612222565b01602801949350505050565b60208152600082518060208401526122e6816040850160208701612222565b601f01601f19169190910160400192915050565b6000816123095761230961208a565b506000190190565b60008251612323818460208701612222565b9190910192915050565b6020808252602b908201527f496e697469616c697a61626c653a20636f6e7472616374206973206e6f74206960408201526a6e697469616c697a696e6760a81b60608201526080019056fe416464726573733a206c6f772d6c6576656c2064656c65676174652063616c6c206661696c6564a2646970667358221220f276451c76993866b4a0986d23aa2281ae5ad7ad938b978fa6cd6be2db6c9b8d64736f6c634300080a0033496e697469616c697a61626c653a20636f6e7472616374206973206e6f742069",
  "devdoc": {
    "kind": "dev",
    "methods": {
      "claimAaveRewardsToTreasury()": {
        "details": "This is specifically implemented to allow withdrawal of aave reward wMatic tokens accrued"
      },
      "depositPaymentToken(uint256)": {
        "params": {
          "amount": "Amount of payment token to deposit"
        }
      },
      "distributeYieldForTreasuryAndReturnMarketAllocation(uint256,uint256)": {
        "details": "treasuryPercent = 1 - marketPercent",
        "params": {
          "totalValueRealizedForMarket": "total value of long and short side of the market",
          "treasuryYieldPercent_e18": "Percentage of yield in base 1e18 that is allocated to the treasury"
        },
        "returns": {
          "_0": "The market allocation of the yield"
        }
      },
      "getRoleAdmin(bytes32)": {
        "details": "Returns the admin role that controls `role`. See {grantRole} and {revokeRole}. To change a role's admin, use {_setRoleAdmin}."
      },
      "grantRole(bytes32,address)": {
        "details": "Grants `role` to `account`. If `account` had not been already granted `role`, emits a {RoleGranted} event. Requirements: - the caller must have ``role``'s admin role."
      },
      "hasRole(bytes32,address)": {
        "details": "Returns `true` if `account` has been granted `role`."
      },
      "initialize(address,address,address,address,address,address,uint16,address)": {
        "details": "referral code will be set to 0, depricated Aave feature",
        "params": {
          "_aToken": "address of the interest accruing token linked to the payment token",
          "_aaveReferralCode": "unique code for aave referrals",
          "_admin": "admin for the contract",
          "_longShort": "address of the longShort contract",
          "_paymentToken": "address of the payment token",
          "_poolAddressesProvider": "address of the aave lending pool address provider contract",
          "_treasury": "address of the treasury contract"
        }
      },
      "removePaymentTokenFromMarket(uint256)": {
        "details": "This will update the amountReservedInCaseOfInsufficientYieldProviderLiquidity if not enough liquidity is avaiable on aave.      This means that our system can continue to operate even if there is insufficient liquidity in Aave for any reason.",
        "params": {
          "amount": "Amount of payment token to withdraw"
        }
      },
      "renounceRole(bytes32,address)": {
        "details": "Revokes `role` from the calling account. Roles are often managed via {grantRole} and {revokeRole}: this function's purpose is to provide a mechanism for accounts to lose their privileges if they are compromised (such as when a trusted device is misplaced). If the calling account had been revoked `role`, emits a {RoleRevoked} event. Requirements: - the caller must be `account`."
      },
      "revokeRole(bytes32,address)": {
        "details": "Revokes `role` from `account`. If `account` had been granted `role`, emits a {RoleRevoked} event. Requirements: - the caller must have ``role``'s admin role."
      },
      "supportsInterface(bytes4)": {
        "details": "See {IERC165-supportsInterface}."
      },
      "transferPaymentTokensToUser(address,uint256)": {
        "params": {
          "amount": "Amount of payment token to pay to user",
          "user": "User to recieve the payout"
        }
      },
      "upgradeTo(address)": {
        "details": "Upgrade the implementation of the proxy to `newImplementation`. Calls {_authorizeUpgrade}. Emits an {Upgraded} event."
      },
      "upgradeToAndCall(address,bytes)": {
        "details": "Upgrade the implementation of the proxy to `newImplementation`, and subsequently execute the function call encoded in `data`. Calls {_authorizeUpgrade}. Emits an {Upgraded} event."
      }
    },
    "title": "YieldManagerBenqiTest",
    "version": 1
  },
  "userdoc": {
    "kind": "user",
    "methods": {
      "aToken()": {
        "notice": "The token representing the interest accruing payment token position from Aave"
      },
      "aaveIncentivesController()": {
        "notice": "The specific Aave incentives controller contract"
      },
      "claimAaveRewardsToTreasury()": {
        "notice": "Allows for withdrawal of aave rewards to the treasury contract"
      },
      "depositPaymentToken(uint256)": {
        "notice": "Allows the LongShort contract to deposit tokens into the aave pool"
      },
      "distributeYieldForTreasuryAndReturnMarketAllocation(uint256,uint256)": {
        "notice": "Calculates and updates the yield allocation to the treasury and the market"
      },
      "initialize(address,address,address,address,address,address,uint16,address)": {
        "notice": "Constructor for initializing the aave yield manager with a given payment token and corresponding Aave contracts"
      },
      "initializeForMarket()": {
        "notice": "Initializes a specific yield manager to a given market"
      },
      "isInitialized()": {
        "notice": "boolean to prevent markets using an already initialized market"
      },
      "longShort()": {
        "notice": "address of longShort contract"
      },
      "paymentToken()": {
        "notice": "The payment token the yield manager supports"
      },
      "poolAddressesProvider()": {
        "notice": "The specific Aave lending pool address provider contract"
      },
      "removePaymentTokenFromMarket(uint256)": {
        "notice": "Allows the LongShort contract to redeem aTokens for the payment token"
      },
      "totalReservedForTreasury()": {
        "notice": "distributed yield not yet transferred to the treasury"
      },
      "transferPaymentTokensToUser(address,uint256)": {
        "notice": "Allows the LongShort pay out a user from tokens already withdrawn from Aave"
      },
      "treasury()": {
        "notice": "address of treasury contract - this is the address that can claim aave incentives rewards"
      },
      "withdrawTreasuryFunds()": {
        "notice": "Withdraw treasury allocated accrued yield from the lending pool to the treasury contract"
      }
    },
    "notice": "Used to manually test the benqi yield manager",
    "version": 1
  },
  "storageLayout": {
    "storage": [
      {
        "astId": 1051,
        "contract": "contracts/YieldManagers/DefaultYieldManagerAaveV3.sol:DefaultYieldManagerAaveV3",
        "label": "_initialized",
        "offset": 0,
        "slot": "0",
        "type": "t_bool"
      },
      {
        "astId": 1054,
        "contract": "contracts/YieldManagers/DefaultYieldManagerAaveV3.sol:DefaultYieldManagerAaveV3",
        "label": "_initializing",
        "offset": 1,
        "slot": "0",
        "type": "t_bool"
      },
      {
        "astId": 5350,
        "contract": "contracts/YieldManagers/DefaultYieldManagerAaveV3.sol:DefaultYieldManagerAaveV3",
        "label": "__gap",
        "offset": 0,
        "slot": "1",
        "type": "t_array(t_uint256)50_storage"
      },
      {
        "astId": 6272,
        "contract": "contracts/YieldManagers/DefaultYieldManagerAaveV3.sol:DefaultYieldManagerAaveV3",
        "label": "__gap",
        "offset": 0,
        "slot": "51",
        "type": "t_array(t_uint256)50_storage"
      },
      {
        "astId": 250,
        "contract": "contracts/YieldManagers/DefaultYieldManagerAaveV3.sol:DefaultYieldManagerAaveV3",
        "label": "_roles",
        "offset": 0,
        "slot": "101",
        "type": "t_mapping(t_bytes32,t_struct(RoleData)245_storage)"
      },
      {
        "astId": 537,
        "contract": "contracts/YieldManagers/DefaultYieldManagerAaveV3.sol:DefaultYieldManagerAaveV3",
        "label": "__gap",
        "offset": 0,
        "slot": "102",
        "type": "t_array(t_uint256)49_storage"
      },
      {
        "astId": 1033,
        "contract": "contracts/YieldManagers/DefaultYieldManagerAaveV3.sol:DefaultYieldManagerAaveV3",
        "label": "__gap",
        "offset": 0,
        "slot": "151",
        "type": "t_array(t_uint256)50_storage"
      },
      {
        "astId": 1228,
        "contract": "contracts/YieldManagers/DefaultYieldManagerAaveV3.sol:DefaultYieldManagerAaveV3",
        "label": "__gap",
        "offset": 0,
        "slot": "201",
        "type": "t_array(t_uint256)50_storage"
      },
      {
        "astId": 20118,
        "contract": "contracts/YieldManagers/DefaultYieldManagerAaveV3.sol:DefaultYieldManagerAaveV3",
        "label": "longShort",
        "offset": 0,
        "slot": "251",
        "type": "t_address"
      },
      {
        "astId": 20121,
        "contract": "contracts/YieldManagers/DefaultYieldManagerAaveV3.sol:DefaultYieldManagerAaveV3",
        "label": "treasury",
        "offset": 0,
        "slot": "252",
        "type": "t_address"
      },
      {
        "astId": 20124,
        "contract": "contracts/YieldManagers/DefaultYieldManagerAaveV3.sol:DefaultYieldManagerAaveV3",
        "label": "isInitialized",
        "offset": 20,
        "slot": "252",
        "type": "t_bool"
      },
      {
        "astId": 20128,
        "contract": "contracts/YieldManagers/DefaultYieldManagerAaveV3.sol:DefaultYieldManagerAaveV3",
        "label": "paymentToken",
        "offset": 0,
        "slot": "253",
        "type": "t_contract(IERC20)9077"
      },
      {
        "astId": 20132,
        "contract": "contracts/YieldManagers/DefaultYieldManagerAaveV3.sol:DefaultYieldManagerAaveV3",
        "label": "aToken",
        "offset": 0,
        "slot": "254",
        "type": "t_contract(IERC20Upgradeable)1993"
      },
      {
        "astId": 20136,
        "contract": "contracts/YieldManagers/DefaultYieldManagerAaveV3.sol:DefaultYieldManagerAaveV3",
        "label": "poolAddressesProvider",
        "offset": 0,
        "slot": "255",
        "type": "t_contract(IPoolAddressesProvider)23197"
      },
      {
        "astId": 20140,
        "contract": "contracts/YieldManagers/DefaultYieldManagerAaveV3.sol:DefaultYieldManagerAaveV3",
        "label": "aaveIncentivesController",
        "offset": 0,
        "slot": "256",
        "type": "t_contract(IAaveIncentivesController)22189"
      },
      {
        "astId": 20143,
        "contract": "contracts/YieldManagers/DefaultYieldManagerAaveV3.sol:DefaultYieldManagerAaveV3",
        "label": "referralCode",
        "offset": 20,
        "slot": "256",
        "type": "t_uint16"
      },
      {
        "astId": 20147,
        "contract": "contracts/YieldManagers/DefaultYieldManagerAaveV3.sol:DefaultYieldManagerAaveV3",
        "label": "totalReservedForTreasury",
        "offset": 0,
        "slot": "257",
        "type": "t_uint256"
      },
      {
        "astId": 20150,
        "contract": "contracts/YieldManagers/DefaultYieldManagerAaveV3.sol:DefaultYieldManagerAaveV3",
        "label": "amountReservedInCaseOfInsufficientYieldProviderLiquidity",
        "offset": 0,
        "slot": "258",
        "type": "t_uint256"
      },
      {
        "astId": 20154,
        "contract": "contracts/YieldManagers/DefaultYieldManagerAaveV3.sol:DefaultYieldManagerAaveV3",
        "label": "__variableGap",
        "offset": 0,
        "slot": "259",
        "type": "t_array(t_uint256)45_storage"
      },
      {
        "astId": 20157,
        "contract": "contracts/YieldManagers/DefaultYieldManagerAaveV3.sol:DefaultYieldManagerAaveV3",
        "label": "paymentTokenNotInYieldManager",
        "offset": 0,
        "slot": "304",
        "type": "t_uint256"
      }
    ],
    "types": {
      "t_address": {
        "encoding": "inplace",
        "label": "address",
        "numberOfBytes": "20"
      },
      "t_array(t_uint256)45_storage": {
        "base": "t_uint256",
        "encoding": "inplace",
        "label": "uint256[45]",
        "numberOfBytes": "1440"
      },
      "t_array(t_uint256)49_storage": {
        "base": "t_uint256",
        "encoding": "inplace",
        "label": "uint256[49]",
        "numberOfBytes": "1568"
      },
      "t_array(t_uint256)50_storage": {
        "base": "t_uint256",
        "encoding": "inplace",
        "label": "uint256[50]",
        "numberOfBytes": "1600"
      },
      "t_bool": {
        "encoding": "inplace",
        "label": "bool",
        "numberOfBytes": "1"
      },
      "t_bytes32": {
        "encoding": "inplace",
        "label": "bytes32",
        "numberOfBytes": "32"
      },
      "t_contract(IAaveIncentivesController)22189": {
        "encoding": "inplace",
        "label": "contract IAaveIncentivesController",
        "numberOfBytes": "20"
      },
      "t_contract(IERC20)9077": {
        "encoding": "inplace",
        "label": "contract IERC20",
        "numberOfBytes": "20"
      },
      "t_contract(IERC20Upgradeable)1993": {
        "encoding": "inplace",
        "label": "contract IERC20Upgradeable",
        "numberOfBytes": "20"
      },
      "t_contract(IPoolAddressesProvider)23197": {
        "encoding": "inplace",
        "label": "contract IPoolAddressesProvider",
        "numberOfBytes": "20"
      },
      "t_mapping(t_address,t_bool)": {
        "encoding": "mapping",
        "key": "t_address",
        "label": "mapping(address => bool)",
        "numberOfBytes": "32",
        "value": "t_bool"
      },
      "t_mapping(t_bytes32,t_struct(RoleData)245_storage)": {
        "encoding": "mapping",
        "key": "t_bytes32",
        "label": "mapping(bytes32 => struct AccessControlUpgradeable.RoleData)",
        "numberOfBytes": "32",
        "value": "t_struct(RoleData)245_storage"
      },
      "t_struct(RoleData)245_storage": {
        "encoding": "inplace",
        "label": "struct AccessControlUpgradeable.RoleData",
        "members": [
          {
            "astId": 242,
            "contract": "contracts/YieldManagers/DefaultYieldManagerAaveV3.sol:DefaultYieldManagerAaveV3",
            "label": "members",
            "offset": 0,
            "slot": "0",
            "type": "t_mapping(t_address,t_bool)"
          },
          {
            "astId": 244,
            "contract": "contracts/YieldManagers/DefaultYieldManagerAaveV3.sol:DefaultYieldManagerAaveV3",
            "label": "adminRole",
            "offset": 0,
            "slot": "1",
            "type": "t_bytes32"
          }
        ],
        "numberOfBytes": "64"
      },
      "t_uint16": {
        "encoding": "inplace",
        "label": "uint16",
        "numberOfBytes": "2"
      },
      "t_uint256": {
        "encoding": "inplace",
        "label": "uint256",
        "numberOfBytes": "32"
      }
    }
  }
}