{
  "address": "0x5154EB8c30657ebd23cDFac517E9B9dacaF2eEe7",
  "abi": [
    {
      "anonymous": false,
      "inputs": [
        {
          "indexed": false,
          "internalType": "address",
          "name": "previousAdmin",
          "type": "address"
        },
        {
          "indexed": false,
          "internalType": "address",
          "name": "newAdmin",
          "type": "address"
        }
      ],
      "name": "AdminChanged",
      "type": "event"
    },
    {
      "anonymous": false,
      "inputs": [
        {
          "indexed": true,
          "internalType": "address",
          "name": "beacon",
          "type": "address"
        }
      ],
      "name": "BeaconUpgraded",
      "type": "event"
    },
    {
      "anonymous": false,
      "inputs": [
        {
          "indexed": true,
          "internalType": "bytes32",
          "name": "role",
          "type": "bytes32"
        },
        {
          "indexed": true,
          "internalType": "bytes32",
          "name": "previousAdminRole",
          "type": "bytes32"
        },
        {
          "indexed": true,
          "internalType": "bytes32",
          "name": "newAdminRole",
          "type": "bytes32"
        }
      ],
      "name": "RoleAdminChanged",
      "type": "event"
    },
    {
      "anonymous": false,
      "inputs": [
        {
          "indexed": true,
          "internalType": "bytes32",
          "name": "role",
          "type": "bytes32"
        },
        {
          "indexed": true,
          "internalType": "address",
          "name": "account",
          "type": "address"
        },
        {
          "indexed": true,
          "internalType": "address",
          "name": "sender",
          "type": "address"
        }
      ],
      "name": "RoleGranted",
      "type": "event"
    },
    {
      "anonymous": false,
      "inputs": [
        {
          "indexed": true,
          "internalType": "bytes32",
          "name": "role",
          "type": "bytes32"
        },
        {
          "indexed": true,
          "internalType": "address",
          "name": "account",
          "type": "address"
        },
        {
          "indexed": true,
          "internalType": "address",
          "name": "sender",
          "type": "address"
        }
      ],
      "name": "RoleRevoked",
      "type": "event"
    },
    {
      "anonymous": false,
      "inputs": [
        {
          "indexed": true,
          "internalType": "address",
          "name": "implementation",
          "type": "address"
        }
      ],
      "name": "Upgraded",
      "type": "event"
    },
    {
      "inputs": [],
      "name": "ADMIN_ROLE",
      "outputs": [
        {
          "internalType": "bytes32",
          "name": "",
          "type": "bytes32"
        }
      ],
      "stateMutability": "view",
      "type": "function"
    },
    {
      "inputs": [],
      "name": "DEFAULT_ADMIN_ROLE",
      "outputs": [
        {
          "internalType": "bytes32",
          "name": "",
          "type": "bytes32"
        }
      ],
      "stateMutability": "view",
      "type": "function"
    },
    {
      "inputs": [],
      "name": "UPGRADER_ROLE",
      "outputs": [
        {
          "internalType": "bytes32",
          "name": "",
          "type": "bytes32"
        }
      ],
      "stateMutability": "view",
      "type": "function"
    },
    {
      "inputs": [
        {
          "internalType": "uint32",
          "name": "marketIndex",
          "type": "uint32"
        }
      ],
      "name": "areTherePendingNextPriceActions",
      "outputs": [
        {
          "internalType": "bool",
          "name": "",
          "type": "bool"
        }
      ],
      "stateMutability": "view",
      "type": "function"
    },
    {
      "inputs": [
        {
          "internalType": "bytes32",
          "name": "role",
          "type": "bytes32"
        }
      ],
      "name": "getRoleAdmin",
      "outputs": [
        {
          "internalType": "bytes32",
          "name": "",
          "type": "bytes32"
        }
      ],
      "stateMutability": "view",
      "type": "function"
    },
    {
      "inputs": [
        {
          "internalType": "bytes32",
          "name": "role",
          "type": "bytes32"
        },
        {
          "internalType": "address",
          "name": "account",
          "type": "address"
        }
      ],
      "name": "grantRole",
      "outputs": [],
      "stateMutability": "nonpayable",
      "type": "function"
    },
    {
      "inputs": [
        {
          "internalType": "bytes32",
          "name": "role",
          "type": "bytes32"
        },
        {
          "internalType": "address",
          "name": "account",
          "type": "address"
        }
      ],
      "name": "hasRole",
      "outputs": [
        {
          "internalType": "bool",
          "name": "",
          "type": "bool"
        }
      ],
      "stateMutability": "view",
      "type": "function"
    },
    {
      "inputs": [
        {
          "internalType": "address",
          "name": "_admin",
          "type": "address"
        },
        {
          "internalType": "address",
          "name": "_longShort",
          "type": "address"
        },
        {
          "internalType": "address",
          "name": "_staker",
          "type": "address"
        }
      ],
      "name": "initialize",
      "outputs": [],
      "stateMutability": "nonpayable",
      "type": "function"
    },
    {
      "inputs": [
        {
          "internalType": "uint32",
          "name": "marketIndex",
          "type": "uint32"
        }
      ],
      "name": "isPriceChangeOverThreshold",
      "outputs": [
        {
          "internalType": "bool",
          "name": "",
          "type": "bool"
        }
      ],
      "stateMutability": "view",
      "type": "function"
    },
    {
      "inputs": [
        {
          "internalType": "uint32",
          "name": "marketIndex",
          "type": "uint32"
        }
      ],
      "name": "isPriceChangeOverThresholdNotView",
      "outputs": [
        {
          "internalType": "bool",
          "name": "",
          "type": "bool"
        },
        {
          "internalType": "int256",
          "name": "",
          "type": "int256"
        }
      ],
      "stateMutability": "nonpayable",
      "type": "function"
    },
    {
      "inputs": [],
      "name": "longShortAddress",
      "outputs": [
        {
          "internalType": "address",
          "name": "",
          "type": "address"
        }
      ],
      "stateMutability": "view",
      "type": "function"
    },
    {
      "inputs": [
        {
          "internalType": "uint32",
          "name": "marketIndex",
          "type": "uint32"
        }
      ],
      "name": "pendingNextPriceActionsBreakdown",
      "outputs": [
        {
          "internalType": "uint256",
          "name": "",
          "type": "uint256"
        },
        {
          "internalType": "uint256",
          "name": "",
          "type": "uint256"
        },
        {
          "internalType": "uint256",
          "name": "",
          "type": "uint256"
        },
        {
          "internalType": "uint256",
          "name": "",
          "type": "uint256"
        },
        {
          "internalType": "uint256",
          "name": "",
          "type": "uint256"
        },
        {
          "internalType": "uint256",
          "name": "",
          "type": "uint256"
        }
      ],
      "stateMutability": "view",
      "type": "function"
    },
    {
      "inputs": [
        {
          "internalType": "uint32",
          "name": "marketIndex",
          "type": "uint32"
        }
      ],
      "name": "pendingNextPriceActionsBreakdownCall",
      "outputs": [],
      "stateMutability": "nonpayable",
      "type": "function"
    },
    {
      "inputs": [
        {
          "internalType": "uint32",
          "name": "",
          "type": "uint32"
        }
      ],
      "name": "percentChangeThreshold",
      "outputs": [
        {
          "internalType": "uint256",
          "name": "",
          "type": "uint256"
        }
      ],
      "stateMutability": "view",
      "type": "function"
    },
    {
      "inputs": [
        {
          "internalType": "bytes32",
          "name": "role",
          "type": "bytes32"
        },
        {
          "internalType": "address",
          "name": "account",
          "type": "address"
        }
      ],
      "name": "renounceRole",
      "outputs": [],
      "stateMutability": "nonpayable",
      "type": "function"
    },
    {
      "inputs": [
        {
          "internalType": "bytes32",
          "name": "role",
          "type": "bytes32"
        },
        {
          "internalType": "address",
          "name": "account",
          "type": "address"
        }
      ],
      "name": "revokeRole",
      "outputs": [],
      "stateMutability": "nonpayable",
      "type": "function"
    },
    {
      "inputs": [
        {
          "internalType": "uint32",
          "name": "marketIndex",
          "type": "uint32"
        }
      ],
      "name": "shouldUpdateOracle",
      "outputs": [
        {
          "internalType": "bool",
          "name": "",
          "type": "bool"
        }
      ],
      "stateMutability": "view",
      "type": "function"
    },
    {
      "inputs": [
        {
          "internalType": "uint32",
          "name": "marketIndex",
          "type": "uint32"
        }
      ],
      "name": "shouldUpdateOracleNotView",
      "outputs": [
        {
          "internalType": "bool",
          "name": "",
          "type": "bool"
        }
      ],
      "stateMutability": "nonpayable",
      "type": "function"
    },
    {
      "inputs": [
        {
          "internalType": "uint32",
          "name": "marketIndex",
          "type": "uint32"
        }
      ],
      "name": "shouldUpdateOracleNotViewBreakdown",
      "outputs": [
        {
          "internalType": "bool",
          "name": "",
          "type": "bool"
        },
        {
          "internalType": "bool",
          "name": "",
          "type": "bool"
        },
        {
          "internalType": "int256",
          "name": "",
          "type": "int256"
        },
        {
          "internalType": "bool",
          "name": "",
          "type": "bool"
        }
      ],
      "stateMutability": "nonpayable",
      "type": "function"
    },
    {
      "inputs": [
        {
          "internalType": "uint32",
          "name": "marketIndex",
          "type": "uint32"
        }
      ],
      "name": "shouldUpdateOracleNotViewBreakdownWithUpdateIndex",
      "outputs": [
        {
          "internalType": "bool",
          "name": "",
          "type": "bool"
        },
        {
          "internalType": "bool",
          "name": "",
          "type": "bool"
        },
        {
          "internalType": "int256",
          "name": "",
          "type": "int256"
        },
        {
          "internalType": "bool",
          "name": "",
          "type": "bool"
        },
        {
          "internalType": "uint256",
          "name": "",
          "type": "uint256"
        }
      ],
      "stateMutability": "nonpayable",
      "type": "function"
    },
    {
      "inputs": [],
      "name": "stakerAddress",
      "outputs": [
        {
          "internalType": "address",
          "name": "",
          "type": "address"
        }
      ],
      "stateMutability": "view",
      "type": "function"
    },
    {
      "inputs": [
        {
          "internalType": "bytes4",
          "name": "interfaceId",
          "type": "bytes4"
        }
      ],
      "name": "supportsInterface",
      "outputs": [
        {
          "internalType": "bool",
          "name": "",
          "type": "bool"
        }
      ],
      "stateMutability": "view",
      "type": "function"
    },
    {
      "inputs": [
        {
          "internalType": "uint32",
          "name": "marketIndex",
          "type": "uint32"
        },
        {
          "internalType": "uint256",
          "name": "heartbeatInSeconds",
          "type": "uint256"
        }
      ],
      "name": "updateHeartbeatThresholdForMarket",
      "outputs": [],
      "stateMutability": "nonpayable",
      "type": "function"
    },
    {
      "inputs": [
        {
          "internalType": "uint32",
          "name": "marketIndex",
          "type": "uint32"
        },
        {
          "internalType": "uint256",
          "name": "_percentChangeThreshold",
          "type": "uint256"
        }
      ],
      "name": "updatePercentChangeThresholdForMarket",
      "outputs": [],
      "stateMutability": "nonpayable",
      "type": "function"
    },
    {
      "inputs": [
        {
          "internalType": "uint32",
          "name": "",
          "type": "uint32"
        }
      ],
      "name": "updateTimeThresholdInSeconds",
      "outputs": [
        {
          "internalType": "uint256",
          "name": "",
          "type": "uint256"
        }
      ],
      "stateMutability": "view",
      "type": "function"
    },
    {
      "inputs": [
        {
          "internalType": "address",
          "name": "newImplementation",
          "type": "address"
        }
      ],
      "name": "upgradeTo",
      "outputs": [],
      "stateMutability": "nonpayable",
      "type": "function"
    },
    {
      "inputs": [
        {
          "internalType": "address",
          "name": "newImplementation",
          "type": "address"
        },
        {
          "internalType": "bytes",
          "name": "data",
          "type": "bytes"
        }
      ],
      "name": "upgradeToAndCall",
      "outputs": [],
      "stateMutability": "payable",
      "type": "function"
    },
    {
      "inputs": [
        {
          "internalType": "uint32",
          "name": "marketIndex",
          "type": "uint32"
        }
      ],
      "name": "wasLastUpdateOlderThanThreshold",
      "outputs": [
        {
          "internalType": "bool",
          "name": "",
          "type": "bool"
        }
      ],
      "stateMutability": "view",
      "type": "function"
    }
  ],
  "transactionHash": "0x25ea6eb7e82cfca85ca5a6ae5f2ed6deb681b60bb899011893d66edfc91b05e1",
  "args": [],
  "solcInputHash": "1782563bdeed4f5dda4a0880f03237c7",
  "bytecode": "0x60a06040523060601b60805234801561001757600080fd5b5060805160601c61273e61004b60003960008181610b5f01528181610b9f01528181610c280152610c68015261273e6000f3fe6080604052600436106101b75760003560e01c80639d34fa44116100ec578063c0d6c1801161008a578063d547741f11610064578063d547741f14610594578063ec0e8145146105b4578063f72c0d8b146105d4578063fb21062e14610608576101b7565b8063c0d6c18014610534578063c3fc3fec14610554578063d470316b14610574576101b7565b8063b3b4bfc3116100c6578063b3b4bfc314610462578063b777453a146104af578063b8e42ae3146104e7578063c0c53b8b14610514576101b7565b80639d34fa44146103e9578063a217fddf14610409578063a95d4baa1461041e576101b7565b806336568abe1161015957806375b238fc1161013357806375b238fc146103675780637d2dcbbc146103895780637f53e940146103a957806391d14854146103c9576101b7565b806336568abe146103145780633659cfe6146103345780634f1ef28614610354576101b7565b8063248a9ca311610195578063248a9ca3146102745780632510723e146102b25780632862f1b2146102d45780632f2ff15d146102f4576101b7565b806301ffc9a7146101bc57806314993a70146101f157806319c6dd711461023d575b600080fd5b3480156101c857600080fd5b506101dc6101d7366004612296565b610635565b60405190151581526020015b60405180910390f35b3480156101fd57600080fd5b5061021161020c366004612303565b61066e565b60408051951515865293151560208601529284019190915215156060830152608082015260a0016101e8565b34801561024957600080fd5b5061025d610258366004612303565b610744565b6040805192151583526020830191909152016101e8565b34801561028057600080fd5b506102a461028f36600461224f565b60009081526065602052604090206001015490565b6040519081526020016101e8565b3480156102be57600080fd5b506102d26102cd36600461231d565b61092e565b005b3480156102e057600080fd5b506101dc6102ef366004612303565b610962565b34801561030057600080fd5b506102d261030f366004612267565b610aa6565b34801561032057600080fd5b506102d261032f366004612267565b610ad1565b34801561034057600080fd5b506102d261034f36600461210e565b610b54565b6102d2610362366004612190565b610c1d565b34801561037357600080fd5b506102a46000805160206126e983398151915281565b34801561039557600080fd5b506101dc6103a4366004612303565b610cd3565b3480156103b557600080fd5b506102d26103c436600461231d565b610d17565b3480156103d557600080fd5b506101dc6103e4366004612267565b610d4a565b3480156103f557600080fd5b506101dc610404366004612303565b610d75565b34801561041557600080fd5b506102a4600081565b34801561042a57600080fd5b5061043e610439366004612303565b610dc9565b604080519415158552921515602085015291830152151560608201526080016101e8565b34801561046e57600080fd5b5061048261047d366004612303565b610e04565b604080519687526020870195909552938501929092526060840152608083015260a082015260c0016101e8565b3480156104bb57600080fd5b5060fb546104cf906001600160a01b031681565b6040516001600160a01b0390911681526020016101e8565b3480156104f357600080fd5b506102a4610502366004612303565b60fd6020526000908152604090205481565b34801561052057600080fd5b506102d261052f366004612146565b611155565b34801561054057600080fd5b506101dc61054f366004612303565b6111fd565b34801561056057600080fd5b506101dc61056f366004612303565b611565565b34801561058057600080fd5b5060fc546104cf906001600160a01b031681565b3480156105a057600080fd5b506102d26105af366004612267565b61174a565b3480156105c057600080fd5b506102d26105cf366004612303565b611770565b3480156105e057600080fd5b506102a47f189ab7a9244df0848122154315af71fe140f3db0fe014031783b0946b8c9d2e381565b34801561061457600080fd5b506102a4610623366004612303565b60fe6020526000908152604090205481565b60006001600160e01b03198216637965db0b60e01b148061066657506301ffc9a760e01b6001600160e01b03198316145b90505b919050565b60008060008060008060008060006106858a610dc9565b93509350935093508383838360fb60009054906101000a90046001600160a01b03166001600160a01b03166314c88ffa8f6040518263ffffffff1660e01b81526004016106de919063ffffffff91909116815260200190565b60206040518083038186803b1580156106f657600080fd5b505afa15801561070a573d6000803e3d6000fd5b505050506040513d601f19601f8201168201806040525081019061072e91906122be565b939e929d50909b50995090975095505050505050565b60fb546040516344805efd60e11b815263ffffffff83166004820152600091829182916001600160a01b031690638900bdfa9060240160206040518083038186803b15801561079257600080fd5b505afa1580156107a6573d6000803e3d6000fd5b505050506040513d601f19601f820116820180604052508101906107ca91906122be565b60fb54604051626eb7d760e61b815263ffffffff871660048201529192506000916001600160a01b0390911690631badf5c09060240160206040518083038186803b15801561081857600080fd5b505afa15801561082c573d6000803e3d6000fd5b505050506040513d601f19601f82011682018060405250810190610850919061212a565b90506000816001600160a01b031663673a7e286040518163ffffffff1660e01b8152600401602060405180830381600087803b15801561088f57600080fd5b505af11580156108a3573d6000803e3d6000fd5b505050506040513d601f19601f820116820180604052508101906108c791906122be565b90506000836108d683826125e4565b6108e890670de0b6b3a7640000612542565b6108f29190612508565b63ffffffff8816600090815260fe60205260409020549091508082138061092057508061091e83612666565b135b965090945050505050915091565b6000805160206126e983398151915261094881335b611782565b5063ffffffff909116600090815260fe6020526040902055565b60fc546040516338e6b01160e21b815263ffffffff8316600482015260009182916001600160a01b039091169063e39ac0449060240160206040518083038186803b1580156109b057600080fd5b505afa1580156109c4573d6000803e3d6000fd5b505050506040513d601f19601f820116820180604052508101906109e891906122be565b60fc54604051633ebff44f60e01b815263ffffffff86166004820152602481018390529192506000916001600160a01b0390911690633ebff44f9060440160606040518083038186803b158015610a3e57600080fd5b505afa158015610a52573d6000803e3d6000fd5b505050506040513d601f19601f82011682018060405250810190610a7691906122d6565b505063ffffffff8516600090815260fd60205260409020549091504290610a9d90836124f0565b10949350505050565b600082815260656020526040902060010154610ac28133610943565b610acc83836117e6565b505050565b6001600160a01b0381163314610b465760405162461bcd60e51b815260206004820152602f60248201527f416363657373436f6e74726f6c3a2063616e206f6e6c792072656e6f756e636560448201526e103937b632b9903337b91039b2b63360891b60648201526084015b60405180910390fd5b610b50828261186c565b5050565b306001600160a01b037f0000000000000000000000000000000000000000000000000000000000000000161415610b9d5760405162461bcd60e51b8152600401610b3d9061240a565b7f00000000000000000000000000000000000000000000000000000000000000006001600160a01b0316610bcf6118d3565b6001600160a01b031614610bf55760405162461bcd60e51b8152600401610b3d90612456565b610bfe81611901565b60408051600080825260208201909252610c1a9183919061192c565b50565b306001600160a01b037f0000000000000000000000000000000000000000000000000000000000000000161415610c665760405162461bcd60e51b8152600401610b3d9061240a565b7f00000000000000000000000000000000000000000000000000000000000000006001600160a01b0316610c986118d3565b6001600160a01b031614610cbe5760405162461bcd60e51b8152600401610b3d90612456565b610cc782611901565b610b508282600161192c565b6000610cde82610962565b15610ceb57506001610669565b610cf482611565565b15610d0157506001610669565b610d0a826111fd565b1561066957506001610669565b6000805160206126e9833981519152610d308133610943565b5063ffffffff909116600090815260fd6020526040902055565b60009182526065602090815260408084206001600160a01b0393909316845291905290205460ff1690565b6000610d8082610962565b15610d8d57506001610669565b6000610d9883610744565b5090508015610dab576001915050610669565b610db4836111fd565b15610dc3576001915050610669565b50919050565b600080600080600080610ddb87610744565b91509150610de887610962565b8282610df38a6111fd565b955095509550955050509193509193565b60fb546040516364e4a81d60e01b815263ffffffff8316600482015260016024820152600091829182918291829182916001600160a01b03909116906364e4a81d9060440160206040518083038186803b158015610e6157600080fd5b505afa158015610e75573d6000803e3d6000fd5b505050506040513d601f19601f82011682018060405250810190610e9991906122be565b60fb546040516334daaa2560e01b815263ffffffff8a166004820152600160248201526001600160a01b03909116906334daaa259060440160206040518083038186803b158015610ee957600080fd5b505afa158015610efd573d6000803e3d6000fd5b505050506040513d601f19601f82011682018060405250810190610f2191906122be565b60fb54604051637c064dc960e11b815263ffffffff8b166004820152600160248201526001600160a01b039091169063f80c9b929060440160206040518083038186803b158015610f7157600080fd5b505afa158015610f85573d6000803e3d6000fd5b505050506040513d601f19601f82011682018060405250810190610fa991906122be565b60fb546040516364e4a81d60e01b815263ffffffff8c166004820152600060248201526001600160a01b03909116906364e4a81d9060440160206040518083038186803b158015610ff957600080fd5b505afa15801561100d573d6000803e3d6000fd5b505050506040513d601f19601f8201168201806040525081019061103191906122be565b60fb546040516334daaa2560e01b815263ffffffff8d166004820152600060248201526001600160a01b03909116906334daaa259060440160206040518083038186803b15801561108157600080fd5b505afa158015611095573d6000803e3d6000fd5b505050506040513d601f19601f820116820180604052508101906110b991906122be565b60fb54604051637c064dc960e11b815263ffffffff8e166004820152600060248201526001600160a01b039091169063f80c9b929060440160206040518083038186803b15801561110957600080fd5b505afa15801561111d573d6000803e3d6000fd5b505050506040513d601f19601f8201168201806040525081019061114191906122be565b949c939b5091995097509550909350915050565b600054610100900460ff168061116e575060005460ff16155b61118a5760405162461bcd60e51b8152600401610b3d906124a2565b600054610100900460ff161580156111ac576000805461ffff19166101011790555b60fb80546001600160a01b038086166001600160a01b03199283161790925560fc8054928516929091169190911790556111e584611a77565b80156111f7576000805461ff00191690555b50505050565b60fb546040516364e4a81d60e01b815263ffffffff831660048201526001602482015260009182916001600160a01b03909116906364e4a81d9060440160206040518083038186803b15801561125257600080fd5b505afa158015611266573d6000803e3d6000fd5b505050506040513d601f19601f8201168201806040525081019061128a91906122be565b118061131c575060fb546040516334daaa2560e01b815263ffffffff84166004820152600160248201526000916001600160a01b0316906334daaa259060440160206040518083038186803b1580156112e257600080fd5b505afa1580156112f6573d6000803e3d6000fd5b505050506040513d601f19601f8201168201806040525081019061131a91906122be565b115b806113ad575060fb54604051637c064dc960e11b815263ffffffff84166004820152600160248201526000916001600160a01b03169063f80c9b929060440160206040518083038186803b15801561137357600080fd5b505afa158015611387573d6000803e3d6000fd5b505050506040513d601f19601f820116820180604052508101906113ab91906122be565b115b8061143e575060fb546040516364e4a81d60e01b815263ffffffff84166004820152600060248201819052916001600160a01b0316906364e4a81d9060440160206040518083038186803b15801561140457600080fd5b505afa158015611418573d6000803e3d6000fd5b505050506040513d601f19601f8201168201806040525081019061143c91906122be565b115b806114cf575060fb546040516334daaa2560e01b815263ffffffff84166004820152600060248201819052916001600160a01b0316906334daaa259060440160206040518083038186803b15801561149557600080fd5b505afa1580156114a9573d6000803e3d6000fd5b505050506040513d601f19601f820116820180604052508101906114cd91906122be565b115b80610666575060fb54604051637c064dc960e11b815263ffffffff84166004820152600060248201819052916001600160a01b03169063f80c9b929060440160206040518083038186803b15801561152657600080fd5b505afa15801561153a573d6000803e3d6000fd5b505050506040513d601f19601f8201168201806040525081019061155e91906122be565b1192915050565b60fb546040516344805efd60e11b815263ffffffff8316600482015260009182916001600160a01b0390911690638900bdfa9060240160206040518083038186803b1580156115b357600080fd5b505afa1580156115c7573d6000803e3d6000fd5b505050506040513d601f19601f820116820180604052508101906115eb91906122be565b60fb54604051626eb7d760e61b815263ffffffff861660048201529192506000916001600160a01b0390911690631badf5c09060240160206040518083038186803b15801561163957600080fd5b505afa15801561164d573d6000803e3d6000fd5b505050506040513d601f19601f82011682018060405250810190611671919061212a565b90506000816001600160a01b0316638e15f4736040518163ffffffff1660e01b815260040160206040518083038186803b1580156116ae57600080fd5b505afa1580156116c2573d6000803e3d6000fd5b505050506040513d601f19601f820116820180604052508101906116e691906122be565b90506000836116f583826125e4565b61170790670de0b6b3a7640000612542565b6117119190612508565b63ffffffff8716600090815260fe60205260409020549091508082138061173f57508061173d83612666565b135b979650505050505050565b6000828152606560205260409020600101546117668133610943565b610acc838361186c565b61177981610e04565b50505050505050565b61178c8282610d4a565b610b50576117a4816001600160a01b03166014611afc565b6117af836020611afc565b6040516020016117c0929190612362565b60408051601f198184030181529082905262461bcd60e51b8252610b3d916004016123d7565b6117f08282610d4a565b610b505760008281526065602090815260408083206001600160a01b03851684529091529020805460ff191660011790556118283390565b6001600160a01b0316816001600160a01b0316837f2f8788117e7eff1d82e926ec794901d17c78024a50270940304540a733656f0d60405160405180910390a45050565b6118768282610d4a565b15610b505760008281526065602090815260408083206001600160a01b0385168085529252808320805460ff1916905551339285917ff6391f5c32d9c69d2a47ea670b442974b53935d1edc7fd64eb21e047a839171b9190a45050565b7f360894a13ba1a3210667c828492db98dca3e2076cc3735a920a3ca505d382bbc546001600160a01b031690565b7f189ab7a9244df0848122154315af71fe140f3db0fe014031783b0946b8c9d2e3610b508133610943565b60006119366118d3565b905061194184611ce5565b60008351118061194e5750815b1561195f5761195d8484611d8a565b505b7f4910fdfa16fed3260ed0e7147f7cc6da11a60208b5b9406d12a635614ffd9143805460ff16611a7057805460ff191660011781556040516001600160a01b03831660248201526119de90869060440160408051601f198184030181529190526020810180516001600160e01b0316631b2ce7f360e11b179052611d8a565b50805460ff191681556119ef6118d3565b6001600160a01b0316826001600160a01b031614611a675760405162461bcd60e51b815260206004820152602f60248201527f45524331393637557067726164653a207570677261646520627265616b73206660448201526e75727468657220757067726164657360881b6064820152608401610b3d565b611a7085611e75565b5050505050565b600054610100900460ff1680611a90575060005460ff16155b611aac5760405162461bcd60e51b8152600401610b3d906124a2565b600054610100900460ff16158015611ace576000805461ffff19166101011790555b611ad6611eb5565b611ade611f38565b611ae782611f96565b8015610b50576000805461ff00191690555050565b60606000611b0b8360026125c5565b611b169060026124f0565b67ffffffffffffffff811115611b3c57634e487b7160e01b600052604160045260246000fd5b6040519080825280601f01601f191660200182016040528015611b66576020820181803683370190505b509050600360fc1b81600081518110611b8f57634e487b7160e01b600052603260045260246000fd5b60200101906001600160f81b031916908160001a905350600f60fb1b81600181518110611bcc57634e487b7160e01b600052603260045260246000fd5b60200101906001600160f81b031916908160001a9053506000611bf08460026125c5565b611bfb9060016124f0565b90505b6001811115611c8f576f181899199a1a9b1b9c1cb0b131b232b360811b85600f1660108110611c3d57634e487b7160e01b600052603260045260246000fd5b1a60f81b828281518110611c6157634e487b7160e01b600052603260045260246000fd5b60200101906001600160f81b031916908160001a90535060049490941c93611c888161264f565b9050611bfe565b508315611cde5760405162461bcd60e51b815260206004820181905260248201527f537472696e67733a20686578206c656e67746820696e73756666696369656e746044820152606401610b3d565b9392505050565b803b611d495760405162461bcd60e51b815260206004820152602d60248201527f455243313936373a206e657720696d706c656d656e746174696f6e206973206e60448201526c1bdd08184818dbdb9d1c9858dd609a1b6064820152608401610b3d565b7f360894a13ba1a3210667c828492db98dca3e2076cc3735a920a3ca505d382bbc80546001600160a01b0319166001600160a01b0392909216919091179055565b6060823b611de95760405162461bcd60e51b815260206004820152602660248201527f416464726573733a2064656c65676174652063616c6c20746f206e6f6e2d636f6044820152651b9d1c9858dd60d21b6064820152608401610b3d565b600080846001600160a01b031684604051611e049190612346565b600060405180830381855af49150503d8060008114611e3f576040519150601f19603f3d011682016040523d82523d6000602084013e611e44565b606091505b5091509150611e6c82826040518060600160405280602781526020016126c26027913961204d565b95945050505050565b611e7e81611ce5565b6040516001600160a01b038216907fbc7cd75a20ee27fd9adebab32041f755214dbc6bffa90cc0225b39da2e5c2d3b90600090a250565b600054610100900460ff1680611ece575060005460ff16155b611eea5760405162461bcd60e51b8152600401610b3d906124a2565b600054610100900460ff16158015611f0c576000805461ffff19166101011790555b611f14612086565b611f1c612086565b611f24612086565b8015610c1a576000805461ff001916905550565b600054610100900460ff1680611f51575060005460ff16155b611f6d5760405162461bcd60e51b8152600401610b3d906124a2565b600054610100900460ff16158015611f14576000805461ffff1916610101179055611f1c612086565b600054610100900460ff1680611faf575060005460ff16155b611fcb5760405162461bcd60e51b8152600401610b3d906124a2565b600054610100900460ff16158015611fed576000805461ffff19166101011790555b6001600160a01b03821661200057600080fd5b61200b6000836120f0565b6120236000805160206126e9833981519152836120f0565b611ae77f189ab7a9244df0848122154315af71fe140f3db0fe014031783b0946b8c9d2e3836120f0565b6060831561205c575081611cde565b82511561206c5782518084602001fd5b8160405162461bcd60e51b8152600401610b3d91906123d7565b600054610100900460ff168061209f575060005460ff16155b6120bb5760405162461bcd60e51b8152600401610b3d906124a2565b600054610100900460ff16158015611f24576000805461ffff19166101011790558015610c1a576000805461ff001916905550565b610b5082826117e6565b803563ffffffff8116811461066957600080fd5b60006020828403121561211f578081fd5b8135611cde816126ac565b60006020828403121561213b578081fd5b8151611cde816126ac565b60008060006060848603121561215a578182fd5b8335612165816126ac565b92506020840135612175816126ac565b91506040840135612185816126ac565b809150509250925092565b600080604083850312156121a2578182fd5b82356121ad816126ac565b9150602083013567ffffffffffffffff808211156121c9578283fd5b818501915085601f8301126121dc578283fd5b8135818111156121ee576121ee612696565b604051601f8201601f19908116603f0116810190838211818310171561221657612216612696565b8160405282815288602084870101111561222e578586fd5b82602086016020830137856020848301015280955050505050509250929050565b600060208284031215612260578081fd5b5035919050565b60008060408385031215612279578182fd5b82359150602083013561228b816126ac565b809150509250929050565b6000602082840312156122a7578081fd5b81356001600160e01b031981168114611cde578182fd5b6000602082840312156122cf578081fd5b5051919050565b6000806000606084860312156122ea578283fd5b8351925060208401519150604084015190509250925092565b600060208284031215612314578081fd5b611cde826120fa565b6000806040838503121561232f578182fd5b612338836120fa565b946020939093013593505050565b60008251612358818460208701612623565b9190910192915050565b60007f416363657373436f6e74726f6c3a206163636f756e74200000000000000000008252835161239a816017850160208801612623565b7001034b99036b4b9b9b4b733903937b6329607d1b60179184019182015283516123cb816028840160208801612623565b01602801949350505050565b60006020825282518060208401526123f6816040850160208701612623565b601f01601f19169190910160400192915050565b6020808252602c908201527f46756e6374696f6e206d7573742062652063616c6c6564207468726f7567682060408201526b19195b1959d85d1958d85b1b60a21b606082015260800190565b6020808252602c908201527f46756e6374696f6e206d7573742062652063616c6c6564207468726f7567682060408201526b6163746976652070726f787960a01b606082015260800190565b6020808252602e908201527f496e697469616c697a61626c653a20636f6e747261637420697320616c72656160408201526d191e481a5b9a5d1a585b1a5e995960921b606082015260800190565b6000821982111561250357612503612680565b500190565b60008261252357634e487b7160e01b81526012600452602481fd5b600160ff1b82146000198414161561253d5761253d612680565b500590565b60006001600160ff1b038184138284138082168684048611161561256857612568612680565b600160ff1b8487128281168783058912161561258657612586612680565b8587129250878205871284841616156125a1576125a1612680565b878505871281841616156125b7576125b7612680565b505050929093029392505050565b60008160001904831182151516156125df576125df612680565b500290565b60008083128015600160ff1b85018412161561260257612602612680565b6001600160ff1b038401831381161561261d5761261d612680565b50500390565b60005b8381101561263e578181015183820152602001612626565b838111156111f75750506000910152565b60008161265e5761265e612680565b506000190190565b6000600160ff1b82141561267c5761267c612680565b0390565b634e487b7160e01b600052601160045260246000fd5b634e487b7160e01b600052604160045260246000fd5b6001600160a01b0381168114610c1a57600080fdfe416464726573733a206c6f772d6c6576656c2064656c65676174652063616c6c206661696c6564a49807205ce4d355092ef5a8a18f56e8913cf4a201fbe287825b095693c21775a264697066735822122079deeb8e83681a93b9cd764705544b065698dd489fe90e10698d6d54c3e283c764736f6c63430008030033",
  "devdoc": {
    "kind": "dev",
    "methods": {
      "getRoleAdmin(bytes32)": {
        "details": "Returns the admin role that controls `role`. See {grantRole} and {revokeRole}. To change a role's admin, use {_setRoleAdmin}."
      },
      "grantRole(bytes32,address)": {
        "details": "Grants `role` to `account`. If `account` had not been already granted `role`, emits a {RoleGranted} event. Requirements: - the caller must have ``role``'s admin role."
      },
      "hasRole(bytes32,address)": {
        "details": "Returns `true` if `account` has been granted `role`."
      },
      "renounceRole(bytes32,address)": {
        "details": "Revokes `role` from the calling account. Roles are often managed via {grantRole} and {revokeRole}: this function's purpose is to provide a mechanism for accounts to lose their privileges if they are compromised (such as when a trusted device is misplaced). If the calling account had been granted `role`, emits a {RoleRevoked} event. Requirements: - the caller must be `account`."
      },
      "revokeRole(bytes32,address)": {
        "details": "Revokes `role` from `account`. If `account` had been granted `role`, emits a {RoleRevoked} event. Requirements: - the caller must have ``role``'s admin role."
      },
      "supportsInterface(bytes4)": {
        "details": "See {IERC165-supportsInterface}."
      },
      "upgradeTo(address)": {
        "details": "Upgrade the implementation of the proxy to `newImplementation`. Calls {_authorizeUpgrade}. Emits an {Upgraded} event."
      },
      "upgradeToAndCall(address,bytes)": {
        "details": "Upgrade the implementation of the proxy to `newImplementation`, and subsequently execute the function call encoded in `data`. Calls {_authorizeUpgrade}. Emits an {Upgraded} event."
      }
    },
    "version": 1
  },
  "userdoc": {
    "kind": "user",
    "methods": {},
    "version": 1
  },
  "storageLayout": {
    "storage": [
      {
        "astId": 1102,
        "contract": "contracts/KeeperExperiment.sol:KeeperExperiment",
        "label": "_initialized",
        "offset": 0,
        "slot": "0",
        "type": "t_bool"
      },
      {
        "astId": 1105,
        "contract": "contracts/KeeperExperiment.sol:KeeperExperiment",
        "label": "_initializing",
        "offset": 1,
        "slot": "0",
        "type": "t_bool"
      },
      {
        "astId": 3571,
        "contract": "contracts/KeeperExperiment.sol:KeeperExperiment",
        "label": "__gap",
        "offset": 0,
        "slot": "1",
        "type": "t_array(t_uint256)50_storage"
      },
      {
        "astId": 4470,
        "contract": "contracts/KeeperExperiment.sol:KeeperExperiment",
        "label": "__gap",
        "offset": 0,
        "slot": "51",
        "type": "t_array(t_uint256)50_storage"
      },
      {
        "astId": 304,
        "contract": "contracts/KeeperExperiment.sol:KeeperExperiment",
        "label": "_roles",
        "offset": 0,
        "slot": "101",
        "type": "t_mapping(t_bytes32,t_struct(RoleData)299_storage)"
      },
      {
        "astId": 589,
        "contract": "contracts/KeeperExperiment.sol:KeeperExperiment",
        "label": "__gap",
        "offset": 0,
        "slot": "102",
        "type": "t_array(t_uint256)49_storage"
      },
      {
        "astId": 1085,
        "contract": "contracts/KeeperExperiment.sol:KeeperExperiment",
        "label": "__gap",
        "offset": 0,
        "slot": "151",
        "type": "t_array(t_uint256)50_storage"
      },
      {
        "astId": 1252,
        "contract": "contracts/KeeperExperiment.sol:KeeperExperiment",
        "label": "__gap",
        "offset": 0,
        "slot": "201",
        "type": "t_array(t_uint256)50_storage"
      },
      {
        "astId": 10915,
        "contract": "contracts/KeeperExperiment.sol:KeeperExperiment",
        "label": "longShortAddress",
        "offset": 0,
        "slot": "251",
        "type": "t_address"
      },
      {
        "astId": 10917,
        "contract": "contracts/KeeperExperiment.sol:KeeperExperiment",
        "label": "stakerAddress",
        "offset": 0,
        "slot": "252",
        "type": "t_address"
      },
      {
        "astId": 10921,
        "contract": "contracts/KeeperExperiment.sol:KeeperExperiment",
        "label": "updateTimeThresholdInSeconds",
        "offset": 0,
        "slot": "253",
        "type": "t_mapping(t_uint32,t_uint256)"
      },
      {
        "astId": 10925,
        "contract": "contracts/KeeperExperiment.sol:KeeperExperiment",
        "label": "percentChangeThreshold",
        "offset": 0,
        "slot": "254",
        "type": "t_mapping(t_uint32,t_uint256)"
      }
    ],
    "types": {
      "t_address": {
        "encoding": "inplace",
        "label": "address",
        "numberOfBytes": "20"
      },
      "t_array(t_uint256)49_storage": {
        "base": "t_uint256",
        "encoding": "inplace",
        "label": "uint256[49]",
        "numberOfBytes": "1568"
      },
      "t_array(t_uint256)50_storage": {
        "base": "t_uint256",
        "encoding": "inplace",
        "label": "uint256[50]",
        "numberOfBytes": "1600"
      },
      "t_bool": {
        "encoding": "inplace",
        "label": "bool",
        "numberOfBytes": "1"
      },
      "t_bytes32": {
        "encoding": "inplace",
        "label": "bytes32",
        "numberOfBytes": "32"
      },
      "t_mapping(t_address,t_bool)": {
        "encoding": "mapping",
        "key": "t_address",
        "label": "mapping(address => bool)",
        "numberOfBytes": "32",
        "value": "t_bool"
      },
      "t_mapping(t_bytes32,t_struct(RoleData)299_storage)": {
        "encoding": "mapping",
        "key": "t_bytes32",
        "label": "mapping(bytes32 => struct AccessControlUpgradeable.RoleData)",
        "numberOfBytes": "32",
        "value": "t_struct(RoleData)299_storage"
      },
      "t_mapping(t_uint32,t_uint256)": {
        "encoding": "mapping",
        "key": "t_uint32",
        "label": "mapping(uint32 => uint256)",
        "numberOfBytes": "32",
        "value": "t_uint256"
      },
      "t_struct(RoleData)299_storage": {
        "encoding": "inplace",
        "label": "struct AccessControlUpgradeable.RoleData",
        "members": [
          {
            "astId": 296,
            "contract": "contracts/KeeperExperiment.sol:KeeperExperiment",
            "label": "members",
            "offset": 0,
            "slot": "0",
            "type": "t_mapping(t_address,t_bool)"
          },
          {
            "astId": 298,
            "contract": "contracts/KeeperExperiment.sol:KeeperExperiment",
            "label": "adminRole",
            "offset": 0,
            "slot": "1",
            "type": "t_bytes32"
          }
        ],
        "numberOfBytes": "64"
      },
      "t_uint256": {
        "encoding": "inplace",
        "label": "uint256",
        "numberOfBytes": "32"
      },
      "t_uint32": {
        "encoding": "inplace",
        "label": "uint32",
        "numberOfBytes": "4"
      }
    }
  }
}