{
  "address": "0x16488343e508C2BFB7F180185848F924184c9C9F",
  "abi": [
    {
      "inputs": [],
      "stateMutability": "nonpayable",
      "type": "constructor"
    },
    {
      "anonymous": false,
      "inputs": [
        {
          "indexed": false,
          "internalType": "address",
          "name": "previousAdmin",
          "type": "address"
        },
        {
          "indexed": false,
          "internalType": "address",
          "name": "newAdmin",
          "type": "address"
        }
      ],
      "name": "AdminChanged",
      "type": "event"
    },
    {
      "anonymous": false,
      "inputs": [
        {
          "indexed": true,
          "internalType": "address",
          "name": "beacon",
          "type": "address"
        }
      ],
      "name": "BeaconUpgraded",
      "type": "event"
    },
    {
      "anonymous": false,
      "inputs": [
        {
          "indexed": false,
          "internalType": "address",
          "name": "user",
          "type": "address"
        },
        {
          "indexed": false,
          "internalType": "uint32",
          "name": "marketIndex",
          "type": "uint32"
        }
      ],
      "name": "ExecuteNextPriceSettlementsUser",
      "type": "event"
    },
    {
      "anonymous": false,
      "inputs": [
        {
          "indexed": false,
          "internalType": "address",
          "name": "admin",
          "type": "address"
        },
        {
          "indexed": false,
          "internalType": "address",
          "name": "tokenFactory",
          "type": "address"
        },
        {
          "indexed": false,
          "internalType": "address",
          "name": "staker",
          "type": "address"
        }
      ],
      "name": "LongShortV1",
      "type": "event"
    },
    {
      "anonymous": false,
      "inputs": [
        {
          "indexed": false,
          "internalType": "uint32",
          "name": "marketIndex",
          "type": "uint32"
        },
        {
          "indexed": false,
          "internalType": "uint256",
          "name": "fundingRateMultiplier_e18",
          "type": "uint256"
        }
      ],
      "name": "MarketFundingRateMultiplerChanged",
      "type": "event"
    },
    {
      "anonymous": false,
      "inputs": [
        {
          "indexed": false,
          "internalType": "uint32",
          "name": "marketIndex",
          "type": "uint32"
        },
        {
          "indexed": false,
          "internalType": "uint256",
          "name": "initialSeed",
          "type": "uint256"
        },
        {
          "indexed": false,
          "internalType": "uint256",
          "name": "marketLeverage",
          "type": "uint256"
        }
      ],
      "name": "NewMarketLaunchedAndSeeded",
      "type": "event"
    },
    {
      "anonymous": false,
      "inputs": [
        {
          "indexed": false,
          "internalType": "uint32",
          "name": "marketIndex",
          "type": "uint32"
        },
        {
          "indexed": false,
          "internalType": "bool",
          "name": "isLong",
          "type": "bool"
        },
        {
          "indexed": false,
          "internalType": "uint256",
          "name": "depositAdded",
          "type": "uint256"
        },
        {
          "indexed": false,
          "internalType": "address",
          "name": "user",
          "type": "address"
        },
        {
          "indexed": false,
          "internalType": "uint256",
          "name": "oracleUpdateIndex",
          "type": "uint256"
        }
      ],
      "name": "NextPriceDeposit",
      "type": "event"
    },
    {
      "anonymous": false,
      "inputs": [
        {
          "indexed": false,
          "internalType": "uint32",
          "name": "marketIndex",
          "type": "uint32"
        },
        {
          "indexed": false,
          "internalType": "bool",
          "name": "isLong",
          "type": "bool"
        },
        {
          "indexed": false,
          "internalType": "uint256",
          "name": "amountToStake",
          "type": "uint256"
        },
        {
          "indexed": false,
          "internalType": "address",
          "name": "user",
          "type": "address"
        },
        {
          "indexed": false,
          "internalType": "uint256",
          "name": "oracleUpdateIndex",
          "type": "uint256"
        }
      ],
      "name": "NextPriceDepositAndStake",
      "type": "event"
    },
    {
      "anonymous": false,
      "inputs": [
        {
          "indexed": false,
          "internalType": "uint32",
          "name": "marketIndex",
          "type": "uint32"
        },
        {
          "indexed": false,
          "internalType": "bool",
          "name": "isLong",
          "type": "bool"
        },
        {
          "indexed": false,
          "internalType": "uint256",
          "name": "synthRedeemed",
          "type": "uint256"
        },
        {
          "indexed": false,
          "internalType": "address",
          "name": "user",
          "type": "address"
        },
        {
          "indexed": false,
          "internalType": "uint256",
          "name": "oracleUpdateIndex",
          "type": "uint256"
        }
      ],
      "name": "NextPriceRedeem",
      "type": "event"
    },
    {
      "anonymous": false,
      "inputs": [
        {
          "indexed": false,
          "internalType": "uint32",
          "name": "marketIndex",
          "type": "uint32"
        },
        {
          "indexed": false,
          "internalType": "bool",
          "name": "isShiftFromLong",
          "type": "bool"
        },
        {
          "indexed": false,
          "internalType": "uint256",
          "name": "synthShifted",
          "type": "uint256"
        },
        {
          "indexed": false,
          "internalType": "address",
          "name": "user",
          "type": "address"
        },
        {
          "indexed": false,
          "internalType": "uint256",
          "name": "oracleUpdateIndex",
          "type": "uint256"
        }
      ],
      "name": "NextPriceSyntheticPositionShift",
      "type": "event"
    },
    {
      "anonymous": false,
      "inputs": [
        {
          "indexed": false,
          "internalType": "uint32",
          "name": "marketIndex",
          "type": "uint32"
        },
        {
          "indexed": false,
          "internalType": "address",
          "name": "oldOracleAddress",
          "type": "address"
        },
        {
          "indexed": false,
          "internalType": "address",
          "name": "newOracleAddress",
          "type": "address"
        }
      ],
      "name": "OracleUpdated",
      "type": "event"
    },
    {
      "anonymous": false,
      "inputs": [
        {
          "indexed": true,
          "internalType": "bytes32",
          "name": "role",
          "type": "bytes32"
        },
        {
          "indexed": true,
          "internalType": "bytes32",
          "name": "previousAdminRole",
          "type": "bytes32"
        },
        {
          "indexed": true,
          "internalType": "bytes32",
          "name": "newAdminRole",
          "type": "bytes32"
        }
      ],
      "name": "RoleAdminChanged",
      "type": "event"
    },
    {
      "anonymous": false,
      "inputs": [
        {
          "indexed": true,
          "internalType": "bytes32",
          "name": "role",
          "type": "bytes32"
        },
        {
          "indexed": true,
          "internalType": "address",
          "name": "account",
          "type": "address"
        },
        {
          "indexed": true,
          "internalType": "address",
          "name": "sender",
          "type": "address"
        }
      ],
      "name": "RoleGranted",
      "type": "event"
    },
    {
      "anonymous": false,
      "inputs": [
        {
          "indexed": true,
          "internalType": "bytes32",
          "name": "role",
          "type": "bytes32"
        },
        {
          "indexed": true,
          "internalType": "address",
          "name": "account",
          "type": "address"
        },
        {
          "indexed": true,
          "internalType": "address",
          "name": "sender",
          "type": "address"
        }
      ],
      "name": "RoleRevoked",
      "type": "event"
    },
    {
      "anonymous": false,
      "inputs": [
        {
          "indexed": false,
          "internalType": "uint32",
          "name": "marketIndex",
          "type": "uint32"
        },
        {
          "indexed": false,
          "internalType": "address",
          "name": "longTokenAddress",
          "type": "address"
        },
        {
          "indexed": false,
          "internalType": "address",
          "name": "shortTokenAddress",
          "type": "address"
        },
        {
          "indexed": false,
          "internalType": "address",
          "name": "paymentToken",
          "type": "address"
        },
        {
          "indexed": false,
          "internalType": "int256",
          "name": "initialAssetPrice",
          "type": "int256"
        },
        {
          "indexed": false,
          "internalType": "string",
          "name": "name",
          "type": "string"
        },
        {
          "indexed": false,
          "internalType": "string",
          "name": "symbol",
          "type": "string"
        },
        {
          "indexed": false,
          "internalType": "address",
          "name": "oracleAddress",
          "type": "address"
        },
        {
          "indexed": false,
          "internalType": "address",
          "name": "yieldManagerAddress",
          "type": "address"
        }
      ],
      "name": "SyntheticMarketCreated",
      "type": "event"
    },
    {
      "anonymous": false,
      "inputs": [
        {
          "indexed": false,
          "internalType": "uint32",
          "name": "marketIndex",
          "type": "uint32"
        },
        {
          "indexed": false,
          "internalType": "uint256",
          "name": "updateIndex",
          "type": "uint256"
        },
        {
          "indexed": false,
          "internalType": "int256",
          "name": "underlyingAssetPrice",
          "type": "int256"
        },
        {
          "indexed": false,
          "internalType": "uint256",
          "name": "longValue",
          "type": "uint256"
        },
        {
          "indexed": false,
          "internalType": "uint256",
          "name": "shortValue",
          "type": "uint256"
        },
        {
          "indexed": false,
          "internalType": "uint256",
          "name": "longPrice",
          "type": "uint256"
        },
        {
          "indexed": false,
          "internalType": "uint256",
          "name": "shortPrice",
          "type": "uint256"
        }
      ],
      "name": "SystemStateUpdated",
      "type": "event"
    },
    {
      "anonymous": false,
      "inputs": [
        {
          "indexed": false,
          "internalType": "uint256",
          "name": "version",
          "type": "uint256"
        }
      ],
      "name": "Upgrade",
      "type": "event"
    },
    {
      "anonymous": false,
      "inputs": [
        {
          "indexed": true,
          "internalType": "address",
          "name": "implementation",
          "type": "address"
        }
      ],
      "name": "Upgraded",
      "type": "event"
    },
    {
      "inputs": [],
      "name": "ADMIN_ROLE",
      "outputs": [
        {
          "internalType": "bytes32",
          "name": "",
          "type": "bytes32"
        }
      ],
      "stateMutability": "view",
      "type": "function"
    },
    {
      "inputs": [],
      "name": "DEFAULT_ADMIN_ROLE",
      "outputs": [
        {
          "internalType": "bytes32",
          "name": "",
          "type": "bytes32"
        }
      ],
      "stateMutability": "view",
      "type": "function"
    },
    {
      "inputs": [],
      "name": "UPGRADER_ROLE",
      "outputs": [
        {
          "internalType": "bytes32",
          "name": "",
          "type": "bytes32"
        }
      ],
      "stateMutability": "view",
      "type": "function"
    },
    {
      "inputs": [
        {
          "internalType": "uint32",
          "name": "",
          "type": "uint32"
        }
      ],
      "name": "assetPrice",
      "outputs": [
        {
          "internalType": "int256",
          "name": "",
          "type": "int256"
        }
      ],
      "stateMutability": "view",
      "type": "function"
    },
    {
      "inputs": [
        {
          "internalType": "uint32",
          "name": "",
          "type": "uint32"
        },
        {
          "internalType": "bool",
          "name": "",
          "type": "bool"
        }
      ],
      "name": "batched_amountPaymentToken_deposit",
      "outputs": [
        {
          "internalType": "uint256",
          "name": "",
          "type": "uint256"
        }
      ],
      "stateMutability": "view",
      "type": "function"
    },
    {
      "inputs": [
        {
          "internalType": "uint32",
          "name": "",
          "type": "uint32"
        },
        {
          "internalType": "bool",
          "name": "",
          "type": "bool"
        }
      ],
      "name": "batched_amountSyntheticToken_redeem",
      "outputs": [
        {
          "internalType": "uint256",
          "name": "",
          "type": "uint256"
        }
      ],
      "stateMutability": "view",
      "type": "function"
    },
    {
      "inputs": [
        {
          "internalType": "uint32",
          "name": "",
          "type": "uint32"
        },
        {
          "internalType": "bool",
          "name": "",
          "type": "bool"
        }
      ],
      "name": "batched_amountSyntheticToken_toShiftAwayFrom_marketSide",
      "outputs": [
        {
          "internalType": "uint256",
          "name": "",
          "type": "uint256"
        }
      ],
      "stateMutability": "view",
      "type": "function"
    },
    {
      "inputs": [
        {
          "internalType": "uint32",
          "name": "marketIndex",
          "type": "uint32"
        },
        {
          "internalType": "uint256",
          "name": "_fundingRateMultiplier_e18",
          "type": "uint256"
        }
      ],
      "name": "changeMarketFundingRateMultiplier",
      "outputs": [],
      "stateMutability": "nonpayable",
      "type": "function"
    },
    {
      "inputs": [
        {
          "internalType": "uint32",
          "name": "marketIndex",
          "type": "uint32"
        },
        {
          "internalType": "uint256",
          "name": "_marketTreasurySplitGradient_e18",
          "type": "uint256"
        }
      ],
      "name": "changeMarketTreasurySplitGradient",
      "outputs": [],
      "stateMutability": "nonpayable",
      "type": "function"
    },
    {
      "inputs": [
        {
          "internalType": "address",
          "name": "user",
          "type": "address"
        },
        {
          "internalType": "uint32",
          "name": "marketIndex",
          "type": "uint32"
        },
        {
          "internalType": "bool",
          "name": "isLong",
          "type": "bool"
        }
      ],
      "name": "checkIfUserIsEligibleToSendSynth",
      "outputs": [],
      "stateMutability": "nonpayable",
      "type": "function"
    },
    {
      "inputs": [
        {
          "internalType": "address",
          "name": "user",
          "type": "address"
        },
        {
          "internalType": "uint32",
          "name": "marketIndex",
          "type": "uint32"
        },
        {
          "internalType": "bool",
          "name": "isLong",
          "type": "bool"
        }
      ],
      "name": "checkIfUserIsEligibleToTrade",
      "outputs": [],
      "stateMutability": "nonpayable",
      "type": "function"
    },
    {
      "inputs": [
        {
          "internalType": "string",
          "name": "syntheticName",
          "type": "string"
        },
        {
          "internalType": "string",
          "name": "syntheticSymbol",
          "type": "string"
        },
        {
          "internalType": "address",
          "name": "_paymentToken",
          "type": "address"
        },
        {
          "internalType": "address",
          "name": "_oracleManager",
          "type": "address"
        },
        {
          "internalType": "address",
          "name": "_yieldManager",
          "type": "address"
        }
      ],
      "name": "createNewSyntheticMarket",
      "outputs": [],
      "stateMutability": "nonpayable",
      "type": "function"
    },
    {
      "inputs": [
        {
          "internalType": "string",
          "name": "syntheticName",
          "type": "string"
        },
        {
          "internalType": "string",
          "name": "syntheticSymbol",
          "type": "string"
        },
        {
          "internalType": "address",
          "name": "_longToken",
          "type": "address"
        },
        {
          "internalType": "address",
          "name": "_shortToken",
          "type": "address"
        },
        {
          "internalType": "address",
          "name": "_paymentToken",
          "type": "address"
        },
        {
          "internalType": "address",
          "name": "_oracleManager",
          "type": "address"
        },
        {
          "internalType": "address",
          "name": "_yieldManager",
          "type": "address"
        }
      ],
      "name": "createNewSyntheticMarketExternalSyntheticTokens",
      "outputs": [],
      "stateMutability": "nonpayable",
      "type": "function"
    },
    {
      "inputs": [
        {
          "internalType": "address",
          "name": "user",
          "type": "address"
        },
        {
          "internalType": "uint32",
          "name": "marketIndex",
          "type": "uint32"
        }
      ],
      "name": "executeOutstandingNextPriceSettlementsUser",
      "outputs": [],
      "stateMutability": "nonpayable",
      "type": "function"
    },
    {
      "inputs": [
        {
          "internalType": "address",
          "name": "user",
          "type": "address"
        },
        {
          "internalType": "uint32[]",
          "name": "marketIndexes",
          "type": "uint32[]"
        }
      ],
      "name": "executeOutstandingNextPriceSettlementsUserMulti",
      "outputs": [],
      "stateMutability": "nonpayable",
      "type": "function"
    },
    {
      "inputs": [
        {
          "internalType": "uint32",
          "name": "",
          "type": "uint32"
        }
      ],
      "name": "fundingRateMultiplier_e18",
      "outputs": [
        {
          "internalType": "uint256",
          "name": "",
          "type": "uint256"
        }
      ],
      "stateMutability": "view",
      "type": "function"
    },
    {
      "inputs": [],
      "name": "gems",
      "outputs": [
        {
          "internalType": "address",
          "name": "",
          "type": "address"
        }
      ],
      "stateMutability": "view",
      "type": "function"
    },
    {
      "inputs": [
        {
          "internalType": "uint32",
          "name": "marketIndex",
          "type": "uint32"
        },
        {
          "internalType": "uint256",
          "name": "amountSyntheticToken_redeemOnOriginSide",
          "type": "uint256"
        },
        {
          "internalType": "bool",
          "name": "isShiftFromLong",
          "type": "bool"
        },
        {
          "internalType": "uint256",
          "name": "priceSnapshotIndex",
          "type": "uint256"
        }
      ],
      "name": "getAmountSyntheticTokenToMintOnTargetSide",
      "outputs": [
        {
          "internalType": "uint256",
          "name": "amountSyntheticTokensToMintOnTargetSide",
          "type": "uint256"
        }
      ],
      "stateMutability": "view",
      "type": "function"
    },
    {
      "inputs": [
        {
          "internalType": "bytes32",
          "name": "role",
          "type": "bytes32"
        }
      ],
      "name": "getRoleAdmin",
      "outputs": [
        {
          "internalType": "bytes32",
          "name": "",
          "type": "bytes32"
        }
      ],
      "stateMutability": "view",
      "type": "function"
    },
    {
      "inputs": [
        {
          "internalType": "address",
          "name": "user",
          "type": "address"
        },
        {
          "internalType": "uint32",
          "name": "marketIndex",
          "type": "uint32"
        },
        {
          "internalType": "bool",
          "name": "isLong",
          "type": "bool"
        }
      ],
      "name": "getUsersConfirmedButNotSettledSynthBalance",
      "outputs": [
        {
          "internalType": "uint256",
          "name": "confirmedButNotSettledBalance",
          "type": "uint256"
        }
      ],
      "stateMutability": "view",
      "type": "function"
    },
    {
      "inputs": [
        {
          "internalType": "uint32",
          "name": "marketIndex",
          "type": "uint32"
        },
        {
          "internalType": "uint256",
          "name": "priceSnapshotIndex",
          "type": "uint256"
        }
      ],
      "name": "get_syntheticToken_priceSnapshot",
      "outputs": [
        {
          "internalType": "uint256",
          "name": "priceLong",
          "type": "uint256"
        },
        {
          "internalType": "uint256",
          "name": "priceShort",
          "type": "uint256"
        }
      ],
      "stateMutability": "view",
      "type": "function"
    },
    {
      "inputs": [
        {
          "internalType": "uint32",
          "name": "marketIndex",
          "type": "uint32"
        },
        {
          "internalType": "bool",
          "name": "isLong",
          "type": "bool"
        },
        {
          "internalType": "uint256",
          "name": "priceSnapshotIndex",
          "type": "uint256"
        }
      ],
      "name": "get_syntheticToken_priceSnapshot_side",
      "outputs": [
        {
          "internalType": "uint256",
          "name": "price",
          "type": "uint256"
        }
      ],
      "stateMutability": "view",
      "type": "function"
    },
    {
      "inputs": [
        {
          "internalType": "bytes32",
          "name": "role",
          "type": "bytes32"
        },
        {
          "internalType": "address",
          "name": "account",
          "type": "address"
        }
      ],
      "name": "grantRole",
      "outputs": [],
      "stateMutability": "nonpayable",
      "type": "function"
    },
    {
      "inputs": [
        {
          "internalType": "bytes32",
          "name": "role",
          "type": "bytes32"
        },
        {
          "internalType": "address",
          "name": "account",
          "type": "address"
        }
      ],
      "name": "hasRole",
      "outputs": [
        {
          "internalType": "bool",
          "name": "",
          "type": "bool"
        }
      ],
      "stateMutability": "view",
      "type": "function"
    },
    {
      "inputs": [
        {
          "internalType": "address",
          "name": "_admin",
          "type": "address"
        },
        {
          "internalType": "address",
          "name": "_tokenFactory",
          "type": "address"
        },
        {
          "internalType": "address",
          "name": "_staker",
          "type": "address"
        },
        {
          "internalType": "address",
          "name": "_gems",
          "type": "address"
        }
      ],
      "name": "initialize",
      "outputs": [],
      "stateMutability": "nonpayable",
      "type": "function"
    },
    {
      "inputs": [
        {
          "internalType": "uint32",
          "name": "marketIndex",
          "type": "uint32"
        },
        {
          "internalType": "uint256",
          "name": "kInitialMultiplier",
          "type": "uint256"
        },
        {
          "internalType": "uint256",
          "name": "kPeriod",
          "type": "uint256"
        },
        {
          "internalType": "uint256",
          "name": "unstakeFee_e18",
          "type": "uint256"
        },
        {
          "internalType": "uint256",
          "name": "initialMarketSeedForEachMarketSide",
          "type": "uint256"
        },
        {
          "internalType": "uint256",
          "name": "balanceIncentiveCurve_exponent",
          "type": "uint256"
        },
        {
          "internalType": "int256",
          "name": "balanceIncentiveCurve_equilibriumOffset",
          "type": "int256"
        },
        {
          "internalType": "uint256",
          "name": "_marketTreasurySplitGradient_e18",
          "type": "uint256"
        },
        {
          "internalType": "uint256",
          "name": "marketLeverage",
          "type": "uint256"
        }
      ],
      "name": "initializeMarket",
      "outputs": [],
      "stateMutability": "nonpayable",
      "type": "function"
    },
    {
      "inputs": [],
      "name": "latestMarket",
      "outputs": [
        {
          "internalType": "uint32",
          "name": "",
          "type": "uint32"
        }
      ],
      "stateMutability": "view",
      "type": "function"
    },
    {
      "inputs": [
        {
          "internalType": "uint32",
          "name": "",
          "type": "uint32"
        }
      ],
      "name": "marketExists",
      "outputs": [
        {
          "internalType": "bool",
          "name": "",
          "type": "bool"
        }
      ],
      "stateMutability": "view",
      "type": "function"
    },
    {
      "inputs": [
        {
          "internalType": "uint32",
          "name": "",
          "type": "uint32"
        }
      ],
      "name": "marketLeverage_e18",
      "outputs": [
        {
          "internalType": "uint256",
          "name": "",
          "type": "uint256"
        }
      ],
      "stateMutability": "view",
      "type": "function"
    },
    {
      "inputs": [
        {
          "internalType": "uint32",
          "name": "",
          "type": "uint32"
        }
      ],
      "name": "marketSideValueInPaymentToken",
      "outputs": [
        {
          "internalType": "uint128",
          "name": "value_long",
          "type": "uint128"
        },
        {
          "internalType": "uint128",
          "name": "value_short",
          "type": "uint128"
        }
      ],
      "stateMutability": "view",
      "type": "function"
    },
    {
      "inputs": [
        {
          "internalType": "uint32",
          "name": "",
          "type": "uint32"
        },
        {
          "internalType": "bool",
          "name": "",
          "type": "bool"
        }
      ],
      "name": "marketSideValueInPaymentTokenLEGACY",
      "outputs": [
        {
          "internalType": "uint256",
          "name": "",
          "type": "uint256"
        }
      ],
      "stateMutability": "view",
      "type": "function"
    },
    {
      "inputs": [
        {
          "internalType": "uint32",
          "name": "",
          "type": "uint32"
        }
      ],
      "name": "marketTreasurySplitGradient_e18",
      "outputs": [
        {
          "internalType": "uint256",
          "name": "",
          "type": "uint256"
        }
      ],
      "stateMutability": "view",
      "type": "function"
    },
    {
      "inputs": [
        {
          "internalType": "uint32",
          "name": "",
          "type": "uint32"
        }
      ],
      "name": "marketUpdateIndex",
      "outputs": [
        {
          "internalType": "uint256",
          "name": "",
          "type": "uint256"
        }
      ],
      "stateMutability": "view",
      "type": "function"
    },
    {
      "inputs": [
        {
          "internalType": "uint32",
          "name": "marketIndex",
          "type": "uint32"
        },
        {
          "internalType": "uint256",
          "name": "amount",
          "type": "uint256"
        },
        {
          "internalType": "bool",
          "name": "isLong",
          "type": "bool"
        }
      ],
      "name": "mintAndStakeNextPrice",
      "outputs": [],
      "stateMutability": "nonpayable",
      "type": "function"
    },
    {
      "inputs": [
        {
          "internalType": "uint32",
          "name": "marketIndex",
          "type": "uint32"
        },
        {
          "internalType": "uint256",
          "name": "amount",
          "type": "uint256"
        }
      ],
      "name": "mintLongNextPrice",
      "outputs": [],
      "stateMutability": "nonpayable",
      "type": "function"
    },
    {
      "inputs": [
        {
          "internalType": "uint32",
          "name": "marketIndex",
          "type": "uint32"
        },
        {
          "internalType": "uint256",
          "name": "amount",
          "type": "uint256"
        }
      ],
      "name": "mintShortNextPrice",
      "outputs": [],
      "stateMutability": "nonpayable",
      "type": "function"
    },
    {
      "inputs": [
        {
          "internalType": "uint32",
          "name": "",
          "type": "uint32"
        }
      ],
      "name": "oracleManagers",
      "outputs": [
        {
          "internalType": "address",
          "name": "",
          "type": "address"
        }
      ],
      "stateMutability": "view",
      "type": "function"
    },
    {
      "inputs": [
        {
          "internalType": "uint32",
          "name": "",
          "type": "uint32"
        }
      ],
      "name": "paymentTokens",
      "outputs": [
        {
          "internalType": "address",
          "name": "",
          "type": "address"
        }
      ],
      "stateMutability": "view",
      "type": "function"
    },
    {
      "inputs": [
        {
          "internalType": "uint32",
          "name": "marketIndex",
          "type": "uint32"
        },
        {
          "internalType": "uint256",
          "name": "tokens_redeem",
          "type": "uint256"
        }
      ],
      "name": "redeemLongNextPrice",
      "outputs": [],
      "stateMutability": "nonpayable",
      "type": "function"
    },
    {
      "inputs": [
        {
          "internalType": "uint32",
          "name": "marketIndex",
          "type": "uint32"
        },
        {
          "internalType": "uint256",
          "name": "tokens_redeem",
          "type": "uint256"
        }
      ],
      "name": "redeemShortNextPrice",
      "outputs": [],
      "stateMutability": "nonpayable",
      "type": "function"
    },
    {
      "inputs": [
        {
          "internalType": "bytes32",
          "name": "role",
          "type": "bytes32"
        },
        {
          "internalType": "address",
          "name": "account",
          "type": "address"
        }
      ],
      "name": "renounceRole",
      "outputs": [],
      "stateMutability": "nonpayable",
      "type": "function"
    },
    {
      "inputs": [
        {
          "internalType": "bytes32",
          "name": "role",
          "type": "bytes32"
        },
        {
          "internalType": "address",
          "name": "account",
          "type": "address"
        }
      ],
      "name": "revokeRole",
      "outputs": [],
      "stateMutability": "nonpayable",
      "type": "function"
    },
    {
      "inputs": [
        {
          "internalType": "address",
          "name": "user",
          "type": "address"
        },
        {
          "internalType": "uint32",
          "name": "marketIndex",
          "type": "uint32"
        },
        {
          "internalType": "bool",
          "name": "isLong",
          "type": "bool"
        }
      ],
      "name": "setUserTradeTimer",
      "outputs": [],
      "stateMutability": "nonpayable",
      "type": "function"
    },
    {
      "inputs": [
        {
          "internalType": "uint32",
          "name": "marketIndex",
          "type": "uint32"
        },
        {
          "internalType": "uint256",
          "name": "amountSyntheticTokensToShift",
          "type": "uint256"
        }
      ],
      "name": "shiftPositionFromLongNextPrice",
      "outputs": [],
      "stateMutability": "nonpayable",
      "type": "function"
    },
    {
      "inputs": [
        {
          "internalType": "uint32",
          "name": "marketIndex",
          "type": "uint32"
        },
        {
          "internalType": "uint256",
          "name": "amountSyntheticTokensToShift",
          "type": "uint256"
        }
      ],
      "name": "shiftPositionFromShortNextPrice",
      "outputs": [],
      "stateMutability": "nonpayable",
      "type": "function"
    },
    {
      "inputs": [
        {
          "internalType": "uint32",
          "name": "marketIndex",
          "type": "uint32"
        },
        {
          "internalType": "uint256",
          "name": "amountSyntheticTokensToShift",
          "type": "uint256"
        },
        {
          "internalType": "bool",
          "name": "isShiftFromLong",
          "type": "bool"
        }
      ],
      "name": "shiftPositionNextPrice",
      "outputs": [],
      "stateMutability": "nonpayable",
      "type": "function"
    },
    {
      "inputs": [],
      "name": "staker",
      "outputs": [
        {
          "internalType": "address",
          "name": "",
          "type": "address"
        }
      ],
      "stateMutability": "view",
      "type": "function"
    },
    {
      "inputs": [
        {
          "internalType": "bytes4",
          "name": "interfaceId",
          "type": "bytes4"
        }
      ],
      "name": "supportsInterface",
      "outputs": [
        {
          "internalType": "bool",
          "name": "",
          "type": "bool"
        }
      ],
      "stateMutability": "view",
      "type": "function"
    },
    {
      "inputs": [
        {
          "internalType": "uint32",
          "name": "",
          "type": "uint32"
        },
        {
          "internalType": "uint256",
          "name": "",
          "type": "uint256"
        }
      ],
      "name": "syntheticToken_priceSnapshot",
      "outputs": [
        {
          "internalType": "uint128",
          "name": "price_long",
          "type": "uint128"
        },
        {
          "internalType": "uint128",
          "name": "price_short",
          "type": "uint128"
        }
      ],
      "stateMutability": "view",
      "type": "function"
    },
    {
      "inputs": [
        {
          "internalType": "uint32",
          "name": "",
          "type": "uint32"
        },
        {
          "internalType": "bool",
          "name": "",
          "type": "bool"
        },
        {
          "internalType": "uint256",
          "name": "",
          "type": "uint256"
        }
      ],
      "name": "syntheticToken_priceSnapshotLEGACY",
      "outputs": [
        {
          "internalType": "uint256",
          "name": "",
          "type": "uint256"
        }
      ],
      "stateMutability": "view",
      "type": "function"
    },
    {
      "inputs": [
        {
          "internalType": "uint32",
          "name": "",
          "type": "uint32"
        },
        {
          "internalType": "bool",
          "name": "",
          "type": "bool"
        }
      ],
      "name": "syntheticTokens",
      "outputs": [
        {
          "internalType": "address",
          "name": "",
          "type": "address"
        }
      ],
      "stateMutability": "view",
      "type": "function"
    },
    {
      "inputs": [],
      "name": "tokenFactory",
      "outputs": [
        {
          "internalType": "address",
          "name": "",
          "type": "address"
        }
      ],
      "stateMutability": "view",
      "type": "function"
    },
    {
      "inputs": [
        {
          "internalType": "uint32",
          "name": "marketIndex",
          "type": "uint32"
        },
        {
          "internalType": "address",
          "name": "_newOracleManager",
          "type": "address"
        }
      ],
      "name": "updateMarketOracle",
      "outputs": [],
      "stateMutability": "nonpayable",
      "type": "function"
    },
    {
      "inputs": [
        {
          "internalType": "uint32",
          "name": "marketIndex",
          "type": "uint32"
        }
      ],
      "name": "updateSystemState",
      "outputs": [],
      "stateMutability": "nonpayable",
      "type": "function"
    },
    {
      "inputs": [
        {
          "internalType": "uint32[]",
          "name": "marketIndexes",
          "type": "uint32[]"
        }
      ],
      "name": "updateSystemStateMulti",
      "outputs": [],
      "stateMutability": "nonpayable",
      "type": "function"
    },
    {
      "inputs": [
        {
          "internalType": "address",
          "name": "newImplementation",
          "type": "address"
        }
      ],
      "name": "upgradeTo",
      "outputs": [],
      "stateMutability": "nonpayable",
      "type": "function"
    },
    {
      "inputs": [
        {
          "internalType": "address",
          "name": "newImplementation",
          "type": "address"
        },
        {
          "internalType": "bytes",
          "name": "data",
          "type": "bytes"
        }
      ],
      "name": "upgradeToAndCall",
      "outputs": [],
      "stateMutability": "payable",
      "type": "function"
    },
    {
      "inputs": [],
      "name": "upgradeToUsingCompactValueAndPriceSnapshots",
      "outputs": [],
      "stateMutability": "nonpayable",
      "type": "function"
    },
    {
      "inputs": [
        {
          "internalType": "uint32",
          "name": "",
          "type": "uint32"
        },
        {
          "internalType": "bool",
          "name": "",
          "type": "bool"
        },
        {
          "internalType": "address",
          "name": "",
          "type": "address"
        }
      ],
      "name": "userLastInteractionTimestamp",
      "outputs": [
        {
          "internalType": "uint32",
          "name": "timestamp",
          "type": "uint32"
        },
        {
          "internalType": "uint224",
          "name": "effectiveAmountMinted",
          "type": "uint224"
        }
      ],
      "stateMutability": "view",
      "type": "function"
    },
    {
      "inputs": [
        {
          "internalType": "uint32",
          "name": "",
          "type": "uint32"
        },
        {
          "internalType": "address",
          "name": "",
          "type": "address"
        }
      ],
      "name": "userNextPrice_currentUpdateIndex",
      "outputs": [
        {
          "internalType": "uint256",
          "name": "",
          "type": "uint256"
        }
      ],
      "stateMutability": "view",
      "type": "function"
    },
    {
      "inputs": [
        {
          "internalType": "uint32",
          "name": "",
          "type": "uint32"
        },
        {
          "internalType": "bool",
          "name": "",
          "type": "bool"
        },
        {
          "internalType": "address",
          "name": "",
          "type": "address"
        }
      ],
      "name": "userNextPrice_paymentToken_depositAmount",
      "outputs": [
        {
          "internalType": "uint256",
          "name": "",
          "type": "uint256"
        }
      ],
      "stateMutability": "view",
      "type": "function"
    },
    {
      "inputs": [
        {
          "internalType": "uint32",
          "name": "",
          "type": "uint32"
        },
        {
          "internalType": "bool",
          "name": "",
          "type": "bool"
        },
        {
          "internalType": "address",
          "name": "",
          "type": "address"
        }
      ],
      "name": "userNextPrice_syntheticToken_redeemAmount",
      "outputs": [
        {
          "internalType": "uint256",
          "name": "",
          "type": "uint256"
        }
      ],
      "stateMutability": "view",
      "type": "function"
    },
    {
      "inputs": [
        {
          "internalType": "uint32",
          "name": "",
          "type": "uint32"
        },
        {
          "internalType": "bool",
          "name": "",
          "type": "bool"
        },
        {
          "internalType": "address",
          "name": "",
          "type": "address"
        }
      ],
      "name": "userNextPrice_syntheticToken_toShiftAwayFrom_marketSide",
      "outputs": [
        {
          "internalType": "uint256",
          "name": "",
          "type": "uint256"
        }
      ],
      "stateMutability": "view",
      "type": "function"
    },
    {
      "inputs": [
        {
          "internalType": "uint32",
          "name": "",
          "type": "uint32"
        }
      ],
      "name": "yieldManagers",
      "outputs": [
        {
          "internalType": "address",
          "name": "",
          "type": "address"
        }
      ],
      "stateMutability": "view",
      "type": "function"
    }
  ],
  "transactionHash": "0x323252a21856e88789b70b262d81fac760b92536c550ce4b3bad08a064cbe0a4",
  "args": [],
  "solcInputHash": "d14492ef739f96aca32ccf42a3d8cb5e",
  "bytecode": "0x60a0604052306080523480156200001557600080fd5b50600054610100900460ff16620000335760005460ff16156200003d565b6200003d620000e2565b620000a55760405162461bcd60e51b815260206004820152602e60248201527f496e697469616c697a61626c653a20636f6e747261637420697320616c72656160448201526d191e481a5b9a5d1a585b1a5e995960921b606482015260840160405180910390fd5b600054610100900460ff16158015620000c8576000805461ffff19166101011790555b8015620000db576000805461ff00191690555b5062000106565b6000620000fa306200010060201b620028911760201c565b15905090565b3b151590565b608051615ad3620001376000396000818161102401528181611064015281816113a901526113e90152615ad36000f3fe6080604052600436106103c35760003560e01c80637a0e94f0116101f2578063c2e124711161010d578063f3de8b93116100a0578063f7cbb6871161006f578063f7cbb68714610e07578063f80c9b9214610e27578063f8c8765e14610e60578063ffe9a5c814610e8057600080fd5b8063f3de8b9314610d01578063f41cb19514610d7c578063f68a327f14610db3578063f72c0d8b14610dd357600080fd5b8063e6b604e0116100dc578063e6b604e014610c80578063e77772fe14610ca0578063ecd170e114610cc1578063eeb0235214610ce157600080fd5b8063c2e1247114610c00578063d547741f14610c20578063d88905c914610c40578063da04ce1414610c6057600080fd5b80639c5b0ee311610185578063aca36d7b11610154578063aca36d7b14610aec578063b054c4a114610b4e578063b36f537414610b90578063c2b8007214610bc157600080fd5b80639c5b0ee314610a475780639cb7172514610a7e5780639dc39e0f14610a9e578063a217fddf14610ad757600080fd5b8063897a0786116101c1578063897a0786146109c757806391a9fa61146109e757806391d1485414610a0757806392f6fe8014610a2757600080fd5b80637a0e94f014610920578063867dfc6d1461094057806388cc635c146109605780638900bdfa1461099957600080fd5b80633d6a2b3f116102e257806364d16f53116102755780636c8d2b97116102445780636c8d2b971461089757806371fd9623146108b757806375b238fc146108d757806377bf4b8b1461090b57600080fd5b806364d16f53146107fd57806364e4a81d1461081d578063682ad286146108565780636c3050551461087657600080fd5b80635ebaf1db116102b15780635ebaf1db1461073f578063602aabab146107675780636137e33314610795578063636190c8146107ca57600080fd5b80633d6a2b3f146106cc5780634f1ef286146106ec57806353ffd91c146106ff578063566f03ea1461071f57600080fd5b80632e2d80e81161035a57806334daaa251161032957806334daaa251461063357806336568abe1461066c5780633659cfe61461068c57806337bf1cf7146106ac57600080fd5b80632e2d80e8146105675780632f2ff15d1461059557806331a43909146105b557806334898684146105f457600080fd5b806314c88ffa1161039657806314c88ffa1461048c5780631badf5c0146104ba57806321658e4814610509578063248a9ca31461053757600080fd5b806301ffc9a7146103c857806305c8146f146103fd5780630e5140dc1461041f578063113997df1461046c575b600080fd5b3480156103d457600080fd5b506103e86103e3366004614d2b565b610ecd565b60405190151581526020015b60405180910390f35b34801561040957600080fd5b5061041d610418366004614d6e565b610f04565b005b34801561042b57600080fd5b5061045e61043a366004614dac565b6101c360209081526000938452604080852082529284528284209052825290205481565b6040519081526020016103f4565b34801561047857600080fd5b5061041d610487366004614df5565b610f10565b34801561049857600080fd5b5061045e6104a7366004614d6e565b61015a6020526000908152604090205481565b3480156104c657600080fd5b506104f16104d5366004614d6e565b61015f602052600090815260409020546001600160a01b031681565b6040516001600160a01b0390911681526020016103f4565b34801561051557600080fd5b5061045e610524366004614d6e565b61015b6020526000908152604090205481565b34801561054357600080fd5b5061045e610552366004614e33565b60009081526065602052604090206001015490565b34801561057357600080fd5b5061045e610582366004614d6e565b6101606020526000908152604090205481565b3480156105a157600080fd5b5061041d6105b0366004614e4c565b610f75565b3480156105c157600080fd5b5061045e6105d0366004614e7c565b61018f60209081526000938452604080852082529284528284209052825290205481565b34801561060057600080fd5b5061045e61060f366004614dac565b6101c260209081526000938452604080852082529284528284209052825290205481565b34801561063f57600080fd5b5061045e61064e366004614ebb565b61019160209081526000928352604080842090915290825290205481565b34801561067857600080fd5b5061041d610687366004614e4c565b610f9b565b34801561069857600080fd5b5061041d6106a7366004614ee7565b611019565b3480156106b857600080fd5b5061045e6106c7366004614e7c565b6110df565b3480156106d857600080fd5b5061041d6106e7366004614f46565b611186565b61041d6106fa366004615029565b61139e565b34801561070b57600080fd5b5061041d61071a3660046150ed565b611454565b34801561072b57600080fd5b5061041d61073a366004615122565b611695565b34801561074b57600080fd5b50610128546104f190600160201b90046001600160a01b031681565b34801561077357600080fd5b5061045e610782366004614d6e565b61015c6020526000908152604090205481565b3480156107a157600080fd5b506107b56107b0366004615122565b611758565b604080519283526020830191909152016103f4565b3480156107d657600080fd5b50610128546107e89063ffffffff1681565b60405163ffffffff90911681526020016103f4565b34801561080957600080fd5b5061041d61081836600461514c565b6117dc565b34801561082957600080fd5b5061045e610838366004614ebb565b61019060209081526000928352604080842090915290825290205481565b34801561086257600080fd5b5061041d610871366004615122565b611862565b34801561088257600080fd5b5061012a546104f1906001600160a01b031681565b3480156108a357600080fd5b5061041d6108b23660046151bd565b61186e565b3480156108c357600080fd5b5061041d6108d23660046150ed565b6118c1565b3480156108e357600080fd5b5061045e7fa49807205ce4d355092ef5a8a18f56e8913cf4a201fbe287825b095693c2177581565b34801561091757600080fd5b5061041d611add565b34801561092c57600080fd5b5061041d61093b3660046151ff565b611c27565b34801561094c57600080fd5b5061041d61095b366004615122565b611c7c565b34801561096c57600080fd5b5061045e61097b366004614ebb565b61018e60209081526000928352604080842090915290825290205481565b3480156109a557600080fd5b5061045e6109b4366004614d6e565b6101596020526000908152604090205481565b3480156109d357600080fd5b5061041d6109e2366004615254565b611c88565b3480156109f357600080fd5b5061041d610a02366004615122565b611c92565b348015610a1357600080fd5b506103e8610a22366004614e4c565b611c9e565b348015610a3357600080fd5b5061045e610a42366004615289565b611cc9565b348015610a5357600080fd5b506104f1610a62366004614d6e565b61015e602052600090815260409020546001600160a01b031681565b348015610a8a57600080fd5b5061041d610a99366004614df5565b611d0d565b348015610aaa57600080fd5b5061045e610ab936600461514c565b6101c060209081526000928352604080842090915290825290205481565b348015610ae357600080fd5b5061045e600081565b348015610af857600080fd5b50610b2e610b07366004614d6e565b610193602052600090815260409020546001600160801b0380821691600160801b90041682565b604080516001600160801b039384168152929091166020830152016103f4565b348015610b5a57600080fd5b506104f1610b69366004614ebb565b61018d6020908152600092835260408084209091529082529020546001600160a01b031681565b348015610b9c57600080fd5b506103e8610bab366004614d6e565b6101586020526000908152604090205460ff1681565b348015610bcd57600080fd5b5061045e610bdc366004614dac565b6101c160209081526000938452604080852082529284528284209052825290205481565b348015610c0c57600080fd5b5061041d610c1b366004615122565b611dac565b348015610c2c57600080fd5b5061041d610c3b366004614e4c565b611db8565b348015610c4c57600080fd5b5061041d610c5b3660046152cf565b611dde565b348015610c6c57600080fd5b5061041d610c7b366004615122565b61227f565b348015610c8c57600080fd5b5061041d610c9b366004615122565b6122a1565b348015610cac57600080fd5b50610129546104f1906001600160a01b031681565b348015610ccd57600080fd5b5061041d610cdc366004614df5565b6122ad565b348015610ced57600080fd5b5061041d610cfc366004615122565b612329565b348015610d0d57600080fd5b50610d58610d1c366004614dac565b6101c460209081526000938452604080852082529284528284209052825290205463ffffffff811690600160201b90046001600160e01b031682565b6040805163ffffffff90931683526001600160e01b039091166020830152016103f4565b348015610d8857600080fd5b506104f1610d97366004614d6e565b61015d602052600090815260409020546001600160a01b031681565b348015610dbf57600080fd5b5061045e610dce366004614df5565b612335565b348015610ddf57600080fd5b5061045e7f189ab7a9244df0848122154315af71fe140f3db0fe014031783b0946b8c9d2e381565b348015610e1357600080fd5b5061041d610e22366004615378565b612460565b348015610e3357600080fd5b5061045e610e42366004614ebb565b61019260209081526000928352604080842090915290825290205481565b348015610e6c57600080fd5b5061041d610e7b3660046153de565b61279a565b348015610e8c57600080fd5b50610b2e610e9b366004615122565b6101946020908152600092835260408084209091529082529020546001600160801b0380821691600160801b90041682565b60006001600160e01b03198216637965db0b60e01b1480610efe57506301ffc9a760e01b6001600160e01b03198316145b92915050565b610f0d81612897565b50565b61012854600160201b90046001600160a01b03163314610f655760405162461bcd60e51b815260206004820152600b60248201526a7374616b6572206f6e6c7960a81b60448201526064015b60405180910390fd5b610f70838383612cad565b505050565b600082815260656020526040902060010154610f918133612d51565b610f708383612db5565b6001600160a01b038116331461100b5760405162461bcd60e51b815260206004820152602f60248201527f416363657373436f6e74726f6c3a2063616e206f6e6c792072656e6f756e636560448201526e103937b632b9903337b91039b2b63360891b6064820152608401610f5c565b6110158282612e3b565b5050565b306001600160a01b037f00000000000000000000000000000000000000000000000000000000000000001614156110625760405162461bcd60e51b8152600401610f5c9061543a565b7f00000000000000000000000000000000000000000000000000000000000000006001600160a01b0316611094612ea2565b6001600160a01b0316146110ba5760405162461bcd60e51b8152600401610f5c90615486565b6110c381612ed0565b60408051600080825260208201909252610f0d91839190612efb565b60008215611118575063ffffffff83166000908152610194602090815260408083208484529091529020546001600160801b031661114c565b5063ffffffff8316600090815261019460209081526040808320848452909152902054600160801b90046001600160801b03165b8061117f575063ffffffff8316600090815261018f60209081526040808320851515845282528083208484529091529020545b9392505050565b61118e61303f565b61012880546000919082906111a89063ffffffff166154e8565b91906101000a81548163ffffffff021916908363ffffffff16021790559050816001600160a01b031663edf565cc6040518163ffffffff1660e01b8152600401600060405180830381600087803b15801561120257600080fd5b505af1158015611216573d6000803e3d6000fd5b5050505063ffffffff8116600081815261018d6020908152604080832060018452825280832080546001600160a01b03199081166001600160a01b038d811691909117909255848052828520805482168c841617905594845261015d8352818420805486168a831617905561015e83528184208054861688831617905561015f835281842080549095169088169081179094558051630ce74fc560e31b8152905163673a7e28936004808401949383900301908290875af11580156112df573d6000803e3d6000fd5b505050506040513d601f19601f82011682018060405250810190611303919061550c565b61015960008363ffffffff1663ffffffff168152602001908152602001600020819055507f901e73890694712ca72bdc627d356f05f11be45e7ccf490a8d4924c393bcb5658187878761015960008763ffffffff1663ffffffff168152602001908152602001600020548f8f8f8f8c8c60405161138a9b9a9998979695949392919061554e565b60405180910390a150505050505050505050565b306001600160a01b037f00000000000000000000000000000000000000000000000000000000000000001614156113e75760405162461bcd60e51b8152600401610f5c9061543a565b7f00000000000000000000000000000000000000000000000000000000000000006001600160a01b0316611419612ea2565b6001600160a01b03161461143f5760405162461bcd60e51b8152600401610f5c90615486565b61144882612ed0565b61101582826001612efb565b61012854600160201b90046001600160a01b03168361147281612897565b61147c828261306b565b61148461316c565b600084116114df5760405162461bcd60e51b815260206004820152602260248201527f4d696e7420616d6f756e74206d7573742062652067726561746572207468616e604482015261020360f41b6064820152608401610f5c565b6114e985846131e0565b6114f38585613220565b63ffffffff85166000908152610190602090815260408083208615158452909152812080548692906115269084906155d2565b909155505063ffffffff851660009081526101c1602090815260408083208615158452825280832061012854600160201b90046001600160a01b03168452909152812080548692906115799084906155d2565b909155505063ffffffff8516600090815261015a60205260408120546115a09060016155d2565b63ffffffff871660008181526101c06020908152604080832061012880546001600160a01b03600160201b918290048116875292909452938290208690559254905163f5a2c77b60e01b81526004810194909452602484018a905288151560448501523360648501529394509092049091169063f5a2c77b90608401600060405180830381600087803b15801561163657600080fd5b505af115801561164a573d6000803e3d6000fd5b505050507f896066fd32b6c29de689cd030c450df34262d3c06a88b3452771ab3fdf4bfcb386858733856040516116859594939291906155ea565b60405180910390a1505050505050565b61169d61303f565b6802b5e3af16b18800008111156117025760405162461bcd60e51b815260206004820152602360248201527f6e6f7420696e2072616e67653a2066756e64696e672072617465203c3d20353060448201526230302560e81b6064820152608401610f5c565b63ffffffff821660008181526101606020908152604091829020849055815192835282018390527ffb610896b356d431dc44942eb10e42369d870163522ed41621aec1c2ca731d26910160405180910390a15050565b63ffffffff82166000908152610194602090815260408083208484529091529020546001600160801b0380821691600160801b900416816117d557505063ffffffff8216600090815261018f6020908152604080832060018452808352818420858552835281842054848052908352818420858552909252909120545b9250929050565b6117e461303f565b63ffffffff8216600081815261015f602090815260409182902080546001600160a01b038681166001600160a01b03198316811790935584519586521691840182905291830191909152907ffc4d69f373858d480cfc3f12e7cc7f9b12201291753ffc3babef0e7a8041979f906060015b60405180910390a1505050565b611015828260006118c1565b8060005b818110156118bb576118a984848381811061188f5761188f61561e565b90506020020160208101906118a49190614d6e565b612897565b806118b381615634565b915050611872565b50505050565b33836118cc81612897565b6118d6828261306b565b6118de61316c565b600084116119225760405162461bcd60e51b81526020600482015260116024820152700536869667420616d6f756e74203d3d203607c1b6044820152606401610f5c565b61012854600160201b90046001600160a01b0316331461195257611947338685612cad565b6119528584156131e0565b63ffffffff8516600090815261018d602090815260408083208615158452909152908190205490516323b872dd60e01b8152336004820152306024820152604481018690526001600160a01b03909116906323b872dd906064016020604051808303816000875af11580156119cb573d6000803e3d6000fd5b505050506040513d601f19601f820116820180604052508101906119ef919061564f565b5063ffffffff851660009081526101c3602090815260408083208615158452825280832033845290915281208054869290611a2b9084906155d2565b909155505063ffffffff8516600090815261015a6020526040812054611a529060016155d2565b63ffffffff871660008181526101c060209081526040808320338452825280832085905592825261019281528282208815158352905290812080549293508792909190611aa09084906155d2565b90915550506040517fd850f5d8405edb0730cd72e6bb9e228043c91fd591562543ea553efda14970b69061168590889087908990339087906155ea565b60016000526101936020527f486ff8510ed3a8bd8fa99e6b19b446e53008986cfe7e8b76d7459f84f14d2474546001600160801b0316611bf15760015b6101285463ffffffff90811690821611611bef5760408051808201825263ffffffff8316600090815261018e602090815283822060018352905291909120548190611b6490613261565b6001600160801b0316815263ffffffff8316600090815261018e60209081526040808320838052825290912054910190611b9d90613261565b6001600160801b0390811690915263ffffffff8316600090815261019360209081526040909120835193909101518216600160801b029290911691909117905580611be7816154e8565b915050611b1a565b505b604051600181527f7f8b9abe2c2fb85d0402e1c78c31e287c70cac837029836df3d5c6351033829b9060200160405180910390a1565b8060005b81811015611c7557611c6385858584818110611c4957611c4961561e565b9050602002016020810190611c5e9190614d6e565b61306b565b80611c6d81615634565b915050611c2b565b5050505050565b611015828260016132ce565b611015828261306b565b611015828260006132ce565b60009182526065602090815260408084206001600160a01b0393909316845291905290205460ff1690565b60008060008415611ce857611cde8785611758565b9092509050611cf7565b611cf28785611758565b925090505b611d0286838361343a565b979650505050505050565b61012854600160201b90046001600160a01b03163314611d5d5760405162461bcd60e51b815260206004820152600b60248201526a7374616b6572206f6e6c7960a81b6044820152606401610f5c565b63ffffffff91821660009081526101c46020908152604080832093151583529281528282206001600160a01b0395909516825293909352909120805463ffffffff191642909216919091179055565b61101582826001613459565b600082815260656020526040902060010154611dd48133612d51565b610f708383612e3b565b611de661303f565b6001600160a01b03831615801590611e0657506001600160a01b03821615155b8015611e1a57506001600160a01b03811615155b611e2357600080fd5b6101288054600091908290611e3d9063ffffffff166154e8565b91906101000a81548163ffffffff021916908363ffffffff16021790559050600061012860049054906101000a90046001600160a01b03169050826001600160a01b031663edf565cc6040518163ffffffff1660e01b8152600401600060405180830381600087803b158015611eb257600080fd5b505af1158015611ec6573d6000803e3d6000fd5b5050610129546040516001600160a01b03909116925063e6d304679150611ef3908c908c9060200161566c565b6040516020818303038152906040528989604051602001611f15929190615693565b604051602081830303815290604052848660016040518663ffffffff1660e01b8152600401611f48959493929190615709565b6020604051808303816000875af1158015611f67573d6000803e3d6000fd5b505050506040513d601f19601f82011682018060405250810190611f8b919061575d565b63ffffffff8316600090815261018d602090815260408083206001845282529182902080546001600160a01b0319166001600160a01b03948516179055610129549151919092169163e6d3046791611fe7918d918d910161577a565b60405160208183030381529060405289896040516020016120099291906157a2565b604051602081830303815290604052848660006040518663ffffffff1660e01b815260040161203c959493929190615709565b6020604051808303816000875af115801561205b573d6000803e3d6000fd5b505050506040513d601f19601f8201168201806040525081019061207f919061575d565b63ffffffff8316600081815261018d60209081526040808320838052825280832080546001600160a01b03199081166001600160a01b039788161790915593835261015d8252808320805485168b871617905561015e82528083208054851689871617905561015f825280832080549094169489169485179093558251630ce74fc560e31b8152925163673a7e28936004808201949183900301908290875af1158015612130573d6000803e3d6000fd5b505050506040513d601f19601f82011682018060405250810190612154919061550c565b61015960008463ffffffff1663ffffffff168152602001908152602001600020819055507f901e73890694712ca72bdc627d356f05f11be45e7ccf490a8d4924c393bcb5658261018d60008563ffffffff1663ffffffff1681526020019081526020016000206000600115151515815260200190815260200160002060009054906101000a90046001600160a01b031661018d60008663ffffffff1663ffffffff16815260200190815260200160002060008015151515815260200190815260200160002060009054906101000a90046001600160a01b03168861015960008863ffffffff1663ffffffff168152602001908152602001600020548e8e8e8e8d8d60405161226c9b9a9998979695949392919061554e565b60405180910390a1505050505050505050565b61228761303f565b63ffffffff909116600090815261015b6020526040902055565b61101582826000613459565b63ffffffff8216600090815261018d602090815260408083208415158452909152902054829082906001600160a01b0316331461231e5760405162461bcd60e51b815260206004820152600f60248201526e0dcdee840ecc2d8d2c840e6f2dce8d608b1b6044820152606401610f5c565b611c75858585612cad565b611015828260016118c1565b60008261234181613651565b63ffffffff8416600090815261015a60209081526040808320546101c083528184206001600160a01b038a1685529092529091205480158015906123855750818111155b156124565763ffffffff861660009081526101c1602090815260408083208815801585529083528184206001600160a01b038c168552909252822054919081906123dd576123d38985611758565b90925090506123ec565b6123e78985611758565b925090505b82156123ff576123fc83836136ae565b96505b63ffffffff891660009081526101c3602090815260408083208b15845282528083206001600160a01b038e16845290915290205480156124515761244481838561343a565b61244e90896155d2565b97505b505050505b5050509392505050565b61246861303f565b871580159061247657508515155b801561248157508415155b801561248c57508315155b801561249757508115155b6124a057600080fd5b63ffffffff89166000908152610158602052604090205460ff16156124fd5760405162461bcd60e51b8152602060048201526013602482015272185b1c9958591e481a5b9a5d1a585b1a5e9959606a1b6044820152606401610f5c565b6101285463ffffffff908116908a16111561254b5760405162461bcd60e51b815260206004820152600e60248201526d0d2dcc8caf040e8dede40d0d2ced60931b6044820152606401610f5c565b63ffffffff8916600090815261015860209081526040808320805460ff1916600190811790915561015b835281842086905561015a90925290912055612591858a6136cd565b6802b5e3af16b188000081111580156125b2575067016345785d8a00008110155b6125f35760405162461bcd60e51b8152602060048201526012602482015271496e636f7272656374206c6576657261676560701b6044820152606401610f5c565b63ffffffff8916600081815261015c602090815260408083208590556101285461018d835281842060018552909252808320548380529281902054905163b0956b5f60e01b815260048101949094526001600160a01b03928316602485015282166044840152606483018b9052608483018a905260a4830189905260c4830187905260e48301869052600160201b9004169063b0956b5f9061010401600060405180830381600087803b1580156126a957600080fd5b505af11580156126bd573d6000803e3d6000fd5b5050610128546040516317b4d3fb60e31b815263ffffffff8d16600482015260016024820152670de0b6b3a76400006044820181905260648201526084810189905260a48101899052600160201b9091046001600160a01b0316925063bda69fd8915060c401600060405180830381600087803b15801561273d57600080fd5b505af1158015612751573d6000803e3d6000fd5b50506040805163ffffffff8d168152602081018990529081018490527f95eeb1c33a758f56bd880588063c2f122e39c8885929e5fbbbd57418b97e58d09250606001905061226c565b6001600160a01b038416158015906127ba57506001600160a01b03831615155b80156127ce57506001600160a01b03821615155b80156127e257506001600160a01b03811615155b6127eb57600080fd5b6127f484613950565b61012980546001600160a01b03199081166001600160a01b038681169182179093556101288054640100000000600160c01b031916600160201b8786169081029190911790915561012a80549093168585161790925560408051938816845260208401919091528201527f48aa6e6153c5dedbe00925ab3c8e28c6ce0c1a80652b3369f176065e797b45079060600160405180910390a150505050565b3b151590565b806128a181613651565b63ffffffff8216600090815261015f60209081526040808320548151630ce74fc560e31b815291516001600160a01b039091169263673a7e289260048082019391829003018187875af11580156128fc573d6000803e3d6000fd5b505050506040513d601f19601f82011682018060405250810190612920919061550c565b63ffffffff8416600090815261015a602090815260408083205461015990925290912054919250908214801590611c755760008061295e8786613a22565b63ffffffff8916600090815261018d602090815260408083206001845282528083205481516318160ddd60e01b8152915195975093955091936129f89387936001600160a01b03909116926318160ddd92600480840193829003018189875af11580156129cf573d6000803e3d6000fd5b505050506040513d601f19601f820116820180604052508101906129f3919061550c565b6136ae565b63ffffffff8916600090815261018d6020908152604080832083805282528083205481516318160ddd60e01b815291519495509293612a669387936001600160a01b03909116926318160ddd9260048083019392829003018189875af11580156129cf573d6000803e3d6000fd5b63ffffffff8a16600090815261015960205260409020889055905085612a8b81615634565b63ffffffff8b16600090815261015a6020526040908190208290558051808201909152909750905080612abd84613261565b6001600160801b03168152602001612ad483613261565b6001600160801b0390811690915263ffffffff8b166000908152610194602090815260408083208b845282528220845194909101518316600160801b029390921692909217905580612b278b8585613ca5565b9092509050612b3682876157c0565b9550612b4281866157c0565b94506040518060400160405280612b5888613261565b6001600160801b03168152602001612b6f87613261565b6001600160801b0390811690915263ffffffff8d166000818152610193602090815260409182902085519590910151948416600160801b9590941694909402929092179092556101285490516317b4d3fb60e31b81526004810192909252602482018a905260448201869052606482018590526084820188905260a48201879052600160201b90046001600160a01b03169063bda69fd89060c401600060405180830381600087803b158015612c2457600080fd5b505af1158015612c38573d6000803e3d6000fd5b50506040805163ffffffff8f168152602081018c90529081018c9052606081018990526080810188905260a0810187905260c081018690527f69e662f95898affac086a5bc1177755bdaf7f4a40a3880364c48012170ee57fe925060e001905060405180910390a15050505050505050505050565b63ffffffff82811660009081526101c460209081526040808320851515845282528083206001600160a01b038816845290915290205416611c20612cf18242615801565b10156118bb5760405162461bcd60e51b815260206004820152602960248201527f52617069642074726164696e672064697361626c65642c20756e6465722077616044820152681a5d081c195c9a5bd960ba1b6064820152608401610f5c565b612d5b8282611c9e565b61101557612d73816001600160a01b03166014613fa4565b612d7e836020613fa4565b604051602001612d8f929190615818565b60408051601f198184030181529082905262461bcd60e51b8252610f5c9160040161588d565b612dbf8282611c9e565b6110155760008281526065602090815260408083206001600160a01b03851684529091529020805460ff19166001179055612df73390565b6001600160a01b0316816001600160a01b0316837f2f8788117e7eff1d82e926ec794901d17c78024a50270940304540a733656f0d60405160405180910390a45050565b612e458282611c9e565b156110155760008281526065602090815260408083206001600160a01b0385168085529252808320805460ff1916905551339285917ff6391f5c32d9c69d2a47ea670b442974b53935d1edc7fd64eb21e047a839171b9190a45050565b7f360894a13ba1a3210667c828492db98dca3e2076cc3735a920a3ca505d382bbc546001600160a01b031690565b7f189ab7a9244df0848122154315af71fe140f3db0fe014031783b0946b8c9d2e36110158133612d51565b6000612f05612ea2565b9050612f1084614140565b600083511180612f1d5750815b15612f2e57612f2c84846141e5565b505b7f4910fdfa16fed3260ed0e7147f7cc6da11a60208b5b9406d12a635614ffd9143805460ff16611c7557805460ff191660011781556040516001600160a01b0383166024820152612fad90869060440160408051601f198184030181529190526020810180516001600160e01b0316631b2ce7f360e11b1790526141e5565b50805460ff19168155612fbe612ea2565b6001600160a01b0316826001600160a01b0316146130365760405162461bcd60e51b815260206004820152602f60248201527f45524331393637557067726164653a207570677261646520627265616b73206660448201526e75727468657220757067726164657360881b6064820152608401610f5c565b611c75856142d0565b6130697fa49807205ce4d355092ef5a8a18f56e8913cf4a201fbe287825b095693c2177533612d51565b565b63ffffffff811660009081526101c0602090815260408083206001600160a01b038616845290915290205480158015906130bb575063ffffffff8216600090815261015a60205260409020548111155b15610f70576130cc82846001614310565b6130d882846000614310565b6130e48284600161444f565b6130f08284600061444f565b6130fc82846001614574565b61310882846000614574565b63ffffffff821660008181526101c0602090815260408083206001600160a01b038816808552908352818420939093558051928352908201929092527fe03aa867e2345cc967d98e4c81f6b0707b5ef082d9d20bac3dcf95540acdeae49101611855565b61012854600160201b90046001600160a01b031633146130695761012a546040516324b4085360e21b81523360048201526001600160a01b03909116906392d0214c90602401600060405180830381600087803b1580156131cc57600080fd5b505af11580156118bb573d6000803e3d6000fd5b63ffffffff91821660009081526101c4602090815260408083209315158352928152828220338352905220805463ffffffff191642909216919091179055565b63ffffffff808316600090815261015e602090815260408083205461015d90925290912054611015926001600160a01b03918216923392169085906146af16565b60006001600160801b038211156132ca5760405162461bcd60e51b815260206004820152602760248201527f53616665436173743a2076616c756520646f65736e27742066697420696e20316044820152663238206269747360c81b6064820152608401610f5c565b5090565b33836132d981612897565b6132e3828261306b565b6132eb61316c565b6000841161332e5760405162461bcd60e51b815260206004820152601060248201526f04d696e7420616d6f756e74203d3d20360841b6044820152606401610f5c565b61333885846131e0565b6133428585613220565b63ffffffff85166000908152610190602090815260408083208615158452909152812080548692906133759084906155d2565b909155505063ffffffff851660009081526101c16020908152604080832086151584528252808320338452909152812080548692906133b59084906155d2565b909155505063ffffffff8516600090815261015a60205260408120546133dc9060016155d2565b63ffffffff871660009081526101c0602090815260408083203380855292529182902083905590519192507f50b8727b538cf16daeb79894e8bde5c1e975985071be8a8d7620675a5dddfc6b9161168591899188918a9187906155ea565b60008161344784866158a0565b61345191906158d5565b949350505050565b338361346481612897565b61346e828261306b565b61347661316c565b600084116134bb5760405162461bcd60e51b8152602060048201526012602482015271052656465656d20616d6f756e74203d3d20360741b6044820152606401610f5c565b6134c6338685612cad565b63ffffffff8516600090815261018d602090815260408083208615158452909152908190205490516323b872dd60e01b8152336004820152306024820152604481018690526001600160a01b03909116906323b872dd906064016020604051808303816000875af115801561353f573d6000803e3d6000fd5b505050506040513d601f19601f82011682018060405250810190613563919061564f565b5063ffffffff851660009081526101c260209081526040808320861515845282528083203384529091528120805486929061359f9084906155d2565b909155505063ffffffff8516600090815261015a60205260408120546135c69060016155d2565b63ffffffff871660008181526101c0602090815260408083203384528252808320859055928252610191815282822088151583529052908120805492935087929091906136149084906155d2565b90915550506040517f191d5f0d51691cdc223884e5321013c9663c6b337a07d550c538d9dcbbd662039061168590889087908990339087906155ea565b63ffffffff81166000908152610158602052604090205460ff16610f0d5760405162461bcd60e51b81526020600482015260146024820152731b585c9ad95d08191bd95cdb89dd08195e1a5cdd60621b6044820152606401610f5c565b6000816136c384670de0b6b3a76400006158a0565b61117f91906158d5565b670de0b6b3a76400008210156137255760405162461bcd60e51b815260206004820152601860248201527f496e73756666696369656e74206d61726b6574207365656400000000000000006044820152606401610f5c565b60006137328360026158a0565b905061373e8282613220565b63ffffffff8216600090815261015e6020526040908190205490516304831f7160e51b8152600481018390526001600160a01b0390911690639063ee2090602401600060405180830381600087803b15801561379957600080fd5b505af11580156137ad573d6000803e3d6000fd5b5050505063ffffffff8216600090815261018d6020908152604080832060018452909152908190205490516340c10f1960e01b815273f10a7f10a7f10a7f10a7f10a7f10a7f10a7f10a76004820152602481018590526001600160a01b03909116906340c10f1990604401600060405180830381600087803b15801561383257600080fd5b505af1158015613846573d6000803e3d6000fd5b5050505063ffffffff8216600090815261018d60209081526040808320838052909152908190205490516340c10f1960e01b815273f10a7f10a7f10a7f10a7f10a7f10a7f10a7f10a76004820152602481018590526001600160a01b03909116906340c10f1990604401600060405180830381600087803b1580156138ca57600080fd5b505af11580156138de573d6000803e3d6000fd5b5050505060405180604001604052806138f685613261565b6001600160801b0316815260200161390d85613261565b6001600160801b0390811690915263ffffffff909316600090815261019360209081526040909120825192909101518416600160801b0291909316179091555050565b600054610100900460ff1661396b5760005460ff161561396f565b303b155b6139d25760405162461bcd60e51b815260206004820152602e60248201527f496e697469616c697a61626c653a20636f6e747261637420697320616c72656160448201526d191e481a5b9a5d1a585b1a5e995960921b6064820152608401610f5c565b600054610100900460ff161580156139f4576000805461ffff19166101011790555b6139fc614709565b613a04614748565b613a0d8261476f565b8015611015576000805461ff00191690555050565b63ffffffff821660009081526101936020526040812080546001600160801b0380821693600160801b909204169190613a5b83856155d2565b9050600080613a6c888787866147e1565b63ffffffff8a16600090815261015e602052604080822054905163452accd960e11b81526004810188905260248101849052939550919350916001600160a01b0390911690638a5599b2906044016020604051808303816000875af1158015613ad9573d6000803e3d6000fd5b505050506040513d601f19601f82011682018060405250810190613afd919061550c565b90508015613b29578215613b1c57613b1581886155d2565b9650613b29565b613b2681876155d2565b95505b63ffffffff89166000908152610159602052604081205490613b4b8989614859565b90506000613b6183670de0b6b3a76400006158e9565b63ffffffff8d16600090815261015c602052604090205483613b83868f61596e565b613b8d91906158e9565b613b9791906158e9565b613ba191906159ad565b63ffffffff8d16600090815261016060205260409020549091508015613bff57898b1015613be657613bd58d828c8e61486f565b613bdf90836157c0565b9150613bff565b613bf28d828d8d61486f565b613bfc908361596e565b91505b6000821215613c5657613c11826159db565b91508a821115613c3957620186a0613c2c8c6201869f6158e9565b613c3691906159ad565b91505b613c43828c615801565b9a50613c4f828b6155d2565b9950613c95565b89821115613c7c57620186a0613c6f8b6201869f6158e9565b613c7991906159ad565b91505b613c86828c6155d2565b9a50613c92828b615801565b99505b5050505050505050509250929050565b63ffffffff8316600090815261019060209081526040808320600184529091528120548190819081908015613d075763ffffffff881660009081526101906020908152604080832060018452909152812055935083613d0481886136ae565b92505b5063ffffffff87166000908152610190602090815260408083208380529091529020548015613d625763ffffffff8816600090815261019060209081526040808320838052909152812055925082613d5f81876136ae565b91505b5063ffffffff8716600090815261019260209081526040808320600184529091529020548015613dfa576000613d98828961494e565b9050613da4818761596e565b9550613db081866157c0565b9450613dbc828561596e565b9350613dc982898961343a565b613dd390846157c0565b63ffffffff8a16600090815261019260209081526040808320600184529091528120559250505b5063ffffffff87166000908152610192602090815260408083208380529091529020548015613e90576000613e2f828861494e565b9050613e3b818661596e565b9450613e4781876157c0565b9550613e53828461596e565b9250613e6082888a61343a565b613e6a90856157c0565b63ffffffff8a166000908152610192602090815260408083208380529091528120559350505b5063ffffffff8716600090815261019160209081526040808320600184529091529020548015613f0057613ec4818861494e565b613ece908661596e565b9450613eda818461596e565b63ffffffff89166000908152610191602090815260408083206001845290915281205592505b5063ffffffff87166000908152610191602090815260408083208380529091529020548015613f6e57613f33818761494e565b613f3d908561596e565b9350613f49818361596e565b63ffffffff891660009081526101916020908152604080832083805290915281205591505b613f8188613f7c86886157c0565b614963565b613f8d88600185614a31565b613f9988600084614a31565b505050935093915050565b60606000613fb38360026158a0565b613fbe9060026155d2565b67ffffffffffffffff811115613fd657613fd6615013565b6040519080825280601f01601f191660200182016040528015614000576020820181803683370190505b509050600360fc1b8160008151811061401b5761401b61561e565b60200101906001600160f81b031916908160001a905350600f60fb1b8160018151811061404a5761404a61561e565b60200101906001600160f81b031916908160001a905350600061406e8460026158a0565b6140799060016155d2565b90505b60018111156140f1576f181899199a1a9b1b9c1cb0b131b232b360811b85600f16601081106140ad576140ad61561e565b1a60f81b8282815181106140c3576140c361561e565b60200101906001600160f81b031916908160001a90535060049490941c936140ea816159f8565b905061407c565b50831561117f5760405162461bcd60e51b815260206004820181905260248201527f537472696e67733a20686578206c656e67746820696e73756666696369656e746044820152606401610f5c565b803b6141a45760405162461bcd60e51b815260206004820152602d60248201527f455243313936373a206e657720696d706c656d656e746174696f6e206973206e60448201526c1bdd08184818dbdb9d1c9858dd609a1b6064820152608401610f5c565b7f360894a13ba1a3210667c828492db98dca3e2076cc3735a920a3ca505d382bbc80546001600160a01b0319166001600160a01b0392909216919091179055565b6060823b6142445760405162461bcd60e51b815260206004820152602660248201527f416464726573733a2064656c65676174652063616c6c20746f206e6f6e2d636f6044820152651b9d1c9858dd60d21b6064820152608401610f5c565b600080846001600160a01b03168460405161425f9190615a0f565b600060405180830381855af49150503d806000811461429a576040519150601f19603f3d011682016040523d82523d6000602084013e61429f565b606091505b50915091506142c78282604051806060016040528060278152602001615a7760279139614b28565b95945050505050565b6142d981614140565b6040516001600160a01b038216907fbc7cd75a20ee27fd9adebab32041f755214dbc6bffa90cc0225b39da2e5c2d3b90600090a250565b63ffffffff831660009081526101c160209081526040808320841515845282528083206001600160a01b038616845290915290205480156118bb5763ffffffff841660008181526101c160209081526040808320861515845282528083206001600160a01b0388168085529083528184208490559383526101c08252808320938352929052908120546143ac9083906129f390889087906110df565b63ffffffff8616600090815261018d6020908152604080832087151584529091529081902054905163a9059cbb60e01b81526001600160a01b0387811660048301526024820184905292935091169063a9059cbb906044016020604051808303816000875af1158015614423573d6000803e3d6000fd5b505050506040513d601f19601f82011682018060405250810190614447919061564f565b505050505050565b63ffffffff831660009081526101c260209081526040808320841515845282528083206001600160a01b038616845290915290205480156118bb5763ffffffff841660008181526101c260209081526040808320861515845282528083206001600160a01b0388168085529083528184208490559383526101c08252808320938352929052908120546144f09083906144eb90889087906110df565b61494e565b63ffffffff8616600090815261015e6020526040908190205490516375b5ffd160e11b81526001600160a01b0387811660048301526024820184905292935091169063eb6bffa290604401600060405180830381600087803b15801561455557600080fd5b505af1158015614569573d6000803e3d6000fd5b505050505050505050565b63ffffffff831660009081526101c360209081526040808320841515845282528083206001600160a01b038616845290915290205480156118bb5763ffffffff841660009081526101c0602090815260408083206001600160a01b03871684529091528120546145e990869084908690611cc9565b63ffffffff861660008181526101c3602090815260408083208815801585529083528184206001600160a01b038b811680875291855283862086905595855261018d845282852091855292529182902054915163a9059cbb60e01b8152600481019190915260248101849052929350169063a9059cbb906044016020604051808303816000875af1158015614682573d6000803e3d6000fd5b505050506040513d601f19601f820116820180604052508101906146a6919061564f565b611c7557600080fd5b604080516001600160a01b0385811660248301528416604482015260648082018490528251808303909101815260849091019091526020810180516001600160e01b03166323b872dd60e01b1790526118bb908590614b61565b600054610100900460ff166147305760405162461bcd60e51b8152600401610f5c90615a2b565b614738614c33565b614740614c33565b613069614c33565b600054610100900460ff166147385760405162461bcd60e51b8152600401610f5c90615a2b565b6001600160a01b03811661478257600080fd5b61478d600082614c5a565b6147b77fa49807205ce4d355092ef5a8a18f56e8913cf4a201fbe287825b095693c2177582614c5a565b610f0d7f189ab7a9244df0848122154315af71fe140f3db0fe014031783b0946b8c9d2e382614c5a565b81831060008082156147f657508484036147fb565b508385035b63ffffffff8716600090815261015b6020526040812054859061481e90846158a0565b61482891906158d5565b9050600061483e82670de0b6b3a7640000614859565b905080670de0b6b3a764000003935050505094509492505050565b6000818310614868578161117f565b5090919050565b6101285463ffffffff8516600081815261015a6020526040808220549051633d016d9b60e11b815260048101939093526024830152918291600160201b9091046001600160a01b031690637a02db3690604401602060405180830381865afa1580156148df573d6000803e3d6000fd5b505050506040513d601f19601f82011682018060405250810190614903919061550c565b90506a1a1a94ec861d5c3380000061491b8242615801565b866149268688615801565b61493091906158a0565b61493a91906158a0565b61494491906158d5565b9695505050505050565b6000670de0b6b3a76400006136c383856158a0565b60008113156149dc5763ffffffff8216600090815261015e6020526040908190205490516304831f7160e51b8152600481018390526001600160a01b0390911690639063ee20906024015b600060405180830381600087803b1580156149c857600080fd5b505af1158015614447573d6000803e3d6000fd5b60008112156110155763ffffffff8216600090815261015e60205260409020546001600160a01b0316631c499b55614a13836159db565b6040518263ffffffff1660e01b81526004016149ae91815260200190565b6000811315614ac65763ffffffff8316600090815261018d602090815260408083208515158452909152908190205490516340c10f1960e01b8152306004820152602481018390526001600160a01b03909116906340c10f19906044015b600060405180830381600087803b158015614aa957600080fd5b505af1158015614abd573d6000803e3d6000fd5b50505050505050565b6000811215610f705763ffffffff8316600090815261018d6020908152604080832085151584529091529020546001600160a01b03166342966c68614b0a836159db565b6040518263ffffffff1660e01b8152600401614a8f91815260200190565b60608315614b3757508161117f565b825115614b475782518084602001fd5b8160405162461bcd60e51b8152600401610f5c919061588d565b6000614bb6826040518060400160405280602081526020017f5361666545524332303a206c6f772d6c6576656c2063616c6c206661696c6564815250856001600160a01b0316614c649092919063ffffffff16565b805190915015610f705780806020019051810190614bd4919061564f565b610f705760405162461bcd60e51b815260206004820152602a60248201527f5361666545524332303a204552433230206f7065726174696f6e20646964206e6044820152691bdd081cdd58d8d9595960b21b6064820152608401610f5c565b600054610100900460ff166130695760405162461bcd60e51b8152600401610f5c90615a2b565b6110158282612db5565b6060613451848460008585843b614cbd5760405162461bcd60e51b815260206004820152601d60248201527f416464726573733a2063616c6c20746f206e6f6e2d636f6e74726163740000006044820152606401610f5c565b600080866001600160a01b03168587604051614cd99190615a0f565b60006040518083038185875af1925050503d8060008114614d16576040519150601f19603f3d011682016040523d82523d6000602084013e614d1b565b606091505b5091509150611d02828286614b28565b600060208284031215614d3d57600080fd5b81356001600160e01b03198116811461117f57600080fd5b803563ffffffff81168114614d6957600080fd5b919050565b600060208284031215614d8057600080fd5b61117f82614d55565b8015158114610f0d57600080fd5b6001600160a01b0381168114610f0d57600080fd5b600080600060608486031215614dc157600080fd5b614dca84614d55565b92506020840135614dda81614d89565b91506040840135614dea81614d97565b809150509250925092565b600080600060608486031215614e0a57600080fd5b8335614e1581614d97565b9250614e2360208501614d55565b91506040840135614dea81614d89565b600060208284031215614e4557600080fd5b5035919050565b60008060408385031215614e5f57600080fd5b823591506020830135614e7181614d97565b809150509250929050565b600080600060608486031215614e9157600080fd5b614e9a84614d55565b92506020840135614eaa81614d89565b929592945050506040919091013590565b60008060408385031215614ece57600080fd5b614ed783614d55565b91506020830135614e7181614d89565b600060208284031215614ef957600080fd5b813561117f81614d97565b60008083601f840112614f1657600080fd5b50813567ffffffffffffffff811115614f2e57600080fd5b6020830191508360208285010111156117d557600080fd5b600080600080600080600080600060e08a8c031215614f6457600080fd5b893567ffffffffffffffff80821115614f7c57600080fd5b614f888d838e01614f04565b909b50995060208c0135915080821115614fa157600080fd5b50614fae8c828d01614f04565b90985096505060408a0135614fc281614d97565b945060608a0135614fd281614d97565b935060808a0135614fe281614d97565b925060a08a0135614ff281614d97565b915060c08a013561500281614d97565b809150509295985092959850929598565b634e487b7160e01b600052604160045260246000fd5b6000806040838503121561503c57600080fd5b823561504781614d97565b9150602083013567ffffffffffffffff8082111561506457600080fd5b818501915085601f83011261507857600080fd5b81358181111561508a5761508a615013565b604051601f8201601f19908116603f011681019083821181831017156150b2576150b2615013565b816040528281528860208487010111156150cb57600080fd5b8260208601602083013760006020848301015280955050505050509250929050565b60008060006060848603121561510257600080fd5b61510b84614d55565b9250602084013591506040840135614dea81614d89565b6000806040838503121561513557600080fd5b61513e83614d55565b946020939093013593505050565b6000806040838503121561515f57600080fd5b61516883614d55565b91506020830135614e7181614d97565b60008083601f84011261518a57600080fd5b50813567ffffffffffffffff8111156151a257600080fd5b6020830191508360208260051b85010111156117d557600080fd5b600080602083850312156151d057600080fd5b823567ffffffffffffffff8111156151e757600080fd5b6151f385828601615178565b90969095509350505050565b60008060006040848603121561521457600080fd5b833561521f81614d97565b9250602084013567ffffffffffffffff81111561523b57600080fd5b61524786828701615178565b9497909650939450505050565b6000806040838503121561526757600080fd5b823561527281614d97565b915061528060208401614d55565b90509250929050565b6000806000806080858703121561529f57600080fd5b6152a885614d55565b93506020850135925060408501356152bf81614d89565b9396929550929360600135925050565b600080600080600080600060a0888a0312156152ea57600080fd5b873567ffffffffffffffff8082111561530257600080fd5b61530e8b838c01614f04565b909950975060208a013591508082111561532757600080fd5b506153348a828b01614f04565b909650945050604088013561534881614d97565b9250606088013561535881614d97565b9150608088013561536881614d97565b8091505092959891949750929550565b60008060008060008060008060006101208a8c03121561539757600080fd5b6153a08a614d55565b9b60208b01359b5060408b01359a60608101359a506080810135995060a0810135985060c0810135975060e081013596506101000135945092505050565b600080600080608085870312156153f457600080fd5b84356153ff81614d97565b9350602085013561540f81614d97565b9250604085013561541f81614d97565b9150606085013561542f81614d97565b939692955090935050565b6020808252602c908201527f46756e6374696f6e206d7573742062652063616c6c6564207468726f7567682060408201526b19195b1959d85d1958d85b1b60a21b606082015260800190565b6020808252602c908201527f46756e6374696f6e206d7573742062652063616c6c6564207468726f7567682060408201526b6163746976652070726f787960a01b606082015260800190565b634e487b7160e01b600052601160045260246000fd5b600063ffffffff80831681811415615502576155026154d2565b6001019392505050565b60006020828403121561551e57600080fd5b5051919050565b81835281816020850137506000828201602090810191909152601f909101601f19169091010190565b63ffffffff8c1681526001600160a01b038b811660208301528a8116604083015289811660608301526080820189905261012060a083018190526000916155988483018a8c615525565b915083820360c08501526155ad82888a615525565b925080861660e085015280851661010085015250509c9b505050505050505050505050565b600082198211156155e5576155e56154d2565b500190565b63ffffffff959095168552921515602085015260408401919091526001600160a01b03166060830152608082015260a00190565b634e487b7160e01b600052603260045260246000fd5b6000600019821415615648576156486154d2565b5060010190565b60006020828403121561566157600080fd5b815161117f81614d89565b6a0233637b0ba102637b733960ad1b81528183600b83013760009101600b01908152919050565b61199b60f21b81528183600283013760009101600201908152919050565b60005b838110156156cc5781810151838201526020016156b4565b838111156118bb5750506000910152565b600081518084526156f58160208601602086016156b1565b601f01601f19169290920160200192915050565b60a08152600061571c60a08301886156dd565b828103602084015261572e81886156dd565b6001600160a01b03969096166040840152505063ffffffff929092166060830152151560809091015292915050565b60006020828403121561576f57600080fd5b815161117f81614d97565b6b0233637b0ba1029b437b93a160a51b81528183600c83013760009101600c01908152919050565b61667360f01b81528183600283013760009101600201908152919050565b600080821280156001600160ff1b03849003851316156157e2576157e26154d2565b600160ff1b83900384128116156157fb576157fb6154d2565b50500190565b600082821015615813576158136154d2565b500390565b7f416363657373436f6e74726f6c3a206163636f756e74200000000000000000008152600083516158508160178501602088016156b1565b7001034b99036b4b9b9b4b733903937b6329607d1b60179184019182015283516158818160288401602088016156b1565b01602801949350505050565b60208152600061117f60208301846156dd565b60008160001904831182151516156158ba576158ba6154d2565b500290565b634e487b7160e01b600052601260045260246000fd5b6000826158e4576158e46158bf565b500490565b60006001600160ff1b038184138284138082168684048611161561590f5761590f6154d2565b600160ff1b600087128281168783058912161561592e5761592e6154d2565b6000871292508782058712848416161561594a5761594a6154d2565b87850587128184161615615960576159606154d2565b505050929093029392505050565b60008083128015600160ff1b85018412161561598c5761598c6154d2565b6001600160ff1b03840183138116156159a7576159a76154d2565b50500390565b6000826159bc576159bc6158bf565b600160ff1b8214600019841416156159d6576159d66154d2565b500590565b6000600160ff1b8214156159f1576159f16154d2565b5060000390565b600081615a0757615a076154d2565b506000190190565b60008251615a218184602087016156b1565b9190910192915050565b6020808252602b908201527f496e697469616c697a61626c653a20636f6e7472616374206973206e6f74206960408201526a6e697469616c697a696e6760a81b60608201526080019056fe416464726573733a206c6f772d6c6576656c2064656c65676174652063616c6c206661696c6564a26469706673582212204e218c1976bb205f2bdc67da2a9461c68a4ad417d110119fb109608ea97bf43b64736f6c634300080a0033",
  "devdoc": {
    "kind": "dev",
    "methods": {
      "createNewSyntheticMarket(string,string,address,address,address)": {
        "details": "This does not make the market active. The `initializeMarket` function was split out separately to this function to reduce costs.",
        "params": {
          "_oracleManager": "The address of the oracle manager that provides the price feed for this market",
          "_paymentToken": "The address of the erc20 token used to buy this synthetic asset this will likely always be DAI",
          "_yieldManager": "The contract that manages depositing the paymentToken into a yield bearing protocol",
          "syntheticName": "Name of the synthetic asset",
          "syntheticSymbol": "Symbol for the synthetic asset"
        }
      },
      "createNewSyntheticMarketExternalSyntheticTokens(string,string,address,address,address,address,address)": {
        "details": "This does not make the market active. The `initializeMarket` function was split out separately to this function to reduce costs.",
        "params": {
          "_longToken": "Address for the long token.",
          "_oracleManager": "The address of the oracle manager that provides the price feed for this market",
          "_paymentToken": "The address of the erc20 token used to buy this synthetic asset this will likely always be DAI",
          "_shortToken": "Address for the short token.",
          "_yieldManager": "The contract that manages depositing the paymentToken into a yield bearing protocol",
          "syntheticName": "Name of the synthetic asset",
          "syntheticSymbol": "Symbol for the synthetic asset"
        }
      },
      "executeOutstandingNextPriceSettlementsUser(address,uint32)": {
        "params": {
          "marketIndex": "An uint32 which uniquely identifies a market.",
          "user": "The address of the user for whom to execute the function."
        }
      },
      "executeOutstandingNextPriceSettlementsUserMulti(address,uint32[])": {
        "params": {
          "marketIndexes": "An array of int32s which each uniquely identify a market.",
          "user": "The address of the user for whom to execute the function."
        }
      },
      "getAmountSyntheticTokenToMintOnTargetSide(uint32,uint256,bool,uint256)": {
        "details": "Intended for use primarily by Staker.sol",
        "params": {
          "amountSyntheticToken_redeemOnOriginSide": "Amount of synth token in wei.",
          "isShiftFromLong": "Whether the token shift is from long to short (true), or short to long (false).",
          "marketIndex": "An uint32 which uniquely identifies a market.",
          "priceSnapshotIndex": "Index which identifies which synth prices to use."
        },
        "returns": {
          "amountSyntheticTokensToMintOnTargetSide": "The amount in wei of tokens for the other side that the shift was worth."
        }
      },
      "getRoleAdmin(bytes32)": {
        "details": "Returns the admin role that controls `role`. See {grantRole} and {revokeRole}. To change a role's admin, use {_setRoleAdmin}."
      },
      "getUsersConfirmedButNotSettledSynthBalance(address,uint32,bool)": {
        "details": "Used in SyntheticToken.sol balanceOf to allow for automatic reflection of next price actions.",
        "params": {
          "isLong": "Whether it is for the long synthetic asset or the short synthetic asset.",
          "marketIndex": "An uint32 which uniquely identifies a market.",
          "user": "The address of the user for whom to execute the function for."
        },
        "returns": {
          "confirmedButNotSettledBalance": "The amount in wei of tokens that the user is owed."
        }
      },
      "grantRole(bytes32,address)": {
        "details": "Grants `role` to `account`. If `account` had not been already granted `role`, emits a {RoleGranted} event. Requirements: - the caller must have ``role``'s admin role."
      },
      "hasRole(bytes32,address)": {
        "details": "Returns `true` if `account` has been granted `role`."
      },
      "initialize(address,address,address,address)": {
        "details": "Calls OpenZeppelin's initializer modifier.",
        "params": {
          "_admin": "Address of the admin role.",
          "_staker": "Address of the contract which handles synthetic asset stakes.",
          "_tokenFactory": "Address of the contract which creates synthetic asset tokens."
        }
      },
      "initializeMarket(uint32,uint256,uint256,uint256,uint256,uint256,int256,uint256,uint256)": {
        "details": "Seperated from createNewSyntheticMarket due to gas considerations.",
        "params": {
          "balanceIncentiveCurve_equilibriumOffset": "An offset to account for naturally imbalanced markets when Float token issuance should differ for market sides. See Staker.sol",
          "balanceIncentiveCurve_exponent": "Sets the degree to which Float token issuance differs for market sides in unbalanced markets. See Staker.sol",
          "initialMarketSeedForEachMarketSide": "Amount of payment token that will be deposited in each market side to seed the market.",
          "kInitialMultiplier": "Linearly decreasing multiplier for Float token issuance for the market when staking synths.",
          "kPeriod": "Time which kInitialMultiplier will last",
          "marketIndex": "An int32 which uniquely identifies the market.",
          "unstakeFee_e18": "Base 1e18 percentage fee levied when unstaking for the market."
        }
      },
      "mintLongNextPrice(uint32,uint256)": {
        "params": {
          "amount": "Amount of payment tokens in that token's lowest denominationfor which to mint synthetic assets at next price.",
          "marketIndex": "An uint32 which uniquely identifies a market."
        }
      },
      "mintShortNextPrice(uint32,uint256)": {
        "params": {
          "amount": "Amount of payment tokens in that token's lowest denominationfor which to mint synthetic assets at next price.",
          "marketIndex": "An uint32 which uniquely identifies a market."
        }
      },
      "redeemLongNextPrice(uint32,uint256)": {
        "params": {
          "marketIndex": "An uint32 which uniquely identifies a market.",
          "tokens_redeem": "Amount in wei of synth tokens to redeem at the next oracle price."
        }
      },
      "redeemShortNextPrice(uint32,uint256)": {
        "params": {
          "marketIndex": "An uint32 which uniquely identifies a market.",
          "tokens_redeem": "Amount in wei of synth tokens to redeem at the next oracle price."
        }
      },
      "renounceRole(bytes32,address)": {
        "details": "Revokes `role` from the calling account. Roles are often managed via {grantRole} and {revokeRole}: this function's purpose is to provide a mechanism for accounts to lose their privileges if they are compromised (such as when a trusted device is misplaced). If the calling account had been revoked `role`, emits a {RoleRevoked} event. Requirements: - the caller must be `account`."
      },
      "revokeRole(bytes32,address)": {
        "details": "Revokes `role` from `account`. If `account` had been granted `role`, emits a {RoleRevoked} event. Requirements: - the caller must have ``role``'s admin role."
      },
      "shiftPositionFromLongNextPrice(uint32,uint256)": {
        "params": {
          "amountSyntheticTokensToShift": "Amount in wei of synthetic tokens to shift from long to short the next oracle price update.",
          "marketIndex": "An uint32 which uniquely identifies a market."
        }
      },
      "shiftPositionFromShortNextPrice(uint32,uint256)": {
        "params": {
          "amountSyntheticTokensToShift": "Amount in wei of synthetic tokens to shift from the short to long at the next oracle price update.",
          "marketIndex": "An uint32 which uniquely identifies a market."
        }
      },
      "shiftPositionNextPrice(uint32,uint256,bool)": {
        "details": "Called by external functions to shift either way. Intended for primary use by Staker.sol",
        "params": {
          "amountSyntheticTokensToShift": "Amount in wei of synthetic tokens to shift from the one side to the other at the next oracle price update.",
          "isShiftFromLong": "Whether the token shift is from long to short (true), or short to long (false).",
          "marketIndex": "An uint32 which uniquely identifies a market."
        }
      },
      "supportsInterface(bytes4)": {
        "details": "See {IERC165-supportsInterface}."
      },
      "updateMarketOracle(uint32,address)": {
        "details": "Can only be called by the current admin.",
        "params": {
          "_newOracleManager": "Address of the replacement oracle manager.",
          "marketIndex": "An uint32 which uniquely identifies a market."
        }
      },
      "updateSystemState(uint32)": {
        "params": {
          "marketIndex": "An uint32 which uniquely identifies a market."
        }
      },
      "updateSystemStateMulti(uint32[])": {
        "params": {
          "marketIndexes": "An array of int32s which uniquely identify markets."
        }
      },
      "upgradeTo(address)": {
        "details": "Upgrade the implementation of the proxy to `newImplementation`. Calls {_authorizeUpgrade}. Emits an {Upgraded} event."
      },
      "upgradeToAndCall(address,bytes)": {
        "details": "Upgrade the implementation of the proxy to `newImplementation`, and subsequently execute the function call encoded in `data`. Calls {_authorizeUpgrade}. Emits an {Upgraded} event."
      }
    },
    "version": 1
  },
  "userdoc": {
    "kind": "user",
    "methods": {
      "changeMarketTreasurySplitGradient(uint32,uint256)": {
        "notice": "changes the gradient of the line for determining the yield split between market and treasury."
      },
      "createNewSyntheticMarket(string,string,address,address,address)": {
        "notice": "Creates an entirely new long/short market tracking an underlying oracle price.  Make sure the synthetic names/symbols are unique."
      },
      "createNewSyntheticMarketExternalSyntheticTokens(string,string,address,address,address,address,address)": {
        "notice": "Creates an entirely new long/short market tracking an underlying oracle price.  Uses already created synthetic tokens."
      },
      "executeOutstandingNextPriceSettlementsUser(address,uint32)": {
        "notice": "After markets have been batched updated on a new oracle price, transfers any owed tokens to a user from their next price actions for that update to that user."
      },
      "executeOutstandingNextPriceSettlementsUserMulti(address,uint32[])": {
        "notice": "Executes outstanding next price settlements for a user for multiple markets."
      },
      "getAmountSyntheticTokenToMintOnTargetSide(uint32,uint256,bool,uint256)": {
        "notice": "Given an executed next price shift from tokens on one market side to the other, determines how many other side tokens the shift was worth."
      },
      "getUsersConfirmedButNotSettledSynthBalance(address,uint32,bool)": {
        "notice": "The amount of a synth token a user is owed following a batch execution. 4 possible states for next price actions: - \"Pending\" - means the next price update hasn't happened or been enacted on by the updateSystemState function. - \"Confirmed\" - means the next price has been updated by the updateSystemState function. There is still -               outstanding (lazy) computation that needs to be executed per user in the batch. - \"Settled\" - there is no more computation left for the user. - \"Non-existent\" - user has no next price actions. This function returns a calculated value only in the case of 'confirmed' next price actions. It should return zero for all other types of next price actions."
      },
      "initialize(address,address,address,address)": {
        "notice": "Initializes the contract."
      },
      "initializeMarket(uint32,uint256,uint256,uint256,uint256,uint256,int256,uint256,uint256)": {
        "notice": "Sets a market as active once it has already been setup by createNewSyntheticMarket."
      },
      "mintLongNextPrice(uint32,uint256)": {
        "notice": "Allows users to mint long synthetic assets for a market. To prevent front-running these mints are executed on the next price update from the oracle."
      },
      "mintShortNextPrice(uint32,uint256)": {
        "notice": "Allows users to mint short synthetic assets for a market. To prevent front-running these mints are executed on the next price update from the oracle."
      },
      "redeemLongNextPrice(uint32,uint256)": {
        "notice": "Allows users to redeem long synthetic assets for a market. To prevent front-running these redeems are executed on the next price update from the oracle."
      },
      "redeemShortNextPrice(uint32,uint256)": {
        "notice": "Allows users to redeem short synthetic assets for a market. To prevent front-running these redeems are executed on the next price update from the oracle."
      },
      "shiftPositionFromLongNextPrice(uint32,uint256)": {
        "notice": "Allows users to shift their position from long to short in a single transaction. To prevent front-running these shifts are executed on the next price update from the oracle."
      },
      "shiftPositionFromShortNextPrice(uint32,uint256)": {
        "notice": "Allows users to shift their position from short to long in a single transaction. To prevent front-running these shifts are executed on the next price update from the oracle."
      },
      "shiftPositionNextPrice(uint32,uint256,bool)": {
        "notice": "Allows users to shift their position from one side of the market to the other in a single transaction. To prevent front-running these shifts are executed on the next price update from the oracle."
      },
      "syntheticToken_priceSnapshotLEGACY(uint32,bool,uint256)": {
        "notice": "synthetic token prices of a given market of a (long/short) at every previous price update"
      },
      "updateMarketOracle(uint32,address)": {
        "notice": "Update oracle for a market"
      },
      "updateSystemState(uint32)": {
        "notice": "Updates the state of a market to account for the latest oracle price update."
      },
      "updateSystemStateMulti(uint32[])": {
        "notice": "Updates the state of multiples markets to account for their latest oracle price updates."
      }
    },
    "version": 1
  },
  "storageLayout": {
    "storage": [
      {
        "astId": 1051,
        "contract": "contracts/longShort/LongShortPolygon.sol:LongShortPolygon",
        "label": "_initialized",
        "offset": 0,
        "slot": "0",
        "type": "t_bool"
      },
      {
        "astId": 1054,
        "contract": "contracts/longShort/LongShortPolygon.sol:LongShortPolygon",
        "label": "_initializing",
        "offset": 1,
        "slot": "0",
        "type": "t_bool"
      },
      {
        "astId": 5350,
        "contract": "contracts/longShort/LongShortPolygon.sol:LongShortPolygon",
        "label": "__gap",
        "offset": 0,
        "slot": "1",
        "type": "t_array(t_uint256)50_storage"
      },
      {
        "astId": 6272,
        "contract": "contracts/longShort/LongShortPolygon.sol:LongShortPolygon",
        "label": "__gap",
        "offset": 0,
        "slot": "51",
        "type": "t_array(t_uint256)50_storage"
      },
      {
        "astId": 250,
        "contract": "contracts/longShort/LongShortPolygon.sol:LongShortPolygon",
        "label": "_roles",
        "offset": 0,
        "slot": "101",
        "type": "t_mapping(t_bytes32,t_struct(RoleData)245_storage)"
      },
      {
        "astId": 537,
        "contract": "contracts/longShort/LongShortPolygon.sol:LongShortPolygon",
        "label": "__gap",
        "offset": 0,
        "slot": "102",
        "type": "t_array(t_uint256)49_storage"
      },
      {
        "astId": 1033,
        "contract": "contracts/longShort/LongShortPolygon.sol:LongShortPolygon",
        "label": "__gap",
        "offset": 0,
        "slot": "151",
        "type": "t_array(t_uint256)50_storage"
      },
      {
        "astId": 1228,
        "contract": "contracts/longShort/LongShortPolygon.sol:LongShortPolygon",
        "label": "__gap",
        "offset": 0,
        "slot": "201",
        "type": "t_array(t_uint256)50_storage"
      },
      {
        "astId": 19753,
        "contract": "contracts/longShort/LongShortPolygon.sol:LongShortPolygon",
        "label": "__constantsGap",
        "offset": 0,
        "slot": "251",
        "type": "t_array(t_uint256)45_storage"
      },
      {
        "astId": 19756,
        "contract": "contracts/longShort/LongShortPolygon.sol:LongShortPolygon",
        "label": "latestMarket",
        "offset": 0,
        "slot": "296",
        "type": "t_uint32"
      },
      {
        "astId": 19758,
        "contract": "contracts/longShort/LongShortPolygon.sol:LongShortPolygon",
        "label": "staker",
        "offset": 4,
        "slot": "296",
        "type": "t_address"
      },
      {
        "astId": 19760,
        "contract": "contracts/longShort/LongShortPolygon.sol:LongShortPolygon",
        "label": "tokenFactory",
        "offset": 0,
        "slot": "297",
        "type": "t_address"
      },
      {
        "astId": 19762,
        "contract": "contracts/longShort/LongShortPolygon.sol:LongShortPolygon",
        "label": "gems",
        "offset": 0,
        "slot": "298",
        "type": "t_address"
      },
      {
        "astId": 19766,
        "contract": "contracts/longShort/LongShortPolygon.sol:LongShortPolygon",
        "label": "__globalStateGap",
        "offset": 0,
        "slot": "299",
        "type": "t_array(t_uint256)45_storage"
      },
      {
        "astId": 19770,
        "contract": "contracts/longShort/LongShortPolygon.sol:LongShortPolygon",
        "label": "marketExists",
        "offset": 0,
        "slot": "344",
        "type": "t_mapping(t_uint32,t_bool)"
      },
      {
        "astId": 19775,
        "contract": "contracts/longShort/LongShortPolygon.sol:LongShortPolygon",
        "label": "assetPrice",
        "offset": 0,
        "slot": "345",
        "type": "t_mapping(t_uint32,t_int256)"
      },
      {
        "astId": 19780,
        "contract": "contracts/longShort/LongShortPolygon.sol:LongShortPolygon",
        "label": "marketUpdateIndex",
        "offset": 0,
        "slot": "346",
        "type": "t_mapping(t_uint32,t_uint256)"
      },
      {
        "astId": 19784,
        "contract": "contracts/longShort/LongShortPolygon.sol:LongShortPolygon",
        "label": "marketTreasurySplitGradient_e18",
        "offset": 0,
        "slot": "347",
        "type": "t_mapping(t_uint32,t_uint256)"
      },
      {
        "astId": 19788,
        "contract": "contracts/longShort/LongShortPolygon.sol:LongShortPolygon",
        "label": "marketLeverage_e18",
        "offset": 0,
        "slot": "348",
        "type": "t_mapping(t_uint32,t_uint256)"
      },
      {
        "astId": 19792,
        "contract": "contracts/longShort/LongShortPolygon.sol:LongShortPolygon",
        "label": "paymentTokens",
        "offset": 0,
        "slot": "349",
        "type": "t_mapping(t_uint32,t_address)"
      },
      {
        "astId": 19796,
        "contract": "contracts/longShort/LongShortPolygon.sol:LongShortPolygon",
        "label": "yieldManagers",
        "offset": 0,
        "slot": "350",
        "type": "t_mapping(t_uint32,t_address)"
      },
      {
        "astId": 19801,
        "contract": "contracts/longShort/LongShortPolygon.sol:LongShortPolygon",
        "label": "oracleManagers",
        "offset": 0,
        "slot": "351",
        "type": "t_mapping(t_uint32,t_address)"
      },
      {
        "astId": 19805,
        "contract": "contracts/longShort/LongShortPolygon.sol:LongShortPolygon",
        "label": "fundingRateMultiplier_e18",
        "offset": 0,
        "slot": "352",
        "type": "t_mapping(t_uint32,t_uint256)"
      },
      {
        "astId": 19809,
        "contract": "contracts/longShort/LongShortPolygon.sol:LongShortPolygon",
        "label": "__marketStateGap",
        "offset": 0,
        "slot": "353",
        "type": "t_array(t_uint256)44_storage"
      },
      {
        "astId": 19816,
        "contract": "contracts/longShort/LongShortPolygon.sol:LongShortPolygon",
        "label": "syntheticTokens",
        "offset": 0,
        "slot": "397",
        "type": "t_mapping(t_uint32,t_mapping(t_bool,t_address))"
      },
      {
        "astId": 19822,
        "contract": "contracts/longShort/LongShortPolygon.sol:LongShortPolygon",
        "label": "marketSideValueInPaymentTokenLEGACY",
        "offset": 0,
        "slot": "398",
        "type": "t_mapping(t_uint32,t_mapping(t_bool,t_uint256))"
      },
      {
        "astId": 19831,
        "contract": "contracts/longShort/LongShortPolygon.sol:LongShortPolygon",
        "label": "syntheticToken_priceSnapshotLEGACY",
        "offset": 0,
        "slot": "399",
        "type": "t_mapping(t_uint32,t_mapping(t_bool,t_mapping(t_uint256,t_uint256)))"
      },
      {
        "astId": 19838,
        "contract": "contracts/longShort/LongShortPolygon.sol:LongShortPolygon",
        "label": "batched_amountPaymentToken_deposit",
        "offset": 0,
        "slot": "400",
        "type": "t_mapping(t_uint32,t_mapping(t_bool,t_uint256))"
      },
      {
        "astId": 19845,
        "contract": "contracts/longShort/LongShortPolygon.sol:LongShortPolygon",
        "label": "batched_amountSyntheticToken_redeem",
        "offset": 0,
        "slot": "401",
        "type": "t_mapping(t_uint32,t_mapping(t_bool,t_uint256))"
      },
      {
        "astId": 19852,
        "contract": "contracts/longShort/LongShortPolygon.sol:LongShortPolygon",
        "label": "batched_amountSyntheticToken_toShiftAwayFrom_marketSide",
        "offset": 0,
        "slot": "402",
        "type": "t_mapping(t_uint32,t_mapping(t_bool,t_uint256))"
      },
      {
        "astId": 19863,
        "contract": "contracts/longShort/LongShortPolygon.sol:LongShortPolygon",
        "label": "marketSideValueInPaymentToken",
        "offset": 0,
        "slot": "403",
        "type": "t_mapping(t_uint32,t_struct(MarketSideValueInPaymentToken)19857_storage)"
      },
      {
        "astId": 19875,
        "contract": "contracts/longShort/LongShortPolygon.sol:LongShortPolygon",
        "label": "syntheticToken_priceSnapshot",
        "offset": 0,
        "slot": "404",
        "type": "t_mapping(t_uint32,t_mapping(t_uint256,t_struct(SynthPriceInPaymentToken)19868_storage))"
      },
      {
        "astId": 19879,
        "contract": "contracts/longShort/LongShortPolygon.sol:LongShortPolygon",
        "label": "__marketPositonStateGap",
        "offset": 0,
        "slot": "405",
        "type": "t_array(t_uint256)43_storage"
      },
      {
        "astId": 19885,
        "contract": "contracts/longShort/LongShortPolygon.sol:LongShortPolygon",
        "label": "userNextPrice_currentUpdateIndex",
        "offset": 0,
        "slot": "448",
        "type": "t_mapping(t_uint32,t_mapping(t_address,t_uint256))"
      },
      {
        "astId": 19893,
        "contract": "contracts/longShort/LongShortPolygon.sol:LongShortPolygon",
        "label": "userNextPrice_paymentToken_depositAmount",
        "offset": 0,
        "slot": "449",
        "type": "t_mapping(t_uint32,t_mapping(t_bool,t_mapping(t_address,t_uint256)))"
      },
      {
        "astId": 19901,
        "contract": "contracts/longShort/LongShortPolygon.sol:LongShortPolygon",
        "label": "userNextPrice_syntheticToken_redeemAmount",
        "offset": 0,
        "slot": "450",
        "type": "t_mapping(t_uint32,t_mapping(t_bool,t_mapping(t_address,t_uint256)))"
      },
      {
        "astId": 19909,
        "contract": "contracts/longShort/LongShortPolygon.sol:LongShortPolygon",
        "label": "userNextPrice_syntheticToken_toShiftAwayFrom_marketSide",
        "offset": 0,
        "slot": "451",
        "type": "t_mapping(t_uint32,t_mapping(t_bool,t_mapping(t_address,t_uint256)))"
      },
      {
        "astId": 19923,
        "contract": "contracts/longShort/LongShortPolygon.sol:LongShortPolygon",
        "label": "userLastInteractionTimestamp",
        "offset": 0,
        "slot": "452",
        "type": "t_mapping(t_uint32,t_mapping(t_bool,t_mapping(t_address,t_struct(UserInteractionInfo)19914_storage)))"
      }
    ],
    "types": {
      "t_address": {
        "encoding": "inplace",
        "label": "address",
        "numberOfBytes": "20"
      },
      "t_array(t_uint256)43_storage": {
        "base": "t_uint256",
        "encoding": "inplace",
        "label": "uint256[43]",
        "numberOfBytes": "1376"
      },
      "t_array(t_uint256)44_storage": {
        "base": "t_uint256",
        "encoding": "inplace",
        "label": "uint256[44]",
        "numberOfBytes": "1408"
      },
      "t_array(t_uint256)45_storage": {
        "base": "t_uint256",
        "encoding": "inplace",
        "label": "uint256[45]",
        "numberOfBytes": "1440"
      },
      "t_array(t_uint256)49_storage": {
        "base": "t_uint256",
        "encoding": "inplace",
        "label": "uint256[49]",
        "numberOfBytes": "1568"
      },
      "t_array(t_uint256)50_storage": {
        "base": "t_uint256",
        "encoding": "inplace",
        "label": "uint256[50]",
        "numberOfBytes": "1600"
      },
      "t_bool": {
        "encoding": "inplace",
        "label": "bool",
        "numberOfBytes": "1"
      },
      "t_bytes32": {
        "encoding": "inplace",
        "label": "bytes32",
        "numberOfBytes": "32"
      },
      "t_int256": {
        "encoding": "inplace",
        "label": "int256",
        "numberOfBytes": "32"
      },
      "t_mapping(t_address,t_bool)": {
        "encoding": "mapping",
        "key": "t_address",
        "label": "mapping(address => bool)",
        "numberOfBytes": "32",
        "value": "t_bool"
      },
      "t_mapping(t_address,t_struct(UserInteractionInfo)19914_storage)": {
        "encoding": "mapping",
        "key": "t_address",
        "label": "mapping(address => struct LongShort.UserInteractionInfo)",
        "numberOfBytes": "32",
        "value": "t_struct(UserInteractionInfo)19914_storage"
      },
      "t_mapping(t_address,t_uint256)": {
        "encoding": "mapping",
        "key": "t_address",
        "label": "mapping(address => uint256)",
        "numberOfBytes": "32",
        "value": "t_uint256"
      },
      "t_mapping(t_bool,t_address)": {
        "encoding": "mapping",
        "key": "t_bool",
        "label": "mapping(bool => address)",
        "numberOfBytes": "32",
        "value": "t_address"
      },
      "t_mapping(t_bool,t_mapping(t_address,t_struct(UserInteractionInfo)19914_storage))": {
        "encoding": "mapping",
        "key": "t_bool",
        "label": "mapping(bool => mapping(address => struct LongShort.UserInteractionInfo))",
        "numberOfBytes": "32",
        "value": "t_mapping(t_address,t_struct(UserInteractionInfo)19914_storage)"
      },
      "t_mapping(t_bool,t_mapping(t_address,t_uint256))": {
        "encoding": "mapping",
        "key": "t_bool",
        "label": "mapping(bool => mapping(address => uint256))",
        "numberOfBytes": "32",
        "value": "t_mapping(t_address,t_uint256)"
      },
      "t_mapping(t_bool,t_mapping(t_uint256,t_uint256))": {
        "encoding": "mapping",
        "key": "t_bool",
        "label": "mapping(bool => mapping(uint256 => uint256))",
        "numberOfBytes": "32",
        "value": "t_mapping(t_uint256,t_uint256)"
      },
      "t_mapping(t_bool,t_uint256)": {
        "encoding": "mapping",
        "key": "t_bool",
        "label": "mapping(bool => uint256)",
        "numberOfBytes": "32",
        "value": "t_uint256"
      },
      "t_mapping(t_bytes32,t_struct(RoleData)245_storage)": {
        "encoding": "mapping",
        "key": "t_bytes32",
        "label": "mapping(bytes32 => struct AccessControlUpgradeable.RoleData)",
        "numberOfBytes": "32",
        "value": "t_struct(RoleData)245_storage"
      },
      "t_mapping(t_uint256,t_struct(SynthPriceInPaymentToken)19868_storage)": {
        "encoding": "mapping",
        "key": "t_uint256",
        "label": "mapping(uint256 => struct LongShort.SynthPriceInPaymentToken)",
        "numberOfBytes": "32",
        "value": "t_struct(SynthPriceInPaymentToken)19868_storage"
      },
      "t_mapping(t_uint256,t_uint256)": {
        "encoding": "mapping",
        "key": "t_uint256",
        "label": "mapping(uint256 => uint256)",
        "numberOfBytes": "32",
        "value": "t_uint256"
      },
      "t_mapping(t_uint32,t_address)": {
        "encoding": "mapping",
        "key": "t_uint32",
        "label": "mapping(uint32 => address)",
        "numberOfBytes": "32",
        "value": "t_address"
      },
      "t_mapping(t_uint32,t_bool)": {
        "encoding": "mapping",
        "key": "t_uint32",
        "label": "mapping(uint32 => bool)",
        "numberOfBytes": "32",
        "value": "t_bool"
      },
      "t_mapping(t_uint32,t_int256)": {
        "encoding": "mapping",
        "key": "t_uint32",
        "label": "mapping(uint32 => int256)",
        "numberOfBytes": "32",
        "value": "t_int256"
      },
      "t_mapping(t_uint32,t_mapping(t_address,t_uint256))": {
        "encoding": "mapping",
        "key": "t_uint32",
        "label": "mapping(uint32 => mapping(address => uint256))",
        "numberOfBytes": "32",
        "value": "t_mapping(t_address,t_uint256)"
      },
      "t_mapping(t_uint32,t_mapping(t_bool,t_address))": {
        "encoding": "mapping",
        "key": "t_uint32",
        "label": "mapping(uint32 => mapping(bool => address))",
        "numberOfBytes": "32",
        "value": "t_mapping(t_bool,t_address)"
      },
      "t_mapping(t_uint32,t_mapping(t_bool,t_mapping(t_address,t_struct(UserInteractionInfo)19914_storage)))": {
        "encoding": "mapping",
        "key": "t_uint32",
        "label": "mapping(uint32 => mapping(bool => mapping(address => struct LongShort.UserInteractionInfo)))",
        "numberOfBytes": "32",
        "value": "t_mapping(t_bool,t_mapping(t_address,t_struct(UserInteractionInfo)19914_storage))"
      },
      "t_mapping(t_uint32,t_mapping(t_bool,t_mapping(t_address,t_uint256)))": {
        "encoding": "mapping",
        "key": "t_uint32",
        "label": "mapping(uint32 => mapping(bool => mapping(address => uint256)))",
        "numberOfBytes": "32",
        "value": "t_mapping(t_bool,t_mapping(t_address,t_uint256))"
      },
      "t_mapping(t_uint32,t_mapping(t_bool,t_mapping(t_uint256,t_uint256)))": {
        "encoding": "mapping",
        "key": "t_uint32",
        "label": "mapping(uint32 => mapping(bool => mapping(uint256 => uint256)))",
        "numberOfBytes": "32",
        "value": "t_mapping(t_bool,t_mapping(t_uint256,t_uint256))"
      },
      "t_mapping(t_uint32,t_mapping(t_bool,t_uint256))": {
        "encoding": "mapping",
        "key": "t_uint32",
        "label": "mapping(uint32 => mapping(bool => uint256))",
        "numberOfBytes": "32",
        "value": "t_mapping(t_bool,t_uint256)"
      },
      "t_mapping(t_uint32,t_mapping(t_uint256,t_struct(SynthPriceInPaymentToken)19868_storage))": {
        "encoding": "mapping",
        "key": "t_uint32",
        "label": "mapping(uint32 => mapping(uint256 => struct LongShort.SynthPriceInPaymentToken))",
        "numberOfBytes": "32",
        "value": "t_mapping(t_uint256,t_struct(SynthPriceInPaymentToken)19868_storage)"
      },
      "t_mapping(t_uint32,t_struct(MarketSideValueInPaymentToken)19857_storage)": {
        "encoding": "mapping",
        "key": "t_uint32",
        "label": "mapping(uint32 => struct LongShort.MarketSideValueInPaymentToken)",
        "numberOfBytes": "32",
        "value": "t_struct(MarketSideValueInPaymentToken)19857_storage"
      },
      "t_mapping(t_uint32,t_uint256)": {
        "encoding": "mapping",
        "key": "t_uint32",
        "label": "mapping(uint32 => uint256)",
        "numberOfBytes": "32",
        "value": "t_uint256"
      },
      "t_struct(MarketSideValueInPaymentToken)19857_storage": {
        "encoding": "inplace",
        "label": "struct LongShort.MarketSideValueInPaymentToken",
        "members": [
          {
            "astId": 19854,
            "contract": "contracts/longShort/LongShortPolygon.sol:LongShortPolygon",
            "label": "value_long",
            "offset": 0,
            "slot": "0",
            "type": "t_uint128"
          },
          {
            "astId": 19856,
            "contract": "contracts/longShort/LongShortPolygon.sol:LongShortPolygon",
            "label": "value_short",
            "offset": 16,
            "slot": "0",
            "type": "t_uint128"
          }
        ],
        "numberOfBytes": "32"
      },
      "t_struct(RoleData)245_storage": {
        "encoding": "inplace",
        "label": "struct AccessControlUpgradeable.RoleData",
        "members": [
          {
            "astId": 242,
            "contract": "contracts/longShort/LongShortPolygon.sol:LongShortPolygon",
            "label": "members",
            "offset": 0,
            "slot": "0",
            "type": "t_mapping(t_address,t_bool)"
          },
          {
            "astId": 244,
            "contract": "contracts/longShort/LongShortPolygon.sol:LongShortPolygon",
            "label": "adminRole",
            "offset": 0,
            "slot": "1",
            "type": "t_bytes32"
          }
        ],
        "numberOfBytes": "64"
      },
      "t_struct(SynthPriceInPaymentToken)19868_storage": {
        "encoding": "inplace",
        "label": "struct LongShort.SynthPriceInPaymentToken",
        "members": [
          {
            "astId": 19865,
            "contract": "contracts/longShort/LongShortPolygon.sol:LongShortPolygon",
            "label": "price_long",
            "offset": 0,
            "slot": "0",
            "type": "t_uint128"
          },
          {
            "astId": 19867,
            "contract": "contracts/longShort/LongShortPolygon.sol:LongShortPolygon",
            "label": "price_short",
            "offset": 16,
            "slot": "0",
            "type": "t_uint128"
          }
        ],
        "numberOfBytes": "32"
      },
      "t_struct(UserInteractionInfo)19914_storage": {
        "encoding": "inplace",
        "label": "struct LongShort.UserInteractionInfo",
        "members": [
          {
            "astId": 19911,
            "contract": "contracts/longShort/LongShortPolygon.sol:LongShortPolygon",
            "label": "timestamp",
            "offset": 0,
            "slot": "0",
            "type": "t_uint32"
          },
          {
            "astId": 19913,
            "contract": "contracts/longShort/LongShortPolygon.sol:LongShortPolygon",
            "label": "effectiveAmountMinted",
            "offset": 4,
            "slot": "0",
            "type": "t_uint224"
          }
        ],
        "numberOfBytes": "32"
      },
      "t_uint128": {
        "encoding": "inplace",
        "label": "uint128",
        "numberOfBytes": "16"
      },
      "t_uint224": {
        "encoding": "inplace",
        "label": "uint224",
        "numberOfBytes": "28"
      },
      "t_uint256": {
        "encoding": "inplace",
        "label": "uint256",
        "numberOfBytes": "32"
      },
      "t_uint32": {
        "encoding": "inplace",
        "label": "uint32",
        "numberOfBytes": "4"
      }
    }
  }
}