{
  "address": "0x45BdAB6840929937619d44Fd2E8DEf962D8D2882",
  "abi": [
    {
      "anonymous": false,
      "inputs": [
        {
          "indexed": false,
          "internalType": "address",
          "name": "previousAdmin",
          "type": "address"
        },
        {
          "indexed": false,
          "internalType": "address",
          "name": "newAdmin",
          "type": "address"
        }
      ],
      "name": "AdminChanged",
      "type": "event"
    },
    {
      "anonymous": false,
      "inputs": [
        {
          "indexed": true,
          "internalType": "address",
          "name": "beacon",
          "type": "address"
        }
      ],
      "name": "BeaconUpgraded",
      "type": "event"
    },
    {
      "anonymous": false,
      "inputs": [
        {
          "indexed": false,
          "internalType": "address",
          "name": "user",
          "type": "address"
        },
        {
          "indexed": false,
          "internalType": "uint32",
          "name": "marketIndex",
          "type": "uint32"
        }
      ],
      "name": "ExecuteNextPriceSettlementsUser",
      "type": "event"
    },
    {
      "anonymous": false,
      "inputs": [
        {
          "indexed": false,
          "internalType": "address",
          "name": "admin",
          "type": "address"
        },
        {
          "indexed": false,
          "internalType": "address",
          "name": "tokenFactory",
          "type": "address"
        },
        {
          "indexed": false,
          "internalType": "address",
          "name": "staker",
          "type": "address"
        }
      ],
      "name": "LongShortV1",
      "type": "event"
    },
    {
      "anonymous": false,
      "inputs": [
        {
          "indexed": false,
          "internalType": "uint32",
          "name": "marketIndex",
          "type": "uint32"
        },
        {
          "indexed": false,
          "internalType": "uint256",
          "name": "initialSeed",
          "type": "uint256"
        },
        {
          "indexed": false,
          "internalType": "uint256",
          "name": "marketLeverage",
          "type": "uint256"
        }
      ],
      "name": "NewMarketLaunchedAndSeeded",
      "type": "event"
    },
    {
      "anonymous": false,
      "inputs": [
        {
          "indexed": false,
          "internalType": "uint32",
          "name": "marketIndex",
          "type": "uint32"
        },
        {
          "indexed": false,
          "internalType": "bool",
          "name": "isLong",
          "type": "bool"
        },
        {
          "indexed": false,
          "internalType": "uint256",
          "name": "depositAdded",
          "type": "uint256"
        },
        {
          "indexed": false,
          "internalType": "address",
          "name": "user",
          "type": "address"
        },
        {
          "indexed": false,
          "internalType": "uint256",
          "name": "oracleUpdateIndex",
          "type": "uint256"
        }
      ],
      "name": "NextPriceDeposit",
      "type": "event"
    },
    {
      "anonymous": false,
      "inputs": [
        {
          "indexed": false,
          "internalType": "uint32",
          "name": "marketIndex",
          "type": "uint32"
        },
        {
          "indexed": false,
          "internalType": "bool",
          "name": "isLong",
          "type": "bool"
        },
        {
          "indexed": false,
          "internalType": "uint256",
          "name": "synthRedeemed",
          "type": "uint256"
        },
        {
          "indexed": false,
          "internalType": "address",
          "name": "user",
          "type": "address"
        },
        {
          "indexed": false,
          "internalType": "uint256",
          "name": "oracleUpdateIndex",
          "type": "uint256"
        }
      ],
      "name": "NextPriceRedeem",
      "type": "event"
    },
    {
      "anonymous": false,
      "inputs": [
        {
          "indexed": false,
          "internalType": "uint32",
          "name": "marketIndex",
          "type": "uint32"
        },
        {
          "indexed": false,
          "internalType": "bool",
          "name": "isShiftFromLong",
          "type": "bool"
        },
        {
          "indexed": false,
          "internalType": "uint256",
          "name": "synthShifted",
          "type": "uint256"
        },
        {
          "indexed": false,
          "internalType": "address",
          "name": "user",
          "type": "address"
        },
        {
          "indexed": false,
          "internalType": "uint256",
          "name": "oracleUpdateIndex",
          "type": "uint256"
        }
      ],
      "name": "NextPriceSyntheticPositionShift",
      "type": "event"
    },
    {
      "anonymous": false,
      "inputs": [
        {
          "indexed": false,
          "internalType": "uint32",
          "name": "marketIndex",
          "type": "uint32"
        },
        {
          "indexed": false,
          "internalType": "address",
          "name": "oldOracleAddress",
          "type": "address"
        },
        {
          "indexed": false,
          "internalType": "address",
          "name": "newOracleAddress",
          "type": "address"
        }
      ],
      "name": "OracleUpdated",
      "type": "event"
    },
    {
      "anonymous": false,
      "inputs": [
        {
          "indexed": true,
          "internalType": "bytes32",
          "name": "role",
          "type": "bytes32"
        },
        {
          "indexed": true,
          "internalType": "bytes32",
          "name": "previousAdminRole",
          "type": "bytes32"
        },
        {
          "indexed": true,
          "internalType": "bytes32",
          "name": "newAdminRole",
          "type": "bytes32"
        }
      ],
      "name": "RoleAdminChanged",
      "type": "event"
    },
    {
      "anonymous": false,
      "inputs": [
        {
          "indexed": true,
          "internalType": "bytes32",
          "name": "role",
          "type": "bytes32"
        },
        {
          "indexed": true,
          "internalType": "address",
          "name": "account",
          "type": "address"
        },
        {
          "indexed": true,
          "internalType": "address",
          "name": "sender",
          "type": "address"
        }
      ],
      "name": "RoleGranted",
      "type": "event"
    },
    {
      "anonymous": false,
      "inputs": [
        {
          "indexed": true,
          "internalType": "bytes32",
          "name": "role",
          "type": "bytes32"
        },
        {
          "indexed": true,
          "internalType": "address",
          "name": "account",
          "type": "address"
        },
        {
          "indexed": true,
          "internalType": "address",
          "name": "sender",
          "type": "address"
        }
      ],
      "name": "RoleRevoked",
      "type": "event"
    },
    {
      "anonymous": false,
      "inputs": [
        {
          "indexed": false,
          "internalType": "uint32",
          "name": "marketIndex",
          "type": "uint32"
        },
        {
          "indexed": false,
          "internalType": "address",
          "name": "longTokenAddress",
          "type": "address"
        },
        {
          "indexed": false,
          "internalType": "address",
          "name": "shortTokenAddress",
          "type": "address"
        },
        {
          "indexed": false,
          "internalType": "address",
          "name": "paymentToken",
          "type": "address"
        },
        {
          "indexed": false,
          "internalType": "int256",
          "name": "initialAssetPrice",
          "type": "int256"
        },
        {
          "indexed": false,
          "internalType": "string",
          "name": "name",
          "type": "string"
        },
        {
          "indexed": false,
          "internalType": "string",
          "name": "symbol",
          "type": "string"
        },
        {
          "indexed": false,
          "internalType": "address",
          "name": "oracleAddress",
          "type": "address"
        },
        {
          "indexed": false,
          "internalType": "address",
          "name": "yieldManagerAddress",
          "type": "address"
        }
      ],
      "name": "SyntheticMarketCreated",
      "type": "event"
    },
    {
      "anonymous": false,
      "inputs": [
        {
          "indexed": false,
          "internalType": "uint32",
          "name": "marketIndex",
          "type": "uint32"
        },
        {
          "indexed": false,
          "internalType": "uint256",
          "name": "updateIndex",
          "type": "uint256"
        },
        {
          "indexed": false,
          "internalType": "int256",
          "name": "underlyingAssetPrice",
          "type": "int256"
        },
        {
          "indexed": false,
          "internalType": "uint256",
          "name": "longValue",
          "type": "uint256"
        },
        {
          "indexed": false,
          "internalType": "uint256",
          "name": "shortValue",
          "type": "uint256"
        },
        {
          "indexed": false,
          "internalType": "uint256",
          "name": "longPrice",
          "type": "uint256"
        },
        {
          "indexed": false,
          "internalType": "uint256",
          "name": "shortPrice",
          "type": "uint256"
        }
      ],
      "name": "SystemStateUpdated",
      "type": "event"
    },
    {
      "anonymous": false,
      "inputs": [
        {
          "indexed": true,
          "internalType": "address",
          "name": "implementation",
          "type": "address"
        }
      ],
      "name": "Upgraded",
      "type": "event"
    },
    {
      "inputs": [],
      "name": "ADMIN_ROLE",
      "outputs": [
        {
          "internalType": "bytes32",
          "name": "",
          "type": "bytes32"
        }
      ],
      "stateMutability": "view",
      "type": "function"
    },
    {
      "inputs": [],
      "name": "DEFAULT_ADMIN_ROLE",
      "outputs": [
        {
          "internalType": "bytes32",
          "name": "",
          "type": "bytes32"
        }
      ],
      "stateMutability": "view",
      "type": "function"
    },
    {
      "inputs": [],
      "name": "PERMANENT_INITIAL_LIQUIDITY_HOLDER",
      "outputs": [
        {
          "internalType": "address",
          "name": "",
          "type": "address"
        }
      ],
      "stateMutability": "view",
      "type": "function"
    },
    {
      "inputs": [],
      "name": "UPGRADER_ROLE",
      "outputs": [
        {
          "internalType": "bytes32",
          "name": "",
          "type": "bytes32"
        }
      ],
      "stateMutability": "view",
      "type": "function"
    },
    {
      "inputs": [
        {
          "internalType": "uint32",
          "name": "",
          "type": "uint32"
        }
      ],
      "name": "assetPrice",
      "outputs": [
        {
          "internalType": "int256",
          "name": "",
          "type": "int256"
        }
      ],
      "stateMutability": "view",
      "type": "function"
    },
    {
      "inputs": [
        {
          "internalType": "uint32",
          "name": "",
          "type": "uint32"
        },
        {
          "internalType": "bool",
          "name": "",
          "type": "bool"
        }
      ],
      "name": "batched_amountPaymentToken_deposit",
      "outputs": [
        {
          "internalType": "uint256",
          "name": "",
          "type": "uint256"
        }
      ],
      "stateMutability": "view",
      "type": "function"
    },
    {
      "inputs": [
        {
          "internalType": "uint32",
          "name": "",
          "type": "uint32"
        },
        {
          "internalType": "bool",
          "name": "",
          "type": "bool"
        }
      ],
      "name": "batched_amountSyntheticToken_redeem",
      "outputs": [
        {
          "internalType": "uint256",
          "name": "",
          "type": "uint256"
        }
      ],
      "stateMutability": "view",
      "type": "function"
    },
    {
      "inputs": [
        {
          "internalType": "uint32",
          "name": "",
          "type": "uint32"
        },
        {
          "internalType": "bool",
          "name": "",
          "type": "bool"
        }
      ],
      "name": "batched_amountSyntheticToken_toShiftAwayFrom_marketSide",
      "outputs": [
        {
          "internalType": "uint256",
          "name": "",
          "type": "uint256"
        }
      ],
      "stateMutability": "view",
      "type": "function"
    },
    {
      "inputs": [
        {
          "internalType": "uint32",
          "name": "marketIndex",
          "type": "uint32"
        },
        {
          "internalType": "uint256",
          "name": "_marketTreasurySplitGradient_e18",
          "type": "uint256"
        }
      ],
      "name": "changeMarketTreasurySplitGradient",
      "outputs": [],
      "stateMutability": "nonpayable",
      "type": "function"
    },
    {
      "inputs": [
        {
          "internalType": "string",
          "name": "syntheticName",
          "type": "string"
        },
        {
          "internalType": "string",
          "name": "syntheticSymbol",
          "type": "string"
        },
        {
          "internalType": "address",
          "name": "_paymentToken",
          "type": "address"
        },
        {
          "internalType": "address",
          "name": "_oracleManager",
          "type": "address"
        },
        {
          "internalType": "address",
          "name": "_yieldManager",
          "type": "address"
        }
      ],
      "name": "createNewSyntheticMarket",
      "outputs": [],
      "stateMutability": "nonpayable",
      "type": "function"
    },
    {
      "inputs": [
        {
          "internalType": "string",
          "name": "syntheticName",
          "type": "string"
        },
        {
          "internalType": "string",
          "name": "syntheticSymbol",
          "type": "string"
        },
        {
          "internalType": "address",
          "name": "_longToken",
          "type": "address"
        },
        {
          "internalType": "address",
          "name": "_shortToken",
          "type": "address"
        },
        {
          "internalType": "address",
          "name": "_paymentToken",
          "type": "address"
        },
        {
          "internalType": "address",
          "name": "_oracleManager",
          "type": "address"
        },
        {
          "internalType": "address",
          "name": "_yieldManager",
          "type": "address"
        }
      ],
      "name": "createNewSyntheticMarketExternalSyntheticTokens",
      "outputs": [],
      "stateMutability": "nonpayable",
      "type": "function"
    },
    {
      "inputs": [
        {
          "internalType": "address",
          "name": "user",
          "type": "address"
        },
        {
          "internalType": "uint32",
          "name": "marketIndex",
          "type": "uint32"
        }
      ],
      "name": "executeOutstandingNextPriceSettlementsUser",
      "outputs": [],
      "stateMutability": "nonpayable",
      "type": "function"
    },
    {
      "inputs": [
        {
          "internalType": "address",
          "name": "user",
          "type": "address"
        },
        {
          "internalType": "uint32[]",
          "name": "marketIndexes",
          "type": "uint32[]"
        }
      ],
      "name": "executeOutstandingNextPriceSettlementsUserMulti",
      "outputs": [],
      "stateMutability": "nonpayable",
      "type": "function"
    },
    {
      "inputs": [],
      "name": "gems",
      "outputs": [
        {
          "internalType": "address",
          "name": "",
          "type": "address"
        }
      ],
      "stateMutability": "view",
      "type": "function"
    },
    {
      "inputs": [
        {
          "internalType": "uint32",
          "name": "marketIndex",
          "type": "uint32"
        },
        {
          "internalType": "uint256",
          "name": "amountSyntheticToken_redeemOnOriginSide",
          "type": "uint256"
        },
        {
          "internalType": "bool",
          "name": "isShiftFromLong",
          "type": "bool"
        },
        {
          "internalType": "uint256",
          "name": "priceSnapshotIndex",
          "type": "uint256"
        }
      ],
      "name": "getAmountSyntheticTokenToMintOnTargetSide",
      "outputs": [
        {
          "internalType": "uint256",
          "name": "amountSyntheticTokensToMintOnTargetSide",
          "type": "uint256"
        }
      ],
      "stateMutability": "view",
      "type": "function"
    },
    {
      "inputs": [
        {
          "internalType": "bytes32",
          "name": "role",
          "type": "bytes32"
        }
      ],
      "name": "getRoleAdmin",
      "outputs": [
        {
          "internalType": "bytes32",
          "name": "",
          "type": "bytes32"
        }
      ],
      "stateMutability": "view",
      "type": "function"
    },
    {
      "inputs": [
        {
          "internalType": "address",
          "name": "user",
          "type": "address"
        },
        {
          "internalType": "uint32",
          "name": "marketIndex",
          "type": "uint32"
        },
        {
          "internalType": "bool",
          "name": "isLong",
          "type": "bool"
        }
      ],
      "name": "getUsersConfirmedButNotSettledSynthBalance",
      "outputs": [
        {
          "internalType": "uint256",
          "name": "confirmedButNotSettledBalance",
          "type": "uint256"
        }
      ],
      "stateMutability": "view",
      "type": "function"
    },
    {
      "inputs": [
        {
          "internalType": "bytes32",
          "name": "role",
          "type": "bytes32"
        },
        {
          "internalType": "address",
          "name": "account",
          "type": "address"
        }
      ],
      "name": "grantRole",
      "outputs": [],
      "stateMutability": "nonpayable",
      "type": "function"
    },
    {
      "inputs": [
        {
          "internalType": "bytes32",
          "name": "role",
          "type": "bytes32"
        },
        {
          "internalType": "address",
          "name": "account",
          "type": "address"
        }
      ],
      "name": "hasRole",
      "outputs": [
        {
          "internalType": "bool",
          "name": "",
          "type": "bool"
        }
      ],
      "stateMutability": "view",
      "type": "function"
    },
    {
      "inputs": [
        {
          "internalType": "address",
          "name": "_admin",
          "type": "address"
        },
        {
          "internalType": "address",
          "name": "_tokenFactory",
          "type": "address"
        },
        {
          "internalType": "address",
          "name": "_staker",
          "type": "address"
        },
        {
          "internalType": "address",
          "name": "_gems",
          "type": "address"
        }
      ],
      "name": "initialize",
      "outputs": [],
      "stateMutability": "nonpayable",
      "type": "function"
    },
    {
      "inputs": [
        {
          "internalType": "uint32",
          "name": "marketIndex",
          "type": "uint32"
        },
        {
          "internalType": "uint256",
          "name": "kInitialMultiplier",
          "type": "uint256"
        },
        {
          "internalType": "uint256",
          "name": "kPeriod",
          "type": "uint256"
        },
        {
          "internalType": "uint256",
          "name": "unstakeFee_e18",
          "type": "uint256"
        },
        {
          "internalType": "uint256",
          "name": "initialMarketSeedForEachMarketSide",
          "type": "uint256"
        },
        {
          "internalType": "uint256",
          "name": "balanceIncentiveCurve_exponent",
          "type": "uint256"
        },
        {
          "internalType": "int256",
          "name": "balanceIncentiveCurve_equilibriumOffset",
          "type": "int256"
        },
        {
          "internalType": "uint256",
          "name": "_marketTreasurySplitGradient_e18",
          "type": "uint256"
        },
        {
          "internalType": "uint256",
          "name": "marketLeverage",
          "type": "uint256"
        }
      ],
      "name": "initializeMarket",
      "outputs": [],
      "stateMutability": "nonpayable",
      "type": "function"
    },
    {
      "inputs": [],
      "name": "latestMarket",
      "outputs": [
        {
          "internalType": "uint32",
          "name": "",
          "type": "uint32"
        }
      ],
      "stateMutability": "view",
      "type": "function"
    },
    {
      "inputs": [
        {
          "internalType": "uint32",
          "name": "",
          "type": "uint32"
        }
      ],
      "name": "marketExists",
      "outputs": [
        {
          "internalType": "bool",
          "name": "",
          "type": "bool"
        }
      ],
      "stateMutability": "view",
      "type": "function"
    },
    {
      "inputs": [
        {
          "internalType": "uint32",
          "name": "",
          "type": "uint32"
        }
      ],
      "name": "marketLeverage_e18",
      "outputs": [
        {
          "internalType": "uint256",
          "name": "",
          "type": "uint256"
        }
      ],
      "stateMutability": "view",
      "type": "function"
    },
    {
      "inputs": [
        {
          "internalType": "uint32",
          "name": "",
          "type": "uint32"
        },
        {
          "internalType": "bool",
          "name": "",
          "type": "bool"
        }
      ],
      "name": "marketSideValueInPaymentToken",
      "outputs": [
        {
          "internalType": "uint256",
          "name": "",
          "type": "uint256"
        }
      ],
      "stateMutability": "view",
      "type": "function"
    },
    {
      "inputs": [
        {
          "internalType": "uint32",
          "name": "",
          "type": "uint32"
        }
      ],
      "name": "marketTreasurySplitGradient_e18",
      "outputs": [
        {
          "internalType": "uint256",
          "name": "",
          "type": "uint256"
        }
      ],
      "stateMutability": "view",
      "type": "function"
    },
    {
      "inputs": [
        {
          "internalType": "uint32",
          "name": "",
          "type": "uint32"
        }
      ],
      "name": "marketUpdateIndex",
      "outputs": [
        {
          "internalType": "uint256",
          "name": "",
          "type": "uint256"
        }
      ],
      "stateMutability": "view",
      "type": "function"
    },
    {
      "inputs": [
        {
          "internalType": "uint32",
          "name": "marketIndex",
          "type": "uint32"
        },
        {
          "internalType": "uint256",
          "name": "amount",
          "type": "uint256"
        }
      ],
      "name": "mintLongNextPrice",
      "outputs": [],
      "stateMutability": "nonpayable",
      "type": "function"
    },
    {
      "inputs": [
        {
          "internalType": "uint32",
          "name": "marketIndex",
          "type": "uint32"
        },
        {
          "internalType": "uint256",
          "name": "amount",
          "type": "uint256"
        }
      ],
      "name": "mintShortNextPrice",
      "outputs": [],
      "stateMutability": "nonpayable",
      "type": "function"
    },
    {
      "inputs": [
        {
          "internalType": "uint32",
          "name": "",
          "type": "uint32"
        }
      ],
      "name": "oracleManagers",
      "outputs": [
        {
          "internalType": "address",
          "name": "",
          "type": "address"
        }
      ],
      "stateMutability": "view",
      "type": "function"
    },
    {
      "inputs": [
        {
          "internalType": "uint32",
          "name": "",
          "type": "uint32"
        }
      ],
      "name": "paymentTokens",
      "outputs": [
        {
          "internalType": "address",
          "name": "",
          "type": "address"
        }
      ],
      "stateMutability": "view",
      "type": "function"
    },
    {
      "inputs": [
        {
          "internalType": "uint32",
          "name": "marketIndex",
          "type": "uint32"
        },
        {
          "internalType": "uint256",
          "name": "tokens_redeem",
          "type": "uint256"
        }
      ],
      "name": "redeemLongNextPrice",
      "outputs": [],
      "stateMutability": "nonpayable",
      "type": "function"
    },
    {
      "inputs": [
        {
          "internalType": "uint32",
          "name": "marketIndex",
          "type": "uint32"
        },
        {
          "internalType": "uint256",
          "name": "tokens_redeem",
          "type": "uint256"
        }
      ],
      "name": "redeemShortNextPrice",
      "outputs": [],
      "stateMutability": "nonpayable",
      "type": "function"
    },
    {
      "inputs": [
        {
          "internalType": "bytes32",
          "name": "role",
          "type": "bytes32"
        },
        {
          "internalType": "address",
          "name": "account",
          "type": "address"
        }
      ],
      "name": "renounceRole",
      "outputs": [],
      "stateMutability": "nonpayable",
      "type": "function"
    },
    {
      "inputs": [
        {
          "internalType": "bytes32",
          "name": "role",
          "type": "bytes32"
        },
        {
          "internalType": "address",
          "name": "account",
          "type": "address"
        }
      ],
      "name": "revokeRole",
      "outputs": [],
      "stateMutability": "nonpayable",
      "type": "function"
    },
    {
      "inputs": [
        {
          "internalType": "uint32",
          "name": "marketIndex",
          "type": "uint32"
        },
        {
          "internalType": "uint256",
          "name": "amountSyntheticTokensToShift",
          "type": "uint256"
        }
      ],
      "name": "shiftPositionFromLongNextPrice",
      "outputs": [],
      "stateMutability": "nonpayable",
      "type": "function"
    },
    {
      "inputs": [
        {
          "internalType": "uint32",
          "name": "marketIndex",
          "type": "uint32"
        },
        {
          "internalType": "uint256",
          "name": "amountSyntheticTokensToShift",
          "type": "uint256"
        }
      ],
      "name": "shiftPositionFromShortNextPrice",
      "outputs": [],
      "stateMutability": "nonpayable",
      "type": "function"
    },
    {
      "inputs": [
        {
          "internalType": "uint32",
          "name": "marketIndex",
          "type": "uint32"
        },
        {
          "internalType": "uint256",
          "name": "amountSyntheticTokensToShift",
          "type": "uint256"
        },
        {
          "internalType": "bool",
          "name": "isShiftFromLong",
          "type": "bool"
        }
      ],
      "name": "shiftPositionNextPrice",
      "outputs": [],
      "stateMutability": "nonpayable",
      "type": "function"
    },
    {
      "inputs": [],
      "name": "staker",
      "outputs": [
        {
          "internalType": "address",
          "name": "",
          "type": "address"
        }
      ],
      "stateMutability": "view",
      "type": "function"
    },
    {
      "inputs": [
        {
          "internalType": "bytes4",
          "name": "interfaceId",
          "type": "bytes4"
        }
      ],
      "name": "supportsInterface",
      "outputs": [
        {
          "internalType": "bool",
          "name": "",
          "type": "bool"
        }
      ],
      "stateMutability": "view",
      "type": "function"
    },
    {
      "inputs": [
        {
          "internalType": "uint32",
          "name": "",
          "type": "uint32"
        },
        {
          "internalType": "bool",
          "name": "",
          "type": "bool"
        },
        {
          "internalType": "uint256",
          "name": "",
          "type": "uint256"
        }
      ],
      "name": "syntheticToken_priceSnapshot",
      "outputs": [
        {
          "internalType": "uint256",
          "name": "",
          "type": "uint256"
        }
      ],
      "stateMutability": "view",
      "type": "function"
    },
    {
      "inputs": [
        {
          "internalType": "uint32",
          "name": "",
          "type": "uint32"
        },
        {
          "internalType": "bool",
          "name": "",
          "type": "bool"
        }
      ],
      "name": "syntheticTokens",
      "outputs": [
        {
          "internalType": "address",
          "name": "",
          "type": "address"
        }
      ],
      "stateMutability": "view",
      "type": "function"
    },
    {
      "inputs": [],
      "name": "tokenFactory",
      "outputs": [
        {
          "internalType": "address",
          "name": "",
          "type": "address"
        }
      ],
      "stateMutability": "view",
      "type": "function"
    },
    {
      "inputs": [
        {
          "internalType": "uint32",
          "name": "marketIndex",
          "type": "uint32"
        },
        {
          "internalType": "address",
          "name": "_newOracleManager",
          "type": "address"
        }
      ],
      "name": "updateMarketOracle",
      "outputs": [],
      "stateMutability": "nonpayable",
      "type": "function"
    },
    {
      "inputs": [
        {
          "internalType": "uint32",
          "name": "marketIndex",
          "type": "uint32"
        }
      ],
      "name": "updateSystemState",
      "outputs": [],
      "stateMutability": "nonpayable",
      "type": "function"
    },
    {
      "inputs": [
        {
          "internalType": "uint32[]",
          "name": "marketIndexes",
          "type": "uint32[]"
        }
      ],
      "name": "updateSystemStateMulti",
      "outputs": [],
      "stateMutability": "nonpayable",
      "type": "function"
    },
    {
      "inputs": [
        {
          "internalType": "address",
          "name": "newImplementation",
          "type": "address"
        }
      ],
      "name": "upgradeTo",
      "outputs": [],
      "stateMutability": "nonpayable",
      "type": "function"
    },
    {
      "inputs": [
        {
          "internalType": "address",
          "name": "newImplementation",
          "type": "address"
        },
        {
          "internalType": "bytes",
          "name": "data",
          "type": "bytes"
        }
      ],
      "name": "upgradeToAndCall",
      "outputs": [],
      "stateMutability": "payable",
      "type": "function"
    },
    {
      "inputs": [
        {
          "internalType": "uint32",
          "name": "",
          "type": "uint32"
        },
        {
          "internalType": "address",
          "name": "",
          "type": "address"
        }
      ],
      "name": "userNextPrice_currentUpdateIndex",
      "outputs": [
        {
          "internalType": "uint256",
          "name": "",
          "type": "uint256"
        }
      ],
      "stateMutability": "view",
      "type": "function"
    },
    {
      "inputs": [
        {
          "internalType": "uint32",
          "name": "",
          "type": "uint32"
        },
        {
          "internalType": "bool",
          "name": "",
          "type": "bool"
        },
        {
          "internalType": "address",
          "name": "",
          "type": "address"
        }
      ],
      "name": "userNextPrice_paymentToken_depositAmount",
      "outputs": [
        {
          "internalType": "uint256",
          "name": "",
          "type": "uint256"
        }
      ],
      "stateMutability": "view",
      "type": "function"
    },
    {
      "inputs": [
        {
          "internalType": "uint32",
          "name": "",
          "type": "uint32"
        },
        {
          "internalType": "bool",
          "name": "",
          "type": "bool"
        },
        {
          "internalType": "address",
          "name": "",
          "type": "address"
        }
      ],
      "name": "userNextPrice_syntheticToken_redeemAmount",
      "outputs": [
        {
          "internalType": "uint256",
          "name": "",
          "type": "uint256"
        }
      ],
      "stateMutability": "view",
      "type": "function"
    },
    {
      "inputs": [
        {
          "internalType": "uint32",
          "name": "",
          "type": "uint32"
        },
        {
          "internalType": "bool",
          "name": "",
          "type": "bool"
        },
        {
          "internalType": "address",
          "name": "",
          "type": "address"
        }
      ],
      "name": "userNextPrice_syntheticToken_toShiftAwayFrom_marketSide",
      "outputs": [
        {
          "internalType": "uint256",
          "name": "",
          "type": "uint256"
        }
      ],
      "stateMutability": "view",
      "type": "function"
    },
    {
      "inputs": [
        {
          "internalType": "uint32",
          "name": "",
          "type": "uint32"
        }
      ],
      "name": "yieldManagers",
      "outputs": [
        {
          "internalType": "address",
          "name": "",
          "type": "address"
        }
      ],
      "stateMutability": "view",
      "type": "function"
    }
  ],
  "transactionHash": "0x72cfce080c0d6404c141c14847944ad7c6569ddcc9e68a34543635d903649cb0",
  "args": [],
  "solcInputHash": "52454279612323b6a360bfe353c18a08",
  "bytecode": "0x608060405234801561001057600080fd5b50614e0f806100206000396000f3fe60806040526004361061031a5760003560e01c8063867dfc6d116101ab578063c2b80072116100f7578063eeb0235211610095578063f72c0d8b1161006f578063f72c0d8b14610b3e578063f7cbb68714610b72578063f80c9b9214610b92578063f8c8765e14610bcb5761031a565b8063eeb0235214610ac7578063f41cb19514610ae7578063f68a327f14610b1e5761031a565b8063d88905c9116100d1578063d88905c914610a46578063da04ce1414610a66578063e6b604e014610a86578063e77772fe14610aa65761031a565b8063c2b80072146109c7578063c2e1247114610a06578063d547741f14610a265761031a565b80639c5b0ee311610164578063b054c4a11161013e578063b054c4a1146108f3578063b36f537414610935578063b3c7e21814610966578063bb0a45291461099f5761031a565b80639c5b0ee31461086e5780639dc39e0f146108a5578063a217fddf146108de5761031a565b8063867dfc6d146107a05780638900bdfa146107c0578063897a0786146107ee57806391a9fa611461080e57806391d148541461082e57806392f6fe801461084e5761031a565b80634f1ef2861161026a578063682ad286116102235780636f486c5b116101fd5780636f486c5b146106ed57806371fd96231461072c57806375b238fc1461074c5780637a0e94f0146107805761031a565b8063682ad2861461068c5780636c305055146106ac5780636c8d2b97146106cd5761031a565b80634f1ef286146105965780635ebaf1db146105a9578063602aabab146105d2578063636190c81461060057806364d16f531461063357806364e4a81d146106535761031a565b8063248a9ca3116102d757806334daaa25116102b157806334daaa25146104fd57806336568abe146105365780633659cfe6146105565780633d6a2b3f146105765761031a565b8063248a9ca31461046e5780632f2ff15d1461049e57806334898684146104be5761031a565b806301ffc9a71461031f57806305c8146f146103545780630e5140dc1461037657806314c88ffa146103c35780631badf5c0146103f157806321658e4814610440575b600080fd5b34801561032b57600080fd5b5061033f61033a36600461446c565b610beb565b60405190151581526020015b60405180910390f35b34801561036057600080fd5b5061037461036f36600461461c565b610c24565b005b34801561038257600080fd5b506103b561039136600461468c565b6101c360209081526000938452604080852082529284528284209052825290205481565b60405190815260200161034b565b3480156103cf57600080fd5b506103b56103de36600461461c565b61015a6020526000908152604090205481565b3480156103fd57600080fd5b5061042861040c36600461461c565b61015f602052600090815260409020546001600160a01b031681565b6040516001600160a01b03909116815260200161034b565b34801561044c57600080fd5b506103b561045b36600461461c565b61015b6020526000908152604090205481565b34801561047a57600080fd5b506103b5610489366004614425565b60009081526065602052604090206001015490565b3480156104aa57600080fd5b506103746104b936600461443d565b610c30565b3480156104ca57600080fd5b506103b56104d936600461468c565b6101c260209081526000938452604080852082529284528284209052825290205481565b34801561050957600080fd5b506103b5610518366004614661565b61019160209081526000928352604080842090915290825290205481565b34801561054257600080fd5b5061037461055136600461443d565b610c5c565b34801561056257600080fd5b50610374610571366004614124565b610cdf565b34801561058257600080fd5b50610374610591366004614552565b610d03565b6103746105a436600461427b565b610f2a565b3480156105b557600080fd5b50610128546104289064010000000090046001600160a01b031681565b3480156105de57600080fd5b506103b56105ed36600461461c565b61015c6020526000908152604090205481565b34801561060c57600080fd5b506101285461061e9063ffffffff1681565b60405163ffffffff909116815260200161034b565b34801561063f57600080fd5b5061037461064e366004614636565b610f3f565b34801561065f57600080fd5b506103b561066e366004614661565b61019060209081526000928352604080842090915290825290205481565b34801561069857600080fd5b506103746106a7366004614707565b610fc5565b3480156106b857600080fd5b5061012a54610428906001600160a01b031681565b3480156106d957600080fd5b506103746106e8366004614399565b610fd1565b3480156106f957600080fd5b506103b56107083660046146c9565b61018f60209081526000938452604080852082529284528284209052825290205481565b34801561073857600080fd5b50610374610747366004614730565b611032565b34801561075857600080fd5b506103b57fa49807205ce4d355092ef5a8a18f56e8913cf4a201fbe287825b095693c2177581565b34801561078c57600080fd5b5061037461079b3660046141b7565b611201565b3480156107ac57600080fd5b506103746107bb366004614707565b611251565b3480156107cc57600080fd5b506103b56107db36600461461c565b6101596020526000908152604090205481565b3480156107fa57600080fd5b5061037461080936600461431d565b61125d565b34801561081a57600080fd5b50610374610829366004614707565b611267565b34801561083a57600080fd5b5061033f61084936600461443d565b611273565b34801561085a57600080fd5b506103b5610869366004614764565b61129e565b34801561087a57600080fd5b5061042861088936600461461c565b61015e602052600090815260409020546001600160a01b031681565b3480156108b157600080fd5b506103b56108c0366004614636565b6101c060209081526000928352604080842090915290825290205481565b3480156108ea57600080fd5b506103b5600081565b3480156108ff57600080fd5b5061042861090e366004614661565b61018d6020908152600092835260408084209091529082529020546001600160a01b031681565b34801561094157600080fd5b5061033f61095036600461461c565b6101586020526000908152604090205460ff1681565b34801561097257600080fd5b506103b5610981366004614661565b61018e60209081526000928352604080842090915290825290205481565b3480156109ab57600080fd5b5061042873f10a7f10a7f10a7f10a7f10a7f10a7f10a7f10a781565b3480156109d357600080fd5b506103b56109e236600461468c565b6101c160209081526000938452604080852082529284528284209052825290205481565b348015610a1257600080fd5b50610374610a21366004614707565b6112f4565b348015610a3257600080fd5b50610374610a4136600461443d565b611300565b348015610a5257600080fd5b50610374610a613660046144ac565b611326565b348015610a7257600080fd5b50610374610a81366004614707565b6117f4565b348015610a9257600080fd5b50610374610aa1366004614707565b611816565b348015610ab257600080fd5b5061012954610428906001600160a01b031681565b348015610ad357600080fd5b50610374610ae2366004614707565b611822565b348015610af357600080fd5b50610428610b0236600461461c565b61015d602052600090815260409020546001600160a01b031681565b348015610b2a57600080fd5b506103b5610b39366004614351565b61182e565b348015610b4a57600080fd5b506103b57f189ab7a9244df0848122154315af71fe140f3db0fe014031783b0946b8c9d2e381565b348015610b7e57600080fd5b50610374610b8d3660046147a9565b61199a565b348015610b9e57600080fd5b506103b5610bad366004614661565b61019260209081526000928352604080842090915290825290205481565b348015610bd757600080fd5b50610374610be636600461415c565b611c74565b60006001600160e01b03198216637965db0b60e01b1480610c1c57506301ffc9a760e01b6001600160e01b03198316145b90505b919050565b610c2d81611dd6565b50565b600082815260656020526040902060010154610c4d81335b6121c9565b610c57838361222d565b505050565b6001600160a01b0381163314610cd15760405162461bcd60e51b815260206004820152602f60248201527f416363657373436f6e74726f6c3a2063616e206f6e6c792072656e6f756e636560448201526e103937b632b9903337b91039b2b63360891b60648201526084015b60405180910390fd5b610cdb82826122b3565b5050565b610ce88161231a565b610c2d81604051806020016040528060008152506000612345565b610d0b6124c6565b6101288054600091908290610d259063ffffffff16614d0f565b91906101000a81548163ffffffff021916908363ffffffff16021790559050816001600160a01b031663edf565cc6040518163ffffffff1660e01b8152600401600060405180830381600087803b158015610d7f57600080fd5b505af1158015610d93573d6000803e3d6000fd5b5050505063ffffffff8116600081815261018d6020908152604080832060018452825280832080546001600160a01b03199081166001600160a01b038d811691909117909255848052828520805482168c841617905594845261015d8352818420805486168a831617905561015e83528184208054861688831617905561015f835281842080549095169088169081179094558051630ce74fc560e31b8152905163673a7e2893600480840194938390030190829087803b158015610e5757600080fd5b505af1158015610e6b573d6000803e3d6000fd5b505050506040513d601f19601f82011682018060405250810190610e8f9190614494565b61015960008363ffffffff1663ffffffff168152602001908152602001600020819055507f901e73890694712ca72bdc627d356f05f11be45e7ccf490a8d4924c393bcb5658187878761015960008763ffffffff1663ffffffff168152602001908152602001600020548f8f8f8f8c8c604051610f169b9a99989796959493929190614a35565b60405180910390a150505050505050505050565b610f338261231a565b610cdb82826001612345565b610f476124c6565b63ffffffff8216600081815261015f602090815260409182902080546001600160a01b038681166001600160a01b03198316811790935584519586521691840182905291830191909152907ffc4d69f373858d480cfc3f12e7cc7f9b12201291753ffc3babef0e7a8041979f906060015b60405180910390a1505050565b610cdb82826000611032565b8060005b8181101561102c5761101a84848381811061100057634e487b7160e01b600052603260045260246000fd5b9050602002016020810190611015919061461c565b611dd6565b8061102481614cf4565b915050610fd5565b50505050565b338361103d81611dd6565b61104782826124f2565b61104f6125f3565b63ffffffff8516600090815261018d602090815260408083208615158452909152908190205490516323b872dd60e01b8152336004820152306024820152604481018690526001600160a01b03909116906323b872dd90606401602060405180830381600087803b1580156110c357600080fd5b505af11580156110d7573d6000803e3d6000fd5b505050506040513d601f19601f820116820180604052508101906110fb9190614409565b61110457600080fd5b63ffffffff851660009081526101c360209081526040808320861515845282528083203384529091528120805486929061113f908490614b5f565b909155505063ffffffff8516600090815261015a6020526040812054611166906001614b5f565b63ffffffff871660008181526101c0602090815260408083203384528252808320859055928252610192815282822088151583529052908120805492935087929091906111b4908490614b5f565b90915550506040517fd850f5d8405edb0730cd72e6bb9e228043c91fd591562543ea553efda14970b6906111f19088908790899033908790614ab9565b60405180910390a1505050505050565b805160005b8181101561102c5761123f8484838151811061123257634e487b7160e01b600052603260045260246000fd5b60200260200101516124f2565b8061124981614cf4565b915050611206565b610cdb82826001612668565b610cdb82826124f2565b610cdb82826000612668565b60009182526065602090815260408084206001600160a01b0393909316845291905290205460ff1690565b63ffffffff8416600090815261018f602090815260408083208515801585528184528285208686528452828520549085529083528184208585529092528220546112e9868383612787565b979650505050505050565b610cdb828260016127a6565b60008281526065602052604090206001015461131c8133610c48565b610c5783836122b3565b61132e6124c6565b6001600160a01b0383161580159061134e57506001600160a01b03821615155b801561136257506001600160a01b03811615155b61136b57600080fd5b61012880546000919082906113859063ffffffff16614d0f565b91906101000a81548163ffffffff021916908363ffffffff16021790559050600061012860049054906101000a90046001600160a01b03169050826001600160a01b031663edf565cc6040518163ffffffff1660e01b8152600401600060405180830381600087803b1580156113fa57600080fd5b505af115801561140e573d6000803e3d6000fd5b5050610129546040516001600160a01b03909116925063e6d30467915061143b908c908c90602001614959565b604051602081830303815290604052898960405160200161145d9291906148c6565b604051602081830303815290604052848660016040518663ffffffff1660e01b8152600401611490959493929190614993565b602060405180830381600087803b1580156114aa57600080fd5b505af11580156114be573d6000803e3d6000fd5b505050506040513d601f19601f820116820180604052508101906114e29190614140565b63ffffffff8316600090815261018d602090815260408083206001845282529182902080546001600160a01b0319166001600160a01b03948516179055610129549151919092169163e6d304679161153e918d918d910161489e565b6040516020818303038152906040528989604051602001611560929190614880565b604051602081830303815290604052848660006040518663ffffffff1660e01b8152600401611593959493929190614993565b602060405180830381600087803b1580156115ad57600080fd5b505af11580156115c1573d6000803e3d6000fd5b505050506040513d601f19601f820116820180604052508101906115e59190614140565b63ffffffff8316600081815261018d60209081526040808320838052825280832080546001600160a01b03199081166001600160a01b039788161790915593835261015d8252808320805485168b871617905561015e82528083208054851689871617905561015f825280832080549094169489169485179093558251630ce74fc560e31b8152925163673a7e2893600480820194918390030190829087803b15801561169157600080fd5b505af11580156116a5573d6000803e3d6000fd5b505050506040513d601f19601f820116820180604052508101906116c99190614494565b61015960008463ffffffff1663ffffffff168152602001908152602001600020819055507f901e73890694712ca72bdc627d356f05f11be45e7ccf490a8d4924c393bcb5658261018d60008563ffffffff1663ffffffff1681526020019081526020016000206000600115151515815260200190815260200160002060009054906101000a90046001600160a01b031661018d60008663ffffffff1663ffffffff16815260200190815260200160002060008015151515815260200190815260200160002060009054906101000a90046001600160a01b03168861015960008863ffffffff1663ffffffff168152602001908152602001600020548e8e8e8e8d8d6040516117e19b9a99989796959493929190614a35565b60405180910390a1505050505050505050565b6117fc6124c6565b63ffffffff909116600090815261015b6020526040902055565b610cdb828260006127a6565b610cdb82826001611032565b60008261183a8161295d565b63ffffffff8416600090815261015a60209081526040808320546101c083528184206001600160a01b038a16855290925290912054801580159061187e5750818111155b156119905763ffffffff861660009081526101c160209081526040808320881515845282528083206001600160a01b038b16845290915290205480156118f85763ffffffff8716600090815261018f60209081526040808320891515845282528083208584529091529020546118f482826129ba565b9550505b63ffffffff871660009081526101c3602090815260408083208915845282528083206001600160a01b038c168452909152902054801561198d5763ffffffff8816600090815261018f602090815260408083208a15808552818452828520888652845282852054901585529083528184208785529092529091205461197e838383612787565b6119889089614b5f565b975050505b50505b5050509392505050565b6119a26124c6565b87158015906119b057508515155b80156119bb57508415155b80156119c657508315155b80156119d157508115155b6119da57600080fd5b63ffffffff89166000908152610158602052604090205460ff1615611a375760405162461bcd60e51b8152602060048201526013602482015272185b1c9958591e481a5b9a5d1a585b1a5e9959606a1b6044820152606401610cc8565b6101285463ffffffff908116908a161115611a855760405162461bcd60e51b815260206004820152600e60248201526d0d2dcc8caf040e8dede40d0d2ced60931b6044820152606401610cc8565b63ffffffff8916600090815261015860209081526040808320805460ff1916600190811790915561015b835281842086905561015a90925290912055611acb858a6129e0565b63ffffffff8916600081815261015c602090815260408083208590556101285461018d835281842060018552909252808320548380529281902054905163b0956b5f60e01b815260048101949094526001600160a01b03928316602485015282166044840152606483018b9052608483018a905260a4830189905260c4830187905260e483018690526401000000009004169063b0956b5f9061010401600060405180830381600087803b158015611b8257600080fd5b505af1158015611b96573d6000803e3d6000fd5b5050610128546040516317b4d3fb60e31b815263ffffffff8d16600482015260016024820152670de0b6b3a76400006044820181905260648201526084810189905260a481018990526401000000009091046001600160a01b0316925063bda69fd8915060c401600060405180830381600087803b158015611c1757600080fd5b505af1158015611c2b573d6000803e3d6000fd5b50506040805163ffffffff8d168152602081018990529081018490527f95eeb1c33a758f56bd880588063c2f122e39c8885929e5fbbbd57418b97e58d0925060600190506117e1565b600054610100900460ff1680611c8d575060005460ff16155b611ca95760405162461bcd60e51b8152600401610cc8906149e7565b600054610100900460ff16158015611ccb576000805461ffff19166101011790555b6001600160a01b03851615801590611ceb57506001600160a01b03841615155b8015611cff57506001600160a01b03831615155b8015611d1357506001600160a01b03821615155b611d1c57600080fd5b611d2585612c29565b61012980546001600160a01b03199081166001600160a01b038781169182179093556101288054640100000000600160c01b0319166401000000008886169081029190911790915561012a80549093168685161790925560408051938916845260208401919091528201527f48aa6e6153c5dedbe00925ab3c8e28c6ce0c1a80652b3369f176065e797b45079060600160405180910390a18015611dcf576000805461ff00191690555b5050505050565b80611de08161295d565b63ffffffff8216600090815261015f60209081526040808320548151630ce74fc560e31b815291516001600160a01b039091169263673a7e28926004808201939182900301818787803b158015611e3657600080fd5b505af1158015611e4a573d6000803e3d6000fd5b505050506040513d601f19601f82011682018060405250810190611e6e9190614494565b63ffffffff8416600090815261015a602090815260408083205461015990925290912054919250908214801590611dcf5763ffffffff8516600090815261018f6020908152604080832060018452808352818420868552835281842054848052908352818420868552909252822054909180611eea8988612cae565b63ffffffff8b16600090815261018d602090815260408083206001845282528083205481516318160ddd60e01b81529151959750939550611f949487946001600160a01b0316936318160ddd93600480850194919392918390030190829087803b158015611f5757600080fd5b505af1158015611f6b573d6000803e3d6000fd5b505050506040513d601f19601f82011682018060405250810190611f8f9190614494565b6129ba565b63ffffffff8a16600090815261018d6020908152604080832083805282528083205481516318160ddd60e01b81529151949850611fff9486946001600160a01b03909216936318160ddd93600480820194929392918390030190829087803b158015611f5757600080fd5b63ffffffff8a1660009081526101596020526040902088905592508561202481614cf4565b63ffffffff8b16600090815261015a6020908152604080832084905561018f82528083206001845280835281842085855283528184208a9055838052825280832084845290915281208690559097509050806120818b8787612ed5565b90925090506120908285614b1e565b935061209c8184614b1e565b63ffffffff8c16600081815261018e6020908152604080832060018452909152808220889055818052908190208390556101285490516317b4d3fb60e31b81526004810192909252602482018b905260448201899052606482018890526084820187905260a482018390529194506401000000009091046001600160a01b03169063bda69fd89060c401600060405180830381600087803b15801561214057600080fd5b505af1158015612154573d6000803e3d6000fd5b50506040805163ffffffff8f168152602081018c90529081018c9052606081018790526080810186905260a0810189905260c081018890527f69e662f95898affac086a5bc1177755bdaf7f4a40a3880364c48012170ee57fe925060e001905060405180910390a15050505050505050505050565b6121d38282611273565b610cdb576121eb816001600160a01b031660146131d4565b6121f68360206131d4565b6040516020016122079291906148e4565b60408051601f198184030181529082905262461bcd60e51b8252610cc891600401614980565b6122378282611273565b610cdb5760008281526065602090815260408083206001600160a01b03851684529091529020805460ff1916600117905561226f3390565b6001600160a01b0316816001600160a01b0316837f2f8788117e7eff1d82e926ec794901d17c78024a50270940304540a733656f0d60405160405180910390a45050565b6122bd8282611273565b15610cdb5760008281526065602090815260408083206001600160a01b0385168085529252808320805460ff1916905551339285917ff6391f5c32d9c69d2a47ea670b442974b53935d1edc7fd64eb21e047a839171b9190a45050565b7f189ab7a9244df0848122154315af71fe140f3db0fe014031783b0946b8c9d2e3610cdb8133610c48565b60006123787f360894a13ba1a3210667c828492db98dca3e2076cc3735a920a3ca505d382bbc546001600160a01b031690565b9050612383846133b6565b6000835111806123905750815b156123a15761239f848461345b565b505b7f4910fdfa16fed3260ed0e7147f7cc6da11a60208b5b9406d12a635614ffd9143805460ff16611dcf57805460ff191660011781556040516001600160a01b038316602482015261242090869060440160408051601f198184030181529190526020810180516001600160e01b0316631b2ce7f360e11b17905261345b565b50805460ff191681557f360894a13ba1a3210667c828492db98dca3e2076cc3735a920a3ca505d382bbc546001600160a01b038381169116146124bd5760405162461bcd60e51b815260206004820152602f60248201527f45524331393637557067726164653a207570677261646520627265616b73206660448201526e75727468657220757067726164657360881b6064820152608401610cc8565b611dcf85613546565b6124f07fa49807205ce4d355092ef5a8a18f56e8913cf4a201fbe287825b095693c21775336121c9565b565b63ffffffff811660009081526101c0602090815260408083206001600160a01b03861684529091529020548015801590612542575063ffffffff8216600090815261015a60205260409020548111155b15610c575761255382846001613586565b61255f82846000613586565b61256b828460016136ea565b612577828460006136ea565b61258382846001613820565b61258f82846000613820565b63ffffffff821660008181526101c0602090815260408083206001600160a01b038816808552908352818420939093558051928352908201929092527fe03aa867e2345cc967d98e4c81f6b0707b5ef082d9d20bac3dcf95540acdeae49101610fb8565b6101285464010000000090046001600160a01b031633146124f05761012a546040516324b4085360e21b81523360048201526001600160a01b03909116906392d0214c90602401600060405180830381600087803b15801561265457600080fd5b505af115801561102c573d6000803e3d6000fd5b338361267381611dd6565b61267d82826124f2565b6126856125f3565b61268f858561396a565b63ffffffff85166000908152610190602090815260408083208615158452909152812080548692906126c2908490614b5f565b909155505063ffffffff851660009081526101c1602090815260408083208615158452825280832033845290915281208054869290612702908490614b5f565b909155505063ffffffff8516600090815261015a6020526040812054612729906001614b5f565b63ffffffff871660009081526101c0602090815260408083203380855292529182902083905590519192507f50b8727b538cf16daeb79894e8bde5c1e975985071be8a8d7620675a5dddfc6b916111f191899188918a918790614ab9565b6000816127948486614c3c565b61279e9190614ba5565b949350505050565b33836127b181611dd6565b6127bb82826124f2565b6127c36125f3565b63ffffffff8516600090815261018d602090815260408083208615158452909152908190205490516323b872dd60e01b8152336004820152306024820152604481018690526001600160a01b03909116906323b872dd90606401602060405180830381600087803b15801561283757600080fd5b505af115801561284b573d6000803e3d6000fd5b505050506040513d601f19601f8201168201806040525081019061286f9190614409565b5063ffffffff851660009081526101c26020908152604080832086151584528252808320338452909152812080548692906128ab908490614b5f565b909155505063ffffffff8516600090815261015a60205260408120546128d2906001614b5f565b63ffffffff871660008181526101c060209081526040808320338452825280832085905592825261019181528282208815158352905290812080549293508792909190612920908490614b5f565b90915550506040517f191d5f0d51691cdc223884e5321013c9663c6b337a07d550c538d9dcbbd66203906111f19088908790899033908790614ab9565b63ffffffff81166000908152610158602052604090205460ff16610c2d5760405162461bcd60e51b81526020600482015260146024820152731b585c9ad95d08191bd95cdb89dd08195e1a5cdd60621b6044820152606401610cc8565b6000816129cf84670de0b6b3a7640000614c3c565b6129d99190614ba5565b9392505050565b670de0b6b3a7640000821015612a385760405162461bcd60e51b815260206004820152601860248201527f496e73756666696369656e74206d61726b6574207365656400000000000000006044820152606401610cc8565b6000612a45836002614c3c565b9050612a51828261396a565b63ffffffff8216600090815261015e6020526040908190205490516304831f7160e51b8152600481018390526001600160a01b0390911690639063ee2090602401600060405180830381600087803b158015612aac57600080fd5b505af1158015612ac0573d6000803e3d6000fd5b5050505063ffffffff8216600090815261018d6020908152604080832060018452909152908190205490516340c10f1960e01b815273f10a7f10a7f10a7f10a7f10a7f10a7f10a7f10a76004820152602481018590526001600160a01b03909116906340c10f1990604401600060405180830381600087803b158015612b4557600080fd5b505af1158015612b59573d6000803e3d6000fd5b5050505063ffffffff8216600090815261018d60209081526040808320838052909152908190205490516340c10f1960e01b815273f10a7f10a7f10a7f10a7f10a7f10a7f10a7f10a76004820152602481018590526001600160a01b03909116906340c10f1990604401600060405180830381600087803b158015612bdd57600080fd5b505af1158015612bf1573d6000803e3d6000fd5b5050505063ffffffff91909116600090815261018e602090815260408083206001845290915280822084905581805290209190915550565b600054610100900460ff1680612c42575060005460ff16155b612c5e5760405162461bcd60e51b8152600401610cc8906149e7565b600054610100900460ff16158015612c80576000805461ffff19166101011790555b612c886139ab565b612c90613a2e565b612c9982613a8c565b8015610cdb576000805461ff00191690555050565b63ffffffff82166000908152610159602090815260408083205461018e835281842060018552808452828520548580529352908320549192612cf08385614b5f565b9050600080612d0188878786613b55565b63ffffffff8a16600090815261015e602052604080822054905163452accd960e11b81526004810188905260248101849052939550919350916001600160a01b0390911690638a5599b290604401602060405180830381600087803b158015612d6957600080fd5b505af1158015612d7d573d6000803e3d6000fd5b505050506040513d601f19601f82011682018060405250810190612da19190614494565b90508015612dcd578215612dc057612db98188614b5f565b9650612dcd565b612dca8187614b5f565b95505b6000612dd98888613bcd565b90506000612def87670de0b6b3a7640000614bb9565b63ffffffff8c16600090815261015c602052604090205483612e118a8e614c5b565b612e1b9190614bb9565b612e259190614bb9565b612e2f9190614b77565b90506000811215612e8857612e4381614d33565b905088811115612e6b57620186a0612e5e8a6201869f614bb9565b612e689190614b77565b90505b612e75818a614c9a565b9850612e818189614b5f565b9750612ec7565b87811115612eae57620186a0612ea1896201869f614bb9565b612eab9190614b77565b90505b612eb8818a614b5f565b9850612ec48189614c9a565b97505b505050505050509250929050565b63ffffffff8316600090815261019060209081526040808320600184529091528120548190819081908015612f375763ffffffff881660009081526101906020908152604080832060018452909152812055935083612f3481886129ba565b92505b5063ffffffff87166000908152610190602090815260408083208380529091529020548015612f925763ffffffff8816600090815261019060209081526040808320838052909152812055925082612f8f81876129ba565b91505b5063ffffffff871660009081526101926020908152604080832060018452909152902054801561302a576000612fc88289613be3565b9050612fd48187614c5b565b9550612fe08186614b1e565b9450612fec8285614c5b565b9350612ff9828989612787565b6130039084614b1e565b63ffffffff8a16600090815261019260209081526040808320600184529091528120559250505b5063ffffffff871660009081526101926020908152604080832083805290915290205480156130c057600061305f8288613be3565b905061306b8186614c5b565b94506130778187614b1e565b95506130838284614c5b565b925061309082888a612787565b61309a9085614b1e565b63ffffffff8a166000908152610192602090815260408083208380529091528120559350505b5063ffffffff8716600090815261019160209081526040808320600184529091529020548015613130576130f48188613be3565b6130fe9086614c5b565b945061310a8184614c5b565b63ffffffff89166000908152610191602090815260408083206001845290915281205592505b5063ffffffff8716600090815261019160209081526040808320838052909152902054801561319e576131638187613be3565b61316d9085614c5b565b93506131798183614c5b565b63ffffffff891660009081526101916020908152604080832083805290915281205591505b6131b1886131ac8688614b1e565b613bf8565b6131bd88600185613cfc565b6131c988600084613cfc565b505050935093915050565b606060006131e3836002614c3c565b6131ee906002614b5f565b67ffffffffffffffff81111561321457634e487b7160e01b600052604160045260246000fd5b6040519080825280601f01601f19166020018201604052801561323e576020820181803683370190505b509050600360fc1b8160008151811061326757634e487b7160e01b600052603260045260246000fd5b60200101906001600160f81b031916908160001a905350600f60fb1b816001815181106132a457634e487b7160e01b600052603260045260246000fd5b60200101906001600160f81b031916908160001a90535060006132c8846002614c3c565b6132d3906001614b5f565b90505b6001811115613367576f181899199a1a9b1b9c1cb0b131b232b360811b85600f166010811061331557634e487b7160e01b600052603260045260246000fd5b1a60f81b82828151811061333957634e487b7160e01b600052603260045260246000fd5b60200101906001600160f81b031916908160001a90535060049490941c9361336081614cdd565b90506132d6565b5083156129d95760405162461bcd60e51b815260206004820181905260248201527f537472696e67733a20686578206c656e67746820696e73756666696369656e746044820152606401610cc8565b803b61341a5760405162461bcd60e51b815260206004820152602d60248201527f455243313936373a206e657720696d706c656d656e746174696f6e206973206e60448201526c1bdd08184818dbdb9d1c9858dd609a1b6064820152608401610cc8565b7f360894a13ba1a3210667c828492db98dca3e2076cc3735a920a3ca505d382bbc80546001600160a01b0319166001600160a01b0392909216919091179055565b6060823b6134ba5760405162461bcd60e51b815260206004820152602660248201527f416464726573733a2064656c65676174652063616c6c20746f206e6f6e2d636f6044820152651b9d1c9858dd60d21b6064820152608401610cc8565b600080846001600160a01b0316846040516134d59190614864565b600060405180830381855af49150503d8060008114613510576040519150601f19603f3d011682016040523d82523d6000602084013e613515565b606091505b509150915061353d8282604051806060016040528060278152602001614db360279139613e29565b95945050505050565b61354f816133b6565b6040516001600160a01b038216907fbc7cd75a20ee27fd9adebab32041f755214dbc6bffa90cc0225b39da2e5c2d3b90600090a250565b63ffffffff831660009081526101c160209081526040808320841515845282528083206001600160a01b0386168452909152902054801561102c5763ffffffff841660008181526101c1602090815260408083208615158085529083528184206001600160a01b03891680865290845282852085905585855261018f84528285209185529083528184209484526101c083528184209084528252808320548352929052908120546136389083906129ba565b63ffffffff8616600090815261018d6020908152604080832087151584529091529081902054905163a9059cbb60e01b81526001600160a01b0387811660048301526024820184905292935091169063a9059cbb90604401602060405180830381600087803b1580156136aa57600080fd5b505af11580156136be573d6000803e3d6000fd5b505050506040513d601f19601f820116820180604052508101906136e29190614409565b505050505050565b63ffffffff831660009081526101c260209081526040808320841515845282528083206001600160a01b0386168452909152902054801561102c5763ffffffff841660008181526101c2602090815260408083208615158085529083528184206001600160a01b03891680865290845282852085905585855261018f84528285209185529083528184209484526101c0835281842090845282528083205483529290529081205461379c908390613be3565b63ffffffff8616600090815261015e6020526040908190205490516375b5ffd160e11b81526001600160a01b0387811660048301526024820184905292935091169063eb6bffa290604401600060405180830381600087803b15801561380157600080fd5b505af1158015613815573d6000803e3d6000fd5b505050505050505050565b63ffffffff831660009081526101c360209081526040808320841515845282528083206001600160a01b0386168452909152902054801561102c5763ffffffff841660009081526101c0602090815260408083206001600160a01b03871684529091528120546138959086908490869061129e565b63ffffffff861660008181526101c3602090815260408083208815801585529083528184206001600160a01b038b811680875291855283862086905595855261018d845282852091855292529182902054915163a9059cbb60e01b8152600481019190915260248101849052929350169063a9059cbb90604401602060405180830381600087803b15801561392957600080fd5b505af115801561393d573d6000803e3d6000fd5b505050506040513d601f19601f820116820180604052508101906139619190614409565b611dcf57600080fd5b63ffffffff808316600090815261015e602090815260408083205461015d90925290912054610cdb926001600160a01b0391821692339216908590613e6216565b600054610100900460ff16806139c4575060005460ff16155b6139e05760405162461bcd60e51b8152600401610cc8906149e7565b600054610100900460ff16158015613a02576000805461ffff19166101011790555b613a0a613ebc565b613a12613ebc565b613a1a613ebc565b8015610c2d576000805461ff001916905550565b600054610100900460ff1680613a47575060005460ff16155b613a635760405162461bcd60e51b8152600401610cc8906149e7565b600054610100900460ff16158015613a0a576000805461ffff1916610101179055613a12613ebc565b600054610100900460ff1680613aa5575060005460ff16155b613ac15760405162461bcd60e51b8152600401610cc8906149e7565b600054610100900460ff16158015613ae3576000805461ffff19166101011790555b6001600160a01b038216613af657600080fd5b613b01600083613f26565b613b2b7fa49807205ce4d355092ef5a8a18f56e8913cf4a201fbe287825b095693c2177583613f26565b612c997f189ab7a9244df0848122154315af71fe140f3db0fe014031783b0946b8c9d2e383613f26565b8183106000808215613b6a5750848403613b6f565b508385035b63ffffffff8716600090815261015b60205260408120548590613b929084614c3c565b613b9c9190614ba5565b90506000613bb282670de0b6b3a7640000613bcd565b905080670de0b6b3a764000003935050505094509492505050565b6000818310613bdc57816129d9565b5090919050565b6000670de0b6b3a76400006129cf8385614c3c565b6000811315613c795763ffffffff8216600090815261015e6020526040908190205490516304831f7160e51b8152600481018390526001600160a01b0390911690639063ee2090602401600060405180830381600087803b158015613c5c57600080fd5b505af1158015613c70573d6000803e3d6000fd5b50505050610cdb565b6000811215610cdb5763ffffffff8216600090815261015e60205260409020546001600160a01b0316631c499b55613cb083614d33565b6040518263ffffffff1660e01b8152600401613cce91815260200190565b600060405180830381600087803b158015613ce857600080fd5b505af11580156136e2573d6000803e3d6000fd5b6000811315613d905763ffffffff8316600090815261018d602090815260408083208515158452909152908190205490516340c10f1960e01b8152306004820152602481018390526001600160a01b03909116906340c10f1990604401600060405180830381600087803b158015613d7357600080fd5b505af1158015613d87573d6000803e3d6000fd5b50505050610c57565b6000811215610c575763ffffffff8316600090815261018d6020908152604080832085151584529091529020546001600160a01b03166342966c68613dd483614d33565b6040518263ffffffff1660e01b8152600401613df291815260200190565b600060405180830381600087803b158015613e0c57600080fd5b505af1158015613e20573d6000803e3d6000fd5b50505050505050565b60608315613e385750816129d9565b825115613e485782518084602001fd5b8160405162461bcd60e51b8152600401610cc89190614980565b604080516001600160a01b0385811660248301528416604482015260648082018490528251808303909101815260849091019091526020810180516001600160e01b03166323b872dd60e01b17905261102c908590613f30565b600054610100900460ff1680613ed5575060005460ff16155b613ef15760405162461bcd60e51b8152600401610cc8906149e7565b600054610100900460ff16158015613a1a576000805461ffff19166101011790558015610c2d576000805461ff001916905550565b610cdb828261222d565b6000613f85826040518060400160405280602081526020017f5361666545524332303a206c6f772d6c6576656c2063616c6c206661696c6564815250856001600160a01b03166140029092919063ffffffff16565b805190915015610c575780806020019051810190613fa39190614409565b610c575760405162461bcd60e51b815260206004820152602a60248201527f5361666545524332303a204552433230206f7065726174696f6e20646964206e6044820152691bdd081cdd58d8d9595960b21b6064820152608401610cc8565b606061279e848460008585843b61405b5760405162461bcd60e51b815260206004820152601d60248201527f416464726573733a2063616c6c20746f206e6f6e2d636f6e74726163740000006044820152606401610cc8565b600080866001600160a01b031685876040516140779190614864565b60006040518083038185875af1925050503d80600081146140b4576040519150601f19603f3d011682016040523d82523d6000602084013e6140b9565b606091505b50915091506112e9828286613e29565b60008083601f8401126140da578182fd5b50813567ffffffffffffffff8111156140f1578182fd5b60208301915083602082850101111561410957600080fd5b9250929050565b803563ffffffff81168114610c1f57600080fd5b600060208284031215614135578081fd5b81356129d981614d8f565b600060208284031215614151578081fd5b81516129d981614d8f565b60008060008060808587031215614171578283fd5b843561417c81614d8f565b9350602085013561418c81614d8f565b9250604085013561419c81614d8f565b915060608501356141ac81614d8f565b939692955090935050565b600080604083850312156141c9578182fd5b82356141d481614d8f565b915060208381013567ffffffffffffffff808211156141f1578384fd5b818601915086601f830112614204578384fd5b81358181111561421657614216614d79565b8060051b9150614227848301614aed565b8181528481019084860184860187018b1015614241578788fd5b8795505b8386101561426a5761425681614110565b835260019590950194918601918601614245565b508096505050505050509250929050565b6000806040838503121561428d578182fd5b823561429881614d8f565b915060208381013567ffffffffffffffff808211156142b5578384fd5b818601915086601f8301126142c8578384fd5b8135818111156142da576142da614d79565b6142ec601f8201601f19168501614aed565b91508082528784828501011115614301578485fd5b8084840185840137810190920192909252919491935090915050565b6000806040838503121561432f578182fd5b823561433a81614d8f565b915061434860208401614110565b90509250929050565b600080600060608486031215614365578283fd5b833561437081614d8f565b925061437e60208501614110565b9150604084013561438e81614da4565b809150509250925092565b600080602083850312156143ab578182fd5b823567ffffffffffffffff808211156143c2578384fd5b818501915085601f8301126143d5578384fd5b8135818111156143e3578485fd5b8660208260051b85010111156143f7578485fd5b60209290920196919550909350505050565b60006020828403121561441a578081fd5b81516129d981614da4565b600060208284031215614436578081fd5b5035919050565b6000806040838503121561444f578182fd5b82359150602083013561446181614d8f565b809150509250929050565b60006020828403121561447d578081fd5b81356001600160e01b0319811681146129d9578182fd5b6000602082840312156144a5578081fd5b5051919050565b600080600080600080600060a0888a0312156144c6578485fd5b873567ffffffffffffffff808211156144dd578687fd5b6144e98b838c016140c9565b909950975060208a0135915080821115614501578687fd5b5061450e8a828b016140c9565b909650945050604088013561452281614d8f565b9250606088013561453281614d8f565b9150608088013561454281614d8f565b8091505092959891949750929550565b600080600080600080600080600060e08a8c03121561456f578283fd5b893567ffffffffffffffff80821115614586578485fd5b6145928d838e016140c9565b909b50995060208c01359150808211156145aa578485fd5b506145b78c828d016140c9565b90985096505060408a01356145cb81614d8f565b945060608a01356145db81614d8f565b935060808a01356145eb81614d8f565b925060a08a01356145fb81614d8f565b915060c08a013561460b81614d8f565b809150509295985092959850929598565b60006020828403121561462d578081fd5b6129d982614110565b60008060408385031215614648578182fd5b61465183614110565b9150602083013561446181614d8f565b60008060408385031215614673578182fd5b61467c83614110565b9150602083013561446181614da4565b6000806000606084860312156146a0578081fd5b6146a984614110565b925060208401356146b981614da4565b9150604084013561438e81614d8f565b6000806000606084860312156146dd578081fd5b6146e684614110565b925060208401356146f681614da4565b929592945050506040919091013590565b60008060408385031215614719578182fd5b61472283614110565b946020939093013593505050565b600080600060608486031215614744578081fd5b61474d84614110565b925060208401359150604084013561438e81614da4565b60008060008060808587031215614779578182fd5b61478285614110565b935060208501359250604085013561479981614da4565b9396929550929360600135925050565b60008060008060008060008060006101208a8c0312156147c7578283fd5b6147d08a614110565b9b60208b01359b5060408b01359a60608101359a506080810135995060a0810135985060c0810135975060e081013596506101000135945092505050565b60008284528282602086013780602084860101526020601f19601f85011685010190509392505050565b60008151808452614850816020860160208601614cb1565b601f01601f19169290920160200192915050565b60008251614876818460208701614cb1565b9190910192915050565b600061667360f01b8252828460028401379101600201908152919050565b60006b0233637b0ba1029b437b93a160a51b82528284600c8401379101600c01908152919050565b600061199b60f21b8252828460028401379101600201908152919050565b60007f416363657373436f6e74726f6c3a206163636f756e74200000000000000000008252835161491c816017850160208801614cb1565b7001034b99036b4b9b9b4b733903937b6329607d1b601791840191820152835161494d816028840160208801614cb1565b01602801949350505050565b60006a0233637b0ba102637b733960ad1b82528284600b8401379101600b01908152919050565b6000602082526129d96020830184614838565b600060a082526149a660a0830188614838565b82810360208401526149b88188614838565b6001600160a01b03969096166040840152505063ffffffff929092166060830152151560809091015292915050565b6020808252602e908201527f496e697469616c697a61626c653a20636f6e747261637420697320616c72656160408201526d191e481a5b9a5d1a585b1a5e995960921b606082015260800190565b63ffffffff8c1681526001600160a01b038b811660208301528a8116604083015289811660608301526080820189905261012060a08301819052600091614a7f8483018a8c61480e565b915083820360c0850152614a9482888a61480e565b925080861660e085015280851661010085015250509c9b505050505050505050505050565b63ffffffff959095168552921515602085015260408401919091526001600160a01b03166060830152608082015260a00190565b604051601f8201601f1916810167ffffffffffffffff81118282101715614b1657614b16614d79565b604052919050565b600080821280156001600160ff1b0384900385131615614b4057614b40614d4d565b600160ff1b8390038412811615614b5957614b59614d4d565b50500190565b60008219821115614b7257614b72614d4d565b500190565b600082614b8657614b86614d63565b600160ff1b821460001984141615614ba057614ba0614d4d565b500590565b600082614bb457614bb4614d63565b500490565b60006001600160ff1b0381841382841380821686840486111615614bdf57614bdf614d4d565b600160ff1b84871282811687830589121615614bfd57614bfd614d4d565b858712925087820587128484161615614c1857614c18614d4d565b87850587128184161615614c2e57614c2e614d4d565b505050929093029392505050565b6000816000190483118215151615614c5657614c56614d4d565b500290565b60008083128015600160ff1b850184121615614c7957614c79614d4d565b6001600160ff1b0384018313811615614c9457614c94614d4d565b50500390565b600082821015614cac57614cac614d4d565b500390565b60005b83811015614ccc578181015183820152602001614cb4565b8381111561102c5750506000910152565b600081614cec57614cec614d4d565b506000190190565b6000600019821415614d0857614d08614d4d565b5060010190565b600063ffffffff80831681811415614d2957614d29614d4d565b6001019392505050565b6000600160ff1b821415614d4957614d49614d4d565b0390565b634e487b7160e01b600052601160045260246000fd5b634e487b7160e01b600052601260045260246000fd5b634e487b7160e01b600052604160045260246000fd5b6001600160a01b0381168114610c2d57600080fd5b8015158114610c2d57600080fdfe416464726573733a206c6f772d6c6576656c2064656c65676174652063616c6c206661696c6564a26469706673582212209f07d2605481bcc755f92745274a7201e1fd0d05162284474e854bccfb480f5c64736f6c63430008030033",
  "devdoc": {
    "author": "float.capital",
    "custom:auditors": "This contract balances long and short sides.",
    "details": "All functions in this file are currently `virtual`. This is NOT to encourage inheritance. It is merely for convenince when unit testing.",
    "kind": "dev",
    "methods": {
      "createNewSyntheticMarket(string,string,address,address,address)": {
        "details": "This does not make the market active. The `initializeMarket` function was split out separately to this function to reduce costs.",
        "params": {
          "_oracleManager": "The address of the oracle manager that provides the price feed for this market",
          "_paymentToken": "The address of the erc20 token used to buy this synthetic asset this will likely always be DAI",
          "_yieldManager": "The contract that manages depositing the paymentToken into a yield bearing protocol",
          "syntheticName": "Name of the synthetic asset",
          "syntheticSymbol": "Symbol for the synthetic asset"
        }
      },
      "createNewSyntheticMarketExternalSyntheticTokens(string,string,address,address,address,address,address)": {
        "details": "This does not make the market active. The `initializeMarket` function was split out separately to this function to reduce costs.",
        "params": {
          "_longToken": "Address for the long token.",
          "_oracleManager": "The address of the oracle manager that provides the price feed for this market",
          "_paymentToken": "The address of the erc20 token used to buy this synthetic asset this will likely always be DAI",
          "_shortToken": "Address for the short token.",
          "_yieldManager": "The contract that manages depositing the paymentToken into a yield bearing protocol",
          "syntheticName": "Name of the synthetic asset",
          "syntheticSymbol": "Symbol for the synthetic asset"
        }
      },
      "executeOutstandingNextPriceSettlementsUser(address,uint32)": {
        "params": {
          "marketIndex": "An uint32 which uniquely identifies a market.",
          "user": "The address of the user for whom to execute the function."
        }
      },
      "executeOutstandingNextPriceSettlementsUserMulti(address,uint32[])": {
        "params": {
          "marketIndexes": "An array of int32s which each uniquely identify a market.",
          "user": "The address of the user for whom to execute the function."
        }
      },
      "getAmountSyntheticTokenToMintOnTargetSide(uint32,uint256,bool,uint256)": {
        "details": "Intended for use primarily by Staker.sol",
        "params": {
          "amountSyntheticToken_redeemOnOriginSide": "Amount of synth token in wei.",
          "isShiftFromLong": "Whether the token shift is from long to short (true), or short to long (false).",
          "marketIndex": "An uint32 which uniquely identifies a market.",
          "priceSnapshotIndex": "Index which identifies which synth prices to use."
        },
        "returns": {
          "amountSyntheticTokensToMintOnTargetSide": "The amount in wei of tokens for the other side that the shift was worth."
        }
      },
      "getRoleAdmin(bytes32)": {
        "details": "Returns the admin role that controls `role`. See {grantRole} and {revokeRole}. To change a role's admin, use {_setRoleAdmin}."
      },
      "getUsersConfirmedButNotSettledSynthBalance(address,uint32,bool)": {
        "details": "Used in SyntheticToken.sol balanceOf to allow for automatic reflection of next price actions.",
        "params": {
          "isLong": "Whether it is for the long synthetic asset or the short synthetic asset.",
          "marketIndex": "An uint32 which uniquely identifies a market.",
          "user": "The address of the user for whom to execute the function for."
        },
        "returns": {
          "confirmedButNotSettledBalance": "The amount in wei of tokens that the user is owed."
        }
      },
      "grantRole(bytes32,address)": {
        "details": "Grants `role` to `account`. If `account` had not been already granted `role`, emits a {RoleGranted} event. Requirements: - the caller must have ``role``'s admin role."
      },
      "hasRole(bytes32,address)": {
        "details": "Returns `true` if `account` has been granted `role`."
      },
      "initialize(address,address,address,address)": {
        "details": "Calls OpenZeppelin's initializer modifier.",
        "params": {
          "_admin": "Address of the admin role.",
          "_staker": "Address of the contract which handles synthetic asset stakes.",
          "_tokenFactory": "Address of the contract which creates synthetic asset tokens."
        }
      },
      "initializeMarket(uint32,uint256,uint256,uint256,uint256,uint256,int256,uint256,uint256)": {
        "details": "Seperated from createNewSyntheticMarket due to gas considerations.",
        "params": {
          "balanceIncentiveCurve_equilibriumOffset": "An offset to account for naturally imbalanced markets when Float token issuance should differ for market sides. See Staker.sol",
          "balanceIncentiveCurve_exponent": "Sets the degree to which Float token issuance differs for market sides in unbalanced markets. See Staker.sol",
          "initialMarketSeedForEachMarketSide": "Amount of payment token that will be deposited in each market side to seed the market.",
          "kInitialMultiplier": "Linearly decreasing multiplier for Float token issuance for the market when staking synths.",
          "kPeriod": "Time which kInitialMultiplier will last",
          "marketIndex": "An int32 which uniquely identifies the market.",
          "unstakeFee_e18": "Base 1e18 percentage fee levied when unstaking for the market."
        }
      },
      "mintLongNextPrice(uint32,uint256)": {
        "params": {
          "amount": "Amount of payment tokens in that token's lowest denominationfor which to mint synthetic assets at next price.",
          "marketIndex": "An uint32 which uniquely identifies a market."
        }
      },
      "mintShortNextPrice(uint32,uint256)": {
        "params": {
          "amount": "Amount of payment tokens in that token's lowest denominationfor which to mint synthetic assets at next price.",
          "marketIndex": "An uint32 which uniquely identifies a market."
        }
      },
      "redeemLongNextPrice(uint32,uint256)": {
        "params": {
          "marketIndex": "An uint32 which uniquely identifies a market.",
          "tokens_redeem": "Amount in wei of synth tokens to redeem at the next oracle price."
        }
      },
      "redeemShortNextPrice(uint32,uint256)": {
        "params": {
          "marketIndex": "An uint32 which uniquely identifies a market.",
          "tokens_redeem": "Amount in wei of synth tokens to redeem at the next oracle price."
        }
      },
      "renounceRole(bytes32,address)": {
        "details": "Revokes `role` from the calling account. Roles are often managed via {grantRole} and {revokeRole}: this function's purpose is to provide a mechanism for accounts to lose their privileges if they are compromised (such as when a trusted device is misplaced). If the calling account had been granted `role`, emits a {RoleRevoked} event. Requirements: - the caller must be `account`."
      },
      "revokeRole(bytes32,address)": {
        "details": "Revokes `role` from `account`. If `account` had been granted `role`, emits a {RoleRevoked} event. Requirements: - the caller must have ``role``'s admin role."
      },
      "shiftPositionFromLongNextPrice(uint32,uint256)": {
        "params": {
          "amountSyntheticTokensToShift": "Amount in wei of synthetic tokens to shift from long to short the next oracle price update.",
          "marketIndex": "An uint32 which uniquely identifies a market."
        }
      },
      "shiftPositionFromShortNextPrice(uint32,uint256)": {
        "params": {
          "amountSyntheticTokensToShift": "Amount in wei of synthetic tokens to shift from the short to long at the next oracle price update.",
          "marketIndex": "An uint32 which uniquely identifies a market."
        }
      },
      "shiftPositionNextPrice(uint32,uint256,bool)": {
        "details": "Called by external functions to shift either way. Intended for primary use by Staker.sol",
        "params": {
          "amountSyntheticTokensToShift": "Amount in wei of synthetic tokens to shift from the one side to the other at the next oracle price update.",
          "isShiftFromLong": "Whether the token shift is from long to short (true), or short to long (false).",
          "marketIndex": "An uint32 which uniquely identifies a market."
        }
      },
      "supportsInterface(bytes4)": {
        "details": "See {IERC165-supportsInterface}."
      },
      "updateMarketOracle(uint32,address)": {
        "details": "Can only be called by the current admin.",
        "params": {
          "_newOracleManager": "Address of the replacement oracle manager.",
          "marketIndex": "An uint32 which uniquely identifies a market."
        }
      },
      "updateSystemState(uint32)": {
        "params": {
          "marketIndex": "An uint32 which uniquely identifies a market."
        }
      },
      "updateSystemStateMulti(uint32[])": {
        "params": {
          "marketIndexes": "An array of int32s which uniquely identify markets."
        }
      },
      "upgradeTo(address)": {
        "details": "Upgrade the implementation of the proxy to `newImplementation`. Calls {_authorizeUpgrade}. Emits an {Upgraded} event."
      },
      "upgradeToAndCall(address,bytes)": {
        "details": "Upgrade the implementation of the proxy to `newImplementation`, and subsequently execute the function call encoded in `data`. Calls {_authorizeUpgrade}. Emits an {Upgraded} event."
      }
    },
    "stateVariables": {
      "PERMANENT_INITIAL_LIQUIDITY_HOLDER": {
        "details": "f10a7 spells float in hex - for fun - important part is that the private key for this address in not known."
      },
      "__constantsGap": {
        "details": "an empty allocation of storage for use in future upgrades - inspiration from OZ:      https://github.com/OpenZeppelin/openzeppelin-contracts-upgradeable/blob/10f0f1a95b1b0fd5520351886bae7a03490f1056/contracts/token/ERC20/ERC20Upgradeable.sol#L361"
      }
    },
    "title": "Core logic of Float Protocal markets",
    "version": 1
  },
  "userdoc": {
    "kind": "user",
    "methods": {
      "PERMANENT_INITIAL_LIQUIDITY_HOLDER()": {
        "notice": "this is the address that permanently locked initial liquidity for markets is held by. These tokens will never move so market can never have zero liquidity on a side."
      },
      "changeMarketTreasurySplitGradient(uint32,uint256)": {
        "notice": "changes the gradient of the line for determining the yield split between market and treasury."
      },
      "createNewSyntheticMarket(string,string,address,address,address)": {
        "notice": "Creates an entirely new long/short market tracking an underlying oracle price.  Make sure the synthetic names/symbols are unique."
      },
      "createNewSyntheticMarketExternalSyntheticTokens(string,string,address,address,address,address,address)": {
        "notice": "Creates an entirely new long/short market tracking an underlying oracle price.  Uses already created synthetic tokens."
      },
      "executeOutstandingNextPriceSettlementsUser(address,uint32)": {
        "notice": "After markets have been batched updated on a new oracle price, transfers any owed tokens to a user from their next price actions for that update to that user."
      },
      "executeOutstandingNextPriceSettlementsUserMulti(address,uint32[])": {
        "notice": "Executes outstanding next price settlements for a user for multiple markets."
      },
      "getAmountSyntheticTokenToMintOnTargetSide(uint32,uint256,bool,uint256)": {
        "notice": "Given an executed next price shift from tokens on one market side to the other, determines how many other side tokens the shift was worth."
      },
      "getUsersConfirmedButNotSettledSynthBalance(address,uint32,bool)": {
        "notice": "The amount of a synth token a user is owed following a batch execution. 4 possible states for next price actions: - \"Pending\" - means the next price update hasn't happened or been enacted on by the updateSystemState function. - \"Confirmed\" - means the next price has been updated by the updateSystemState function. There is still -               outstanding (lazy) computation that needs to be executed per user in the batch. - \"Settled\" - there is no more computation left for the user. - \"Non-existent\" - user has no next price actions. This function returns a calculated value only in the case of 'confirmed' next price actions. It should return zero for all other types of next price actions."
      },
      "initialize(address,address,address,address)": {
        "notice": "Initializes the contract."
      },
      "initializeMarket(uint32,uint256,uint256,uint256,uint256,uint256,int256,uint256,uint256)": {
        "notice": "Sets a market as active once it has already been setup by createNewSyntheticMarket."
      },
      "mintLongNextPrice(uint32,uint256)": {
        "notice": "Allows users to mint long synthetic assets for a market. To prevent front-running these mints are executed on the next price update from the oracle."
      },
      "mintShortNextPrice(uint32,uint256)": {
        "notice": "Allows users to mint short synthetic assets for a market. To prevent front-running these mints are executed on the next price update from the oracle."
      },
      "redeemLongNextPrice(uint32,uint256)": {
        "notice": "Allows users to redeem long synthetic assets for a market. To prevent front-running these redeems are executed on the next price update from the oracle."
      },
      "redeemShortNextPrice(uint32,uint256)": {
        "notice": "Allows users to redeem short synthetic assets for a market. To prevent front-running these redeems are executed on the next price update from the oracle."
      },
      "shiftPositionFromLongNextPrice(uint32,uint256)": {
        "notice": "Allows users to shift their position from long to short in a single transaction. To prevent front-running these shifts are executed on the next price update from the oracle."
      },
      "shiftPositionFromShortNextPrice(uint32,uint256)": {
        "notice": "Allows users to shift their position from short to long in a single transaction. To prevent front-running these shifts are executed on the next price update from the oracle."
      },
      "shiftPositionNextPrice(uint32,uint256,bool)": {
        "notice": "Allows users to shift their position from one side of the market to the other in a single transaction. To prevent front-running these shifts are executed on the next price update from the oracle."
      },
      "syntheticToken_priceSnapshot(uint32,bool,uint256)": {
        "notice": "synthetic token prices of a given market of a (long/short) at every previous price update"
      },
      "updateMarketOracle(uint32,address)": {
        "notice": "Update oracle for a market"
      },
      "updateSystemState(uint32)": {
        "notice": "Updates the state of a market to account for the latest oracle price update."
      },
      "updateSystemStateMulti(uint32[])": {
        "notice": "Updates the state of multiples markets to account for their latest oracle price updates."
      }
    },
    "notice": "visit https://float.capital for more info",
    "version": 1
  },
  "storageLayout": {
    "storage": [
      {
        "astId": 1102,
        "contract": "contracts/LongShort.sol:LongShort",
        "label": "_initialized",
        "offset": 0,
        "slot": "0",
        "type": "t_bool"
      },
      {
        "astId": 1105,
        "contract": "contracts/LongShort.sol:LongShort",
        "label": "_initializing",
        "offset": 1,
        "slot": "0",
        "type": "t_bool"
      },
      {
        "astId": 3537,
        "contract": "contracts/LongShort.sol:LongShort",
        "label": "__gap",
        "offset": 0,
        "slot": "1",
        "type": "t_array(t_uint256)50_storage"
      },
      {
        "astId": 4436,
        "contract": "contracts/LongShort.sol:LongShort",
        "label": "__gap",
        "offset": 0,
        "slot": "51",
        "type": "t_array(t_uint256)50_storage"
      },
      {
        "astId": 304,
        "contract": "contracts/LongShort.sol:LongShort",
        "label": "_roles",
        "offset": 0,
        "slot": "101",
        "type": "t_mapping(t_bytes32,t_struct(RoleData)299_storage)"
      },
      {
        "astId": 589,
        "contract": "contracts/LongShort.sol:LongShort",
        "label": "__gap",
        "offset": 0,
        "slot": "102",
        "type": "t_array(t_uint256)49_storage"
      },
      {
        "astId": 1085,
        "contract": "contracts/LongShort.sol:LongShort",
        "label": "__gap",
        "offset": 0,
        "slot": "151",
        "type": "t_array(t_uint256)50_storage"
      },
      {
        "astId": 1218,
        "contract": "contracts/LongShort.sol:LongShort",
        "label": "__gap",
        "offset": 0,
        "slot": "201",
        "type": "t_array(t_uint256)50_storage"
      },
      {
        "astId": 10689,
        "contract": "contracts/LongShort.sol:LongShort",
        "label": "__constantsGap",
        "offset": 0,
        "slot": "251",
        "type": "t_array(t_uint256)45_storage"
      },
      {
        "astId": 10691,
        "contract": "contracts/LongShort.sol:LongShort",
        "label": "latestMarket",
        "offset": 0,
        "slot": "296",
        "type": "t_uint32"
      },
      {
        "astId": 10693,
        "contract": "contracts/LongShort.sol:LongShort",
        "label": "staker",
        "offset": 4,
        "slot": "296",
        "type": "t_address"
      },
      {
        "astId": 10695,
        "contract": "contracts/LongShort.sol:LongShort",
        "label": "tokenFactory",
        "offset": 0,
        "slot": "297",
        "type": "t_address"
      },
      {
        "astId": 10697,
        "contract": "contracts/LongShort.sol:LongShort",
        "label": "gems",
        "offset": 0,
        "slot": "298",
        "type": "t_address"
      },
      {
        "astId": 10701,
        "contract": "contracts/LongShort.sol:LongShort",
        "label": "__globalStateGap",
        "offset": 0,
        "slot": "299",
        "type": "t_array(t_uint256)45_storage"
      },
      {
        "astId": 10705,
        "contract": "contracts/LongShort.sol:LongShort",
        "label": "marketExists",
        "offset": 0,
        "slot": "344",
        "type": "t_mapping(t_uint32,t_bool)"
      },
      {
        "astId": 10709,
        "contract": "contracts/LongShort.sol:LongShort",
        "label": "assetPrice",
        "offset": 0,
        "slot": "345",
        "type": "t_mapping(t_uint32,t_int256)"
      },
      {
        "astId": 10714,
        "contract": "contracts/LongShort.sol:LongShort",
        "label": "marketUpdateIndex",
        "offset": 0,
        "slot": "346",
        "type": "t_mapping(t_uint32,t_uint256)"
      },
      {
        "astId": 10718,
        "contract": "contracts/LongShort.sol:LongShort",
        "label": "marketTreasurySplitGradient_e18",
        "offset": 0,
        "slot": "347",
        "type": "t_mapping(t_uint32,t_uint256)"
      },
      {
        "astId": 10722,
        "contract": "contracts/LongShort.sol:LongShort",
        "label": "marketLeverage_e18",
        "offset": 0,
        "slot": "348",
        "type": "t_mapping(t_uint32,t_uint256)"
      },
      {
        "astId": 10726,
        "contract": "contracts/LongShort.sol:LongShort",
        "label": "paymentTokens",
        "offset": 0,
        "slot": "349",
        "type": "t_mapping(t_uint32,t_address)"
      },
      {
        "astId": 10730,
        "contract": "contracts/LongShort.sol:LongShort",
        "label": "yieldManagers",
        "offset": 0,
        "slot": "350",
        "type": "t_mapping(t_uint32,t_address)"
      },
      {
        "astId": 10734,
        "contract": "contracts/LongShort.sol:LongShort",
        "label": "oracleManagers",
        "offset": 0,
        "slot": "351",
        "type": "t_mapping(t_uint32,t_address)"
      },
      {
        "astId": 10738,
        "contract": "contracts/LongShort.sol:LongShort",
        "label": "__marketStateGap",
        "offset": 0,
        "slot": "352",
        "type": "t_array(t_uint256)45_storage"
      },
      {
        "astId": 10745,
        "contract": "contracts/LongShort.sol:LongShort",
        "label": "syntheticTokens",
        "offset": 0,
        "slot": "397",
        "type": "t_mapping(t_uint32,t_mapping(t_bool,t_address))"
      },
      {
        "astId": 10752,
        "contract": "contracts/LongShort.sol:LongShort",
        "label": "marketSideValueInPaymentToken",
        "offset": 0,
        "slot": "398",
        "type": "t_mapping(t_uint32,t_mapping(t_bool,t_uint256))"
      },
      {
        "astId": 10762,
        "contract": "contracts/LongShort.sol:LongShort",
        "label": "syntheticToken_priceSnapshot",
        "offset": 0,
        "slot": "399",
        "type": "t_mapping(t_uint32,t_mapping(t_bool,t_mapping(t_uint256,t_uint256)))"
      },
      {
        "astId": 10768,
        "contract": "contracts/LongShort.sol:LongShort",
        "label": "batched_amountPaymentToken_deposit",
        "offset": 0,
        "slot": "400",
        "type": "t_mapping(t_uint32,t_mapping(t_bool,t_uint256))"
      },
      {
        "astId": 10774,
        "contract": "contracts/LongShort.sol:LongShort",
        "label": "batched_amountSyntheticToken_redeem",
        "offset": 0,
        "slot": "401",
        "type": "t_mapping(t_uint32,t_mapping(t_bool,t_uint256))"
      },
      {
        "astId": 10780,
        "contract": "contracts/LongShort.sol:LongShort",
        "label": "batched_amountSyntheticToken_toShiftAwayFrom_marketSide",
        "offset": 0,
        "slot": "402",
        "type": "t_mapping(t_uint32,t_mapping(t_bool,t_uint256))"
      },
      {
        "astId": 10784,
        "contract": "contracts/LongShort.sol:LongShort",
        "label": "__marketPositonStateGap",
        "offset": 0,
        "slot": "403",
        "type": "t_array(t_uint256)45_storage"
      },
      {
        "astId": 10790,
        "contract": "contracts/LongShort.sol:LongShort",
        "label": "userNextPrice_currentUpdateIndex",
        "offset": 0,
        "slot": "448",
        "type": "t_mapping(t_uint32,t_mapping(t_address,t_uint256))"
      },
      {
        "astId": 10798,
        "contract": "contracts/LongShort.sol:LongShort",
        "label": "userNextPrice_paymentToken_depositAmount",
        "offset": 0,
        "slot": "449",
        "type": "t_mapping(t_uint32,t_mapping(t_bool,t_mapping(t_address,t_uint256)))"
      },
      {
        "astId": 10806,
        "contract": "contracts/LongShort.sol:LongShort",
        "label": "userNextPrice_syntheticToken_redeemAmount",
        "offset": 0,
        "slot": "450",
        "type": "t_mapping(t_uint32,t_mapping(t_bool,t_mapping(t_address,t_uint256)))"
      },
      {
        "astId": 10814,
        "contract": "contracts/LongShort.sol:LongShort",
        "label": "userNextPrice_syntheticToken_toShiftAwayFrom_marketSide",
        "offset": 0,
        "slot": "451",
        "type": "t_mapping(t_uint32,t_mapping(t_bool,t_mapping(t_address,t_uint256)))"
      }
    ],
    "types": {
      "t_address": {
        "encoding": "inplace",
        "label": "address",
        "numberOfBytes": "20"
      },
      "t_array(t_uint256)45_storage": {
        "base": "t_uint256",
        "encoding": "inplace",
        "label": "uint256[45]",
        "numberOfBytes": "1440"
      },
      "t_array(t_uint256)49_storage": {
        "base": "t_uint256",
        "encoding": "inplace",
        "label": "uint256[49]",
        "numberOfBytes": "1568"
      },
      "t_array(t_uint256)50_storage": {
        "base": "t_uint256",
        "encoding": "inplace",
        "label": "uint256[50]",
        "numberOfBytes": "1600"
      },
      "t_bool": {
        "encoding": "inplace",
        "label": "bool",
        "numberOfBytes": "1"
      },
      "t_bytes32": {
        "encoding": "inplace",
        "label": "bytes32",
        "numberOfBytes": "32"
      },
      "t_int256": {
        "encoding": "inplace",
        "label": "int256",
        "numberOfBytes": "32"
      },
      "t_mapping(t_address,t_bool)": {
        "encoding": "mapping",
        "key": "t_address",
        "label": "mapping(address => bool)",
        "numberOfBytes": "32",
        "value": "t_bool"
      },
      "t_mapping(t_address,t_uint256)": {
        "encoding": "mapping",
        "key": "t_address",
        "label": "mapping(address => uint256)",
        "numberOfBytes": "32",
        "value": "t_uint256"
      },
      "t_mapping(t_bool,t_address)": {
        "encoding": "mapping",
        "key": "t_bool",
        "label": "mapping(bool => address)",
        "numberOfBytes": "32",
        "value": "t_address"
      },
      "t_mapping(t_bool,t_mapping(t_address,t_uint256))": {
        "encoding": "mapping",
        "key": "t_bool",
        "label": "mapping(bool => mapping(address => uint256))",
        "numberOfBytes": "32",
        "value": "t_mapping(t_address,t_uint256)"
      },
      "t_mapping(t_bool,t_mapping(t_uint256,t_uint256))": {
        "encoding": "mapping",
        "key": "t_bool",
        "label": "mapping(bool => mapping(uint256 => uint256))",
        "numberOfBytes": "32",
        "value": "t_mapping(t_uint256,t_uint256)"
      },
      "t_mapping(t_bool,t_uint256)": {
        "encoding": "mapping",
        "key": "t_bool",
        "label": "mapping(bool => uint256)",
        "numberOfBytes": "32",
        "value": "t_uint256"
      },
      "t_mapping(t_bytes32,t_struct(RoleData)299_storage)": {
        "encoding": "mapping",
        "key": "t_bytes32",
        "label": "mapping(bytes32 => struct AccessControlUpgradeable.RoleData)",
        "numberOfBytes": "32",
        "value": "t_struct(RoleData)299_storage"
      },
      "t_mapping(t_uint256,t_uint256)": {
        "encoding": "mapping",
        "key": "t_uint256",
        "label": "mapping(uint256 => uint256)",
        "numberOfBytes": "32",
        "value": "t_uint256"
      },
      "t_mapping(t_uint32,t_address)": {
        "encoding": "mapping",
        "key": "t_uint32",
        "label": "mapping(uint32 => address)",
        "numberOfBytes": "32",
        "value": "t_address"
      },
      "t_mapping(t_uint32,t_bool)": {
        "encoding": "mapping",
        "key": "t_uint32",
        "label": "mapping(uint32 => bool)",
        "numberOfBytes": "32",
        "value": "t_bool"
      },
      "t_mapping(t_uint32,t_int256)": {
        "encoding": "mapping",
        "key": "t_uint32",
        "label": "mapping(uint32 => int256)",
        "numberOfBytes": "32",
        "value": "t_int256"
      },
      "t_mapping(t_uint32,t_mapping(t_address,t_uint256))": {
        "encoding": "mapping",
        "key": "t_uint32",
        "label": "mapping(uint32 => mapping(address => uint256))",
        "numberOfBytes": "32",
        "value": "t_mapping(t_address,t_uint256)"
      },
      "t_mapping(t_uint32,t_mapping(t_bool,t_address))": {
        "encoding": "mapping",
        "key": "t_uint32",
        "label": "mapping(uint32 => mapping(bool => address))",
        "numberOfBytes": "32",
        "value": "t_mapping(t_bool,t_address)"
      },
      "t_mapping(t_uint32,t_mapping(t_bool,t_mapping(t_address,t_uint256)))": {
        "encoding": "mapping",
        "key": "t_uint32",
        "label": "mapping(uint32 => mapping(bool => mapping(address => uint256)))",
        "numberOfBytes": "32",
        "value": "t_mapping(t_bool,t_mapping(t_address,t_uint256))"
      },
      "t_mapping(t_uint32,t_mapping(t_bool,t_mapping(t_uint256,t_uint256)))": {
        "encoding": "mapping",
        "key": "t_uint32",
        "label": "mapping(uint32 => mapping(bool => mapping(uint256 => uint256)))",
        "numberOfBytes": "32",
        "value": "t_mapping(t_bool,t_mapping(t_uint256,t_uint256))"
      },
      "t_mapping(t_uint32,t_mapping(t_bool,t_uint256))": {
        "encoding": "mapping",
        "key": "t_uint32",
        "label": "mapping(uint32 => mapping(bool => uint256))",
        "numberOfBytes": "32",
        "value": "t_mapping(t_bool,t_uint256)"
      },
      "t_mapping(t_uint32,t_uint256)": {
        "encoding": "mapping",
        "key": "t_uint32",
        "label": "mapping(uint32 => uint256)",
        "numberOfBytes": "32",
        "value": "t_uint256"
      },
      "t_struct(RoleData)299_storage": {
        "encoding": "inplace",
        "label": "struct AccessControlUpgradeable.RoleData",
        "members": [
          {
            "astId": 296,
            "contract": "contracts/LongShort.sol:LongShort",
            "label": "members",
            "offset": 0,
            "slot": "0",
            "type": "t_mapping(t_address,t_bool)"
          },
          {
            "astId": 298,
            "contract": "contracts/LongShort.sol:LongShort",
            "label": "adminRole",
            "offset": 0,
            "slot": "1",
            "type": "t_bytes32"
          }
        ],
        "numberOfBytes": "64"
      },
      "t_uint256": {
        "encoding": "inplace",
        "label": "uint256",
        "numberOfBytes": "32"
      },
      "t_uint32": {
        "encoding": "inplace",
        "label": "uint32",
        "numberOfBytes": "4"
      }
    }
  }
}