{
  "address": "0x44F768829a4323781E4199AcB81E4bD7E63ADcd6",
  "abi": [
    {
      "inputs": [
        {
          "internalType": "address",
          "name": "_admin",
          "type": "address"
        },
        {
          "internalType": "address",
          "name": "_chainlinkOracle",
          "type": "address"
        },
        {
          "internalType": "address",
          "name": "_longShort",
          "type": "address"
        }
      ],
      "stateMutability": "nonpayable",
      "type": "constructor"
    },
    {
      "inputs": [],
      "name": "admin",
      "outputs": [
        {
          "internalType": "address",
          "name": "",
          "type": "address"
        }
      ],
      "stateMutability": "view",
      "type": "function"
    },
    {
      "inputs": [],
      "name": "chainlinkOracle",
      "outputs": [
        {
          "internalType": "contract AggregatorV3Interface",
          "name": "",
          "type": "address"
        }
      ],
      "stateMutability": "view",
      "type": "function"
    },
    {
      "inputs": [
        {
          "internalType": "address",
          "name": "_admin",
          "type": "address"
        }
      ],
      "name": "changeAdmin",
      "outputs": [],
      "stateMutability": "nonpayable",
      "type": "function"
    },
    {
      "inputs": [],
      "name": "getLatestPrice",
      "outputs": [
        {
          "internalType": "int256",
          "name": "",
          "type": "int256"
        }
      ],
      "stateMutability": "view",
      "type": "function"
    },
    {
      "inputs": [],
      "name": "oracleDecimals",
      "outputs": [
        {
          "internalType": "uint8",
          "name": "",
          "type": "uint8"
        }
      ],
      "stateMutability": "view",
      "type": "function"
    },
    {
      "inputs": [],
      "name": "updatePrice",
      "outputs": [
        {
          "internalType": "int256",
          "name": "",
          "type": "int256"
        }
      ],
      "stateMutability": "nonpayable",
      "type": "function"
    }
  ],
  "transactionHash": "0x11eaf4ce9e50d7aa8a10c5b01d791f22f5a254512f9db09cc45d7c6181ae9ee4",
  "args": [
    "0xcfcCB5e6b3882b7795eb1B1A9f18831A842d4eE0",
    "0xa8B05B6337040c0529919BDB51f6B40A684eb08C",
    "0x168a5d1217AEcd258b03018d5bF1A1677A07b733"
  ],
  "solcInputHash": "e055f3e939bd5b525ba3d4e23e36d894",
  "bytecode": "0x60a060405234801561001057600080fd5b506040516105df3803806105df83398101604081905261002f916101a3565b600080546001600160a01b038086166001600160a01b0319928316179092556001805492851692909116821790556040805163313ce56760e01b8152905185928592909163313ce567916004808201926020929091908290030181865afa15801561009e573d6000803e3d6000fd5b505050506040513d601f19601f820116820180604052508101906100c291906101e6565b600160146101000a81548160ff021916908360ff16021790555050506000600160009054906101000a90046001600160a01b03166001600160a01b031663feaf968c6040518163ffffffff1660e01b815260040160a060405180830381865afa158015610133573d6000803e3d6000fd5b505050506040513d601f19601f820116820180604052508101906101579190610227565b5050506080525050600380546001600160a01b0319166001600160a01b0392909216919091179055506102779050565b80516001600160a01b038116811461019e57600080fd5b919050565b6000806000606084860312156101b857600080fd5b6101c184610187565b92506101cf60208501610187565b91506101dd60408501610187565b90509250925092565b6000602082840312156101f857600080fd5b815160ff8116811461020957600080fd5b9392505050565b80516001600160501b038116811461019e57600080fd5b600080600080600060a0868803121561023f57600080fd5b61024886610210565b945060208601519350604086015192506060860151915061026b60808701610210565b90509295509295909350565b6080516103466102996000396000818161017e015261024301526103466000f3fe608060405234801561001057600080fd5b50600436106100625760003560e01c8063673a7e28146100675780638e15f473146100825780638f2839701461008a578063e68b52e71461009f578063ef06e72c146100c5578063f851a440146100f0575b600080fd5b61006f610103565b6040519081526020015b60405180910390f35b61006f6101a8565b61009d610098366004610267565b6101b7565b005b6001546100b390600160a01b900460ff1681565b60405160ff9091168152602001610079565b6001546100d8906001600160a01b031681565b6040516001600160a01b039091168152602001610079565b6000546100d8906001600160a01b031681565b6003546000906001600160a01b031633146101575760405162461bcd60e51b815260206004820152600f60248201526e13db9b1e481b1bdb99c81cda1bdc9d608a1b60448201526064015b60405180910390fd5b60028054906101678260016102ad565b61017191906102ee565b600281905590506101a2817f00000000000000000000000000000000000000000000000000000000000000006102ad565b91505090565b60006101b261021f565b905090565b6000546001600160a01b031633146101fd5760405162461bcd60e51b81526020600482015260096024820152682737ba1030b236b4b760b91b604482015260640161014e565b600080546001600160a01b0319166001600160a01b0392909216919091179055565b600280546000916102318260016102ad565b61023b91906102ee565b90506101a2817f00000000000000000000000000000000000000000000000000000000000000006102ad565b60006020828403121561027957600080fd5b81356001600160a01b038116811461029057600080fd5b9392505050565b634e487b7160e01b600052601160045260246000fd5b600080821280156001600160ff1b03849003851316156102cf576102cf610297565b600160ff1b83900384128116156102e8576102e8610297565b50500190565b60008261030b57634e487b7160e01b600052601260045260246000fd5b50079056fea2646970667358221220be118135517284329ddae03943f6c1bfe70d1d90a2b89c17ef635ebbaedac14264736f6c634300080a0033",
  "devdoc": {
    "kind": "dev",
    "methods": {},
    "version": 1
  },
  "userdoc": {
    "kind": "user",
    "methods": {
      "changeAdmin(address)": {
        "notice": "MULTISIG ADMIN FUNCTIONS ///////"
      }
    },
    "version": 1
  },
  "storageLayout": {
    "storage": [
      {
        "astId": 22687,
        "contract": "contracts/DeprecatedMarkets/DeprecatedOracleManagerChainlink.sol:DeprecatedOracleManagerChainlink",
        "label": "admin",
        "offset": 0,
        "slot": "0",
        "type": "t_address"
      },
      {
        "astId": 22690,
        "contract": "contracts/DeprecatedMarkets/DeprecatedOracleManagerChainlink.sol:DeprecatedOracleManagerChainlink",
        "label": "chainlinkOracle",
        "offset": 0,
        "slot": "1",
        "type": "t_contract(AggregatorV3Interface)45"
      },
      {
        "astId": 22692,
        "contract": "contracts/DeprecatedMarkets/DeprecatedOracleManagerChainlink.sol:DeprecatedOracleManagerChainlink",
        "label": "oracleDecimals",
        "offset": 20,
        "slot": "1",
        "type": "t_uint8"
      },
      {
        "astId": 12567,
        "contract": "contracts/DeprecatedMarkets/DeprecatedOracleManagerChainlink.sol:DeprecatedOracleManagerChainlink",
        "label": "forcedPriceAdjustment",
        "offset": 0,
        "slot": "2",
        "type": "t_int256"
      },
      {
        "astId": 12571,
        "contract": "contracts/DeprecatedMarkets/DeprecatedOracleManagerChainlink.sol:DeprecatedOracleManagerChainlink",
        "label": "longShort",
        "offset": 0,
        "slot": "3",
        "type": "t_address"
      }
    ],
    "types": {
      "t_address": {
        "encoding": "inplace",
        "label": "address",
        "numberOfBytes": "20"
      },
      "t_contract(AggregatorV3Interface)45": {
        "encoding": "inplace",
        "label": "contract AggregatorV3Interface",
        "numberOfBytes": "20"
      },
      "t_int256": {
        "encoding": "inplace",
        "label": "int256",
        "numberOfBytes": "32"
      },
      "t_uint8": {
        "encoding": "inplace",
        "label": "uint8",
        "numberOfBytes": "1"
      }
    }
  }
}