{
  "address": "0x14FaF67A0c01b114e1232d2a9fCc07A7A3856F7A",
  "abi": [
    {
      "inputs": [
        {
          "internalType": "address",
          "name": "_admin",
          "type": "address"
        },
        {
          "internalType": "address",
          "name": "_chainlinkOracle",
          "type": "address"
        }
      ],
      "stateMutability": "nonpayable",
      "type": "constructor"
    },
    {
      "inputs": [],
      "name": "admin",
      "outputs": [
        {
          "internalType": "address",
          "name": "",
          "type": "address"
        }
      ],
      "stateMutability": "view",
      "type": "function"
    },
    {
      "inputs": [],
      "name": "chainlinkOracle",
      "outputs": [
        {
          "internalType": "contract AggregatorV3Interface",
          "name": "",
          "type": "address"
        }
      ],
      "stateMutability": "view",
      "type": "function"
    },
    {
      "inputs": [
        {
          "internalType": "address",
          "name": "_admin",
          "type": "address"
        }
      ],
      "name": "changeAdmin",
      "outputs": [],
      "stateMutability": "nonpayable",
      "type": "function"
    },
    {
      "inputs": [],
      "name": "getLatestPrice",
      "outputs": [
        {
          "internalType": "int256",
          "name": "",
          "type": "int256"
        }
      ],
      "stateMutability": "view",
      "type": "function"
    },
    {
      "inputs": [],
      "name": "oracleDecimals",
      "outputs": [
        {
          "internalType": "uint8",
          "name": "",
          "type": "uint8"
        }
      ],
      "stateMutability": "view",
      "type": "function"
    },
    {
      "inputs": [],
      "name": "updatePrice",
      "outputs": [
        {
          "internalType": "int256",
          "name": "",
          "type": "int256"
        }
      ],
      "stateMutability": "nonpayable",
      "type": "function"
    }
  ],
  "transactionHash": "0x2b11b32ece9034a129b43d70154283c6321fa26fc17ba7afbf0e8c96c0c208e1",
  "args": [
    "0xcfcCB5e6b3882b7795eb1B1A9f18831A842d4eE0",
    "0x9c371aE34509590E10aB98205d2dF5936A1aD875"
  ],
  "solcInputHash": "15ab81cb20e7891192b21b6e8ceb30f6",
  "bytecode": "0x608060405234801561001057600080fd5b5060405161043538038061043583398101604081905261002f916100f9565b600080546001600160a01b038085166001600160a01b0319928316179092556001805492841692909116821790556040805163313ce56760e01b8152905163313ce567916004808201926020929091908290030181865afa158015610098573d6000803e3d6000fd5b505050506040513d601f19601f820116820180604052508101906100bc919061012c565b600160146101000a81548160ff021916908360ff1602179055505050610156565b80516001600160a01b03811681146100f457600080fd5b919050565b6000806040838503121561010c57600080fd5b610115836100dd565b9150610123602084016100dd565b90509250929050565b60006020828403121561013e57600080fd5b815160ff8116811461014f57600080fd5b9392505050565b6102d0806101656000396000f3fe608060405234801561001057600080fd5b50600436106100625760003560e01c8063673a7e28146100675780638e15f473146100675780638f28397014610082578063e68b52e714610097578063ef06e72c146100bd578063f851a440146100e8575b600080fd5b61006f6100fb565b6040519081526020015b60405180910390f35b6100956100903660046101fb565b61010a565b005b6001546100ab90600160a01b900460ff1681565b60405160ff9091168152602001610079565b6001546100d0906001600160a01b031681565b6040516001600160a01b039091168152602001610079565b6000546100d0906001600160a01b031681565b6000610105610176565b905090565b6000546001600160a01b031633146101545760405162461bcd60e51b81526020600482015260096024820152682737ba1030b236b4b760b91b604482015260640160405180910390fd5b600080546001600160a01b0319166001600160a01b0392909216919091179055565b600080600160009054906101000a90046001600160a01b03166001600160a01b031663feaf968c6040518163ffffffff1660e01b815260040160a060405180830381865afa1580156101cc573d6000803e3d6000fd5b505050506040513d601f19601f820116820180604052508101906101f0919061024a565b509195945050505050565b60006020828403121561020d57600080fd5b81356001600160a01b038116811461022457600080fd5b9392505050565b805169ffffffffffffffffffff8116811461024557600080fd5b919050565b600080600080600060a0868803121561026257600080fd5b61026b8661022b565b945060208601519350604086015192506060860151915061028e6080870161022b565b9050929550929590935056fea2646970667358221220f06ce7577f2a2525750b328eba95a1c7fc10dfe5ea2cdeb26fb1e059af7845bf64736f6c634300080a0033",
  "devdoc": {
    "kind": "dev",
    "methods": {},
    "version": 1
  },
  "userdoc": {
    "kind": "user",
    "methods": {
      "changeAdmin(address)": {
        "notice": "MULTISIG ADMIN FUNCTIONS ///////"
      }
    },
    "version": 1
  },
  "storageLayout": {
    "storage": [
      {
        "astId": 24423,
        "contract": "contracts/oracles/OracleManagerChainlink.sol:OracleManagerChainlink",
        "label": "admin",
        "offset": 0,
        "slot": "0",
        "type": "t_address"
      },
      {
        "astId": 24426,
        "contract": "contracts/oracles/OracleManagerChainlink.sol:OracleManagerChainlink",
        "label": "chainlinkOracle",
        "offset": 0,
        "slot": "1",
        "type": "t_contract(AggregatorV3Interface)45"
      },
      {
        "astId": 24428,
        "contract": "contracts/oracles/OracleManagerChainlink.sol:OracleManagerChainlink",
        "label": "oracleDecimals",
        "offset": 20,
        "slot": "1",
        "type": "t_uint8"
      }
    ],
    "types": {
      "t_address": {
        "encoding": "inplace",
        "label": "address",
        "numberOfBytes": "20"
      },
      "t_contract(AggregatorV3Interface)45": {
        "encoding": "inplace",
        "label": "contract AggregatorV3Interface",
        "numberOfBytes": "20"
      },
      "t_uint8": {
        "encoding": "inplace",
        "label": "uint8",
        "numberOfBytes": "1"
      }
    }
  }
}