{
  "address": "0x76b4d80058181c8D18D9cda47e9328f0f2b14922",
  "abi": [
    {
      "anonymous": false,
      "inputs": [
        {
          "indexed": false,
          "internalType": "address",
          "name": "previousAdmin",
          "type": "address"
        },
        {
          "indexed": false,
          "internalType": "address",
          "name": "newAdmin",
          "type": "address"
        }
      ],
      "name": "AdminChanged",
      "type": "event"
    },
    {
      "anonymous": false,
      "inputs": [
        {
          "indexed": true,
          "internalType": "address",
          "name": "owner",
          "type": "address"
        },
        {
          "indexed": true,
          "internalType": "address",
          "name": "spender",
          "type": "address"
        },
        {
          "indexed": false,
          "internalType": "uint256",
          "name": "value",
          "type": "uint256"
        }
      ],
      "name": "Approval",
      "type": "event"
    },
    {
      "anonymous": false,
      "inputs": [
        {
          "indexed": true,
          "internalType": "address",
          "name": "beacon",
          "type": "address"
        }
      ],
      "name": "BeaconUpgraded",
      "type": "event"
    },
    {
      "anonymous": false,
      "inputs": [
        {
          "indexed": true,
          "internalType": "bytes32",
          "name": "role",
          "type": "bytes32"
        },
        {
          "indexed": true,
          "internalType": "bytes32",
          "name": "previousAdminRole",
          "type": "bytes32"
        },
        {
          "indexed": true,
          "internalType": "bytes32",
          "name": "newAdminRole",
          "type": "bytes32"
        }
      ],
      "name": "RoleAdminChanged",
      "type": "event"
    },
    {
      "anonymous": false,
      "inputs": [
        {
          "indexed": true,
          "internalType": "bytes32",
          "name": "role",
          "type": "bytes32"
        },
        {
          "indexed": true,
          "internalType": "address",
          "name": "account",
          "type": "address"
        },
        {
          "indexed": true,
          "internalType": "address",
          "name": "sender",
          "type": "address"
        }
      ],
      "name": "RoleGranted",
      "type": "event"
    },
    {
      "anonymous": false,
      "inputs": [
        {
          "indexed": true,
          "internalType": "bytes32",
          "name": "role",
          "type": "bytes32"
        },
        {
          "indexed": true,
          "internalType": "address",
          "name": "account",
          "type": "address"
        },
        {
          "indexed": true,
          "internalType": "address",
          "name": "sender",
          "type": "address"
        }
      ],
      "name": "RoleRevoked",
      "type": "event"
    },
    {
      "anonymous": false,
      "inputs": [
        {
          "indexed": true,
          "internalType": "address",
          "name": "from",
          "type": "address"
        },
        {
          "indexed": true,
          "internalType": "address",
          "name": "to",
          "type": "address"
        },
        {
          "indexed": false,
          "internalType": "uint256",
          "name": "value",
          "type": "uint256"
        }
      ],
      "name": "Transfer",
      "type": "event"
    },
    {
      "anonymous": false,
      "inputs": [
        {
          "indexed": true,
          "internalType": "address",
          "name": "implementation",
          "type": "address"
        }
      ],
      "name": "Upgraded",
      "type": "event"
    },
    {
      "inputs": [],
      "name": "DEFAULT_ADMIN_ROLE",
      "outputs": [
        {
          "internalType": "bytes32",
          "name": "",
          "type": "bytes32"
        }
      ],
      "stateMutability": "view",
      "type": "function"
    },
    {
      "inputs": [],
      "name": "DOMAIN_SEPARATOR",
      "outputs": [
        {
          "internalType": "bytes32",
          "name": "",
          "type": "bytes32"
        }
      ],
      "stateMutability": "view",
      "type": "function"
    },
    {
      "inputs": [],
      "name": "MINTER_ROLE",
      "outputs": [
        {
          "internalType": "bytes32",
          "name": "",
          "type": "bytes32"
        }
      ],
      "stateMutability": "view",
      "type": "function"
    },
    {
      "inputs": [],
      "name": "UPGRADER_ROLE",
      "outputs": [
        {
          "internalType": "bytes32",
          "name": "",
          "type": "bytes32"
        }
      ],
      "stateMutability": "view",
      "type": "function"
    },
    {
      "inputs": [
        {
          "internalType": "address",
          "name": "owner",
          "type": "address"
        },
        {
          "internalType": "address",
          "name": "spender",
          "type": "address"
        }
      ],
      "name": "allowance",
      "outputs": [
        {
          "internalType": "uint256",
          "name": "",
          "type": "uint256"
        }
      ],
      "stateMutability": "view",
      "type": "function"
    },
    {
      "inputs": [
        {
          "internalType": "address",
          "name": "spender",
          "type": "address"
        },
        {
          "internalType": "uint256",
          "name": "amount",
          "type": "uint256"
        }
      ],
      "name": "approve",
      "outputs": [
        {
          "internalType": "bool",
          "name": "",
          "type": "bool"
        }
      ],
      "stateMutability": "nonpayable",
      "type": "function"
    },
    {
      "inputs": [
        {
          "internalType": "address",
          "name": "account",
          "type": "address"
        }
      ],
      "name": "balanceOf",
      "outputs": [
        {
          "internalType": "uint256",
          "name": "",
          "type": "uint256"
        }
      ],
      "stateMutability": "view",
      "type": "function"
    },
    {
      "inputs": [
        {
          "internalType": "uint256",
          "name": "amount",
          "type": "uint256"
        }
      ],
      "name": "burn",
      "outputs": [],
      "stateMutability": "nonpayable",
      "type": "function"
    },
    {
      "inputs": [
        {
          "internalType": "address",
          "name": "account",
          "type": "address"
        },
        {
          "internalType": "uint256",
          "name": "amount",
          "type": "uint256"
        }
      ],
      "name": "burnFrom",
      "outputs": [],
      "stateMutability": "nonpayable",
      "type": "function"
    },
    {
      "inputs": [],
      "name": "decimals",
      "outputs": [
        {
          "internalType": "uint8",
          "name": "",
          "type": "uint8"
        }
      ],
      "stateMutability": "view",
      "type": "function"
    },
    {
      "inputs": [
        {
          "internalType": "address",
          "name": "spender",
          "type": "address"
        },
        {
          "internalType": "uint256",
          "name": "subtractedValue",
          "type": "uint256"
        }
      ],
      "name": "decreaseAllowance",
      "outputs": [
        {
          "internalType": "bool",
          "name": "",
          "type": "bool"
        }
      ],
      "stateMutability": "nonpayable",
      "type": "function"
    },
    {
      "inputs": [
        {
          "internalType": "bytes32",
          "name": "role",
          "type": "bytes32"
        }
      ],
      "name": "getRoleAdmin",
      "outputs": [
        {
          "internalType": "bytes32",
          "name": "",
          "type": "bytes32"
        }
      ],
      "stateMutability": "view",
      "type": "function"
    },
    {
      "inputs": [
        {
          "internalType": "bytes32",
          "name": "role",
          "type": "bytes32"
        },
        {
          "internalType": "address",
          "name": "account",
          "type": "address"
        }
      ],
      "name": "grantRole",
      "outputs": [],
      "stateMutability": "nonpayable",
      "type": "function"
    },
    {
      "inputs": [
        {
          "internalType": "bytes32",
          "name": "role",
          "type": "bytes32"
        },
        {
          "internalType": "address",
          "name": "account",
          "type": "address"
        }
      ],
      "name": "hasRole",
      "outputs": [
        {
          "internalType": "bool",
          "name": "",
          "type": "bool"
        }
      ],
      "stateMutability": "view",
      "type": "function"
    },
    {
      "inputs": [
        {
          "internalType": "address",
          "name": "spender",
          "type": "address"
        },
        {
          "internalType": "uint256",
          "name": "addedValue",
          "type": "uint256"
        }
      ],
      "name": "increaseAllowance",
      "outputs": [
        {
          "internalType": "bool",
          "name": "",
          "type": "bool"
        }
      ],
      "stateMutability": "nonpayable",
      "type": "function"
    },
    {
      "inputs": [
        {
          "internalType": "string",
          "name": "name",
          "type": "string"
        },
        {
          "internalType": "string",
          "name": "symbol",
          "type": "string"
        },
        {
          "internalType": "address",
          "name": "_longShort",
          "type": "address"
        },
        {
          "internalType": "address",
          "name": "_staker",
          "type": "address"
        },
        {
          "internalType": "uint32",
          "name": "_marketIndex",
          "type": "uint32"
        },
        {
          "internalType": "bool",
          "name": "_isLong",
          "type": "bool"
        }
      ],
      "name": "initialize",
      "outputs": [],
      "stateMutability": "nonpayable",
      "type": "function"
    },
    {
      "inputs": [],
      "name": "isLong",
      "outputs": [
        {
          "internalType": "bool",
          "name": "",
          "type": "bool"
        }
      ],
      "stateMutability": "view",
      "type": "function"
    },
    {
      "inputs": [],
      "name": "longShort",
      "outputs": [
        {
          "internalType": "address",
          "name": "",
          "type": "address"
        }
      ],
      "stateMutability": "view",
      "type": "function"
    },
    {
      "inputs": [],
      "name": "marketIndex",
      "outputs": [
        {
          "internalType": "uint32",
          "name": "",
          "type": "uint32"
        }
      ],
      "stateMutability": "view",
      "type": "function"
    },
    {
      "inputs": [
        {
          "internalType": "address",
          "name": "to",
          "type": "address"
        },
        {
          "internalType": "uint256",
          "name": "amount",
          "type": "uint256"
        }
      ],
      "name": "mint",
      "outputs": [],
      "stateMutability": "nonpayable",
      "type": "function"
    },
    {
      "inputs": [],
      "name": "name",
      "outputs": [
        {
          "internalType": "string",
          "name": "",
          "type": "string"
        }
      ],
      "stateMutability": "view",
      "type": "function"
    },
    {
      "inputs": [
        {
          "internalType": "address",
          "name": "owner",
          "type": "address"
        }
      ],
      "name": "nonces",
      "outputs": [
        {
          "internalType": "uint256",
          "name": "",
          "type": "uint256"
        }
      ],
      "stateMutability": "view",
      "type": "function"
    },
    {
      "inputs": [
        {
          "internalType": "address",
          "name": "owner",
          "type": "address"
        },
        {
          "internalType": "address",
          "name": "spender",
          "type": "address"
        },
        {
          "internalType": "uint256",
          "name": "value",
          "type": "uint256"
        },
        {
          "internalType": "uint256",
          "name": "deadline",
          "type": "uint256"
        },
        {
          "internalType": "uint8",
          "name": "v",
          "type": "uint8"
        },
        {
          "internalType": "bytes32",
          "name": "r",
          "type": "bytes32"
        },
        {
          "internalType": "bytes32",
          "name": "s",
          "type": "bytes32"
        }
      ],
      "name": "permit",
      "outputs": [],
      "stateMutability": "nonpayable",
      "type": "function"
    },
    {
      "inputs": [
        {
          "internalType": "bytes32",
          "name": "role",
          "type": "bytes32"
        },
        {
          "internalType": "address",
          "name": "account",
          "type": "address"
        }
      ],
      "name": "renounceRole",
      "outputs": [],
      "stateMutability": "nonpayable",
      "type": "function"
    },
    {
      "inputs": [
        {
          "internalType": "bytes32",
          "name": "role",
          "type": "bytes32"
        },
        {
          "internalType": "address",
          "name": "account",
          "type": "address"
        }
      ],
      "name": "revokeRole",
      "outputs": [],
      "stateMutability": "nonpayable",
      "type": "function"
    },
    {
      "inputs": [
        {
          "internalType": "uint256",
          "name": "amount",
          "type": "uint256"
        }
      ],
      "name": "stake",
      "outputs": [],
      "stateMutability": "nonpayable",
      "type": "function"
    },
    {
      "inputs": [],
      "name": "staker",
      "outputs": [
        {
          "internalType": "address",
          "name": "",
          "type": "address"
        }
      ],
      "stateMutability": "view",
      "type": "function"
    },
    {
      "inputs": [
        {
          "internalType": "bytes4",
          "name": "interfaceId",
          "type": "bytes4"
        }
      ],
      "name": "supportsInterface",
      "outputs": [
        {
          "internalType": "bool",
          "name": "",
          "type": "bool"
        }
      ],
      "stateMutability": "view",
      "type": "function"
    },
    {
      "inputs": [],
      "name": "symbol",
      "outputs": [
        {
          "internalType": "string",
          "name": "",
          "type": "string"
        }
      ],
      "stateMutability": "view",
      "type": "function"
    },
    {
      "inputs": [],
      "name": "totalSupply",
      "outputs": [
        {
          "internalType": "uint256",
          "name": "",
          "type": "uint256"
        }
      ],
      "stateMutability": "view",
      "type": "function"
    },
    {
      "inputs": [
        {
          "internalType": "address",
          "name": "recipient",
          "type": "address"
        },
        {
          "internalType": "uint256",
          "name": "amount",
          "type": "uint256"
        }
      ],
      "name": "transfer",
      "outputs": [
        {
          "internalType": "bool",
          "name": "",
          "type": "bool"
        }
      ],
      "stateMutability": "nonpayable",
      "type": "function"
    },
    {
      "inputs": [
        {
          "internalType": "address",
          "name": "sender",
          "type": "address"
        },
        {
          "internalType": "address",
          "name": "recipient",
          "type": "address"
        },
        {
          "internalType": "uint256",
          "name": "amount",
          "type": "uint256"
        }
      ],
      "name": "transferFrom",
      "outputs": [
        {
          "internalType": "bool",
          "name": "",
          "type": "bool"
        }
      ],
      "stateMutability": "nonpayable",
      "type": "function"
    },
    {
      "inputs": [
        {
          "internalType": "address",
          "name": "newImplementation",
          "type": "address"
        }
      ],
      "name": "upgradeTo",
      "outputs": [],
      "stateMutability": "nonpayable",
      "type": "function"
    },
    {
      "inputs": [
        {
          "internalType": "address",
          "name": "newImplementation",
          "type": "address"
        },
        {
          "internalType": "bytes",
          "name": "data",
          "type": "bytes"
        }
      ],
      "name": "upgradeToAndCall",
      "outputs": [],
      "stateMutability": "payable",
      "type": "function"
    }
  ],
  "transactionHash": "0xc665be3aa75d2e66003ef76d6c9d46b5ed07f2b62c77403db5ecdb2fc0777bc1",
  "args": [],
  "solcInputHash": "15ab81cb20e7891192b21b6e8ceb30f6",
  "bytecode": "0x60a06040523060805234801561001457600080fd5b50608051612cc5610045600039600081816108b5015281816108f501528181610a420152610a820152612cc56000f3fe6080604052600436106101f95760003560e01c80635ebaf1db1161010d578063a457c2d7116100a0578063d505accf1161006f578063d505accf146105ce578063d5391393146105ee578063d547741f14610610578063dd62ed3e14610630578063f72c0d8b1461067657600080fd5b8063a457c2d71461054e578063a694fc3a1461056e578063a9059cbb1461058e578063aa432dad146105ae57600080fd5b80638c7adc15116100dc5780638c7adc15146104ca57806391d148541461050457806395d89b4114610524578063a217fddf1461053957600080fd5b80635ebaf1db1461044957806370a082311461046a57806379cc67901461048a5780637ecebe00146104aa57600080fd5b80632f2ff15d116101905780633659cfe61161015f5780633659cfe6146103b657806339509351146103d657806340c10f19146103f657806342966c68146104165780634f1ef2861461043657600080fd5b80632f2ff15d14610343578063313ce567146103655780633644e5151461038157806336568abe1461039657600080fd5b8063202a61a1116101cc578063202a61a11461029857806323b872dd146102ba578063248a9ca3146102da578063299498721461030a57600080fd5b806301ffc9a7146101fe57806306fdde0314610233578063095ea7b31461025557806318160ddd14610275575b600080fd5b34801561020a57600080fd5b5061021e61021936600461260d565b6106aa565b60405190151581526020015b60405180910390f35b34801561023f57600080fd5b506102486106e1565b60405161022a9190612663565b34801561026157600080fd5b5061021e6102703660046126b2565b610773565b34801561028157600080fd5b5061028a610789565b60405190815260200161022a565b3480156102a457600080fd5b506101c75461021e90600160c01b900460ff1681565b3480156102c657600080fd5b5061021e6102d53660046126dc565b610799565b3480156102e657600080fd5b5061028a6102f5366004612718565b600090815260c9602052604090206001015490565b34801561031657600080fd5b506101c65461032b906001600160a01b031681565b6040516001600160a01b03909116815260200161022a565b34801561034f57600080fd5b5061036361035e366004612731565b6107f2565b005b34801561037157600080fd5b506040516012815260200161022a565b34801561038d57600080fd5b5061028a61081d565b3480156103a257600080fd5b506103636103b1366004612731565b610827565b3480156103c257600080fd5b506103636103d136600461275d565b6108aa565b3480156103e257600080fd5b5061021e6103f13660046126b2565b610973565b34801561040257600080fd5b506103636104113660046126b2565b6109af565b34801561042257600080fd5b50610363610431366004612718565b6109d2565b610363610444366004612804565b610a37565b34801561045557600080fd5b506101c75461032b906001600160a01b031681565b34801561047657600080fd5b5061028a61048536600461275d565b610aed565b34801561049657600080fd5b506103636104a53660046126b2565b610bab565b3480156104b657600080fd5b5061028a6104c536600461275d565b610c2c565b3480156104d657600080fd5b506101c7546104ef90600160a01b900463ffffffff1681565b60405163ffffffff909116815260200161022a565b34801561051057600080fd5b5061021e61051f366004612731565b610c4b565b34801561053057600080fd5b50610248610c76565b34801561054557600080fd5b5061028a600081565b34801561055a57600080fd5b5061021e6105693660046126b2565b610c85565b34801561057a57600080fd5b50610363610589366004612718565b610d1e565b34801561059a57600080fd5b5061021e6105a93660046126b2565b610d9f565b3480156105ba57600080fd5b506103636105c9366004612886565b610dab565b3480156105da57600080fd5b506103636105e936600461293f565b610f12565b3480156105fa57600080fd5b5061028a600080516020612c7083398151915281565b34801561061c57600080fd5b5061036361062b366004612731565b611059565b34801561063c57600080fd5b5061028a61064b3660046129b2565b6001600160a01b03918216600090815260346020908152604080832093909416825291909152205490565b34801561068257600080fd5b5061028a7f189ab7a9244df0848122154315af71fe140f3db0fe014031783b0946b8c9d2e381565b60006001600160e01b03198216637965db0b60e01b14806106db57506301ffc9a760e01b6001600160e01b03198316145b92915050565b6060603680546106f0906129dc565b80601f016020809104026020016040519081016040528092919081815260200182805461071c906129dc565b80156107695780601f1061073e57610100808354040283529160200191610769565b820191906000526020600020905b81548152906001019060200180831161074c57829003601f168201915b5050505050905090565b600061078033848461107f565b50600192915050565b600061079460355490565b905090565b6101c6546000906001600160a01b0384811691161480156107c557506101c6546001600160a01b031633145b156107dd576107d58484846111a3565b5060016107eb565b6107e884848461137e565b90505b9392505050565b600082815260c9602052604090206001015461080e8133611428565b610818838361148c565b505050565b6000610794611512565b6001600160a01b038116331461089c5760405162461bcd60e51b815260206004820152602f60248201527f416363657373436f6e74726f6c3a2063616e206f6e6c792072656e6f756e636560448201526e103937b632b9903337b91039b2b63360891b60648201526084015b60405180910390fd5b6108a6828261158d565b5050565b306001600160a01b037f00000000000000000000000000000000000000000000000000000000000000001614156108f35760405162461bcd60e51b815260040161089390612a11565b7f00000000000000000000000000000000000000000000000000000000000000006001600160a01b03166109256115f4565b6001600160a01b03161461094b5760405162461bcd60e51b815260040161089390612a5d565b61095481611622565b604080516000808252602082019092526109709183919061164d565b50565b3360008181526034602090815260408083206001600160a01b038716845290915281205490916107809185906109aa908690612abf565b61107f565b600080516020612c708339815191526109c88133611428565b6108188383611791565b6101c6546001600160a01b03163314610a2d5760405162461bcd60e51b815260206004820152601760248201527f4f6e6c79204c6f6e6753686f727420636f6e74726163740000000000000000006044820152606401610893565b610970338261187c565b306001600160a01b037f0000000000000000000000000000000000000000000000000000000000000000161415610a805760405162461bcd60e51b815260040161089390612a11565b7f00000000000000000000000000000000000000000000000000000000000000006001600160a01b0316610ab26115f4565b6001600160a01b031614610ad85760405162461bcd60e51b815260040161089390612a5d565b610ae182611622565b6108a68282600161164d565b6101c6546101c75460405163f68a327f60e01b81526001600160a01b038481166004830152600160a01b830463ffffffff166024830152600160c01b90920460ff1615156044820152600092919091169063f68a327f90606401602060405180830381865afa158015610b64573d6000803e3d6000fd5b505050506040513d601f19601f82011682018060405250810190610b889190612ad7565b6001600160a01b0383166000908152603360205260409020546106db9190612abf565b6000610bb7833361064b565b905081811015610c155760405162461bcd60e51b8152602060048201526024808201527f45524332303a206275726e20616d6f756e74206578636565647320616c6c6f77604482015263616e636560e01b6064820152608401610893565b610c22833384840361107f565b610818838361187c565b6001600160a01b038116600090815261012f60205260408120546106db565b600091825260c9602090815260408084206001600160a01b0393909316845291905290205460ff1690565b6060603780546106f0906129dc565b3360009081526034602090815260408083206001600160a01b038616845290915281205482811015610d075760405162461bcd60e51b815260206004820152602560248201527f45524332303a2064656372656173656420616c6c6f77616e63652062656c6f77604482015264207a65726f60d81b6064820152608401610893565b610d14338585840361107f565b5060019392505050565b6101c754610d379033906001600160a01b0316836111a3565b6101c7546040516373479edf60e11b8152336004820152602481018390526001600160a01b039091169063e68f3dbe90604401600060405180830381600087803b158015610d8457600080fd5b505af1158015610d98573d6000803e3d6000fd5b5050505050565b60006107eb83836119d6565b600054610100900460ff1680610dc4575060005460ff16155b610de05760405162461bcd60e51b815260040161089390612af0565b600054610100900460ff16158015610e02576000805461ffff19166101011790555b610e0c87876119e3565b610e14611a62565b610e1c611add565b610e2587611b3c565b610e2d611a62565b610e38600033610827565b610e50600080516020612c7083398151915233610827565b610e5b600086611bdc565b610e73600080516020612c7083398151915286611bdc565b610e9d7f189ab7a9244df0848122154315af71fe140f3db0fe014031783b0946b8c9d2e333611bdc565b6101c680546001600160a01b0319166001600160a01b03878116919091179091556101c780549186166001600160c01b031990921691909117600160a01b63ffffffff8616021760ff60c01b1916600160c01b841515021790558015610f09576000805461ff00191690555b50505050505050565b83421115610f625760405162461bcd60e51b815260206004820152601d60248201527f45524332305065726d69743a206578706972656420646561646c696e650000006044820152606401610893565b600061013054888888610f748c611be6565b6040805160208101969096526001600160a01b0394851690860152929091166060840152608083015260a082015260c0810186905260e0016040516020818303038152906040528051906020012090506000610fcf82611c0f565b90506000610fdf82878787611c5d565b9050896001600160a01b0316816001600160a01b0316146110425760405162461bcd60e51b815260206004820152601e60248201527f45524332305065726d69743a20696e76616c6964207369676e617475726500006044820152606401610893565b61104d8a8a8a61107f565b50505050505050505050565b600082815260c960205260409020600101546110758133611428565b610818838361158d565b6001600160a01b0383166110e15760405162461bcd60e51b8152602060048201526024808201527f45524332303a20617070726f76652066726f6d20746865207a65726f206164646044820152637265737360e01b6064820152608401610893565b6001600160a01b0382166111425760405162461bcd60e51b815260206004820152602260248201527f45524332303a20617070726f766520746f20746865207a65726f206164647265604482015261737360f01b6064820152608401610893565b6001600160a01b0383811660008181526034602090815260408083209487168084529482529182902085905590518481527f8c5be1e5ebec7d5bd14f71427d1e84f3dd0314c0f7b2291e5b200ac8c7c3b925910160405180910390a3505050565b6001600160a01b0383166112075760405162461bcd60e51b815260206004820152602560248201527f45524332303a207472616e736665722066726f6d20746865207a65726f206164604482015264647265737360d81b6064820152608401610893565b6001600160a01b0382166112695760405162461bcd60e51b815260206004820152602360248201527f45524332303a207472616e7366657220746f20746865207a65726f206164647260448201526265737360e81b6064820152608401610893565b611274838383611c85565b6001600160a01b038316600090815260336020526040902054818110156112ec5760405162461bcd60e51b815260206004820152602660248201527f45524332303a207472616e7366657220616d6f756e7420657863656564732062604482015265616c616e636560d01b6064820152608401610893565b6001600160a01b03808516600090815260336020526040808220858503905591851681529081208054849290611323908490612abf565b92505081905550826001600160a01b0316846001600160a01b03167fddf252ad1be2c89b69c2b068fc378daa952ba7f163c4a11628f55a4df523b3ef8460405161136f91815260200190565b60405180910390a35b50505050565b600061138b8484846111a3565b6001600160a01b0384166000908152603460209081526040808320338452909152902054828110156114105760405162461bcd60e51b815260206004820152602860248201527f45524332303a207472616e7366657220616d6f756e74206578636565647320616044820152676c6c6f77616e636560c01b6064820152608401610893565b61141d853385840361107f565b506001949350505050565b6114328282610c4b565b6108a65761144a816001600160a01b03166014611d0d565b611455836020611d0d565b604051602001611466929190612b3e565b60408051601f198184030181529082905262461bcd60e51b825261089391600401612663565b6114968282610c4b565b6108a657600082815260c9602090815260408083206001600160a01b03851684529091529020805460ff191660011790556114ce3390565b6001600160a01b0316816001600160a01b0316837f2f8788117e7eff1d82e926ec794901d17c78024a50270940304540a733656f0d60405160405180910390a45050565b60006107947f8b73c3c69bb8fe3d512ecc4cf759cc79239f7b179b0ffacaa9a75d522b39400f61154160fb5490565b60fc546040805160208101859052908101839052606081018290524660808201523060a082015260009060c0016040516020818303038152906040528051906020012090509392505050565b6115978282610c4b565b156108a657600082815260c9602090815260408083206001600160a01b0385168085529252808320805460ff1916905551339285917ff6391f5c32d9c69d2a47ea670b442974b53935d1edc7fd64eb21e047a839171b9190a45050565b7f360894a13ba1a3210667c828492db98dca3e2076cc3735a920a3ca505d382bbc546001600160a01b031690565b7f189ab7a9244df0848122154315af71fe140f3db0fe014031783b0946b8c9d2e36108a68133611428565b60006116576115f4565b905061166284611ea9565b60008351118061166f5750815b156116805761167e8484611f4e565b505b7f4910fdfa16fed3260ed0e7147f7cc6da11a60208b5b9406d12a635614ffd9143805460ff16610d9857805460ff191660011781556040516001600160a01b03831660248201526116ff90869060440160408051601f198184030181529190526020810180516001600160e01b0316631b2ce7f360e11b179052611f4e565b50805460ff191681556117106115f4565b6001600160a01b0316826001600160a01b0316146117885760405162461bcd60e51b815260206004820152602f60248201527f45524331393637557067726164653a207570677261646520627265616b73206660448201526e75727468657220757067726164657360881b6064820152608401610893565b610d9885612039565b6001600160a01b0382166117e75760405162461bcd60e51b815260206004820152601f60248201527f45524332303a206d696e7420746f20746865207a65726f2061646472657373006044820152606401610893565b6117f360008383611c85565b80603560008282546118059190612abf565b90915550506001600160a01b03821660009081526033602052604081208054839290611832908490612abf565b90915550506040518181526001600160a01b038316906000907fddf252ad1be2c89b69c2b068fc378daa952ba7f163c4a11628f55a4df523b3ef9060200160405180910390a35050565b6001600160a01b0382166118dc5760405162461bcd60e51b815260206004820152602160248201527f45524332303a206275726e2066726f6d20746865207a65726f206164647265736044820152607360f81b6064820152608401610893565b6118e882600083611c85565b6001600160a01b0382166000908152603360205260409020548181101561195c5760405162461bcd60e51b815260206004820152602260248201527f45524332303a206275726e20616d6f756e7420657863656564732062616c616e604482015261636560f01b6064820152608401610893565b6001600160a01b038316600090815260336020526040812083830390556035805484929061198b908490612bb3565b90915550506040518281526000906001600160a01b038516907fddf252ad1be2c89b69c2b068fc378daa952ba7f163c4a11628f55a4df523b3ef9060200160405180910390a3505050565b60006107803384846111a3565b600054610100900460ff16806119fc575060005460ff16155b611a185760405162461bcd60e51b815260040161089390612af0565b600054610100900460ff16158015611a3a576000805461ffff19166101011790555b611a42612079565b611a4c83836120e3565b8015610818576000805461ff0019169055505050565b600054610100900460ff1680611a7b575060005460ff16155b611a975760405162461bcd60e51b815260040161089390612af0565b600054610100900460ff16158015611ab9576000805461ffff19166101011790555b611ac1612079565b611ac9612079565b8015610970576000805461ff001916905550565b600054610100900460ff1680611af6575060005460ff16155b611b125760405162461bcd60e51b815260040161089390612af0565b600054610100900460ff16158015611b34576000805461ffff19166101011790555b611ab9612079565b600054610100900460ff1680611b55575060005460ff16155b611b715760405162461bcd60e51b815260040161089390612af0565b600054610100900460ff16158015611b93576000805461ffff19166101011790555b611b9b612079565b611bbe82604051806040016040528060018152602001603160f81b815250612178565b611bc782612202565b80156108a6576000805461ff00191690555050565b6108a6828261148c565b6001600160a01b038116600090815261012f602052604090208054600181018255905b50919050565b60006106db611c1c611512565b8360405161190160f01b6020820152602281018390526042810182905260009060620160405160208183030381529060405280519060200120905092915050565b6000806000611c6e87878787612293565b91509150611c7b81612380565b5095945050505050565b6101c6546001600160a01b03848116911614610818576101c6546101c7546040516344bd03c360e11b81526001600160a01b038681166004830152600160a01b90920463ffffffff16602482015291169063897a078690604401600060405180830381600087803b158015611cf957600080fd5b505af1158015610f09573d6000803e3d6000fd5b60606000611d1c836002612bca565b611d27906002612abf565b67ffffffffffffffff811115611d3f57611d3f612778565b6040519080825280601f01601f191660200182016040528015611d69576020820181803683370190505b509050600360fc1b81600081518110611d8457611d84612be9565b60200101906001600160f81b031916908160001a905350600f60fb1b81600181518110611db357611db3612be9565b60200101906001600160f81b031916908160001a9053506000611dd7846002612bca565b611de2906001612abf565b90505b6001811115611e5a576f181899199a1a9b1b9c1cb0b131b232b360811b85600f1660108110611e1657611e16612be9565b1a60f81b828281518110611e2c57611e2c612be9565b60200101906001600160f81b031916908160001a90535060049490941c93611e5381612bff565b9050611de5565b5083156107eb5760405162461bcd60e51b815260206004820181905260248201527f537472696e67733a20686578206c656e67746820696e73756666696369656e746044820152606401610893565b803b611f0d5760405162461bcd60e51b815260206004820152602d60248201527f455243313936373a206e657720696d706c656d656e746174696f6e206973206e60448201526c1bdd08184818dbdb9d1c9858dd609a1b6064820152608401610893565b7f360894a13ba1a3210667c828492db98dca3e2076cc3735a920a3ca505d382bbc80546001600160a01b0319166001600160a01b0392909216919091179055565b6060823b611fad5760405162461bcd60e51b815260206004820152602660248201527f416464726573733a2064656c65676174652063616c6c20746f206e6f6e2d636f6044820152651b9d1c9858dd60d21b6064820152608401610893565b600080846001600160a01b031684604051611fc89190612c16565b600060405180830381855af49150503d8060008114612003576040519150601f19603f3d011682016040523d82523d6000602084013e612008565b606091505b50915091506120308282604051806060016040528060278152602001612c496027913961253b565b95945050505050565b61204281611ea9565b6040516001600160a01b038216907fbc7cd75a20ee27fd9adebab32041f755214dbc6bffa90cc0225b39da2e5c2d3b90600090a250565b600054610100900460ff1680612092575060005460ff16155b6120ae5760405162461bcd60e51b815260040161089390612af0565b600054610100900460ff16158015611ac9576000805461ffff19166101011790558015610970576000805461ff001916905550565b600054610100900460ff16806120fc575060005460ff16155b6121185760405162461bcd60e51b815260040161089390612af0565b600054610100900460ff1615801561213a576000805461ffff19166101011790555b825161214d906036906020860190612574565b508151612161906037906020850190612574565b508015610818576000805461ff0019169055505050565b600054610100900460ff1680612191575060005460ff16155b6121ad5760405162461bcd60e51b815260040161089390612af0565b600054610100900460ff161580156121cf576000805461ffff19166101011790555b825160208085019190912083519184019190912060fb9190915560fc558015610818576000805461ff0019169055505050565b600054610100900460ff168061221b575060005460ff16155b6122375760405162461bcd60e51b815260040161089390612af0565b600054610100900460ff16158015612259576000805461ffff19166101011790555b7f6e71edae12b1b97f4d1f60370fef10105fa2faae0126114a169c64845d6126c96101305580156108a6576000805461ff00191690555050565b6000807f7fffffffffffffffffffffffffffffff5d576e7357a4501ddfe92f46681b20a08311156122ca5750600090506003612377565b8460ff16601b141580156122e257508460ff16601c14155b156122f35750600090506004612377565b6040805160008082526020820180845289905260ff881692820192909252606081018690526080810185905260019060a0016020604051602081039080840390855afa158015612347573d6000803e3d6000fd5b5050604051601f1901519150506001600160a01b03811661237057600060019250925050612377565b9150600090505b94509492505050565b600081600481111561239457612394612c32565b141561239d5750565b60018160048111156123b1576123b1612c32565b14156123ff5760405162461bcd60e51b815260206004820152601860248201527f45434453413a20696e76616c6964207369676e617475726500000000000000006044820152606401610893565b600281600481111561241357612413612c32565b14156124615760405162461bcd60e51b815260206004820152601f60248201527f45434453413a20696e76616c6964207369676e6174757265206c656e677468006044820152606401610893565b600381600481111561247557612475612c32565b14156124ce5760405162461bcd60e51b815260206004820152602260248201527f45434453413a20696e76616c6964207369676e6174757265202773272076616c604482015261756560f01b6064820152608401610893565b60048160048111156124e2576124e2612c32565b14156109705760405162461bcd60e51b815260206004820152602260248201527f45434453413a20696e76616c6964207369676e6174757265202776272076616c604482015261756560f01b6064820152608401610893565b6060831561254a5750816107eb565b82511561255a5782518084602001fd5b8160405162461bcd60e51b81526004016108939190612663565b828054612580906129dc565b90600052602060002090601f0160209004810192826125a257600085556125e8565b82601f106125bb57805160ff19168380011785556125e8565b828001600101855582156125e8579182015b828111156125e85782518255916020019190600101906125cd565b506125f49291506125f8565b5090565b5b808211156125f457600081556001016125f9565b60006020828403121561261f57600080fd5b81356001600160e01b0319811681146107eb57600080fd5b60005b8381101561265257818101518382015260200161263a565b838111156113785750506000910152565b6020815260008251806020840152612682816040850160208701612637565b601f01601f19169190910160400192915050565b80356001600160a01b03811681146126ad57600080fd5b919050565b600080604083850312156126c557600080fd5b6126ce83612696565b946020939093013593505050565b6000806000606084860312156126f157600080fd5b6126fa84612696565b925061270860208501612696565b9150604084013590509250925092565b60006020828403121561272a57600080fd5b5035919050565b6000806040838503121561274457600080fd5b8235915061275460208401612696565b90509250929050565b60006020828403121561276f57600080fd5b6107eb82612696565b634e487b7160e01b600052604160045260246000fd5b600067ffffffffffffffff808411156127a9576127a9612778565b604051601f8501601f19908116603f011681019082821181831017156127d1576127d1612778565b816040528093508581528686860111156127ea57600080fd5b858560208301376000602087830101525050509392505050565b6000806040838503121561281757600080fd5b61282083612696565b9150602083013567ffffffffffffffff81111561283c57600080fd5b8301601f8101851361284d57600080fd5b61285c8582356020840161278e565b9150509250929050565b600082601f83011261287757600080fd5b6107eb8383356020850161278e565b60008060008060008060c0878903121561289f57600080fd5b863567ffffffffffffffff808211156128b757600080fd5b6128c38a838b01612866565b975060208901359150808211156128d957600080fd5b506128e689828a01612866565b9550506128f560408801612696565b935061290360608801612696565b9250608087013563ffffffff8116811461291c57600080fd5b915060a0870135801515811461293157600080fd5b809150509295509295509295565b600080600080600080600060e0888a03121561295a57600080fd5b61296388612696565b965061297160208901612696565b95506040880135945060608801359350608088013560ff8116811461299557600080fd5b9699959850939692959460a0840135945060c09093013592915050565b600080604083850312156129c557600080fd5b6129ce83612696565b915061275460208401612696565b600181811c908216806129f057607f821691505b60208210811415611c0957634e487b7160e01b600052602260045260246000fd5b6020808252602c908201527f46756e6374696f6e206d7573742062652063616c6c6564207468726f7567682060408201526b19195b1959d85d1958d85b1b60a21b606082015260800190565b6020808252602c908201527f46756e6374696f6e206d7573742062652063616c6c6564207468726f7567682060408201526b6163746976652070726f787960a01b606082015260800190565b634e487b7160e01b600052601160045260246000fd5b60008219821115612ad257612ad2612aa9565b500190565b600060208284031215612ae957600080fd5b5051919050565b6020808252602e908201527f496e697469616c697a61626c653a20636f6e747261637420697320616c72656160408201526d191e481a5b9a5d1a585b1a5e995960921b606082015260800190565b7f416363657373436f6e74726f6c3a206163636f756e7420000000000000000000815260008351612b76816017850160208801612637565b7001034b99036b4b9b9b4b733903937b6329607d1b6017918401918201528351612ba7816028840160208801612637565b01602801949350505050565b600082821015612bc557612bc5612aa9565b500390565b6000816000190483118215151615612be457612be4612aa9565b500290565b634e487b7160e01b600052603260045260246000fd5b600081612c0e57612c0e612aa9565b506000190190565b60008251612c28818460208701612637565b9190910192915050565b634e487b7160e01b600052602160045260246000fdfe416464726573733a206c6f772d6c6576656c2064656c65676174652063616c6c206661696c65649f2df0fed2c77648de5860a4cc508cd0818c85b8b8a1ab4ceeef8d981c8956a6a26469706673582212203649f19a3f48e6cc8cd1fb3a11752e55314e06c5caa40801ca6780c1d15f1d9064736f6c634300080a0033",
  "devdoc": {
    "details": "Logic for price tracking contained in LongShort.sol.  The contract inherits from ERC20PresetMinterPauser.sol",
    "kind": "dev",
    "methods": {
      "DOMAIN_SEPARATOR()": {
        "details": "See {IERC20Permit-DOMAIN_SEPARATOR}."
      },
      "allowance(address,address)": {
        "details": "See {IERC20-allowance}."
      },
      "approve(address,uint256)": {
        "details": "See {IERC20-approve}. Requirements: - `spender` cannot be the zero address."
      },
      "balanceOf(address)": {
        "details": "To automatically account for next price actions which have been confirmed but not settled, includes any outstanding tokens owed by longShort.",
        "params": {
          "account": "The address for which to get the balance of."
        }
      },
      "burn(uint256)": {
        "details": "Modified to only allow Long Short to burn tokens on redeem.",
        "params": {
          "amount": "The amount of tokens to burn in wei."
        }
      },
      "burnFrom(address,uint256)": {
        "details": "Destroys `amount` tokens from `account`, deducting from the caller's allowance. See {ERC20-_burn} and {ERC20-allowance}. Requirements: - the caller must have allowance for ``accounts``'s tokens of at least `amount`."
      },
      "decimals()": {
        "details": "Returns the number of decimals used to get its user representation. For example, if `decimals` equals `2`, a balance of `505` tokens should be displayed to a user as `5.05` (`505 / 10 ** 2`). Tokens usually opt for a value of 18, imitating the relationship between Ether and Wei. This is the value {ERC20} uses, unless this function is overridden; NOTE: This information is only used for _display_ purposes: it in no way affects any of the arithmetic of the contract, including {IERC20-balanceOf} and {IERC20-transfer}."
      },
      "decreaseAllowance(address,uint256)": {
        "details": "Atomically decreases the allowance granted to `spender` by the caller. This is an alternative to {approve} that can be used as a mitigation for problems described in {IERC20-approve}. Emits an {Approval} event indicating the updated allowance. Requirements: - `spender` cannot be the zero address. - `spender` must have allowance for the caller of at least `subtractedValue`."
      },
      "getRoleAdmin(bytes32)": {
        "details": "Returns the admin role that controls `role`. See {grantRole} and {revokeRole}. To change a role's admin, use {_setRoleAdmin}."
      },
      "grantRole(bytes32,address)": {
        "details": "Grants `role` to `account`. If `account` had not been already granted `role`, emits a {RoleGranted} event. Requirements: - the caller must have ``role``'s admin role."
      },
      "hasRole(bytes32,address)": {
        "details": "Returns `true` if `account` has been granted `role`."
      },
      "increaseAllowance(address,uint256)": {
        "details": "Atomically increases the allowance granted to `spender` by the caller. This is an alternative to {approve} that can be used as a mitigation for problems described in {IERC20-approve}. Emits an {Approval} event indicating the updated allowance. Requirements: - `spender` cannot be the zero address."
      },
      "initialize(string,string,address,address,uint32,bool)": {
        "details": "Should only be called by TokenFactory.sol for our system.",
        "params": {
          "_isLong": "Whether the token is long or short for its market.",
          "_longShort": "Address of the core LongShort contract.",
          "_marketIndex": "Which market the token is for.",
          "_staker": "Address of the staker contract.",
          "name": "The name of the token.",
          "symbol": "The symbol for the token."
        }
      },
      "mint(address,uint256)": {
        "details": "Can only be called by addresses with a minter role.  This should correspond to the Long Short contract.",
        "params": {
          "amount": "Amount of synthetic tokens to mint in wei.",
          "to": "The address for which to mint the tokens for."
        }
      },
      "name()": {
        "details": "Returns the name of the token."
      },
      "nonces(address)": {
        "details": "See {IERC20Permit-nonces}."
      },
      "permit(address,address,uint256,uint256,uint8,bytes32,bytes32)": {
        "details": "See {IERC20Permit-permit}."
      },
      "renounceRole(bytes32,address)": {
        "details": "Revokes `role` from the calling account. Roles are often managed via {grantRole} and {revokeRole}: this function's purpose is to provide a mechanism for accounts to lose their privileges if they are compromised (such as when a trusted device is misplaced). If the calling account had been revoked `role`, emits a {RoleRevoked} event. Requirements: - the caller must be `account`."
      },
      "revokeRole(bytes32,address)": {
        "details": "Revokes `role` from `account`. If `account` had been granted `role`, emits a {RoleRevoked} event. Requirements: - the caller must have ``role``'s admin role."
      },
      "stake(uint256)": {
        "details": "Core staking logic contained in Staker.sol",
        "params": {
          "amount": "Amount to stake in wei."
        }
      },
      "supportsInterface(bytes4)": {
        "details": "See {IERC165-supportsInterface}."
      },
      "symbol()": {
        "details": "Returns the symbol of the token, usually a shorter version of the name."
      },
      "transferFrom(address,address,uint256)": {
        "details": "To allow users to avoid approving LongShort when redeeming tokens, longShort has a virtual infinite allowance.",
        "params": {
          "amount": "Amount of tokens to transfer in wei.",
          "recipient": "Recipient of the transferred tokens.",
          "sender": "User for which to transfer tokens."
        }
      },
      "upgradeTo(address)": {
        "details": "Upgrade the implementation of the proxy to `newImplementation`. Calls {_authorizeUpgrade}. Emits an {Upgraded} event."
      },
      "upgradeToAndCall(address,bytes)": {
        "details": "Upgrade the implementation of the proxy to `newImplementation`, and subsequently execute the function call encoded in `data`. Calls {_authorizeUpgrade}. Emits an {Upgraded} event."
      }
    },
    "title": "SyntheticTokenUpgradeable",
    "version": 1
  },
  "userdoc": {
    "kind": "user",
    "methods": {
      "balanceOf(address)": {
        "notice": "Gets the synthetic token balance of the user in wei."
      },
      "burn(uint256)": {
        "notice": "Burns or destroys a number of held synthetic tokens for an address."
      },
      "initialize(string,string,address,address,uint32,bool)": {
        "notice": "Creates an instance of the contract."
      },
      "isLong()": {
        "notice": "Whether the token is a long token or short token for its market."
      },
      "longShort()": {
        "notice": "Address of the LongShort contract, a deployed LongShort.sol"
      },
      "marketIndex()": {
        "notice": "Identifies which market in longShort the token is for."
      },
      "mint(address,uint256)": {
        "notice": "Mints a number of synthetic tokens for an address."
      },
      "stake(uint256)": {
        "notice": "Allows users to stake their synthetic tokens to earn Float."
      },
      "staker()": {
        "notice": "Address of the Staker contract, a deployed Staker.sol"
      },
      "transferFrom(address,address,uint256)": {
        "notice": "Overrides the default ERC20 transferFrom."
      }
    },
    "notice": "An ERC20 token that tracks or inversely tracks the price of an underlying asset with floating exposure.",
    "version": 1
  },
  "storageLayout": {
    "storage": [
      {
        "astId": 1050,
        "contract": "contracts/SyntheticTokenUpgradeable.sol:SyntheticTokenUpgradeable",
        "label": "_initialized",
        "offset": 0,
        "slot": "0",
        "type": "t_bool"
      },
      {
        "astId": 1053,
        "contract": "contracts/SyntheticTokenUpgradeable.sol:SyntheticTokenUpgradeable",
        "label": "_initializing",
        "offset": 1,
        "slot": "0",
        "type": "t_bool"
      },
      {
        "astId": 5322,
        "contract": "contracts/SyntheticTokenUpgradeable.sol:SyntheticTokenUpgradeable",
        "label": "__gap",
        "offset": 0,
        "slot": "1",
        "type": "t_array(t_uint256)50_storage"
      },
      {
        "astId": 1333,
        "contract": "contracts/SyntheticTokenUpgradeable.sol:SyntheticTokenUpgradeable",
        "label": "_balances",
        "offset": 0,
        "slot": "51",
        "type": "t_mapping(t_address,t_uint256)"
      },
      {
        "astId": 1339,
        "contract": "contracts/SyntheticTokenUpgradeable.sol:SyntheticTokenUpgradeable",
        "label": "_allowances",
        "offset": 0,
        "slot": "52",
        "type": "t_mapping(t_address,t_mapping(t_address,t_uint256))"
      },
      {
        "astId": 1341,
        "contract": "contracts/SyntheticTokenUpgradeable.sol:SyntheticTokenUpgradeable",
        "label": "_totalSupply",
        "offset": 0,
        "slot": "53",
        "type": "t_uint256"
      },
      {
        "astId": 1343,
        "contract": "contracts/SyntheticTokenUpgradeable.sol:SyntheticTokenUpgradeable",
        "label": "_name",
        "offset": 0,
        "slot": "54",
        "type": "t_string_storage"
      },
      {
        "astId": 1345,
        "contract": "contracts/SyntheticTokenUpgradeable.sol:SyntheticTokenUpgradeable",
        "label": "_symbol",
        "offset": 0,
        "slot": "55",
        "type": "t_string_storage"
      },
      {
        "astId": 1886,
        "contract": "contracts/SyntheticTokenUpgradeable.sol:SyntheticTokenUpgradeable",
        "label": "__gap",
        "offset": 0,
        "slot": "56",
        "type": "t_array(t_uint256)45_storage"
      },
      {
        "astId": 2051,
        "contract": "contracts/SyntheticTokenUpgradeable.sol:SyntheticTokenUpgradeable",
        "label": "__gap",
        "offset": 0,
        "slot": "101",
        "type": "t_array(t_uint256)50_storage"
      },
      {
        "astId": 6244,
        "contract": "contracts/SyntheticTokenUpgradeable.sol:SyntheticTokenUpgradeable",
        "label": "__gap",
        "offset": 0,
        "slot": "151",
        "type": "t_array(t_uint256)50_storage"
      },
      {
        "astId": 250,
        "contract": "contracts/SyntheticTokenUpgradeable.sol:SyntheticTokenUpgradeable",
        "label": "_roles",
        "offset": 0,
        "slot": "201",
        "type": "t_mapping(t_bytes32,t_struct(RoleData)245_storage)"
      },
      {
        "astId": 537,
        "contract": "contracts/SyntheticTokenUpgradeable.sol:SyntheticTokenUpgradeable",
        "label": "__gap",
        "offset": 0,
        "slot": "202",
        "type": "t_array(t_uint256)49_storage"
      },
      {
        "astId": 6059,
        "contract": "contracts/SyntheticTokenUpgradeable.sol:SyntheticTokenUpgradeable",
        "label": "_HASHED_NAME",
        "offset": 0,
        "slot": "251",
        "type": "t_bytes32"
      },
      {
        "astId": 6061,
        "contract": "contracts/SyntheticTokenUpgradeable.sol:SyntheticTokenUpgradeable",
        "label": "_HASHED_VERSION",
        "offset": 0,
        "slot": "252",
        "type": "t_bytes32"
      },
      {
        "astId": 6198,
        "contract": "contracts/SyntheticTokenUpgradeable.sol:SyntheticTokenUpgradeable",
        "label": "__gap",
        "offset": 0,
        "slot": "253",
        "type": "t_array(t_uint256)50_storage"
      },
      {
        "astId": 2827,
        "contract": "contracts/SyntheticTokenUpgradeable.sol:SyntheticTokenUpgradeable",
        "label": "_nonces",
        "offset": 0,
        "slot": "303",
        "type": "t_mapping(t_address,t_struct(Counter)5329_storage)"
      },
      {
        "astId": 2829,
        "contract": "contracts/SyntheticTokenUpgradeable.sol:SyntheticTokenUpgradeable",
        "label": "_PERMIT_TYPEHASH",
        "offset": 0,
        "slot": "304",
        "type": "t_bytes32"
      },
      {
        "astId": 2997,
        "contract": "contracts/SyntheticTokenUpgradeable.sol:SyntheticTokenUpgradeable",
        "label": "__gap",
        "offset": 0,
        "slot": "305",
        "type": "t_array(t_uint256)49_storage"
      },
      {
        "astId": 1033,
        "contract": "contracts/SyntheticTokenUpgradeable.sol:SyntheticTokenUpgradeable",
        "label": "__gap",
        "offset": 0,
        "slot": "354",
        "type": "t_array(t_uint256)50_storage"
      },
      {
        "astId": 1200,
        "contract": "contracts/SyntheticTokenUpgradeable.sol:SyntheticTokenUpgradeable",
        "label": "__gap",
        "offset": 0,
        "slot": "404",
        "type": "t_array(t_uint256)50_storage"
      },
      {
        "astId": 20483,
        "contract": "contracts/SyntheticTokenUpgradeable.sol:SyntheticTokenUpgradeable",
        "label": "longShort",
        "offset": 0,
        "slot": "454",
        "type": "t_address"
      },
      {
        "astId": 20486,
        "contract": "contracts/SyntheticTokenUpgradeable.sol:SyntheticTokenUpgradeable",
        "label": "staker",
        "offset": 0,
        "slot": "455",
        "type": "t_address"
      },
      {
        "astId": 20489,
        "contract": "contracts/SyntheticTokenUpgradeable.sol:SyntheticTokenUpgradeable",
        "label": "marketIndex",
        "offset": 20,
        "slot": "455",
        "type": "t_uint32"
      },
      {
        "astId": 20492,
        "contract": "contracts/SyntheticTokenUpgradeable.sol:SyntheticTokenUpgradeable",
        "label": "isLong",
        "offset": 24,
        "slot": "455",
        "type": "t_bool"
      }
    ],
    "types": {
      "t_address": {
        "encoding": "inplace",
        "label": "address",
        "numberOfBytes": "20"
      },
      "t_array(t_uint256)45_storage": {
        "base": "t_uint256",
        "encoding": "inplace",
        "label": "uint256[45]",
        "numberOfBytes": "1440"
      },
      "t_array(t_uint256)49_storage": {
        "base": "t_uint256",
        "encoding": "inplace",
        "label": "uint256[49]",
        "numberOfBytes": "1568"
      },
      "t_array(t_uint256)50_storage": {
        "base": "t_uint256",
        "encoding": "inplace",
        "label": "uint256[50]",
        "numberOfBytes": "1600"
      },
      "t_bool": {
        "encoding": "inplace",
        "label": "bool",
        "numberOfBytes": "1"
      },
      "t_bytes32": {
        "encoding": "inplace",
        "label": "bytes32",
        "numberOfBytes": "32"
      },
      "t_mapping(t_address,t_bool)": {
        "encoding": "mapping",
        "key": "t_address",
        "label": "mapping(address => bool)",
        "numberOfBytes": "32",
        "value": "t_bool"
      },
      "t_mapping(t_address,t_mapping(t_address,t_uint256))": {
        "encoding": "mapping",
        "key": "t_address",
        "label": "mapping(address => mapping(address => uint256))",
        "numberOfBytes": "32",
        "value": "t_mapping(t_address,t_uint256)"
      },
      "t_mapping(t_address,t_struct(Counter)5329_storage)": {
        "encoding": "mapping",
        "key": "t_address",
        "label": "mapping(address => struct CountersUpgradeable.Counter)",
        "numberOfBytes": "32",
        "value": "t_struct(Counter)5329_storage"
      },
      "t_mapping(t_address,t_uint256)": {
        "encoding": "mapping",
        "key": "t_address",
        "label": "mapping(address => uint256)",
        "numberOfBytes": "32",
        "value": "t_uint256"
      },
      "t_mapping(t_bytes32,t_struct(RoleData)245_storage)": {
        "encoding": "mapping",
        "key": "t_bytes32",
        "label": "mapping(bytes32 => struct AccessControlUpgradeable.RoleData)",
        "numberOfBytes": "32",
        "value": "t_struct(RoleData)245_storage"
      },
      "t_string_storage": {
        "encoding": "bytes",
        "label": "string",
        "numberOfBytes": "32"
      },
      "t_struct(Counter)5329_storage": {
        "encoding": "inplace",
        "label": "struct CountersUpgradeable.Counter",
        "members": [
          {
            "astId": 5328,
            "contract": "contracts/SyntheticTokenUpgradeable.sol:SyntheticTokenUpgradeable",
            "label": "_value",
            "offset": 0,
            "slot": "0",
            "type": "t_uint256"
          }
        ],
        "numberOfBytes": "32"
      },
      "t_struct(RoleData)245_storage": {
        "encoding": "inplace",
        "label": "struct AccessControlUpgradeable.RoleData",
        "members": [
          {
            "astId": 242,
            "contract": "contracts/SyntheticTokenUpgradeable.sol:SyntheticTokenUpgradeable",
            "label": "members",
            "offset": 0,
            "slot": "0",
            "type": "t_mapping(t_address,t_bool)"
          },
          {
            "astId": 244,
            "contract": "contracts/SyntheticTokenUpgradeable.sol:SyntheticTokenUpgradeable",
            "label": "adminRole",
            "offset": 0,
            "slot": "1",
            "type": "t_bytes32"
          }
        ],
        "numberOfBytes": "64"
      },
      "t_uint256": {
        "encoding": "inplace",
        "label": "uint256",
        "numberOfBytes": "32"
      },
      "t_uint32": {
        "encoding": "inplace",
        "label": "uint32",
        "numberOfBytes": "4"
      }
    }
  }
}