{
  "address": "0x4e84Ba20f944c5CD34c8CeF2937Ba13a907396C0",
  "abi": [
    {
      "anonymous": false,
      "inputs": [
        {
          "indexed": false,
          "internalType": "uint32",
          "name": "marketIndex",
          "type": "uint32"
        },
        {
          "indexed": false,
          "internalType": "uint256",
          "name": "accumulativeFloatIssuanceSnapshotIndex",
          "type": "uint256"
        },
        {
          "indexed": false,
          "internalType": "uint256",
          "name": "accumulativeLong",
          "type": "uint256"
        },
        {
          "indexed": false,
          "internalType": "uint256",
          "name": "accumulativeShort",
          "type": "uint256"
        }
      ],
      "name": "AccumulativeIssuancePerStakedSynthSnapshotCreated",
      "type": "event"
    },
    {
      "anonymous": false,
      "inputs": [
        {
          "indexed": false,
          "internalType": "address",
          "name": "previousAdmin",
          "type": "address"
        },
        {
          "indexed": false,
          "internalType": "address",
          "name": "newAdmin",
          "type": "address"
        }
      ],
      "name": "AdminChanged",
      "type": "event"
    },
    {
      "anonymous": false,
      "inputs": [
        {
          "indexed": false,
          "internalType": "uint32",
          "name": "marketIndex",
          "type": "uint32"
        },
        {
          "indexed": false,
          "internalType": "uint256",
          "name": "balanceIncentiveExponent",
          "type": "uint256"
        },
        {
          "indexed": false,
          "internalType": "int256",
          "name": "balanceIncentiveCurve_equilibriumOffset",
          "type": "int256"
        },
        {
          "indexed": false,
          "internalType": "uint256",
          "name": "safeExponentBitShifting",
          "type": "uint256"
        }
      ],
      "name": "BalanceIncentiveParamsUpdated",
      "type": "event"
    },
    {
      "anonymous": false,
      "inputs": [
        {
          "indexed": true,
          "internalType": "address",
          "name": "beacon",
          "type": "address"
        }
      ],
      "name": "BeaconUpgraded",
      "type": "event"
    },
    {
      "anonymous": false,
      "inputs": [
        {
          "indexed": false,
          "internalType": "address",
          "name": "user",
          "type": "address"
        },
        {
          "indexed": false,
          "internalType": "uint32",
          "name": "marketIndex",
          "type": "uint32"
        },
        {
          "indexed": false,
          "internalType": "uint256",
          "name": "amountFloatMinted",
          "type": "uint256"
        }
      ],
      "name": "FloatMinted",
      "type": "event"
    },
    {
      "anonymous": false,
      "inputs": [
        {
          "indexed": false,
          "internalType": "uint256",
          "name": "floatPercentage",
          "type": "uint256"
        }
      ],
      "name": "FloatPercentageUpdated",
      "type": "event"
    },
    {
      "anonymous": false,
      "inputs": [
        {
          "indexed": false,
          "internalType": "uint32",
          "name": "marketIndex",
          "type": "uint32"
        },
        {
          "indexed": false,
          "internalType": "uint256",
          "name": "exitFee_e18",
          "type": "uint256"
        },
        {
          "indexed": false,
          "internalType": "uint256",
          "name": "period",
          "type": "uint256"
        },
        {
          "indexed": false,
          "internalType": "uint256",
          "name": "multiplier",
          "type": "uint256"
        },
        {
          "indexed": false,
          "internalType": "uint256",
          "name": "balanceIncentiveExponent",
          "type": "uint256"
        },
        {
          "indexed": false,
          "internalType": "int256",
          "name": "balanceIncentiveEquilibriumOffset",
          "type": "int256"
        },
        {
          "indexed": false,
          "internalType": "uint256",
          "name": "safeExponentBitShifting",
          "type": "uint256"
        }
      ],
      "name": "MarketAddedToStaker",
      "type": "event"
    },
    {
      "anonymous": false,
      "inputs": [
        {
          "indexed": false,
          "internalType": "uint32",
          "name": "marketIndex",
          "type": "uint32"
        },
        {
          "indexed": false,
          "internalType": "uint256",
          "name": "period",
          "type": "uint256"
        },
        {
          "indexed": false,
          "internalType": "uint256",
          "name": "multiplier",
          "type": "uint256"
        }
      ],
      "name": "MarketLaunchIncentiveParametersChanges",
      "type": "event"
    },
    {
      "anonymous": false,
      "inputs": [
        {
          "indexed": false,
          "internalType": "address",
          "name": "user",
          "type": "address"
        },
        {
          "indexed": false,
          "internalType": "uint32",
          "name": "marketIndex",
          "type": "uint32"
        },
        {
          "indexed": false,
          "internalType": "uint256",
          "name": "amount",
          "type": "uint256"
        },
        {
          "indexed": false,
          "internalType": "bool",
          "name": "isShiftFromLong",
          "type": "bool"
        },
        {
          "indexed": false,
          "internalType": "uint256",
          "name": "userShiftIndex",
          "type": "uint256"
        }
      ],
      "name": "NextPriceStakeShift",
      "type": "event"
    },
    {
      "anonymous": false,
      "inputs": [
        {
          "indexed": true,
          "internalType": "bytes32",
          "name": "role",
          "type": "bytes32"
        },
        {
          "indexed": true,
          "internalType": "bytes32",
          "name": "previousAdminRole",
          "type": "bytes32"
        },
        {
          "indexed": true,
          "internalType": "bytes32",
          "name": "newAdminRole",
          "type": "bytes32"
        }
      ],
      "name": "RoleAdminChanged",
      "type": "event"
    },
    {
      "anonymous": false,
      "inputs": [
        {
          "indexed": true,
          "internalType": "bytes32",
          "name": "role",
          "type": "bytes32"
        },
        {
          "indexed": true,
          "internalType": "address",
          "name": "account",
          "type": "address"
        },
        {
          "indexed": true,
          "internalType": "address",
          "name": "sender",
          "type": "address"
        }
      ],
      "name": "RoleGranted",
      "type": "event"
    },
    {
      "anonymous": false,
      "inputs": [
        {
          "indexed": true,
          "internalType": "bytes32",
          "name": "role",
          "type": "bytes32"
        },
        {
          "indexed": true,
          "internalType": "address",
          "name": "account",
          "type": "address"
        },
        {
          "indexed": true,
          "internalType": "address",
          "name": "sender",
          "type": "address"
        }
      ],
      "name": "RoleRevoked",
      "type": "event"
    },
    {
      "anonymous": false,
      "inputs": [
        {
          "indexed": false,
          "internalType": "address",
          "name": "user",
          "type": "address"
        },
        {
          "indexed": false,
          "internalType": "address",
          "name": "token",
          "type": "address"
        },
        {
          "indexed": false,
          "internalType": "uint256",
          "name": "amount",
          "type": "uint256"
        },
        {
          "indexed": false,
          "internalType": "uint256",
          "name": "lastMintIndex",
          "type": "uint256"
        }
      ],
      "name": "StakeAdded",
      "type": "event"
    },
    {
      "anonymous": false,
      "inputs": [
        {
          "indexed": false,
          "internalType": "uint32",
          "name": "marketIndex",
          "type": "uint32"
        },
        {
          "indexed": false,
          "internalType": "uint256",
          "name": "stakeWithdralFee",
          "type": "uint256"
        }
      ],
      "name": "StakeWithdrawalFeeUpdated",
      "type": "event"
    },
    {
      "anonymous": false,
      "inputs": [
        {
          "indexed": false,
          "internalType": "address",
          "name": "user",
          "type": "address"
        },
        {
          "indexed": false,
          "internalType": "address",
          "name": "token",
          "type": "address"
        },
        {
          "indexed": false,
          "internalType": "uint256",
          "name": "amount",
          "type": "uint256"
        }
      ],
      "name": "StakeWithdrawn",
      "type": "event"
    },
    {
      "anonymous": false,
      "inputs": [
        {
          "indexed": false,
          "internalType": "address",
          "name": "user",
          "type": "address"
        },
        {
          "indexed": false,
          "internalType": "address",
          "name": "token",
          "type": "address"
        },
        {
          "indexed": false,
          "internalType": "uint256",
          "name": "amount",
          "type": "uint256"
        },
        {
          "indexed": false,
          "internalType": "uint256",
          "name": "amountFees",
          "type": "uint256"
        }
      ],
      "name": "StakeWithdrawnWithFees",
      "type": "event"
    },
    {
      "anonymous": false,
      "inputs": [
        {
          "indexed": false,
          "internalType": "address",
          "name": "admin",
          "type": "address"
        },
        {
          "indexed": false,
          "internalType": "address",
          "name": "floatTreasury",
          "type": "address"
        },
        {
          "indexed": false,
          "internalType": "address",
          "name": "floatCapital",
          "type": "address"
        },
        {
          "indexed": false,
          "internalType": "address",
          "name": "floatToken",
          "type": "address"
        },
        {
          "indexed": false,
          "internalType": "uint256",
          "name": "floatPercentage",
          "type": "uint256"
        }
      ],
      "name": "StakerV1",
      "type": "event"
    },
    {
      "anonymous": false,
      "inputs": [
        {
          "indexed": false,
          "internalType": "uint256",
          "name": "version",
          "type": "uint256"
        }
      ],
      "name": "Upgrade",
      "type": "event"
    },
    {
      "anonymous": false,
      "inputs": [
        {
          "indexed": true,
          "internalType": "address",
          "name": "implementation",
          "type": "address"
        }
      ],
      "name": "Upgraded",
      "type": "event"
    },
    {
      "inputs": [],
      "name": "ACCUMULATIVE_FLT_ISSUANCE_SAFTEY_BIT_SHIFTING",
      "outputs": [
        {
          "internalType": "uint256",
          "name": "",
          "type": "uint256"
        }
      ],
      "stateMutability": "view",
      "type": "function"
    },
    {
      "inputs": [],
      "name": "ADMIN_ROLE",
      "outputs": [
        {
          "internalType": "bytes32",
          "name": "",
          "type": "bytes32"
        }
      ],
      "stateMutability": "view",
      "type": "function"
    },
    {
      "inputs": [],
      "name": "DEFAULT_ADMIN_ROLE",
      "outputs": [
        {
          "internalType": "bytes32",
          "name": "",
          "type": "bytes32"
        }
      ],
      "stateMutability": "view",
      "type": "function"
    },
    {
      "inputs": [],
      "name": "DISCOUNT_ROLE",
      "outputs": [
        {
          "internalType": "bytes32",
          "name": "",
          "type": "bytes32"
        }
      ],
      "stateMutability": "view",
      "type": "function"
    },
    {
      "inputs": [],
      "name": "FLOAT_ISSUANCE_FIXED_DECIMAL",
      "outputs": [
        {
          "internalType": "uint256",
          "name": "",
          "type": "uint256"
        }
      ],
      "stateMutability": "view",
      "type": "function"
    },
    {
      "inputs": [],
      "name": "UPGRADER_ROLE",
      "outputs": [
        {
          "internalType": "bytes32",
          "name": "",
          "type": "bytes32"
        }
      ],
      "stateMutability": "view",
      "type": "function"
    },
    {
      "inputs": [
        {
          "internalType": "uint32",
          "name": "",
          "type": "uint32"
        },
        {
          "internalType": "uint256",
          "name": "",
          "type": "uint256"
        }
      ],
      "name": "accumulativeFloatPerSyntheticTokenSnapshots",
      "outputs": [
        {
          "internalType": "uint32",
          "name": "timestamp",
          "type": "uint32"
        },
        {
          "internalType": "uint112",
          "name": "accumulativeFloatPerSyntheticToken_long",
          "type": "uint112"
        },
        {
          "internalType": "uint112",
          "name": "accumulativeFloatPerSyntheticToken_short",
          "type": "uint112"
        }
      ],
      "stateMutability": "view",
      "type": "function"
    },
    {
      "inputs": [
        {
          "internalType": "uint32",
          "name": "",
          "type": "uint32"
        },
        {
          "internalType": "uint256",
          "name": "",
          "type": "uint256"
        }
      ],
      "name": "accumulativeFloatPerSyntheticTokenSnapshotsLEGACY",
      "outputs": [
        {
          "internalType": "uint256",
          "name": "timestamp",
          "type": "uint256"
        },
        {
          "internalType": "uint256",
          "name": "accumulativeFloatPerSyntheticToken_long",
          "type": "uint256"
        },
        {
          "internalType": "uint256",
          "name": "accumulativeFloatPerSyntheticToken_short",
          "type": "uint256"
        }
      ],
      "stateMutability": "view",
      "type": "function"
    },
    {
      "inputs": [
        {
          "internalType": "uint32",
          "name": "marketIndex",
          "type": "uint32"
        },
        {
          "internalType": "address",
          "name": "longToken",
          "type": "address"
        },
        {
          "internalType": "address",
          "name": "shortToken",
          "type": "address"
        },
        {
          "internalType": "uint256",
          "name": "kInitialMultiplier",
          "type": "uint256"
        },
        {
          "internalType": "uint256",
          "name": "kPeriod",
          "type": "uint256"
        },
        {
          "internalType": "uint256",
          "name": "unstakeFee_e18",
          "type": "uint256"
        },
        {
          "internalType": "uint256",
          "name": "_balanceIncentiveCurve_exponent",
          "type": "uint256"
        },
        {
          "internalType": "int256",
          "name": "_balanceIncentiveCurve_equilibriumOffset",
          "type": "int256"
        }
      ],
      "name": "addNewStakingFund",
      "outputs": [],
      "stateMutability": "nonpayable",
      "type": "function"
    },
    {
      "inputs": [
        {
          "internalType": "uint32",
          "name": "",
          "type": "uint32"
        }
      ],
      "name": "balanceIncentiveCurve_equilibriumOffset",
      "outputs": [
        {
          "internalType": "int256",
          "name": "",
          "type": "int256"
        }
      ],
      "stateMutability": "view",
      "type": "function"
    },
    {
      "inputs": [
        {
          "internalType": "uint32",
          "name": "",
          "type": "uint32"
        }
      ],
      "name": "balanceIncentiveCurve_exponent",
      "outputs": [
        {
          "internalType": "uint256",
          "name": "",
          "type": "uint256"
        }
      ],
      "stateMutability": "view",
      "type": "function"
    },
    {
      "inputs": [
        {
          "internalType": "uint32",
          "name": "marketIndex",
          "type": "uint32"
        },
        {
          "internalType": "uint256",
          "name": "_balanceIncentiveCurve_exponent",
          "type": "uint256"
        },
        {
          "internalType": "int256",
          "name": "_balanceIncentiveCurve_equilibriumOffset",
          "type": "int256"
        },
        {
          "internalType": "uint256",
          "name": "_safeExponentBitShifting",
          "type": "uint256"
        }
      ],
      "name": "changeBalanceIncentiveParameters",
      "outputs": [],
      "stateMutability": "nonpayable",
      "type": "function"
    },
    {
      "inputs": [
        {
          "internalType": "uint256",
          "name": "newFloatPercentage",
          "type": "uint256"
        }
      ],
      "name": "changeFloatPercentage",
      "outputs": [],
      "stateMutability": "nonpayable",
      "type": "function"
    },
    {
      "inputs": [
        {
          "internalType": "uint32",
          "name": "marketIndex",
          "type": "uint32"
        },
        {
          "internalType": "uint256",
          "name": "newMarketUnstakeFee_e18",
          "type": "uint256"
        }
      ],
      "name": "changeUnstakeFee",
      "outputs": [],
      "stateMutability": "nonpayable",
      "type": "function"
    },
    {
      "inputs": [
        {
          "internalType": "uint32[]",
          "name": "marketIndexes",
          "type": "uint32[]"
        }
      ],
      "name": "claimFloatCustom",
      "outputs": [],
      "stateMutability": "nonpayable",
      "type": "function"
    },
    {
      "inputs": [
        {
          "internalType": "uint32[]",
          "name": "marketIndexes",
          "type": "uint32[]"
        },
        {
          "internalType": "address",
          "name": "user",
          "type": "address"
        }
      ],
      "name": "claimFloatCustomFor",
      "outputs": [],
      "stateMutability": "nonpayable",
      "type": "function"
    },
    {
      "inputs": [
        {
          "internalType": "uint32",
          "name": "marketIndex",
          "type": "uint32"
        },
        {
          "internalType": "address",
          "name": "user",
          "type": "address"
        }
      ],
      "name": "fixMissSetUserIndexOfLastClaimedReward",
      "outputs": [],
      "stateMutability": "nonpayable",
      "type": "function"
    },
    {
      "inputs": [],
      "name": "floatCapital",
      "outputs": [
        {
          "internalType": "address",
          "name": "",
          "type": "address"
        }
      ],
      "stateMutability": "view",
      "type": "function"
    },
    {
      "inputs": [],
      "name": "floatPercentage",
      "outputs": [
        {
          "internalType": "uint256",
          "name": "",
          "type": "uint256"
        }
      ],
      "stateMutability": "view",
      "type": "function"
    },
    {
      "inputs": [],
      "name": "floatToken",
      "outputs": [
        {
          "internalType": "address",
          "name": "",
          "type": "address"
        }
      ],
      "stateMutability": "view",
      "type": "function"
    },
    {
      "inputs": [],
      "name": "floatTreasury",
      "outputs": [
        {
          "internalType": "address",
          "name": "",
          "type": "address"
        }
      ],
      "stateMutability": "view",
      "type": "function"
    },
    {
      "inputs": [],
      "name": "gems",
      "outputs": [
        {
          "internalType": "address",
          "name": "",
          "type": "address"
        }
      ],
      "stateMutability": "view",
      "type": "function"
    },
    {
      "inputs": [
        {
          "internalType": "bytes32",
          "name": "role",
          "type": "bytes32"
        }
      ],
      "name": "getRoleAdmin",
      "outputs": [
        {
          "internalType": "bytes32",
          "name": "",
          "type": "bytes32"
        }
      ],
      "stateMutability": "view",
      "type": "function"
    },
    {
      "inputs": [
        {
          "internalType": "bytes32",
          "name": "role",
          "type": "bytes32"
        },
        {
          "internalType": "address",
          "name": "account",
          "type": "address"
        }
      ],
      "name": "grantRole",
      "outputs": [],
      "stateMutability": "nonpayable",
      "type": "function"
    },
    {
      "inputs": [
        {
          "internalType": "bytes32",
          "name": "role",
          "type": "bytes32"
        },
        {
          "internalType": "address",
          "name": "account",
          "type": "address"
        }
      ],
      "name": "hasRole",
      "outputs": [
        {
          "internalType": "bool",
          "name": "",
          "type": "bool"
        }
      ],
      "stateMutability": "view",
      "type": "function"
    },
    {
      "inputs": [
        {
          "internalType": "address",
          "name": "_admin",
          "type": "address"
        },
        {
          "internalType": "address",
          "name": "_longShort",
          "type": "address"
        },
        {
          "internalType": "address",
          "name": "_floatToken",
          "type": "address"
        },
        {
          "internalType": "address",
          "name": "_floatTreasury",
          "type": "address"
        },
        {
          "internalType": "address",
          "name": "_floatCapital",
          "type": "address"
        },
        {
          "internalType": "address",
          "name": "_discountSigner",
          "type": "address"
        },
        {
          "internalType": "uint256",
          "name": "_floatPercentage",
          "type": "uint256"
        },
        {
          "internalType": "address",
          "name": "_gems",
          "type": "address"
        }
      ],
      "name": "initialize",
      "outputs": [],
      "stateMutability": "nonpayable",
      "type": "function"
    },
    {
      "inputs": [
        {
          "internalType": "uint32",
          "name": "",
          "type": "uint32"
        }
      ],
      "name": "latestRewardIndex",
      "outputs": [
        {
          "internalType": "uint256",
          "name": "",
          "type": "uint256"
        }
      ],
      "stateMutability": "view",
      "type": "function"
    },
    {
      "inputs": [],
      "name": "longShort",
      "outputs": [
        {
          "internalType": "address",
          "name": "",
          "type": "address"
        }
      ],
      "stateMutability": "view",
      "type": "function"
    },
    {
      "inputs": [
        {
          "internalType": "address",
          "name": "",
          "type": "address"
        }
      ],
      "name": "marketIndexOfToken",
      "outputs": [
        {
          "internalType": "uint32",
          "name": "",
          "type": "uint32"
        }
      ],
      "stateMutability": "view",
      "type": "function"
    },
    {
      "inputs": [
        {
          "internalType": "uint32",
          "name": "",
          "type": "uint32"
        }
      ],
      "name": "marketLaunchIncentive_multipliers",
      "outputs": [
        {
          "internalType": "uint256",
          "name": "",
          "type": "uint256"
        }
      ],
      "stateMutability": "view",
      "type": "function"
    },
    {
      "inputs": [
        {
          "internalType": "uint32",
          "name": "",
          "type": "uint32"
        }
      ],
      "name": "marketLaunchIncentive_period",
      "outputs": [
        {
          "internalType": "uint256",
          "name": "",
          "type": "uint256"
        }
      ],
      "stateMutability": "view",
      "type": "function"
    },
    {
      "inputs": [
        {
          "internalType": "uint32",
          "name": "",
          "type": "uint32"
        }
      ],
      "name": "marketUnstakeFee_e18",
      "outputs": [
        {
          "internalType": "uint256",
          "name": "",
          "type": "uint256"
        }
      ],
      "stateMutability": "view",
      "type": "function"
    },
    {
      "inputs": [
        {
          "internalType": "uint32",
          "name": "marketIndex",
          "type": "uint32"
        },
        {
          "internalType": "uint256",
          "name": "amount",
          "type": "uint256"
        },
        {
          "internalType": "bool",
          "name": "isLong",
          "type": "bool"
        },
        {
          "internalType": "address",
          "name": "user",
          "type": "address"
        }
      ],
      "name": "mintAndStakeNextPrice",
      "outputs": [],
      "stateMutability": "nonpayable",
      "type": "function"
    },
    {
      "inputs": [
        {
          "internalType": "uint32",
          "name": "marketIndex",
          "type": "uint32"
        },
        {
          "internalType": "uint256",
          "name": "marketUpdateIndex",
          "type": "uint256"
        },
        {
          "internalType": "uint256",
          "name": "longPrice",
          "type": "uint256"
        },
        {
          "internalType": "uint256",
          "name": "shortPrice",
          "type": "uint256"
        },
        {
          "internalType": "uint256",
          "name": "longValue",
          "type": "uint256"
        },
        {
          "internalType": "uint256",
          "name": "shortValue",
          "type": "uint256"
        }
      ],
      "name": "pushUpdatedMarketPricesToUpdateFloatIssuanceCalculations",
      "outputs": [],
      "stateMutability": "nonpayable",
      "type": "function"
    },
    {
      "inputs": [
        {
          "internalType": "bytes32",
          "name": "role",
          "type": "bytes32"
        },
        {
          "internalType": "address",
          "name": "account",
          "type": "address"
        }
      ],
      "name": "renounceRole",
      "outputs": [],
      "stateMutability": "nonpayable",
      "type": "function"
    },
    {
      "inputs": [
        {
          "internalType": "bytes32",
          "name": "role",
          "type": "bytes32"
        },
        {
          "internalType": "address",
          "name": "account",
          "type": "address"
        }
      ],
      "name": "revokeRole",
      "outputs": [],
      "stateMutability": "nonpayable",
      "type": "function"
    },
    {
      "inputs": [
        {
          "internalType": "uint32",
          "name": "",
          "type": "uint32"
        }
      ],
      "name": "safeExponentBitShifting",
      "outputs": [
        {
          "internalType": "uint256",
          "name": "",
          "type": "uint256"
        }
      ],
      "stateMutability": "view",
      "type": "function"
    },
    {
      "inputs": [
        {
          "internalType": "uint32",
          "name": "marketIndex",
          "type": "uint32"
        },
        {
          "internalType": "uint256",
          "name": "updateIndex",
          "type": "uint256"
        }
      ],
      "name": "safe_getUpdateTimestamp",
      "outputs": [
        {
          "internalType": "uint256",
          "name": "timestamp",
          "type": "uint256"
        }
      ],
      "stateMutability": "view",
      "type": "function"
    },
    {
      "inputs": [
        {
          "internalType": "uint256",
          "name": "amountSyntheticTokensToShift",
          "type": "uint256"
        },
        {
          "internalType": "uint32",
          "name": "marketIndex",
          "type": "uint32"
        },
        {
          "internalType": "bool",
          "name": "isShiftFromLong",
          "type": "bool"
        }
      ],
      "name": "shiftTokens",
      "outputs": [],
      "stateMutability": "nonpayable",
      "type": "function"
    },
    {
      "inputs": [
        {
          "internalType": "address",
          "name": "from",
          "type": "address"
        },
        {
          "internalType": "uint256",
          "name": "amount",
          "type": "uint256"
        }
      ],
      "name": "stakeFromUser",
      "outputs": [],
      "stateMutability": "nonpayable",
      "type": "function"
    },
    {
      "inputs": [
        {
          "internalType": "bytes4",
          "name": "interfaceId",
          "type": "bytes4"
        }
      ],
      "name": "supportsInterface",
      "outputs": [
        {
          "internalType": "bool",
          "name": "",
          "type": "bool"
        }
      ],
      "stateMutability": "view",
      "type": "function"
    },
    {
      "inputs": [
        {
          "internalType": "uint32",
          "name": "",
          "type": "uint32"
        },
        {
          "internalType": "bool",
          "name": "",
          "type": "bool"
        }
      ],
      "name": "syntheticTokens",
      "outputs": [
        {
          "internalType": "address",
          "name": "",
          "type": "address"
        }
      ],
      "stateMutability": "view",
      "type": "function"
    },
    {
      "inputs": [
        {
          "internalType": "address",
          "name": "newImplementation",
          "type": "address"
        }
      ],
      "name": "upgradeTo",
      "outputs": [],
      "stateMutability": "nonpayable",
      "type": "function"
    },
    {
      "inputs": [
        {
          "internalType": "address",
          "name": "newImplementation",
          "type": "address"
        },
        {
          "internalType": "bytes",
          "name": "data",
          "type": "bytes"
        }
      ],
      "name": "upgradeToAndCall",
      "outputs": [],
      "stateMutability": "payable",
      "type": "function"
    },
    {
      "inputs": [],
      "name": "upgradeToUsingCompactStakerState",
      "outputs": [],
      "stateMutability": "nonpayable",
      "type": "function"
    },
    {
      "inputs": [
        {
          "internalType": "address",
          "name": "",
          "type": "address"
        },
        {
          "internalType": "address",
          "name": "",
          "type": "address"
        }
      ],
      "name": "userAmountStaked",
      "outputs": [
        {
          "internalType": "uint256",
          "name": "",
          "type": "uint256"
        }
      ],
      "stateMutability": "view",
      "type": "function"
    },
    {
      "inputs": [
        {
          "internalType": "uint32",
          "name": "",
          "type": "uint32"
        },
        {
          "internalType": "address",
          "name": "",
          "type": "address"
        }
      ],
      "name": "userIndexOfLastClaimedReward",
      "outputs": [
        {
          "internalType": "uint256",
          "name": "",
          "type": "uint256"
        }
      ],
      "stateMutability": "view",
      "type": "function"
    },
    {
      "inputs": [
        {
          "internalType": "uint32",
          "name": "",
          "type": "uint32"
        },
        {
          "internalType": "bool",
          "name": "",
          "type": "bool"
        },
        {
          "internalType": "address",
          "name": "",
          "type": "address"
        }
      ],
      "name": "userNextPrice_amountStakedSyntheticToken_toShiftAwayFrom",
      "outputs": [
        {
          "internalType": "uint256",
          "name": "",
          "type": "uint256"
        }
      ],
      "stateMutability": "view",
      "type": "function"
    },
    {
      "inputs": [
        {
          "internalType": "uint32",
          "name": "",
          "type": "uint32"
        },
        {
          "internalType": "bool",
          "name": "",
          "type": "bool"
        },
        {
          "internalType": "address",
          "name": "",
          "type": "address"
        }
      ],
      "name": "userNextPrice_paymentToken_depositAmount",
      "outputs": [
        {
          "internalType": "uint256",
          "name": "",
          "type": "uint256"
        }
      ],
      "stateMutability": "view",
      "type": "function"
    },
    {
      "inputs": [
        {
          "internalType": "uint32",
          "name": "",
          "type": "uint32"
        },
        {
          "internalType": "address",
          "name": "",
          "type": "address"
        }
      ],
      "name": "userNextPrice_stakedActionIndex",
      "outputs": [
        {
          "internalType": "uint256",
          "name": "",
          "type": "uint256"
        }
      ],
      "stateMutability": "view",
      "type": "function"
    },
    {
      "inputs": [
        {
          "internalType": "address",
          "name": "",
          "type": "address"
        }
      ],
      "name": "userNonce",
      "outputs": [
        {
          "internalType": "uint32",
          "name": "",
          "type": "uint32"
        }
      ],
      "stateMutability": "view",
      "type": "function"
    },
    {
      "inputs": [
        {
          "internalType": "uint32",
          "name": "marketIndex",
          "type": "uint32"
        },
        {
          "internalType": "bool",
          "name": "isWithdrawFromLong",
          "type": "bool"
        },
        {
          "internalType": "uint256",
          "name": "amount",
          "type": "uint256"
        }
      ],
      "name": "withdraw",
      "outputs": [],
      "stateMutability": "nonpayable",
      "type": "function"
    },
    {
      "inputs": [
        {
          "internalType": "uint32",
          "name": "marketIndex",
          "type": "uint32"
        },
        {
          "internalType": "bool",
          "name": "isWithdrawFromLong",
          "type": "bool"
        }
      ],
      "name": "withdrawAll",
      "outputs": [],
      "stateMutability": "nonpayable",
      "type": "function"
    },
    {
      "inputs": [
        {
          "internalType": "uint32",
          "name": "marketIndex",
          "type": "uint32"
        },
        {
          "internalType": "bool",
          "name": "isWithdrawFromLong",
          "type": "bool"
        },
        {
          "internalType": "uint256",
          "name": "withdrawAmount",
          "type": "uint256"
        },
        {
          "internalType": "uint256",
          "name": "expiry",
          "type": "uint256"
        },
        {
          "internalType": "uint256",
          "name": "nonce",
          "type": "uint256"
        },
        {
          "internalType": "uint256",
          "name": "discountWithdrawFee",
          "type": "uint256"
        },
        {
          "internalType": "uint8",
          "name": "v",
          "type": "uint8"
        },
        {
          "internalType": "bytes32",
          "name": "r",
          "type": "bytes32"
        },
        {
          "internalType": "bytes32",
          "name": "s",
          "type": "bytes32"
        }
      ],
      "name": "withdrawWithVoucher",
      "outputs": [],
      "stateMutability": "nonpayable",
      "type": "function"
    }
  ],
  "transactionHash": "0x4cb468bc924af78d0594fcc97108ca06f6a5c57c59a96e43283d55ae827e33a5",
  "args": [],
  "solcInputHash": "c8dcfeaca1cb5116deb593ea356b6c1e",
  "bytecode": "0x60a06040523060805234801561001457600080fd5b5060805161530f61004560003960008181610d8a01528181610dca01528181610e530152610e93015261530f6000f3fe6080604052600436106103355760003560e01c80639441752f116101ab578063c2b80072116100f7578063eae5a8d911610095578063f344acc91161006f578063f344acc914610ba3578063f5a2c77b14610bc3578063f72c0d8b14610be3578063f9fe734e14610c1757600080fd5b8063eae5a8d914610b35578063edb010d714610b55578063ef9c305214610b7557600080fd5b8063dc86fe50116100d1578063dc86fe5014610a99578063e39ac04414610ac7578063e68f3dbe14610af5578063e955a34814610b1557600080fd5b8063c2b8007214610a25578063cf62dbe914610a64578063d547741f14610a7957600080fd5b8063b12b25c011610164578063bda69fd81161013e578063bda69fd81461098c578063be751cb7146109ac578063c16199e3146109cc578063c17f8ce9146109ec57600080fd5b8063b12b25c01461091e578063b45e86cf14610933578063ba89f7b81461096c57600080fd5b80639441752f146108285780639e59fd0f14610867578063a217fddf14610887578063a538415c1461089c578063b054c4a1146108bc578063b0956b5f146108fe57600080fd5b80634f1ef2861161028557806375b238fc1161022357806385fcb8e3116101fd57806385fcb8e31461079657806386cbde1f146107c45780638e659c08146107e857806391d148541461080857600080fd5b806375b238fc146107225780637a02db36146107565780637f10bc531461077657600080fd5b80636a5304df1161025f5780636a5304df146106935780636c305055146106c157806372b124da146106e2578063738f4b8e1461070257600080fd5b80634f1ef286146106315780635892457d146106445780635ac76ce11461065a57600080fd5b806329949872116102f257806336568abe116102cc57806336568abe146105355780633659cfe6146105555780633733cf49146105755780633ebff44f146105a957600080fd5b806329949872146104a95780632e04b8e7146104e15780632f2ff15d1461051557600080fd5b806301ffc9a71461033a5780630ca5a0521461036f57806313e8868a1461039157806315b2485c146103cd57806315f2081d14610430578063248a9ca314610479575b600080fd5b34801561034657600080fd5b5061035a61035536600461458b565b610c45565b60405190151581526020015b60405180910390f35b34801561037b57600080fd5b5061038f61038a3660046145c7565b610c7c565b005b34801561039d57600080fd5b506103bf6103ac3660046145f3565b6101306020526000908152604090205481565b604051908152602001610366565b3480156103d957600080fd5b506104156103e83660046145c7565b61019260209081526000928352604080842090915290825290208054600182015460029092015490919083565b60408051938452602084019290925290820152606001610366565b34801561043c57600080fd5b5061046461044b36600461462c565b6101626020526000908152604090205463ffffffff1681565b60405163ffffffff9091168152602001610366565b34801561048557600080fd5b506103bf610494366004614647565b60009081526065602052604090206001015490565b3480156104b557600080fd5b5060fe546104c9906001600160a01b031681565b6040516001600160a01b039091168152602001610366565b3480156104ed57600080fd5b506104646104fc36600461462c565b6101636020526000908152604090205463ffffffff1681565b34801561052157600080fd5b5061038f610530366004614660565b610cd1565b34801561054157600080fd5b5061038f610550366004614660565b610cfc565b34801561056157600080fd5b5061038f61057036600461462c565b610d7f565b34801561058157600080fd5b506103bf7fce9a6d3180818296cf6add4d55c45a6cd9e315597ee1da1e2313c503391736cd81565b3480156105b557600080fd5b506106056105c43660046145c7565b61019360209081526000928352604080842090915290825290205463ffffffff8116906001600160701b036401000000008204811691600160901b90041683565b6040805163ffffffff90941684526001600160701b039283166020850152911690820152606001610366565b61038f61063f3660046146a2565b610e48565b34801561065057600080fd5b506103bf60fd5481565b34801561066657600080fd5b506103bf610675366004614764565b6101c060209081526000928352604080842090915290825290205481565b34801561069f57600080fd5b506103bf6106ae3660046145f3565b61012e6020526000908152604090205481565b3480156106cd57600080fd5b50610100546104c9906001600160a01b031681565b3480156106ee57600080fd5b5061038f6106fd36600461479e565b610efe565b34801561070e57600080fd5b5061038f61071d366004614876565b611419565b34801561072e57600080fd5b506103bf7fa49807205ce4d355092ef5a8a18f56e8913cf4a201fbe287825b095693c2177581565b34801561076257600080fd5b506103bf6107713660046145c7565b6114e7565b34801561078257600080fd5b5061038f610791366004614764565b611537565b3480156107a257600080fd5b506103bf6107b13660046145f3565b6101336020526000908152604090205481565b3480156107d057600080fd5b506103bf6cd73d4c35b9df8aa7d6c3003573602c1b81565b3480156107f457600080fd5b5061038f6108033660046148b8565b6115ba565b34801561081457600080fd5b5061035a610823366004614660565b61173b565b34801561083457600080fd5b506103bf610843366004614948565b6101f060209081526000938452604080852082529284528284209052825290205481565b34801561087357600080fd5b5061038f610882366004614647565b611766565b34801561089357600080fd5b506103bf600081565b3480156108a857600080fd5b5061038f6108b736600461498f565b6117ad565b3480156108c857600080fd5b506104c96108d736600461498f565b6101346020908152600092835260408084209091529082529020546001600160a01b031681565b34801561090a57600080fd5b5061038f6109193660046149c8565b6118a4565b34801561092a57600080fd5b5061038f611ba4565b34801561093f57600080fd5b506103bf61094e366004614764565b6101ef60209081526000928352604080842090915290825290205481565b34801561097857600080fd5b5060fb546104c9906001600160a01b031681565b34801561099857600080fd5b5061038f6109a7366004614a3b565b611e0d565b3480156109b857600080fd5b5061038f6109c7366004614a87565b611f3b565b3480156109d857600080fd5b5060fc546104c9906001600160a01b031681565b3480156109f857600080fd5b506103bf610a07366004614ac2565b6101c160209081526000928352604080842090915290825290205481565b348015610a3157600080fd5b506103bf610a40366004614948565b6101f160209081526000938452604080852082529284528284209052825290205481565b348015610a7057600080fd5b506103bf605081565b348015610a8557600080fd5b5061038f610a94366004614660565b611fa3565b348015610aa557600080fd5b506103bf610ab43660046145f3565b6101326020526000908152604090205481565b348015610ad357600080fd5b506103bf610ae23660046145f3565b6101916020526000908152604090205481565b348015610b0157600080fd5b5061038f610b10366004614ade565b611fc9565b348015610b2157600080fd5b5061038f610b30366004614afa565b6121cf565b348015610b4157600080fd5b5060ff546104c9906001600160a01b031681565b348015610b6157600080fd5b5061038f610b70366004614b3b565b612219565b348015610b8157600080fd5b506103bf610b903660046145f3565b61012f6020526000908152604090205481565b348015610baf57600080fd5b5061038f610bbe366004614b7d565b6124c1565b348015610bcf57600080fd5b5061038f610bde366004614bc8565b612530565b348015610bef57600080fd5b506103bf7f189ab7a9244df0848122154315af71fe140f3db0fe014031783b0946b8c9d2e381565b348015610c2357600080fd5b506103bf610c323660046145f3565b6101316020526000908152604090205481565b60006001600160e01b03198216637965db0b60e01b1480610c7657506301ffc9a760e01b6001600160e01b03198316145b92915050565b610c846125e7565b610c8e8282612613565b6040805163ffffffff84168152602081018390527feb76801ec75076256b8590fd7c621c2541531e6b9ac568389fa5cdf72e664844910160405180910390a15050565b600082815260656020526040902060010154610ced8133612641565b610cf783836126a5565b505050565b6001600160a01b0381163314610d715760405162461bcd60e51b815260206004820152602f60248201527f416363657373436f6e74726f6c3a2063616e206f6e6c792072656e6f756e636560448201526e103937b632b9903337b91039b2b63360891b60648201526084015b60405180910390fd5b610d7b828261272b565b5050565b306001600160a01b037f0000000000000000000000000000000000000000000000000000000000000000161415610dc85760405162461bcd60e51b8152600401610d6890614c19565b7f00000000000000000000000000000000000000000000000000000000000000006001600160a01b0316610dfa612792565b6001600160a01b031614610e205760405162461bcd60e51b8152600401610d6890614c65565b610e29816127c0565b60408051600080825260208201909252610e45918391906127eb565b50565b306001600160a01b037f0000000000000000000000000000000000000000000000000000000000000000161415610e915760405162461bcd60e51b8152600401610d6890614c19565b7f00000000000000000000000000000000000000000000000000000000000000006001600160a01b0316610ec3612792565b6001600160a01b031614610ee95760405162461bcd60e51b8152600401610d6890614c65565b610ef2826127c0565b610d7b828260016127eb565b610100546040516324b4085360e21b81523360048201819052916001600160a01b0316906392d0214c90602401600060405180830381600087803b158015610f4557600080fd5b505af1158015610f59573d6000803e3d6000fd5b50505050610f65600190565b610f9c5760405162461bcd60e51b8152602060048201526008602482015267111254d05093115160c21b6044820152606401610d68565b60008811610fbc5760405162461bcd60e51b8152600401610d6890614cb1565b604080516001600160e01b031960e08d901b166020808301919091528b151560f81b60248301526bffffffffffffffffffffffff193360601b166025830152603982018b9052605982018a90526079820189905260998083018990528351808403909101815260b9830184528051908201207f19457468657265756d205369676e6564204d6573736167653a0a33320000000060d984015260f5808401919091528351808403909101815261011590920190925280519101206000906001906040805160008152602081018083529290925260ff881690820152606081018690526080810185905260a0016020604051602081039080840390855afa1580156110c9573d6000803e3d6000fd5b5050506020604051035190506110ff7fce9a6d3180818296cf6add4d55c45a6cd9e315597ee1da1e2313c503391736cd8261173b565b508742106111405760405162461bcd60e51b815260206004820152600e60248201526d18dbdd5c1bdb88195e1c1a5c995960921b6044820152606401610d68565b336000908152610163602052604090205463ffffffff1687146111955760405162461bcd60e51b815260206004820152600d60248201526c696e76616c6964206e6f6e636560981b6044820152606401610d68565b63ffffffff8b166000908152610130602052604090205486106111ed5760405162461bcd60e51b815260206004820152601060248201526f62616420646973636f756e742066656560801b6044820152606401610d68565b336000908152610163602052604090205461120f9063ffffffff166001614d0d565b33600090815261016360209081526040808320805463ffffffff191663ffffffff958616179055928e16825261013481528282208d15158352905220546001600160a01b03166112618c8c8c8461292f565b6000670de0b6b3a7640000611276898d614d35565b6112809190614d6a565b60fc5460405163a9059cbb60e01b81526001600160a01b0391821660048201526024810183905291925083169063a9059cbb906044016020604051808303816000875af11580156112d5573d6000803e3d6000fd5b505050506040513d601f19601f820116820180604052508101906112f99190614d7e565b506001600160a01b03821663a9059cbb33611314848f614d9b565b6040516001600160e01b031960e085901b1681526001600160a01b03909216600483015260248201526044016020604051808303816000875af115801561135f573d6000803e3d6000fd5b505050506040513d601f19601f820116820180604052508101906113839190614d7e565b50604080513381526001600160a01b03841660208201529081018c90527fb7c918e0e249f999e965cafeb6c664271b3f4317d296461500e71da39f0cbda39060600160405180910390a17f51166d74b9041059d05669e5c6db433bc09909bd98b6014d1f4f29a9812ee0fd33838d846040516114029493929190614db2565b60405180910390a150505050505050505050505050565b610100546040516324b4085360e21b81523360048201819052916001600160a01b0316906392d0214c90602401600060405180830381600087803b15801561146057600080fd5b505af1158015611474573d6000803e3d6000fd5b505060fe54604051636c8d2b9760e01b81526001600160a01b039091169250636c8d2b9791506114aa9086908690600401614ddb565b600060405180830381600087803b1580156114c457600080fd5b505af11580156114d8573d6000803e3d6000fd5b50505050610cf7838333612a61565b63ffffffff8281166000908152610193602090815260408083208584529091529020541680610c76575063ffffffff91909116600090815261019260209081526040808320938352929052205490565b63ffffffff821660008181526101ef602090815260408083206001600160a01b038616808552908352818420549484526101c083528184209084529091529020548110801561158557508015155b15610cf75763ffffffff9290921660009081526101c0602090815260408083206001600160a01b039490941683529290522055565b6115c388612b50565b6001600160a01b038816158015906115e357506001600160a01b03871615155b80156115f757506001600160a01b03861615155b801561160b57506001600160a01b03851615155b801561161f57506001600160a01b03841615155b801561163357506001600160a01b03811615155b801561163e57508115155b61164757600080fd5b60fb80546001600160a01b03199081166001600160a01b038781169190911790925560fc8054821688841617905560fe805482168a841617905560ff8054821689841617905561010080549091169183169190911790556116c87fce9a6d3180818296cf6add4d55c45a6cd9e315597ee1da1e2313c503391736cd84612c22565b6116d182612c2c565b604080516001600160a01b03808b1682528088166020830152808716928201929092529087166060820152608081018390527faf92ca815edd9a90dc4aa1dfc722fb1624d5b5f914b25ae3cf979ce6600f0a969060a0015b60405180910390a15050505050505050565b60009182526065602090815260408084206001600160a01b0393909316845291905290205460ff1690565b61176e6125e7565b61177781612c2c565b6040518181527f062ffcd555faf2b2c81f26010ee6db2e23106941bfed5ae979abd111975d815d9060200160405180910390a150565b60fe546040516305c8146f60e01b815263ffffffff841660048201526001600160a01b03909116906305c8146f90602401600060405180830381600087803b1580156117f857600080fd5b505af115801561180c573d6000803e3d6000fd5b5050505061181a8233612c52565b63ffffffff8216600081815261013460209081526040808320851515808552908352818420546001600160a01b03168085526101c184528285203380875281865284872080549888526101f0875285882094885293865284872090875285529290942054919092529081905590919061189d85846118988486614d9b565b612cc4565b5050505050565b6118ac612f09565b670de0b6b3a764000085101561190f5760405162461bcd60e51b815260206004820152602260248201527f6b496e697469616c4d756c7469706c696572206d757374206265203e3d203165604482015261062760f31b6064820152608401610d68565b6000603290508861016260008a6001600160a01b03166001600160a01b0316815260200190815260200160002060006101000a81548163ffffffff021916908363ffffffff160217905550886101626000896001600160a01b03166001600160a01b0316815260200190815260200160002060006101000a81548163ffffffff021916908363ffffffff1602179055504261019360008b63ffffffff1663ffffffff168152602001908152602001600020600080815260200190815260200160002060000160006101000a81548163ffffffff021916908363ffffffff1602179055508761013460008b63ffffffff1663ffffffff1681526020019081526020016000206000600115151515815260200190815260200160002060006101000a8154816001600160a01b0302191690836001600160a01b031602179055508661013460008b63ffffffff1663ffffffff16815260200190815260200160002060008015151515815260200190815260200160002060006101000a8154816001600160a01b0302191690836001600160a01b03160217905550611ab389848484612f53565b63ffffffff8916600090815261012e6020908152604080832088905561012f9091529020869055611ae48985612613565b6040805163ffffffff8b16815260208101869052908101869052606081018790526080810184905260a0810183905260c081018290527fe0bc2edbe91b35919ee6608af52675476a1cb964af5d671c9e2c018d3cae98919060e00160405180910390a16040805163ffffffff8b16815260006020820181905291810182905260608101919091527f65663e89e16ccfe470dd659bacdf6fddae8185e108d00bc980d34be7e86466d0906080015b60405180910390a1505050505050505050565b600080527f486ff8510ed3a8bd8fa99e6b19b446e53008986cfe7e8b76d7459f84f14d24746020527ff880f059d311db1b4e72591e87305db7c75048ef85843391c5a8998da16675b45463ffffffff16611dd75760fe5460408051630c6c321960e31b815290516000926001600160a01b03169163636190c89160048083019260209291908290030181865afa158015611c42573d6000803e3d6000fd5b505050506040513d601f19601f82011682018060405250810190611c669190614e26565b63ffffffff16905060015b818163ffffffff1611611dd45763ffffffff8181166000818152610192602090815260408083208380528083528184205485855261019384528285208580528452828520805463ffffffff191691881691909117905593835261019182528083205481516060810183528185528584529184208054909616825292839052928152600193909301549092820190611d0a9060501c6131ee565b6001600160701b0316815263ffffffff8416600090815261019260209081526040808320868452825290912060020154910190611d499060501c6131ee565b6001600160701b0390811690915263ffffffff80851660009081526101936020908152604080832096835295815290859020845181549286015195909601518416600160901b026001600160901b0395909416640100000000026001600160901b03199092169590921694909417939093179190911617905580611dcc81614e43565b915050611c71565b50505b604051600181527f7f8b9abe2c2fb85d0402e1c78c31e287c70cac837029836df3d5c6351033829b9060200160405180910390a1565b611e15612f09565b600080611e3088611e2760018a614d9b565b8888888861325b565b9150915060405180606001604052804263ffffffff168152602001611e58605085901c6131ee565b6001600160701b03168152602001611e73605084901c6131ee565b6001600160701b0390811690915263ffffffff8a81166000818152610193602090815260408083208e845282528083208751815489850151998401518916600160901b026001600160901b039a909916640100000000026001600160901b031990911691909716179590951796909616949094179092558082526101918352908390208a90558251908152908101899052908101839052606081018290527f65663e89e16ccfe470dd659bacdf6fddae8185e108d00bc980d34be7e86466d090608001611729565b611f436125e7565b611f4f84848484612f53565b6040805163ffffffff8616815260208101859052908101839052606081018290527f940844064f9f8938ffe6a879f6143788f9f7e81daf872fee4fe2387b7cf9448d9060800160405180910390a150505050565b600082815260656020526040902060010154611fbf8133612641565b610cf7838361272b565b33611fd381613313565b610100546040516324b4085360e21b81526001600160a01b038086166004830152859216906392d0214c90602401600060405180830381600087803b15801561201b57600080fd5b505af115801561202f573d6000803e3d6000fd5b505050506000831161208f5760405162461bcd60e51b815260206004820152602360248201527f5374616b6520616d6f756e74206d75737420626520677265617465722074686160448201526206e20360ec1b6064820152608401610d68565b3360009081526101626020526040908190205460fe5491516305c8146f60e01b815263ffffffff90911660048201819052916001600160a01b0316906305c8146f90602401600060405180830381600087803b1580156120ee57600080fd5b505af1158015612102573d6000803e3d6000fd5b505050506121108186613371565b63ffffffff8116600090815261019160209081526040808320543384526101c183528184206001600160a01b038a1685529092528220805491928792612157908490614e67565b909155505063ffffffff821660009081526101c0602090815260408083206001600160a01b038a16845290915290819020829055517fef7c8dfef14cbefdf829b8f066b068b677992411137321d64b3ed4538c2b3637906121bf908890339089908690614db2565b60405180910390a1505050505050565b63ffffffff831660009081526101346020908152604080832085151584529091529020546001600160a01b03166122088484848461292f565b612213848284612cc4565b50505050565b81336122258282613371565b610100546040516324b4085360e21b81523360048201819052916001600160a01b0316906392d0214c90602401600060405180830381600087803b15801561226c57600080fd5b505af1158015612280573d6000803e3d6000fd5b50505050600086116122c65760405162461bcd60e51b815260206004820152600f60248201526e2737903d32b9379039b434b33a399760891b6044820152606401610d68565b63ffffffff8516600081815261013460209081526040808320881515808552908352818420549484526101f0835281842090845282528083203384529091528120546001600160a01b039092169161231e9089614e67565b6001600160a01b03831660009081526101c1602090815260408083203384529091529020549091508111156123955760405162461bcd60e51b815260206004820152601a60248201527f4e6f7420656e6f75676820746f6b656e7320746f2073686966740000000000006044820152606401610d68565b60fe546040516371fd962360e01b815263ffffffff89166004820152602481018a905287151560448201526001600160a01b03909116906371fd962390606401600060405180830381600087803b1580156123ef57600080fd5b505af1158015612403573d6000803e3d6000fd5b5050505063ffffffff871660008181526101f0602090815260408083208a151584528252808320338452825280832085905592825261019190529081205461244c906001614e67565b63ffffffff891660008181526101ef6020908152604080832033808552908352928190208590558051928352908201929092529081018b90528815156060820152608081018290529091507f1393b60b20fc61ac59730bbda202288e21de9c963502cfe81fcb843b427d46e29060a001611b91565b60fe54604051636c8d2b9760e01b81526001600160a01b0390911690636c8d2b97906124f39086908690600401614ddb565b600060405180830381600087803b15801561250d57600080fd5b505af1158015612521573d6000803e3d6000fd5b50505050610cf7838383612a61565b612538612f09565b83816125448282613371565b63ffffffff861660009081526101f160209081526040808320871515845282528083206001600160a01b038716845290915281208054879290612588908490614e67565b909155505063ffffffff8616600090815261019160205260409020546125af906001614e67565b63ffffffff90961660009081526101ef602090815260408083206001600160a01b039096168352949052929092209490945550505050565b6126117fa49807205ce4d355092ef5a8a18f56e8913cf4a201fbe287825b095693c2177533612641565b565b66b1a2bc2ec5000081111561262757600080fd5b63ffffffff90911660009081526101306020526040902055565b61264b828261173b565b610d7b57612663816001600160a01b031660146133f5565b61266e8360206133f5565b60405160200161267f929190614eab565b60408051601f198184030181529082905262461bcd60e51b8252610d6891600401614f20565b6126af828261173b565b610d7b5760008281526065602090815260408083206001600160a01b03851684529091529020805460ff191660011790556126e73390565b6001600160a01b0316816001600160a01b0316837f2f8788117e7eff1d82e926ec794901d17c78024a50270940304540a733656f0d60405160405180910390a45050565b612735828261173b565b15610d7b5760008281526065602090815260408083206001600160a01b0385168085529252808320805460ff1916905551339285917ff6391f5c32d9c69d2a47ea670b442974b53935d1edc7fd64eb21e047a839171b9190a45050565b7f360894a13ba1a3210667c828492db98dca3e2076cc3735a920a3ca505d382bbc546001600160a01b031690565b7f189ab7a9244df0848122154315af71fe140f3db0fe014031783b0946b8c9d2e3610d7b8133612641565b60006127f5612792565b905061280084613598565b60008351118061280d5750815b1561281e5761281c848461363d565b505b7f4910fdfa16fed3260ed0e7147f7cc6da11a60208b5b9406d12a635614ffd9143805460ff1661189d57805460ff191660011781556040516001600160a01b038316602482015261289d90869060440160408051601f198184030181529190526020810180516001600160e01b0316631b2ce7f360e11b17905261363d565b50805460ff191681556128ae612792565b6001600160a01b0316826001600160a01b0316146129265760405162461bcd60e51b815260206004820152602f60248201527f45524331393637557067726164653a207570677261646520627265616b73206660448201526e75727468657220757067726164657360881b6064820152608401610d68565b61189d85613728565b60fe546040516305c8146f60e01b815263ffffffff861660048201526001600160a01b03909116906305c8146f90602401600060405180830381600087803b15801561297a57600080fd5b505af115801561298e573d6000803e3d6000fd5b5050505061299c8433612c52565b6001600160a01b03811660009081526101c160209081526040808320338085529083528184205463ffffffff891685526101f0845282852088151586528452828520918552925290912054838101821015612a325760405162461bcd60e51b81526020600482015260166024820152756e6f7420656e6f75676820746f20776974686472617760501b6044820152606401610d68565b506001600160a01b0390911660009081526101c160209081526040808320338452909152902091900390555050565b600082815b81811015612b3f576000612aa0878784818110612a8557612a85614f53565b9050602002016020810190612a9a91906145f3565b86613768565b90508015612b2c57612ab28185614e67565b93507f2f0b57f663333228518fca119813fe0f6daeb5f19d087965f56b45fecf2d520585888885818110612ae857612ae8614f53565b9050602002016020810190612afd91906145f3565b604080516001600160a01b03909316835263ffffffff9091166020830152810183905260600160405180910390a15b5080612b3781614f69565b915050612a66565b50811561189d5761189d8383613dd9565b600054610100900460ff16612b6b5760005460ff1615612b6f565b303b155b612bd25760405162461bcd60e51b815260206004820152602e60248201527f496e697469616c697a61626c653a20636f6e747261637420697320616c72656160448201526d191e481a5b9a5d1a585b1a5e995960921b6064820152608401610d68565b600054610100900460ff16158015612bf4576000805461ffff19166101011790555b612bfc613edd565b612c04613f1c565b612c0d82613f43565b8015610d7b576000805461ff00191690555050565b610d7b82826126a5565b670de0b6b3a76400008111158015612c445750600081115b612c4d57600080fd5b60fd55565b6000612c5e8383613768565b90508015610cf757612c708282613dd9565b604080516001600160a01b038416815263ffffffff851660208201529081018290527f2f0b57f663333228518fca119813fe0f6daeb5f19d087965f56b45fecf2d52059060600160405180910390a1505050565b610100546040516324b4085360e21b81523360048201819052916001600160a01b0316906392d0214c90602401600060405180830381600087803b158015612d0b57600080fd5b505af1158015612d1f573d6000803e3d6000fd5b5050505060008211612d435760405162461bcd60e51b8152600401610d6890614cb1565b63ffffffff841660009081526101306020526040812054670de0b6b3a764000090612d6e9085614d35565b612d789190614d6a565b60fc5460405163a9059cbb60e01b81526001600160a01b0391821660048201526024810183905291925085169063a9059cbb906044016020604051808303816000875af1158015612dcd573d6000803e3d6000fd5b505050506040513d601f19601f82011682018060405250810190612df19190614d7e565b506001600160a01b03841663a9059cbb33612e0c8487614d9b565b6040516001600160e01b031960e085901b1681526001600160a01b03909216600483015260248201526044016020604051808303816000875af1158015612e57573d6000803e3d6000fd5b505050506040513d601f19601f82011682018060405250810190612e7b9190614d7e565b50604080513381526001600160a01b03861660208201529081018490527fb7c918e0e249f999e965cafeb6c664271b3f4317d296461500e71da39f0cbda39060600160405180910390a17f51166d74b9041059d05669e5c6db433bc09909bd98b6014d1f4f29a9812ee0fd33858584604051612efa9493929190614db2565b60405180910390a15050505050565b60fe546001600160a01b031633146126115760405162461bcd60e51b815260206004820152600d60248201526c1b9bdd08131bdb99d4da1bdc9d609a1b6044820152606401610d68565b670c7d713b49d9ffff1982138015612f725750670c7d713b49da000082125b612fdc5760405162461bcd60e51b815260206004820152603560248201527f62616c616e6365496e63656e7469766543757276655f657175696c69627269756044820152746d4f6666736574206f7574206f6620626f756e647360581b6064820152608401610d68565b600083116130415760405162461bcd60e51b815260206004820152602c60248201527f62616c616e6365496e63656e7469766543757276655f6578706f6e656e74206f60448201526b7574206f6620626f756e647360a01b6064820152608401610d68565b6064811061309f5760405162461bcd60e51b815260206004820152602560248201527f736166654578706f6e656e744269745368696674696e67206f7574206f6620626044820152646f756e647360d81b6064820152608401610d68565b60fe5460405163aca36d7b60e01b815263ffffffff8616600482015260009182916001600160a01b039091169063aca36d7b906024016040805180830381865afa1580156130f1573d6000803e3d6000fd5b505050506040513d601f19601f820116820180604052508101906131159190614f9b565b915091506000816001600160801b0316836001600160801b03166131399190614e67565b90508584613149836101f4614d35565b61315492911c6150a9565b50606481851c116131b75760405162461bcd60e51b815260206004820152602760248201527f626974207368696674696e6720746f6f206c6172676520666f7220746f74616c604482015266081b1bd8dad95960ca1b6064820152608401610d68565b50505063ffffffff909316600090815261013160209081526040808320949094556101328152838220929092556101339091522055565b60006001600160701b038211156132575760405162461bcd60e51b815260206004820152602760248201527f53616665436173743a2076616c756520646f65736e27742066697420696e20316044820152663132206269747360c81b6064820152608401610d68565b5090565b60008060008061326e8a89898989613fb5565b63ffffffff808d166000908152610193602090815260408083208f84529091528120805494965092945091926132a5911642614d9b565b90506132b18482614d35565b82546132d49190640100000000900460501b600160501b600160c01b0316614e67565b6132de8483614d35565b83546133009190600160901b900460501b600160501b600160c01b0316614e67565b9550955050505050965096945050505050565b6001600160a01b0381166000908152610162602052604090205463ffffffff16610e455760405162461bcd60e51b815260206004820152600f60248201526e0dcdee840ecc2d8d2c840e6f2dce8d608b1b6044820152606401610d68565b63ffffffff821660008181526101c0602090815260408083206001600160a01b038616808552908352818420548585526101ef8452828520918552908352818420549484526101919092529091205490919082158015906133d157508083105b806133e6575081158015906133e65750808211155b1561189d5761189d8585612c52565b60606000613404836002614d35565b61340f906002614e67565b67ffffffffffffffff8111156134275761342761468c565b6040519080825280601f01601f191660200182016040528015613451576020820181803683370190505b509050600360fc1b8160008151811061346c5761346c614f53565b60200101906001600160f81b031916908160001a905350600f60fb1b8160018151811061349b5761349b614f53565b60200101906001600160f81b031916908160001a90535060006134bf846002614d35565b6134ca906001614e67565b90505b6001811115613542576f181899199a1a9b1b9c1cb0b131b232b360811b85600f16601081106134fe576134fe614f53565b1a60f81b82828151811061351457613514614f53565b60200101906001600160f81b031916908160001a90535060049490941c9361353b816150b5565b90506134cd565b5083156135915760405162461bcd60e51b815260206004820181905260248201527f537472696e67733a20686578206c656e67746820696e73756666696369656e746044820152606401610d68565b9392505050565b803b6135fc5760405162461bcd60e51b815260206004820152602d60248201527f455243313936373a206e657720696d706c656d656e746174696f6e206973206e60448201526c1bdd08184818dbdb9d1c9858dd609a1b6064820152608401610d68565b7f360894a13ba1a3210667c828492db98dca3e2076cc3735a920a3ca505d382bbc80546001600160a01b0319166001600160a01b0392909216919091179055565b6060823b61369c5760405162461bcd60e51b815260206004820152602660248201527f416464726573733a2064656c65676174652063616c6c20746f206e6f6e2d636f6044820152651b9d1c9858dd60d21b6064820152608401610d68565b600080846001600160a01b0316846040516136b791906150cc565b600060405180830381855af49150503d80600081146136f2576040519150601f19603f3d011682016040523d82523d6000602084013e6136f7565b606091505b509150915061371f82826040518060600160405280602781526020016152b36027913961425e565b95945050505050565b61373181613598565b6040516001600160a01b038216907fbc7cd75a20ee27fd9adebab32041f755214dbc6bffa90cc0225b39da2e5c2d3b90600090a250565b63ffffffff821660008181526101346020908152604080832060018452825280832054838052818420546001600160a01b039182168086526101c180865284872089851680895290875285882054949093168088529086528487208388528652848720548888526101c08752858820938852928652848720549787526101919095529285205494959294919290918082141561380d5760009650505050505050610c76565b63ffffffff891660009081526101ef602090815260408083206001600160a01b038c16845290915290205480158015906138475750818111155b15613d92576138598a86868685614297565b63ffffffff8b1660009081526101f0602090815260408083206001845282528083206001600160a01b038e168452909152902054909850801561396a5760fe54604051630125edfd60e71b815263ffffffff8d1660048201526024810183905260016044820152606481018490526001600160a01b03909116906392f6fe8090608401602060405180830381865afa1580156138f9573d6000803e3d6000fd5b505050506040513d601f19601f8201168201806040525081019061391d91906150e8565b6139279086614e67565b94506139338187614d9b565b63ffffffff8c1660009081526101f0602090815260408083206001845282528083206001600160a01b038f16845290915281205595505b5063ffffffff8a1660009081526101f06020908152604080832083805282528083206001600160a01b038d1684529091529020548015613a775760fe54604051630125edfd60e71b815263ffffffff8d1660048201526024810183905260006044820152606481018490526001600160a01b03909116906392f6fe8090608401602060405180830381865afa158015613a07573d6000803e3d6000fd5b505050506040513d601f19601f82011682018060405250810190613a2b91906150e8565b613a359087614e67565b9550613a418186614d9b565b63ffffffff8c1660009081526101f06020908152604080832083805282528083206001600160a01b038f16845290915281205594505b5063ffffffff8a1660009081526101f1602090815260408083206001845282528083206001600160a01b038d1684529091529020548015613bbf5760fe546040516337bf1cf760e01b815263ffffffff8d16600482015260016024820152604481018490526000916001600160a01b0316906337bf1cf790606401602060405180830381865afa158015613b0f573d6000803e3d6000fd5b505050506040513d601f19601f82011682018060405250810190613b3391906150e8565b905080613b4883670de0b6b3a7640000614d35565b613b529190614d6a565b613b5c9088614e67565b965060006101f160008e63ffffffff1663ffffffff1681526020019081526020016000206000600115151515815260200190815260200160002060008d6001600160a01b03166001600160a01b0316815260200190815260200160002081905550505b5063ffffffff8a1660009081526101f16020908152604080832083805282528083206001600160a01b038d1684529091529020548015613d055760fe546040516337bf1cf760e01b815263ffffffff8d16600482015260006024820181905260448201859052916001600160a01b0316906337bf1cf790606401602060405180830381865afa158015613c56573d6000803e3d6000fd5b505050506040513d601f19601f82011682018060405250810190613c7a91906150e8565b905080613c8f83670de0b6b3a7640000614d35565b613c999190614d6a565b613ca39087614e67565b955060006101f160008e63ffffffff1663ffffffff16815260200190815260200160002060008015151515815260200190815260200160002060008d6001600160a01b03166001600160a01b0316815260200190815260200160002081905550505b6001600160a01b0380891660009081526101c1602081815260408084208f86168086529083528185208c9055948c1684529181528183209383529290925220859055613d548b87878587614297565b613d5e908a614e67565b63ffffffff8c1660009081526101ef602090815260408083206001600160a01b038f1684529091528120559850613da29050565b613d9f8a86868686614297565b97505b5063ffffffff891660009081526101c0602090815260408083206001600160a01b038c168452909152902055505050505092915050565b60ff546040516340c10f1960e01b81526001600160a01b03848116600483015260248201849052909116906340c10f1990604401600060405180830381600087803b158015613e2757600080fd5b505af1158015613e3b573d6000803e3d6000fd5b505060ff5460fb5460fd546001600160a01b0392831694506340c10f199350911690670de0b6b3a764000090613e719086614d35565b613e7b9190614d6a565b6040516001600160e01b031960e085901b1681526001600160a01b0390921660048301526024820152604401600060405180830381600087803b158015613ec157600080fd5b505af1158015613ed5573d6000803e3d6000fd5b505050505050565b600054610100900460ff16613f045760405162461bcd60e51b8152600401610d6890615101565b613f0c614475565b613f14614475565b612611614475565b600054610100900460ff16613f0c5760405162461bcd60e51b8152600401610d6890615101565b6001600160a01b038116613f5657600080fd5b613f61600082612c22565b613f8b7fa49807205ce4d355092ef5a8a18f56e8913cf4a201fbe287825b095693c2177582612c22565b610e457f189ab7a9244df0848122154315af71fe140f3db0fe014031783b0946b8c9d2e382612c22565b6000806000613fc38861449c565b90506000613fd18587614e67565b63ffffffff8a166000908152610132602052604081205491925090671bc16d674ec800009061400190849061514c565b61400b91906151d1565b63ffffffff8b16600090815261013360205260409020549091508761403183600261514c565b61403b90896151ff565b1215614159578682126140615760006140548a86614d35565b9550955050505050614254565b63ffffffff8b1660009081526101316020526040812054614083600184614d9b565b61408d858b6151ff565b61409892911c6150a9565b63ffffffff8d1660009081526101316020526040812054919250906140bf9086851c6150a9565b90506000816140d6846706f05b59d3b20000614d35565b6140e09190614d6a565b905060006140f682670de0b6b3a7640000614d9b565b9050670de0b6b3a76400008e61410c8a85614d35565b6141169190614d35565b6141209190614d6a565b670de0b6b3a76400008e6141348b85614d35565b61413e9190614d35565b6141489190614d6a565b995099505050505050505050614254565b876141638361523e565b12614181576141728a85614d35565b60009550955050505050614254565b63ffffffff8b16600090815261013160205260408120546141a3600184614d9b565b6141ad858c61525b565b6141b892911c6150a9565b63ffffffff8d1660009081526101316020526040812054919250906141df9086851c6150a9565b90506000816141f6846706f05b59d3b20000614d35565b6142009190614d6a565b9050600061421682670de0b6b3a7640000614d9b565b9050670de0b6b3a76400008e61422c8a84614d35565b6142369190614d35565b6142409190614d6a565b670de0b6b3a76400008e6141348b86614d35565b9550959350505050565b6060831561426d575081613591565b82511561427d5782518084602001fd5b8160405162461bcd60e51b8152600401610d689190614f20565b63ffffffff8516600090815261019360209081526040808320848452909152808220848352908220861561439557805482546001600160701b0364010000000092839004811692909104166142ea600190565b1561434e578161431f5763ffffffff8a166000908152610192602090815260408083208a845290915290206001015460501c91505b8061434e575063ffffffff891660009081526101926020908152604080832088845290915290206001015460501c5b6000605061435c8484614d9b565b901b90506cd73d4c35b9df8aa7d6c3003573602c1b61437b8b83614d35565b6143859190614d6a565b61438f9087614e67565b95505050505b851561446a57805482546001600160701b03600160901b92839004811692909104166143bf600190565b1561442357816143f45763ffffffff8a166000908152610192602090815260408083208a845290915290206002015460501c91505b80614423575063ffffffff891660009081526101926020908152604080832088845290915290206002015460501c5b600060506144318484614d9b565b901b90506cd73d4c35b9df8aa7d6c3003573602c1b6144508a83614d35565b61445a9190614d6a565b6144649087614e67565b95505050505b505095945050505050565b600054610100900460ff166126115760405162461bcd60e51b8152600401610d6890615101565b600080806144a984614547565b91509150670de0b6b3a76400008110156144c5576144c561529c565b63ffffffff80851660009081526101936020908152604080832083805290915290205416826144f48242614d9b565b101561453557826145058242614d9b565b614517670de0b6b3a764000085614d9b565b6145219190614d35565b61452b9190614d6a565b61371f9083614d9b565b50505050670de0b6b3a7640000919050565b63ffffffff8116600090815261012e602090815260408083205461012f90925290912054670de0b6b3a76400008110156145865750670de0b6b3a76400005b915091565b60006020828403121561459d57600080fd5b81356001600160e01b03198116811461359157600080fd5b63ffffffff81168114610e4557600080fd5b600080604083850312156145da57600080fd5b82356145e5816145b5565b946020939093013593505050565b60006020828403121561460557600080fd5b8135613591816145b5565b80356001600160a01b038116811461462757600080fd5b919050565b60006020828403121561463e57600080fd5b61359182614610565b60006020828403121561465957600080fd5b5035919050565b6000806040838503121561467357600080fd5b8235915061468360208401614610565b90509250929050565b634e487b7160e01b600052604160045260246000fd5b600080604083850312156146b557600080fd5b6146be83614610565b9150602083013567ffffffffffffffff808211156146db57600080fd5b818501915085601f8301126146ef57600080fd5b8135818111156147015761470161468c565b604051601f8201601f19908116603f011681019083821181831017156147295761472961468c565b8160405282815288602084870101111561474257600080fd5b8260208601602083013760006020848301015280955050505050509250929050565b6000806040838503121561477757600080fd5b8235614782816145b5565b915061468360208401614610565b8015158114610e4557600080fd5b60008060008060008060008060006101208a8c0312156147bd57600080fd5b89356147c8816145b5565b985060208a01356147d881614790565b975060408a0135965060608a0135955060808a0135945060a08a0135935060c08a013560ff8116811461480a57600080fd5b8093505060e08a013591506101008a013590509295985092959850929598565b60008083601f84011261483c57600080fd5b50813567ffffffffffffffff81111561485457600080fd5b6020830191508360208260051b850101111561486f57600080fd5b9250929050565b6000806020838503121561488957600080fd5b823567ffffffffffffffff8111156148a057600080fd5b6148ac8582860161482a565b90969095509350505050565b600080600080600080600080610100898b0312156148d557600080fd5b6148de89614610565b97506148ec60208a01614610565b96506148fa60408a01614610565b955061490860608a01614610565b945061491660808a01614610565b935061492460a08a01614610565b925060c0890135915061493960e08a01614610565b90509295985092959890939650565b60008060006060848603121561495d57600080fd5b8335614968816145b5565b9250602084013561497881614790565b915061498660408501614610565b90509250925092565b600080604083850312156149a257600080fd5b82356149ad816145b5565b915060208301356149bd81614790565b809150509250929050565b600080600080600080600080610100898b0312156149e557600080fd5b88356149f0816145b5565b97506149fe60208a01614610565b9650614a0c60408a01614610565b979a96995096976060810135975060808101359660a0820135965060c0820135955060e0909101359350915050565b60008060008060008060c08789031215614a5457600080fd5b8635614a5f816145b5565b9860208801359850604088013597606081013597506080810135965060a00135945092505050565b60008060008060808587031215614a9d57600080fd5b8435614aa8816145b5565b966020860135965060408601359560600135945092505050565b60008060408385031215614ad557600080fd5b61478283614610565b60008060408385031215614af157600080fd5b6145e583614610565b600080600060608486031215614b0f57600080fd5b8335614b1a816145b5565b92506020840135614b2a81614790565b929592945050506040919091013590565b600080600060608486031215614b5057600080fd5b833592506020840135614b62816145b5565b91506040840135614b7281614790565b809150509250925092565b600080600060408486031215614b9257600080fd5b833567ffffffffffffffff811115614ba957600080fd5b614bb58682870161482a565b9094509250614986905060208501614610565b60008060008060808587031215614bde57600080fd5b8435614be9816145b5565b9350602085013592506040850135614c0081614790565b9150614c0e60608601614610565b905092959194509250565b6020808252602c908201527f46756e6374696f6e206d7573742062652063616c6c6564207468726f7567682060408201526b19195b1959d85d1958d85b1b60a21b606082015260800190565b6020808252602c908201527f46756e6374696f6e206d7573742062652063616c6c6564207468726f7567682060408201526b6163746976652070726f787960a01b606082015260800190565b60208082526026908201527f576974686472617720616d6f756e74206d75737420626520677265617465722060408201526507468616e20360d41b606082015260800190565b634e487b7160e01b600052601160045260246000fd5b600063ffffffff808316818516808303821115614d2c57614d2c614cf7565b01949350505050565b6000816000190483118215151615614d4f57614d4f614cf7565b500290565b634e487b7160e01b600052601260045260246000fd5b600082614d7957614d79614d54565b500490565b600060208284031215614d9057600080fd5b815161359181614790565b600082821015614dad57614dad614cf7565b500390565b6001600160a01b0394851681529290931660208301526040820152606081019190915260800190565b60208082528181018390526000908460408401835b86811015614e1b578235614e03816145b5565b63ffffffff1682529183019190830190600101614df0565b509695505050505050565b600060208284031215614e3857600080fd5b8151613591816145b5565b600063ffffffff80831681811415614e5d57614e5d614cf7565b6001019392505050565b60008219821115614e7a57614e7a614cf7565b500190565b60005b83811015614e9a578181015183820152602001614e82565b838111156122135750506000910152565b7f416363657373436f6e74726f6c3a206163636f756e7420000000000000000000815260008351614ee3816017850160208801614e7f565b7001034b99036b4b9b9b4b733903937b6329607d1b6017918401918201528351614f14816028840160208801614e7f565b01602801949350505050565b6020815260008251806020840152614f3f816040850160208701614e7f565b601f01601f19169190910160400192915050565b634e487b7160e01b600052603260045260246000fd5b6000600019821415614f7d57614f7d614cf7565b5060010190565b80516001600160801b038116811461462757600080fd5b60008060408385031215614fae57600080fd5b614fb783614f84565b915061468360208401614f84565b600181815b80851115615000578160001904821115614fe657614fe6614cf7565b80851615614ff357918102915b93841c9390800290614fca565b509250929050565b60008261501757506001610c76565b8161502457506000610c76565b816001811461503a576002811461504457615060565b6001915050610c76565b60ff84111561505557615055614cf7565b50506001821b610c76565b5060208310610133831016604e8410600b8410161715615083575081810a610c76565b61508d8383614fc5565b80600019048211156150a1576150a1614cf7565b029392505050565b60006135918383615008565b6000816150c4576150c4614cf7565b506000190190565b600082516150de818460208701614e7f565b9190910192915050565b6000602082840312156150fa57600080fd5b5051919050565b6020808252602b908201527f496e697469616c697a61626c653a20636f6e7472616374206973206e6f74206960408201526a6e697469616c697a696e6760a81b606082015260800190565b60006001600160ff1b038184138284138082168684048611161561517257615172614cf7565b600160ff1b600087128281168783058912161561519157615191614cf7565b600087129250878205871284841616156151ad576151ad614cf7565b878505871281841616156151c3576151c3614cf7565b505050929093029392505050565b6000826151e0576151e0614d54565b600160ff1b8214600019841416156151fa576151fa614cf7565b500590565b60008083128015600160ff1b85018412161561521d5761521d614cf7565b6001600160ff1b038401831381161561523857615238614cf7565b50500390565b6000600160ff1b82141561525457615254614cf7565b5060000390565b600080821280156001600160ff1b038490038513161561527d5761527d614cf7565b600160ff1b839003841281161561529657615296614cf7565b50500190565b634e487b7160e01b600052600160045260246000fdfe416464726573733a206c6f772d6c6576656c2064656c65676174652063616c6c206661696c6564a2646970667358221220a34c2998a5327e24d53a44c61eaffbba56cd4ecd3da461a41376e33c85a1ee4064736f6c634300080a0033",
  "devdoc": {
    "kind": "dev",
    "methods": {
      "addNewStakingFund(uint32,address,address,uint256,uint256,uint256,uint256,int256)": {
        "params": {
          "_balanceIncentiveCurve_equilibriumOffset": "Offset for balance curve (see _calculateFloatPerSecond)",
          "_balanceIncentiveCurve_exponent": "Exponent for balance curve (see _calculateFloatPerSecond)",
          "kInitialMultiplier": "Initial boost on float generation for the market.",
          "kPeriod": "Period which the boost should last.",
          "longToken": "Address of the long token for the market.",
          "marketIndex": "Identifies the market.",
          "shortToken": "Address of the short token for the market.",
          "unstakeFee_e18": "Percentage of tokens that are levied on unstaking in base 1e18."
        }
      },
      "changeBalanceIncentiveParameters(uint32,uint256,int256,uint256)": {
        "params": {
          "_balanceIncentiveCurve_equilibriumOffset": "The new offset.",
          "_balanceIncentiveCurve_exponent": "The new exponent for the curve.",
          "_safeExponentBitShifting": "The new bitshifting applied to the curve.",
          "marketIndex": "Identifies the market."
        }
      },
      "changeFloatPercentage(uint256)": {
        "params": {
          "newFloatPercentage": "The new float percentage in base 1e18."
        }
      },
      "changeUnstakeFee(uint32,uint256)": {
        "params": {
          "marketIndex": "Identifies the market.",
          "newMarketUnstakeFee_e18": "The new unstake fee."
        }
      },
      "claimFloatCustom(uint32[])": {
        "params": {
          "marketIndexes": "Identifiers for the markets for which to mint float."
        }
      },
      "claimFloatCustomFor(uint32[],address)": {
        "params": {
          "marketIndexes": "Identifiers for the markets for which to mint float.",
          "user": "The address of the user."
        }
      },
      "getRoleAdmin(bytes32)": {
        "details": "Returns the admin role that controls `role`. See {grantRole} and {revokeRole}. To change a role's admin, use {_setRoleAdmin}."
      },
      "grantRole(bytes32,address)": {
        "details": "Grants `role` to `account`. If `account` had not been already granted `role`, emits a {RoleGranted} event. Requirements: - the caller must have ``role``'s admin role."
      },
      "hasRole(bytes32,address)": {
        "details": "Returns `true` if `account` has been granted `role`."
      },
      "initialize(address,address,address,address,address,address,uint256,address)": {
        "details": "Calls OpenZeppelin's initializer modifier.",
        "params": {
          "_admin": "Address of the admin role.",
          "_floatCapital": "Address of the contract which earns a fixed percentage of Float.",
          "_floatPercentage": "Determines the float percentage that gets minted for Float Capital, base 1e18.",
          "_floatToken": "Address of the Float token earned by staking.",
          "_floatTreasury": "Address of the treasury contract for managing fees.",
          "_longShort": "Address of the LongShort contract, a deployed LongShort.sol"
        }
      },
      "pushUpdatedMarketPricesToUpdateFloatIssuanceCalculations(uint32,uint256,uint256,uint256,uint256,uint256)": {
        "params": {
          "longPrice": "The price of the long token as defined in LongShort.sol",
          "longValue": "The value locked in the long side of the market.",
          "marketIndex": "An identifier for the market.",
          "marketUpdateIndex": "Current update index in the LongShort contract for this market.",
          "shortPrice": "The price of the short token as defined in LongShort.sol",
          "shortValue": "The value locked in the short side of the market."
        }
      },
      "renounceRole(bytes32,address)": {
        "details": "Revokes `role` from the calling account. Roles are often managed via {grantRole} and {revokeRole}: this function's purpose is to provide a mechanism for accounts to lose their privileges if they are compromised (such as when a trusted device is misplaced). If the calling account had been revoked `role`, emits a {RoleRevoked} event. Requirements: - the caller must be `account`."
      },
      "revokeRole(bytes32,address)": {
        "details": "Revokes `role` from `account`. If `account` had been granted `role`, emits a {RoleRevoked} event. Requirements: - the caller must have ``role``'s admin role."
      },
      "shiftTokens(uint256,uint32,bool)": {
        "params": {
          "amountSyntheticTokensToShift": "Amount of tokens to shift.",
          "isShiftFromLong": "Whether the shift is from long to short or short to long.",
          "marketIndex": "Identifier for the market."
        }
      },
      "stakeFromUser(address,uint256)": {
        "params": {
          "amount": "Amount to stake.",
          "from": "Address to stake for."
        }
      },
      "supportsInterface(bytes4)": {
        "details": "See {IERC165-supportsInterface}."
      },
      "upgradeTo(address)": {
        "details": "Upgrade the implementation of the proxy to `newImplementation`. Calls {_authorizeUpgrade}. Emits an {Upgraded} event."
      },
      "upgradeToAndCall(address,bytes)": {
        "details": "Upgrade the implementation of the proxy to `newImplementation`, and subsequently execute the function call encoded in `data`. Calls {_authorizeUpgrade}. Emits an {Upgraded} event."
      },
      "withdraw(uint32,bool,uint256)": {
        "params": {
          "amount": "Amount to withdraw.",
          "isWithdrawFromLong": "is synthetic token to be withdrawn long or short",
          "marketIndex": "Market index of staked synthetic token"
        }
      },
      "withdrawAll(uint32,bool)": {
        "params": {
          "isWithdrawFromLong": "is synthetic token to be withdrawn long or short",
          "marketIndex": "Market index of staked synthetic token"
        }
      }
    },
    "stateVariables": {
      "userNextPrice_amountStakedSyntheticToken_toShiftAwayFrom": {
        "details": "marketIndex => usersAddress => amountUserRequestedToShiftAwayFromLongOnNextUpdate"
      },
      "userNextPrice_paymentToken_depositAmount": {
        "details": "marketIndex => usersAddress => stakedActionIndex"
      },
      "userNextPrice_stakedActionIndex": {
        "details": "marketIndex => usersAddress => stakedActionIndex"
      }
    },
    "version": 1
  },
  "userdoc": {
    "kind": "user",
    "methods": {
      "addNewStakingFund(uint32,address,address,uint256,uint256,uint256,uint256,int256)": {
        "notice": "Sets this contract to track staking for a market in LongShort.sol"
      },
      "changeBalanceIncentiveParameters(uint32,uint256,int256,uint256)": {
        "notice": "Changes the balance incentive exponent for a market"
      },
      "changeFloatPercentage(uint256)": {
        "notice": "Changes percentage of float that is minted for float capital."
      },
      "changeUnstakeFee(uint32,uint256)": {
        "notice": "Changes unstake fee for a market"
      },
      "claimFloatCustom(uint32[])": {
        "notice": "Mints outstanding float for msg.sender."
      },
      "claimFloatCustomFor(uint32[],address)": {
        "notice": "Mints outstanding float on behalf of another user."
      },
      "initialize(address,address,address,address,address,address,uint256,address)": {
        "notice": "Initializes the contract."
      },
      "pushUpdatedMarketPricesToUpdateFloatIssuanceCalculations(uint32,uint256,uint256,uint256,uint256,uint256)": {
        "notice": "Adds new accumulativeIssuancePerStakedSynthSnapshots for the given long/short tokens. Called by the ILongShort contract whenever there is a state change for a market."
      },
      "shiftTokens(uint256,uint32,bool)": {
        "notice": "Allows users to shift their staked tokens from one side of the market to the other at the next price."
      },
      "stakeFromUser(address,uint256)": {
        "notice": "A user with synthetic tokens stakes by calling stake on the token contract which calls this function. We need to first update the state of the LongShort contract for this market before staking to correctly calculate user rewards."
      },
      "withdraw(uint32,bool,uint256)": {
        "notice": "Withdraw function. Allows users to unstake."
      },
      "withdrawAll(uint32,bool)": {
        "notice": "Allows users to withdraw their entire stake for a token."
      }
    },
    "version": 1
  },
  "storageLayout": {
    "storage": [
      {
        "astId": 1051,
        "contract": "contracts/staker/template/Staker.sol:Staker",
        "label": "_initialized",
        "offset": 0,
        "slot": "0",
        "type": "t_bool"
      },
      {
        "astId": 1054,
        "contract": "contracts/staker/template/Staker.sol:Staker",
        "label": "_initializing",
        "offset": 1,
        "slot": "0",
        "type": "t_bool"
      },
      {
        "astId": 5350,
        "contract": "contracts/staker/template/Staker.sol:Staker",
        "label": "__gap",
        "offset": 0,
        "slot": "1",
        "type": "t_array(t_uint256)50_storage"
      },
      {
        "astId": 6272,
        "contract": "contracts/staker/template/Staker.sol:Staker",
        "label": "__gap",
        "offset": 0,
        "slot": "51",
        "type": "t_array(t_uint256)50_storage"
      },
      {
        "astId": 250,
        "contract": "contracts/staker/template/Staker.sol:Staker",
        "label": "_roles",
        "offset": 0,
        "slot": "101",
        "type": "t_mapping(t_bytes32,t_struct(RoleData)245_storage)"
      },
      {
        "astId": 537,
        "contract": "contracts/staker/template/Staker.sol:Staker",
        "label": "__gap",
        "offset": 0,
        "slot": "102",
        "type": "t_array(t_uint256)49_storage"
      },
      {
        "astId": 1033,
        "contract": "contracts/staker/template/Staker.sol:Staker",
        "label": "__gap",
        "offset": 0,
        "slot": "151",
        "type": "t_array(t_uint256)50_storage"
      },
      {
        "astId": 1228,
        "contract": "contracts/staker/template/Staker.sol:Staker",
        "label": "__gap",
        "offset": 0,
        "slot": "201",
        "type": "t_array(t_uint256)50_storage"
      },
      {
        "astId": 24052,
        "contract": "contracts/staker/template/Staker.sol:Staker",
        "label": "floatCapital",
        "offset": 0,
        "slot": "251",
        "type": "t_address"
      },
      {
        "astId": 24054,
        "contract": "contracts/staker/template/Staker.sol:Staker",
        "label": "floatTreasury",
        "offset": 0,
        "slot": "252",
        "type": "t_address"
      },
      {
        "astId": 24056,
        "contract": "contracts/staker/template/Staker.sol:Staker",
        "label": "floatPercentage",
        "offset": 0,
        "slot": "253",
        "type": "t_uint256"
      },
      {
        "astId": 24058,
        "contract": "contracts/staker/template/Staker.sol:Staker",
        "label": "longShort",
        "offset": 0,
        "slot": "254",
        "type": "t_address"
      },
      {
        "astId": 24060,
        "contract": "contracts/staker/template/Staker.sol:Staker",
        "label": "floatToken",
        "offset": 0,
        "slot": "255",
        "type": "t_address"
      },
      {
        "astId": 24062,
        "contract": "contracts/staker/template/Staker.sol:Staker",
        "label": "gems",
        "offset": 0,
        "slot": "256",
        "type": "t_address"
      },
      {
        "astId": 24066,
        "contract": "contracts/staker/template/Staker.sol:Staker",
        "label": "__globalStateGap",
        "offset": 0,
        "slot": "257",
        "type": "t_array(t_uint256)45_storage"
      },
      {
        "astId": 24070,
        "contract": "contracts/staker/template/Staker.sol:Staker",
        "label": "marketLaunchIncentive_period",
        "offset": 0,
        "slot": "302",
        "type": "t_mapping(t_uint32,t_uint256)"
      },
      {
        "astId": 24074,
        "contract": "contracts/staker/template/Staker.sol:Staker",
        "label": "marketLaunchIncentive_multipliers",
        "offset": 0,
        "slot": "303",
        "type": "t_mapping(t_uint32,t_uint256)"
      },
      {
        "astId": 24078,
        "contract": "contracts/staker/template/Staker.sol:Staker",
        "label": "marketUnstakeFee_e18",
        "offset": 0,
        "slot": "304",
        "type": "t_mapping(t_uint32,t_uint256)"
      },
      {
        "astId": 24082,
        "contract": "contracts/staker/template/Staker.sol:Staker",
        "label": "balanceIncentiveCurve_exponent",
        "offset": 0,
        "slot": "305",
        "type": "t_mapping(t_uint32,t_uint256)"
      },
      {
        "astId": 24086,
        "contract": "contracts/staker/template/Staker.sol:Staker",
        "label": "balanceIncentiveCurve_equilibriumOffset",
        "offset": 0,
        "slot": "306",
        "type": "t_mapping(t_uint32,t_int256)"
      },
      {
        "astId": 24090,
        "contract": "contracts/staker/template/Staker.sol:Staker",
        "label": "safeExponentBitShifting",
        "offset": 0,
        "slot": "307",
        "type": "t_mapping(t_uint32,t_uint256)"
      },
      {
        "astId": 24096,
        "contract": "contracts/staker/template/Staker.sol:Staker",
        "label": "syntheticTokens",
        "offset": 0,
        "slot": "308",
        "type": "t_mapping(t_uint32,t_mapping(t_bool,t_address))"
      },
      {
        "astId": 24100,
        "contract": "contracts/staker/template/Staker.sol:Staker",
        "label": "__marketStateGap",
        "offset": 0,
        "slot": "309",
        "type": "t_array(t_uint256)45_storage"
      },
      {
        "astId": 24104,
        "contract": "contracts/staker/template/Staker.sol:Staker",
        "label": "marketIndexOfToken",
        "offset": 0,
        "slot": "354",
        "type": "t_mapping(t_address,t_uint32)"
      },
      {
        "astId": 24108,
        "contract": "contracts/staker/template/Staker.sol:Staker",
        "label": "userNonce",
        "offset": 0,
        "slot": "355",
        "type": "t_mapping(t_address,t_uint32)"
      },
      {
        "astId": 24112,
        "contract": "contracts/staker/template/Staker.sol:Staker",
        "label": "__synthStateGap",
        "offset": 0,
        "slot": "356",
        "type": "t_array(t_uint256)45_storage"
      },
      {
        "astId": 24117,
        "contract": "contracts/staker/template/Staker.sol:Staker",
        "label": "latestRewardIndex",
        "offset": 0,
        "slot": "401",
        "type": "t_mapping(t_uint32,t_uint256)"
      },
      {
        "astId": 24124,
        "contract": "contracts/staker/template/Staker.sol:Staker",
        "label": "accumulativeFloatPerSyntheticTokenSnapshotsLEGACY",
        "offset": 0,
        "slot": "402",
        "type": "t_mapping(t_uint32,t_mapping(t_uint256,t_struct(AccumulativeIssuancePerStakedSynthSnapshotLEGACY)24131_storage))"
      },
      {
        "astId": 24148,
        "contract": "contracts/staker/template/Staker.sol:Staker",
        "label": "accumulativeFloatPerSyntheticTokenSnapshots",
        "offset": 0,
        "slot": "403",
        "type": "t_mapping(t_uint32,t_mapping(t_uint256,t_struct(AccumulativeIssuancePerStakedSynthSnapshot)24141_storage))"
      },
      {
        "astId": 24152,
        "contract": "contracts/staker/template/Staker.sol:Staker",
        "label": "__rewardStateGap",
        "offset": 0,
        "slot": "404",
        "type": "t_array(t_uint256)44_storage"
      },
      {
        "astId": 24158,
        "contract": "contracts/staker/template/Staker.sol:Staker",
        "label": "userIndexOfLastClaimedReward",
        "offset": 0,
        "slot": "448",
        "type": "t_mapping(t_uint32,t_mapping(t_address,t_uint256))"
      },
      {
        "astId": 24165,
        "contract": "contracts/staker/template/Staker.sol:Staker",
        "label": "userAmountStaked",
        "offset": 0,
        "slot": "449",
        "type": "t_mapping(t_address,t_mapping(t_address,t_uint256))"
      },
      {
        "astId": 24169,
        "contract": "contracts/staker/template/Staker.sol:Staker",
        "label": "__userStateGap",
        "offset": 0,
        "slot": "450",
        "type": "t_array(t_uint256)45_storage"
      },
      {
        "astId": 24176,
        "contract": "contracts/staker/template/Staker.sol:Staker",
        "label": "userNextPrice_stakedActionIndex",
        "offset": 0,
        "slot": "495",
        "type": "t_mapping(t_uint32,t_mapping(t_address,t_uint256))"
      },
      {
        "astId": 24185,
        "contract": "contracts/staker/template/Staker.sol:Staker",
        "label": "userNextPrice_amountStakedSyntheticToken_toShiftAwayFrom",
        "offset": 0,
        "slot": "496",
        "type": "t_mapping(t_uint32,t_mapping(t_bool,t_mapping(t_address,t_uint256)))"
      },
      {
        "astId": 24194,
        "contract": "contracts/staker/template/Staker.sol:Staker",
        "label": "userNextPrice_paymentToken_depositAmount",
        "offset": 0,
        "slot": "497",
        "type": "t_mapping(t_uint32,t_mapping(t_bool,t_mapping(t_address,t_uint256)))"
      }
    ],
    "types": {
      "t_address": {
        "encoding": "inplace",
        "label": "address",
        "numberOfBytes": "20"
      },
      "t_array(t_uint256)44_storage": {
        "base": "t_uint256",
        "encoding": "inplace",
        "label": "uint256[44]",
        "numberOfBytes": "1408"
      },
      "t_array(t_uint256)45_storage": {
        "base": "t_uint256",
        "encoding": "inplace",
        "label": "uint256[45]",
        "numberOfBytes": "1440"
      },
      "t_array(t_uint256)49_storage": {
        "base": "t_uint256",
        "encoding": "inplace",
        "label": "uint256[49]",
        "numberOfBytes": "1568"
      },
      "t_array(t_uint256)50_storage": {
        "base": "t_uint256",
        "encoding": "inplace",
        "label": "uint256[50]",
        "numberOfBytes": "1600"
      },
      "t_bool": {
        "encoding": "inplace",
        "label": "bool",
        "numberOfBytes": "1"
      },
      "t_bytes32": {
        "encoding": "inplace",
        "label": "bytes32",
        "numberOfBytes": "32"
      },
      "t_int256": {
        "encoding": "inplace",
        "label": "int256",
        "numberOfBytes": "32"
      },
      "t_mapping(t_address,t_bool)": {
        "encoding": "mapping",
        "key": "t_address",
        "label": "mapping(address => bool)",
        "numberOfBytes": "32",
        "value": "t_bool"
      },
      "t_mapping(t_address,t_mapping(t_address,t_uint256))": {
        "encoding": "mapping",
        "key": "t_address",
        "label": "mapping(address => mapping(address => uint256))",
        "numberOfBytes": "32",
        "value": "t_mapping(t_address,t_uint256)"
      },
      "t_mapping(t_address,t_uint256)": {
        "encoding": "mapping",
        "key": "t_address",
        "label": "mapping(address => uint256)",
        "numberOfBytes": "32",
        "value": "t_uint256"
      },
      "t_mapping(t_address,t_uint32)": {
        "encoding": "mapping",
        "key": "t_address",
        "label": "mapping(address => uint32)",
        "numberOfBytes": "32",
        "value": "t_uint32"
      },
      "t_mapping(t_bool,t_address)": {
        "encoding": "mapping",
        "key": "t_bool",
        "label": "mapping(bool => address)",
        "numberOfBytes": "32",
        "value": "t_address"
      },
      "t_mapping(t_bool,t_mapping(t_address,t_uint256))": {
        "encoding": "mapping",
        "key": "t_bool",
        "label": "mapping(bool => mapping(address => uint256))",
        "numberOfBytes": "32",
        "value": "t_mapping(t_address,t_uint256)"
      },
      "t_mapping(t_bytes32,t_struct(RoleData)245_storage)": {
        "encoding": "mapping",
        "key": "t_bytes32",
        "label": "mapping(bytes32 => struct AccessControlUpgradeable.RoleData)",
        "numberOfBytes": "32",
        "value": "t_struct(RoleData)245_storage"
      },
      "t_mapping(t_uint256,t_struct(AccumulativeIssuancePerStakedSynthSnapshot)24141_storage)": {
        "encoding": "mapping",
        "key": "t_uint256",
        "label": "mapping(uint256 => struct Staker.AccumulativeIssuancePerStakedSynthSnapshot)",
        "numberOfBytes": "32",
        "value": "t_struct(AccumulativeIssuancePerStakedSynthSnapshot)24141_storage"
      },
      "t_mapping(t_uint256,t_struct(AccumulativeIssuancePerStakedSynthSnapshotLEGACY)24131_storage)": {
        "encoding": "mapping",
        "key": "t_uint256",
        "label": "mapping(uint256 => struct Staker.AccumulativeIssuancePerStakedSynthSnapshotLEGACY)",
        "numberOfBytes": "32",
        "value": "t_struct(AccumulativeIssuancePerStakedSynthSnapshotLEGACY)24131_storage"
      },
      "t_mapping(t_uint32,t_int256)": {
        "encoding": "mapping",
        "key": "t_uint32",
        "label": "mapping(uint32 => int256)",
        "numberOfBytes": "32",
        "value": "t_int256"
      },
      "t_mapping(t_uint32,t_mapping(t_address,t_uint256))": {
        "encoding": "mapping",
        "key": "t_uint32",
        "label": "mapping(uint32 => mapping(address => uint256))",
        "numberOfBytes": "32",
        "value": "t_mapping(t_address,t_uint256)"
      },
      "t_mapping(t_uint32,t_mapping(t_bool,t_address))": {
        "encoding": "mapping",
        "key": "t_uint32",
        "label": "mapping(uint32 => mapping(bool => address))",
        "numberOfBytes": "32",
        "value": "t_mapping(t_bool,t_address)"
      },
      "t_mapping(t_uint32,t_mapping(t_bool,t_mapping(t_address,t_uint256)))": {
        "encoding": "mapping",
        "key": "t_uint32",
        "label": "mapping(uint32 => mapping(bool => mapping(address => uint256)))",
        "numberOfBytes": "32",
        "value": "t_mapping(t_bool,t_mapping(t_address,t_uint256))"
      },
      "t_mapping(t_uint32,t_mapping(t_uint256,t_struct(AccumulativeIssuancePerStakedSynthSnapshot)24141_storage))": {
        "encoding": "mapping",
        "key": "t_uint32",
        "label": "mapping(uint32 => mapping(uint256 => struct Staker.AccumulativeIssuancePerStakedSynthSnapshot))",
        "numberOfBytes": "32",
        "value": "t_mapping(t_uint256,t_struct(AccumulativeIssuancePerStakedSynthSnapshot)24141_storage)"
      },
      "t_mapping(t_uint32,t_mapping(t_uint256,t_struct(AccumulativeIssuancePerStakedSynthSnapshotLEGACY)24131_storage))": {
        "encoding": "mapping",
        "key": "t_uint32",
        "label": "mapping(uint32 => mapping(uint256 => struct Staker.AccumulativeIssuancePerStakedSynthSnapshotLEGACY))",
        "numberOfBytes": "32",
        "value": "t_mapping(t_uint256,t_struct(AccumulativeIssuancePerStakedSynthSnapshotLEGACY)24131_storage)"
      },
      "t_mapping(t_uint32,t_uint256)": {
        "encoding": "mapping",
        "key": "t_uint32",
        "label": "mapping(uint32 => uint256)",
        "numberOfBytes": "32",
        "value": "t_uint256"
      },
      "t_struct(AccumulativeIssuancePerStakedSynthSnapshot)24141_storage": {
        "encoding": "inplace",
        "label": "struct Staker.AccumulativeIssuancePerStakedSynthSnapshot",
        "members": [
          {
            "astId": 24136,
            "contract": "contracts/staker/template/Staker.sol:Staker",
            "label": "timestamp",
            "offset": 0,
            "slot": "0",
            "type": "t_uint32"
          },
          {
            "astId": 24138,
            "contract": "contracts/staker/template/Staker.sol:Staker",
            "label": "accumulativeFloatPerSyntheticToken_long",
            "offset": 4,
            "slot": "0",
            "type": "t_uint112"
          },
          {
            "astId": 24140,
            "contract": "contracts/staker/template/Staker.sol:Staker",
            "label": "accumulativeFloatPerSyntheticToken_short",
            "offset": 18,
            "slot": "0",
            "type": "t_uint112"
          }
        ],
        "numberOfBytes": "32"
      },
      "t_struct(AccumulativeIssuancePerStakedSynthSnapshotLEGACY)24131_storage": {
        "encoding": "inplace",
        "label": "struct Staker.AccumulativeIssuancePerStakedSynthSnapshotLEGACY",
        "members": [
          {
            "astId": 24126,
            "contract": "contracts/staker/template/Staker.sol:Staker",
            "label": "timestamp",
            "offset": 0,
            "slot": "0",
            "type": "t_uint256"
          },
          {
            "astId": 24128,
            "contract": "contracts/staker/template/Staker.sol:Staker",
            "label": "accumulativeFloatPerSyntheticToken_long",
            "offset": 0,
            "slot": "1",
            "type": "t_uint256"
          },
          {
            "astId": 24130,
            "contract": "contracts/staker/template/Staker.sol:Staker",
            "label": "accumulativeFloatPerSyntheticToken_short",
            "offset": 0,
            "slot": "2",
            "type": "t_uint256"
          }
        ],
        "numberOfBytes": "96"
      },
      "t_struct(RoleData)245_storage": {
        "encoding": "inplace",
        "label": "struct AccessControlUpgradeable.RoleData",
        "members": [
          {
            "astId": 242,
            "contract": "contracts/staker/template/Staker.sol:Staker",
            "label": "members",
            "offset": 0,
            "slot": "0",
            "type": "t_mapping(t_address,t_bool)"
          },
          {
            "astId": 244,
            "contract": "contracts/staker/template/Staker.sol:Staker",
            "label": "adminRole",
            "offset": 0,
            "slot": "1",
            "type": "t_bytes32"
          }
        ],
        "numberOfBytes": "64"
      },
      "t_uint112": {
        "encoding": "inplace",
        "label": "uint112",
        "numberOfBytes": "14"
      },
      "t_uint256": {
        "encoding": "inplace",
        "label": "uint256",
        "numberOfBytes": "32"
      },
      "t_uint32": {
        "encoding": "inplace",
        "label": "uint32",
        "numberOfBytes": "4"
      }
    }
  }
}