{
  "address": "0x5cDBFCDAb16A3b17516CDCbD0Df582cBe30EDB33",
  "abi": [
    {
      "anonymous": false,
      "inputs": [
        {
          "indexed": false,
          "internalType": "address",
          "name": "previousAdmin",
          "type": "address"
        },
        {
          "indexed": false,
          "internalType": "address",
          "name": "newAdmin",
          "type": "address"
        }
      ],
      "name": "AdminChanged",
      "type": "event"
    },
    {
      "anonymous": false,
      "inputs": [
        {
          "indexed": true,
          "internalType": "address",
          "name": "owner",
          "type": "address"
        },
        {
          "indexed": true,
          "internalType": "address",
          "name": "approved",
          "type": "address"
        },
        {
          "indexed": true,
          "internalType": "uint256",
          "name": "tokenId",
          "type": "uint256"
        }
      ],
      "name": "Approval",
      "type": "event"
    },
    {
      "anonymous": false,
      "inputs": [
        {
          "indexed": true,
          "internalType": "address",
          "name": "owner",
          "type": "address"
        },
        {
          "indexed": true,
          "internalType": "address",
          "name": "operator",
          "type": "address"
        },
        {
          "indexed": false,
          "internalType": "bool",
          "name": "approved",
          "type": "bool"
        }
      ],
      "name": "ApprovalForAll",
      "type": "event"
    },
    {
      "anonymous": false,
      "inputs": [
        {
          "indexed": true,
          "internalType": "address",
          "name": "beacon",
          "type": "address"
        }
      ],
      "name": "BeaconUpgraded",
      "type": "event"
    },
    {
      "anonymous": false,
      "inputs": [
        {
          "indexed": false,
          "internalType": "address",
          "name": "user",
          "type": "address"
        },
        {
          "indexed": false,
          "internalType": "address",
          "name": "receiver",
          "type": "address"
        },
        {
          "indexed": false,
          "internalType": "uint256",
          "name": "levelId",
          "type": "uint256"
        },
        {
          "indexed": false,
          "internalType": "uint256",
          "name": "tokenId",
          "type": "uint256"
        }
      ],
      "name": "NFTMinted",
      "type": "event"
    },
    {
      "anonymous": false,
      "inputs": [
        {
          "indexed": false,
          "internalType": "address",
          "name": "account",
          "type": "address"
        }
      ],
      "name": "Paused",
      "type": "event"
    },
    {
      "anonymous": false,
      "inputs": [
        {
          "indexed": true,
          "internalType": "bytes32",
          "name": "role",
          "type": "bytes32"
        },
        {
          "indexed": true,
          "internalType": "bytes32",
          "name": "previousAdminRole",
          "type": "bytes32"
        },
        {
          "indexed": true,
          "internalType": "bytes32",
          "name": "newAdminRole",
          "type": "bytes32"
        }
      ],
      "name": "RoleAdminChanged",
      "type": "event"
    },
    {
      "anonymous": false,
      "inputs": [
        {
          "indexed": true,
          "internalType": "bytes32",
          "name": "role",
          "type": "bytes32"
        },
        {
          "indexed": true,
          "internalType": "address",
          "name": "account",
          "type": "address"
        },
        {
          "indexed": true,
          "internalType": "address",
          "name": "sender",
          "type": "address"
        }
      ],
      "name": "RoleGranted",
      "type": "event"
    },
    {
      "anonymous": false,
      "inputs": [
        {
          "indexed": true,
          "internalType": "bytes32",
          "name": "role",
          "type": "bytes32"
        },
        {
          "indexed": true,
          "internalType": "address",
          "name": "account",
          "type": "address"
        },
        {
          "indexed": true,
          "internalType": "address",
          "name": "sender",
          "type": "address"
        }
      ],
      "name": "RoleRevoked",
      "type": "event"
    },
    {
      "anonymous": false,
      "inputs": [
        {
          "indexed": false,
          "internalType": "uint256",
          "name": "levelId",
          "type": "uint256"
        },
        {
          "indexed": false,
          "internalType": "string",
          "name": "tokenURI",
          "type": "string"
        },
        {
          "indexed": false,
          "internalType": "uint256",
          "name": "minGems",
          "type": "uint256"
        }
      ],
      "name": "TokenAdded",
      "type": "event"
    },
    {
      "anonymous": false,
      "inputs": [
        {
          "indexed": true,
          "internalType": "address",
          "name": "from",
          "type": "address"
        },
        {
          "indexed": true,
          "internalType": "address",
          "name": "to",
          "type": "address"
        },
        {
          "indexed": true,
          "internalType": "uint256",
          "name": "tokenId",
          "type": "uint256"
        }
      ],
      "name": "Transfer",
      "type": "event"
    },
    {
      "anonymous": false,
      "inputs": [
        {
          "indexed": false,
          "internalType": "address",
          "name": "account",
          "type": "address"
        }
      ],
      "name": "Unpaused",
      "type": "event"
    },
    {
      "anonymous": false,
      "inputs": [
        {
          "indexed": true,
          "internalType": "address",
          "name": "implementation",
          "type": "address"
        }
      ],
      "name": "Upgraded",
      "type": "event"
    },
    {
      "inputs": [],
      "name": "DEFAULT_ADMIN_ROLE",
      "outputs": [
        {
          "internalType": "bytes32",
          "name": "",
          "type": "bytes32"
        }
      ],
      "stateMutability": "view",
      "type": "function"
    },
    {
      "inputs": [],
      "name": "MINTER_ROLE",
      "outputs": [
        {
          "internalType": "bytes32",
          "name": "",
          "type": "bytes32"
        }
      ],
      "stateMutability": "view",
      "type": "function"
    },
    {
      "inputs": [],
      "name": "PAUSER_ROLE",
      "outputs": [
        {
          "internalType": "bytes32",
          "name": "",
          "type": "bytes32"
        }
      ],
      "stateMutability": "view",
      "type": "function"
    },
    {
      "inputs": [],
      "name": "UPGRADER_ROLE",
      "outputs": [
        {
          "internalType": "bytes32",
          "name": "",
          "type": "bytes32"
        }
      ],
      "stateMutability": "view",
      "type": "function"
    },
    {
      "inputs": [
        {
          "internalType": "string",
          "name": "tokenUri",
          "type": "string"
        },
        {
          "internalType": "uint256",
          "name": "minGems",
          "type": "uint256"
        }
      ],
      "name": "addToken",
      "outputs": [],
      "stateMutability": "nonpayable",
      "type": "function"
    },
    {
      "inputs": [
        {
          "internalType": "address",
          "name": "to",
          "type": "address"
        },
        {
          "internalType": "uint256",
          "name": "tokenId",
          "type": "uint256"
        }
      ],
      "name": "approve",
      "outputs": [],
      "stateMutability": "nonpayable",
      "type": "function"
    },
    {
      "inputs": [
        {
          "internalType": "address",
          "name": "owner",
          "type": "address"
        }
      ],
      "name": "balanceOf",
      "outputs": [
        {
          "internalType": "uint256",
          "name": "",
          "type": "uint256"
        }
      ],
      "stateMutability": "view",
      "type": "function"
    },
    {
      "inputs": [
        {
          "internalType": "uint256",
          "name": "tokenId",
          "type": "uint256"
        }
      ],
      "name": "burn",
      "outputs": [],
      "stateMutability": "nonpayable",
      "type": "function"
    },
    {
      "inputs": [],
      "name": "gems",
      "outputs": [
        {
          "internalType": "address",
          "name": "",
          "type": "address"
        }
      ],
      "stateMutability": "view",
      "type": "function"
    },
    {
      "inputs": [
        {
          "internalType": "uint256",
          "name": "tokenId",
          "type": "uint256"
        }
      ],
      "name": "getApproved",
      "outputs": [
        {
          "internalType": "address",
          "name": "",
          "type": "address"
        }
      ],
      "stateMutability": "view",
      "type": "function"
    },
    {
      "inputs": [
        {
          "internalType": "bytes32",
          "name": "role",
          "type": "bytes32"
        }
      ],
      "name": "getRoleAdmin",
      "outputs": [
        {
          "internalType": "bytes32",
          "name": "",
          "type": "bytes32"
        }
      ],
      "stateMutability": "view",
      "type": "function"
    },
    {
      "inputs": [
        {
          "internalType": "bytes32",
          "name": "role",
          "type": "bytes32"
        },
        {
          "internalType": "uint256",
          "name": "index",
          "type": "uint256"
        }
      ],
      "name": "getRoleMember",
      "outputs": [
        {
          "internalType": "address",
          "name": "",
          "type": "address"
        }
      ],
      "stateMutability": "view",
      "type": "function"
    },
    {
      "inputs": [
        {
          "internalType": "bytes32",
          "name": "role",
          "type": "bytes32"
        }
      ],
      "name": "getRoleMemberCount",
      "outputs": [
        {
          "internalType": "uint256",
          "name": "",
          "type": "uint256"
        }
      ],
      "stateMutability": "view",
      "type": "function"
    },
    {
      "inputs": [
        {
          "internalType": "bytes32",
          "name": "role",
          "type": "bytes32"
        },
        {
          "internalType": "address",
          "name": "account",
          "type": "address"
        }
      ],
      "name": "grantRole",
      "outputs": [],
      "stateMutability": "nonpayable",
      "type": "function"
    },
    {
      "inputs": [
        {
          "internalType": "address",
          "name": "",
          "type": "address"
        },
        {
          "internalType": "uint256",
          "name": "",
          "type": "uint256"
        }
      ],
      "name": "hasMinted",
      "outputs": [
        {
          "internalType": "bool",
          "name": "",
          "type": "bool"
        }
      ],
      "stateMutability": "view",
      "type": "function"
    },
    {
      "inputs": [
        {
          "internalType": "bytes32",
          "name": "role",
          "type": "bytes32"
        },
        {
          "internalType": "address",
          "name": "account",
          "type": "address"
        }
      ],
      "name": "hasRole",
      "outputs": [
        {
          "internalType": "bool",
          "name": "",
          "type": "bool"
        }
      ],
      "stateMutability": "view",
      "type": "function"
    },
    {
      "inputs": [
        {
          "internalType": "string",
          "name": "name",
          "type": "string"
        },
        {
          "internalType": "string",
          "name": "symbol",
          "type": "string"
        },
        {
          "internalType": "string",
          "name": "baseTokenURI",
          "type": "string"
        }
      ],
      "name": "initialize",
      "outputs": [],
      "stateMutability": "nonpayable",
      "type": "function"
    },
    {
      "inputs": [
        {
          "internalType": "address",
          "name": "_admin",
          "type": "address"
        },
        {
          "internalType": "address",
          "name": "_gems",
          "type": "address"
        },
        {
          "internalType": "string",
          "name": "name",
          "type": "string"
        },
        {
          "internalType": "string",
          "name": "symbol",
          "type": "string"
        }
      ],
      "name": "initializeNFT",
      "outputs": [],
      "stateMutability": "nonpayable",
      "type": "function"
    },
    {
      "inputs": [
        {
          "internalType": "address",
          "name": "owner",
          "type": "address"
        },
        {
          "internalType": "address",
          "name": "operator",
          "type": "address"
        }
      ],
      "name": "isApprovedForAll",
      "outputs": [
        {
          "internalType": "bool",
          "name": "",
          "type": "bool"
        }
      ],
      "stateMutability": "view",
      "type": "function"
    },
    {
      "inputs": [
        {
          "internalType": "uint256",
          "name": "",
          "type": "uint256"
        }
      ],
      "name": "levelIdToTokenData",
      "outputs": [
        {
          "internalType": "string",
          "name": "tokenUri",
          "type": "string"
        },
        {
          "internalType": "uint256",
          "name": "minRequiredGemsToMintToken",
          "type": "uint256"
        }
      ],
      "stateMutability": "view",
      "type": "function"
    },
    {
      "inputs": [],
      "name": "levelIds",
      "outputs": [
        {
          "internalType": "uint256",
          "name": "_value",
          "type": "uint256"
        }
      ],
      "stateMutability": "view",
      "type": "function"
    },
    {
      "inputs": [
        {
          "internalType": "address",
          "name": "to",
          "type": "address"
        }
      ],
      "name": "mint",
      "outputs": [],
      "stateMutability": "nonpayable",
      "type": "function"
    },
    {
      "inputs": [
        {
          "internalType": "uint256",
          "name": "levelId",
          "type": "uint256"
        },
        {
          "internalType": "address",
          "name": "receiver",
          "type": "address"
        }
      ],
      "name": "mintNFT",
      "outputs": [
        {
          "internalType": "uint256",
          "name": "",
          "type": "uint256"
        }
      ],
      "stateMutability": "nonpayable",
      "type": "function"
    },
    {
      "inputs": [],
      "name": "name",
      "outputs": [
        {
          "internalType": "string",
          "name": "",
          "type": "string"
        }
      ],
      "stateMutability": "view",
      "type": "function"
    },
    {
      "inputs": [
        {
          "internalType": "uint256",
          "name": "tokenId",
          "type": "uint256"
        }
      ],
      "name": "ownerOf",
      "outputs": [
        {
          "internalType": "address",
          "name": "",
          "type": "address"
        }
      ],
      "stateMutability": "view",
      "type": "function"
    },
    {
      "inputs": [],
      "name": "pause",
      "outputs": [],
      "stateMutability": "nonpayable",
      "type": "function"
    },
    {
      "inputs": [],
      "name": "paused",
      "outputs": [
        {
          "internalType": "bool",
          "name": "",
          "type": "bool"
        }
      ],
      "stateMutability": "view",
      "type": "function"
    },
    {
      "inputs": [
        {
          "internalType": "bytes32",
          "name": "role",
          "type": "bytes32"
        },
        {
          "internalType": "address",
          "name": "account",
          "type": "address"
        }
      ],
      "name": "renounceRole",
      "outputs": [],
      "stateMutability": "nonpayable",
      "type": "function"
    },
    {
      "inputs": [
        {
          "internalType": "bytes32",
          "name": "role",
          "type": "bytes32"
        },
        {
          "internalType": "address",
          "name": "account",
          "type": "address"
        }
      ],
      "name": "revokeRole",
      "outputs": [],
      "stateMutability": "nonpayable",
      "type": "function"
    },
    {
      "inputs": [
        {
          "internalType": "address",
          "name": "from",
          "type": "address"
        },
        {
          "internalType": "address",
          "name": "to",
          "type": "address"
        },
        {
          "internalType": "uint256",
          "name": "tokenId",
          "type": "uint256"
        }
      ],
      "name": "safeTransferFrom",
      "outputs": [],
      "stateMutability": "nonpayable",
      "type": "function"
    },
    {
      "inputs": [
        {
          "internalType": "address",
          "name": "from",
          "type": "address"
        },
        {
          "internalType": "address",
          "name": "to",
          "type": "address"
        },
        {
          "internalType": "uint256",
          "name": "tokenId",
          "type": "uint256"
        },
        {
          "internalType": "bytes",
          "name": "_data",
          "type": "bytes"
        }
      ],
      "name": "safeTransferFrom",
      "outputs": [],
      "stateMutability": "nonpayable",
      "type": "function"
    },
    {
      "inputs": [
        {
          "internalType": "address",
          "name": "operator",
          "type": "address"
        },
        {
          "internalType": "bool",
          "name": "approved",
          "type": "bool"
        }
      ],
      "name": "setApprovalForAll",
      "outputs": [],
      "stateMutability": "nonpayable",
      "type": "function"
    },
    {
      "inputs": [
        {
          "internalType": "bytes4",
          "name": "interfaceId",
          "type": "bytes4"
        }
      ],
      "name": "supportsInterface",
      "outputs": [
        {
          "internalType": "bool",
          "name": "",
          "type": "bool"
        }
      ],
      "stateMutability": "view",
      "type": "function"
    },
    {
      "inputs": [],
      "name": "symbol",
      "outputs": [
        {
          "internalType": "string",
          "name": "",
          "type": "string"
        }
      ],
      "stateMutability": "view",
      "type": "function"
    },
    {
      "inputs": [
        {
          "internalType": "uint256",
          "name": "index",
          "type": "uint256"
        }
      ],
      "name": "tokenByIndex",
      "outputs": [
        {
          "internalType": "uint256",
          "name": "",
          "type": "uint256"
        }
      ],
      "stateMutability": "view",
      "type": "function"
    },
    {
      "inputs": [],
      "name": "tokenIds",
      "outputs": [
        {
          "internalType": "uint256",
          "name": "_value",
          "type": "uint256"
        }
      ],
      "stateMutability": "view",
      "type": "function"
    },
    {
      "inputs": [
        {
          "internalType": "address",
          "name": "owner",
          "type": "address"
        },
        {
          "internalType": "uint256",
          "name": "index",
          "type": "uint256"
        }
      ],
      "name": "tokenOfOwnerByIndex",
      "outputs": [
        {
          "internalType": "uint256",
          "name": "",
          "type": "uint256"
        }
      ],
      "stateMutability": "view",
      "type": "function"
    },
    {
      "inputs": [
        {
          "internalType": "uint256",
          "name": "tokenId",
          "type": "uint256"
        }
      ],
      "name": "tokenURI",
      "outputs": [
        {
          "internalType": "string",
          "name": "",
          "type": "string"
        }
      ],
      "stateMutability": "view",
      "type": "function"
    },
    {
      "inputs": [],
      "name": "totalSupply",
      "outputs": [
        {
          "internalType": "uint256",
          "name": "",
          "type": "uint256"
        }
      ],
      "stateMutability": "view",
      "type": "function"
    },
    {
      "inputs": [
        {
          "internalType": "address",
          "name": "from",
          "type": "address"
        },
        {
          "internalType": "address",
          "name": "to",
          "type": "address"
        },
        {
          "internalType": "uint256",
          "name": "tokenId",
          "type": "uint256"
        }
      ],
      "name": "transferFrom",
      "outputs": [],
      "stateMutability": "nonpayable",
      "type": "function"
    },
    {
      "inputs": [],
      "name": "unpause",
      "outputs": [],
      "stateMutability": "nonpayable",
      "type": "function"
    },
    {
      "inputs": [
        {
          "internalType": "address",
          "name": "newImplementation",
          "type": "address"
        }
      ],
      "name": "upgradeTo",
      "outputs": [],
      "stateMutability": "nonpayable",
      "type": "function"
    },
    {
      "inputs": [
        {
          "internalType": "address",
          "name": "newImplementation",
          "type": "address"
        },
        {
          "internalType": "bytes",
          "name": "data",
          "type": "bytes"
        }
      ],
      "name": "upgradeToAndCall",
      "outputs": [],
      "stateMutability": "payable",
      "type": "function"
    }
  ],
  "transactionHash": "0x7b2d2ab83eb06bc23ac9d793dc0e70f5b36932961f3d2f8745d6e4f9437e953d",
  "args": [],
  "solcInputHash": "8eb3db1ebad73600fe854988a31b02ce",
  "bytecode": "0x60a06040523060805234801561001457600080fd5b50608051613b6261004560003960008181610d1d01528181610d5d01528181610f0e0152610f4e0152613b626000f3fe60806040526004361061025c5760003560e01c80636c30505511610144578063a22cb465116100b6578063d53913931161007a578063d539139314610700578063d547741f14610722578063e63ab1e914610742578063e985e9c514610764578063f72c0d8b146107ad578063f8f1147d146107e157600080fd5b8063a22cb46514610660578063a6487c5314610680578063b88d4fde146106a0578063c87b56dd146106c0578063ca15c873146106e057600080fd5b80638ca132f7116101085780638ca132f7146105a85780639010d07c146105c857806391d14854146105e8578063922ff0ce1461060857806395d89b4114610636578063a217fddf1461064b57600080fd5b80636c3050551461052257806370a0823114610543578063714cff56146105635780637c5d730e1461057b5780638456cb591461059357600080fd5b806336568abe116101dd5780634f1ef286116101a15780634f1ef286146104765780634f6ccce7146104895780635c975abb146104a95780636352211e146104c2578063669f5a51146104e25780636a6278421461050257600080fd5b806336568abe146103e15780633659cfe6146104015780633f4ba83a1461042157806342842e0e1461043657806342966c681461045657600080fd5b806318160ddd1161022457806318160ddd1461033257806323b872dd14610351578063248a9ca3146103715780632f2ff15d146103a15780632f745c59146103c157600080fd5b806301ffc9a71461026157806306fdde0314610296578063081812fc146102b8578063095ea7b3146102f05780631313be4b14610312575b600080fd5b34801561026d57600080fd5b5061028161027c366004613230565b61081d565b60405190151581526020015b60405180910390f35b3480156102a257600080fd5b506102ab61082e565b60405161028d91906132a5565b3480156102c457600080fd5b506102d86102d33660046132b8565b6108c0565b6040516001600160a01b03909116815260200161028d565b3480156102fc57600080fd5b5061031061030b3660046132ed565b61095a565b005b34801561031e57600080fd5b5061031061032d3660046133ba565b610a70565b34801561033e57600080fd5b5060fd545b60405190815260200161028d565b34801561035d57600080fd5b5061031061036c36600461343f565b610ba6565b34801561037d57600080fd5b5061034361038c3660046132b8565b60009081526065602052604090206001015490565b3480156103ad57600080fd5b506103106103bc36600461347b565b610bd8565b3480156103cd57600080fd5b506103436103dc3660046132ed565b610bfe565b3480156103ed57600080fd5b506103106103fc36600461347b565b610c94565b34801561040d57600080fd5b5061031061041c3660046134a7565b610d12565b34801561042d57600080fd5b50610310610ddb565b34801561044257600080fd5b5061031061045136600461343f565b610e71565b34801561046257600080fd5b506103106104713660046132b8565b610e8c565b6103106104843660046134c2565b610f03565b34801561049557600080fd5b506103436104a43660046132b8565b610fb9565b3480156104b557600080fd5b5061015f5460ff16610281565b3480156104ce57600080fd5b506102d86104dd3660046132b8565b61104c565b3480156104ee57600080fd5b506103436104fd36600461347b565b6110c3565b34801561050e57600080fd5b5061031061051d3660046134a7565b611358565b34801561052e57600080fd5b5061025b546102d8906001600160a01b031681565b34801561054f57600080fd5b5061034361055e3660046134a7565b611404565b34801561056f57600080fd5b50610259546103439081565b34801561058757600080fd5b5061025a546103439081565b34801561059f57600080fd5b5061031061148b565b3480156105b457600080fd5b506103106105c3366004613510565b61151d565b3480156105d457600080fd5b506102d86105e3366004613588565b61169b565b3480156105f457600080fd5b5061028161060336600461347b565b6116ba565b34801561061457600080fd5b506106286106233660046132b8565b6116e5565b60405161028d9291906135aa565b34801561064257600080fd5b506102ab61178a565b34801561065757600080fd5b50610343600081565b34801561066c57600080fd5b5061031061067b3660046135cc565b611799565b34801561068c57600080fd5b5061031061069b366004613608565b6117a4565b3480156106ac57600080fd5b506103106106bb366004613690565b61181e565b3480156106cc57600080fd5b506102ab6106db3660046132b8565b611850565b3480156106ec57600080fd5b506103436106fb3660046132b8565b611964565b34801561070c57600080fd5b50610343600080516020613b0d83398151915281565b34801561072e57600080fd5b5061031061073d36600461347b565b61197b565b34801561074e57600080fd5b50610343600080516020613ac683398151915281565b34801561077057600080fd5b5061028161077f3660046136ec565b6001600160a01b03918216600090815260ce6020908152604080832093909416825291909152205460ff1690565b3480156107b957600080fd5b506103437f189ab7a9244df0848122154315af71fe140f3db0fe014031783b0946b8c9d2e381565b3480156107ed57600080fd5b506102816107fc3660046132ed565b61025e60209081526000928352604080842090915290825290205460ff1681565b6000610828826119a1565b92915050565b606060c9805461083d90613716565b80601f016020809104026020016040519081016040528092919081815260200182805461086990613716565b80156108b65780601f1061088b576101008083540402835291602001916108b6565b820191906000526020600020905b81548152906001019060200180831161089957829003601f168201915b5050505050905090565b600081815260cb60205260408120546001600160a01b031661093e5760405162461bcd60e51b815260206004820152602c60248201527f4552433732313a20617070726f76656420717565727920666f72206e6f6e657860448201526b34b9ba32b73a103a37b5b2b760a11b60648201526084015b60405180910390fd5b50600090815260cd60205260409020546001600160a01b031690565b60006109658261104c565b9050806001600160a01b0316836001600160a01b031614156109d35760405162461bcd60e51b815260206004820152602160248201527f4552433732313a20617070726f76616c20746f2063757272656e74206f776e656044820152603960f91b6064820152608401610935565b336001600160a01b03821614806109ef57506109ef813361077f565b610a615760405162461bcd60e51b815260206004820152603860248201527f4552433732313a20617070726f76652063616c6c6572206973206e6f74206f7760448201527f6e6572206e6f7220617070726f76656420666f7220616c6c00000000000000006064820152608401610935565b610a6b83836119c6565b505050565b600054610100900460ff1680610a89575060005460ff16155b610aa55760405162461bcd60e51b815260040161093590613751565b600054610100900460ff16158015610ac7576000805461ffff19166101011790555b610ae1838360405180602001604052806000815250611a34565b610ae9611ae0565b610af4600033610c94565b610b0c600080516020613b0d83398151915233610c94565b610b17600086611b5b565b610b2f600080516020613b0d83398151915286611b5b565b610b47600080516020613ac683398151915286611b5b565b610b717f189ab7a9244df0848122154315af71fe140f3db0fe014031783b0946b8c9d2e333611b5b565b61025b80546001600160a01b0319166001600160a01b0386161790558015610b9f576000805461ff00191690555b5050505050565b610bb1335b82611b65565b610bcd5760405162461bcd60e51b81526004016109359061379f565b610a6b838383611c5c565b600082815260656020526040902060010154610bf48133611e07565b610a6b8383611e6b565b6000610c0983611404565b8210610c6b5760405162461bcd60e51b815260206004820152602b60248201527f455243373231456e756d657261626c653a206f776e657220696e646578206f7560448201526a74206f6620626f756e647360a81b6064820152608401610935565b506001600160a01b0391909116600090815260fb60209081526040808320938352929052205490565b6001600160a01b0381163314610d045760405162461bcd60e51b815260206004820152602f60248201527f416363657373436f6e74726f6c3a2063616e206f6e6c792072656e6f756e636560448201526e103937b632b9903337b91039b2b63360891b6064820152608401610935565b610d0e8282611e8d565b5050565b306001600160a01b037f0000000000000000000000000000000000000000000000000000000000000000161415610d5b5760405162461bcd60e51b8152600401610935906137f0565b7f00000000000000000000000000000000000000000000000000000000000000006001600160a01b0316610d8d611eaf565b6001600160a01b031614610db35760405162461bcd60e51b81526004016109359061383c565b610dbc81611edd565b60408051600080825260208201909252610dd891839190611f08565b50565b610df3600080516020613ac6833981519152336116ba565b610e67576040805162461bcd60e51b81526020600482015260248101919091527f4552433732315072657365744d696e7465725061757365724175746f49643a2060448201527f6d75737420686176652070617573657220726f6c6520746f20756e70617573656064820152608401610935565b610e6f61204c565b565b610a6b8383836040518060200160405280600081525061181e565b610e9533610bab565b610efa5760405162461bcd60e51b815260206004820152603060248201527f4552433732314275726e61626c653a2063616c6c6572206973206e6f74206f7760448201526f1b995c881b9bdc88185c1c1c9bdd995960821b6064820152608401610935565b610dd8816120e1565b306001600160a01b037f0000000000000000000000000000000000000000000000000000000000000000161415610f4c5760405162461bcd60e51b8152600401610935906137f0565b7f00000000000000000000000000000000000000000000000000000000000000006001600160a01b0316610f7e611eaf565b6001600160a01b031614610fa45760405162461bcd60e51b81526004016109359061383c565b610fad82611edd565b610d0e82826001611f08565b6000610fc460fd5490565b82106110275760405162461bcd60e51b815260206004820152602c60248201527f455243373231456e756d657261626c653a20676c6f62616c20696e646578206f60448201526b7574206f6620626f756e647360a01b6064820152608401610935565b60fd828154811061103a5761103a613888565b90600052602060002001549050919050565b600081815260cb60205260408120546001600160a01b0316806108285760405162461bcd60e51b815260206004820152602960248201527f4552433732313a206f776e657220717565727920666f72206e6f6e657869737460448201526832b73a103a37b5b2b760b91b6064820152608401610935565b60008261110b5760405162461bcd60e51b81526020600482015260166024820152751b195d995b081a5908191bd95cdb89dd08195e1a5cdd60521b6044820152606401610935565b61025a548311156111575760405162461bcd60e51b81526020600482015260166024820152751b195d995b081a5908191bd95cdb89dd08195e1a5cdd60521b6044820152606401610935565b33600090815261025e6020908152604080832086845290915290205460ff16156111c35760405162461bcd60e51b815260206004820152601760248201527f416c7265616479206d696e7465642074686973206e66740000000000000000006044820152606401610935565b600083815261025c6020526040908190206001015461025b549151631c04a33f60e11b815233600482015290916001600160a01b031690633809467e90602401602060405180830381865afa158015611220573d6000803e3d6000fd5b505050506040513d601f19601f82011682018060405250810190611244919061389e565b101561129e5760405162461bcd60e51b8152602060048201526024808201527f4e6f7420656e6f7567682067656d7320746f206d696e74207468697320746f6b604482015263195b925960e21b6064820152608401610935565b33600090815261025e602090815260408083208684529091529020805460ff191660011790556112d361025980546001019055565b60006112df6102595490565b90506112eb8382612188565b600081815261025f602090815260409182902086905581513381526001600160a01b03861691810191909152908101859052606081018290527f9e8a709a89b83b7026f9ebab1f1b5b04c5edf5339369ea5ae302868f443aead79060800160405180910390a19392505050565b611370600080516020613b0d833981519152336116ba565b6113e25760405162461bcd60e51b815260206004820152603d60248201527f4552433732315072657365744d696e7465725061757365724175746f49643a2060448201527f6d7573742068617665206d696e74657220726f6c6520746f206d696e740000006064820152608401610935565b6113f5816113f06101c35490565b612188565b610dd86101c380546001019055565b60006001600160a01b03821661146f5760405162461bcd60e51b815260206004820152602a60248201527f4552433732313a2062616c616e636520717565727920666f7220746865207a65604482015269726f206164647265737360b01b6064820152608401610935565b506001600160a01b0316600090815260cc602052604090205490565b6114a3600080516020613ac6833981519152336116ba565b6115155760405162461bcd60e51b815260206004820152603e60248201527f4552433732315072657365744d696e7465725061757365724175746f49643a2060448201527f6d75737420686176652070617573657220726f6c6520746f20706175736500006064820152608401610935565b610e6f6122d6565b6115286000336116ba565b6115745760405162461bcd60e51b815260206004820152601e60248201527f7573657220646f65736e7420686176652061646d696e20636f6e74726f6c00006044820152606401610935565b670de0b6b3a764000081116115cb5760405162461bcd60e51b815260206004820152601e60248201527f47656d73206d696e20726571756972656d656e7420746f6f20736d616c6c00006044820152606401610935565b816116095760405162461bcd60e51b815260206004820152600e60248201526d456d70747920746f6b656e55726960901b6044820152606401610935565b61161861025a80546001019055565b600061162461025a5490565b600081815261025c6020526040902090915061164190858561310d565b50600081815261025c602052604090819020600101839055517ff7e000085d12a04e401e1cd12c8c06bba7997ca081c9874eec34621f4c9a19919061168d9083908790879087906138b7565b60405180910390a150505050565b60008281526097602052604081206116b39083612353565b9392505050565b60009182526065602090815260408084206001600160a01b0393909316845291905290205460ff1690565b61025c6020526000908152604090208054819061170190613716565b80601f016020809104026020016040519081016040528092919081815260200182805461172d90613716565b801561177a5780601f1061174f5761010080835404028352916020019161177a565b820191906000526020600020905b81548152906001019060200180831161175d57829003601f168201915b5050505050908060010154905082565b606060ca805461083d90613716565b610d0e33838361235f565b600054610100900460ff16806117bd575060005460ff16155b6117d95760405162461bcd60e51b815260040161093590613751565b600054610100900460ff161580156117fb576000805461ffff19166101011790555b611806848484611a34565b8015611818576000805461ff00191690555b50505050565b6118283383611b65565b6118445760405162461bcd60e51b81526004016109359061379f565b6118188484848461242e565b600081815260cb60205260409020546060906001600160a01b03166118b75760405162461bcd60e51b815260206004820152601f60248201527f55524920717565727920666f72206e6f6e6578697374656e7420746f6b656e006044820152606401610935565b600082815261025f6020908152604080832054835261025c909152902080546118df90613716565b80601f016020809104026020016040519081016040528092919081815260200182805461190b90613716565b80156119585780601f1061192d57610100808354040283529160200191611958565b820191906000526020600020905b81548152906001019060200180831161193b57829003601f168201915b50505050509050919050565b600081815260976020526040812061082890612461565b6000828152606560205260409020600101546119978133611e07565b610a6b8383611e8d565b60006001600160e01b0319821663780e9d6360e01b148061082857506108288261246b565b600081815260cd6020526040902080546001600160a01b0319166001600160a01b03841690811790915581906119fb8261104c565b6001600160a01b03167f8c5be1e5ebec7d5bd14f71427d1e84f3dd0314c0f7b2291e5b200ac8c7c3b92560405160405180910390a45050565b600054610100900460ff1680611a4d575060005460ff16155b611a695760405162461bcd60e51b815260040161093590613751565b600054610100900460ff16158015611a8b576000805461ffff19166101011790555b611a936124ab565b611a9b6124ab565b611aa36124ab565b611aab6124ab565b611ab58484612515565b611abd6124ab565b611ac56124ab565b611acd6125aa565b611ad56124ab565b611806848484612620565b600054610100900460ff1680611af9575060005460ff16155b611b155760405162461bcd60e51b815260040161093590613751565b600054610100900460ff16158015611b37576000805461ffff19166101011790555b611b3f6124ab565b611b476124ab565b8015610dd8576000805461ff001916905550565b610d0e8282611e6b565b600081815260cb60205260408120546001600160a01b0316611bde5760405162461bcd60e51b815260206004820152602c60248201527f4552433732313a206f70657261746f7220717565727920666f72206e6f6e657860448201526b34b9ba32b73a103a37b5b2b760a11b6064820152608401610935565b6000611be98361104c565b9050806001600160a01b0316846001600160a01b03161480611c245750836001600160a01b0316611c19846108c0565b6001600160a01b0316145b80611c5457506001600160a01b03808216600090815260ce602090815260408083209388168352929052205460ff165b949350505050565b826001600160a01b0316611c6f8261104c565b6001600160a01b031614611cd75760405162461bcd60e51b815260206004820152602960248201527f4552433732313a207472616e73666572206f6620746f6b656e2074686174206960448201526839903737ba1037bbb760b91b6064820152608401610935565b6001600160a01b038216611d395760405162461bcd60e51b8152602060048201526024808201527f4552433732313a207472616e7366657220746f20746865207a65726f206164646044820152637265737360e01b6064820152608401610935565b611d448383836126c7565b611d4f6000826119c6565b6001600160a01b038316600090815260cc60205260408120805460019290611d7890849061390d565b90915550506001600160a01b038216600090815260cc60205260408120805460019290611da6908490613924565b9091555050600081815260cb602052604080822080546001600160a01b0319166001600160a01b0386811691821790925591518493918716917fddf252ad1be2c89b69c2b068fc378daa952ba7f163c4a11628f55a4df523b3ef91a4505050565b611e1182826116ba565b610d0e57611e29816001600160a01b031660146126d2565b611e348360206126d2565b604051602001611e4592919061393c565b60408051601f198184030181529082905262461bcd60e51b8252610935916004016132a5565b611e75828261286e565b6000828152609760205260409020610a6b90826128f4565b611e978282612909565b6000828152609760205260409020610a6b9082612970565b7f360894a13ba1a3210667c828492db98dca3e2076cc3735a920a3ca505d382bbc546001600160a01b031690565b7f189ab7a9244df0848122154315af71fe140f3db0fe014031783b0946b8c9d2e3610d0e8133611e07565b6000611f12611eaf565b9050611f1d84612985565b600083511180611f2a5750815b15611f3b57611f398484612a2a565b505b7f4910fdfa16fed3260ed0e7147f7cc6da11a60208b5b9406d12a635614ffd9143805460ff16610b9f57805460ff191660011781556040516001600160a01b0383166024820152611fba90869060440160408051601f198184030181529190526020810180516001600160e01b0316631b2ce7f360e11b179052612a2a565b50805460ff19168155611fcb611eaf565b6001600160a01b0316826001600160a01b0316146120435760405162461bcd60e51b815260206004820152602f60248201527f45524331393637557067726164653a207570677261646520627265616b73206660448201526e75727468657220757067726164657360881b6064820152608401610935565b610b9f85612b15565b61015f5460ff166120965760405162461bcd60e51b815260206004820152601460248201527314185d5cd8589b194e881b9bdd081c185d5cd95960621b6044820152606401610935565b61015f805460ff191690557f5db9ee0a495bf2e6ff9c91a7834c1ba4fdd244a5e8aa4e537bd38aeae4b073aa335b6040516001600160a01b03909116815260200160405180910390a1565b60006120ec8261104c565b90506120fa816000846126c7565b6121056000836119c6565b6001600160a01b038116600090815260cc6020526040812080546001929061212e90849061390d565b9091555050600082815260cb602052604080822080546001600160a01b0319169055518391906001600160a01b038416907fddf252ad1be2c89b69c2b068fc378daa952ba7f163c4a11628f55a4df523b3ef908390a45050565b6001600160a01b0382166121de5760405162461bcd60e51b815260206004820181905260248201527f4552433732313a206d696e7420746f20746865207a65726f20616464726573736044820152606401610935565b600081815260cb60205260409020546001600160a01b0316156122435760405162461bcd60e51b815260206004820152601c60248201527f4552433732313a20746f6b656e20616c7265616479206d696e746564000000006044820152606401610935565b61224f600083836126c7565b6001600160a01b038216600090815260cc60205260408120805460019290612278908490613924565b9091555050600081815260cb602052604080822080546001600160a01b0319166001600160a01b03861690811790915590518392907fddf252ad1be2c89b69c2b068fc378daa952ba7f163c4a11628f55a4df523b3ef908290a45050565b61015f5460ff161561231d5760405162461bcd60e51b815260206004820152601060248201526f14185d5cd8589b194e881c185d5cd95960821b6044820152606401610935565b61015f805460ff191660011790557f62e78cea01bee320cd4e420270b5ea74000d11b0c9f74754ebdbfc544b05a2586120c43390565b60006116b38383612b55565b816001600160a01b0316836001600160a01b031614156123c15760405162461bcd60e51b815260206004820152601960248201527f4552433732313a20617070726f766520746f2063616c6c6572000000000000006044820152606401610935565b6001600160a01b03838116600081815260ce6020908152604080832094871680845294825291829020805460ff191686151590811790915591519182527f17307eab39ab6107e8899845ad3d59bd9653f200f220920489ca2b5937696c31910160405180910390a3505050565b612439848484611c5c565b61244584848484612b7f565b6118185760405162461bcd60e51b8152600401610935906139b1565b6000610828825490565b60006001600160e01b031982166380ac58cd60e01b148061249c57506001600160e01b03198216635b5e139f60e01b145b80610828575061082882612c7d565b600054610100900460ff16806124c4575060005460ff16155b6124e05760405162461bcd60e51b815260040161093590613751565b600054610100900460ff16158015611b47576000805461ffff19166101011790558015610dd8576000805461ff001916905550565b600054610100900460ff168061252e575060005460ff16155b61254a5760405162461bcd60e51b815260040161093590613751565b600054610100900460ff1615801561256c576000805461ffff19166101011790555b825161257f9060c9906020860190613191565b5081516125939060ca906020850190613191565b508015610a6b576000805461ff0019169055505050565b600054610100900460ff16806125c3575060005460ff16155b6125df5760405162461bcd60e51b815260040161093590613751565b600054610100900460ff16158015612601576000805461ffff19166101011790555b61015f805460ff191690558015610dd8576000805461ff001916905550565b600054610100900460ff1680612639575060005460ff16155b6126555760405162461bcd60e51b815260040161093590613751565b600054610100900460ff16158015612677576000805461ffff19166101011790555b815161268b906101c4906020850190613191565b50612697600033611b5b565b6126af600080516020613b0d83398151915233611b5b565b611806600080516020613ac683398151915233611b5b565b610a6b838383612ca2565b606060006126e1836002613a03565b6126ec906002613924565b67ffffffffffffffff81111561270457612704613317565b6040519080825280601f01601f19166020018201604052801561272e576020820181803683370190505b509050600360fc1b8160008151811061274957612749613888565b60200101906001600160f81b031916908160001a905350600f60fb1b8160018151811061277857612778613888565b60200101906001600160f81b031916908160001a905350600061279c846002613a03565b6127a7906001613924565b90505b600181111561281f576f181899199a1a9b1b9c1cb0b131b232b360811b85600f16601081106127db576127db613888565b1a60f81b8282815181106127f1576127f1613888565b60200101906001600160f81b031916908160001a90535060049490941c9361281881613a22565b90506127aa565b5083156116b35760405162461bcd60e51b815260206004820181905260248201527f537472696e67733a20686578206c656e67746820696e73756666696369656e746044820152606401610935565b61287882826116ba565b610d0e5760008281526065602090815260408083206001600160a01b03851684529091529020805460ff191660011790556128b03390565b6001600160a01b0316816001600160a01b0316837f2f8788117e7eff1d82e926ec794901d17c78024a50270940304540a733656f0d60405160405180910390a45050565b60006116b3836001600160a01b038416612d15565b61291382826116ba565b15610d0e5760008281526065602090815260408083206001600160a01b0385168085529252808320805460ff1916905551339285917ff6391f5c32d9c69d2a47ea670b442974b53935d1edc7fd64eb21e047a839171b9190a45050565b60006116b3836001600160a01b038416612d64565b803b6129e95760405162461bcd60e51b815260206004820152602d60248201527f455243313936373a206e657720696d706c656d656e746174696f6e206973206e60448201526c1bdd08184818dbdb9d1c9858dd609a1b6064820152608401610935565b7f360894a13ba1a3210667c828492db98dca3e2076cc3735a920a3ca505d382bbc80546001600160a01b0319166001600160a01b0392909216919091179055565b6060823b612a895760405162461bcd60e51b815260206004820152602660248201527f416464726573733a2064656c65676174652063616c6c20746f206e6f6e2d636f6044820152651b9d1c9858dd60d21b6064820152608401610935565b600080846001600160a01b031684604051612aa49190613a39565b600060405180830381855af49150503d8060008114612adf576040519150601f19603f3d011682016040523d82523d6000602084013e612ae4565b606091505b5091509150612b0c8282604051806060016040528060278152602001613ae660279139612e57565b95945050505050565b612b1e81612985565b6040516001600160a01b038216907fbc7cd75a20ee27fd9adebab32041f755214dbc6bffa90cc0225b39da2e5c2d3b90600090a250565b6000826000018281548110612b6c57612b6c613888565b9060005260206000200154905092915050565b60006001600160a01b0384163b15612c7257604051630a85bd0160e11b81526001600160a01b0385169063150b7a0290612bc3903390899088908890600401613a55565b6020604051808303816000875af1925050508015612bfe575060408051601f3d908101601f19168201909252612bfb91810190613a92565b60015b612c58573d808015612c2c576040519150601f19603f3d011682016040523d82523d6000602084013e612c31565b606091505b508051612c505760405162461bcd60e51b8152600401610935906139b1565b805181602001fd5b6001600160e01b031916630a85bd0160e11b149050611c54565b506001949350505050565b60006001600160e01b03198216635a05180f60e01b1480610828575061082882612e90565b612cad838383612ec5565b61015f5460ff1615610a6b5760405162461bcd60e51b815260206004820152602b60248201527f4552433732315061757361626c653a20746f6b656e207472616e73666572207760448201526a1a1a5b19481c185d5cd95960aa1b6064820152608401610935565b6000818152600183016020526040812054612d5c57508154600181810184556000848152602080822090930184905584548482528286019093526040902091909155610828565b506000610828565b60008181526001830160205260408120548015612e4d576000612d8860018361390d565b8554909150600090612d9c9060019061390d565b9050818114612e01576000866000018281548110612dbc57612dbc613888565b9060005260206000200154905080876000018481548110612ddf57612ddf613888565b6000918252602080832090910192909255918252600188019052604090208390555b8554869080612e1257612e12613aaf565b600190038181906000526020600020016000905590558560010160008681526020019081526020016000206000905560019350505050610828565b6000915050610828565b60608315612e665750816116b3565b825115612e765782518084602001fd5b8160405162461bcd60e51b815260040161093591906132a5565b60006001600160e01b03198216637965db0b60e01b148061082857506301ffc9a760e01b6001600160e01b0319831614610828565b6001600160a01b038316612f2057612f1b8160fd8054600083815260fe60205260408120829055600182018355919091527f9346ac6dd7de6b96975fec380d4d994c4c12e6a8897544f22915316cc6cca2800155565b612f43565b816001600160a01b0316836001600160a01b031614612f4357612f438382612f7d565b6001600160a01b038216612f5a57610a6b8161301a565b826001600160a01b0316826001600160a01b031614610a6b57610a6b82826130c9565b60006001612f8a84611404565b612f94919061390d565b600083815260fc6020526040902054909150808214612fe7576001600160a01b038416600090815260fb60209081526040808320858452825280832054848452818420819055835260fc90915290208190555b50600091825260fc602090815260408084208490556001600160a01b03909416835260fb81528383209183525290812055565b60fd5460009061302c9060019061390d565b600083815260fe602052604081205460fd805493945090928490811061305457613054613888565b906000526020600020015490508060fd838154811061307557613075613888565b600091825260208083209091019290925582815260fe909152604080822084905585825281205560fd8054806130ad576130ad613aaf565b6001900381819060005260206000200160009055905550505050565b60006130d483611404565b6001600160a01b03909316600090815260fb60209081526040808320868452825280832085905593825260fc9052919091209190915550565b82805461311990613716565b90600052602060002090601f01602090048101928261313b5760008555613181565b82601f106131545782800160ff19823516178555613181565b82800160010185558215613181579182015b82811115613181578235825591602001919060010190613166565b5061318d929150613205565b5090565b82805461319d90613716565b90600052602060002090601f0160209004810192826131bf5760008555613181565b82601f106131d857805160ff1916838001178555613181565b82800160010185558215613181579182015b828111156131815782518255916020019190600101906131ea565b5b8082111561318d5760008155600101613206565b6001600160e01b031981168114610dd857600080fd5b60006020828403121561324257600080fd5b81356116b38161321a565b60005b83811015613268578181015183820152602001613250565b838111156118185750506000910152565b6000815180845261329181602086016020860161324d565b601f01601f19169290920160200192915050565b6020815260006116b36020830184613279565b6000602082840312156132ca57600080fd5b5035919050565b80356001600160a01b03811681146132e857600080fd5b919050565b6000806040838503121561330057600080fd5b613309836132d1565b946020939093013593505050565b634e487b7160e01b600052604160045260246000fd5b600082601f83011261333e57600080fd5b813567ffffffffffffffff8082111561335957613359613317565b604051601f8301601f19908116603f0116810190828211818310171561338157613381613317565b8160405283815286602085880101111561339a57600080fd5b836020870160208301376000602085830101528094505050505092915050565b600080600080608085870312156133d057600080fd5b6133d9856132d1565b93506133e7602086016132d1565b9250604085013567ffffffffffffffff8082111561340457600080fd5b6134108883890161332d565b9350606087013591508082111561342657600080fd5b506134338782880161332d565b91505092959194509250565b60008060006060848603121561345457600080fd5b61345d846132d1565b925061346b602085016132d1565b9150604084013590509250925092565b6000806040838503121561348e57600080fd5b8235915061349e602084016132d1565b90509250929050565b6000602082840312156134b957600080fd5b6116b3826132d1565b600080604083850312156134d557600080fd5b6134de836132d1565b9150602083013567ffffffffffffffff8111156134fa57600080fd5b6135068582860161332d565b9150509250929050565b60008060006040848603121561352557600080fd5b833567ffffffffffffffff8082111561353d57600080fd5b818601915086601f83011261355157600080fd5b81358181111561356057600080fd5b87602082850101111561357257600080fd5b6020928301989097509590910135949350505050565b6000806040838503121561359b57600080fd5b50508035926020909101359150565b6040815260006135bd6040830185613279565b90508260208301529392505050565b600080604083850312156135df57600080fd5b6135e8836132d1565b9150602083013580151581146135fd57600080fd5b809150509250929050565b60008060006060848603121561361d57600080fd5b833567ffffffffffffffff8082111561363557600080fd5b6136418783880161332d565b9450602086013591508082111561365757600080fd5b6136638783880161332d565b9350604086013591508082111561367957600080fd5b506136868682870161332d565b9150509250925092565b600080600080608085870312156136a657600080fd5b6136af856132d1565b93506136bd602086016132d1565b925060408501359150606085013567ffffffffffffffff8111156136e057600080fd5b6134338782880161332d565b600080604083850312156136ff57600080fd5b613708836132d1565b915061349e602084016132d1565b600181811c9082168061372a57607f821691505b6020821081141561374b57634e487b7160e01b600052602260045260246000fd5b50919050565b6020808252602e908201527f496e697469616c697a61626c653a20636f6e747261637420697320616c72656160408201526d191e481a5b9a5d1a585b1a5e995960921b606082015260800190565b60208082526031908201527f4552433732313a207472616e736665722063616c6c6572206973206e6f74206f6040820152701ddb995c881b9bdc88185c1c1c9bdd9959607a1b606082015260800190565b6020808252602c908201527f46756e6374696f6e206d7573742062652063616c6c6564207468726f7567682060408201526b19195b1959d85d1958d85b1b60a21b606082015260800190565b6020808252602c908201527f46756e6374696f6e206d7573742062652063616c6c6564207468726f7567682060408201526b6163746976652070726f787960a01b606082015260800190565b634e487b7160e01b600052603260045260246000fd5b6000602082840312156138b057600080fd5b5051919050565b848152606060208201528260608201528284608083013760006080848301015260006080601f19601f860116830101905082604083015295945050505050565b634e487b7160e01b600052601160045260246000fd5b60008282101561391f5761391f6138f7565b500390565b60008219821115613937576139376138f7565b500190565b7f416363657373436f6e74726f6c3a206163636f756e742000000000000000000081526000835161397481601785016020880161324d565b7001034b99036b4b9b9b4b733903937b6329607d1b60179184019182015283516139a581602884016020880161324d565b01602801949350505050565b60208082526032908201527f4552433732313a207472616e7366657220746f206e6f6e20455243373231526560408201527131b2b4bb32b91034b6b83632b6b2b73a32b960711b606082015260800190565b6000816000190483118215151615613a1d57613a1d6138f7565b500290565b600081613a3157613a316138f7565b506000190190565b60008251613a4b81846020870161324d565b9190910192915050565b6001600160a01b0385811682528416602082015260408101839052608060608201819052600090613a8890830184613279565b9695505050505050565b600060208284031215613aa457600080fd5b81516116b38161321a565b634e487b7160e01b600052603160045260246000fdfe65d7a28e3265b37a6474929f336521b332c1681b933f6cb9f3376673440d862a416464726573733a206c6f772d6c6576656c2064656c65676174652063616c6c206661696c65649f2df0fed2c77648de5860a4cc508cd0818c85b8b8a1ab4ceeef8d981c8956a6a264697066735822122034b4820e743b025bef4024d0a826d4c7a95b4d9f9290923a25e1f086ff6772af64736f6c634300080a0033",
  "devdoc": {
    "kind": "dev",
    "methods": {
      "approve(address,uint256)": {
        "details": "See {IERC721-approve}."
      },
      "balanceOf(address)": {
        "details": "See {IERC721-balanceOf}."
      },
      "burn(uint256)": {
        "details": "Burns `tokenId`. See {ERC721-_burn}. Requirements: - The caller must own `tokenId` or be an approved operator."
      },
      "getApproved(uint256)": {
        "details": "See {IERC721-getApproved}."
      },
      "getRoleAdmin(bytes32)": {
        "details": "Returns the admin role that controls `role`. See {grantRole} and {revokeRole}. To change a role's admin, use {_setRoleAdmin}."
      },
      "getRoleMember(bytes32,uint256)": {
        "details": "Returns one of the accounts that have `role`. `index` must be a value between 0 and {getRoleMemberCount}, non-inclusive. Role bearers are not sorted in any particular way, and their ordering may change at any point. WARNING: When using {getRoleMember} and {getRoleMemberCount}, make sure you perform all queries on the same block. See the following https://forum.openzeppelin.com/t/iterating-over-elements-on-enumerableset-in-openzeppelin-contracts/2296[forum post] for more information."
      },
      "getRoleMemberCount(bytes32)": {
        "details": "Returns the number of accounts that have `role`. Can be used together with {getRoleMember} to enumerate all bearers of a role."
      },
      "grantRole(bytes32,address)": {
        "details": "Grants `role` to `account`. If `account` had not been already granted `role`, emits a {RoleGranted} event. Requirements: - the caller must have ``role``'s admin role."
      },
      "hasRole(bytes32,address)": {
        "details": "Returns `true` if `account` has been granted `role`."
      },
      "isApprovedForAll(address,address)": {
        "details": "See {IERC721-isApprovedForAll}."
      },
      "mint(address)": {
        "details": "Creates a new token for `to`. Its token ID will be automatically assigned (and available on the emitted {IERC721-Transfer} event), and the token URI autogenerated based on the base URI passed at construction. See {ERC721-_mint}. Requirements: - the caller must have the `MINTER_ROLE`."
      },
      "name()": {
        "details": "See {IERC721Metadata-name}."
      },
      "ownerOf(uint256)": {
        "details": "See {IERC721-ownerOf}."
      },
      "pause()": {
        "details": "Pauses all token transfers. See {ERC721Pausable} and {Pausable-_pause}. Requirements: - the caller must have the `PAUSER_ROLE`."
      },
      "paused()": {
        "details": "Returns true if the contract is paused, and false otherwise."
      },
      "renounceRole(bytes32,address)": {
        "details": "Revokes `role` from the calling account. Roles are often managed via {grantRole} and {revokeRole}: this function's purpose is to provide a mechanism for accounts to lose their privileges if they are compromised (such as when a trusted device is misplaced). If the calling account had been revoked `role`, emits a {RoleRevoked} event. Requirements: - the caller must be `account`."
      },
      "revokeRole(bytes32,address)": {
        "details": "Revokes `role` from `account`. If `account` had been granted `role`, emits a {RoleRevoked} event. Requirements: - the caller must have ``role``'s admin role."
      },
      "safeTransferFrom(address,address,uint256)": {
        "details": "See {IERC721-safeTransferFrom}."
      },
      "safeTransferFrom(address,address,uint256,bytes)": {
        "details": "See {IERC721-safeTransferFrom}."
      },
      "setApprovalForAll(address,bool)": {
        "details": "See {IERC721-setApprovalForAll}."
      },
      "supportsInterface(bytes4)": {
        "details": "See {IERC165-supportsInterface}."
      },
      "symbol()": {
        "details": "See {IERC721Metadata-symbol}."
      },
      "tokenByIndex(uint256)": {
        "details": "See {IERC721Enumerable-tokenByIndex}."
      },
      "tokenOfOwnerByIndex(address,uint256)": {
        "details": "See {IERC721Enumerable-tokenOfOwnerByIndex}."
      },
      "tokenURI(uint256)": {
        "details": "See {IERC721Metadata-tokenURI}."
      },
      "totalSupply()": {
        "details": "See {IERC721Enumerable-totalSupply}."
      },
      "transferFrom(address,address,uint256)": {
        "details": "See {IERC721-transferFrom}."
      },
      "unpause()": {
        "details": "Unpauses all token transfers. See {ERC721Pausable} and {Pausable-_unpause}. Requirements: - the caller must have the `PAUSER_ROLE`."
      },
      "upgradeTo(address)": {
        "details": "Upgrade the implementation of the proxy to `newImplementation`. Calls {_authorizeUpgrade}. Emits an {Upgraded} event."
      },
      "upgradeToAndCall(address,bytes)": {
        "details": "Upgrade the implementation of the proxy to `newImplementation`, and subsequently execute the function call encoded in `data`. Calls {_authorizeUpgrade}. Emits an {Upgraded} event."
      }
    },
    "title": "GemCollectorNFT ",
    "version": 1
  },
  "userdoc": {
    "kind": "user",
    "methods": {},
    "version": 1
  },
  "storageLayout": {
    "storage": [
      {
        "astId": 1050,
        "contract": "contracts/GemCollectorNFT.sol:GemCollectorNFT",
        "label": "_initialized",
        "offset": 0,
        "slot": "0",
        "type": "t_bool"
      },
      {
        "astId": 1053,
        "contract": "contracts/GemCollectorNFT.sol:GemCollectorNFT",
        "label": "_initializing",
        "offset": 1,
        "slot": "0",
        "type": "t_bool"
      },
      {
        "astId": 5322,
        "contract": "contracts/GemCollectorNFT.sol:GemCollectorNFT",
        "label": "__gap",
        "offset": 0,
        "slot": "1",
        "type": "t_array(t_uint256)50_storage"
      },
      {
        "astId": 6244,
        "contract": "contracts/GemCollectorNFT.sol:GemCollectorNFT",
        "label": "__gap",
        "offset": 0,
        "slot": "51",
        "type": "t_array(t_uint256)50_storage"
      },
      {
        "astId": 250,
        "contract": "contracts/GemCollectorNFT.sol:GemCollectorNFT",
        "label": "_roles",
        "offset": 0,
        "slot": "101",
        "type": "t_mapping(t_bytes32,t_struct(RoleData)245_storage)"
      },
      {
        "astId": 537,
        "contract": "contracts/GemCollectorNFT.sol:GemCollectorNFT",
        "label": "__gap",
        "offset": 0,
        "slot": "102",
        "type": "t_array(t_uint256)49_storage"
      },
      {
        "astId": 91,
        "contract": "contracts/GemCollectorNFT.sol:GemCollectorNFT",
        "label": "_roleMembers",
        "offset": 0,
        "slot": "151",
        "type": "t_mapping(t_bytes32,t_struct(AddressSet)7050_storage)"
      },
      {
        "astId": 200,
        "contract": "contracts/GemCollectorNFT.sol:GemCollectorNFT",
        "label": "__gap",
        "offset": 0,
        "slot": "152",
        "type": "t_array(t_uint256)49_storage"
      },
      {
        "astId": 3260,
        "contract": "contracts/GemCollectorNFT.sol:GemCollectorNFT",
        "label": "_name",
        "offset": 0,
        "slot": "201",
        "type": "t_string_storage"
      },
      {
        "astId": 3262,
        "contract": "contracts/GemCollectorNFT.sol:GemCollectorNFT",
        "label": "_symbol",
        "offset": 0,
        "slot": "202",
        "type": "t_string_storage"
      },
      {
        "astId": 3266,
        "contract": "contracts/GemCollectorNFT.sol:GemCollectorNFT",
        "label": "_owners",
        "offset": 0,
        "slot": "203",
        "type": "t_mapping(t_uint256,t_address)"
      },
      {
        "astId": 3270,
        "contract": "contracts/GemCollectorNFT.sol:GemCollectorNFT",
        "label": "_balances",
        "offset": 0,
        "slot": "204",
        "type": "t_mapping(t_address,t_uint256)"
      },
      {
        "astId": 3274,
        "contract": "contracts/GemCollectorNFT.sol:GemCollectorNFT",
        "label": "_tokenApprovals",
        "offset": 0,
        "slot": "205",
        "type": "t_mapping(t_uint256,t_address)"
      },
      {
        "astId": 3280,
        "contract": "contracts/GemCollectorNFT.sol:GemCollectorNFT",
        "label": "_operatorApprovals",
        "offset": 0,
        "slot": "206",
        "type": "t_mapping(t_address,t_mapping(t_address,t_bool))"
      },
      {
        "astId": 4091,
        "contract": "contracts/GemCollectorNFT.sol:GemCollectorNFT",
        "label": "__gap",
        "offset": 0,
        "slot": "207",
        "type": "t_array(t_uint256)44_storage"
      },
      {
        "astId": 4323,
        "contract": "contracts/GemCollectorNFT.sol:GemCollectorNFT",
        "label": "_ownedTokens",
        "offset": 0,
        "slot": "251",
        "type": "t_mapping(t_address,t_mapping(t_uint256,t_uint256))"
      },
      {
        "astId": 4327,
        "contract": "contracts/GemCollectorNFT.sol:GemCollectorNFT",
        "label": "_ownedTokensIndex",
        "offset": 0,
        "slot": "252",
        "type": "t_mapping(t_uint256,t_uint256)"
      },
      {
        "astId": 4330,
        "contract": "contracts/GemCollectorNFT.sol:GemCollectorNFT",
        "label": "_allTokens",
        "offset": 0,
        "slot": "253",
        "type": "t_array(t_uint256)dyn_storage"
      },
      {
        "astId": 4334,
        "contract": "contracts/GemCollectorNFT.sol:GemCollectorNFT",
        "label": "_allTokensIndex",
        "offset": 0,
        "slot": "254",
        "type": "t_mapping(t_uint256,t_uint256)"
      },
      {
        "astId": 4649,
        "contract": "contracts/GemCollectorNFT.sol:GemCollectorNFT",
        "label": "__gap",
        "offset": 0,
        "slot": "255",
        "type": "t_array(t_uint256)46_storage"
      },
      {
        "astId": 4283,
        "contract": "contracts/GemCollectorNFT.sol:GemCollectorNFT",
        "label": "__gap",
        "offset": 0,
        "slot": "301",
        "type": "t_array(t_uint256)50_storage"
      },
      {
        "astId": 1222,
        "contract": "contracts/GemCollectorNFT.sol:GemCollectorNFT",
        "label": "_paused",
        "offset": 0,
        "slot": "351",
        "type": "t_bool"
      },
      {
        "astId": 1313,
        "contract": "contracts/GemCollectorNFT.sol:GemCollectorNFT",
        "label": "__gap",
        "offset": 0,
        "slot": "352",
        "type": "t_array(t_uint256)49_storage"
      },
      {
        "astId": 4717,
        "contract": "contracts/GemCollectorNFT.sol:GemCollectorNFT",
        "label": "__gap",
        "offset": 0,
        "slot": "401",
        "type": "t_array(t_uint256)50_storage"
      },
      {
        "astId": 4834,
        "contract": "contracts/GemCollectorNFT.sol:GemCollectorNFT",
        "label": "_tokenIdTracker",
        "offset": 0,
        "slot": "451",
        "type": "t_struct(Counter)5329_storage"
      },
      {
        "astId": 4836,
        "contract": "contracts/GemCollectorNFT.sol:GemCollectorNFT",
        "label": "_baseTokenURI",
        "offset": 0,
        "slot": "452",
        "type": "t_string_storage"
      },
      {
        "astId": 5033,
        "contract": "contracts/GemCollectorNFT.sol:GemCollectorNFT",
        "label": "__gap",
        "offset": 0,
        "slot": "453",
        "type": "t_array(t_uint256)48_storage"
      },
      {
        "astId": 1033,
        "contract": "contracts/GemCollectorNFT.sol:GemCollectorNFT",
        "label": "__gap",
        "offset": 0,
        "slot": "501",
        "type": "t_array(t_uint256)50_storage"
      },
      {
        "astId": 1200,
        "contract": "contracts/GemCollectorNFT.sol:GemCollectorNFT",
        "label": "__gap",
        "offset": 0,
        "slot": "551",
        "type": "t_array(t_uint256)50_storage"
      },
      {
        "astId": 13077,
        "contract": "contracts/GemCollectorNFT.sol:GemCollectorNFT",
        "label": "tokenIds",
        "offset": 0,
        "slot": "601",
        "type": "t_struct(Counter)5329_storage"
      },
      {
        "astId": 13080,
        "contract": "contracts/GemCollectorNFT.sol:GemCollectorNFT",
        "label": "levelIds",
        "offset": 0,
        "slot": "602",
        "type": "t_struct(Counter)5329_storage"
      },
      {
        "astId": 13087,
        "contract": "contracts/GemCollectorNFT.sol:GemCollectorNFT",
        "label": "gems",
        "offset": 0,
        "slot": "603",
        "type": "t_address"
      },
      {
        "astId": 13097,
        "contract": "contracts/GemCollectorNFT.sol:GemCollectorNFT",
        "label": "levelIdToTokenData",
        "offset": 0,
        "slot": "604",
        "type": "t_mapping(t_uint256,t_struct(TokenData)13092_storage)"
      },
      {
        "astId": 13101,
        "contract": "contracts/GemCollectorNFT.sol:GemCollectorNFT",
        "label": "tokenURIs",
        "offset": 0,
        "slot": "605",
        "type": "t_mapping(t_uint256,t_string_storage)"
      },
      {
        "astId": 13107,
        "contract": "contracts/GemCollectorNFT.sol:GemCollectorNFT",
        "label": "hasMinted",
        "offset": 0,
        "slot": "606",
        "type": "t_mapping(t_address,t_mapping(t_uint256,t_bool))"
      },
      {
        "astId": 13111,
        "contract": "contracts/GemCollectorNFT.sol:GemCollectorNFT",
        "label": "tokenIDtoLevelID",
        "offset": 0,
        "slot": "607",
        "type": "t_mapping(t_uint256,t_uint256)"
      }
    ],
    "types": {
      "t_address": {
        "encoding": "inplace",
        "label": "address",
        "numberOfBytes": "20"
      },
      "t_array(t_bytes32)dyn_storage": {
        "base": "t_bytes32",
        "encoding": "dynamic_array",
        "label": "bytes32[]",
        "numberOfBytes": "32"
      },
      "t_array(t_uint256)44_storage": {
        "base": "t_uint256",
        "encoding": "inplace",
        "label": "uint256[44]",
        "numberOfBytes": "1408"
      },
      "t_array(t_uint256)46_storage": {
        "base": "t_uint256",
        "encoding": "inplace",
        "label": "uint256[46]",
        "numberOfBytes": "1472"
      },
      "t_array(t_uint256)48_storage": {
        "base": "t_uint256",
        "encoding": "inplace",
        "label": "uint256[48]",
        "numberOfBytes": "1536"
      },
      "t_array(t_uint256)49_storage": {
        "base": "t_uint256",
        "encoding": "inplace",
        "label": "uint256[49]",
        "numberOfBytes": "1568"
      },
      "t_array(t_uint256)50_storage": {
        "base": "t_uint256",
        "encoding": "inplace",
        "label": "uint256[50]",
        "numberOfBytes": "1600"
      },
      "t_array(t_uint256)dyn_storage": {
        "base": "t_uint256",
        "encoding": "dynamic_array",
        "label": "uint256[]",
        "numberOfBytes": "32"
      },
      "t_bool": {
        "encoding": "inplace",
        "label": "bool",
        "numberOfBytes": "1"
      },
      "t_bytes32": {
        "encoding": "inplace",
        "label": "bytes32",
        "numberOfBytes": "32"
      },
      "t_mapping(t_address,t_bool)": {
        "encoding": "mapping",
        "key": "t_address",
        "label": "mapping(address => bool)",
        "numberOfBytes": "32",
        "value": "t_bool"
      },
      "t_mapping(t_address,t_mapping(t_address,t_bool))": {
        "encoding": "mapping",
        "key": "t_address",
        "label": "mapping(address => mapping(address => bool))",
        "numberOfBytes": "32",
        "value": "t_mapping(t_address,t_bool)"
      },
      "t_mapping(t_address,t_mapping(t_uint256,t_bool))": {
        "encoding": "mapping",
        "key": "t_address",
        "label": "mapping(address => mapping(uint256 => bool))",
        "numberOfBytes": "32",
        "value": "t_mapping(t_uint256,t_bool)"
      },
      "t_mapping(t_address,t_mapping(t_uint256,t_uint256))": {
        "encoding": "mapping",
        "key": "t_address",
        "label": "mapping(address => mapping(uint256 => uint256))",
        "numberOfBytes": "32",
        "value": "t_mapping(t_uint256,t_uint256)"
      },
      "t_mapping(t_address,t_uint256)": {
        "encoding": "mapping",
        "key": "t_address",
        "label": "mapping(address => uint256)",
        "numberOfBytes": "32",
        "value": "t_uint256"
      },
      "t_mapping(t_bytes32,t_struct(AddressSet)7050_storage)": {
        "encoding": "mapping",
        "key": "t_bytes32",
        "label": "mapping(bytes32 => struct EnumerableSetUpgradeable.AddressSet)",
        "numberOfBytes": "32",
        "value": "t_struct(AddressSet)7050_storage"
      },
      "t_mapping(t_bytes32,t_struct(RoleData)245_storage)": {
        "encoding": "mapping",
        "key": "t_bytes32",
        "label": "mapping(bytes32 => struct AccessControlUpgradeable.RoleData)",
        "numberOfBytes": "32",
        "value": "t_struct(RoleData)245_storage"
      },
      "t_mapping(t_bytes32,t_uint256)": {
        "encoding": "mapping",
        "key": "t_bytes32",
        "label": "mapping(bytes32 => uint256)",
        "numberOfBytes": "32",
        "value": "t_uint256"
      },
      "t_mapping(t_uint256,t_address)": {
        "encoding": "mapping",
        "key": "t_uint256",
        "label": "mapping(uint256 => address)",
        "numberOfBytes": "32",
        "value": "t_address"
      },
      "t_mapping(t_uint256,t_bool)": {
        "encoding": "mapping",
        "key": "t_uint256",
        "label": "mapping(uint256 => bool)",
        "numberOfBytes": "32",
        "value": "t_bool"
      },
      "t_mapping(t_uint256,t_string_storage)": {
        "encoding": "mapping",
        "key": "t_uint256",
        "label": "mapping(uint256 => string)",
        "numberOfBytes": "32",
        "value": "t_string_storage"
      },
      "t_mapping(t_uint256,t_struct(TokenData)13092_storage)": {
        "encoding": "mapping",
        "key": "t_uint256",
        "label": "mapping(uint256 => struct GemCollectorNFT.TokenData)",
        "numberOfBytes": "32",
        "value": "t_struct(TokenData)13092_storage"
      },
      "t_mapping(t_uint256,t_uint256)": {
        "encoding": "mapping",
        "key": "t_uint256",
        "label": "mapping(uint256 => uint256)",
        "numberOfBytes": "32",
        "value": "t_uint256"
      },
      "t_string_storage": {
        "encoding": "bytes",
        "label": "string",
        "numberOfBytes": "32"
      },
      "t_struct(AddressSet)7050_storage": {
        "encoding": "inplace",
        "label": "struct EnumerableSetUpgradeable.AddressSet",
        "members": [
          {
            "astId": 7049,
            "contract": "contracts/GemCollectorNFT.sol:GemCollectorNFT",
            "label": "_inner",
            "offset": 0,
            "slot": "0",
            "type": "t_struct(Set)6749_storage"
          }
        ],
        "numberOfBytes": "64"
      },
      "t_struct(Counter)5329_storage": {
        "encoding": "inplace",
        "label": "struct CountersUpgradeable.Counter",
        "members": [
          {
            "astId": 5328,
            "contract": "contracts/GemCollectorNFT.sol:GemCollectorNFT",
            "label": "_value",
            "offset": 0,
            "slot": "0",
            "type": "t_uint256"
          }
        ],
        "numberOfBytes": "32"
      },
      "t_struct(RoleData)245_storage": {
        "encoding": "inplace",
        "label": "struct AccessControlUpgradeable.RoleData",
        "members": [
          {
            "astId": 242,
            "contract": "contracts/GemCollectorNFT.sol:GemCollectorNFT",
            "label": "members",
            "offset": 0,
            "slot": "0",
            "type": "t_mapping(t_address,t_bool)"
          },
          {
            "astId": 244,
            "contract": "contracts/GemCollectorNFT.sol:GemCollectorNFT",
            "label": "adminRole",
            "offset": 0,
            "slot": "1",
            "type": "t_bytes32"
          }
        ],
        "numberOfBytes": "64"
      },
      "t_struct(Set)6749_storage": {
        "encoding": "inplace",
        "label": "struct EnumerableSetUpgradeable.Set",
        "members": [
          {
            "astId": 6744,
            "contract": "contracts/GemCollectorNFT.sol:GemCollectorNFT",
            "label": "_values",
            "offset": 0,
            "slot": "0",
            "type": "t_array(t_bytes32)dyn_storage"
          },
          {
            "astId": 6748,
            "contract": "contracts/GemCollectorNFT.sol:GemCollectorNFT",
            "label": "_indexes",
            "offset": 0,
            "slot": "1",
            "type": "t_mapping(t_bytes32,t_uint256)"
          }
        ],
        "numberOfBytes": "64"
      },
      "t_struct(TokenData)13092_storage": {
        "encoding": "inplace",
        "label": "struct GemCollectorNFT.TokenData",
        "members": [
          {
            "astId": 13089,
            "contract": "contracts/GemCollectorNFT.sol:GemCollectorNFT",
            "label": "tokenUri",
            "offset": 0,
            "slot": "0",
            "type": "t_string_storage"
          },
          {
            "astId": 13091,
            "contract": "contracts/GemCollectorNFT.sol:GemCollectorNFT",
            "label": "minRequiredGemsToMintToken",
            "offset": 0,
            "slot": "1",
            "type": "t_uint256"
          }
        ],
        "numberOfBytes": "64"
      },
      "t_uint256": {
        "encoding": "inplace",
        "label": "uint256",
        "numberOfBytes": "32"
      }
    }
  }
}