{
  "address": "0x2d56f047805aea38062f248a05d3157c961bF287",
  "abi": [
    {
      "anonymous": false,
      "inputs": [
        {
          "indexed": false,
          "internalType": "address",
          "name": "previousAdmin",
          "type": "address"
        },
        {
          "indexed": false,
          "internalType": "address",
          "name": "newAdmin",
          "type": "address"
        }
      ],
      "name": "AdminChanged",
      "type": "event"
    },
    {
      "anonymous": false,
      "inputs": [
        {
          "indexed": true,
          "internalType": "address",
          "name": "beacon",
          "type": "address"
        }
      ],
      "name": "BeaconUpgraded",
      "type": "event"
    },
    {
      "anonymous": false,
      "inputs": [
        {
          "indexed": false,
          "internalType": "address",
          "name": "user",
          "type": "address"
        },
        {
          "indexed": false,
          "internalType": "uint256",
          "name": "gems",
          "type": "uint256"
        },
        {
          "indexed": false,
          "internalType": "uint256",
          "name": "streak",
          "type": "uint256"
        }
      ],
      "name": "GemsCollected",
      "type": "event"
    },
    {
      "anonymous": false,
      "inputs": [
        {
          "indexed": true,
          "internalType": "bytes32",
          "name": "role",
          "type": "bytes32"
        },
        {
          "indexed": true,
          "internalType": "bytes32",
          "name": "previousAdminRole",
          "type": "bytes32"
        },
        {
          "indexed": true,
          "internalType": "bytes32",
          "name": "newAdminRole",
          "type": "bytes32"
        }
      ],
      "name": "RoleAdminChanged",
      "type": "event"
    },
    {
      "anonymous": false,
      "inputs": [
        {
          "indexed": true,
          "internalType": "bytes32",
          "name": "role",
          "type": "bytes32"
        },
        {
          "indexed": true,
          "internalType": "address",
          "name": "account",
          "type": "address"
        },
        {
          "indexed": true,
          "internalType": "address",
          "name": "sender",
          "type": "address"
        }
      ],
      "name": "RoleGranted",
      "type": "event"
    },
    {
      "anonymous": false,
      "inputs": [
        {
          "indexed": true,
          "internalType": "bytes32",
          "name": "role",
          "type": "bytes32"
        },
        {
          "indexed": true,
          "internalType": "address",
          "name": "account",
          "type": "address"
        },
        {
          "indexed": true,
          "internalType": "address",
          "name": "sender",
          "type": "address"
        }
      ],
      "name": "RoleRevoked",
      "type": "event"
    },
    {
      "anonymous": false,
      "inputs": [
        {
          "indexed": true,
          "internalType": "address",
          "name": "implementation",
          "type": "address"
        }
      ],
      "name": "Upgraded",
      "type": "event"
    },
    {
      "inputs": [],
      "name": "ADMIN_ROLE",
      "outputs": [
        {
          "internalType": "bytes32",
          "name": "",
          "type": "bytes32"
        }
      ],
      "stateMutability": "view",
      "type": "function"
    },
    {
      "inputs": [],
      "name": "DEFAULT_ADMIN_ROLE",
      "outputs": [
        {
          "internalType": "bytes32",
          "name": "",
          "type": "bytes32"
        }
      ],
      "stateMutability": "view",
      "type": "function"
    },
    {
      "inputs": [],
      "name": "GEM_ROLE",
      "outputs": [
        {
          "internalType": "bytes32",
          "name": "",
          "type": "bytes32"
        }
      ],
      "stateMutability": "view",
      "type": "function"
    },
    {
      "inputs": [],
      "name": "UPGRADER_ROLE",
      "outputs": [
        {
          "internalType": "bytes32",
          "name": "",
          "type": "bytes32"
        }
      ],
      "stateMutability": "view",
      "type": "function"
    },
    {
      "inputs": [
        {
          "internalType": "address",
          "name": "account",
          "type": "address"
        }
      ],
      "name": "balanceOf",
      "outputs": [
        {
          "internalType": "uint256",
          "name": "",
          "type": "uint256"
        }
      ],
      "stateMutability": "view",
      "type": "function"
    },
    {
      "inputs": [
        {
          "internalType": "address",
          "name": "",
          "type": "address"
        }
      ],
      "name": "gems",
      "outputs": [
        {
          "internalType": "uint256",
          "name": "",
          "type": "uint256"
        }
      ],
      "stateMutability": "view",
      "type": "function"
    },
    {
      "inputs": [
        {
          "internalType": "bytes32",
          "name": "role",
          "type": "bytes32"
        }
      ],
      "name": "getRoleAdmin",
      "outputs": [
        {
          "internalType": "bytes32",
          "name": "",
          "type": "bytes32"
        }
      ],
      "stateMutability": "view",
      "type": "function"
    },
    {
      "inputs": [
        {
          "internalType": "address",
          "name": "user",
          "type": "address"
        }
      ],
      "name": "gm",
      "outputs": [],
      "stateMutability": "nonpayable",
      "type": "function"
    },
    {
      "inputs": [
        {
          "internalType": "bytes32",
          "name": "role",
          "type": "bytes32"
        },
        {
          "internalType": "address",
          "name": "account",
          "type": "address"
        }
      ],
      "name": "grantRole",
      "outputs": [],
      "stateMutability": "nonpayable",
      "type": "function"
    },
    {
      "inputs": [
        {
          "internalType": "bytes32",
          "name": "role",
          "type": "bytes32"
        },
        {
          "internalType": "address",
          "name": "account",
          "type": "address"
        }
      ],
      "name": "hasRole",
      "outputs": [
        {
          "internalType": "bool",
          "name": "",
          "type": "bool"
        }
      ],
      "stateMutability": "view",
      "type": "function"
    },
    {
      "inputs": [
        {
          "internalType": "address",
          "name": "_admin",
          "type": "address"
        },
        {
          "internalType": "address",
          "name": "_longShort",
          "type": "address"
        },
        {
          "internalType": "address",
          "name": "_staker",
          "type": "address"
        }
      ],
      "name": "initialize",
      "outputs": [],
      "stateMutability": "nonpayable",
      "type": "function"
    },
    {
      "inputs": [
        {
          "internalType": "address",
          "name": "",
          "type": "address"
        }
      ],
      "name": "lastAction",
      "outputs": [
        {
          "internalType": "uint256",
          "name": "",
          "type": "uint256"
        }
      ],
      "stateMutability": "view",
      "type": "function"
    },
    {
      "inputs": [
        {
          "internalType": "bytes32",
          "name": "role",
          "type": "bytes32"
        },
        {
          "internalType": "address",
          "name": "account",
          "type": "address"
        }
      ],
      "name": "renounceRole",
      "outputs": [],
      "stateMutability": "nonpayable",
      "type": "function"
    },
    {
      "inputs": [
        {
          "internalType": "bytes32",
          "name": "role",
          "type": "bytes32"
        },
        {
          "internalType": "address",
          "name": "account",
          "type": "address"
        }
      ],
      "name": "revokeRole",
      "outputs": [],
      "stateMutability": "nonpayable",
      "type": "function"
    },
    {
      "inputs": [
        {
          "internalType": "address",
          "name": "",
          "type": "address"
        }
      ],
      "name": "streak",
      "outputs": [
        {
          "internalType": "uint256",
          "name": "",
          "type": "uint256"
        }
      ],
      "stateMutability": "view",
      "type": "function"
    },
    {
      "inputs": [
        {
          "internalType": "bytes4",
          "name": "interfaceId",
          "type": "bytes4"
        }
      ],
      "name": "supportsInterface",
      "outputs": [
        {
          "internalType": "bool",
          "name": "",
          "type": "bool"
        }
      ],
      "stateMutability": "view",
      "type": "function"
    },
    {
      "inputs": [
        {
          "internalType": "address",
          "name": "newImplementation",
          "type": "address"
        }
      ],
      "name": "upgradeTo",
      "outputs": [],
      "stateMutability": "nonpayable",
      "type": "function"
    },
    {
      "inputs": [
        {
          "internalType": "address",
          "name": "newImplementation",
          "type": "address"
        },
        {
          "internalType": "bytes",
          "name": "data",
          "type": "bytes"
        }
      ],
      "name": "upgradeToAndCall",
      "outputs": [],
      "stateMutability": "payable",
      "type": "function"
    }
  ],
  "transactionHash": "0xfbd5b8c21c85f33233b00f20659dd55fe026335ac031860ecc6c34ce988562fa",
  "args": [],
  "solcInputHash": "8eb3db1ebad73600fe854988a31b02ce",
  "bytecode": "0x60a06040523060805234801561001457600080fd5b50608051611677610045600039600081816104c2015281816105020152818161058b01526105cb01526116776000f3fe6080604052600436106101095760003560e01c806370a0823111610095578063a217fddf11610064578063a217fddf14610327578063c0c53b8b1461033c578063d547741f1461035c578063f4e5f7061461037c578063f72c0d8b1461039e57600080fd5b806370a082311461027d57806375b238fc146102b357806391d14854146102e757806392d0214c1461030757600080fd5b80633659cfe6116100dc5780633659cfe6146101c35780633809467e146101e35780634f1ef286146102105780636a2a65181461022357806370720d1f1461025057600080fd5b806301ffc9a71461010e578063248a9ca3146101435780632f2ff15d1461018157806336568abe146101a3575b600080fd5b34801561011a57600080fd5b5061012e6101293660046111d2565b6103d2565b60405190151581526020015b60405180910390f35b34801561014f57600080fd5b5061017361015e3660046111fc565b60009081526065602052604090206001015490565b60405190815260200161013a565b34801561018d57600080fd5b506101a161019c366004611231565b610409565b005b3480156101af57600080fd5b506101a16101be366004611231565b610434565b3480156101cf57600080fd5b506101a16101de36600461125d565b6104b7565b3480156101ef57600080fd5b506101736101fe36600461125d565b60fb6020526000908152604090205481565b6101a161021e36600461128e565b610580565b34801561022f57600080fd5b5061017361023e36600461125d565b60fc6020526000908152604090205481565b34801561025c57600080fd5b5061017361026b36600461125d565b60fd6020526000908152604090205481565b34801561028957600080fd5b5061017361029836600461125d565b6001600160a01b0316600090815260fb602052604090205490565b3480156102bf57600080fd5b506101737fa49807205ce4d355092ef5a8a18f56e8913cf4a201fbe287825b095693c2177581565b3480156102f357600080fd5b5061012e610302366004611231565b610636565b34801561031357600080fd5b506101a161032236600461125d565b610661565b34801561033357600080fd5b50610173600081565b34801561034857600080fd5b506101a1610357366004611350565b6107c0565b34801561036857600080fd5b506101a1610377366004611231565b610868565b34801561038857600080fd5b506101736000805160206115fb83398151915281565b3480156103aa57600080fd5b506101737f189ab7a9244df0848122154315af71fe140f3db0fe014031783b0946b8c9d2e381565b60006001600160e01b03198216637965db0b60e01b148061040357506301ffc9a760e01b6001600160e01b03198316145b92915050565b600082815260656020526040902060010154610425813361088e565b61042f83836108f2565b505050565b6001600160a01b03811633146104a95760405162461bcd60e51b815260206004820152602f60248201527f416363657373436f6e74726f6c3a2063616e206f6e6c792072656e6f756e636560448201526e103937b632b9903337b91039b2b63360891b60648201526084015b60405180910390fd5b6104b38282610978565b5050565b306001600160a01b037f00000000000000000000000000000000000000000000000000000000000000001614156105005760405162461bcd60e51b81526004016104a090611393565b7f00000000000000000000000000000000000000000000000000000000000000006001600160a01b03166105326109df565b6001600160a01b0316146105585760405162461bcd60e51b81526004016104a0906113df565b61056181610a0d565b6040805160008082526020820190925261057d91839190610a38565b50565b306001600160a01b037f00000000000000000000000000000000000000000000000000000000000000001614156105c95760405162461bcd60e51b81526004016104a090611393565b7f00000000000000000000000000000000000000000000000000000000000000006001600160a01b03166105fb6109df565b6001600160a01b0316146106215760405162461bcd60e51b81526004016104a0906113df565b61062a82610a0d565b6104b382826001610a38565b60009182526065602090815260408084206001600160a01b0393909316845291905290205460ff1690565b6106796000805160206115fb83398151915233610636565b1561057d576001600160a01b038116600090815260fd602052604090205442620151806106a68383611441565b1061042f576001600160a01b038316600090815260fb602052604081208054680d8d726b7177a8000092906106dc908490611458565b909155506106f09050620151806002611470565b6106fa8383611441565b1015610734576001600160a01b038316600090815260fc60205260408120805460019290610729908490611458565b909155506107519050565b6001600160a01b038316600090815260fc60205260409020600190555b6001600160a01b038316600081815260fd6020908152604080832085905560fb82528083205460fc8352928190205481519485529184019290925282820152517f6f4864c954777b623ffcb477ee1875e76a6345a6ca1588bcc781048e8674e5ee9181900360600190a1505050565b600054610100900460ff16806107d9575060005460ff16155b6107f55760405162461bcd60e51b81526004016104a09061148f565b600054610100900460ff16158015610817576000805461ffff19166101011790555b61082084610b83565b6108386000805160206115fb83398151915284610c08565b6108506000805160206115fb83398151915283610c08565b8015610862576000805461ff00191690555b50505050565b600082815260656020526040902060010154610884813361088e565b61042f8383610978565b6108988282610636565b6104b3576108b0816001600160a01b03166014610c12565b6108bb836020610c12565b6040516020016108cc929190611509565b60408051601f198184030181529082905262461bcd60e51b82526104a09160040161157e565b6108fc8282610636565b6104b35760008281526065602090815260408083206001600160a01b03851684529091529020805460ff191660011790556109343390565b6001600160a01b0316816001600160a01b0316837f2f8788117e7eff1d82e926ec794901d17c78024a50270940304540a733656f0d60405160405180910390a45050565b6109828282610636565b156104b35760008281526065602090815260408083206001600160a01b0385168085529252808320805460ff1916905551339285917ff6391f5c32d9c69d2a47ea670b442974b53935d1edc7fd64eb21e047a839171b9190a45050565b7f360894a13ba1a3210667c828492db98dca3e2076cc3735a920a3ca505d382bbc546001600160a01b031690565b7f189ab7a9244df0848122154315af71fe140f3db0fe014031783b0946b8c9d2e36104b3813361088e565b6000610a426109df565b9050610a4d84610db5565b600083511180610a5a5750815b15610a6b57610a698484610e5a565b505b7f4910fdfa16fed3260ed0e7147f7cc6da11a60208b5b9406d12a635614ffd9143805460ff16610b7c57805460ff191660011781556040516001600160a01b0383166024820152610aea90869060440160408051601f198184030181529190526020810180516001600160e01b0316631b2ce7f360e11b179052610e5a565b50805460ff19168155610afb6109df565b6001600160a01b0316826001600160a01b031614610b735760405162461bcd60e51b815260206004820152602f60248201527f45524331393637557067726164653a207570677261646520627265616b73206660448201526e75727468657220757067726164657360881b60648201526084016104a0565b610b7c85610f45565b5050505050565b600054610100900460ff1680610b9c575060005460ff16155b610bb85760405162461bcd60e51b81526004016104a09061148f565b600054610100900460ff16158015610bda576000805461ffff19166101011790555b610be2610f85565b610bea611008565b610bf382611066565b80156104b3576000805461ff00191690555050565b6104b382826108f2565b60606000610c21836002611470565b610c2c906002611458565b67ffffffffffffffff811115610c4457610c44611278565b6040519080825280601f01601f191660200182016040528015610c6e576020820181803683370190505b509050600360fc1b81600081518110610c8957610c896115b1565b60200101906001600160f81b031916908160001a905350600f60fb1b81600181518110610cb857610cb86115b1565b60200101906001600160f81b031916908160001a9053506000610cdc846002611470565b610ce7906001611458565b90505b6001811115610d5f576f181899199a1a9b1b9c1cb0b131b232b360811b85600f1660108110610d1b57610d1b6115b1565b1a60f81b828281518110610d3157610d316115b1565b60200101906001600160f81b031916908160001a90535060049490941c93610d58816115c7565b9050610cea565b508315610dae5760405162461bcd60e51b815260206004820181905260248201527f537472696e67733a20686578206c656e67746820696e73756666696369656e7460448201526064016104a0565b9392505050565b803b610e195760405162461bcd60e51b815260206004820152602d60248201527f455243313936373a206e657720696d706c656d656e746174696f6e206973206e60448201526c1bdd08184818dbdb9d1c9858dd609a1b60648201526084016104a0565b7f360894a13ba1a3210667c828492db98dca3e2076cc3735a920a3ca505d382bbc80546001600160a01b0319166001600160a01b0392909216919091179055565b6060823b610eb95760405162461bcd60e51b815260206004820152602660248201527f416464726573733a2064656c65676174652063616c6c20746f206e6f6e2d636f6044820152651b9d1c9858dd60d21b60648201526084016104a0565b600080846001600160a01b031684604051610ed491906115de565b600060405180830381855af49150503d8060008114610f0f576040519150601f19603f3d011682016040523d82523d6000602084013e610f14565b606091505b5091509150610f3c828260405180606001604052806027815260200161161b6027913961112f565b95945050505050565b610f4e81610db5565b6040516001600160a01b038216907fbc7cd75a20ee27fd9adebab32041f755214dbc6bffa90cc0225b39da2e5c2d3b90600090a250565b600054610100900460ff1680610f9e575060005460ff16155b610fba5760405162461bcd60e51b81526004016104a09061148f565b600054610100900460ff16158015610fdc576000805461ffff19166101011790555b610fe4611168565b610fec611168565b610ff4611168565b801561057d576000805461ff001916905550565b600054610100900460ff1680611021575060005460ff16155b61103d5760405162461bcd60e51b81526004016104a09061148f565b600054610100900460ff16158015610fe4576000805461ffff1916610101179055610fec611168565b600054610100900460ff168061107f575060005460ff16155b61109b5760405162461bcd60e51b81526004016104a09061148f565b600054610100900460ff161580156110bd576000805461ffff19166101011790555b6001600160a01b0382166110d057600080fd5b6110db600083610c08565b6111057fa49807205ce4d355092ef5a8a18f56e8913cf4a201fbe287825b095693c2177583610c08565b610bf37f189ab7a9244df0848122154315af71fe140f3db0fe014031783b0946b8c9d2e383610c08565b6060831561113e575081610dae565b82511561114e5782518084602001fd5b8160405162461bcd60e51b81526004016104a0919061157e565b600054610100900460ff1680611181575060005460ff16155b61119d5760405162461bcd60e51b81526004016104a09061148f565b600054610100900460ff16158015610ff4576000805461ffff1916610101179055801561057d576000805461ff001916905550565b6000602082840312156111e457600080fd5b81356001600160e01b031981168114610dae57600080fd5b60006020828403121561120e57600080fd5b5035919050565b80356001600160a01b038116811461122c57600080fd5b919050565b6000806040838503121561124457600080fd5b8235915061125460208401611215565b90509250929050565b60006020828403121561126f57600080fd5b610dae82611215565b634e487b7160e01b600052604160045260246000fd5b600080604083850312156112a157600080fd5b6112aa83611215565b9150602083013567ffffffffffffffff808211156112c757600080fd5b818501915085601f8301126112db57600080fd5b8135818111156112ed576112ed611278565b604051601f8201601f19908116603f0116810190838211818310171561131557611315611278565b8160405282815288602084870101111561132e57600080fd5b8260208601602083013760006020848301015280955050505050509250929050565b60008060006060848603121561136557600080fd5b61136e84611215565b925061137c60208501611215565b915061138a60408501611215565b90509250925092565b6020808252602c908201527f46756e6374696f6e206d7573742062652063616c6c6564207468726f7567682060408201526b19195b1959d85d1958d85b1b60a21b606082015260800190565b6020808252602c908201527f46756e6374696f6e206d7573742062652063616c6c6564207468726f7567682060408201526b6163746976652070726f787960a01b606082015260800190565b634e487b7160e01b600052601160045260246000fd5b6000828210156114535761145361142b565b500390565b6000821982111561146b5761146b61142b565b500190565b600081600019048311821515161561148a5761148a61142b565b500290565b6020808252602e908201527f496e697469616c697a61626c653a20636f6e747261637420697320616c72656160408201526d191e481a5b9a5d1a585b1a5e995960921b606082015260800190565b60005b838110156114f85781810151838201526020016114e0565b838111156108625750506000910152565b7f416363657373436f6e74726f6c3a206163636f756e74200000000000000000008152600083516115418160178501602088016114dd565b7001034b99036b4b9b9b4b733903937b6329607d1b60179184019182015283516115728160288401602088016114dd565b01602801949350505050565b602081526000825180602084015261159d8160408501602087016114dd565b601f01601f19169190910160400192915050565b634e487b7160e01b600052603260045260246000fd5b6000816115d6576115d661142b565b506000190190565b600082516115f08184602087016114dd565b919091019291505056fefbb0a55d3bd620b175b4b5ed8e54b15ee857894bb1d3baf3b9219271d425d7f9416464726573733a206c6f772d6c6576656c2064656c65676174652063616c6c206661696c6564a264697066735822122079a31a50878f960e17475cc97f5a2b31cc299fcc5f659fb6906cb360bd572ce564736f6c634300080a0033",
  "devdoc": {
    "kind": "dev",
    "methods": {
      "getRoleAdmin(bytes32)": {
        "details": "Returns the admin role that controls `role`. See {grantRole} and {revokeRole}. To change a role's admin, use {_setRoleAdmin}."
      },
      "grantRole(bytes32,address)": {
        "details": "Grants `role` to `account`. If `account` had not been already granted `role`, emits a {RoleGranted} event. Requirements: - the caller must have ``role``'s admin role."
      },
      "hasRole(bytes32,address)": {
        "details": "Returns `true` if `account` has been granted `role`."
      },
      "renounceRole(bytes32,address)": {
        "details": "Revokes `role` from the calling account. Roles are often managed via {grantRole} and {revokeRole}: this function's purpose is to provide a mechanism for accounts to lose their privileges if they are compromised (such as when a trusted device is misplaced). If the calling account had been revoked `role`, emits a {RoleRevoked} event. Requirements: - the caller must be `account`."
      },
      "revokeRole(bytes32,address)": {
        "details": "Revokes `role` from `account`. If `account` had been granted `role`, emits a {RoleRevoked} event. Requirements: - the caller must have ``role``'s admin role."
      },
      "supportsInterface(bytes4)": {
        "details": "See {IERC165-supportsInterface}."
      },
      "upgradeTo(address)": {
        "details": "Upgrade the implementation of the proxy to `newImplementation`. Calls {_authorizeUpgrade}. Emits an {Upgraded} event."
      },
      "upgradeToAndCall(address,bytes)": {
        "details": "Upgrade the implementation of the proxy to `newImplementation`, and subsequently execute the function call encoded in `data`. Calls {_authorizeUpgrade}. Emits an {Upgraded} event."
      }
    },
    "title": "GEMS ",
    "version": 1
  },
  "userdoc": {
    "kind": "user",
    "methods": {},
    "version": 1
  },
  "storageLayout": {
    "storage": [
      {
        "astId": 1050,
        "contract": "contracts/GEMS.sol:GEMS",
        "label": "_initialized",
        "offset": 0,
        "slot": "0",
        "type": "t_bool"
      },
      {
        "astId": 1053,
        "contract": "contracts/GEMS.sol:GEMS",
        "label": "_initializing",
        "offset": 1,
        "slot": "0",
        "type": "t_bool"
      },
      {
        "astId": 5322,
        "contract": "contracts/GEMS.sol:GEMS",
        "label": "__gap",
        "offset": 0,
        "slot": "1",
        "type": "t_array(t_uint256)50_storage"
      },
      {
        "astId": 6244,
        "contract": "contracts/GEMS.sol:GEMS",
        "label": "__gap",
        "offset": 0,
        "slot": "51",
        "type": "t_array(t_uint256)50_storage"
      },
      {
        "astId": 250,
        "contract": "contracts/GEMS.sol:GEMS",
        "label": "_roles",
        "offset": 0,
        "slot": "101",
        "type": "t_mapping(t_bytes32,t_struct(RoleData)245_storage)"
      },
      {
        "astId": 537,
        "contract": "contracts/GEMS.sol:GEMS",
        "label": "__gap",
        "offset": 0,
        "slot": "102",
        "type": "t_array(t_uint256)49_storage"
      },
      {
        "astId": 1033,
        "contract": "contracts/GEMS.sol:GEMS",
        "label": "__gap",
        "offset": 0,
        "slot": "151",
        "type": "t_array(t_uint256)50_storage"
      },
      {
        "astId": 1200,
        "contract": "contracts/GEMS.sol:GEMS",
        "label": "__gap",
        "offset": 0,
        "slot": "201",
        "type": "t_array(t_uint256)50_storage"
      },
      {
        "astId": 12929,
        "contract": "contracts/GEMS.sol:GEMS",
        "label": "gems",
        "offset": 0,
        "slot": "251",
        "type": "t_mapping(t_address,t_uint256)"
      },
      {
        "astId": 12933,
        "contract": "contracts/GEMS.sol:GEMS",
        "label": "streak",
        "offset": 0,
        "slot": "252",
        "type": "t_mapping(t_address,t_uint256)"
      },
      {
        "astId": 12937,
        "contract": "contracts/GEMS.sol:GEMS",
        "label": "lastAction",
        "offset": 0,
        "slot": "253",
        "type": "t_mapping(t_address,t_uint256)"
      }
    ],
    "types": {
      "t_address": {
        "encoding": "inplace",
        "label": "address",
        "numberOfBytes": "20"
      },
      "t_array(t_uint256)49_storage": {
        "base": "t_uint256",
        "encoding": "inplace",
        "label": "uint256[49]",
        "numberOfBytes": "1568"
      },
      "t_array(t_uint256)50_storage": {
        "base": "t_uint256",
        "encoding": "inplace",
        "label": "uint256[50]",
        "numberOfBytes": "1600"
      },
      "t_bool": {
        "encoding": "inplace",
        "label": "bool",
        "numberOfBytes": "1"
      },
      "t_bytes32": {
        "encoding": "inplace",
        "label": "bytes32",
        "numberOfBytes": "32"
      },
      "t_mapping(t_address,t_bool)": {
        "encoding": "mapping",
        "key": "t_address",
        "label": "mapping(address => bool)",
        "numberOfBytes": "32",
        "value": "t_bool"
      },
      "t_mapping(t_address,t_uint256)": {
        "encoding": "mapping",
        "key": "t_address",
        "label": "mapping(address => uint256)",
        "numberOfBytes": "32",
        "value": "t_uint256"
      },
      "t_mapping(t_bytes32,t_struct(RoleData)245_storage)": {
        "encoding": "mapping",
        "key": "t_bytes32",
        "label": "mapping(bytes32 => struct AccessControlUpgradeable.RoleData)",
        "numberOfBytes": "32",
        "value": "t_struct(RoleData)245_storage"
      },
      "t_struct(RoleData)245_storage": {
        "encoding": "inplace",
        "label": "struct AccessControlUpgradeable.RoleData",
        "members": [
          {
            "astId": 242,
            "contract": "contracts/GEMS.sol:GEMS",
            "label": "members",
            "offset": 0,
            "slot": "0",
            "type": "t_mapping(t_address,t_bool)"
          },
          {
            "astId": 244,
            "contract": "contracts/GEMS.sol:GEMS",
            "label": "adminRole",
            "offset": 0,
            "slot": "1",
            "type": "t_bytes32"
          }
        ],
        "numberOfBytes": "64"
      },
      "t_uint256": {
        "encoding": "inplace",
        "label": "uint256",
        "numberOfBytes": "32"
      }
    }
  }
}