{
  "address": "0x284c8F5802157902619289726963985CB0551f84",
  "abi": [
    {
      "inputs": [],
      "stateMutability": "nonpayable",
      "type": "constructor"
    },
    {
      "anonymous": false,
      "inputs": [
        {
          "indexed": false,
          "internalType": "address",
          "name": "previousAdmin",
          "type": "address"
        },
        {
          "indexed": false,
          "internalType": "address",
          "name": "newAdmin",
          "type": "address"
        }
      ],
      "name": "AdminChanged",
      "type": "event"
    },
    {
      "anonymous": false,
      "inputs": [
        {
          "indexed": true,
          "internalType": "address",
          "name": "beacon",
          "type": "address"
        }
      ],
      "name": "BeaconUpgraded",
      "type": "event"
    },
    {
      "anonymous": false,
      "inputs": [
        {
          "indexed": false,
          "internalType": "address",
          "name": "user",
          "type": "address"
        },
        {
          "indexed": false,
          "internalType": "uint32",
          "name": "marketIndex",
          "type": "uint32"
        }
      ],
      "name": "ExecuteNextPriceSettlementsUser",
      "type": "event"
    },
    {
      "anonymous": false,
      "inputs": [
        {
          "indexed": false,
          "internalType": "address",
          "name": "admin",
          "type": "address"
        },
        {
          "indexed": false,
          "internalType": "address",
          "name": "tokenFactory",
          "type": "address"
        },
        {
          "indexed": false,
          "internalType": "address",
          "name": "staker",
          "type": "address"
        }
      ],
      "name": "LongShortV1",
      "type": "event"
    },
    {
      "anonymous": false,
      "inputs": [
        {
          "indexed": false,
          "internalType": "uint32",
          "name": "marketIndex",
          "type": "uint32"
        },
        {
          "indexed": false,
          "internalType": "uint256",
          "name": "fundingRateMultiplier_e18",
          "type": "uint256"
        }
      ],
      "name": "MarketFundingRateMultiplerChanged",
      "type": "event"
    },
    {
      "anonymous": false,
      "inputs": [
        {
          "indexed": false,
          "internalType": "uint32",
          "name": "marketIndex",
          "type": "uint32"
        },
        {
          "indexed": false,
          "internalType": "uint256",
          "name": "initialSeed",
          "type": "uint256"
        },
        {
          "indexed": false,
          "internalType": "uint256",
          "name": "marketLeverage",
          "type": "uint256"
        }
      ],
      "name": "NewMarketLaunchedAndSeeded",
      "type": "event"
    },
    {
      "anonymous": false,
      "inputs": [
        {
          "indexed": false,
          "internalType": "uint32",
          "name": "marketIndex",
          "type": "uint32"
        },
        {
          "indexed": false,
          "internalType": "bool",
          "name": "isLong",
          "type": "bool"
        },
        {
          "indexed": false,
          "internalType": "uint256",
          "name": "depositAdded",
          "type": "uint256"
        },
        {
          "indexed": false,
          "internalType": "address",
          "name": "user",
          "type": "address"
        },
        {
          "indexed": false,
          "internalType": "uint256",
          "name": "oracleUpdateIndex",
          "type": "uint256"
        }
      ],
      "name": "NextPriceDeposit",
      "type": "event"
    },
    {
      "anonymous": false,
      "inputs": [
        {
          "indexed": false,
          "internalType": "uint32",
          "name": "marketIndex",
          "type": "uint32"
        },
        {
          "indexed": false,
          "internalType": "bool",
          "name": "isLong",
          "type": "bool"
        },
        {
          "indexed": false,
          "internalType": "uint256",
          "name": "amountToStake",
          "type": "uint256"
        },
        {
          "indexed": false,
          "internalType": "address",
          "name": "user",
          "type": "address"
        },
        {
          "indexed": false,
          "internalType": "uint256",
          "name": "oracleUpdateIndex",
          "type": "uint256"
        }
      ],
      "name": "NextPriceDepositAndStake",
      "type": "event"
    },
    {
      "anonymous": false,
      "inputs": [
        {
          "indexed": false,
          "internalType": "uint32",
          "name": "marketIndex",
          "type": "uint32"
        },
        {
          "indexed": false,
          "internalType": "bool",
          "name": "isLong",
          "type": "bool"
        },
        {
          "indexed": false,
          "internalType": "uint256",
          "name": "synthRedeemed",
          "type": "uint256"
        },
        {
          "indexed": false,
          "internalType": "address",
          "name": "user",
          "type": "address"
        },
        {
          "indexed": false,
          "internalType": "uint256",
          "name": "oracleUpdateIndex",
          "type": "uint256"
        }
      ],
      "name": "NextPriceRedeem",
      "type": "event"
    },
    {
      "anonymous": false,
      "inputs": [
        {
          "indexed": false,
          "internalType": "uint32",
          "name": "marketIndex",
          "type": "uint32"
        },
        {
          "indexed": false,
          "internalType": "bool",
          "name": "isShiftFromLong",
          "type": "bool"
        },
        {
          "indexed": false,
          "internalType": "uint256",
          "name": "synthShifted",
          "type": "uint256"
        },
        {
          "indexed": false,
          "internalType": "address",
          "name": "user",
          "type": "address"
        },
        {
          "indexed": false,
          "internalType": "uint256",
          "name": "oracleUpdateIndex",
          "type": "uint256"
        }
      ],
      "name": "NextPriceSyntheticPositionShift",
      "type": "event"
    },
    {
      "anonymous": false,
      "inputs": [
        {
          "indexed": false,
          "internalType": "uint32",
          "name": "marketIndex",
          "type": "uint32"
        },
        {
          "indexed": false,
          "internalType": "address",
          "name": "oldOracleAddress",
          "type": "address"
        },
        {
          "indexed": false,
          "internalType": "address",
          "name": "newOracleAddress",
          "type": "address"
        }
      ],
      "name": "OracleUpdated",
      "type": "event"
    },
    {
      "anonymous": false,
      "inputs": [
        {
          "indexed": true,
          "internalType": "bytes32",
          "name": "role",
          "type": "bytes32"
        },
        {
          "indexed": true,
          "internalType": "bytes32",
          "name": "previousAdminRole",
          "type": "bytes32"
        },
        {
          "indexed": true,
          "internalType": "bytes32",
          "name": "newAdminRole",
          "type": "bytes32"
        }
      ],
      "name": "RoleAdminChanged",
      "type": "event"
    },
    {
      "anonymous": false,
      "inputs": [
        {
          "indexed": true,
          "internalType": "bytes32",
          "name": "role",
          "type": "bytes32"
        },
        {
          "indexed": true,
          "internalType": "address",
          "name": "account",
          "type": "address"
        },
        {
          "indexed": true,
          "internalType": "address",
          "name": "sender",
          "type": "address"
        }
      ],
      "name": "RoleGranted",
      "type": "event"
    },
    {
      "anonymous": false,
      "inputs": [
        {
          "indexed": true,
          "internalType": "bytes32",
          "name": "role",
          "type": "bytes32"
        },
        {
          "indexed": true,
          "internalType": "address",
          "name": "account",
          "type": "address"
        },
        {
          "indexed": true,
          "internalType": "address",
          "name": "sender",
          "type": "address"
        }
      ],
      "name": "RoleRevoked",
      "type": "event"
    },
    {
      "anonymous": false,
      "inputs": [
        {
          "indexed": false,
          "internalType": "uint32",
          "name": "marketIndex",
          "type": "uint32"
        },
        {
          "indexed": false,
          "internalType": "address",
          "name": "longTokenAddress",
          "type": "address"
        },
        {
          "indexed": false,
          "internalType": "address",
          "name": "shortTokenAddress",
          "type": "address"
        },
        {
          "indexed": false,
          "internalType": "address",
          "name": "paymentToken",
          "type": "address"
        },
        {
          "indexed": false,
          "internalType": "int256",
          "name": "initialAssetPrice",
          "type": "int256"
        },
        {
          "indexed": false,
          "internalType": "string",
          "name": "name",
          "type": "string"
        },
        {
          "indexed": false,
          "internalType": "string",
          "name": "symbol",
          "type": "string"
        },
        {
          "indexed": false,
          "internalType": "address",
          "name": "oracleAddress",
          "type": "address"
        },
        {
          "indexed": false,
          "internalType": "address",
          "name": "yieldManagerAddress",
          "type": "address"
        }
      ],
      "name": "SyntheticMarketCreated",
      "type": "event"
    },
    {
      "anonymous": false,
      "inputs": [
        {
          "indexed": false,
          "internalType": "uint32",
          "name": "marketIndex",
          "type": "uint32"
        },
        {
          "indexed": false,
          "internalType": "uint256",
          "name": "updateIndex",
          "type": "uint256"
        },
        {
          "indexed": false,
          "internalType": "int256",
          "name": "underlyingAssetPrice",
          "type": "int256"
        },
        {
          "indexed": false,
          "internalType": "uint256",
          "name": "longValue",
          "type": "uint256"
        },
        {
          "indexed": false,
          "internalType": "uint256",
          "name": "shortValue",
          "type": "uint256"
        },
        {
          "indexed": false,
          "internalType": "uint256",
          "name": "longPrice",
          "type": "uint256"
        },
        {
          "indexed": false,
          "internalType": "uint256",
          "name": "shortPrice",
          "type": "uint256"
        }
      ],
      "name": "SystemStateUpdated",
      "type": "event"
    },
    {
      "anonymous": false,
      "inputs": [
        {
          "indexed": false,
          "internalType": "uint256",
          "name": "version",
          "type": "uint256"
        }
      ],
      "name": "Upgrade",
      "type": "event"
    },
    {
      "anonymous": false,
      "inputs": [
        {
          "indexed": true,
          "internalType": "address",
          "name": "implementation",
          "type": "address"
        }
      ],
      "name": "Upgraded",
      "type": "event"
    },
    {
      "inputs": [],
      "name": "ADMIN_ROLE",
      "outputs": [
        {
          "internalType": "bytes32",
          "name": "",
          "type": "bytes32"
        }
      ],
      "stateMutability": "view",
      "type": "function"
    },
    {
      "inputs": [],
      "name": "DEFAULT_ADMIN_ROLE",
      "outputs": [
        {
          "internalType": "bytes32",
          "name": "",
          "type": "bytes32"
        }
      ],
      "stateMutability": "view",
      "type": "function"
    },
    {
      "inputs": [],
      "name": "UPGRADER_ROLE",
      "outputs": [
        {
          "internalType": "bytes32",
          "name": "",
          "type": "bytes32"
        }
      ],
      "stateMutability": "view",
      "type": "function"
    },
    {
      "inputs": [
        {
          "internalType": "uint32",
          "name": "",
          "type": "uint32"
        }
      ],
      "name": "assetPrice",
      "outputs": [
        {
          "internalType": "int256",
          "name": "",
          "type": "int256"
        }
      ],
      "stateMutability": "view",
      "type": "function"
    },
    {
      "inputs": [
        {
          "internalType": "uint32",
          "name": "",
          "type": "uint32"
        },
        {
          "internalType": "bool",
          "name": "",
          "type": "bool"
        }
      ],
      "name": "batched_amountPaymentToken_deposit",
      "outputs": [
        {
          "internalType": "uint256",
          "name": "",
          "type": "uint256"
        }
      ],
      "stateMutability": "view",
      "type": "function"
    },
    {
      "inputs": [
        {
          "internalType": "uint32",
          "name": "",
          "type": "uint32"
        },
        {
          "internalType": "bool",
          "name": "",
          "type": "bool"
        }
      ],
      "name": "batched_amountSyntheticToken_redeem",
      "outputs": [
        {
          "internalType": "uint256",
          "name": "",
          "type": "uint256"
        }
      ],
      "stateMutability": "view",
      "type": "function"
    },
    {
      "inputs": [
        {
          "internalType": "uint32",
          "name": "",
          "type": "uint32"
        },
        {
          "internalType": "bool",
          "name": "",
          "type": "bool"
        }
      ],
      "name": "batched_amountSyntheticToken_toShiftAwayFrom_marketSide",
      "outputs": [
        {
          "internalType": "uint256",
          "name": "",
          "type": "uint256"
        }
      ],
      "stateMutability": "view",
      "type": "function"
    },
    {
      "inputs": [
        {
          "internalType": "uint32",
          "name": "marketIndex",
          "type": "uint32"
        },
        {
          "internalType": "uint256",
          "name": "_fundingRateMultiplier_e18",
          "type": "uint256"
        }
      ],
      "name": "changeMarketFundingRateMultiplier",
      "outputs": [],
      "stateMutability": "nonpayable",
      "type": "function"
    },
    {
      "inputs": [
        {
          "internalType": "uint32",
          "name": "marketIndex",
          "type": "uint32"
        },
        {
          "internalType": "uint256",
          "name": "_marketTreasurySplitGradient_e18",
          "type": "uint256"
        }
      ],
      "name": "changeMarketTreasurySplitGradient",
      "outputs": [],
      "stateMutability": "nonpayable",
      "type": "function"
    },
    {
      "inputs": [
        {
          "internalType": "address",
          "name": "user",
          "type": "address"
        },
        {
          "internalType": "uint32",
          "name": "marketIndex",
          "type": "uint32"
        },
        {
          "internalType": "bool",
          "name": "isLong",
          "type": "bool"
        }
      ],
      "name": "checkIfUserIsEligibleToSendSynth",
      "outputs": [],
      "stateMutability": "nonpayable",
      "type": "function"
    },
    {
      "inputs": [
        {
          "internalType": "address",
          "name": "user",
          "type": "address"
        },
        {
          "internalType": "uint32",
          "name": "marketIndex",
          "type": "uint32"
        },
        {
          "internalType": "bool",
          "name": "isLong",
          "type": "bool"
        }
      ],
      "name": "checkIfUserIsEligibleToTrade",
      "outputs": [],
      "stateMutability": "nonpayable",
      "type": "function"
    },
    {
      "inputs": [
        {
          "internalType": "string",
          "name": "syntheticName",
          "type": "string"
        },
        {
          "internalType": "string",
          "name": "syntheticSymbol",
          "type": "string"
        },
        {
          "internalType": "address",
          "name": "_paymentToken",
          "type": "address"
        },
        {
          "internalType": "address",
          "name": "_oracleManager",
          "type": "address"
        },
        {
          "internalType": "address",
          "name": "_yieldManager",
          "type": "address"
        }
      ],
      "name": "createNewSyntheticMarket",
      "outputs": [],
      "stateMutability": "nonpayable",
      "type": "function"
    },
    {
      "inputs": [
        {
          "internalType": "string",
          "name": "syntheticName",
          "type": "string"
        },
        {
          "internalType": "string",
          "name": "syntheticSymbol",
          "type": "string"
        },
        {
          "internalType": "address",
          "name": "_longToken",
          "type": "address"
        },
        {
          "internalType": "address",
          "name": "_shortToken",
          "type": "address"
        },
        {
          "internalType": "address",
          "name": "_paymentToken",
          "type": "address"
        },
        {
          "internalType": "address",
          "name": "_oracleManager",
          "type": "address"
        },
        {
          "internalType": "address",
          "name": "_yieldManager",
          "type": "address"
        }
      ],
      "name": "createNewSyntheticMarketExternalSyntheticTokens",
      "outputs": [],
      "stateMutability": "nonpayable",
      "type": "function"
    },
    {
      "inputs": [
        {
          "internalType": "address",
          "name": "user",
          "type": "address"
        },
        {
          "internalType": "uint32",
          "name": "marketIndex",
          "type": "uint32"
        }
      ],
      "name": "executeOutstandingNextPriceSettlementsUser",
      "outputs": [],
      "stateMutability": "nonpayable",
      "type": "function"
    },
    {
      "inputs": [
        {
          "internalType": "address",
          "name": "user",
          "type": "address"
        },
        {
          "internalType": "uint32[]",
          "name": "marketIndexes",
          "type": "uint32[]"
        }
      ],
      "name": "executeOutstandingNextPriceSettlementsUserMulti",
      "outputs": [],
      "stateMutability": "nonpayable",
      "type": "function"
    },
    {
      "inputs": [
        {
          "internalType": "uint32",
          "name": "",
          "type": "uint32"
        }
      ],
      "name": "fundingRateMultiplier_e18",
      "outputs": [
        {
          "internalType": "uint256",
          "name": "",
          "type": "uint256"
        }
      ],
      "stateMutability": "view",
      "type": "function"
    },
    {
      "inputs": [],
      "name": "gems",
      "outputs": [
        {
          "internalType": "address",
          "name": "",
          "type": "address"
        }
      ],
      "stateMutability": "view",
      "type": "function"
    },
    {
      "inputs": [
        {
          "internalType": "uint32",
          "name": "marketIndex",
          "type": "uint32"
        },
        {
          "internalType": "uint256",
          "name": "amountSyntheticToken_redeemOnOriginSide",
          "type": "uint256"
        },
        {
          "internalType": "bool",
          "name": "isShiftFromLong",
          "type": "bool"
        },
        {
          "internalType": "uint256",
          "name": "priceSnapshotIndex",
          "type": "uint256"
        }
      ],
      "name": "getAmountSyntheticTokenToMintOnTargetSide",
      "outputs": [
        {
          "internalType": "uint256",
          "name": "amountSyntheticTokensToMintOnTargetSide",
          "type": "uint256"
        }
      ],
      "stateMutability": "view",
      "type": "function"
    },
    {
      "inputs": [
        {
          "internalType": "bytes32",
          "name": "role",
          "type": "bytes32"
        }
      ],
      "name": "getRoleAdmin",
      "outputs": [
        {
          "internalType": "bytes32",
          "name": "",
          "type": "bytes32"
        }
      ],
      "stateMutability": "view",
      "type": "function"
    },
    {
      "inputs": [
        {
          "internalType": "address",
          "name": "user",
          "type": "address"
        },
        {
          "internalType": "uint32",
          "name": "marketIndex",
          "type": "uint32"
        },
        {
          "internalType": "bool",
          "name": "isLong",
          "type": "bool"
        }
      ],
      "name": "getUsersConfirmedButNotSettledSynthBalance",
      "outputs": [
        {
          "internalType": "uint256",
          "name": "confirmedButNotSettledBalance",
          "type": "uint256"
        }
      ],
      "stateMutability": "view",
      "type": "function"
    },
    {
      "inputs": [
        {
          "internalType": "uint32",
          "name": "marketIndex",
          "type": "uint32"
        },
        {
          "internalType": "uint256",
          "name": "priceSnapshotIndex",
          "type": "uint256"
        }
      ],
      "name": "get_syntheticToken_priceSnapshot",
      "outputs": [
        {
          "internalType": "uint256",
          "name": "priceLong",
          "type": "uint256"
        },
        {
          "internalType": "uint256",
          "name": "priceShort",
          "type": "uint256"
        }
      ],
      "stateMutability": "view",
      "type": "function"
    },
    {
      "inputs": [
        {
          "internalType": "uint32",
          "name": "marketIndex",
          "type": "uint32"
        },
        {
          "internalType": "bool",
          "name": "isLong",
          "type": "bool"
        },
        {
          "internalType": "uint256",
          "name": "priceSnapshotIndex",
          "type": "uint256"
        }
      ],
      "name": "get_syntheticToken_priceSnapshot_side",
      "outputs": [
        {
          "internalType": "uint256",
          "name": "price",
          "type": "uint256"
        }
      ],
      "stateMutability": "view",
      "type": "function"
    },
    {
      "inputs": [
        {
          "internalType": "bytes32",
          "name": "role",
          "type": "bytes32"
        },
        {
          "internalType": "address",
          "name": "account",
          "type": "address"
        }
      ],
      "name": "grantRole",
      "outputs": [],
      "stateMutability": "nonpayable",
      "type": "function"
    },
    {
      "inputs": [
        {
          "internalType": "bytes32",
          "name": "role",
          "type": "bytes32"
        },
        {
          "internalType": "address",
          "name": "account",
          "type": "address"
        }
      ],
      "name": "hasRole",
      "outputs": [
        {
          "internalType": "bool",
          "name": "",
          "type": "bool"
        }
      ],
      "stateMutability": "view",
      "type": "function"
    },
    {
      "inputs": [
        {
          "internalType": "address",
          "name": "_admin",
          "type": "address"
        },
        {
          "internalType": "address",
          "name": "_tokenFactory",
          "type": "address"
        },
        {
          "internalType": "address",
          "name": "_staker",
          "type": "address"
        },
        {
          "internalType": "address",
          "name": "_gems",
          "type": "address"
        }
      ],
      "name": "initialize",
      "outputs": [],
      "stateMutability": "nonpayable",
      "type": "function"
    },
    {
      "inputs": [
        {
          "internalType": "uint32",
          "name": "marketIndex",
          "type": "uint32"
        },
        {
          "internalType": "uint256",
          "name": "kInitialMultiplier",
          "type": "uint256"
        },
        {
          "internalType": "uint256",
          "name": "kPeriod",
          "type": "uint256"
        },
        {
          "internalType": "uint256",
          "name": "unstakeFee_e18",
          "type": "uint256"
        },
        {
          "internalType": "uint256",
          "name": "initialMarketSeedForEachMarketSide",
          "type": "uint256"
        },
        {
          "internalType": "uint256",
          "name": "balanceIncentiveCurve_exponent",
          "type": "uint256"
        },
        {
          "internalType": "int256",
          "name": "balanceIncentiveCurve_equilibriumOffset",
          "type": "int256"
        },
        {
          "internalType": "uint256",
          "name": "_marketTreasurySplitGradient_e18",
          "type": "uint256"
        },
        {
          "internalType": "uint256",
          "name": "marketLeverage",
          "type": "uint256"
        }
      ],
      "name": "initializeMarket",
      "outputs": [],
      "stateMutability": "nonpayable",
      "type": "function"
    },
    {
      "inputs": [],
      "name": "latestMarket",
      "outputs": [
        {
          "internalType": "uint32",
          "name": "",
          "type": "uint32"
        }
      ],
      "stateMutability": "view",
      "type": "function"
    },
    {
      "inputs": [
        {
          "internalType": "uint32",
          "name": "",
          "type": "uint32"
        }
      ],
      "name": "marketExists",
      "outputs": [
        {
          "internalType": "bool",
          "name": "",
          "type": "bool"
        }
      ],
      "stateMutability": "view",
      "type": "function"
    },
    {
      "inputs": [
        {
          "internalType": "uint32",
          "name": "",
          "type": "uint32"
        }
      ],
      "name": "marketLeverage_e18",
      "outputs": [
        {
          "internalType": "uint256",
          "name": "",
          "type": "uint256"
        }
      ],
      "stateMutability": "view",
      "type": "function"
    },
    {
      "inputs": [
        {
          "internalType": "uint32",
          "name": "",
          "type": "uint32"
        }
      ],
      "name": "marketSideValueInPaymentToken",
      "outputs": [
        {
          "internalType": "uint128",
          "name": "value_long",
          "type": "uint128"
        },
        {
          "internalType": "uint128",
          "name": "value_short",
          "type": "uint128"
        }
      ],
      "stateMutability": "view",
      "type": "function"
    },
    {
      "inputs": [
        {
          "internalType": "uint32",
          "name": "",
          "type": "uint32"
        },
        {
          "internalType": "bool",
          "name": "",
          "type": "bool"
        }
      ],
      "name": "marketSideValueInPaymentTokenLEGACY",
      "outputs": [
        {
          "internalType": "uint256",
          "name": "",
          "type": "uint256"
        }
      ],
      "stateMutability": "view",
      "type": "function"
    },
    {
      "inputs": [
        {
          "internalType": "uint32",
          "name": "",
          "type": "uint32"
        }
      ],
      "name": "marketTreasurySplitGradient_e18",
      "outputs": [
        {
          "internalType": "uint256",
          "name": "",
          "type": "uint256"
        }
      ],
      "stateMutability": "view",
      "type": "function"
    },
    {
      "inputs": [
        {
          "internalType": "uint32",
          "name": "",
          "type": "uint32"
        }
      ],
      "name": "marketUpdateIndex",
      "outputs": [
        {
          "internalType": "uint256",
          "name": "",
          "type": "uint256"
        }
      ],
      "stateMutability": "view",
      "type": "function"
    },
    {
      "inputs": [
        {
          "internalType": "uint32",
          "name": "marketIndex",
          "type": "uint32"
        },
        {
          "internalType": "uint256",
          "name": "amount",
          "type": "uint256"
        },
        {
          "internalType": "bool",
          "name": "isLong",
          "type": "bool"
        }
      ],
      "name": "mintAndStakeNextPrice",
      "outputs": [],
      "stateMutability": "nonpayable",
      "type": "function"
    },
    {
      "inputs": [
        {
          "internalType": "uint32",
          "name": "marketIndex",
          "type": "uint32"
        },
        {
          "internalType": "uint256",
          "name": "amount",
          "type": "uint256"
        }
      ],
      "name": "mintLongNextPrice",
      "outputs": [],
      "stateMutability": "nonpayable",
      "type": "function"
    },
    {
      "inputs": [
        {
          "internalType": "uint32",
          "name": "marketIndex",
          "type": "uint32"
        },
        {
          "internalType": "uint256",
          "name": "amount",
          "type": "uint256"
        }
      ],
      "name": "mintShortNextPrice",
      "outputs": [],
      "stateMutability": "nonpayable",
      "type": "function"
    },
    {
      "inputs": [
        {
          "internalType": "uint32",
          "name": "",
          "type": "uint32"
        }
      ],
      "name": "oracleManagers",
      "outputs": [
        {
          "internalType": "address",
          "name": "",
          "type": "address"
        }
      ],
      "stateMutability": "view",
      "type": "function"
    },
    {
      "inputs": [
        {
          "internalType": "uint32",
          "name": "",
          "type": "uint32"
        }
      ],
      "name": "paymentTokens",
      "outputs": [
        {
          "internalType": "address",
          "name": "",
          "type": "address"
        }
      ],
      "stateMutability": "view",
      "type": "function"
    },
    {
      "inputs": [
        {
          "internalType": "uint32",
          "name": "marketIndex",
          "type": "uint32"
        },
        {
          "internalType": "uint256",
          "name": "tokens_redeem",
          "type": "uint256"
        }
      ],
      "name": "redeemLongNextPrice",
      "outputs": [],
      "stateMutability": "nonpayable",
      "type": "function"
    },
    {
      "inputs": [
        {
          "internalType": "uint32",
          "name": "marketIndex",
          "type": "uint32"
        },
        {
          "internalType": "uint256",
          "name": "tokens_redeem",
          "type": "uint256"
        }
      ],
      "name": "redeemShortNextPrice",
      "outputs": [],
      "stateMutability": "nonpayable",
      "type": "function"
    },
    {
      "inputs": [
        {
          "internalType": "bytes32",
          "name": "role",
          "type": "bytes32"
        },
        {
          "internalType": "address",
          "name": "account",
          "type": "address"
        }
      ],
      "name": "renounceRole",
      "outputs": [],
      "stateMutability": "nonpayable",
      "type": "function"
    },
    {
      "inputs": [
        {
          "internalType": "bytes32",
          "name": "role",
          "type": "bytes32"
        },
        {
          "internalType": "address",
          "name": "account",
          "type": "address"
        }
      ],
      "name": "revokeRole",
      "outputs": [],
      "stateMutability": "nonpayable",
      "type": "function"
    },
    {
      "inputs": [
        {
          "internalType": "address",
          "name": "user",
          "type": "address"
        },
        {
          "internalType": "uint32",
          "name": "marketIndex",
          "type": "uint32"
        },
        {
          "internalType": "bool",
          "name": "isLong",
          "type": "bool"
        }
      ],
      "name": "setUserTradeTimer",
      "outputs": [],
      "stateMutability": "nonpayable",
      "type": "function"
    },
    {
      "inputs": [
        {
          "internalType": "uint32",
          "name": "marketIndex",
          "type": "uint32"
        },
        {
          "internalType": "uint256",
          "name": "amountSyntheticTokensToShift",
          "type": "uint256"
        }
      ],
      "name": "shiftPositionFromLongNextPrice",
      "outputs": [],
      "stateMutability": "nonpayable",
      "type": "function"
    },
    {
      "inputs": [
        {
          "internalType": "uint32",
          "name": "marketIndex",
          "type": "uint32"
        },
        {
          "internalType": "uint256",
          "name": "amountSyntheticTokensToShift",
          "type": "uint256"
        }
      ],
      "name": "shiftPositionFromShortNextPrice",
      "outputs": [],
      "stateMutability": "nonpayable",
      "type": "function"
    },
    {
      "inputs": [
        {
          "internalType": "uint32",
          "name": "marketIndex",
          "type": "uint32"
        },
        {
          "internalType": "uint256",
          "name": "amountSyntheticTokensToShift",
          "type": "uint256"
        },
        {
          "internalType": "bool",
          "name": "isShiftFromLong",
          "type": "bool"
        }
      ],
      "name": "shiftPositionNextPrice",
      "outputs": [],
      "stateMutability": "nonpayable",
      "type": "function"
    },
    {
      "inputs": [],
      "name": "staker",
      "outputs": [
        {
          "internalType": "address",
          "name": "",
          "type": "address"
        }
      ],
      "stateMutability": "view",
      "type": "function"
    },
    {
      "inputs": [
        {
          "internalType": "bytes4",
          "name": "interfaceId",
          "type": "bytes4"
        }
      ],
      "name": "supportsInterface",
      "outputs": [
        {
          "internalType": "bool",
          "name": "",
          "type": "bool"
        }
      ],
      "stateMutability": "view",
      "type": "function"
    },
    {
      "inputs": [
        {
          "internalType": "uint32",
          "name": "",
          "type": "uint32"
        },
        {
          "internalType": "uint256",
          "name": "",
          "type": "uint256"
        }
      ],
      "name": "syntheticToken_priceSnapshot",
      "outputs": [
        {
          "internalType": "uint128",
          "name": "price_long",
          "type": "uint128"
        },
        {
          "internalType": "uint128",
          "name": "price_short",
          "type": "uint128"
        }
      ],
      "stateMutability": "view",
      "type": "function"
    },
    {
      "inputs": [
        {
          "internalType": "uint32",
          "name": "",
          "type": "uint32"
        },
        {
          "internalType": "bool",
          "name": "",
          "type": "bool"
        },
        {
          "internalType": "uint256",
          "name": "",
          "type": "uint256"
        }
      ],
      "name": "syntheticToken_priceSnapshotLEGACY",
      "outputs": [
        {
          "internalType": "uint256",
          "name": "",
          "type": "uint256"
        }
      ],
      "stateMutability": "view",
      "type": "function"
    },
    {
      "inputs": [
        {
          "internalType": "uint32",
          "name": "",
          "type": "uint32"
        },
        {
          "internalType": "bool",
          "name": "",
          "type": "bool"
        }
      ],
      "name": "syntheticTokens",
      "outputs": [
        {
          "internalType": "address",
          "name": "",
          "type": "address"
        }
      ],
      "stateMutability": "view",
      "type": "function"
    },
    {
      "inputs": [],
      "name": "tokenFactory",
      "outputs": [
        {
          "internalType": "address",
          "name": "",
          "type": "address"
        }
      ],
      "stateMutability": "view",
      "type": "function"
    },
    {
      "inputs": [
        {
          "internalType": "uint32",
          "name": "marketIndex",
          "type": "uint32"
        },
        {
          "internalType": "address",
          "name": "_newOracleManager",
          "type": "address"
        }
      ],
      "name": "updateMarketOracle",
      "outputs": [],
      "stateMutability": "nonpayable",
      "type": "function"
    },
    {
      "inputs": [
        {
          "internalType": "uint32",
          "name": "marketIndex",
          "type": "uint32"
        }
      ],
      "name": "updateSystemState",
      "outputs": [],
      "stateMutability": "nonpayable",
      "type": "function"
    },
    {
      "inputs": [
        {
          "internalType": "uint32[]",
          "name": "marketIndexes",
          "type": "uint32[]"
        }
      ],
      "name": "updateSystemStateMulti",
      "outputs": [],
      "stateMutability": "nonpayable",
      "type": "function"
    },
    {
      "inputs": [
        {
          "internalType": "address",
          "name": "newImplementation",
          "type": "address"
        }
      ],
      "name": "upgradeTo",
      "outputs": [],
      "stateMutability": "nonpayable",
      "type": "function"
    },
    {
      "inputs": [
        {
          "internalType": "address",
          "name": "newImplementation",
          "type": "address"
        },
        {
          "internalType": "bytes",
          "name": "data",
          "type": "bytes"
        }
      ],
      "name": "upgradeToAndCall",
      "outputs": [],
      "stateMutability": "payable",
      "type": "function"
    },
    {
      "inputs": [],
      "name": "upgradeToUsingCompactValueAndPriceSnapshots",
      "outputs": [],
      "stateMutability": "nonpayable",
      "type": "function"
    },
    {
      "inputs": [
        {
          "internalType": "uint32",
          "name": "",
          "type": "uint32"
        },
        {
          "internalType": "bool",
          "name": "",
          "type": "bool"
        },
        {
          "internalType": "address",
          "name": "",
          "type": "address"
        }
      ],
      "name": "userLastInteractionTimestamp",
      "outputs": [
        {
          "internalType": "uint32",
          "name": "timestamp",
          "type": "uint32"
        },
        {
          "internalType": "uint224",
          "name": "effectiveAmountMinted",
          "type": "uint224"
        }
      ],
      "stateMutability": "view",
      "type": "function"
    },
    {
      "inputs": [
        {
          "internalType": "uint32",
          "name": "",
          "type": "uint32"
        },
        {
          "internalType": "address",
          "name": "",
          "type": "address"
        }
      ],
      "name": "userNextPrice_currentUpdateIndex",
      "outputs": [
        {
          "internalType": "uint256",
          "name": "",
          "type": "uint256"
        }
      ],
      "stateMutability": "view",
      "type": "function"
    },
    {
      "inputs": [
        {
          "internalType": "uint32",
          "name": "",
          "type": "uint32"
        },
        {
          "internalType": "bool",
          "name": "",
          "type": "bool"
        },
        {
          "internalType": "address",
          "name": "",
          "type": "address"
        }
      ],
      "name": "userNextPrice_paymentToken_depositAmount",
      "outputs": [
        {
          "internalType": "uint256",
          "name": "",
          "type": "uint256"
        }
      ],
      "stateMutability": "view",
      "type": "function"
    },
    {
      "inputs": [
        {
          "internalType": "uint32",
          "name": "",
          "type": "uint32"
        },
        {
          "internalType": "bool",
          "name": "",
          "type": "bool"
        },
        {
          "internalType": "address",
          "name": "",
          "type": "address"
        }
      ],
      "name": "userNextPrice_syntheticToken_redeemAmount",
      "outputs": [
        {
          "internalType": "uint256",
          "name": "",
          "type": "uint256"
        }
      ],
      "stateMutability": "view",
      "type": "function"
    },
    {
      "inputs": [
        {
          "internalType": "uint32",
          "name": "",
          "type": "uint32"
        },
        {
          "internalType": "bool",
          "name": "",
          "type": "bool"
        },
        {
          "internalType": "address",
          "name": "",
          "type": "address"
        }
      ],
      "name": "userNextPrice_syntheticToken_toShiftAwayFrom_marketSide",
      "outputs": [
        {
          "internalType": "uint256",
          "name": "",
          "type": "uint256"
        }
      ],
      "stateMutability": "view",
      "type": "function"
    },
    {
      "inputs": [
        {
          "internalType": "uint32",
          "name": "",
          "type": "uint32"
        }
      ],
      "name": "yieldManagers",
      "outputs": [
        {
          "internalType": "address",
          "name": "",
          "type": "address"
        }
      ],
      "stateMutability": "view",
      "type": "function"
    }
  ],
  "transactionHash": "0xe7817117c205b6d23de7a20f424265a799e2d92062abe4836e7d89342f7bcca3",
  "args": [],
  "solcInputHash": "280dbb3f755141b1550ad43383a7dbe9",
  "bytecode": "0x60a0604052306080523480156200001557600080fd5b50600054610100900460ff16620000335760005460ff16156200003d565b6200003d620000e2565b620000a55760405162461bcd60e51b815260206004820152602e60248201527f496e697469616c697a61626c653a20636f6e747261637420697320616c72656160448201526d191e481a5b9a5d1a585b1a5e995960921b606482015260840160405180910390fd5b600054610100900460ff16158015620000c8576000805461ffff19166101011790555b8015620000db576000805461ff00191690555b5062000106565b6000620000fa306200010060201b620028181760201c565b15905090565b3b151590565b608051615a4a6200013760003960008181611024015281816110640152818161137601526113b60152615a4a6000f3fe6080604052600436106103c35760003560e01c80637a0e94f0116101f2578063c2e124711161010d578063f3de8b93116100a0578063f7cbb6871161006f578063f7cbb68714610e07578063f80c9b9214610e27578063f8c8765e14610e60578063ffe9a5c814610e8057600080fd5b8063f3de8b9314610d01578063f41cb19514610d7c578063f68a327f14610db3578063f72c0d8b14610dd357600080fd5b8063e6b604e0116100dc578063e6b604e014610c80578063e77772fe14610ca0578063ecd170e114610cc1578063eeb0235214610ce157600080fd5b8063c2e1247114610c00578063d547741f14610c20578063d88905c914610c40578063da04ce1414610c6057600080fd5b80639c5b0ee311610185578063aca36d7b11610154578063aca36d7b14610aec578063b054c4a114610b4e578063b36f537414610b90578063c2b8007214610bc157600080fd5b80639c5b0ee314610a475780639cb7172514610a7e5780639dc39e0f14610a9e578063a217fddf14610ad757600080fd5b8063897a0786116101c1578063897a0786146109c757806391a9fa61146109e757806391d1485414610a0757806392f6fe8014610a2757600080fd5b80637a0e94f014610920578063867dfc6d1461094057806388cc635c146109605780638900bdfa1461099957600080fd5b80633d6a2b3f116102e257806364d16f53116102755780636c8d2b97116102445780636c8d2b971461089757806371fd9623146108b757806375b238fc146108d757806377bf4b8b1461090b57600080fd5b806364d16f53146107fd57806364e4a81d1461081d578063682ad286146108565780636c3050551461087657600080fd5b80635ebaf1db116102b15780635ebaf1db1461073f578063602aabab146107675780636137e33314610795578063636190c8146107ca57600080fd5b80633d6a2b3f146106cc5780634f1ef286146106ec57806353ffd91c146106ff578063566f03ea1461071f57600080fd5b80632e2d80e81161035a57806334daaa251161032957806334daaa251461063357806336568abe1461066c5780633659cfe61461068c57806337bf1cf7146106ac57600080fd5b80632e2d80e8146105675780632f2ff15d1461059557806331a43909146105b557806334898684146105f457600080fd5b806314c88ffa1161039657806314c88ffa1461048c5780631badf5c0146104ba57806321658e4814610509578063248a9ca31461053757600080fd5b806301ffc9a7146103c857806305c8146f146103fd5780630e5140dc1461041f578063113997df1461046c575b600080fd5b3480156103d457600080fd5b506103e86103e3366004614ca2565b610ecd565b60405190151581526020015b60405180910390f35b34801561040957600080fd5b5061041d610418366004614ce5565b610f04565b005b34801561042b57600080fd5b5061045e61043a366004614d23565b6101c360209081526000938452604080852082529284528284209052825290205481565b6040519081526020016103f4565b34801561047857600080fd5b5061041d610487366004614d6c565b610f10565b34801561049857600080fd5b5061045e6104a7366004614ce5565b61015a6020526000908152604090205481565b3480156104c657600080fd5b506104f16104d5366004614ce5565b61015f602052600090815260409020546001600160a01b031681565b6040516001600160a01b0390911681526020016103f4565b34801561051557600080fd5b5061045e610524366004614ce5565b61015b6020526000908152604090205481565b34801561054357600080fd5b5061045e610552366004614daa565b60009081526065602052604090206001015490565b34801561057357600080fd5b5061045e610582366004614ce5565b6101606020526000908152604090205481565b3480156105a157600080fd5b5061041d6105b0366004614dc3565b610f75565b3480156105c157600080fd5b5061045e6105d0366004614df3565b61018f60209081526000938452604080852082529284528284209052825290205481565b34801561060057600080fd5b5061045e61060f366004614d23565b6101c260209081526000938452604080852082529284528284209052825290205481565b34801561063f57600080fd5b5061045e61064e366004614e32565b61019160209081526000928352604080842090915290825290205481565b34801561067857600080fd5b5061041d610687366004614dc3565b610f9b565b34801561069857600080fd5b5061041d6106a7366004614e5e565b611019565b3480156106b857600080fd5b5061045e6106c7366004614df3565b6110df565b3480156106d857600080fd5b5061041d6106e7366004614ebd565b611153565b61041d6106fa366004614fa0565b61136b565b34801561070b57600080fd5b5061041d61071a366004615064565b611421565b34801561072b57600080fd5b5061041d61073a366004615099565b611662565b34801561074b57600080fd5b50610128546104f190600160201b90046001600160a01b031681565b34801561077357600080fd5b5061045e610782366004614ce5565b61015c6020526000908152604090205481565b3480156107a157600080fd5b506107b56107b0366004615099565b611725565b604080519283526020830191909152016103f4565b3480156107d657600080fd5b50610128546107e89063ffffffff1681565b60405163ffffffff90911681526020016103f4565b34801561080957600080fd5b5061041d6108183660046150c3565b611763565b34801561082957600080fd5b5061045e610838366004614e32565b61019060209081526000928352604080842090915290825290205481565b34801561086257600080fd5b5061041d610871366004615099565b6117e9565b34801561088257600080fd5b5061012a546104f1906001600160a01b031681565b3480156108a357600080fd5b5061041d6108b2366004615134565b6117f5565b3480156108c357600080fd5b5061041d6108d2366004615064565b611848565b3480156108e357600080fd5b5061045e7fa49807205ce4d355092ef5a8a18f56e8913cf4a201fbe287825b095693c2177581565b34801561091757600080fd5b5061041d611a64565b34801561092c57600080fd5b5061041d61093b366004615176565b611bae565b34801561094c57600080fd5b5061041d61095b366004615099565b611c03565b34801561096c57600080fd5b5061045e61097b366004614e32565b61018e60209081526000928352604080842090915290825290205481565b3480156109a557600080fd5b5061045e6109b4366004614ce5565b6101596020526000908152604090205481565b3480156109d357600080fd5b5061041d6109e23660046151cb565b611c0f565b3480156109f357600080fd5b5061041d610a02366004615099565b611c19565b348015610a1357600080fd5b506103e8610a22366004614dc3565b611c25565b348015610a3357600080fd5b5061045e610a42366004615200565b611c50565b348015610a5357600080fd5b506104f1610a62366004614ce5565b61015e602052600090815260409020546001600160a01b031681565b348015610a8a57600080fd5b5061041d610a99366004614d6c565b611c94565b348015610aaa57600080fd5b5061045e610ab93660046150c3565b6101c060209081526000928352604080842090915290825290205481565b348015610ae357600080fd5b5061045e600081565b348015610af857600080fd5b50610b2e610b07366004614ce5565b610193602052600090815260409020546001600160801b0380821691600160801b90041682565b604080516001600160801b039384168152929091166020830152016103f4565b348015610b5a57600080fd5b506104f1610b69366004614e32565b61018d6020908152600092835260408084209091529082529020546001600160a01b031681565b348015610b9c57600080fd5b506103e8610bab366004614ce5565b6101586020526000908152604090205460ff1681565b348015610bcd57600080fd5b5061045e610bdc366004614d23565b6101c160209081526000938452604080852082529284528284209052825290205481565b348015610c0c57600080fd5b5061041d610c1b366004615099565b611d33565b348015610c2c57600080fd5b5061041d610c3b366004614dc3565b611d3f565b348015610c4c57600080fd5b5061041d610c5b366004615246565b611d65565b348015610c6c57600080fd5b5061041d610c7b366004615099565b612206565b348015610c8c57600080fd5b5061041d610c9b366004615099565b612228565b348015610cac57600080fd5b50610129546104f1906001600160a01b031681565b348015610ccd57600080fd5b5061041d610cdc366004614d6c565b612234565b348015610ced57600080fd5b5061041d610cfc366004615099565b6122b0565b348015610d0d57600080fd5b50610d58610d1c366004614d23565b6101c460209081526000938452604080852082529284528284209052825290205463ffffffff811690600160201b90046001600160e01b031682565b6040805163ffffffff90931683526001600160e01b039091166020830152016103f4565b348015610d8857600080fd5b506104f1610d97366004614ce5565b61015d602052600090815260409020546001600160a01b031681565b348015610dbf57600080fd5b5061045e610dce366004614d6c565b6122bc565b348015610ddf57600080fd5b5061045e7f189ab7a9244df0848122154315af71fe140f3db0fe014031783b0946b8c9d2e381565b348015610e1357600080fd5b5061041d610e223660046152ef565b6123e7565b348015610e3357600080fd5b5061045e610e42366004614e32565b61019260209081526000928352604080842090915290825290205481565b348015610e6c57600080fd5b5061041d610e7b366004615355565b612721565b348015610e8c57600080fd5b50610b2e610e9b366004615099565b6101946020908152600092835260408084209091529082529020546001600160801b0380821691600160801b90041682565b60006001600160e01b03198216637965db0b60e01b1480610efe57506301ffc9a760e01b6001600160e01b03198316145b92915050565b610f0d8161281e565b50565b61012854600160201b90046001600160a01b03163314610f655760405162461bcd60e51b815260206004820152600b60248201526a7374616b6572206f6e6c7960a81b60448201526064015b60405180910390fd5b610f70838383612c34565b505050565b600082815260656020526040902060010154610f918133612cc8565b610f708383612d2c565b6001600160a01b038116331461100b5760405162461bcd60e51b815260206004820152602f60248201527f416363657373436f6e74726f6c3a2063616e206f6e6c792072656e6f756e636560448201526e103937b632b9903337b91039b2b63360891b6064820152608401610f5c565b6110158282612db2565b5050565b306001600160a01b037f00000000000000000000000000000000000000000000000000000000000000001614156110625760405162461bcd60e51b8152600401610f5c906153b1565b7f00000000000000000000000000000000000000000000000000000000000000006001600160a01b0316611094612e19565b6001600160a01b0316146110ba5760405162461bcd60e51b8152600401610f5c906153fd565b6110c381612e47565b60408051600080825260208201909252610f0d91839190612e72565b60008215611118575063ffffffff83166000908152610194602090815260408083208484529091529020546001600160801b031661114c565b5063ffffffff8316600090815261019460209081526040808320848452909152902054600160801b90046001600160801b03165b9392505050565b61115b612fb6565b61012880546000919082906111759063ffffffff1661545f565b91906101000a81548163ffffffff021916908363ffffffff16021790559050816001600160a01b031663edf565cc6040518163ffffffff1660e01b8152600401600060405180830381600087803b1580156111cf57600080fd5b505af11580156111e3573d6000803e3d6000fd5b5050505063ffffffff8116600081815261018d6020908152604080832060018452825280832080546001600160a01b03199081166001600160a01b038d811691909117909255848052828520805482168c841617905594845261015d8352818420805486168a831617905561015e83528184208054861688831617905561015f835281842080549095169088169081179094558051630ce74fc560e31b8152905163673a7e28936004808401949383900301908290875af11580156112ac573d6000803e3d6000fd5b505050506040513d601f19601f820116820180604052508101906112d09190615483565b61015960008363ffffffff1663ffffffff168152602001908152602001600020819055507f901e73890694712ca72bdc627d356f05f11be45e7ccf490a8d4924c393bcb5658187878761015960008763ffffffff1663ffffffff168152602001908152602001600020548f8f8f8f8c8c6040516113579b9a999897969594939291906154c5565b60405180910390a150505050505050505050565b306001600160a01b037f00000000000000000000000000000000000000000000000000000000000000001614156113b45760405162461bcd60e51b8152600401610f5c906153b1565b7f00000000000000000000000000000000000000000000000000000000000000006001600160a01b03166113e6612e19565b6001600160a01b03161461140c5760405162461bcd60e51b8152600401610f5c906153fd565b61141582612e47565b61101582826001612e72565b61012854600160201b90046001600160a01b03168361143f8161281e565b6114498282612fe2565b6114516130e3565b600084116114ac5760405162461bcd60e51b815260206004820152602260248201527f4d696e7420616d6f756e74206d7573742062652067726561746572207468616e604482015261020360f41b6064820152608401610f5c565b6114b68584613157565b6114c08585613197565b63ffffffff85166000908152610190602090815260408083208615158452909152812080548692906114f3908490615549565b909155505063ffffffff851660009081526101c1602090815260408083208615158452825280832061012854600160201b90046001600160a01b0316845290915281208054869290611546908490615549565b909155505063ffffffff8516600090815261015a602052604081205461156d906001615549565b63ffffffff871660008181526101c06020908152604080832061012880546001600160a01b03600160201b918290048116875292909452938290208690559254905163f5a2c77b60e01b81526004810194909452602484018a905288151560448501523360648501529394509092049091169063f5a2c77b90608401600060405180830381600087803b15801561160357600080fd5b505af1158015611617573d6000803e3d6000fd5b505050507f896066fd32b6c29de689cd030c450df34262d3c06a88b3452771ab3fdf4bfcb38685873385604051611652959493929190615561565b60405180910390a1505050505050565b61166a612fb6565b6802b5e3af16b18800008111156116cf5760405162461bcd60e51b815260206004820152602360248201527f6e6f7420696e2072616e67653a2066756e64696e672072617465203c3d20353060448201526230302560e81b6064820152608401610f5c565b63ffffffff821660008181526101606020908152604091829020849055815192835282018390527ffb610896b356d431dc44942eb10e42369d870163522ed41621aec1c2ca731d26910160405180910390a15050565b63ffffffff82166000908152610194602090815260408083208484529091529020546001600160801b0380821691600160801b9004165b9250929050565b61176b612fb6565b63ffffffff8216600081815261015f602090815260409182902080546001600160a01b038681166001600160a01b03198316811790935584519586521691840182905291830191909152907ffc4d69f373858d480cfc3f12e7cc7f9b12201291753ffc3babef0e7a8041979f906060015b60405180910390a1505050565b61101582826000611848565b8060005b818110156118425761183084848381811061181657611816615595565b905060200201602081019061182b9190614ce5565b61281e565b8061183a816155ab565b9150506117f9565b50505050565b33836118538161281e565b61185d8282612fe2565b6118656130e3565b600084116118a95760405162461bcd60e51b81526020600482015260116024820152700536869667420616d6f756e74203d3d203607c1b6044820152606401610f5c565b61012854600160201b90046001600160a01b031633146118d9576118ce338685612c34565b6118d9858415613157565b63ffffffff8516600090815261018d602090815260408083208615158452909152908190205490516323b872dd60e01b8152336004820152306024820152604481018690526001600160a01b03909116906323b872dd906064016020604051808303816000875af1158015611952573d6000803e3d6000fd5b505050506040513d601f19601f8201168201806040525081019061197691906155c6565b5063ffffffff851660009081526101c36020908152604080832086151584528252808320338452909152812080548692906119b2908490615549565b909155505063ffffffff8516600090815261015a60205260408120546119d9906001615549565b63ffffffff871660008181526101c060209081526040808320338452825280832085905592825261019281528282208815158352905290812080549293508792909190611a27908490615549565b90915550506040517fd850f5d8405edb0730cd72e6bb9e228043c91fd591562543ea553efda14970b6906116529088908790899033908790615561565b60016000526101936020527f486ff8510ed3a8bd8fa99e6b19b446e53008986cfe7e8b76d7459f84f14d2474546001600160801b0316611b785760015b6101285463ffffffff90811690821611611b765760408051808201825263ffffffff8316600090815261018e602090815283822060018352905291909120548190611aeb906131d8565b6001600160801b0316815263ffffffff8316600090815261018e60209081526040808320838052825290912054910190611b24906131d8565b6001600160801b0390811690915263ffffffff8316600090815261019360209081526040909120835193909101518216600160801b029290911691909117905580611b6e8161545f565b915050611aa1565b505b604051600181527f7f8b9abe2c2fb85d0402e1c78c31e287c70cac837029836df3d5c6351033829b9060200160405180910390a1565b8060005b81811015611bfc57611bea85858584818110611bd057611bd0615595565b9050602002016020810190611be59190614ce5565b612fe2565b80611bf4816155ab565b915050611bb2565b5050505050565b61101582826001613245565b6110158282612fe2565b61101582826000613245565b60009182526065602090815260408084206001600160a01b0393909316845291905290205460ff1690565b60008060008415611c6f57611c658785611725565b9092509050611c7e565b611c798785611725565b925090505b611c898683836133b1565b979650505050505050565b61012854600160201b90046001600160a01b03163314611ce45760405162461bcd60e51b815260206004820152600b60248201526a7374616b6572206f6e6c7960a81b6044820152606401610f5c565b63ffffffff91821660009081526101c46020908152604080832093151583529281528282206001600160a01b0395909516825293909352909120805463ffffffff191642909216919091179055565b611015828260016133d0565b600082815260656020526040902060010154611d5b8133612cc8565b610f708383612db2565b611d6d612fb6565b6001600160a01b03831615801590611d8d57506001600160a01b03821615155b8015611da157506001600160a01b03811615155b611daa57600080fd5b6101288054600091908290611dc49063ffffffff1661545f565b91906101000a81548163ffffffff021916908363ffffffff16021790559050600061012860049054906101000a90046001600160a01b03169050826001600160a01b031663edf565cc6040518163ffffffff1660e01b8152600401600060405180830381600087803b158015611e3957600080fd5b505af1158015611e4d573d6000803e3d6000fd5b5050610129546040516001600160a01b03909116925063e6d304679150611e7a908c908c906020016155e3565b6040516020818303038152906040528989604051602001611e9c92919061560a565b604051602081830303815290604052848660016040518663ffffffff1660e01b8152600401611ecf959493929190615680565b6020604051808303816000875af1158015611eee573d6000803e3d6000fd5b505050506040513d601f19601f82011682018060405250810190611f1291906156d4565b63ffffffff8316600090815261018d602090815260408083206001845282529182902080546001600160a01b0319166001600160a01b03948516179055610129549151919092169163e6d3046791611f6e918d918d91016156f1565b6040516020818303038152906040528989604051602001611f90929190615719565b604051602081830303815290604052848660006040518663ffffffff1660e01b8152600401611fc3959493929190615680565b6020604051808303816000875af1158015611fe2573d6000803e3d6000fd5b505050506040513d601f19601f8201168201806040525081019061200691906156d4565b63ffffffff8316600081815261018d60209081526040808320838052825280832080546001600160a01b03199081166001600160a01b039788161790915593835261015d8252808320805485168b871617905561015e82528083208054851689871617905561015f825280832080549094169489169485179093558251630ce74fc560e31b8152925163673a7e28936004808201949183900301908290875af11580156120b7573d6000803e3d6000fd5b505050506040513d601f19601f820116820180604052508101906120db9190615483565b61015960008463ffffffff1663ffffffff168152602001908152602001600020819055507f901e73890694712ca72bdc627d356f05f11be45e7ccf490a8d4924c393bcb5658261018d60008563ffffffff1663ffffffff1681526020019081526020016000206000600115151515815260200190815260200160002060009054906101000a90046001600160a01b031661018d60008663ffffffff1663ffffffff16815260200190815260200160002060008015151515815260200190815260200160002060009054906101000a90046001600160a01b03168861015960008863ffffffff1663ffffffff168152602001908152602001600020548e8e8e8e8d8d6040516121f39b9a999897969594939291906154c5565b60405180910390a1505050505050505050565b61220e612fb6565b63ffffffff909116600090815261015b6020526040902055565b611015828260006133d0565b63ffffffff8216600090815261018d602090815260408083208415158452909152902054829082906001600160a01b031633146122a55760405162461bcd60e51b815260206004820152600f60248201526e0dcdee840ecc2d8d2c840e6f2dce8d608b1b6044820152606401610f5c565b611bfc858585612c34565b61101582826001611848565b6000826122c8816135c8565b63ffffffff8416600090815261015a60209081526040808320546101c083528184206001600160a01b038a16855290925290912054801580159061230c5750818111155b156123dd5763ffffffff861660009081526101c1602090815260408083208815801585529083528184206001600160a01b038c168552909252822054919081906123645761235a8985611725565b9092509050612373565b61236e8985611725565b925090505b8215612386576123838383613625565b96505b63ffffffff891660009081526101c3602090815260408083208b15845282528083206001600160a01b038e16845290915290205480156123d8576123cb8183856133b1565b6123d59089615549565b97505b505050505b5050509392505050565b6123ef612fb6565b87158015906123fd57508515155b801561240857508415155b801561241357508315155b801561241e57508115155b61242757600080fd5b63ffffffff89166000908152610158602052604090205460ff16156124845760405162461bcd60e51b8152602060048201526013602482015272185b1c9958591e481a5b9a5d1a585b1a5e9959606a1b6044820152606401610f5c565b6101285463ffffffff908116908a1611156124d25760405162461bcd60e51b815260206004820152600e60248201526d0d2dcc8caf040e8dede40d0d2ced60931b6044820152606401610f5c565b63ffffffff8916600090815261015860209081526040808320805460ff1916600190811790915561015b835281842086905561015a90925290912055612518858a613644565b6802b5e3af16b18800008111158015612539575067016345785d8a00008110155b61257a5760405162461bcd60e51b8152602060048201526012602482015271496e636f7272656374206c6576657261676560701b6044820152606401610f5c565b63ffffffff8916600081815261015c602090815260408083208590556101285461018d835281842060018552909252808320548380529281902054905163b0956b5f60e01b815260048101949094526001600160a01b03928316602485015282166044840152606483018b9052608483018a905260a4830189905260c4830187905260e48301869052600160201b9004169063b0956b5f9061010401600060405180830381600087803b15801561263057600080fd5b505af1158015612644573d6000803e3d6000fd5b5050610128546040516317b4d3fb60e31b815263ffffffff8d16600482015260016024820152670de0b6b3a76400006044820181905260648201526084810189905260a48101899052600160201b9091046001600160a01b0316925063bda69fd8915060c401600060405180830381600087803b1580156126c457600080fd5b505af11580156126d8573d6000803e3d6000fd5b50506040805163ffffffff8d168152602081018990529081018490527f95eeb1c33a758f56bd880588063c2f122e39c8885929e5fbbbd57418b97e58d0925060600190506121f3565b6001600160a01b0384161580159061274157506001600160a01b03831615155b801561275557506001600160a01b03821615155b801561276957506001600160a01b03811615155b61277257600080fd5b61277b846138c7565b61012980546001600160a01b03199081166001600160a01b038681169182179093556101288054640100000000600160c01b031916600160201b8786169081029190911790915561012a80549093168585161790925560408051938816845260208401919091528201527f48aa6e6153c5dedbe00925ab3c8e28c6ce0c1a80652b3369f176065e797b45079060600160405180910390a150505050565b3b151590565b80612828816135c8565b63ffffffff8216600090815261015f60209081526040808320548151630ce74fc560e31b815291516001600160a01b039091169263673a7e289260048082019391829003018187875af1158015612883573d6000803e3d6000fd5b505050506040513d601f19601f820116820180604052508101906128a79190615483565b63ffffffff8416600090815261015a602090815260408083205461015990925290912054919250908214801590611bfc576000806128e58786613999565b63ffffffff8916600090815261018d602090815260408083206001845282528083205481516318160ddd60e01b81529151959750939550919361297f9387936001600160a01b03909116926318160ddd92600480840193829003018189875af1158015612956573d6000803e3d6000fd5b505050506040513d601f19601f8201168201806040525081019061297a9190615483565b613625565b63ffffffff8916600090815261018d6020908152604080832083805282528083205481516318160ddd60e01b8152915194955092936129ed9387936001600160a01b03909116926318160ddd9260048083019392829003018189875af1158015612956573d6000803e3d6000fd5b63ffffffff8a16600090815261015960205260409020889055905085612a12816155ab565b63ffffffff8b16600090815261015a6020526040908190208290558051808201909152909750905080612a44846131d8565b6001600160801b03168152602001612a5b836131d8565b6001600160801b0390811690915263ffffffff8b166000908152610194602090815260408083208b845282528220845194909101518316600160801b029390921692909217905580612aae8b8585613c1c565b9092509050612abd8287615737565b9550612ac98186615737565b94506040518060400160405280612adf886131d8565b6001600160801b03168152602001612af6876131d8565b6001600160801b0390811690915263ffffffff8d166000818152610193602090815260409182902085519590910151948416600160801b9590941694909402929092179092556101285490516317b4d3fb60e31b81526004810192909252602482018a905260448201869052606482018590526084820188905260a48201879052600160201b90046001600160a01b03169063bda69fd89060c401600060405180830381600087803b158015612bab57600080fd5b505af1158015612bbf573d6000803e3d6000fd5b50506040805163ffffffff8f168152602081018c90529081018c9052606081018990526080810188905260a0810187905260c081018690527f69e662f95898affac086a5bc1177755bdaf7f4a40a3880364c48012170ee57fe925060e001905060405180910390a15050505050505050505050565b63ffffffff82811660009081526101c4602090815260408083208515158452825280832033845290915290205416611c20612c6f8242615778565b116118425760405162461bcd60e51b8152602060048201526024808201527f52617069642074726164696e672064697361626c65642e2057616974203420686044820152636f75727360e01b6064820152608401610f5c565b612cd28282611c25565b61101557612cea816001600160a01b03166014613f1b565b612cf5836020613f1b565b604051602001612d0692919061578f565b60408051601f198184030181529082905262461bcd60e51b8252610f5c91600401615804565b612d368282611c25565b6110155760008281526065602090815260408083206001600160a01b03851684529091529020805460ff19166001179055612d6e3390565b6001600160a01b0316816001600160a01b0316837f2f8788117e7eff1d82e926ec794901d17c78024a50270940304540a733656f0d60405160405180910390a45050565b612dbc8282611c25565b156110155760008281526065602090815260408083206001600160a01b0385168085529252808320805460ff1916905551339285917ff6391f5c32d9c69d2a47ea670b442974b53935d1edc7fd64eb21e047a839171b9190a45050565b7f360894a13ba1a3210667c828492db98dca3e2076cc3735a920a3ca505d382bbc546001600160a01b031690565b7f189ab7a9244df0848122154315af71fe140f3db0fe014031783b0946b8c9d2e36110158133612cc8565b6000612e7c612e19565b9050612e87846140b7565b600083511180612e945750815b15612ea557612ea3848461415c565b505b7f4910fdfa16fed3260ed0e7147f7cc6da11a60208b5b9406d12a635614ffd9143805460ff16611bfc57805460ff191660011781556040516001600160a01b0383166024820152612f2490869060440160408051601f198184030181529190526020810180516001600160e01b0316631b2ce7f360e11b17905261415c565b50805460ff19168155612f35612e19565b6001600160a01b0316826001600160a01b031614612fad5760405162461bcd60e51b815260206004820152602f60248201527f45524331393637557067726164653a207570677261646520627265616b73206660448201526e75727468657220757067726164657360881b6064820152608401610f5c565b611bfc85614247565b612fe07fa49807205ce4d355092ef5a8a18f56e8913cf4a201fbe287825b095693c2177533612cc8565b565b63ffffffff811660009081526101c0602090815260408083206001600160a01b03861684529091529020548015801590613032575063ffffffff8216600090815261015a60205260409020548111155b15610f705761304382846001614287565b61304f82846000614287565b61305b828460016143c6565b613067828460006143c6565b613073828460016144eb565b61307f828460006144eb565b63ffffffff821660008181526101c0602090815260408083206001600160a01b038816808552908352818420939093558051928352908201929092527fe03aa867e2345cc967d98e4c81f6b0707b5ef082d9d20bac3dcf95540acdeae491016117dc565b61012854600160201b90046001600160a01b03163314612fe05761012a546040516324b4085360e21b81523360048201526001600160a01b03909116906392d0214c90602401600060405180830381600087803b15801561314357600080fd5b505af1158015611842573d6000803e3d6000fd5b63ffffffff91821660009081526101c4602090815260408083209315158352928152828220338352905220805463ffffffff191642909216919091179055565b63ffffffff808316600090815261015e602090815260408083205461015d90925290912054611015926001600160a01b039182169233921690859061462616565b60006001600160801b038211156132415760405162461bcd60e51b815260206004820152602760248201527f53616665436173743a2076616c756520646f65736e27742066697420696e20316044820152663238206269747360c81b6064820152608401610f5c565b5090565b33836132508161281e565b61325a8282612fe2565b6132626130e3565b600084116132a55760405162461bcd60e51b815260206004820152601060248201526f04d696e7420616d6f756e74203d3d20360841b6044820152606401610f5c565b6132af8584613157565b6132b98585613197565b63ffffffff85166000908152610190602090815260408083208615158452909152812080548692906132ec908490615549565b909155505063ffffffff851660009081526101c160209081526040808320861515845282528083203384529091528120805486929061332c908490615549565b909155505063ffffffff8516600090815261015a6020526040812054613353906001615549565b63ffffffff871660009081526101c0602090815260408083203380855292529182902083905590519192507f50b8727b538cf16daeb79894e8bde5c1e975985071be8a8d7620675a5dddfc6b9161165291899188918a918790615561565b6000816133be8486615817565b6133c8919061584c565b949350505050565b33836133db8161281e565b6133e58282612fe2565b6133ed6130e3565b600084116134325760405162461bcd60e51b8152602060048201526012602482015271052656465656d20616d6f756e74203d3d20360741b6044820152606401610f5c565b61343d338685612c34565b63ffffffff8516600090815261018d602090815260408083208615158452909152908190205490516323b872dd60e01b8152336004820152306024820152604481018690526001600160a01b03909116906323b872dd906064016020604051808303816000875af11580156134b6573d6000803e3d6000fd5b505050506040513d601f19601f820116820180604052508101906134da91906155c6565b5063ffffffff851660009081526101c2602090815260408083208615158452825280832033845290915281208054869290613516908490615549565b909155505063ffffffff8516600090815261015a602052604081205461353d906001615549565b63ffffffff871660008181526101c06020908152604080832033845282528083208590559282526101918152828220881515835290529081208054929350879290919061358b908490615549565b90915550506040517f191d5f0d51691cdc223884e5321013c9663c6b337a07d550c538d9dcbbd66203906116529088908790899033908790615561565b63ffffffff81166000908152610158602052604090205460ff16610f0d5760405162461bcd60e51b81526020600482015260146024820152731b585c9ad95d08191bd95cdb89dd08195e1a5cdd60621b6044820152606401610f5c565b60008161363a84670de0b6b3a7640000615817565b61114c919061584c565b670de0b6b3a764000082101561369c5760405162461bcd60e51b815260206004820152601860248201527f496e73756666696369656e74206d61726b6574207365656400000000000000006044820152606401610f5c565b60006136a9836002615817565b90506136b58282613197565b63ffffffff8216600090815261015e6020526040908190205490516304831f7160e51b8152600481018390526001600160a01b0390911690639063ee2090602401600060405180830381600087803b15801561371057600080fd5b505af1158015613724573d6000803e3d6000fd5b5050505063ffffffff8216600090815261018d6020908152604080832060018452909152908190205490516340c10f1960e01b815273f10a7f10a7f10a7f10a7f10a7f10a7f10a7f10a76004820152602481018590526001600160a01b03909116906340c10f1990604401600060405180830381600087803b1580156137a957600080fd5b505af11580156137bd573d6000803e3d6000fd5b5050505063ffffffff8216600090815261018d60209081526040808320838052909152908190205490516340c10f1960e01b815273f10a7f10a7f10a7f10a7f10a7f10a7f10a7f10a76004820152602481018590526001600160a01b03909116906340c10f1990604401600060405180830381600087803b15801561384157600080fd5b505af1158015613855573d6000803e3d6000fd5b50505050604051806040016040528061386d856131d8565b6001600160801b03168152602001613884856131d8565b6001600160801b0390811690915263ffffffff909316600090815261019360209081526040909120825192909101518416600160801b0291909316179091555050565b600054610100900460ff166138e25760005460ff16156138e6565b303b155b6139495760405162461bcd60e51b815260206004820152602e60248201527f496e697469616c697a61626c653a20636f6e747261637420697320616c72656160448201526d191e481a5b9a5d1a585b1a5e995960921b6064820152608401610f5c565b600054610100900460ff1615801561396b576000805461ffff19166101011790555b613973614680565b61397b6146bf565b613984826146e6565b8015611015576000805461ff00191690555050565b63ffffffff821660009081526101936020526040812080546001600160801b0380821693600160801b9092041691906139d28385615549565b90506000806139e388878786614758565b63ffffffff8a16600090815261015e602052604080822054905163452accd960e11b81526004810188905260248101849052939550919350916001600160a01b0390911690638a5599b2906044016020604051808303816000875af1158015613a50573d6000803e3d6000fd5b505050506040513d601f19601f82011682018060405250810190613a749190615483565b90508015613aa0578215613a9357613a8c8188615549565b9650613aa0565b613a9d8187615549565b95505b63ffffffff89166000908152610159602052604081205490613ac289896147d0565b90506000613ad883670de0b6b3a7640000615860565b63ffffffff8d16600090815261015c602052604090205483613afa868f6158e5565b613b049190615860565b613b0e9190615860565b613b189190615924565b63ffffffff8d16600090815261016060205260409020549091508015613b7657898b1015613b5d57613b4c8d828c8e6147e6565b613b569083615737565b9150613b76565b613b698d828d8d6147e6565b613b7390836158e5565b91505b6000821215613bcd57613b8882615952565b91508a821115613bb057620186a0613ba38c6201869f615860565b613bad9190615924565b91505b613bba828c615778565b9a50613bc6828b615549565b9950613c0c565b89821115613bf357620186a0613be68b6201869f615860565b613bf09190615924565b91505b613bfd828c615549565b9a50613c09828b615778565b99505b5050505050505050509250929050565b63ffffffff8316600090815261019060209081526040808320600184529091528120548190819081908015613c7e5763ffffffff881660009081526101906020908152604080832060018452909152812055935083613c7b8188613625565b92505b5063ffffffff87166000908152610190602090815260408083208380529091529020548015613cd95763ffffffff8816600090815261019060209081526040808320838052909152812055925082613cd68187613625565b91505b5063ffffffff8716600090815261019260209081526040808320600184529091529020548015613d71576000613d0f82896148c5565b9050613d1b81876158e5565b9550613d278186615737565b9450613d3382856158e5565b9350613d408289896133b1565b613d4a9084615737565b63ffffffff8a16600090815261019260209081526040808320600184529091528120559250505b5063ffffffff87166000908152610192602090815260408083208380529091529020548015613e07576000613da682886148c5565b9050613db281866158e5565b9450613dbe8187615737565b9550613dca82846158e5565b9250613dd782888a6133b1565b613de19085615737565b63ffffffff8a166000908152610192602090815260408083208380529091528120559350505b5063ffffffff8716600090815261019160209081526040808320600184529091529020548015613e7757613e3b81886148c5565b613e4590866158e5565b9450613e5181846158e5565b63ffffffff89166000908152610191602090815260408083206001845290915281205592505b5063ffffffff87166000908152610191602090815260408083208380529091529020548015613ee557613eaa81876148c5565b613eb490856158e5565b9350613ec081836158e5565b63ffffffff891660009081526101916020908152604080832083805290915281205591505b613ef888613ef38688615737565b6148da565b613f04886001856149a8565b613f10886000846149a8565b505050935093915050565b60606000613f2a836002615817565b613f35906002615549565b67ffffffffffffffff811115613f4d57613f4d614f8a565b6040519080825280601f01601f191660200182016040528015613f77576020820181803683370190505b509050600360fc1b81600081518110613f9257613f92615595565b60200101906001600160f81b031916908160001a905350600f60fb1b81600181518110613fc157613fc1615595565b60200101906001600160f81b031916908160001a9053506000613fe5846002615817565b613ff0906001615549565b90505b6001811115614068576f181899199a1a9b1b9c1cb0b131b232b360811b85600f166010811061402457614024615595565b1a60f81b82828151811061403a5761403a615595565b60200101906001600160f81b031916908160001a90535060049490941c936140618161596f565b9050613ff3565b50831561114c5760405162461bcd60e51b815260206004820181905260248201527f537472696e67733a20686578206c656e67746820696e73756666696369656e746044820152606401610f5c565b803b61411b5760405162461bcd60e51b815260206004820152602d60248201527f455243313936373a206e657720696d706c656d656e746174696f6e206973206e60448201526c1bdd08184818dbdb9d1c9858dd609a1b6064820152608401610f5c565b7f360894a13ba1a3210667c828492db98dca3e2076cc3735a920a3ca505d382bbc80546001600160a01b0319166001600160a01b0392909216919091179055565b6060823b6141bb5760405162461bcd60e51b815260206004820152602660248201527f416464726573733a2064656c65676174652063616c6c20746f206e6f6e2d636f6044820152651b9d1c9858dd60d21b6064820152608401610f5c565b600080846001600160a01b0316846040516141d69190615986565b600060405180830381855af49150503d8060008114614211576040519150601f19603f3d011682016040523d82523d6000602084013e614216565b606091505b509150915061423e82826040518060600160405280602781526020016159ee60279139614a9f565b95945050505050565b614250816140b7565b6040516001600160a01b038216907fbc7cd75a20ee27fd9adebab32041f755214dbc6bffa90cc0225b39da2e5c2d3b90600090a250565b63ffffffff831660009081526101c160209081526040808320841515845282528083206001600160a01b038616845290915290205480156118425763ffffffff841660008181526101c160209081526040808320861515845282528083206001600160a01b0388168085529083528184208490559383526101c082528083209383529290529081205461432390839061297a90889087906110df565b63ffffffff8616600090815261018d6020908152604080832087151584529091529081902054905163a9059cbb60e01b81526001600160a01b0387811660048301526024820184905292935091169063a9059cbb906044016020604051808303816000875af115801561439a573d6000803e3d6000fd5b505050506040513d601f19601f820116820180604052508101906143be91906155c6565b505050505050565b63ffffffff831660009081526101c260209081526040808320841515845282528083206001600160a01b038616845290915290205480156118425763ffffffff841660008181526101c260209081526040808320861515845282528083206001600160a01b0388168085529083528184208490559383526101c082528083209383529290529081205461446790839061446290889087906110df565b6148c5565b63ffffffff8616600090815261015e6020526040908190205490516375b5ffd160e11b81526001600160a01b0387811660048301526024820184905292935091169063eb6bffa290604401600060405180830381600087803b1580156144cc57600080fd5b505af11580156144e0573d6000803e3d6000fd5b505050505050505050565b63ffffffff831660009081526101c360209081526040808320841515845282528083206001600160a01b038616845290915290205480156118425763ffffffff841660009081526101c0602090815260408083206001600160a01b038716845290915281205461456090869084908690611c50565b63ffffffff861660008181526101c3602090815260408083208815801585529083528184206001600160a01b038b811680875291855283862086905595855261018d845282852091855292529182902054915163a9059cbb60e01b8152600481019190915260248101849052929350169063a9059cbb906044016020604051808303816000875af11580156145f9573d6000803e3d6000fd5b505050506040513d601f19601f8201168201806040525081019061461d91906155c6565b611bfc57600080fd5b604080516001600160a01b0385811660248301528416604482015260648082018490528251808303909101815260849091019091526020810180516001600160e01b03166323b872dd60e01b179052611842908590614ad8565b600054610100900460ff166146a75760405162461bcd60e51b8152600401610f5c906159a2565b6146af614baa565b6146b7614baa565b612fe0614baa565b600054610100900460ff166146af5760405162461bcd60e51b8152600401610f5c906159a2565b6001600160a01b0381166146f957600080fd5b614704600082614bd1565b61472e7fa49807205ce4d355092ef5a8a18f56e8913cf4a201fbe287825b095693c2177582614bd1565b610f0d7f189ab7a9244df0848122154315af71fe140f3db0fe014031783b0946b8c9d2e382614bd1565b818310600080821561476d5750848403614772565b508385035b63ffffffff8716600090815261015b602052604081205485906147959084615817565b61479f919061584c565b905060006147b582670de0b6b3a76400006147d0565b905080670de0b6b3a764000003935050505094509492505050565b60008183106147df578161114c565b5090919050565b6101285463ffffffff8516600081815261015a6020526040808220549051633d016d9b60e11b815260048101939093526024830152918291600160201b9091046001600160a01b031690637a02db3690604401602060405180830381865afa158015614856573d6000803e3d6000fd5b505050506040513d601f19601f8201168201806040525081019061487a9190615483565b90506a1a1a94ec861d5c338000006148928242615778565b8661489d8688615778565b6148a79190615817565b6148b19190615817565b6148bb919061584c565b9695505050505050565b6000670de0b6b3a764000061363a8385615817565b60008113156149535763ffffffff8216600090815261015e6020526040908190205490516304831f7160e51b8152600481018390526001600160a01b0390911690639063ee20906024015b600060405180830381600087803b15801561493f57600080fd5b505af11580156143be573d6000803e3d6000fd5b60008112156110155763ffffffff8216600090815261015e60205260409020546001600160a01b0316631c499b5561498a83615952565b6040518263ffffffff1660e01b815260040161492591815260200190565b6000811315614a3d5763ffffffff8316600090815261018d602090815260408083208515158452909152908190205490516340c10f1960e01b8152306004820152602481018390526001600160a01b03909116906340c10f19906044015b600060405180830381600087803b158015614a2057600080fd5b505af1158015614a34573d6000803e3d6000fd5b50505050505050565b6000811215610f705763ffffffff8316600090815261018d6020908152604080832085151584529091529020546001600160a01b03166342966c68614a8183615952565b6040518263ffffffff1660e01b8152600401614a0691815260200190565b60608315614aae57508161114c565b825115614abe5782518084602001fd5b8160405162461bcd60e51b8152600401610f5c9190615804565b6000614b2d826040518060400160405280602081526020017f5361666545524332303a206c6f772d6c6576656c2063616c6c206661696c6564815250856001600160a01b0316614bdb9092919063ffffffff16565b805190915015610f705780806020019051810190614b4b91906155c6565b610f705760405162461bcd60e51b815260206004820152602a60248201527f5361666545524332303a204552433230206f7065726174696f6e20646964206e6044820152691bdd081cdd58d8d9595960b21b6064820152608401610f5c565b600054610100900460ff16612fe05760405162461bcd60e51b8152600401610f5c906159a2565b6110158282612d2c565b60606133c8848460008585843b614c345760405162461bcd60e51b815260206004820152601d60248201527f416464726573733a2063616c6c20746f206e6f6e2d636f6e74726163740000006044820152606401610f5c565b600080866001600160a01b03168587604051614c509190615986565b60006040518083038185875af1925050503d8060008114614c8d576040519150601f19603f3d011682016040523d82523d6000602084013e614c92565b606091505b5091509150611c89828286614a9f565b600060208284031215614cb457600080fd5b81356001600160e01b03198116811461114c57600080fd5b803563ffffffff81168114614ce057600080fd5b919050565b600060208284031215614cf757600080fd5b61114c82614ccc565b8015158114610f0d57600080fd5b6001600160a01b0381168114610f0d57600080fd5b600080600060608486031215614d3857600080fd5b614d4184614ccc565b92506020840135614d5181614d00565b91506040840135614d6181614d0e565b809150509250925092565b600080600060608486031215614d8157600080fd5b8335614d8c81614d0e565b9250614d9a60208501614ccc565b91506040840135614d6181614d00565b600060208284031215614dbc57600080fd5b5035919050565b60008060408385031215614dd657600080fd5b823591506020830135614de881614d0e565b809150509250929050565b600080600060608486031215614e0857600080fd5b614e1184614ccc565b92506020840135614e2181614d00565b929592945050506040919091013590565b60008060408385031215614e4557600080fd5b614e4e83614ccc565b91506020830135614de881614d00565b600060208284031215614e7057600080fd5b813561114c81614d0e565b60008083601f840112614e8d57600080fd5b50813567ffffffffffffffff811115614ea557600080fd5b60208301915083602082850101111561175c57600080fd5b600080600080600080600080600060e08a8c031215614edb57600080fd5b893567ffffffffffffffff80821115614ef357600080fd5b614eff8d838e01614e7b565b909b50995060208c0135915080821115614f1857600080fd5b50614f258c828d01614e7b565b90985096505060408a0135614f3981614d0e565b945060608a0135614f4981614d0e565b935060808a0135614f5981614d0e565b925060a08a0135614f6981614d0e565b915060c08a0135614f7981614d0e565b809150509295985092959850929598565b634e487b7160e01b600052604160045260246000fd5b60008060408385031215614fb357600080fd5b8235614fbe81614d0e565b9150602083013567ffffffffffffffff80821115614fdb57600080fd5b818501915085601f830112614fef57600080fd5b81358181111561500157615001614f8a565b604051601f8201601f19908116603f0116810190838211818310171561502957615029614f8a565b8160405282815288602084870101111561504257600080fd5b8260208601602083013760006020848301015280955050505050509250929050565b60008060006060848603121561507957600080fd5b61508284614ccc565b9250602084013591506040840135614d6181614d00565b600080604083850312156150ac57600080fd5b6150b583614ccc565b946020939093013593505050565b600080604083850312156150d657600080fd5b6150df83614ccc565b91506020830135614de881614d0e565b60008083601f84011261510157600080fd5b50813567ffffffffffffffff81111561511957600080fd5b6020830191508360208260051b850101111561175c57600080fd5b6000806020838503121561514757600080fd5b823567ffffffffffffffff81111561515e57600080fd5b61516a858286016150ef565b90969095509350505050565b60008060006040848603121561518b57600080fd5b833561519681614d0e565b9250602084013567ffffffffffffffff8111156151b257600080fd5b6151be868287016150ef565b9497909650939450505050565b600080604083850312156151de57600080fd5b82356151e981614d0e565b91506151f760208401614ccc565b90509250929050565b6000806000806080858703121561521657600080fd5b61521f85614ccc565b935060208501359250604085013561523681614d00565b9396929550929360600135925050565b600080600080600080600060a0888a03121561526157600080fd5b873567ffffffffffffffff8082111561527957600080fd5b6152858b838c01614e7b565b909950975060208a013591508082111561529e57600080fd5b506152ab8a828b01614e7b565b90965094505060408801356152bf81614d0e565b925060608801356152cf81614d0e565b915060808801356152df81614d0e565b8091505092959891949750929550565b60008060008060008060008060006101208a8c03121561530e57600080fd5b6153178a614ccc565b9b60208b01359b5060408b01359a60608101359a506080810135995060a0810135985060c0810135975060e081013596506101000135945092505050565b6000806000806080858703121561536b57600080fd5b843561537681614d0e565b9350602085013561538681614d0e565b9250604085013561539681614d0e565b915060608501356153a681614d0e565b939692955090935050565b6020808252602c908201527f46756e6374696f6e206d7573742062652063616c6c6564207468726f7567682060408201526b19195b1959d85d1958d85b1b60a21b606082015260800190565b6020808252602c908201527f46756e6374696f6e206d7573742062652063616c6c6564207468726f7567682060408201526b6163746976652070726f787960a01b606082015260800190565b634e487b7160e01b600052601160045260246000fd5b600063ffffffff8083168181141561547957615479615449565b6001019392505050565b60006020828403121561549557600080fd5b5051919050565b81835281816020850137506000828201602090810191909152601f909101601f19169091010190565b63ffffffff8c1681526001600160a01b038b811660208301528a8116604083015289811660608301526080820189905261012060a0830181905260009161550f8483018a8c61549c565b915083820360c085015261552482888a61549c565b925080861660e085015280851661010085015250509c9b505050505050505050505050565b6000821982111561555c5761555c615449565b500190565b63ffffffff959095168552921515602085015260408401919091526001600160a01b03166060830152608082015260a00190565b634e487b7160e01b600052603260045260246000fd5b60006000198214156155bf576155bf615449565b5060010190565b6000602082840312156155d857600080fd5b815161114c81614d00565b6a0233637b0ba102637b733960ad1b81528183600b83013760009101600b01908152919050565b61199b60f21b81528183600283013760009101600201908152919050565b60005b8381101561564357818101518382015260200161562b565b838111156118425750506000910152565b6000815180845261566c816020860160208601615628565b601f01601f19169290920160200192915050565b60a08152600061569360a0830188615654565b82810360208401526156a58188615654565b6001600160a01b03969096166040840152505063ffffffff929092166060830152151560809091015292915050565b6000602082840312156156e657600080fd5b815161114c81614d0e565b6b0233637b0ba1029b437b93a160a51b81528183600c83013760009101600c01908152919050565b61667360f01b81528183600283013760009101600201908152919050565b600080821280156001600160ff1b038490038513161561575957615759615449565b600160ff1b839003841281161561577257615772615449565b50500190565b60008282101561578a5761578a615449565b500390565b7f416363657373436f6e74726f6c3a206163636f756e74200000000000000000008152600083516157c7816017850160208801615628565b7001034b99036b4b9b9b4b733903937b6329607d1b60179184019182015283516157f8816028840160208801615628565b01602801949350505050565b60208152600061114c6020830184615654565b600081600019048311821515161561583157615831615449565b500290565b634e487b7160e01b600052601260045260246000fd5b60008261585b5761585b615836565b500490565b60006001600160ff1b038184138284138082168684048611161561588657615886615449565b600160ff1b60008712828116878305891216156158a5576158a5615449565b600087129250878205871284841616156158c1576158c1615449565b878505871281841616156158d7576158d7615449565b505050929093029392505050565b60008083128015600160ff1b85018412161561590357615903615449565b6001600160ff1b038401831381161561591e5761591e615449565b50500390565b60008261593357615933615836565b600160ff1b82146000198414161561594d5761594d615449565b500590565b6000600160ff1b82141561596857615968615449565b5060000390565b60008161597e5761597e615449565b506000190190565b60008251615998818460208701615628565b9190910192915050565b6020808252602b908201527f496e697469616c697a61626c653a20636f6e7472616374206973206e6f74206960408201526a6e697469616c697a696e6760a81b60608201526080019056fe416464726573733a206c6f772d6c6576656c2064656c65676174652063616c6c206661696c6564a2646970667358221220507f4c0973746baffe7f2236476f2d8b69bdc04155fc8ba9710c62fc54faa53464736f6c634300080a0033",
  "devdoc": {
    "kind": "dev",
    "methods": {
      "createNewSyntheticMarket(string,string,address,address,address)": {
        "details": "This does not make the market active. The `initializeMarket` function was split out separately to this function to reduce costs.",
        "params": {
          "_oracleManager": "The address of the oracle manager that provides the price feed for this market",
          "_paymentToken": "The address of the erc20 token used to buy this synthetic asset this will likely always be DAI",
          "_yieldManager": "The contract that manages depositing the paymentToken into a yield bearing protocol",
          "syntheticName": "Name of the synthetic asset",
          "syntheticSymbol": "Symbol for the synthetic asset"
        }
      },
      "createNewSyntheticMarketExternalSyntheticTokens(string,string,address,address,address,address,address)": {
        "details": "This does not make the market active. The `initializeMarket` function was split out separately to this function to reduce costs.",
        "params": {
          "_longToken": "Address for the long token.",
          "_oracleManager": "The address of the oracle manager that provides the price feed for this market",
          "_paymentToken": "The address of the erc20 token used to buy this synthetic asset this will likely always be DAI",
          "_shortToken": "Address for the short token.",
          "_yieldManager": "The contract that manages depositing the paymentToken into a yield bearing protocol",
          "syntheticName": "Name of the synthetic asset",
          "syntheticSymbol": "Symbol for the synthetic asset"
        }
      },
      "executeOutstandingNextPriceSettlementsUser(address,uint32)": {
        "params": {
          "marketIndex": "An uint32 which uniquely identifies a market.",
          "user": "The address of the user for whom to execute the function."
        }
      },
      "executeOutstandingNextPriceSettlementsUserMulti(address,uint32[])": {
        "params": {
          "marketIndexes": "An array of int32s which each uniquely identify a market.",
          "user": "The address of the user for whom to execute the function."
        }
      },
      "getAmountSyntheticTokenToMintOnTargetSide(uint32,uint256,bool,uint256)": {
        "details": "Intended for use primarily by Staker.sol",
        "params": {
          "amountSyntheticToken_redeemOnOriginSide": "Amount of synth token in wei.",
          "isShiftFromLong": "Whether the token shift is from long to short (true), or short to long (false).",
          "marketIndex": "An uint32 which uniquely identifies a market.",
          "priceSnapshotIndex": "Index which identifies which synth prices to use."
        },
        "returns": {
          "amountSyntheticTokensToMintOnTargetSide": "The amount in wei of tokens for the other side that the shift was worth."
        }
      },
      "getRoleAdmin(bytes32)": {
        "details": "Returns the admin role that controls `role`. See {grantRole} and {revokeRole}. To change a role's admin, use {_setRoleAdmin}."
      },
      "getUsersConfirmedButNotSettledSynthBalance(address,uint32,bool)": {
        "details": "Used in SyntheticToken.sol balanceOf to allow for automatic reflection of next price actions.",
        "params": {
          "isLong": "Whether it is for the long synthetic asset or the short synthetic asset.",
          "marketIndex": "An uint32 which uniquely identifies a market.",
          "user": "The address of the user for whom to execute the function for."
        },
        "returns": {
          "confirmedButNotSettledBalance": "The amount in wei of tokens that the user is owed."
        }
      },
      "grantRole(bytes32,address)": {
        "details": "Grants `role` to `account`. If `account` had not been already granted `role`, emits a {RoleGranted} event. Requirements: - the caller must have ``role``'s admin role."
      },
      "hasRole(bytes32,address)": {
        "details": "Returns `true` if `account` has been granted `role`."
      },
      "initialize(address,address,address,address)": {
        "details": "Calls OpenZeppelin's initializer modifier.",
        "params": {
          "_admin": "Address of the admin role.",
          "_staker": "Address of the contract which handles synthetic asset stakes.",
          "_tokenFactory": "Address of the contract which creates synthetic asset tokens."
        }
      },
      "initializeMarket(uint32,uint256,uint256,uint256,uint256,uint256,int256,uint256,uint256)": {
        "details": "Seperated from createNewSyntheticMarket due to gas considerations.",
        "params": {
          "balanceIncentiveCurve_equilibriumOffset": "An offset to account for naturally imbalanced markets when Float token issuance should differ for market sides. See Staker.sol",
          "balanceIncentiveCurve_exponent": "Sets the degree to which Float token issuance differs for market sides in unbalanced markets. See Staker.sol",
          "initialMarketSeedForEachMarketSide": "Amount of payment token that will be deposited in each market side to seed the market.",
          "kInitialMultiplier": "Linearly decreasing multiplier for Float token issuance for the market when staking synths.",
          "kPeriod": "Time which kInitialMultiplier will last",
          "marketIndex": "An int32 which uniquely identifies the market.",
          "unstakeFee_e18": "Base 1e18 percentage fee levied when unstaking for the market."
        }
      },
      "mintLongNextPrice(uint32,uint256)": {
        "params": {
          "amount": "Amount of payment tokens in that token's lowest denominationfor which to mint synthetic assets at next price.",
          "marketIndex": "An uint32 which uniquely identifies a market."
        }
      },
      "mintShortNextPrice(uint32,uint256)": {
        "params": {
          "amount": "Amount of payment tokens in that token's lowest denominationfor which to mint synthetic assets at next price.",
          "marketIndex": "An uint32 which uniquely identifies a market."
        }
      },
      "redeemLongNextPrice(uint32,uint256)": {
        "params": {
          "marketIndex": "An uint32 which uniquely identifies a market.",
          "tokens_redeem": "Amount in wei of synth tokens to redeem at the next oracle price."
        }
      },
      "redeemShortNextPrice(uint32,uint256)": {
        "params": {
          "marketIndex": "An uint32 which uniquely identifies a market.",
          "tokens_redeem": "Amount in wei of synth tokens to redeem at the next oracle price."
        }
      },
      "renounceRole(bytes32,address)": {
        "details": "Revokes `role` from the calling account. Roles are often managed via {grantRole} and {revokeRole}: this function's purpose is to provide a mechanism for accounts to lose their privileges if they are compromised (such as when a trusted device is misplaced). If the calling account had been revoked `role`, emits a {RoleRevoked} event. Requirements: - the caller must be `account`."
      },
      "revokeRole(bytes32,address)": {
        "details": "Revokes `role` from `account`. If `account` had been granted `role`, emits a {RoleRevoked} event. Requirements: - the caller must have ``role``'s admin role."
      },
      "shiftPositionFromLongNextPrice(uint32,uint256)": {
        "params": {
          "amountSyntheticTokensToShift": "Amount in wei of synthetic tokens to shift from long to short the next oracle price update.",
          "marketIndex": "An uint32 which uniquely identifies a market."
        }
      },
      "shiftPositionFromShortNextPrice(uint32,uint256)": {
        "params": {
          "amountSyntheticTokensToShift": "Amount in wei of synthetic tokens to shift from the short to long at the next oracle price update.",
          "marketIndex": "An uint32 which uniquely identifies a market."
        }
      },
      "shiftPositionNextPrice(uint32,uint256,bool)": {
        "details": "Called by external functions to shift either way. Intended for primary use by Staker.sol",
        "params": {
          "amountSyntheticTokensToShift": "Amount in wei of synthetic tokens to shift from the one side to the other at the next oracle price update.",
          "isShiftFromLong": "Whether the token shift is from long to short (true), or short to long (false).",
          "marketIndex": "An uint32 which uniquely identifies a market."
        }
      },
      "supportsInterface(bytes4)": {
        "details": "See {IERC165-supportsInterface}."
      },
      "updateMarketOracle(uint32,address)": {
        "details": "Can only be called by the current admin.",
        "params": {
          "_newOracleManager": "Address of the replacement oracle manager.",
          "marketIndex": "An uint32 which uniquely identifies a market."
        }
      },
      "updateSystemState(uint32)": {
        "params": {
          "marketIndex": "An uint32 which uniquely identifies a market."
        }
      },
      "updateSystemStateMulti(uint32[])": {
        "params": {
          "marketIndexes": "An array of int32s which uniquely identify markets."
        }
      },
      "upgradeTo(address)": {
        "details": "Upgrade the implementation of the proxy to `newImplementation`. Calls {_authorizeUpgrade}. Emits an {Upgraded} event."
      },
      "upgradeToAndCall(address,bytes)": {
        "details": "Upgrade the implementation of the proxy to `newImplementation`, and subsequently execute the function call encoded in `data`. Calls {_authorizeUpgrade}. Emits an {Upgraded} event."
      }
    },
    "version": 1
  },
  "userdoc": {
    "kind": "user",
    "methods": {
      "changeMarketTreasurySplitGradient(uint32,uint256)": {
        "notice": "changes the gradient of the line for determining the yield split between market and treasury."
      },
      "createNewSyntheticMarket(string,string,address,address,address)": {
        "notice": "Creates an entirely new long/short market tracking an underlying oracle price.  Make sure the synthetic names/symbols are unique."
      },
      "createNewSyntheticMarketExternalSyntheticTokens(string,string,address,address,address,address,address)": {
        "notice": "Creates an entirely new long/short market tracking an underlying oracle price.  Uses already created synthetic tokens."
      },
      "executeOutstandingNextPriceSettlementsUser(address,uint32)": {
        "notice": "After markets have been batched updated on a new oracle price, transfers any owed tokens to a user from their next price actions for that update to that user."
      },
      "executeOutstandingNextPriceSettlementsUserMulti(address,uint32[])": {
        "notice": "Executes outstanding next price settlements for a user for multiple markets."
      },
      "getAmountSyntheticTokenToMintOnTargetSide(uint32,uint256,bool,uint256)": {
        "notice": "Given an executed next price shift from tokens on one market side to the other, determines how many other side tokens the shift was worth."
      },
      "getUsersConfirmedButNotSettledSynthBalance(address,uint32,bool)": {
        "notice": "The amount of a synth token a user is owed following a batch execution. 4 possible states for next price actions: - \"Pending\" - means the next price update hasn't happened or been enacted on by the updateSystemState function. - \"Confirmed\" - means the next price has been updated by the updateSystemState function. There is still -               outstanding (lazy) computation that needs to be executed per user in the batch. - \"Settled\" - there is no more computation left for the user. - \"Non-existent\" - user has no next price actions. This function returns a calculated value only in the case of 'confirmed' next price actions. It should return zero for all other types of next price actions."
      },
      "initialize(address,address,address,address)": {
        "notice": "Initializes the contract."
      },
      "initializeMarket(uint32,uint256,uint256,uint256,uint256,uint256,int256,uint256,uint256)": {
        "notice": "Sets a market as active once it has already been setup by createNewSyntheticMarket."
      },
      "mintLongNextPrice(uint32,uint256)": {
        "notice": "Allows users to mint long synthetic assets for a market. To prevent front-running these mints are executed on the next price update from the oracle."
      },
      "mintShortNextPrice(uint32,uint256)": {
        "notice": "Allows users to mint short synthetic assets for a market. To prevent front-running these mints are executed on the next price update from the oracle."
      },
      "redeemLongNextPrice(uint32,uint256)": {
        "notice": "Allows users to redeem long synthetic assets for a market. To prevent front-running these redeems are executed on the next price update from the oracle."
      },
      "redeemShortNextPrice(uint32,uint256)": {
        "notice": "Allows users to redeem short synthetic assets for a market. To prevent front-running these redeems are executed on the next price update from the oracle."
      },
      "shiftPositionFromLongNextPrice(uint32,uint256)": {
        "notice": "Allows users to shift their position from long to short in a single transaction. To prevent front-running these shifts are executed on the next price update from the oracle."
      },
      "shiftPositionFromShortNextPrice(uint32,uint256)": {
        "notice": "Allows users to shift their position from short to long in a single transaction. To prevent front-running these shifts are executed on the next price update from the oracle."
      },
      "shiftPositionNextPrice(uint32,uint256,bool)": {
        "notice": "Allows users to shift their position from one side of the market to the other in a single transaction. To prevent front-running these shifts are executed on the next price update from the oracle."
      },
      "syntheticToken_priceSnapshotLEGACY(uint32,bool,uint256)": {
        "notice": "synthetic token prices of a given market of a (long/short) at every previous price update"
      },
      "updateMarketOracle(uint32,address)": {
        "notice": "Update oracle for a market"
      },
      "updateSystemState(uint32)": {
        "notice": "Updates the state of a market to account for the latest oracle price update."
      },
      "updateSystemStateMulti(uint32[])": {
        "notice": "Updates the state of multiples markets to account for their latest oracle price updates."
      }
    },
    "version": 1
  },
  "storageLayout": {
    "storage": [
      {
        "astId": 1051,
        "contract": "contracts/longShort/LongShortAvalanche.sol:LongShortAvalanche",
        "label": "_initialized",
        "offset": 0,
        "slot": "0",
        "type": "t_bool"
      },
      {
        "astId": 1054,
        "contract": "contracts/longShort/LongShortAvalanche.sol:LongShortAvalanche",
        "label": "_initializing",
        "offset": 1,
        "slot": "0",
        "type": "t_bool"
      },
      {
        "astId": 5350,
        "contract": "contracts/longShort/LongShortAvalanche.sol:LongShortAvalanche",
        "label": "__gap",
        "offset": 0,
        "slot": "1",
        "type": "t_array(t_uint256)50_storage"
      },
      {
        "astId": 6272,
        "contract": "contracts/longShort/LongShortAvalanche.sol:LongShortAvalanche",
        "label": "__gap",
        "offset": 0,
        "slot": "51",
        "type": "t_array(t_uint256)50_storage"
      },
      {
        "astId": 250,
        "contract": "contracts/longShort/LongShortAvalanche.sol:LongShortAvalanche",
        "label": "_roles",
        "offset": 0,
        "slot": "101",
        "type": "t_mapping(t_bytes32,t_struct(RoleData)245_storage)"
      },
      {
        "astId": 537,
        "contract": "contracts/longShort/LongShortAvalanche.sol:LongShortAvalanche",
        "label": "__gap",
        "offset": 0,
        "slot": "102",
        "type": "t_array(t_uint256)49_storage"
      },
      {
        "astId": 1033,
        "contract": "contracts/longShort/LongShortAvalanche.sol:LongShortAvalanche",
        "label": "__gap",
        "offset": 0,
        "slot": "151",
        "type": "t_array(t_uint256)50_storage"
      },
      {
        "astId": 1228,
        "contract": "contracts/longShort/LongShortAvalanche.sol:LongShortAvalanche",
        "label": "__gap",
        "offset": 0,
        "slot": "201",
        "type": "t_array(t_uint256)50_storage"
      },
      {
        "astId": 19033,
        "contract": "contracts/longShort/LongShortAvalanche.sol:LongShortAvalanche",
        "label": "__constantsGap",
        "offset": 0,
        "slot": "251",
        "type": "t_array(t_uint256)45_storage"
      },
      {
        "astId": 19036,
        "contract": "contracts/longShort/LongShortAvalanche.sol:LongShortAvalanche",
        "label": "latestMarket",
        "offset": 0,
        "slot": "296",
        "type": "t_uint32"
      },
      {
        "astId": 19038,
        "contract": "contracts/longShort/LongShortAvalanche.sol:LongShortAvalanche",
        "label": "staker",
        "offset": 4,
        "slot": "296",
        "type": "t_address"
      },
      {
        "astId": 19040,
        "contract": "contracts/longShort/LongShortAvalanche.sol:LongShortAvalanche",
        "label": "tokenFactory",
        "offset": 0,
        "slot": "297",
        "type": "t_address"
      },
      {
        "astId": 19042,
        "contract": "contracts/longShort/LongShortAvalanche.sol:LongShortAvalanche",
        "label": "gems",
        "offset": 0,
        "slot": "298",
        "type": "t_address"
      },
      {
        "astId": 19046,
        "contract": "contracts/longShort/LongShortAvalanche.sol:LongShortAvalanche",
        "label": "__globalStateGap",
        "offset": 0,
        "slot": "299",
        "type": "t_array(t_uint256)45_storage"
      },
      {
        "astId": 19050,
        "contract": "contracts/longShort/LongShortAvalanche.sol:LongShortAvalanche",
        "label": "marketExists",
        "offset": 0,
        "slot": "344",
        "type": "t_mapping(t_uint32,t_bool)"
      },
      {
        "astId": 19055,
        "contract": "contracts/longShort/LongShortAvalanche.sol:LongShortAvalanche",
        "label": "assetPrice",
        "offset": 0,
        "slot": "345",
        "type": "t_mapping(t_uint32,t_int256)"
      },
      {
        "astId": 19060,
        "contract": "contracts/longShort/LongShortAvalanche.sol:LongShortAvalanche",
        "label": "marketUpdateIndex",
        "offset": 0,
        "slot": "346",
        "type": "t_mapping(t_uint32,t_uint256)"
      },
      {
        "astId": 19064,
        "contract": "contracts/longShort/LongShortAvalanche.sol:LongShortAvalanche",
        "label": "marketTreasurySplitGradient_e18",
        "offset": 0,
        "slot": "347",
        "type": "t_mapping(t_uint32,t_uint256)"
      },
      {
        "astId": 19068,
        "contract": "contracts/longShort/LongShortAvalanche.sol:LongShortAvalanche",
        "label": "marketLeverage_e18",
        "offset": 0,
        "slot": "348",
        "type": "t_mapping(t_uint32,t_uint256)"
      },
      {
        "astId": 19072,
        "contract": "contracts/longShort/LongShortAvalanche.sol:LongShortAvalanche",
        "label": "paymentTokens",
        "offset": 0,
        "slot": "349",
        "type": "t_mapping(t_uint32,t_address)"
      },
      {
        "astId": 19076,
        "contract": "contracts/longShort/LongShortAvalanche.sol:LongShortAvalanche",
        "label": "yieldManagers",
        "offset": 0,
        "slot": "350",
        "type": "t_mapping(t_uint32,t_address)"
      },
      {
        "astId": 19081,
        "contract": "contracts/longShort/LongShortAvalanche.sol:LongShortAvalanche",
        "label": "oracleManagers",
        "offset": 0,
        "slot": "351",
        "type": "t_mapping(t_uint32,t_address)"
      },
      {
        "astId": 19085,
        "contract": "contracts/longShort/LongShortAvalanche.sol:LongShortAvalanche",
        "label": "fundingRateMultiplier_e18",
        "offset": 0,
        "slot": "352",
        "type": "t_mapping(t_uint32,t_uint256)"
      },
      {
        "astId": 19089,
        "contract": "contracts/longShort/LongShortAvalanche.sol:LongShortAvalanche",
        "label": "__marketStateGap",
        "offset": 0,
        "slot": "353",
        "type": "t_array(t_uint256)44_storage"
      },
      {
        "astId": 19096,
        "contract": "contracts/longShort/LongShortAvalanche.sol:LongShortAvalanche",
        "label": "syntheticTokens",
        "offset": 0,
        "slot": "397",
        "type": "t_mapping(t_uint32,t_mapping(t_bool,t_address))"
      },
      {
        "astId": 19102,
        "contract": "contracts/longShort/LongShortAvalanche.sol:LongShortAvalanche",
        "label": "marketSideValueInPaymentTokenLEGACY",
        "offset": 0,
        "slot": "398",
        "type": "t_mapping(t_uint32,t_mapping(t_bool,t_uint256))"
      },
      {
        "astId": 19111,
        "contract": "contracts/longShort/LongShortAvalanche.sol:LongShortAvalanche",
        "label": "syntheticToken_priceSnapshotLEGACY",
        "offset": 0,
        "slot": "399",
        "type": "t_mapping(t_uint32,t_mapping(t_bool,t_mapping(t_uint256,t_uint256)))"
      },
      {
        "astId": 19118,
        "contract": "contracts/longShort/LongShortAvalanche.sol:LongShortAvalanche",
        "label": "batched_amountPaymentToken_deposit",
        "offset": 0,
        "slot": "400",
        "type": "t_mapping(t_uint32,t_mapping(t_bool,t_uint256))"
      },
      {
        "astId": 19125,
        "contract": "contracts/longShort/LongShortAvalanche.sol:LongShortAvalanche",
        "label": "batched_amountSyntheticToken_redeem",
        "offset": 0,
        "slot": "401",
        "type": "t_mapping(t_uint32,t_mapping(t_bool,t_uint256))"
      },
      {
        "astId": 19132,
        "contract": "contracts/longShort/LongShortAvalanche.sol:LongShortAvalanche",
        "label": "batched_amountSyntheticToken_toShiftAwayFrom_marketSide",
        "offset": 0,
        "slot": "402",
        "type": "t_mapping(t_uint32,t_mapping(t_bool,t_uint256))"
      },
      {
        "astId": 19143,
        "contract": "contracts/longShort/LongShortAvalanche.sol:LongShortAvalanche",
        "label": "marketSideValueInPaymentToken",
        "offset": 0,
        "slot": "403",
        "type": "t_mapping(t_uint32,t_struct(MarketSideValueInPaymentToken)19137_storage)"
      },
      {
        "astId": 19155,
        "contract": "contracts/longShort/LongShortAvalanche.sol:LongShortAvalanche",
        "label": "syntheticToken_priceSnapshot",
        "offset": 0,
        "slot": "404",
        "type": "t_mapping(t_uint32,t_mapping(t_uint256,t_struct(SynthPriceInPaymentToken)19148_storage))"
      },
      {
        "astId": 19159,
        "contract": "contracts/longShort/LongShortAvalanche.sol:LongShortAvalanche",
        "label": "__marketPositonStateGap",
        "offset": 0,
        "slot": "405",
        "type": "t_array(t_uint256)43_storage"
      },
      {
        "astId": 19165,
        "contract": "contracts/longShort/LongShortAvalanche.sol:LongShortAvalanche",
        "label": "userNextPrice_currentUpdateIndex",
        "offset": 0,
        "slot": "448",
        "type": "t_mapping(t_uint32,t_mapping(t_address,t_uint256))"
      },
      {
        "astId": 19173,
        "contract": "contracts/longShort/LongShortAvalanche.sol:LongShortAvalanche",
        "label": "userNextPrice_paymentToken_depositAmount",
        "offset": 0,
        "slot": "449",
        "type": "t_mapping(t_uint32,t_mapping(t_bool,t_mapping(t_address,t_uint256)))"
      },
      {
        "astId": 19181,
        "contract": "contracts/longShort/LongShortAvalanche.sol:LongShortAvalanche",
        "label": "userNextPrice_syntheticToken_redeemAmount",
        "offset": 0,
        "slot": "450",
        "type": "t_mapping(t_uint32,t_mapping(t_bool,t_mapping(t_address,t_uint256)))"
      },
      {
        "astId": 19189,
        "contract": "contracts/longShort/LongShortAvalanche.sol:LongShortAvalanche",
        "label": "userNextPrice_syntheticToken_toShiftAwayFrom_marketSide",
        "offset": 0,
        "slot": "451",
        "type": "t_mapping(t_uint32,t_mapping(t_bool,t_mapping(t_address,t_uint256)))"
      },
      {
        "astId": 19203,
        "contract": "contracts/longShort/LongShortAvalanche.sol:LongShortAvalanche",
        "label": "userLastInteractionTimestamp",
        "offset": 0,
        "slot": "452",
        "type": "t_mapping(t_uint32,t_mapping(t_bool,t_mapping(t_address,t_struct(UserInteractionInfo)19194_storage)))"
      }
    ],
    "types": {
      "t_address": {
        "encoding": "inplace",
        "label": "address",
        "numberOfBytes": "20"
      },
      "t_array(t_uint256)43_storage": {
        "base": "t_uint256",
        "encoding": "inplace",
        "label": "uint256[43]",
        "numberOfBytes": "1376"
      },
      "t_array(t_uint256)44_storage": {
        "base": "t_uint256",
        "encoding": "inplace",
        "label": "uint256[44]",
        "numberOfBytes": "1408"
      },
      "t_array(t_uint256)45_storage": {
        "base": "t_uint256",
        "encoding": "inplace",
        "label": "uint256[45]",
        "numberOfBytes": "1440"
      },
      "t_array(t_uint256)49_storage": {
        "base": "t_uint256",
        "encoding": "inplace",
        "label": "uint256[49]",
        "numberOfBytes": "1568"
      },
      "t_array(t_uint256)50_storage": {
        "base": "t_uint256",
        "encoding": "inplace",
        "label": "uint256[50]",
        "numberOfBytes": "1600"
      },
      "t_bool": {
        "encoding": "inplace",
        "label": "bool",
        "numberOfBytes": "1"
      },
      "t_bytes32": {
        "encoding": "inplace",
        "label": "bytes32",
        "numberOfBytes": "32"
      },
      "t_int256": {
        "encoding": "inplace",
        "label": "int256",
        "numberOfBytes": "32"
      },
      "t_mapping(t_address,t_bool)": {
        "encoding": "mapping",
        "key": "t_address",
        "label": "mapping(address => bool)",
        "numberOfBytes": "32",
        "value": "t_bool"
      },
      "t_mapping(t_address,t_struct(UserInteractionInfo)19194_storage)": {
        "encoding": "mapping",
        "key": "t_address",
        "label": "mapping(address => struct LongShort.UserInteractionInfo)",
        "numberOfBytes": "32",
        "value": "t_struct(UserInteractionInfo)19194_storage"
      },
      "t_mapping(t_address,t_uint256)": {
        "encoding": "mapping",
        "key": "t_address",
        "label": "mapping(address => uint256)",
        "numberOfBytes": "32",
        "value": "t_uint256"
      },
      "t_mapping(t_bool,t_address)": {
        "encoding": "mapping",
        "key": "t_bool",
        "label": "mapping(bool => address)",
        "numberOfBytes": "32",
        "value": "t_address"
      },
      "t_mapping(t_bool,t_mapping(t_address,t_struct(UserInteractionInfo)19194_storage))": {
        "encoding": "mapping",
        "key": "t_bool",
        "label": "mapping(bool => mapping(address => struct LongShort.UserInteractionInfo))",
        "numberOfBytes": "32",
        "value": "t_mapping(t_address,t_struct(UserInteractionInfo)19194_storage)"
      },
      "t_mapping(t_bool,t_mapping(t_address,t_uint256))": {
        "encoding": "mapping",
        "key": "t_bool",
        "label": "mapping(bool => mapping(address => uint256))",
        "numberOfBytes": "32",
        "value": "t_mapping(t_address,t_uint256)"
      },
      "t_mapping(t_bool,t_mapping(t_uint256,t_uint256))": {
        "encoding": "mapping",
        "key": "t_bool",
        "label": "mapping(bool => mapping(uint256 => uint256))",
        "numberOfBytes": "32",
        "value": "t_mapping(t_uint256,t_uint256)"
      },
      "t_mapping(t_bool,t_uint256)": {
        "encoding": "mapping",
        "key": "t_bool",
        "label": "mapping(bool => uint256)",
        "numberOfBytes": "32",
        "value": "t_uint256"
      },
      "t_mapping(t_bytes32,t_struct(RoleData)245_storage)": {
        "encoding": "mapping",
        "key": "t_bytes32",
        "label": "mapping(bytes32 => struct AccessControlUpgradeable.RoleData)",
        "numberOfBytes": "32",
        "value": "t_struct(RoleData)245_storage"
      },
      "t_mapping(t_uint256,t_struct(SynthPriceInPaymentToken)19148_storage)": {
        "encoding": "mapping",
        "key": "t_uint256",
        "label": "mapping(uint256 => struct LongShort.SynthPriceInPaymentToken)",
        "numberOfBytes": "32",
        "value": "t_struct(SynthPriceInPaymentToken)19148_storage"
      },
      "t_mapping(t_uint256,t_uint256)": {
        "encoding": "mapping",
        "key": "t_uint256",
        "label": "mapping(uint256 => uint256)",
        "numberOfBytes": "32",
        "value": "t_uint256"
      },
      "t_mapping(t_uint32,t_address)": {
        "encoding": "mapping",
        "key": "t_uint32",
        "label": "mapping(uint32 => address)",
        "numberOfBytes": "32",
        "value": "t_address"
      },
      "t_mapping(t_uint32,t_bool)": {
        "encoding": "mapping",
        "key": "t_uint32",
        "label": "mapping(uint32 => bool)",
        "numberOfBytes": "32",
        "value": "t_bool"
      },
      "t_mapping(t_uint32,t_int256)": {
        "encoding": "mapping",
        "key": "t_uint32",
        "label": "mapping(uint32 => int256)",
        "numberOfBytes": "32",
        "value": "t_int256"
      },
      "t_mapping(t_uint32,t_mapping(t_address,t_uint256))": {
        "encoding": "mapping",
        "key": "t_uint32",
        "label": "mapping(uint32 => mapping(address => uint256))",
        "numberOfBytes": "32",
        "value": "t_mapping(t_address,t_uint256)"
      },
      "t_mapping(t_uint32,t_mapping(t_bool,t_address))": {
        "encoding": "mapping",
        "key": "t_uint32",
        "label": "mapping(uint32 => mapping(bool => address))",
        "numberOfBytes": "32",
        "value": "t_mapping(t_bool,t_address)"
      },
      "t_mapping(t_uint32,t_mapping(t_bool,t_mapping(t_address,t_struct(UserInteractionInfo)19194_storage)))": {
        "encoding": "mapping",
        "key": "t_uint32",
        "label": "mapping(uint32 => mapping(bool => mapping(address => struct LongShort.UserInteractionInfo)))",
        "numberOfBytes": "32",
        "value": "t_mapping(t_bool,t_mapping(t_address,t_struct(UserInteractionInfo)19194_storage))"
      },
      "t_mapping(t_uint32,t_mapping(t_bool,t_mapping(t_address,t_uint256)))": {
        "encoding": "mapping",
        "key": "t_uint32",
        "label": "mapping(uint32 => mapping(bool => mapping(address => uint256)))",
        "numberOfBytes": "32",
        "value": "t_mapping(t_bool,t_mapping(t_address,t_uint256))"
      },
      "t_mapping(t_uint32,t_mapping(t_bool,t_mapping(t_uint256,t_uint256)))": {
        "encoding": "mapping",
        "key": "t_uint32",
        "label": "mapping(uint32 => mapping(bool => mapping(uint256 => uint256)))",
        "numberOfBytes": "32",
        "value": "t_mapping(t_bool,t_mapping(t_uint256,t_uint256))"
      },
      "t_mapping(t_uint32,t_mapping(t_bool,t_uint256))": {
        "encoding": "mapping",
        "key": "t_uint32",
        "label": "mapping(uint32 => mapping(bool => uint256))",
        "numberOfBytes": "32",
        "value": "t_mapping(t_bool,t_uint256)"
      },
      "t_mapping(t_uint32,t_mapping(t_uint256,t_struct(SynthPriceInPaymentToken)19148_storage))": {
        "encoding": "mapping",
        "key": "t_uint32",
        "label": "mapping(uint32 => mapping(uint256 => struct LongShort.SynthPriceInPaymentToken))",
        "numberOfBytes": "32",
        "value": "t_mapping(t_uint256,t_struct(SynthPriceInPaymentToken)19148_storage)"
      },
      "t_mapping(t_uint32,t_struct(MarketSideValueInPaymentToken)19137_storage)": {
        "encoding": "mapping",
        "key": "t_uint32",
        "label": "mapping(uint32 => struct LongShort.MarketSideValueInPaymentToken)",
        "numberOfBytes": "32",
        "value": "t_struct(MarketSideValueInPaymentToken)19137_storage"
      },
      "t_mapping(t_uint32,t_uint256)": {
        "encoding": "mapping",
        "key": "t_uint32",
        "label": "mapping(uint32 => uint256)",
        "numberOfBytes": "32",
        "value": "t_uint256"
      },
      "t_struct(MarketSideValueInPaymentToken)19137_storage": {
        "encoding": "inplace",
        "label": "struct LongShort.MarketSideValueInPaymentToken",
        "members": [
          {
            "astId": 19134,
            "contract": "contracts/longShort/LongShortAvalanche.sol:LongShortAvalanche",
            "label": "value_long",
            "offset": 0,
            "slot": "0",
            "type": "t_uint128"
          },
          {
            "astId": 19136,
            "contract": "contracts/longShort/LongShortAvalanche.sol:LongShortAvalanche",
            "label": "value_short",
            "offset": 16,
            "slot": "0",
            "type": "t_uint128"
          }
        ],
        "numberOfBytes": "32"
      },
      "t_struct(RoleData)245_storage": {
        "encoding": "inplace",
        "label": "struct AccessControlUpgradeable.RoleData",
        "members": [
          {
            "astId": 242,
            "contract": "contracts/longShort/LongShortAvalanche.sol:LongShortAvalanche",
            "label": "members",
            "offset": 0,
            "slot": "0",
            "type": "t_mapping(t_address,t_bool)"
          },
          {
            "astId": 244,
            "contract": "contracts/longShort/LongShortAvalanche.sol:LongShortAvalanche",
            "label": "adminRole",
            "offset": 0,
            "slot": "1",
            "type": "t_bytes32"
          }
        ],
        "numberOfBytes": "64"
      },
      "t_struct(SynthPriceInPaymentToken)19148_storage": {
        "encoding": "inplace",
        "label": "struct LongShort.SynthPriceInPaymentToken",
        "members": [
          {
            "astId": 19145,
            "contract": "contracts/longShort/LongShortAvalanche.sol:LongShortAvalanche",
            "label": "price_long",
            "offset": 0,
            "slot": "0",
            "type": "t_uint128"
          },
          {
            "astId": 19147,
            "contract": "contracts/longShort/LongShortAvalanche.sol:LongShortAvalanche",
            "label": "price_short",
            "offset": 16,
            "slot": "0",
            "type": "t_uint128"
          }
        ],
        "numberOfBytes": "32"
      },
      "t_struct(UserInteractionInfo)19194_storage": {
        "encoding": "inplace",
        "label": "struct LongShort.UserInteractionInfo",
        "members": [
          {
            "astId": 19191,
            "contract": "contracts/longShort/LongShortAvalanche.sol:LongShortAvalanche",
            "label": "timestamp",
            "offset": 0,
            "slot": "0",
            "type": "t_uint32"
          },
          {
            "astId": 19193,
            "contract": "contracts/longShort/LongShortAvalanche.sol:LongShortAvalanche",
            "label": "effectiveAmountMinted",
            "offset": 4,
            "slot": "0",
            "type": "t_uint224"
          }
        ],
        "numberOfBytes": "32"
      },
      "t_uint128": {
        "encoding": "inplace",
        "label": "uint128",
        "numberOfBytes": "16"
      },
      "t_uint224": {
        "encoding": "inplace",
        "label": "uint224",
        "numberOfBytes": "28"
      },
      "t_uint256": {
        "encoding": "inplace",
        "label": "uint256",
        "numberOfBytes": "32"
      },
      "t_uint32": {
        "encoding": "inplace",
        "label": "uint32",
        "numberOfBytes": "4"
      }
    }
  }
}