{
  "address": "0x45b24D45e8111680232a617e1C44597981216fEC",
  "abi": [
    {
      "inputs": [],
      "stateMutability": "nonpayable",
      "type": "constructor"
    },
    {
      "anonymous": false,
      "inputs": [
        {
          "indexed": false,
          "internalType": "uint32",
          "name": "marketIndex",
          "type": "uint32"
        },
        {
          "indexed": false,
          "internalType": "uint256",
          "name": "accumulativeFloatIssuanceSnapshotIndex",
          "type": "uint256"
        },
        {
          "indexed": false,
          "internalType": "uint256",
          "name": "accumulativeLong",
          "type": "uint256"
        },
        {
          "indexed": false,
          "internalType": "uint256",
          "name": "accumulativeShort",
          "type": "uint256"
        }
      ],
      "name": "AccumulativeIssuancePerStakedSynthSnapshotCreated",
      "type": "event"
    },
    {
      "anonymous": false,
      "inputs": [
        {
          "indexed": false,
          "internalType": "address",
          "name": "previousAdmin",
          "type": "address"
        },
        {
          "indexed": false,
          "internalType": "address",
          "name": "newAdmin",
          "type": "address"
        }
      ],
      "name": "AdminChanged",
      "type": "event"
    },
    {
      "anonymous": false,
      "inputs": [
        {
          "indexed": false,
          "internalType": "uint32",
          "name": "marketIndex",
          "type": "uint32"
        },
        {
          "indexed": false,
          "internalType": "uint256",
          "name": "balanceIncentiveExponent",
          "type": "uint256"
        },
        {
          "indexed": false,
          "internalType": "int256",
          "name": "balanceIncentiveCurve_equilibriumOffset",
          "type": "int256"
        },
        {
          "indexed": false,
          "internalType": "uint256",
          "name": "safeExponentBitShifting",
          "type": "uint256"
        }
      ],
      "name": "BalanceIncentiveParamsUpdated",
      "type": "event"
    },
    {
      "anonymous": false,
      "inputs": [
        {
          "indexed": true,
          "internalType": "address",
          "name": "beacon",
          "type": "address"
        }
      ],
      "name": "BeaconUpgraded",
      "type": "event"
    },
    {
      "anonymous": false,
      "inputs": [
        {
          "indexed": false,
          "internalType": "address",
          "name": "user",
          "type": "address"
        },
        {
          "indexed": false,
          "internalType": "uint32",
          "name": "marketIndex",
          "type": "uint32"
        },
        {
          "indexed": false,
          "internalType": "uint256",
          "name": "amountFloatMinted",
          "type": "uint256"
        }
      ],
      "name": "FloatMinted",
      "type": "event"
    },
    {
      "anonymous": false,
      "inputs": [
        {
          "indexed": false,
          "internalType": "uint256",
          "name": "floatPercentage",
          "type": "uint256"
        }
      ],
      "name": "FloatPercentageUpdated",
      "type": "event"
    },
    {
      "anonymous": false,
      "inputs": [
        {
          "indexed": false,
          "internalType": "uint32",
          "name": "marketIndex",
          "type": "uint32"
        },
        {
          "indexed": false,
          "internalType": "uint256",
          "name": "exitFee_e18",
          "type": "uint256"
        },
        {
          "indexed": false,
          "internalType": "uint256",
          "name": "period",
          "type": "uint256"
        },
        {
          "indexed": false,
          "internalType": "uint256",
          "name": "multiplier",
          "type": "uint256"
        },
        {
          "indexed": false,
          "internalType": "uint256",
          "name": "balanceIncentiveExponent",
          "type": "uint256"
        },
        {
          "indexed": false,
          "internalType": "int256",
          "name": "balanceIncentiveEquilibriumOffset",
          "type": "int256"
        },
        {
          "indexed": false,
          "internalType": "uint256",
          "name": "safeExponentBitShifting",
          "type": "uint256"
        }
      ],
      "name": "MarketAddedToStaker",
      "type": "event"
    },
    {
      "anonymous": false,
      "inputs": [
        {
          "indexed": false,
          "internalType": "uint32",
          "name": "marketIndex",
          "type": "uint32"
        },
        {
          "indexed": false,
          "internalType": "uint256",
          "name": "period",
          "type": "uint256"
        },
        {
          "indexed": false,
          "internalType": "uint256",
          "name": "multiplier",
          "type": "uint256"
        }
      ],
      "name": "MarketLaunchIncentiveParametersChanges",
      "type": "event"
    },
    {
      "anonymous": false,
      "inputs": [
        {
          "indexed": false,
          "internalType": "address",
          "name": "user",
          "type": "address"
        },
        {
          "indexed": false,
          "internalType": "uint32",
          "name": "marketIndex",
          "type": "uint32"
        },
        {
          "indexed": false,
          "internalType": "uint256",
          "name": "amount",
          "type": "uint256"
        },
        {
          "indexed": false,
          "internalType": "bool",
          "name": "isShiftFromLong",
          "type": "bool"
        },
        {
          "indexed": false,
          "internalType": "uint256",
          "name": "userShiftIndex",
          "type": "uint256"
        }
      ],
      "name": "NextPriceStakeShift",
      "type": "event"
    },
    {
      "anonymous": false,
      "inputs": [
        {
          "indexed": true,
          "internalType": "bytes32",
          "name": "role",
          "type": "bytes32"
        },
        {
          "indexed": true,
          "internalType": "bytes32",
          "name": "previousAdminRole",
          "type": "bytes32"
        },
        {
          "indexed": true,
          "internalType": "bytes32",
          "name": "newAdminRole",
          "type": "bytes32"
        }
      ],
      "name": "RoleAdminChanged",
      "type": "event"
    },
    {
      "anonymous": false,
      "inputs": [
        {
          "indexed": true,
          "internalType": "bytes32",
          "name": "role",
          "type": "bytes32"
        },
        {
          "indexed": true,
          "internalType": "address",
          "name": "account",
          "type": "address"
        },
        {
          "indexed": true,
          "internalType": "address",
          "name": "sender",
          "type": "address"
        }
      ],
      "name": "RoleGranted",
      "type": "event"
    },
    {
      "anonymous": false,
      "inputs": [
        {
          "indexed": true,
          "internalType": "bytes32",
          "name": "role",
          "type": "bytes32"
        },
        {
          "indexed": true,
          "internalType": "address",
          "name": "account",
          "type": "address"
        },
        {
          "indexed": true,
          "internalType": "address",
          "name": "sender",
          "type": "address"
        }
      ],
      "name": "RoleRevoked",
      "type": "event"
    },
    {
      "anonymous": false,
      "inputs": [
        {
          "indexed": false,
          "internalType": "address",
          "name": "user",
          "type": "address"
        },
        {
          "indexed": false,
          "internalType": "address",
          "name": "token",
          "type": "address"
        },
        {
          "indexed": false,
          "internalType": "uint256",
          "name": "amount",
          "type": "uint256"
        },
        {
          "indexed": false,
          "internalType": "uint256",
          "name": "lastMintIndex",
          "type": "uint256"
        }
      ],
      "name": "StakeAdded",
      "type": "event"
    },
    {
      "anonymous": false,
      "inputs": [
        {
          "indexed": false,
          "internalType": "uint32",
          "name": "marketIndex",
          "type": "uint32"
        },
        {
          "indexed": false,
          "internalType": "uint256",
          "name": "stakeWithdralFee",
          "type": "uint256"
        }
      ],
      "name": "StakeWithdrawalFeeUpdated",
      "type": "event"
    },
    {
      "anonymous": false,
      "inputs": [
        {
          "indexed": false,
          "internalType": "address",
          "name": "user",
          "type": "address"
        },
        {
          "indexed": false,
          "internalType": "address",
          "name": "token",
          "type": "address"
        },
        {
          "indexed": false,
          "internalType": "uint256",
          "name": "amount",
          "type": "uint256"
        }
      ],
      "name": "StakeWithdrawn",
      "type": "event"
    },
    {
      "anonymous": false,
      "inputs": [
        {
          "indexed": false,
          "internalType": "address",
          "name": "user",
          "type": "address"
        },
        {
          "indexed": false,
          "internalType": "address",
          "name": "token",
          "type": "address"
        },
        {
          "indexed": false,
          "internalType": "uint256",
          "name": "amount",
          "type": "uint256"
        },
        {
          "indexed": false,
          "internalType": "uint256",
          "name": "amountFees",
          "type": "uint256"
        }
      ],
      "name": "StakeWithdrawnWithFees",
      "type": "event"
    },
    {
      "anonymous": false,
      "inputs": [
        {
          "indexed": false,
          "internalType": "address",
          "name": "admin",
          "type": "address"
        },
        {
          "indexed": false,
          "internalType": "address",
          "name": "floatTreasury",
          "type": "address"
        },
        {
          "indexed": false,
          "internalType": "address",
          "name": "floatCapital",
          "type": "address"
        },
        {
          "indexed": false,
          "internalType": "address",
          "name": "floatToken",
          "type": "address"
        },
        {
          "indexed": false,
          "internalType": "uint256",
          "name": "floatPercentage",
          "type": "uint256"
        }
      ],
      "name": "StakerV1",
      "type": "event"
    },
    {
      "anonymous": false,
      "inputs": [
        {
          "indexed": false,
          "internalType": "uint256",
          "name": "version",
          "type": "uint256"
        }
      ],
      "name": "Upgrade",
      "type": "event"
    },
    {
      "anonymous": false,
      "inputs": [
        {
          "indexed": true,
          "internalType": "address",
          "name": "implementation",
          "type": "address"
        }
      ],
      "name": "Upgraded",
      "type": "event"
    },
    {
      "inputs": [],
      "name": "ACCUMULATIVE_FLT_ISSUANCE_SAFTEY_BIT_SHIFTING",
      "outputs": [
        {
          "internalType": "uint256",
          "name": "",
          "type": "uint256"
        }
      ],
      "stateMutability": "view",
      "type": "function"
    },
    {
      "inputs": [],
      "name": "ADMIN_ROLE",
      "outputs": [
        {
          "internalType": "bytes32",
          "name": "",
          "type": "bytes32"
        }
      ],
      "stateMutability": "view",
      "type": "function"
    },
    {
      "inputs": [],
      "name": "DEFAULT_ADMIN_ROLE",
      "outputs": [
        {
          "internalType": "bytes32",
          "name": "",
          "type": "bytes32"
        }
      ],
      "stateMutability": "view",
      "type": "function"
    },
    {
      "inputs": [],
      "name": "DISCOUNT_ROLE",
      "outputs": [
        {
          "internalType": "bytes32",
          "name": "",
          "type": "bytes32"
        }
      ],
      "stateMutability": "view",
      "type": "function"
    },
    {
      "inputs": [],
      "name": "FLOAT_ISSUANCE_FIXED_DECIMAL",
      "outputs": [
        {
          "internalType": "uint256",
          "name": "",
          "type": "uint256"
        }
      ],
      "stateMutability": "view",
      "type": "function"
    },
    {
      "inputs": [],
      "name": "UPGRADER_ROLE",
      "outputs": [
        {
          "internalType": "bytes32",
          "name": "",
          "type": "bytes32"
        }
      ],
      "stateMutability": "view",
      "type": "function"
    },
    {
      "inputs": [
        {
          "internalType": "uint32",
          "name": "",
          "type": "uint32"
        },
        {
          "internalType": "uint256",
          "name": "",
          "type": "uint256"
        }
      ],
      "name": "accumulativeFloatPerSyntheticTokenSnapshots",
      "outputs": [
        {
          "internalType": "uint32",
          "name": "timestamp",
          "type": "uint32"
        },
        {
          "internalType": "uint112",
          "name": "accumulativeFloatPerSyntheticToken_long",
          "type": "uint112"
        },
        {
          "internalType": "uint112",
          "name": "accumulativeFloatPerSyntheticToken_short",
          "type": "uint112"
        }
      ],
      "stateMutability": "view",
      "type": "function"
    },
    {
      "inputs": [
        {
          "internalType": "uint32",
          "name": "",
          "type": "uint32"
        },
        {
          "internalType": "uint256",
          "name": "",
          "type": "uint256"
        }
      ],
      "name": "accumulativeFloatPerSyntheticTokenSnapshotsLEGACY",
      "outputs": [
        {
          "internalType": "uint256",
          "name": "timestamp",
          "type": "uint256"
        },
        {
          "internalType": "uint256",
          "name": "accumulativeFloatPerSyntheticToken_long",
          "type": "uint256"
        },
        {
          "internalType": "uint256",
          "name": "accumulativeFloatPerSyntheticToken_short",
          "type": "uint256"
        }
      ],
      "stateMutability": "view",
      "type": "function"
    },
    {
      "inputs": [
        {
          "internalType": "uint32",
          "name": "marketIndex",
          "type": "uint32"
        },
        {
          "internalType": "address",
          "name": "longToken",
          "type": "address"
        },
        {
          "internalType": "address",
          "name": "shortToken",
          "type": "address"
        },
        {
          "internalType": "uint256",
          "name": "kInitialMultiplier",
          "type": "uint256"
        },
        {
          "internalType": "uint256",
          "name": "kPeriod",
          "type": "uint256"
        },
        {
          "internalType": "uint256",
          "name": "unstakeFee_e18",
          "type": "uint256"
        },
        {
          "internalType": "uint256",
          "name": "_balanceIncentiveCurve_exponent",
          "type": "uint256"
        },
        {
          "internalType": "int256",
          "name": "_balanceIncentiveCurve_equilibriumOffset",
          "type": "int256"
        }
      ],
      "name": "addNewStakingFund",
      "outputs": [],
      "stateMutability": "nonpayable",
      "type": "function"
    },
    {
      "inputs": [
        {
          "internalType": "uint32",
          "name": "",
          "type": "uint32"
        }
      ],
      "name": "balanceIncentiveCurve_equilibriumOffset",
      "outputs": [
        {
          "internalType": "int256",
          "name": "",
          "type": "int256"
        }
      ],
      "stateMutability": "view",
      "type": "function"
    },
    {
      "inputs": [
        {
          "internalType": "uint32",
          "name": "",
          "type": "uint32"
        }
      ],
      "name": "balanceIncentiveCurve_exponent",
      "outputs": [
        {
          "internalType": "uint256",
          "name": "",
          "type": "uint256"
        }
      ],
      "stateMutability": "view",
      "type": "function"
    },
    {
      "inputs": [
        {
          "internalType": "uint32",
          "name": "marketIndex",
          "type": "uint32"
        },
        {
          "internalType": "uint256",
          "name": "_balanceIncentiveCurve_exponent",
          "type": "uint256"
        },
        {
          "internalType": "int256",
          "name": "_balanceIncentiveCurve_equilibriumOffset",
          "type": "int256"
        },
        {
          "internalType": "uint256",
          "name": "_safeExponentBitShifting",
          "type": "uint256"
        }
      ],
      "name": "changeBalanceIncentiveParameters",
      "outputs": [],
      "stateMutability": "nonpayable",
      "type": "function"
    },
    {
      "inputs": [
        {
          "internalType": "uint256",
          "name": "newFloatPercentage",
          "type": "uint256"
        }
      ],
      "name": "changeFloatPercentage",
      "outputs": [],
      "stateMutability": "nonpayable",
      "type": "function"
    },
    {
      "inputs": [
        {
          "internalType": "uint32",
          "name": "marketIndex",
          "type": "uint32"
        },
        {
          "internalType": "uint256",
          "name": "newMarketUnstakeFee_e18",
          "type": "uint256"
        }
      ],
      "name": "changeUnstakeFee",
      "outputs": [],
      "stateMutability": "nonpayable",
      "type": "function"
    },
    {
      "inputs": [
        {
          "internalType": "uint32[]",
          "name": "marketIndexes",
          "type": "uint32[]"
        }
      ],
      "name": "claimFloatCustom",
      "outputs": [],
      "stateMutability": "nonpayable",
      "type": "function"
    },
    {
      "inputs": [
        {
          "internalType": "uint32[]",
          "name": "marketIndexes",
          "type": "uint32[]"
        },
        {
          "internalType": "address",
          "name": "user",
          "type": "address"
        }
      ],
      "name": "claimFloatCustomFor",
      "outputs": [],
      "stateMutability": "nonpayable",
      "type": "function"
    },
    {
      "inputs": [
        {
          "internalType": "uint32",
          "name": "marketIndex",
          "type": "uint32"
        },
        {
          "internalType": "address",
          "name": "user",
          "type": "address"
        }
      ],
      "name": "fixMissSetUserIndexOfLastClaimedReward",
      "outputs": [],
      "stateMutability": "nonpayable",
      "type": "function"
    },
    {
      "inputs": [],
      "name": "floatCapital",
      "outputs": [
        {
          "internalType": "address",
          "name": "",
          "type": "address"
        }
      ],
      "stateMutability": "view",
      "type": "function"
    },
    {
      "inputs": [],
      "name": "floatPercentage",
      "outputs": [
        {
          "internalType": "uint256",
          "name": "",
          "type": "uint256"
        }
      ],
      "stateMutability": "view",
      "type": "function"
    },
    {
      "inputs": [],
      "name": "floatToken",
      "outputs": [
        {
          "internalType": "address",
          "name": "",
          "type": "address"
        }
      ],
      "stateMutability": "view",
      "type": "function"
    },
    {
      "inputs": [],
      "name": "floatTreasury",
      "outputs": [
        {
          "internalType": "address",
          "name": "",
          "type": "address"
        }
      ],
      "stateMutability": "view",
      "type": "function"
    },
    {
      "inputs": [],
      "name": "gems",
      "outputs": [
        {
          "internalType": "address",
          "name": "",
          "type": "address"
        }
      ],
      "stateMutability": "view",
      "type": "function"
    },
    {
      "inputs": [
        {
          "internalType": "bytes32",
          "name": "role",
          "type": "bytes32"
        }
      ],
      "name": "getRoleAdmin",
      "outputs": [
        {
          "internalType": "bytes32",
          "name": "",
          "type": "bytes32"
        }
      ],
      "stateMutability": "view",
      "type": "function"
    },
    {
      "inputs": [
        {
          "internalType": "bytes32",
          "name": "role",
          "type": "bytes32"
        },
        {
          "internalType": "address",
          "name": "account",
          "type": "address"
        }
      ],
      "name": "grantRole",
      "outputs": [],
      "stateMutability": "nonpayable",
      "type": "function"
    },
    {
      "inputs": [
        {
          "internalType": "bytes32",
          "name": "role",
          "type": "bytes32"
        },
        {
          "internalType": "address",
          "name": "account",
          "type": "address"
        }
      ],
      "name": "hasRole",
      "outputs": [
        {
          "internalType": "bool",
          "name": "",
          "type": "bool"
        }
      ],
      "stateMutability": "view",
      "type": "function"
    },
    {
      "inputs": [
        {
          "internalType": "address",
          "name": "_admin",
          "type": "address"
        },
        {
          "internalType": "address",
          "name": "_longShort",
          "type": "address"
        },
        {
          "internalType": "address",
          "name": "_floatToken",
          "type": "address"
        },
        {
          "internalType": "address",
          "name": "_floatTreasury",
          "type": "address"
        },
        {
          "internalType": "address",
          "name": "_floatCapital",
          "type": "address"
        },
        {
          "internalType": "address",
          "name": "_discountSigner",
          "type": "address"
        },
        {
          "internalType": "uint256",
          "name": "_floatPercentage",
          "type": "uint256"
        },
        {
          "internalType": "address",
          "name": "_gems",
          "type": "address"
        }
      ],
      "name": "initialize",
      "outputs": [],
      "stateMutability": "nonpayable",
      "type": "function"
    },
    {
      "inputs": [
        {
          "internalType": "uint32",
          "name": "",
          "type": "uint32"
        }
      ],
      "name": "latestRewardIndex",
      "outputs": [
        {
          "internalType": "uint256",
          "name": "",
          "type": "uint256"
        }
      ],
      "stateMutability": "view",
      "type": "function"
    },
    {
      "inputs": [],
      "name": "longShort",
      "outputs": [
        {
          "internalType": "address",
          "name": "",
          "type": "address"
        }
      ],
      "stateMutability": "view",
      "type": "function"
    },
    {
      "inputs": [
        {
          "internalType": "address",
          "name": "",
          "type": "address"
        }
      ],
      "name": "marketIndexOfToken",
      "outputs": [
        {
          "internalType": "uint32",
          "name": "",
          "type": "uint32"
        }
      ],
      "stateMutability": "view",
      "type": "function"
    },
    {
      "inputs": [
        {
          "internalType": "uint32",
          "name": "",
          "type": "uint32"
        }
      ],
      "name": "marketLaunchIncentive_multipliers",
      "outputs": [
        {
          "internalType": "uint256",
          "name": "",
          "type": "uint256"
        }
      ],
      "stateMutability": "view",
      "type": "function"
    },
    {
      "inputs": [
        {
          "internalType": "uint32",
          "name": "",
          "type": "uint32"
        }
      ],
      "name": "marketLaunchIncentive_period",
      "outputs": [
        {
          "internalType": "uint256",
          "name": "",
          "type": "uint256"
        }
      ],
      "stateMutability": "view",
      "type": "function"
    },
    {
      "inputs": [
        {
          "internalType": "uint32",
          "name": "",
          "type": "uint32"
        }
      ],
      "name": "marketUnstakeFee_e18",
      "outputs": [
        {
          "internalType": "uint256",
          "name": "",
          "type": "uint256"
        }
      ],
      "stateMutability": "view",
      "type": "function"
    },
    {
      "inputs": [
        {
          "internalType": "uint32",
          "name": "marketIndex",
          "type": "uint32"
        },
        {
          "internalType": "uint256",
          "name": "amount",
          "type": "uint256"
        },
        {
          "internalType": "bool",
          "name": "isLong",
          "type": "bool"
        },
        {
          "internalType": "address",
          "name": "user",
          "type": "address"
        }
      ],
      "name": "mintAndStakeNextPrice",
      "outputs": [],
      "stateMutability": "nonpayable",
      "type": "function"
    },
    {
      "inputs": [
        {
          "internalType": "uint32",
          "name": "marketIndex",
          "type": "uint32"
        },
        {
          "internalType": "uint256",
          "name": "marketUpdateIndex",
          "type": "uint256"
        },
        {
          "internalType": "uint256",
          "name": "longPrice",
          "type": "uint256"
        },
        {
          "internalType": "uint256",
          "name": "shortPrice",
          "type": "uint256"
        },
        {
          "internalType": "uint256",
          "name": "longValue",
          "type": "uint256"
        },
        {
          "internalType": "uint256",
          "name": "shortValue",
          "type": "uint256"
        }
      ],
      "name": "pushUpdatedMarketPricesToUpdateFloatIssuanceCalculations",
      "outputs": [],
      "stateMutability": "nonpayable",
      "type": "function"
    },
    {
      "inputs": [
        {
          "internalType": "bytes32",
          "name": "role",
          "type": "bytes32"
        },
        {
          "internalType": "address",
          "name": "account",
          "type": "address"
        }
      ],
      "name": "renounceRole",
      "outputs": [],
      "stateMutability": "nonpayable",
      "type": "function"
    },
    {
      "inputs": [
        {
          "internalType": "bytes32",
          "name": "role",
          "type": "bytes32"
        },
        {
          "internalType": "address",
          "name": "account",
          "type": "address"
        }
      ],
      "name": "revokeRole",
      "outputs": [],
      "stateMutability": "nonpayable",
      "type": "function"
    },
    {
      "inputs": [
        {
          "internalType": "uint32",
          "name": "",
          "type": "uint32"
        }
      ],
      "name": "safeExponentBitShifting",
      "outputs": [
        {
          "internalType": "uint256",
          "name": "",
          "type": "uint256"
        }
      ],
      "stateMutability": "view",
      "type": "function"
    },
    {
      "inputs": [
        {
          "internalType": "uint32",
          "name": "marketIndex",
          "type": "uint32"
        },
        {
          "internalType": "uint256",
          "name": "updateIndex",
          "type": "uint256"
        }
      ],
      "name": "safe_getUpdateTimestamp",
      "outputs": [
        {
          "internalType": "uint256",
          "name": "timestamp",
          "type": "uint256"
        }
      ],
      "stateMutability": "view",
      "type": "function"
    },
    {
      "inputs": [
        {
          "internalType": "uint256",
          "name": "amountSyntheticTokensToShift",
          "type": "uint256"
        },
        {
          "internalType": "uint32",
          "name": "marketIndex",
          "type": "uint32"
        },
        {
          "internalType": "bool",
          "name": "isShiftFromLong",
          "type": "bool"
        }
      ],
      "name": "shiftTokens",
      "outputs": [],
      "stateMutability": "nonpayable",
      "type": "function"
    },
    {
      "inputs": [
        {
          "internalType": "address",
          "name": "from",
          "type": "address"
        },
        {
          "internalType": "uint256",
          "name": "amount",
          "type": "uint256"
        }
      ],
      "name": "stakeFromUser",
      "outputs": [],
      "stateMutability": "nonpayable",
      "type": "function"
    },
    {
      "inputs": [
        {
          "internalType": "bytes4",
          "name": "interfaceId",
          "type": "bytes4"
        }
      ],
      "name": "supportsInterface",
      "outputs": [
        {
          "internalType": "bool",
          "name": "",
          "type": "bool"
        }
      ],
      "stateMutability": "view",
      "type": "function"
    },
    {
      "inputs": [
        {
          "internalType": "uint32",
          "name": "",
          "type": "uint32"
        },
        {
          "internalType": "bool",
          "name": "",
          "type": "bool"
        }
      ],
      "name": "syntheticTokens",
      "outputs": [
        {
          "internalType": "address",
          "name": "",
          "type": "address"
        }
      ],
      "stateMutability": "view",
      "type": "function"
    },
    {
      "inputs": [
        {
          "internalType": "address",
          "name": "newImplementation",
          "type": "address"
        }
      ],
      "name": "upgradeTo",
      "outputs": [],
      "stateMutability": "nonpayable",
      "type": "function"
    },
    {
      "inputs": [
        {
          "internalType": "address",
          "name": "newImplementation",
          "type": "address"
        },
        {
          "internalType": "bytes",
          "name": "data",
          "type": "bytes"
        }
      ],
      "name": "upgradeToAndCall",
      "outputs": [],
      "stateMutability": "payable",
      "type": "function"
    },
    {
      "inputs": [],
      "name": "upgradeToUsingCompactStakerState",
      "outputs": [],
      "stateMutability": "nonpayable",
      "type": "function"
    },
    {
      "inputs": [
        {
          "internalType": "address",
          "name": "",
          "type": "address"
        },
        {
          "internalType": "address",
          "name": "",
          "type": "address"
        }
      ],
      "name": "userAmountStaked",
      "outputs": [
        {
          "internalType": "uint256",
          "name": "",
          "type": "uint256"
        }
      ],
      "stateMutability": "view",
      "type": "function"
    },
    {
      "inputs": [
        {
          "internalType": "uint32",
          "name": "",
          "type": "uint32"
        },
        {
          "internalType": "address",
          "name": "",
          "type": "address"
        }
      ],
      "name": "userIndexOfLastClaimedReward",
      "outputs": [
        {
          "internalType": "uint256",
          "name": "",
          "type": "uint256"
        }
      ],
      "stateMutability": "view",
      "type": "function"
    },
    {
      "inputs": [
        {
          "internalType": "uint32",
          "name": "",
          "type": "uint32"
        },
        {
          "internalType": "bool",
          "name": "",
          "type": "bool"
        },
        {
          "internalType": "address",
          "name": "",
          "type": "address"
        }
      ],
      "name": "userNextPrice_amountStakedSyntheticToken_toShiftAwayFrom",
      "outputs": [
        {
          "internalType": "uint256",
          "name": "",
          "type": "uint256"
        }
      ],
      "stateMutability": "view",
      "type": "function"
    },
    {
      "inputs": [
        {
          "internalType": "uint32",
          "name": "",
          "type": "uint32"
        },
        {
          "internalType": "bool",
          "name": "",
          "type": "bool"
        },
        {
          "internalType": "address",
          "name": "",
          "type": "address"
        }
      ],
      "name": "userNextPrice_paymentToken_depositAmount",
      "outputs": [
        {
          "internalType": "uint256",
          "name": "",
          "type": "uint256"
        }
      ],
      "stateMutability": "view",
      "type": "function"
    },
    {
      "inputs": [
        {
          "internalType": "uint32",
          "name": "",
          "type": "uint32"
        },
        {
          "internalType": "address",
          "name": "",
          "type": "address"
        }
      ],
      "name": "userNextPrice_stakedActionIndex",
      "outputs": [
        {
          "internalType": "uint256",
          "name": "",
          "type": "uint256"
        }
      ],
      "stateMutability": "view",
      "type": "function"
    },
    {
      "inputs": [
        {
          "internalType": "address",
          "name": "",
          "type": "address"
        }
      ],
      "name": "userNonce",
      "outputs": [
        {
          "internalType": "uint32",
          "name": "",
          "type": "uint32"
        }
      ],
      "stateMutability": "view",
      "type": "function"
    },
    {
      "inputs": [
        {
          "internalType": "uint32",
          "name": "marketIndex",
          "type": "uint32"
        },
        {
          "internalType": "bool",
          "name": "isWithdrawFromLong",
          "type": "bool"
        },
        {
          "internalType": "uint256",
          "name": "amount",
          "type": "uint256"
        }
      ],
      "name": "withdraw",
      "outputs": [],
      "stateMutability": "nonpayable",
      "type": "function"
    },
    {
      "inputs": [
        {
          "internalType": "uint32",
          "name": "marketIndex",
          "type": "uint32"
        },
        {
          "internalType": "bool",
          "name": "isWithdrawFromLong",
          "type": "bool"
        }
      ],
      "name": "withdrawAll",
      "outputs": [],
      "stateMutability": "nonpayable",
      "type": "function"
    },
    {
      "inputs": [
        {
          "internalType": "uint32",
          "name": "marketIndex",
          "type": "uint32"
        },
        {
          "internalType": "bool",
          "name": "isWithdrawFromLong",
          "type": "bool"
        },
        {
          "internalType": "uint256",
          "name": "withdrawAmount",
          "type": "uint256"
        },
        {
          "internalType": "uint256",
          "name": "expiry",
          "type": "uint256"
        },
        {
          "internalType": "uint256",
          "name": "nonce",
          "type": "uint256"
        },
        {
          "internalType": "uint256",
          "name": "discountWithdrawFee",
          "type": "uint256"
        },
        {
          "internalType": "uint8",
          "name": "v",
          "type": "uint8"
        },
        {
          "internalType": "bytes32",
          "name": "r",
          "type": "bytes32"
        },
        {
          "internalType": "bytes32",
          "name": "s",
          "type": "bytes32"
        }
      ],
      "name": "withdrawWithVoucher",
      "outputs": [],
      "stateMutability": "nonpayable",
      "type": "function"
    }
  ],
  "transactionHash": "0x6d2617bd706630ae3a11113f355f589b1d2b99944f837f0bcc1fe654dbf290a4",
  "args": [],
  "solcInputHash": "280dbb3f755141b1550ad43383a7dbe9",
  "bytecode": "0x60a0604052306080523480156200001557600080fd5b50600054610100900460ff16620000335760005460ff16156200003d565b6200003d620000e2565b620000a55760405162461bcd60e51b815260206004820152602e60248201527f496e697469616c697a61626c653a20636f6e747261637420697320616c72656160448201526d191e481a5b9a5d1a585b1a5e995960921b606482015260840160405180910390fd5b600054610100900460ff16158015620000c8576000805461ffff19166101011790555b8015620000db576000805461ff00191690555b5062000106565b6000620000fa306200010060201b620026bd1760201c565b15905090565b3b151590565b6080516152e16200013760003960008181610d8a01528181610dca01528181610e530152610e9301526152e16000f3fe6080604052600436106103355760003560e01c80639441752f116101ab578063c2b80072116100f7578063eae5a8d911610095578063f344acc91161006f578063f344acc914610ba3578063f5a2c77b14610bc3578063f72c0d8b14610be3578063f9fe734e14610c1757600080fd5b8063eae5a8d914610b35578063edb010d714610b55578063ef9c305214610b7557600080fd5b8063dc86fe50116100d1578063dc86fe5014610a99578063e39ac04414610ac7578063e68f3dbe14610af5578063e955a34814610b1557600080fd5b8063c2b8007214610a25578063cf62dbe914610a64578063d547741f14610a7957600080fd5b8063b12b25c011610164578063bda69fd81161013e578063bda69fd81461098c578063be751cb7146109ac578063c16199e3146109cc578063c17f8ce9146109ec57600080fd5b8063b12b25c01461091e578063b45e86cf14610933578063ba89f7b81461096c57600080fd5b80639441752f146108285780639e59fd0f14610867578063a217fddf14610887578063a538415c1461089c578063b054c4a1146108bc578063b0956b5f146108fe57600080fd5b80634f1ef2861161028557806375b238fc1161022357806385fcb8e3116101fd57806385fcb8e31461079657806386cbde1f146107c45780638e659c08146107e857806391d148541461080857600080fd5b806375b238fc146107225780637a02db36146107565780637f10bc531461077657600080fd5b80636a5304df1161025f5780636a5304df146106935780636c305055146106c157806372b124da146106e2578063738f4b8e1461070257600080fd5b80634f1ef286146106315780635892457d146106445780635ac76ce11461065a57600080fd5b806329949872116102f257806336568abe116102cc57806336568abe146105355780633659cfe6146105555780633733cf49146105755780633ebff44f146105a957600080fd5b806329949872146104a95780632e04b8e7146104e15780632f2ff15d1461051557600080fd5b806301ffc9a71461033a5780630ca5a0521461036f57806313e8868a1461039157806315b2485c146103cd57806315f2081d14610430578063248a9ca314610479575b600080fd5b34801561034657600080fd5b5061035a610355366004614573565b610c45565b60405190151581526020015b60405180910390f35b34801561037b57600080fd5b5061038f61038a3660046145af565b610c7c565b005b34801561039d57600080fd5b506103bf6103ac3660046145db565b6101306020526000908152604090205481565b604051908152602001610366565b3480156103d957600080fd5b506104156103e83660046145af565b61019260209081526000928352604080842090915290825290208054600182015460029092015490919083565b60408051938452602084019290925290820152606001610366565b34801561043c57600080fd5b5061046461044b366004614614565b6101626020526000908152604090205463ffffffff1681565b60405163ffffffff9091168152602001610366565b34801561048557600080fd5b506103bf61049436600461462f565b60009081526065602052604090206001015490565b3480156104b557600080fd5b5060fe546104c9906001600160a01b031681565b6040516001600160a01b039091168152602001610366565b3480156104ed57600080fd5b506104646104fc366004614614565b6101636020526000908152604090205463ffffffff1681565b34801561052157600080fd5b5061038f610530366004614648565b610cd1565b34801561054157600080fd5b5061038f610550366004614648565b610cfc565b34801561056157600080fd5b5061038f610570366004614614565b610d7f565b34801561058157600080fd5b506103bf7fce9a6d3180818296cf6add4d55c45a6cd9e315597ee1da1e2313c503391736cd81565b3480156105b557600080fd5b506106056105c43660046145af565b61019360209081526000928352604080842090915290825290205463ffffffff8116906001600160701b036401000000008204811691600160901b90041683565b6040805163ffffffff90941684526001600160701b039283166020850152911690820152606001610366565b61038f61063f36600461468a565b610e48565b34801561065057600080fd5b506103bf60fd5481565b34801561066657600080fd5b506103bf61067536600461474c565b6101c060209081526000928352604080842090915290825290205481565b34801561069f57600080fd5b506103bf6106ae3660046145db565b61012e6020526000908152604090205481565b3480156106cd57600080fd5b50610100546104c9906001600160a01b031681565b3480156106ee57600080fd5b5061038f6106fd366004614786565b610efe565b34801561070e57600080fd5b5061038f61071d36600461485e565b611419565b34801561072e57600080fd5b506103bf7fa49807205ce4d355092ef5a8a18f56e8913cf4a201fbe287825b095693c2177581565b34801561076257600080fd5b506103bf6107713660046145af565b6114e7565b34801561078257600080fd5b5061038f61079136600461474c565b611544565b3480156107a257600080fd5b506103bf6107b13660046145db565b6101336020526000908152604090205481565b3480156107d057600080fd5b506103bf6cd73d4c35b9df8aa7d6c3003573602c1b81565b3480156107f457600080fd5b5061038f6108033660046148a0565b6115c7565b34801561081457600080fd5b5061035a610823366004614648565b611748565b34801561083457600080fd5b506103bf610843366004614930565b6101f060209081526000938452604080852082529284528284209052825290205481565b34801561087357600080fd5b5061038f61088236600461462f565b611773565b34801561089357600080fd5b506103bf600081565b3480156108a857600080fd5b5061038f6108b7366004614977565b6117ba565b3480156108c857600080fd5b506104c96108d7366004614977565b6101346020908152600092835260408084209091529082529020546001600160a01b031681565b34801561090a57600080fd5b5061038f6109193660046149b0565b6118b1565b34801561092a57600080fd5b5061038f611b99565b34801561093f57600080fd5b506103bf61094e36600461474c565b6101ef60209081526000928352604080842090915290825290205481565b34801561097857600080fd5b5060fb546104c9906001600160a01b031681565b34801561099857600080fd5b5061038f6109a7366004614a23565b611e02565b3480156109b857600080fd5b5061038f6109c7366004614a6f565b611f30565b3480156109d857600080fd5b5060fc546104c9906001600160a01b031681565b3480156109f857600080fd5b506103bf610a07366004614aaa565b6101c160209081526000928352604080842090915290825290205481565b348015610a3157600080fd5b506103bf610a40366004614930565b6101f160209081526000938452604080852082529284528284209052825290205481565b348015610a7057600080fd5b506103bf605081565b348015610a8557600080fd5b5061038f610a94366004614648565b611f98565b348015610aa557600080fd5b506103bf610ab43660046145db565b6101326020526000908152604090205481565b348015610ad357600080fd5b506103bf610ae23660046145db565b6101916020526000908152604090205481565b348015610b0157600080fd5b5061038f610b10366004614ac6565b611fbe565b348015610b2157600080fd5b5061038f610b30366004614ae2565b6121c4565b348015610b4157600080fd5b5060ff546104c9906001600160a01b031681565b348015610b6157600080fd5b5061038f610b70366004614b23565b61220e565b348015610b8157600080fd5b506103bf610b903660046145db565b61012f6020526000908152604090205481565b348015610baf57600080fd5b5061038f610bbe366004614b65565b612597565b348015610bcf57600080fd5b5061038f610bde366004614bb0565b612606565b348015610bef57600080fd5b506103bf7f189ab7a9244df0848122154315af71fe140f3db0fe014031783b0946b8c9d2e381565b348015610c2357600080fd5b506103bf610c323660046145db565b6101316020526000908152604090205481565b60006001600160e01b03198216637965db0b60e01b1480610c7657506301ffc9a760e01b6001600160e01b03198316145b92915050565b610c846126c3565b610c8e82826126ef565b6040805163ffffffff84168152602081018390527feb76801ec75076256b8590fd7c621c2541531e6b9ac568389fa5cdf72e664844910160405180910390a15050565b600082815260656020526040902060010154610ced813361271d565b610cf78383612781565b505050565b6001600160a01b0381163314610d715760405162461bcd60e51b815260206004820152602f60248201527f416363657373436f6e74726f6c3a2063616e206f6e6c792072656e6f756e636560448201526e103937b632b9903337b91039b2b63360891b60648201526084015b60405180910390fd5b610d7b8282612807565b5050565b306001600160a01b037f0000000000000000000000000000000000000000000000000000000000000000161415610dc85760405162461bcd60e51b8152600401610d6890614c01565b7f00000000000000000000000000000000000000000000000000000000000000006001600160a01b0316610dfa61286e565b6001600160a01b031614610e205760405162461bcd60e51b8152600401610d6890614c4d565b610e298161289c565b60408051600080825260208201909252610e45918391906128c7565b50565b306001600160a01b037f0000000000000000000000000000000000000000000000000000000000000000161415610e915760405162461bcd60e51b8152600401610d6890614c01565b7f00000000000000000000000000000000000000000000000000000000000000006001600160a01b0316610ec361286e565b6001600160a01b031614610ee95760405162461bcd60e51b8152600401610d6890614c4d565b610ef28261289c565b610d7b828260016128c7565b610100546040516324b4085360e21b81523360048201819052916001600160a01b0316906392d0214c90602401600060405180830381600087803b158015610f4557600080fd5b505af1158015610f59573d6000803e3d6000fd5b50505050610f65600090565b610f9c5760405162461bcd60e51b8152602060048201526008602482015267111254d05093115160c21b6044820152606401610d68565b60008811610fbc5760405162461bcd60e51b8152600401610d6890614c99565b604080516001600160e01b031960e08d901b166020808301919091528b151560f81b60248301526bffffffffffffffffffffffff193360601b166025830152603982018b9052605982018a90526079820189905260998083018990528351808403909101815260b9830184528051908201207f19457468657265756d205369676e6564204d6573736167653a0a33320000000060d984015260f5808401919091528351808403909101815261011590920190925280519101206000906001906040805160008152602081018083529290925260ff881690820152606081018690526080810185905260a0016020604051602081039080840390855afa1580156110c9573d6000803e3d6000fd5b5050506020604051035190506110ff7fce9a6d3180818296cf6add4d55c45a6cd9e315597ee1da1e2313c503391736cd82611748565b508742106111405760405162461bcd60e51b815260206004820152600e60248201526d18dbdd5c1bdb88195e1c1a5c995960921b6044820152606401610d68565b336000908152610163602052604090205463ffffffff1687146111955760405162461bcd60e51b815260206004820152600d60248201526c696e76616c6964206e6f6e636560981b6044820152606401610d68565b63ffffffff8b166000908152610130602052604090205486106111ed5760405162461bcd60e51b815260206004820152601060248201526f62616420646973636f756e742066656560801b6044820152606401610d68565b336000908152610163602052604090205461120f9063ffffffff166001614cf5565b33600090815261016360209081526040808320805463ffffffff191663ffffffff958616179055928e16825261013481528282208d15158352905220546001600160a01b03166112618c8c8c84612a0b565b6000670de0b6b3a7640000611276898d614d1d565b6112809190614d52565b60fc5460405163a9059cbb60e01b81526001600160a01b0391821660048201526024810183905291925083169063a9059cbb906044016020604051808303816000875af11580156112d5573d6000803e3d6000fd5b505050506040513d601f19601f820116820180604052508101906112f99190614d66565b506001600160a01b03821663a9059cbb33611314848f614d83565b6040516001600160e01b031960e085901b1681526001600160a01b03909216600483015260248201526044016020604051808303816000875af115801561135f573d6000803e3d6000fd5b505050506040513d601f19601f820116820180604052508101906113839190614d66565b50604080513381526001600160a01b03841660208201529081018c90527fb7c918e0e249f999e965cafeb6c664271b3f4317d296461500e71da39f0cbda39060600160405180910390a17f51166d74b9041059d05669e5c6db433bc09909bd98b6014d1f4f29a9812ee0fd33838d846040516114029493929190614d9a565b60405180910390a150505050505050505050505050565b610100546040516324b4085360e21b81523360048201819052916001600160a01b0316906392d0214c90602401600060405180830381600087803b15801561146057600080fd5b505af1158015611474573d6000803e3d6000fd5b505060fe54604051636c8d2b9760e01b81526001600160a01b039091169250636c8d2b9791506114aa9086908690600401614dc3565b600060405180830381600087803b1580156114c457600080fd5b505af11580156114d8573d6000803e3d6000fd5b50505050610cf7838333612b3d565b63ffffffff80831660009081526101936020908152604080832085845290915290205416611513600090565b15610c765780610c76575063ffffffff91909116600090815261019260209081526040808320938352929052205490565b63ffffffff821660008181526101ef602090815260408083206001600160a01b038616808552908352818420549484526101c083528184209084529091529020548110801561159257508015155b15610cf75763ffffffff9290921660009081526101c0602090815260408083206001600160a01b039490941683529290522055565b6115d088612c2c565b6001600160a01b038816158015906115f057506001600160a01b03871615155b801561160457506001600160a01b03861615155b801561161857506001600160a01b03851615155b801561162c57506001600160a01b03841615155b801561164057506001600160a01b03811615155b801561164b57508115155b61165457600080fd5b60fb80546001600160a01b03199081166001600160a01b038781169190911790925560fc8054821688841617905560fe805482168a841617905560ff8054821689841617905561010080549091169183169190911790556116d57fce9a6d3180818296cf6add4d55c45a6cd9e315597ee1da1e2313c503391736cd84612cfe565b6116de82612d08565b604080516001600160a01b03808b1682528088166020830152808716928201929092529087166060820152608081018390527faf92ca815edd9a90dc4aa1dfc722fb1624d5b5f914b25ae3cf979ce6600f0a969060a0015b60405180910390a15050505050505050565b60009182526065602090815260408084206001600160a01b0393909316845291905290205460ff1690565b61177b6126c3565b61178481612d08565b6040518181527f062ffcd555faf2b2c81f26010ee6db2e23106941bfed5ae979abd111975d815d9060200160405180910390a150565b60fe546040516305c8146f60e01b815263ffffffff841660048201526001600160a01b03909116906305c8146f90602401600060405180830381600087803b15801561180557600080fd5b505af1158015611819573d6000803e3d6000fd5b505050506118278233612d2e565b63ffffffff8216600081815261013460209081526040808320851515808552908352818420546001600160a01b03168085526101c184528285203380875281865284872080549888526101f087528588209488529386528487209087528552929094205491909252908190559091906118aa85846118a58486614d83565b612da0565b5050505050565b6118b9612fe5565b670de0b6b3a764000085101561191c5760405162461bcd60e51b815260206004820152602260248201527f6b496e697469616c4d756c7469706c696572206d757374206265203e3d203165604482015261062760f31b6064820152608401610d68565b6000603290508861016260008a6001600160a01b03166001600160a01b0316815260200190815260200160002060006101000a81548163ffffffff021916908363ffffffff160217905550886101626000896001600160a01b03166001600160a01b0316815260200190815260200160002060006101000a81548163ffffffff021916908363ffffffff1602179055504261019360008b63ffffffff1663ffffffff168152602001908152602001600020600080815260200190815260200160002060000160006101000a81548163ffffffff021916908363ffffffff1602179055508761013460008b63ffffffff1663ffffffff1681526020019081526020016000206000600115151515815260200190815260200160002060006101000a8154816001600160a01b0302191690836001600160a01b031602179055508661013460008b63ffffffff1663ffffffff16815260200190815260200160002060008015151515815260200190815260200160002060006101000a8154816001600160a01b0302191690836001600160a01b03160217905550611ac08984848461302f565b60009450670de0b6b3a76400009550611ad989856126ef565b6040805163ffffffff8b16815260208101869052908101869052606081018790526080810184905260a0810183905260c081018290527fe0bc2edbe91b35919ee6608af52675476a1cb964af5d671c9e2c018d3cae98919060e00160405180910390a16040805163ffffffff8b16815260006020820181905291810182905260608101919091527f65663e89e16ccfe470dd659bacdf6fddae8185e108d00bc980d34be7e86466d0906080015b60405180910390a1505050505050505050565b600080527f486ff8510ed3a8bd8fa99e6b19b446e53008986cfe7e8b76d7459f84f14d24746020527ff880f059d311db1b4e72591e87305db7c75048ef85843391c5a8998da16675b45463ffffffff16611dcc5760fe5460408051630c6c321960e31b815290516000926001600160a01b03169163636190c89160048083019260209291908290030181865afa158015611c37573d6000803e3d6000fd5b505050506040513d601f19601f82011682018060405250810190611c5b9190614e0e565b63ffffffff16905060015b818163ffffffff1611611dc95763ffffffff8181166000818152610192602090815260408083208380528083528184205485855261019384528285208580528452828520805463ffffffff191691881691909117905593835261019182528083205481516060810183528185528584529184208054909616825292839052928152600193909301549092820190611cff9060501c6132ca565b6001600160701b0316815263ffffffff8416600090815261019260209081526040808320868452825290912060020154910190611d3e9060501c6132ca565b6001600160701b0390811690915263ffffffff80851660009081526101936020908152604080832096835295815290859020845181549286015195909601518416600160901b026001600160901b0395909416640100000000026001600160901b03199092169590921694909417939093179190911617905580611dc181614e2b565b915050611c66565b50505b604051600181527f7f8b9abe2c2fb85d0402e1c78c31e287c70cac837029836df3d5c6351033829b9060200160405180910390a1565b611e0a612fe5565b600080611e2588611e1c60018a614d83565b88888888613337565b9150915060405180606001604052804263ffffffff168152602001611e4d605085901c6132ca565b6001600160701b03168152602001611e68605084901c6132ca565b6001600160701b0390811690915263ffffffff8a81166000818152610193602090815260408083208e845282528083208751815489850151998401518916600160901b026001600160901b039a909916640100000000026001600160901b031990911691909716179590951796909616949094179092558082526101918352908390208a90558251908152908101899052908101839052606081018290527f65663e89e16ccfe470dd659bacdf6fddae8185e108d00bc980d34be7e86466d090608001611736565b611f386126c3565b611f448484848461302f565b6040805163ffffffff8616815260208101859052908101839052606081018290527f940844064f9f8938ffe6a879f6143788f9f7e81daf872fee4fe2387b7cf9448d9060800160405180910390a150505050565b600082815260656020526040902060010154611fb4813361271d565b610cf78383612807565b33611fc8816133ef565b610100546040516324b4085360e21b81526001600160a01b038086166004830152859216906392d0214c90602401600060405180830381600087803b15801561201057600080fd5b505af1158015612024573d6000803e3d6000fd5b50505050600083116120845760405162461bcd60e51b815260206004820152602360248201527f5374616b6520616d6f756e74206d75737420626520677265617465722074686160448201526206e20360ec1b6064820152608401610d68565b3360009081526101626020526040908190205460fe5491516305c8146f60e01b815263ffffffff90911660048201819052916001600160a01b0316906305c8146f90602401600060405180830381600087803b1580156120e357600080fd5b505af11580156120f7573d6000803e3d6000fd5b50505050612105818661344d565b63ffffffff8116600090815261019160209081526040808320543384526101c183528184206001600160a01b038a168552909252822080549192879261214c908490614e4f565b909155505063ffffffff821660009081526101c0602090815260408083206001600160a01b038a16845290915290819020829055517fef7c8dfef14cbefdf829b8f066b068b677992411137321d64b3ed4538c2b3637906121b4908890339089908690614d9a565b60405180910390a1505050505050565b63ffffffff831660009081526101346020908152604080832085151584529091529020546001600160a01b03166121fd84848484612a0b565b612208848284612da0565b50505050565b813361221a828261344d565b610100546040516324b4085360e21b81523360048201819052916001600160a01b0316906392d0214c90602401600060405180830381600087803b15801561226157600080fd5b505af1158015612275573d6000803e3d6000fd5b50505050600086116122bb5760405162461bcd60e51b815260206004820152600f60248201526e2737903d32b9379039b434b33a399760891b6044820152606401610d68565b60fe5460405163113997df60e01b815233600482015263ffffffff8716602482015285151560448201526001600160a01b039091169063113997df90606401600060405180830381600087803b15801561231457600080fd5b505af1158015612328573d6000803e3d6000fd5b505060fe54604051639cb7172560e01b815233600482015263ffffffff89166024820152871560448201526001600160a01b039091169250639cb717259150606401600060405180830381600087803b15801561238457600080fd5b505af1158015612398573d6000803e3d6000fd5b5050505063ffffffff8516600081815261013460209081526040808320881515808552908352818420549484526101f0835281842090845282528083203384529091528120546001600160a01b03909216916123f49089614e4f565b6001600160a01b03831660009081526101c16020908152604080832033845290915290205490915081111561246b5760405162461bcd60e51b815260206004820152601a60248201527f4e6f7420656e6f75676820746f6b656e7320746f2073686966740000000000006044820152606401610d68565b60fe546040516371fd962360e01b815263ffffffff89166004820152602481018a905287151560448201526001600160a01b03909116906371fd962390606401600060405180830381600087803b1580156124c557600080fd5b505af11580156124d9573d6000803e3d6000fd5b5050505063ffffffff871660008181526101f0602090815260408083208a1515845282528083203384528252808320859055928252610191905290812054612522906001614e4f565b63ffffffff891660008181526101ef6020908152604080832033808552908352928190208590558051928352908201929092529081018b90528815156060820152608081018290529091507f1393b60b20fc61ac59730bbda202288e21de9c963502cfe81fcb843b427d46e29060a001611b86565b60fe54604051636c8d2b9760e01b81526001600160a01b0390911690636c8d2b97906125c99086908690600401614dc3565b600060405180830381600087803b1580156125e357600080fd5b505af11580156125f7573d6000803e3d6000fd5b50505050610cf7838383612b3d565b61260e612fe5565b838161261a828261344d565b63ffffffff861660009081526101f160209081526040808320871515845282528083206001600160a01b03871684529091528120805487929061265e908490614e4f565b909155505063ffffffff861660009081526101916020526040902054612685906001614e4f565b63ffffffff90961660009081526101ef602090815260408083206001600160a01b039096168352949052929092209490945550505050565b3b151590565b6126ed7fa49807205ce4d355092ef5a8a18f56e8913cf4a201fbe287825b095693c217753361271d565b565b66b1a2bc2ec5000081111561270357600080fd5b63ffffffff90911660009081526101306020526040902055565b6127278282611748565b610d7b5761273f816001600160a01b031660146134d1565b61274a8360206134d1565b60405160200161275b929190614e93565b60408051601f198184030181529082905262461bcd60e51b8252610d6891600401614f08565b61278b8282611748565b610d7b5760008281526065602090815260408083206001600160a01b03851684529091529020805460ff191660011790556127c33390565b6001600160a01b0316816001600160a01b0316837f2f8788117e7eff1d82e926ec794901d17c78024a50270940304540a733656f0d60405160405180910390a45050565b6128118282611748565b15610d7b5760008281526065602090815260408083206001600160a01b0385168085529252808320805460ff1916905551339285917ff6391f5c32d9c69d2a47ea670b442974b53935d1edc7fd64eb21e047a839171b9190a45050565b7f360894a13ba1a3210667c828492db98dca3e2076cc3735a920a3ca505d382bbc546001600160a01b031690565b7f189ab7a9244df0848122154315af71fe140f3db0fe014031783b0946b8c9d2e3610d7b813361271d565b60006128d161286e565b90506128dc84613674565b6000835111806128e95750815b156128fa576128f88484613719565b505b7f4910fdfa16fed3260ed0e7147f7cc6da11a60208b5b9406d12a635614ffd9143805460ff166118aa57805460ff191660011781556040516001600160a01b038316602482015261297990869060440160408051601f198184030181529190526020810180516001600160e01b0316631b2ce7f360e11b179052613719565b50805460ff1916815561298a61286e565b6001600160a01b0316826001600160a01b031614612a025760405162461bcd60e51b815260206004820152602f60248201527f45524331393637557067726164653a207570677261646520627265616b73206660448201526e75727468657220757067726164657360881b6064820152608401610d68565b6118aa85613804565b60fe546040516305c8146f60e01b815263ffffffff861660048201526001600160a01b03909116906305c8146f90602401600060405180830381600087803b158015612a5657600080fd5b505af1158015612a6a573d6000803e3d6000fd5b50505050612a788433612d2e565b6001600160a01b03811660009081526101c160209081526040808320338085529083528184205463ffffffff891685526101f0845282852088151586528452828520918552925290912054838101821015612b0e5760405162461bcd60e51b81526020600482015260166024820152756e6f7420656e6f75676820746f20776974686472617760501b6044820152606401610d68565b506001600160a01b0390911660009081526101c160209081526040808320338452909152902091900390555050565b600082815b81811015612c1b576000612b7c878784818110612b6157612b61614f3b565b9050602002016020810190612b7691906145db565b86613844565b90508015612c0857612b8e8185614e4f565b93507f2f0b57f663333228518fca119813fe0f6daeb5f19d087965f56b45fecf2d520585888885818110612bc457612bc4614f3b565b9050602002016020810190612bd991906145db565b604080516001600160a01b03909316835263ffffffff9091166020830152810183905260600160405180910390a15b5080612c1381614f51565b915050612b42565b5081156118aa576118aa8383613eb5565b600054610100900460ff16612c475760005460ff1615612c4b565b303b155b612cae5760405162461bcd60e51b815260206004820152602e60248201527f496e697469616c697a61626c653a20636f6e747261637420697320616c72656160448201526d191e481a5b9a5d1a585b1a5e995960921b6064820152608401610d68565b600054610100900460ff16158015612cd0576000805461ffff19166101011790555b612cd8613fb9565b612ce0613ff8565b612ce98261401f565b8015610d7b576000805461ff00191690555050565b610d7b8282612781565b670de0b6b3a76400008111158015612d205750600081115b612d2957600080fd5b60fd55565b6000612d3a8383613844565b90508015610cf757612d4c8282613eb5565b604080516001600160a01b038416815263ffffffff851660208201529081018290527f2f0b57f663333228518fca119813fe0f6daeb5f19d087965f56b45fecf2d52059060600160405180910390a1505050565b610100546040516324b4085360e21b81523360048201819052916001600160a01b0316906392d0214c90602401600060405180830381600087803b158015612de757600080fd5b505af1158015612dfb573d6000803e3d6000fd5b5050505060008211612e1f5760405162461bcd60e51b8152600401610d6890614c99565b63ffffffff841660009081526101306020526040812054670de0b6b3a764000090612e4a9085614d1d565b612e549190614d52565b60fc5460405163a9059cbb60e01b81526001600160a01b0391821660048201526024810183905291925085169063a9059cbb906044016020604051808303816000875af1158015612ea9573d6000803e3d6000fd5b505050506040513d601f19601f82011682018060405250810190612ecd9190614d66565b506001600160a01b03841663a9059cbb33612ee88487614d83565b6040516001600160e01b031960e085901b1681526001600160a01b03909216600483015260248201526044016020604051808303816000875af1158015612f33573d6000803e3d6000fd5b505050506040513d601f19601f82011682018060405250810190612f579190614d66565b50604080513381526001600160a01b03861660208201529081018490527fb7c918e0e249f999e965cafeb6c664271b3f4317d296461500e71da39f0cbda39060600160405180910390a17f51166d74b9041059d05669e5c6db433bc09909bd98b6014d1f4f29a9812ee0fd33858584604051612fd69493929190614d9a565b60405180910390a15050505050565b60fe546001600160a01b031633146126ed5760405162461bcd60e51b815260206004820152600d60248201526c1b9bdd08131bdb99d4da1bdc9d609a1b6044820152606401610d68565b670c7d713b49d9ffff198213801561304e5750670c7d713b49da000082125b6130b85760405162461bcd60e51b815260206004820152603560248201527f62616c616e6365496e63656e7469766543757276655f657175696c69627269756044820152746d4f6666736574206f7574206f6620626f756e647360581b6064820152608401610d68565b6000831161311d5760405162461bcd60e51b815260206004820152602c60248201527f62616c616e6365496e63656e7469766543757276655f6578706f6e656e74206f60448201526b7574206f6620626f756e647360a01b6064820152608401610d68565b6064811061317b5760405162461bcd60e51b815260206004820152602560248201527f736166654578706f6e656e744269745368696674696e67206f7574206f6620626044820152646f756e647360d81b6064820152608401610d68565b60fe5460405163aca36d7b60e01b815263ffffffff8616600482015260009182916001600160a01b039091169063aca36d7b906024016040805180830381865afa1580156131cd573d6000803e3d6000fd5b505050506040513d601f19601f820116820180604052508101906131f19190614f83565b915091506000816001600160801b0316836001600160801b03166132159190614e4f565b90508584613225836101f4614d1d565b61323092911c615091565b50606481851c116132935760405162461bcd60e51b815260206004820152602760248201527f626974207368696674696e6720746f6f206c6172676520666f7220746f74616c604482015266081b1bd8dad95960ca1b6064820152608401610d68565b50505063ffffffff909316600090815261013160209081526040808320949094556101328152838220929092556101339091522055565b60006001600160701b038211156133335760405162461bcd60e51b815260206004820152602760248201527f53616665436173743a2076616c756520646f65736e27742066697420696e20316044820152663132206269747360c81b6064820152608401610d68565b5090565b60008060008061334a8a89898989614091565b63ffffffff808d166000908152610193602090815260408083208f8452909152812080549496509294509192613381911642614d83565b905061338d8482614d1d565b82546133b09190640100000000900460501b600160501b600160c01b0316614e4f565b6133ba8483614d1d565b83546133dc9190600160901b900460501b600160501b600160c01b0316614e4f565b9550955050505050965096945050505050565b6001600160a01b0381166000908152610162602052604090205463ffffffff16610e455760405162461bcd60e51b815260206004820152600f60248201526e0dcdee840ecc2d8d2c840e6f2dce8d608b1b6044820152606401610d68565b63ffffffff821660008181526101c0602090815260408083206001600160a01b038616808552908352818420548585526101ef8452828520918552908352818420549484526101919092529091205490919082158015906134ad57508083105b806134c2575081158015906134c25750808211155b156118aa576118aa8585612d2e565b606060006134e0836002614d1d565b6134eb906002614e4f565b67ffffffffffffffff81111561350357613503614674565b6040519080825280601f01601f19166020018201604052801561352d576020820181803683370190505b509050600360fc1b8160008151811061354857613548614f3b565b60200101906001600160f81b031916908160001a905350600f60fb1b8160018151811061357757613577614f3b565b60200101906001600160f81b031916908160001a905350600061359b846002614d1d565b6135a6906001614e4f565b90505b600181111561361e576f181899199a1a9b1b9c1cb0b131b232b360811b85600f16601081106135da576135da614f3b565b1a60f81b8282815181106135f0576135f0614f3b565b60200101906001600160f81b031916908160001a90535060049490941c936136178161509d565b90506135a9565b50831561366d5760405162461bcd60e51b815260206004820181905260248201527f537472696e67733a20686578206c656e67746820696e73756666696369656e746044820152606401610d68565b9392505050565b803b6136d85760405162461bcd60e51b815260206004820152602d60248201527f455243313936373a206e657720696d706c656d656e746174696f6e206973206e60448201526c1bdd08184818dbdb9d1c9858dd609a1b6064820152608401610d68565b7f360894a13ba1a3210667c828492db98dca3e2076cc3735a920a3ca505d382bbc80546001600160a01b0319166001600160a01b0392909216919091179055565b6060823b6137785760405162461bcd60e51b815260206004820152602660248201527f416464726573733a2064656c65676174652063616c6c20746f206e6f6e2d636f6044820152651b9d1c9858dd60d21b6064820152608401610d68565b600080846001600160a01b03168460405161379391906150b4565b600060405180830381855af49150503d80600081146137ce576040519150601f19603f3d011682016040523d82523d6000602084013e6137d3565b606091505b50915091506137fb828260405180606001604052806027815260200161528560279139614335565b95945050505050565b61380d81613674565b6040516001600160a01b038216907fbc7cd75a20ee27fd9adebab32041f755214dbc6bffa90cc0225b39da2e5c2d3b90600090a250565b63ffffffff821660008181526101346020908152604080832060018452825280832054838052818420546001600160a01b039182168086526101c180865284872089851680895290875285882054949093168088529086528487208388528652848720548888526101c0875285882093885292865284872054978752610191909552928520549495929491929091808214156138e95760009650505050505050610c76565b63ffffffff891660009081526101ef602090815260408083206001600160a01b038c16845290915290205480158015906139235750818111155b15613e6e576139358a8686868561436e565b63ffffffff8b1660009081526101f0602090815260408083206001845282528083206001600160a01b038e1684529091529020549098508015613a465760fe54604051630125edfd60e71b815263ffffffff8d1660048201526024810183905260016044820152606481018490526001600160a01b03909116906392f6fe8090608401602060405180830381865afa1580156139d5573d6000803e3d6000fd5b505050506040513d601f19601f820116820180604052508101906139f991906150d0565b613a039086614e4f565b9450613a0f8187614d83565b63ffffffff8c1660009081526101f0602090815260408083206001845282528083206001600160a01b038f16845290915281205595505b5063ffffffff8a1660009081526101f06020908152604080832083805282528083206001600160a01b038d1684529091529020548015613b535760fe54604051630125edfd60e71b815263ffffffff8d1660048201526024810183905260006044820152606481018490526001600160a01b03909116906392f6fe8090608401602060405180830381865afa158015613ae3573d6000803e3d6000fd5b505050506040513d601f19601f82011682018060405250810190613b0791906150d0565b613b119087614e4f565b9550613b1d8186614d83565b63ffffffff8c1660009081526101f06020908152604080832083805282528083206001600160a01b038f16845290915281205594505b5063ffffffff8a1660009081526101f1602090815260408083206001845282528083206001600160a01b038d1684529091529020548015613c9b5760fe546040516337bf1cf760e01b815263ffffffff8d16600482015260016024820152604481018490526000916001600160a01b0316906337bf1cf790606401602060405180830381865afa158015613beb573d6000803e3d6000fd5b505050506040513d601f19601f82011682018060405250810190613c0f91906150d0565b905080613c2483670de0b6b3a7640000614d1d565b613c2e9190614d52565b613c389088614e4f565b965060006101f160008e63ffffffff1663ffffffff1681526020019081526020016000206000600115151515815260200190815260200160002060008d6001600160a01b03166001600160a01b0316815260200190815260200160002081905550505b5063ffffffff8a1660009081526101f16020908152604080832083805282528083206001600160a01b038d1684529091529020548015613de15760fe546040516337bf1cf760e01b815263ffffffff8d16600482015260006024820181905260448201859052916001600160a01b0316906337bf1cf790606401602060405180830381865afa158015613d32573d6000803e3d6000fd5b505050506040513d601f19601f82011682018060405250810190613d5691906150d0565b905080613d6b83670de0b6b3a7640000614d1d565b613d759190614d52565b613d7f9087614e4f565b955060006101f160008e63ffffffff1663ffffffff16815260200190815260200160002060008015151515815260200190815260200160002060008d6001600160a01b03166001600160a01b0316815260200190815260200160002081905550505b6001600160a01b0380891660009081526101c1602081815260408084208f86168086529083528185208c9055948c1684529181528183209383529290925220859055613e308b8787858761436e565b613e3a908a614e4f565b63ffffffff8c1660009081526101ef602090815260408083206001600160a01b038f1684529091528120559850613e7e9050565b613e7b8a8686868661436e565b97505b5063ffffffff891660009081526101c0602090815260408083206001600160a01b038c168452909152902055505050505092915050565b60ff546040516340c10f1960e01b81526001600160a01b03848116600483015260248201849052909116906340c10f1990604401600060405180830381600087803b158015613f0357600080fd5b505af1158015613f17573d6000803e3d6000fd5b505060ff5460fb5460fd546001600160a01b0392831694506340c10f199350911690670de0b6b3a764000090613f4d9086614d1d565b613f579190614d52565b6040516001600160e01b031960e085901b1681526001600160a01b0390921660048301526024820152604401600060405180830381600087803b158015613f9d57600080fd5b505af1158015613fb1573d6000803e3d6000fd5b505050505050565b600054610100900460ff16613fe05760405162461bcd60e51b8152600401610d68906150e9565b613fe861454c565b613ff061454c565b6126ed61454c565b600054610100900460ff16613fe85760405162461bcd60e51b8152600401610d68906150e9565b6001600160a01b03811661403257600080fd5b61403d600082612cfe565b6140677fa49807205ce4d355092ef5a8a18f56e8913cf4a201fbe287825b095693c2177582612cfe565b610e457f189ab7a9244df0848122154315af71fe140f3db0fe014031783b0946b8c9d2e382612cfe565b600080670de0b6b3a7640000816140a88587614e4f565b63ffffffff8a166000908152610132602052604081205491925090671bc16d674ec80000906140d8908490615134565b6140e291906151b9565b63ffffffff8b166000908152610133602052604090205490915087614108836002615134565b61411290896151e7565b12156142305786821261413857600061412b8a86614d1d565b955095505050505061432b565b63ffffffff8b166000908152610131602052604081205461415a600184614d83565b614164858b6151e7565b61416f92911c615091565b63ffffffff8d1660009081526101316020526040812054919250906141969086851c615091565b90506000816141ad846706f05b59d3b20000614d1d565b6141b79190614d52565b905060006141cd82670de0b6b3a7640000614d83565b9050670de0b6b3a76400008e6141e38a85614d1d565b6141ed9190614d1d565b6141f79190614d52565b670de0b6b3a76400008e61420b8b85614d1d565b6142159190614d1d565b61421f9190614d52565b99509950505050505050505061432b565b8761423a83615226565b12614258576142498a85614d1d565b6000955095505050505061432b565b63ffffffff8b166000908152610131602052604081205461427a600184614d83565b614284858c615243565b61428f92911c615091565b63ffffffff8d1660009081526101316020526040812054919250906142b69086851c615091565b90506000816142cd846706f05b59d3b20000614d1d565b6142d79190614d52565b905060006142ed82670de0b6b3a7640000614d83565b9050670de0b6b3a76400008e6143038a84614d1d565b61430d9190614d1d565b6143179190614d52565b670de0b6b3a76400008e61420b8b86614d1d565b9550959350505050565b6060831561434457508161366d565b8251156143545782518084602001fd5b8160405162461bcd60e51b8152600401610d689190614f08565b63ffffffff8516600090815261019360209081526040808320848452909152808220848352908220861561446c57805482546001600160701b0364010000000092839004811692909104166143c1600090565b1561442557816143f65763ffffffff8a166000908152610192602090815260408083208a845290915290206001015460501c91505b80614425575063ffffffff891660009081526101926020908152604080832088845290915290206001015460501c5b600060506144338484614d83565b901b90506cd73d4c35b9df8aa7d6c3003573602c1b6144528b83614d1d565b61445c9190614d52565b6144669087614e4f565b95505050505b851561454157805482546001600160701b03600160901b9283900481169290910416614496600090565b156144fa57816144cb5763ffffffff8a166000908152610192602090815260408083208a845290915290206002015460501c91505b806144fa575063ffffffff891660009081526101926020908152604080832088845290915290206002015460501c5b600060506145088484614d83565b901b90506cd73d4c35b9df8aa7d6c3003573602c1b6145278a83614d1d565b6145319190614d52565b61453b9087614e4f565b95505050505b505095945050505050565b600054610100900460ff166126ed5760405162461bcd60e51b8152600401610d68906150e9565b60006020828403121561458557600080fd5b81356001600160e01b03198116811461366d57600080fd5b63ffffffff81168114610e4557600080fd5b600080604083850312156145c257600080fd5b82356145cd8161459d565b946020939093013593505050565b6000602082840312156145ed57600080fd5b813561366d8161459d565b80356001600160a01b038116811461460f57600080fd5b919050565b60006020828403121561462657600080fd5b61366d826145f8565b60006020828403121561464157600080fd5b5035919050565b6000806040838503121561465b57600080fd5b8235915061466b602084016145f8565b90509250929050565b634e487b7160e01b600052604160045260246000fd5b6000806040838503121561469d57600080fd5b6146a6836145f8565b9150602083013567ffffffffffffffff808211156146c357600080fd5b818501915085601f8301126146d757600080fd5b8135818111156146e9576146e9614674565b604051601f8201601f19908116603f0116810190838211818310171561471157614711614674565b8160405282815288602084870101111561472a57600080fd5b8260208601602083013760006020848301015280955050505050509250929050565b6000806040838503121561475f57600080fd5b823561476a8161459d565b915061466b602084016145f8565b8015158114610e4557600080fd5b60008060008060008060008060006101208a8c0312156147a557600080fd5b89356147b08161459d565b985060208a01356147c081614778565b975060408a0135965060608a0135955060808a0135945060a08a0135935060c08a013560ff811681146147f257600080fd5b8093505060e08a013591506101008a013590509295985092959850929598565b60008083601f84011261482457600080fd5b50813567ffffffffffffffff81111561483c57600080fd5b6020830191508360208260051b850101111561485757600080fd5b9250929050565b6000806020838503121561487157600080fd5b823567ffffffffffffffff81111561488857600080fd5b61489485828601614812565b90969095509350505050565b600080600080600080600080610100898b0312156148bd57600080fd5b6148c6896145f8565b97506148d460208a016145f8565b96506148e260408a016145f8565b95506148f060608a016145f8565b94506148fe60808a016145f8565b935061490c60a08a016145f8565b925060c0890135915061492160e08a016145f8565b90509295985092959890939650565b60008060006060848603121561494557600080fd5b83356149508161459d565b9250602084013561496081614778565b915061496e604085016145f8565b90509250925092565b6000806040838503121561498a57600080fd5b82356149958161459d565b915060208301356149a581614778565b809150509250929050565b600080600080600080600080610100898b0312156149cd57600080fd5b88356149d88161459d565b97506149e660208a016145f8565b96506149f460408a016145f8565b979a96995096976060810135975060808101359660a0820135965060c0820135955060e0909101359350915050565b60008060008060008060c08789031215614a3c57600080fd5b8635614a478161459d565b9860208801359850604088013597606081013597506080810135965060a00135945092505050565b60008060008060808587031215614a8557600080fd5b8435614a908161459d565b966020860135965060408601359560600135945092505050565b60008060408385031215614abd57600080fd5b61476a836145f8565b60008060408385031215614ad957600080fd5b6145cd836145f8565b600080600060608486031215614af757600080fd5b8335614b028161459d565b92506020840135614b1281614778565b929592945050506040919091013590565b600080600060608486031215614b3857600080fd5b833592506020840135614b4a8161459d565b91506040840135614b5a81614778565b809150509250925092565b600080600060408486031215614b7a57600080fd5b833567ffffffffffffffff811115614b9157600080fd5b614b9d86828701614812565b909450925061496e9050602085016145f8565b60008060008060808587031215614bc657600080fd5b8435614bd18161459d565b9350602085013592506040850135614be881614778565b9150614bf6606086016145f8565b905092959194509250565b6020808252602c908201527f46756e6374696f6e206d7573742062652063616c6c6564207468726f7567682060408201526b19195b1959d85d1958d85b1b60a21b606082015260800190565b6020808252602c908201527f46756e6374696f6e206d7573742062652063616c6c6564207468726f7567682060408201526b6163746976652070726f787960a01b606082015260800190565b60208082526026908201527f576974686472617720616d6f756e74206d75737420626520677265617465722060408201526507468616e20360d41b606082015260800190565b634e487b7160e01b600052601160045260246000fd5b600063ffffffff808316818516808303821115614d1457614d14614cdf565b01949350505050565b6000816000190483118215151615614d3757614d37614cdf565b500290565b634e487b7160e01b600052601260045260246000fd5b600082614d6157614d61614d3c565b500490565b600060208284031215614d7857600080fd5b815161366d81614778565b600082821015614d9557614d95614cdf565b500390565b6001600160a01b0394851681529290931660208301526040820152606081019190915260800190565b60208082528181018390526000908460408401835b86811015614e03578235614deb8161459d565b63ffffffff1682529183019190830190600101614dd8565b509695505050505050565b600060208284031215614e2057600080fd5b815161366d8161459d565b600063ffffffff80831681811415614e4557614e45614cdf565b6001019392505050565b60008219821115614e6257614e62614cdf565b500190565b60005b83811015614e82578181015183820152602001614e6a565b838111156122085750506000910152565b7f416363657373436f6e74726f6c3a206163636f756e7420000000000000000000815260008351614ecb816017850160208801614e67565b7001034b99036b4b9b9b4b733903937b6329607d1b6017918401918201528351614efc816028840160208801614e67565b01602801949350505050565b6020815260008251806020840152614f27816040850160208701614e67565b601f01601f19169190910160400192915050565b634e487b7160e01b600052603260045260246000fd5b6000600019821415614f6557614f65614cdf565b5060010190565b80516001600160801b038116811461460f57600080fd5b60008060408385031215614f9657600080fd5b614f9f83614f6c565b915061466b60208401614f6c565b600181815b80851115614fe8578160001904821115614fce57614fce614cdf565b80851615614fdb57918102915b93841c9390800290614fb2565b509250929050565b600082614fff57506001610c76565b8161500c57506000610c76565b8160018114615022576002811461502c57615048565b6001915050610c76565b60ff84111561503d5761503d614cdf565b50506001821b610c76565b5060208310610133831016604e8410600b841016171561506b575081810a610c76565b6150758383614fad565b806000190482111561508957615089614cdf565b029392505050565b600061366d8383614ff0565b6000816150ac576150ac614cdf565b506000190190565b600082516150c6818460208701614e67565b9190910192915050565b6000602082840312156150e257600080fd5b5051919050565b6020808252602b908201527f496e697469616c697a61626c653a20636f6e7472616374206973206e6f74206960408201526a6e697469616c697a696e6760a81b606082015260800190565b60006001600160ff1b038184138284138082168684048611161561515a5761515a614cdf565b600160ff1b600087128281168783058912161561517957615179614cdf565b6000871292508782058712848416161561519557615195614cdf565b878505871281841616156151ab576151ab614cdf565b505050929093029392505050565b6000826151c8576151c8614d3c565b600160ff1b8214600019841416156151e2576151e2614cdf565b500590565b60008083128015600160ff1b85018412161561520557615205614cdf565b6001600160ff1b038401831381161561522057615220614cdf565b50500390565b6000600160ff1b82141561523c5761523c614cdf565b5060000390565b600080821280156001600160ff1b038490038513161561526557615265614cdf565b600160ff1b839003841281161561527e5761527e614cdf565b5050019056fe416464726573733a206c6f772d6c6576656c2064656c65676174652063616c6c206661696c6564a2646970667358221220222b48496d3d0561248ee09132f764329e385e3d604c693b9cbd77ff81541fce64736f6c634300080a0033",
  "devdoc": {
    "kind": "dev",
    "methods": {
      "addNewStakingFund(uint32,address,address,uint256,uint256,uint256,uint256,int256)": {
        "params": {
          "_balanceIncentiveCurve_equilibriumOffset": "Offset for balance curve (see _calculateFloatPerSecond)",
          "_balanceIncentiveCurve_exponent": "Exponent for balance curve (see _calculateFloatPerSecond)",
          "kInitialMultiplier": "Initial boost on float generation for the market.",
          "kPeriod": "Period which the boost should last.",
          "longToken": "Address of the long token for the market.",
          "marketIndex": "Identifies the market.",
          "shortToken": "Address of the short token for the market.",
          "unstakeFee_e18": "Percentage of tokens that are levied on unstaking in base 1e18."
        }
      },
      "changeBalanceIncentiveParameters(uint32,uint256,int256,uint256)": {
        "params": {
          "_balanceIncentiveCurve_equilibriumOffset": "The new offset.",
          "_balanceIncentiveCurve_exponent": "The new exponent for the curve.",
          "_safeExponentBitShifting": "The new bitshifting applied to the curve.",
          "marketIndex": "Identifies the market."
        }
      },
      "changeFloatPercentage(uint256)": {
        "params": {
          "newFloatPercentage": "The new float percentage in base 1e18."
        }
      },
      "changeUnstakeFee(uint32,uint256)": {
        "params": {
          "marketIndex": "Identifies the market.",
          "newMarketUnstakeFee_e18": "The new unstake fee."
        }
      },
      "claimFloatCustom(uint32[])": {
        "params": {
          "marketIndexes": "Identifiers for the markets for which to mint float."
        }
      },
      "claimFloatCustomFor(uint32[],address)": {
        "params": {
          "marketIndexes": "Identifiers for the markets for which to mint float.",
          "user": "The address of the user."
        }
      },
      "getRoleAdmin(bytes32)": {
        "details": "Returns the admin role that controls `role`. See {grantRole} and {revokeRole}. To change a role's admin, use {_setRoleAdmin}."
      },
      "grantRole(bytes32,address)": {
        "details": "Grants `role` to `account`. If `account` had not been already granted `role`, emits a {RoleGranted} event. Requirements: - the caller must have ``role``'s admin role."
      },
      "hasRole(bytes32,address)": {
        "details": "Returns `true` if `account` has been granted `role`."
      },
      "initialize(address,address,address,address,address,address,uint256,address)": {
        "details": "Calls OpenZeppelin's initializer modifier.",
        "params": {
          "_admin": "Address of the admin role.",
          "_floatCapital": "Address of the contract which earns a fixed percentage of Float.",
          "_floatPercentage": "Determines the float percentage that gets minted for Float Capital, base 1e18.",
          "_floatToken": "Address of the Float token earned by staking.",
          "_floatTreasury": "Address of the treasury contract for managing fees.",
          "_longShort": "Address of the LongShort contract, a deployed LongShort.sol"
        }
      },
      "pushUpdatedMarketPricesToUpdateFloatIssuanceCalculations(uint32,uint256,uint256,uint256,uint256,uint256)": {
        "params": {
          "longPrice": "The price of the long token as defined in LongShort.sol",
          "longValue": "The value locked in the long side of the market.",
          "marketIndex": "An identifier for the market.",
          "marketUpdateIndex": "Current update index in the LongShort contract for this market.",
          "shortPrice": "The price of the short token as defined in LongShort.sol",
          "shortValue": "The value locked in the short side of the market."
        }
      },
      "renounceRole(bytes32,address)": {
        "details": "Revokes `role` from the calling account. Roles are often managed via {grantRole} and {revokeRole}: this function's purpose is to provide a mechanism for accounts to lose their privileges if they are compromised (such as when a trusted device is misplaced). If the calling account had been revoked `role`, emits a {RoleRevoked} event. Requirements: - the caller must be `account`."
      },
      "revokeRole(bytes32,address)": {
        "details": "Revokes `role` from `account`. If `account` had been granted `role`, emits a {RoleRevoked} event. Requirements: - the caller must have ``role``'s admin role."
      },
      "shiftTokens(uint256,uint32,bool)": {
        "params": {
          "amountSyntheticTokensToShift": "Amount of tokens to shift.",
          "isShiftFromLong": "Whether the shift is from long to short or short to long.",
          "marketIndex": "Identifier for the market."
        }
      },
      "stakeFromUser(address,uint256)": {
        "params": {
          "amount": "Amount to stake.",
          "from": "Address to stake for."
        }
      },
      "supportsInterface(bytes4)": {
        "details": "See {IERC165-supportsInterface}."
      },
      "upgradeTo(address)": {
        "details": "Upgrade the implementation of the proxy to `newImplementation`. Calls {_authorizeUpgrade}. Emits an {Upgraded} event."
      },
      "upgradeToAndCall(address,bytes)": {
        "details": "Upgrade the implementation of the proxy to `newImplementation`, and subsequently execute the function call encoded in `data`. Calls {_authorizeUpgrade}. Emits an {Upgraded} event."
      },
      "withdraw(uint32,bool,uint256)": {
        "params": {
          "amount": "Amount to withdraw.",
          "isWithdrawFromLong": "is synthetic token to be withdrawn long or short",
          "marketIndex": "Market index of staked synthetic token"
        }
      },
      "withdrawAll(uint32,bool)": {
        "params": {
          "isWithdrawFromLong": "is synthetic token to be withdrawn long or short",
          "marketIndex": "Market index of staked synthetic token"
        }
      }
    },
    "version": 1
  },
  "userdoc": {
    "kind": "user",
    "methods": {
      "addNewStakingFund(uint32,address,address,uint256,uint256,uint256,uint256,int256)": {
        "notice": "Sets this contract to track staking for a market in LongShort.sol"
      },
      "changeBalanceIncentiveParameters(uint32,uint256,int256,uint256)": {
        "notice": "Changes the balance incentive exponent for a market"
      },
      "changeFloatPercentage(uint256)": {
        "notice": "Changes percentage of float that is minted for float capital."
      },
      "changeUnstakeFee(uint32,uint256)": {
        "notice": "Changes unstake fee for a market"
      },
      "claimFloatCustom(uint32[])": {
        "notice": "Mints outstanding float for msg.sender."
      },
      "claimFloatCustomFor(uint32[],address)": {
        "notice": "Mints outstanding float on behalf of another user."
      },
      "initialize(address,address,address,address,address,address,uint256,address)": {
        "notice": "Initializes the contract."
      },
      "pushUpdatedMarketPricesToUpdateFloatIssuanceCalculations(uint32,uint256,uint256,uint256,uint256,uint256)": {
        "notice": "Adds new accumulativeIssuancePerStakedSynthSnapshots for the given long/short tokens. Called by the ILongShort contract whenever there is a state change for a market."
      },
      "shiftTokens(uint256,uint32,bool)": {
        "notice": "Allows users to shift their staked tokens from one side of the market to the other at the next price."
      },
      "stakeFromUser(address,uint256)": {
        "notice": "A user with synthetic tokens stakes by calling stake on the token contract which calls this function. We need to first update the state of the LongShort contract for this market before staking to correctly calculate user rewards."
      },
      "withdraw(uint32,bool,uint256)": {
        "notice": "Withdraw function. Allows users to unstake."
      },
      "withdrawAll(uint32,bool)": {
        "notice": "Allows users to withdraw their entire stake for a token."
      }
    },
    "version": 1
  },
  "storageLayout": {
    "storage": [
      {
        "astId": 1051,
        "contract": "contracts/staker/StakerAvalanche.sol:StakerAvalanche",
        "label": "_initialized",
        "offset": 0,
        "slot": "0",
        "type": "t_bool"
      },
      {
        "astId": 1054,
        "contract": "contracts/staker/StakerAvalanche.sol:StakerAvalanche",
        "label": "_initializing",
        "offset": 1,
        "slot": "0",
        "type": "t_bool"
      },
      {
        "astId": 5350,
        "contract": "contracts/staker/StakerAvalanche.sol:StakerAvalanche",
        "label": "__gap",
        "offset": 0,
        "slot": "1",
        "type": "t_array(t_uint256)50_storage"
      },
      {
        "astId": 6272,
        "contract": "contracts/staker/StakerAvalanche.sol:StakerAvalanche",
        "label": "__gap",
        "offset": 0,
        "slot": "51",
        "type": "t_array(t_uint256)50_storage"
      },
      {
        "astId": 250,
        "contract": "contracts/staker/StakerAvalanche.sol:StakerAvalanche",
        "label": "_roles",
        "offset": 0,
        "slot": "101",
        "type": "t_mapping(t_bytes32,t_struct(RoleData)245_storage)"
      },
      {
        "astId": 537,
        "contract": "contracts/staker/StakerAvalanche.sol:StakerAvalanche",
        "label": "__gap",
        "offset": 0,
        "slot": "102",
        "type": "t_array(t_uint256)49_storage"
      },
      {
        "astId": 1033,
        "contract": "contracts/staker/StakerAvalanche.sol:StakerAvalanche",
        "label": "__gap",
        "offset": 0,
        "slot": "151",
        "type": "t_array(t_uint256)50_storage"
      },
      {
        "astId": 1228,
        "contract": "contracts/staker/StakerAvalanche.sol:StakerAvalanche",
        "label": "__gap",
        "offset": 0,
        "slot": "201",
        "type": "t_array(t_uint256)50_storage"
      },
      {
        "astId": 24439,
        "contract": "contracts/staker/StakerAvalanche.sol:StakerAvalanche",
        "label": "floatCapital",
        "offset": 0,
        "slot": "251",
        "type": "t_address"
      },
      {
        "astId": 24441,
        "contract": "contracts/staker/StakerAvalanche.sol:StakerAvalanche",
        "label": "floatTreasury",
        "offset": 0,
        "slot": "252",
        "type": "t_address"
      },
      {
        "astId": 24443,
        "contract": "contracts/staker/StakerAvalanche.sol:StakerAvalanche",
        "label": "floatPercentage",
        "offset": 0,
        "slot": "253",
        "type": "t_uint256"
      },
      {
        "astId": 24445,
        "contract": "contracts/staker/StakerAvalanche.sol:StakerAvalanche",
        "label": "longShort",
        "offset": 0,
        "slot": "254",
        "type": "t_address"
      },
      {
        "astId": 24447,
        "contract": "contracts/staker/StakerAvalanche.sol:StakerAvalanche",
        "label": "floatToken",
        "offset": 0,
        "slot": "255",
        "type": "t_address"
      },
      {
        "astId": 24449,
        "contract": "contracts/staker/StakerAvalanche.sol:StakerAvalanche",
        "label": "gems",
        "offset": 0,
        "slot": "256",
        "type": "t_address"
      },
      {
        "astId": 24453,
        "contract": "contracts/staker/StakerAvalanche.sol:StakerAvalanche",
        "label": "__globalStateGap",
        "offset": 0,
        "slot": "257",
        "type": "t_array(t_uint256)45_storage"
      },
      {
        "astId": 24457,
        "contract": "contracts/staker/StakerAvalanche.sol:StakerAvalanche",
        "label": "marketLaunchIncentive_period",
        "offset": 0,
        "slot": "302",
        "type": "t_mapping(t_uint32,t_uint256)"
      },
      {
        "astId": 24461,
        "contract": "contracts/staker/StakerAvalanche.sol:StakerAvalanche",
        "label": "marketLaunchIncentive_multipliers",
        "offset": 0,
        "slot": "303",
        "type": "t_mapping(t_uint32,t_uint256)"
      },
      {
        "astId": 24465,
        "contract": "contracts/staker/StakerAvalanche.sol:StakerAvalanche",
        "label": "marketUnstakeFee_e18",
        "offset": 0,
        "slot": "304",
        "type": "t_mapping(t_uint32,t_uint256)"
      },
      {
        "astId": 24469,
        "contract": "contracts/staker/StakerAvalanche.sol:StakerAvalanche",
        "label": "balanceIncentiveCurve_exponent",
        "offset": 0,
        "slot": "305",
        "type": "t_mapping(t_uint32,t_uint256)"
      },
      {
        "astId": 24473,
        "contract": "contracts/staker/StakerAvalanche.sol:StakerAvalanche",
        "label": "balanceIncentiveCurve_equilibriumOffset",
        "offset": 0,
        "slot": "306",
        "type": "t_mapping(t_uint32,t_int256)"
      },
      {
        "astId": 24477,
        "contract": "contracts/staker/StakerAvalanche.sol:StakerAvalanche",
        "label": "safeExponentBitShifting",
        "offset": 0,
        "slot": "307",
        "type": "t_mapping(t_uint32,t_uint256)"
      },
      {
        "astId": 24483,
        "contract": "contracts/staker/StakerAvalanche.sol:StakerAvalanche",
        "label": "syntheticTokens",
        "offset": 0,
        "slot": "308",
        "type": "t_mapping(t_uint32,t_mapping(t_bool,t_address))"
      },
      {
        "astId": 24487,
        "contract": "contracts/staker/StakerAvalanche.sol:StakerAvalanche",
        "label": "__marketStateGap",
        "offset": 0,
        "slot": "309",
        "type": "t_array(t_uint256)45_storage"
      },
      {
        "astId": 24491,
        "contract": "contracts/staker/StakerAvalanche.sol:StakerAvalanche",
        "label": "marketIndexOfToken",
        "offset": 0,
        "slot": "354",
        "type": "t_mapping(t_address,t_uint32)"
      },
      {
        "astId": 24495,
        "contract": "contracts/staker/StakerAvalanche.sol:StakerAvalanche",
        "label": "userNonce",
        "offset": 0,
        "slot": "355",
        "type": "t_mapping(t_address,t_uint32)"
      },
      {
        "astId": 24499,
        "contract": "contracts/staker/StakerAvalanche.sol:StakerAvalanche",
        "label": "__synthStateGap",
        "offset": 0,
        "slot": "356",
        "type": "t_array(t_uint256)45_storage"
      },
      {
        "astId": 24504,
        "contract": "contracts/staker/StakerAvalanche.sol:StakerAvalanche",
        "label": "latestRewardIndex",
        "offset": 0,
        "slot": "401",
        "type": "t_mapping(t_uint32,t_uint256)"
      },
      {
        "astId": 24511,
        "contract": "contracts/staker/StakerAvalanche.sol:StakerAvalanche",
        "label": "accumulativeFloatPerSyntheticTokenSnapshotsLEGACY",
        "offset": 0,
        "slot": "402",
        "type": "t_mapping(t_uint32,t_mapping(t_uint256,t_struct(AccumulativeIssuancePerStakedSynthSnapshotLEGACY)24518_storage))"
      },
      {
        "astId": 24535,
        "contract": "contracts/staker/StakerAvalanche.sol:StakerAvalanche",
        "label": "accumulativeFloatPerSyntheticTokenSnapshots",
        "offset": 0,
        "slot": "403",
        "type": "t_mapping(t_uint32,t_mapping(t_uint256,t_struct(AccumulativeIssuancePerStakedSynthSnapshot)24528_storage))"
      },
      {
        "astId": 24539,
        "contract": "contracts/staker/StakerAvalanche.sol:StakerAvalanche",
        "label": "__rewardStateGap",
        "offset": 0,
        "slot": "404",
        "type": "t_array(t_uint256)44_storage"
      },
      {
        "astId": 24545,
        "contract": "contracts/staker/StakerAvalanche.sol:StakerAvalanche",
        "label": "userIndexOfLastClaimedReward",
        "offset": 0,
        "slot": "448",
        "type": "t_mapping(t_uint32,t_mapping(t_address,t_uint256))"
      },
      {
        "astId": 24552,
        "contract": "contracts/staker/StakerAvalanche.sol:StakerAvalanche",
        "label": "userAmountStaked",
        "offset": 0,
        "slot": "449",
        "type": "t_mapping(t_address,t_mapping(t_address,t_uint256))"
      },
      {
        "astId": 24556,
        "contract": "contracts/staker/StakerAvalanche.sol:StakerAvalanche",
        "label": "__userStateGap",
        "offset": 0,
        "slot": "450",
        "type": "t_array(t_uint256)45_storage"
      },
      {
        "astId": 24563,
        "contract": "contracts/staker/StakerAvalanche.sol:StakerAvalanche",
        "label": "userNextPrice_stakedActionIndex",
        "offset": 0,
        "slot": "495",
        "type": "t_mapping(t_uint32,t_mapping(t_address,t_uint256))"
      },
      {
        "astId": 24572,
        "contract": "contracts/staker/StakerAvalanche.sol:StakerAvalanche",
        "label": "userNextPrice_amountStakedSyntheticToken_toShiftAwayFrom",
        "offset": 0,
        "slot": "496",
        "type": "t_mapping(t_uint32,t_mapping(t_bool,t_mapping(t_address,t_uint256)))"
      },
      {
        "astId": 24581,
        "contract": "contracts/staker/StakerAvalanche.sol:StakerAvalanche",
        "label": "userNextPrice_paymentToken_depositAmount",
        "offset": 0,
        "slot": "497",
        "type": "t_mapping(t_uint32,t_mapping(t_bool,t_mapping(t_address,t_uint256)))"
      }
    ],
    "types": {
      "t_address": {
        "encoding": "inplace",
        "label": "address",
        "numberOfBytes": "20"
      },
      "t_array(t_uint256)44_storage": {
        "base": "t_uint256",
        "encoding": "inplace",
        "label": "uint256[44]",
        "numberOfBytes": "1408"
      },
      "t_array(t_uint256)45_storage": {
        "base": "t_uint256",
        "encoding": "inplace",
        "label": "uint256[45]",
        "numberOfBytes": "1440"
      },
      "t_array(t_uint256)49_storage": {
        "base": "t_uint256",
        "encoding": "inplace",
        "label": "uint256[49]",
        "numberOfBytes": "1568"
      },
      "t_array(t_uint256)50_storage": {
        "base": "t_uint256",
        "encoding": "inplace",
        "label": "uint256[50]",
        "numberOfBytes": "1600"
      },
      "t_bool": {
        "encoding": "inplace",
        "label": "bool",
        "numberOfBytes": "1"
      },
      "t_bytes32": {
        "encoding": "inplace",
        "label": "bytes32",
        "numberOfBytes": "32"
      },
      "t_int256": {
        "encoding": "inplace",
        "label": "int256",
        "numberOfBytes": "32"
      },
      "t_mapping(t_address,t_bool)": {
        "encoding": "mapping",
        "key": "t_address",
        "label": "mapping(address => bool)",
        "numberOfBytes": "32",
        "value": "t_bool"
      },
      "t_mapping(t_address,t_mapping(t_address,t_uint256))": {
        "encoding": "mapping",
        "key": "t_address",
        "label": "mapping(address => mapping(address => uint256))",
        "numberOfBytes": "32",
        "value": "t_mapping(t_address,t_uint256)"
      },
      "t_mapping(t_address,t_uint256)": {
        "encoding": "mapping",
        "key": "t_address",
        "label": "mapping(address => uint256)",
        "numberOfBytes": "32",
        "value": "t_uint256"
      },
      "t_mapping(t_address,t_uint32)": {
        "encoding": "mapping",
        "key": "t_address",
        "label": "mapping(address => uint32)",
        "numberOfBytes": "32",
        "value": "t_uint32"
      },
      "t_mapping(t_bool,t_address)": {
        "encoding": "mapping",
        "key": "t_bool",
        "label": "mapping(bool => address)",
        "numberOfBytes": "32",
        "value": "t_address"
      },
      "t_mapping(t_bool,t_mapping(t_address,t_uint256))": {
        "encoding": "mapping",
        "key": "t_bool",
        "label": "mapping(bool => mapping(address => uint256))",
        "numberOfBytes": "32",
        "value": "t_mapping(t_address,t_uint256)"
      },
      "t_mapping(t_bytes32,t_struct(RoleData)245_storage)": {
        "encoding": "mapping",
        "key": "t_bytes32",
        "label": "mapping(bytes32 => struct AccessControlUpgradeable.RoleData)",
        "numberOfBytes": "32",
        "value": "t_struct(RoleData)245_storage"
      },
      "t_mapping(t_uint256,t_struct(AccumulativeIssuancePerStakedSynthSnapshot)24528_storage)": {
        "encoding": "mapping",
        "key": "t_uint256",
        "label": "mapping(uint256 => struct Staker.AccumulativeIssuancePerStakedSynthSnapshot)",
        "numberOfBytes": "32",
        "value": "t_struct(AccumulativeIssuancePerStakedSynthSnapshot)24528_storage"
      },
      "t_mapping(t_uint256,t_struct(AccumulativeIssuancePerStakedSynthSnapshotLEGACY)24518_storage)": {
        "encoding": "mapping",
        "key": "t_uint256",
        "label": "mapping(uint256 => struct Staker.AccumulativeIssuancePerStakedSynthSnapshotLEGACY)",
        "numberOfBytes": "32",
        "value": "t_struct(AccumulativeIssuancePerStakedSynthSnapshotLEGACY)24518_storage"
      },
      "t_mapping(t_uint32,t_int256)": {
        "encoding": "mapping",
        "key": "t_uint32",
        "label": "mapping(uint32 => int256)",
        "numberOfBytes": "32",
        "value": "t_int256"
      },
      "t_mapping(t_uint32,t_mapping(t_address,t_uint256))": {
        "encoding": "mapping",
        "key": "t_uint32",
        "label": "mapping(uint32 => mapping(address => uint256))",
        "numberOfBytes": "32",
        "value": "t_mapping(t_address,t_uint256)"
      },
      "t_mapping(t_uint32,t_mapping(t_bool,t_address))": {
        "encoding": "mapping",
        "key": "t_uint32",
        "label": "mapping(uint32 => mapping(bool => address))",
        "numberOfBytes": "32",
        "value": "t_mapping(t_bool,t_address)"
      },
      "t_mapping(t_uint32,t_mapping(t_bool,t_mapping(t_address,t_uint256)))": {
        "encoding": "mapping",
        "key": "t_uint32",
        "label": "mapping(uint32 => mapping(bool => mapping(address => uint256)))",
        "numberOfBytes": "32",
        "value": "t_mapping(t_bool,t_mapping(t_address,t_uint256))"
      },
      "t_mapping(t_uint32,t_mapping(t_uint256,t_struct(AccumulativeIssuancePerStakedSynthSnapshot)24528_storage))": {
        "encoding": "mapping",
        "key": "t_uint32",
        "label": "mapping(uint32 => mapping(uint256 => struct Staker.AccumulativeIssuancePerStakedSynthSnapshot))",
        "numberOfBytes": "32",
        "value": "t_mapping(t_uint256,t_struct(AccumulativeIssuancePerStakedSynthSnapshot)24528_storage)"
      },
      "t_mapping(t_uint32,t_mapping(t_uint256,t_struct(AccumulativeIssuancePerStakedSynthSnapshotLEGACY)24518_storage))": {
        "encoding": "mapping",
        "key": "t_uint32",
        "label": "mapping(uint32 => mapping(uint256 => struct Staker.AccumulativeIssuancePerStakedSynthSnapshotLEGACY))",
        "numberOfBytes": "32",
        "value": "t_mapping(t_uint256,t_struct(AccumulativeIssuancePerStakedSynthSnapshotLEGACY)24518_storage)"
      },
      "t_mapping(t_uint32,t_uint256)": {
        "encoding": "mapping",
        "key": "t_uint32",
        "label": "mapping(uint32 => uint256)",
        "numberOfBytes": "32",
        "value": "t_uint256"
      },
      "t_struct(AccumulativeIssuancePerStakedSynthSnapshot)24528_storage": {
        "encoding": "inplace",
        "label": "struct Staker.AccumulativeIssuancePerStakedSynthSnapshot",
        "members": [
          {
            "astId": 24523,
            "contract": "contracts/staker/StakerAvalanche.sol:StakerAvalanche",
            "label": "timestamp",
            "offset": 0,
            "slot": "0",
            "type": "t_uint32"
          },
          {
            "astId": 24525,
            "contract": "contracts/staker/StakerAvalanche.sol:StakerAvalanche",
            "label": "accumulativeFloatPerSyntheticToken_long",
            "offset": 4,
            "slot": "0",
            "type": "t_uint112"
          },
          {
            "astId": 24527,
            "contract": "contracts/staker/StakerAvalanche.sol:StakerAvalanche",
            "label": "accumulativeFloatPerSyntheticToken_short",
            "offset": 18,
            "slot": "0",
            "type": "t_uint112"
          }
        ],
        "numberOfBytes": "32"
      },
      "t_struct(AccumulativeIssuancePerStakedSynthSnapshotLEGACY)24518_storage": {
        "encoding": "inplace",
        "label": "struct Staker.AccumulativeIssuancePerStakedSynthSnapshotLEGACY",
        "members": [
          {
            "astId": 24513,
            "contract": "contracts/staker/StakerAvalanche.sol:StakerAvalanche",
            "label": "timestamp",
            "offset": 0,
            "slot": "0",
            "type": "t_uint256"
          },
          {
            "astId": 24515,
            "contract": "contracts/staker/StakerAvalanche.sol:StakerAvalanche",
            "label": "accumulativeFloatPerSyntheticToken_long",
            "offset": 0,
            "slot": "1",
            "type": "t_uint256"
          },
          {
            "astId": 24517,
            "contract": "contracts/staker/StakerAvalanche.sol:StakerAvalanche",
            "label": "accumulativeFloatPerSyntheticToken_short",
            "offset": 0,
            "slot": "2",
            "type": "t_uint256"
          }
        ],
        "numberOfBytes": "96"
      },
      "t_struct(RoleData)245_storage": {
        "encoding": "inplace",
        "label": "struct AccessControlUpgradeable.RoleData",
        "members": [
          {
            "astId": 242,
            "contract": "contracts/staker/StakerAvalanche.sol:StakerAvalanche",
            "label": "members",
            "offset": 0,
            "slot": "0",
            "type": "t_mapping(t_address,t_bool)"
          },
          {
            "astId": 244,
            "contract": "contracts/staker/StakerAvalanche.sol:StakerAvalanche",
            "label": "adminRole",
            "offset": 0,
            "slot": "1",
            "type": "t_bytes32"
          }
        ],
        "numberOfBytes": "64"
      },
      "t_uint112": {
        "encoding": "inplace",
        "label": "uint112",
        "numberOfBytes": "14"
      },
      "t_uint256": {
        "encoding": "inplace",
        "label": "uint256",
        "numberOfBytes": "32"
      },
      "t_uint32": {
        "encoding": "inplace",
        "label": "uint32",
        "numberOfBytes": "4"
      }
    }
  }
}