{
  "address": "0x19Ac199BE93a9D06eE259fF3A39f71d35Bbd3234",
  "abi": [
    {
      "anonymous": false,
      "inputs": [
        {
          "indexed": false,
          "internalType": "uint32",
          "name": "marketIndex",
          "type": "uint32"
        },
        {
          "indexed": false,
          "internalType": "uint256",
          "name": "accumulativeFloatIssuanceSnapshotIndex",
          "type": "uint256"
        },
        {
          "indexed": false,
          "internalType": "uint256",
          "name": "accumulativeLong",
          "type": "uint256"
        },
        {
          "indexed": false,
          "internalType": "uint256",
          "name": "accumulativeShort",
          "type": "uint256"
        }
      ],
      "name": "AccumulativeIssuancePerStakedSynthSnapshotCreated",
      "type": "event"
    },
    {
      "anonymous": false,
      "inputs": [
        {
          "indexed": false,
          "internalType": "address",
          "name": "previousAdmin",
          "type": "address"
        },
        {
          "indexed": false,
          "internalType": "address",
          "name": "newAdmin",
          "type": "address"
        }
      ],
      "name": "AdminChanged",
      "type": "event"
    },
    {
      "anonymous": false,
      "inputs": [
        {
          "indexed": false,
          "internalType": "uint32",
          "name": "marketIndex",
          "type": "uint32"
        },
        {
          "indexed": false,
          "internalType": "uint256",
          "name": "balanceIncentiveExponent",
          "type": "uint256"
        },
        {
          "indexed": false,
          "internalType": "int256",
          "name": "balanceIncentiveCurve_equilibriumOffset",
          "type": "int256"
        },
        {
          "indexed": false,
          "internalType": "uint256",
          "name": "safeExponentBitShifting",
          "type": "uint256"
        }
      ],
      "name": "BalanceIncentiveParamsUpdated",
      "type": "event"
    },
    {
      "anonymous": false,
      "inputs": [
        {
          "indexed": true,
          "internalType": "address",
          "name": "beacon",
          "type": "address"
        }
      ],
      "name": "BeaconUpgraded",
      "type": "event"
    },
    {
      "anonymous": false,
      "inputs": [
        {
          "indexed": false,
          "internalType": "address",
          "name": "user",
          "type": "address"
        },
        {
          "indexed": false,
          "internalType": "uint32",
          "name": "marketIndex",
          "type": "uint32"
        },
        {
          "indexed": false,
          "internalType": "uint256",
          "name": "amountFloatMinted",
          "type": "uint256"
        }
      ],
      "name": "FloatMinted",
      "type": "event"
    },
    {
      "anonymous": false,
      "inputs": [
        {
          "indexed": false,
          "internalType": "uint256",
          "name": "floatPercentage",
          "type": "uint256"
        }
      ],
      "name": "FloatPercentageUpdated",
      "type": "event"
    },
    {
      "anonymous": false,
      "inputs": [
        {
          "indexed": false,
          "internalType": "uint32",
          "name": "marketIndex",
          "type": "uint32"
        },
        {
          "indexed": false,
          "internalType": "uint256",
          "name": "exitFee_e18",
          "type": "uint256"
        },
        {
          "indexed": false,
          "internalType": "uint256",
          "name": "period",
          "type": "uint256"
        },
        {
          "indexed": false,
          "internalType": "uint256",
          "name": "multiplier",
          "type": "uint256"
        },
        {
          "indexed": false,
          "internalType": "uint256",
          "name": "balanceIncentiveExponent",
          "type": "uint256"
        },
        {
          "indexed": false,
          "internalType": "int256",
          "name": "balanceIncentiveEquilibriumOffset",
          "type": "int256"
        },
        {
          "indexed": false,
          "internalType": "uint256",
          "name": "safeExponentBitShifting",
          "type": "uint256"
        }
      ],
      "name": "MarketAddedToStaker",
      "type": "event"
    },
    {
      "anonymous": false,
      "inputs": [
        {
          "indexed": false,
          "internalType": "uint32",
          "name": "marketIndex",
          "type": "uint32"
        },
        {
          "indexed": false,
          "internalType": "uint256",
          "name": "period",
          "type": "uint256"
        },
        {
          "indexed": false,
          "internalType": "uint256",
          "name": "multiplier",
          "type": "uint256"
        }
      ],
      "name": "MarketLaunchIncentiveParametersChanges",
      "type": "event"
    },
    {
      "anonymous": false,
      "inputs": [
        {
          "indexed": false,
          "internalType": "address",
          "name": "user",
          "type": "address"
        },
        {
          "indexed": false,
          "internalType": "uint32",
          "name": "marketIndex",
          "type": "uint32"
        },
        {
          "indexed": false,
          "internalType": "uint256",
          "name": "amount",
          "type": "uint256"
        },
        {
          "indexed": false,
          "internalType": "bool",
          "name": "isShiftFromLong",
          "type": "bool"
        },
        {
          "indexed": false,
          "internalType": "uint256",
          "name": "userShiftIndex",
          "type": "uint256"
        }
      ],
      "name": "NextPriceStakeShift",
      "type": "event"
    },
    {
      "anonymous": false,
      "inputs": [
        {
          "indexed": true,
          "internalType": "bytes32",
          "name": "role",
          "type": "bytes32"
        },
        {
          "indexed": true,
          "internalType": "bytes32",
          "name": "previousAdminRole",
          "type": "bytes32"
        },
        {
          "indexed": true,
          "internalType": "bytes32",
          "name": "newAdminRole",
          "type": "bytes32"
        }
      ],
      "name": "RoleAdminChanged",
      "type": "event"
    },
    {
      "anonymous": false,
      "inputs": [
        {
          "indexed": true,
          "internalType": "bytes32",
          "name": "role",
          "type": "bytes32"
        },
        {
          "indexed": true,
          "internalType": "address",
          "name": "account",
          "type": "address"
        },
        {
          "indexed": true,
          "internalType": "address",
          "name": "sender",
          "type": "address"
        }
      ],
      "name": "RoleGranted",
      "type": "event"
    },
    {
      "anonymous": false,
      "inputs": [
        {
          "indexed": true,
          "internalType": "bytes32",
          "name": "role",
          "type": "bytes32"
        },
        {
          "indexed": true,
          "internalType": "address",
          "name": "account",
          "type": "address"
        },
        {
          "indexed": true,
          "internalType": "address",
          "name": "sender",
          "type": "address"
        }
      ],
      "name": "RoleRevoked",
      "type": "event"
    },
    {
      "anonymous": false,
      "inputs": [
        {
          "indexed": false,
          "internalType": "address",
          "name": "user",
          "type": "address"
        },
        {
          "indexed": false,
          "internalType": "address",
          "name": "token",
          "type": "address"
        },
        {
          "indexed": false,
          "internalType": "uint256",
          "name": "amount",
          "type": "uint256"
        },
        {
          "indexed": false,
          "internalType": "uint256",
          "name": "lastMintIndex",
          "type": "uint256"
        }
      ],
      "name": "StakeAdded",
      "type": "event"
    },
    {
      "anonymous": false,
      "inputs": [
        {
          "indexed": false,
          "internalType": "address",
          "name": "user",
          "type": "address"
        },
        {
          "indexed": false,
          "internalType": "uint32",
          "name": "marketIndex",
          "type": "uint32"
        },
        {
          "indexed": false,
          "internalType": "uint256",
          "name": "newAmountStakedLong",
          "type": "uint256"
        },
        {
          "indexed": false,
          "internalType": "uint256",
          "name": "newAmountStakedShort",
          "type": "uint256"
        }
      ],
      "name": "StakeShifted",
      "type": "event"
    },
    {
      "anonymous": false,
      "inputs": [
        {
          "indexed": false,
          "internalType": "uint32",
          "name": "marketIndex",
          "type": "uint32"
        },
        {
          "indexed": false,
          "internalType": "uint256",
          "name": "stakeWithdralFee",
          "type": "uint256"
        }
      ],
      "name": "StakeWithdrawalFeeUpdated",
      "type": "event"
    },
    {
      "anonymous": false,
      "inputs": [
        {
          "indexed": false,
          "internalType": "address",
          "name": "user",
          "type": "address"
        },
        {
          "indexed": false,
          "internalType": "address",
          "name": "token",
          "type": "address"
        },
        {
          "indexed": false,
          "internalType": "uint256",
          "name": "amount",
          "type": "uint256"
        }
      ],
      "name": "StakeWithdrawn",
      "type": "event"
    },
    {
      "anonymous": false,
      "inputs": [
        {
          "indexed": false,
          "internalType": "address",
          "name": "user",
          "type": "address"
        },
        {
          "indexed": false,
          "internalType": "address",
          "name": "token",
          "type": "address"
        },
        {
          "indexed": false,
          "internalType": "uint256",
          "name": "amount",
          "type": "uint256"
        },
        {
          "indexed": false,
          "internalType": "uint256",
          "name": "amountFees",
          "type": "uint256"
        }
      ],
      "name": "StakeWithdrawnWithFees",
      "type": "event"
    },
    {
      "anonymous": false,
      "inputs": [
        {
          "indexed": false,
          "internalType": "address",
          "name": "admin",
          "type": "address"
        },
        {
          "indexed": false,
          "internalType": "address",
          "name": "floatTreasury",
          "type": "address"
        },
        {
          "indexed": false,
          "internalType": "address",
          "name": "floatCapital",
          "type": "address"
        },
        {
          "indexed": false,
          "internalType": "address",
          "name": "floatToken",
          "type": "address"
        },
        {
          "indexed": false,
          "internalType": "uint256",
          "name": "floatPercentage",
          "type": "uint256"
        }
      ],
      "name": "StakerV1",
      "type": "event"
    },
    {
      "anonymous": false,
      "inputs": [
        {
          "indexed": true,
          "internalType": "address",
          "name": "implementation",
          "type": "address"
        }
      ],
      "name": "Upgraded",
      "type": "event"
    },
    {
      "inputs": [],
      "name": "ADMIN_ROLE",
      "outputs": [
        {
          "internalType": "bytes32",
          "name": "",
          "type": "bytes32"
        }
      ],
      "stateMutability": "view",
      "type": "function"
    },
    {
      "inputs": [],
      "name": "DEFAULT_ADMIN_ROLE",
      "outputs": [
        {
          "internalType": "bytes32",
          "name": "",
          "type": "bytes32"
        }
      ],
      "stateMutability": "view",
      "type": "function"
    },
    {
      "inputs": [],
      "name": "DISCOUNT_ROLE",
      "outputs": [
        {
          "internalType": "bytes32",
          "name": "",
          "type": "bytes32"
        }
      ],
      "stateMutability": "view",
      "type": "function"
    },
    {
      "inputs": [],
      "name": "FLOAT_ISSUANCE_FIXED_DECIMAL",
      "outputs": [
        {
          "internalType": "uint256",
          "name": "",
          "type": "uint256"
        }
      ],
      "stateMutability": "view",
      "type": "function"
    },
    {
      "inputs": [],
      "name": "UPGRADER_ROLE",
      "outputs": [
        {
          "internalType": "bytes32",
          "name": "",
          "type": "bytes32"
        }
      ],
      "stateMutability": "view",
      "type": "function"
    },
    {
      "inputs": [
        {
          "internalType": "uint32",
          "name": "",
          "type": "uint32"
        },
        {
          "internalType": "uint256",
          "name": "",
          "type": "uint256"
        }
      ],
      "name": "accumulativeFloatPerSyntheticTokenSnapshots",
      "outputs": [
        {
          "internalType": "uint256",
          "name": "timestamp",
          "type": "uint256"
        },
        {
          "internalType": "uint256",
          "name": "accumulativeFloatPerSyntheticToken_long",
          "type": "uint256"
        },
        {
          "internalType": "uint256",
          "name": "accumulativeFloatPerSyntheticToken_short",
          "type": "uint256"
        }
      ],
      "stateMutability": "view",
      "type": "function"
    },
    {
      "inputs": [
        {
          "internalType": "uint32",
          "name": "marketIndex",
          "type": "uint32"
        },
        {
          "internalType": "address",
          "name": "longToken",
          "type": "address"
        },
        {
          "internalType": "address",
          "name": "shortToken",
          "type": "address"
        },
        {
          "internalType": "uint256",
          "name": "kInitialMultiplier",
          "type": "uint256"
        },
        {
          "internalType": "uint256",
          "name": "kPeriod",
          "type": "uint256"
        },
        {
          "internalType": "uint256",
          "name": "unstakeFee_e18",
          "type": "uint256"
        },
        {
          "internalType": "uint256",
          "name": "_balanceIncentiveCurve_exponent",
          "type": "uint256"
        },
        {
          "internalType": "int256",
          "name": "_balanceIncentiveCurve_equilibriumOffset",
          "type": "int256"
        }
      ],
      "name": "addNewStakingFund",
      "outputs": [],
      "stateMutability": "nonpayable",
      "type": "function"
    },
    {
      "inputs": [
        {
          "internalType": "uint32",
          "name": "",
          "type": "uint32"
        }
      ],
      "name": "balanceIncentiveCurve_equilibriumOffset",
      "outputs": [
        {
          "internalType": "int256",
          "name": "",
          "type": "int256"
        }
      ],
      "stateMutability": "view",
      "type": "function"
    },
    {
      "inputs": [
        {
          "internalType": "uint32",
          "name": "",
          "type": "uint32"
        }
      ],
      "name": "balanceIncentiveCurve_exponent",
      "outputs": [
        {
          "internalType": "uint256",
          "name": "",
          "type": "uint256"
        }
      ],
      "stateMutability": "view",
      "type": "function"
    },
    {
      "inputs": [
        {
          "internalType": "uint32",
          "name": "marketIndex",
          "type": "uint32"
        },
        {
          "internalType": "uint256",
          "name": "_balanceIncentiveCurve_exponent",
          "type": "uint256"
        },
        {
          "internalType": "int256",
          "name": "_balanceIncentiveCurve_equilibriumOffset",
          "type": "int256"
        },
        {
          "internalType": "uint256",
          "name": "_safeExponentBitShifting",
          "type": "uint256"
        }
      ],
      "name": "changeBalanceIncentiveParameters",
      "outputs": [],
      "stateMutability": "nonpayable",
      "type": "function"
    },
    {
      "inputs": [
        {
          "internalType": "uint256",
          "name": "newFloatPercentage",
          "type": "uint256"
        }
      ],
      "name": "changeFloatPercentage",
      "outputs": [],
      "stateMutability": "nonpayable",
      "type": "function"
    },
    {
      "inputs": [
        {
          "internalType": "uint32",
          "name": "marketIndex",
          "type": "uint32"
        },
        {
          "internalType": "uint256",
          "name": "newMarketUnstakeFee_e18",
          "type": "uint256"
        }
      ],
      "name": "changeUnstakeFee",
      "outputs": [],
      "stateMutability": "nonpayable",
      "type": "function"
    },
    {
      "inputs": [
        {
          "internalType": "uint32[]",
          "name": "marketIndexes",
          "type": "uint32[]"
        }
      ],
      "name": "claimFloatCustom",
      "outputs": [],
      "stateMutability": "nonpayable",
      "type": "function"
    },
    {
      "inputs": [
        {
          "internalType": "uint32[]",
          "name": "marketIndexes",
          "type": "uint32[]"
        },
        {
          "internalType": "address",
          "name": "user",
          "type": "address"
        }
      ],
      "name": "claimFloatCustomFor",
      "outputs": [],
      "stateMutability": "nonpayable",
      "type": "function"
    },
    {
      "inputs": [],
      "name": "floatCapital",
      "outputs": [
        {
          "internalType": "address",
          "name": "",
          "type": "address"
        }
      ],
      "stateMutability": "view",
      "type": "function"
    },
    {
      "inputs": [],
      "name": "floatPercentage",
      "outputs": [
        {
          "internalType": "uint256",
          "name": "",
          "type": "uint256"
        }
      ],
      "stateMutability": "view",
      "type": "function"
    },
    {
      "inputs": [],
      "name": "floatToken",
      "outputs": [
        {
          "internalType": "address",
          "name": "",
          "type": "address"
        }
      ],
      "stateMutability": "view",
      "type": "function"
    },
    {
      "inputs": [],
      "name": "floatTreasury",
      "outputs": [
        {
          "internalType": "address",
          "name": "",
          "type": "address"
        }
      ],
      "stateMutability": "view",
      "type": "function"
    },
    {
      "inputs": [],
      "name": "gems",
      "outputs": [
        {
          "internalType": "address",
          "name": "",
          "type": "address"
        }
      ],
      "stateMutability": "view",
      "type": "function"
    },
    {
      "inputs": [
        {
          "internalType": "bytes32",
          "name": "role",
          "type": "bytes32"
        }
      ],
      "name": "getRoleAdmin",
      "outputs": [
        {
          "internalType": "bytes32",
          "name": "",
          "type": "bytes32"
        }
      ],
      "stateMutability": "view",
      "type": "function"
    },
    {
      "inputs": [
        {
          "internalType": "bytes32",
          "name": "role",
          "type": "bytes32"
        },
        {
          "internalType": "address",
          "name": "account",
          "type": "address"
        }
      ],
      "name": "grantRole",
      "outputs": [],
      "stateMutability": "nonpayable",
      "type": "function"
    },
    {
      "inputs": [
        {
          "internalType": "bytes32",
          "name": "role",
          "type": "bytes32"
        },
        {
          "internalType": "address",
          "name": "account",
          "type": "address"
        }
      ],
      "name": "hasRole",
      "outputs": [
        {
          "internalType": "bool",
          "name": "",
          "type": "bool"
        }
      ],
      "stateMutability": "view",
      "type": "function"
    },
    {
      "inputs": [
        {
          "internalType": "address",
          "name": "_admin",
          "type": "address"
        },
        {
          "internalType": "address",
          "name": "_longShort",
          "type": "address"
        },
        {
          "internalType": "address",
          "name": "_floatToken",
          "type": "address"
        },
        {
          "internalType": "address",
          "name": "_floatTreasury",
          "type": "address"
        },
        {
          "internalType": "address",
          "name": "_floatCapital",
          "type": "address"
        },
        {
          "internalType": "address",
          "name": "_discountSigner",
          "type": "address"
        },
        {
          "internalType": "uint256",
          "name": "_floatPercentage",
          "type": "uint256"
        },
        {
          "internalType": "address",
          "name": "_gems",
          "type": "address"
        }
      ],
      "name": "initialize",
      "outputs": [],
      "stateMutability": "nonpayable",
      "type": "function"
    },
    {
      "inputs": [
        {
          "internalType": "uint32",
          "name": "",
          "type": "uint32"
        }
      ],
      "name": "latestRewardIndex",
      "outputs": [
        {
          "internalType": "uint256",
          "name": "",
          "type": "uint256"
        }
      ],
      "stateMutability": "view",
      "type": "function"
    },
    {
      "inputs": [],
      "name": "longShort",
      "outputs": [
        {
          "internalType": "address",
          "name": "",
          "type": "address"
        }
      ],
      "stateMutability": "view",
      "type": "function"
    },
    {
      "inputs": [
        {
          "internalType": "address",
          "name": "",
          "type": "address"
        }
      ],
      "name": "marketIndexOfToken",
      "outputs": [
        {
          "internalType": "uint32",
          "name": "",
          "type": "uint32"
        }
      ],
      "stateMutability": "view",
      "type": "function"
    },
    {
      "inputs": [
        {
          "internalType": "uint32",
          "name": "",
          "type": "uint32"
        }
      ],
      "name": "marketLaunchIncentive_multipliers",
      "outputs": [
        {
          "internalType": "uint256",
          "name": "",
          "type": "uint256"
        }
      ],
      "stateMutability": "view",
      "type": "function"
    },
    {
      "inputs": [
        {
          "internalType": "uint32",
          "name": "",
          "type": "uint32"
        }
      ],
      "name": "marketLaunchIncentive_period",
      "outputs": [
        {
          "internalType": "uint256",
          "name": "",
          "type": "uint256"
        }
      ],
      "stateMutability": "view",
      "type": "function"
    },
    {
      "inputs": [
        {
          "internalType": "uint32",
          "name": "",
          "type": "uint32"
        }
      ],
      "name": "marketUnstakeFee_e18",
      "outputs": [
        {
          "internalType": "uint256",
          "name": "",
          "type": "uint256"
        }
      ],
      "stateMutability": "view",
      "type": "function"
    },
    {
      "inputs": [
        {
          "internalType": "uint32",
          "name": "marketIndex",
          "type": "uint32"
        },
        {
          "internalType": "uint256",
          "name": "marketUpdateIndex",
          "type": "uint256"
        },
        {
          "internalType": "uint256",
          "name": "longPrice",
          "type": "uint256"
        },
        {
          "internalType": "uint256",
          "name": "shortPrice",
          "type": "uint256"
        },
        {
          "internalType": "uint256",
          "name": "longValue",
          "type": "uint256"
        },
        {
          "internalType": "uint256",
          "name": "shortValue",
          "type": "uint256"
        }
      ],
      "name": "pushUpdatedMarketPricesToUpdateFloatIssuanceCalculations",
      "outputs": [],
      "stateMutability": "nonpayable",
      "type": "function"
    },
    {
      "inputs": [
        {
          "internalType": "bytes32",
          "name": "role",
          "type": "bytes32"
        },
        {
          "internalType": "address",
          "name": "account",
          "type": "address"
        }
      ],
      "name": "renounceRole",
      "outputs": [],
      "stateMutability": "nonpayable",
      "type": "function"
    },
    {
      "inputs": [
        {
          "internalType": "bytes32",
          "name": "role",
          "type": "bytes32"
        },
        {
          "internalType": "address",
          "name": "account",
          "type": "address"
        }
      ],
      "name": "revokeRole",
      "outputs": [],
      "stateMutability": "nonpayable",
      "type": "function"
    },
    {
      "inputs": [
        {
          "internalType": "uint32",
          "name": "",
          "type": "uint32"
        }
      ],
      "name": "safeExponentBitShifting",
      "outputs": [
        {
          "internalType": "uint256",
          "name": "",
          "type": "uint256"
        }
      ],
      "stateMutability": "view",
      "type": "function"
    },
    {
      "inputs": [
        {
          "internalType": "uint256",
          "name": "amountSyntheticTokensToShift",
          "type": "uint256"
        },
        {
          "internalType": "uint32",
          "name": "marketIndex",
          "type": "uint32"
        },
        {
          "internalType": "bool",
          "name": "isShiftFromLong",
          "type": "bool"
        }
      ],
      "name": "shiftTokens",
      "outputs": [],
      "stateMutability": "nonpayable",
      "type": "function"
    },
    {
      "inputs": [
        {
          "internalType": "address",
          "name": "from",
          "type": "address"
        },
        {
          "internalType": "uint256",
          "name": "amount",
          "type": "uint256"
        }
      ],
      "name": "stakeFromUser",
      "outputs": [],
      "stateMutability": "nonpayable",
      "type": "function"
    },
    {
      "inputs": [
        {
          "internalType": "bytes4",
          "name": "interfaceId",
          "type": "bytes4"
        }
      ],
      "name": "supportsInterface",
      "outputs": [
        {
          "internalType": "bool",
          "name": "",
          "type": "bool"
        }
      ],
      "stateMutability": "view",
      "type": "function"
    },
    {
      "inputs": [
        {
          "internalType": "uint32",
          "name": "",
          "type": "uint32"
        },
        {
          "internalType": "bool",
          "name": "",
          "type": "bool"
        }
      ],
      "name": "syntheticTokens",
      "outputs": [
        {
          "internalType": "address",
          "name": "",
          "type": "address"
        }
      ],
      "stateMutability": "view",
      "type": "function"
    },
    {
      "inputs": [
        {
          "internalType": "address",
          "name": "newImplementation",
          "type": "address"
        }
      ],
      "name": "upgradeTo",
      "outputs": [],
      "stateMutability": "nonpayable",
      "type": "function"
    },
    {
      "inputs": [
        {
          "internalType": "address",
          "name": "newImplementation",
          "type": "address"
        },
        {
          "internalType": "bytes",
          "name": "data",
          "type": "bytes"
        }
      ],
      "name": "upgradeToAndCall",
      "outputs": [],
      "stateMutability": "payable",
      "type": "function"
    },
    {
      "inputs": [
        {
          "internalType": "address",
          "name": "",
          "type": "address"
        },
        {
          "internalType": "address",
          "name": "",
          "type": "address"
        }
      ],
      "name": "userAmountStaked",
      "outputs": [
        {
          "internalType": "uint256",
          "name": "",
          "type": "uint256"
        }
      ],
      "stateMutability": "view",
      "type": "function"
    },
    {
      "inputs": [
        {
          "internalType": "uint32",
          "name": "",
          "type": "uint32"
        },
        {
          "internalType": "address",
          "name": "",
          "type": "address"
        }
      ],
      "name": "userIndexOfLastClaimedReward",
      "outputs": [
        {
          "internalType": "uint256",
          "name": "",
          "type": "uint256"
        }
      ],
      "stateMutability": "view",
      "type": "function"
    },
    {
      "inputs": [
        {
          "internalType": "uint32",
          "name": "",
          "type": "uint32"
        },
        {
          "internalType": "bool",
          "name": "",
          "type": "bool"
        },
        {
          "internalType": "address",
          "name": "",
          "type": "address"
        }
      ],
      "name": "userNextPrice_amountStakedSyntheticToken_toShiftAwayFrom",
      "outputs": [
        {
          "internalType": "uint256",
          "name": "",
          "type": "uint256"
        }
      ],
      "stateMutability": "view",
      "type": "function"
    },
    {
      "inputs": [
        {
          "internalType": "uint32",
          "name": "",
          "type": "uint32"
        },
        {
          "internalType": "bool",
          "name": "",
          "type": "bool"
        },
        {
          "internalType": "address",
          "name": "",
          "type": "address"
        }
      ],
      "name": "userNextPrice_paymentToken_depositAmount",
      "outputs": [
        {
          "internalType": "uint256",
          "name": "",
          "type": "uint256"
        }
      ],
      "stateMutability": "view",
      "type": "function"
    },
    {
      "inputs": [
        {
          "internalType": "uint32",
          "name": "",
          "type": "uint32"
        },
        {
          "internalType": "address",
          "name": "",
          "type": "address"
        }
      ],
      "name": "userNextPrice_stakedActionIndex",
      "outputs": [
        {
          "internalType": "uint256",
          "name": "",
          "type": "uint256"
        }
      ],
      "stateMutability": "view",
      "type": "function"
    },
    {
      "inputs": [
        {
          "internalType": "address",
          "name": "",
          "type": "address"
        }
      ],
      "name": "userNonce",
      "outputs": [
        {
          "internalType": "uint32",
          "name": "",
          "type": "uint32"
        }
      ],
      "stateMutability": "view",
      "type": "function"
    },
    {
      "inputs": [
        {
          "internalType": "uint32",
          "name": "marketIndex",
          "type": "uint32"
        },
        {
          "internalType": "bool",
          "name": "isWithdrawFromLong",
          "type": "bool"
        },
        {
          "internalType": "uint256",
          "name": "amount",
          "type": "uint256"
        }
      ],
      "name": "withdraw",
      "outputs": [],
      "stateMutability": "nonpayable",
      "type": "function"
    },
    {
      "inputs": [
        {
          "internalType": "uint32",
          "name": "marketIndex",
          "type": "uint32"
        },
        {
          "internalType": "bool",
          "name": "isWithdrawFromLong",
          "type": "bool"
        }
      ],
      "name": "withdrawAll",
      "outputs": [],
      "stateMutability": "nonpayable",
      "type": "function"
    },
    {
      "inputs": [
        {
          "internalType": "uint32",
          "name": "marketIndex",
          "type": "uint32"
        },
        {
          "internalType": "bool",
          "name": "isWithdrawFromLong",
          "type": "bool"
        },
        {
          "internalType": "uint256",
          "name": "withdrawAmount",
          "type": "uint256"
        },
        {
          "internalType": "uint256",
          "name": "expiry",
          "type": "uint256"
        },
        {
          "internalType": "uint256",
          "name": "nonce",
          "type": "uint256"
        },
        {
          "internalType": "uint256",
          "name": "discountWithdrawFee",
          "type": "uint256"
        },
        {
          "internalType": "uint8",
          "name": "v",
          "type": "uint8"
        },
        {
          "internalType": "bytes32",
          "name": "r",
          "type": "bytes32"
        },
        {
          "internalType": "bytes32",
          "name": "s",
          "type": "bytes32"
        }
      ],
      "name": "withdrawWithVoucher",
      "outputs": [],
      "stateMutability": "nonpayable",
      "type": "function"
    }
  ],
  "transactionHash": "0x9b185ecd9288ef6f5751ea4d234f42a81f8ad1e418edc10dd65624e310496215",
  "args": [],
  "solcInputHash": "707d2f2f3c9ec1805ce40527081186e5",
  "bytecode": "0x60a06040523060601b60805234801561001757600080fd5b5060805160601c614a2561004b60003960008181610bd901528181610c1901528181610ca20152610ce20152614a256000f3fe6080604052600436106102935760003560e01c80639441752f1161015a578063c2b80072116100c1578063eae5a8d91161007a578063eae5a8d9146109a1578063edb010d7146109c1578063ef9c3052146109e1578063f344acc914610a0f578063f72c0d8b14610a2f578063f9fe734e14610a6357610293565b8063c2b80072146108a6578063d547741f146108e5578063dc86fe5014610905578063e39ac04414610933578063e68f3dbe14610961578063e955a3481461098157610293565b8063b45e86cf11610113578063b45e86cf146107b4578063ba89f7b8146107ed578063bda69fd81461080d578063be751cb71461082d578063c16199e31461084d578063c17f8ce91461086d57610293565b80639441752f146106be5780639e59fd0f146106fd578063a217fddf1461071d578063a538415c14610732578063b054c4a114610752578063b0956b5f1461079457610293565b80634f1ef286116101fe578063738f4b8e116101b7578063738f4b8e146105d857806375b238fc146105f857806385fcb8e31461062c57806386cbde1f1461065a5780638e659c081461067e57806391d148541461069e57610293565b80634f1ef286146105075780635892457d1461051a5780635ac76ce1146105305780636a5304df146105695780636c3050551461059757806372b124da146105b857610293565b80632e04b8e7116102505780632e04b8e7146103dc5780632f2ff15d1461041057806336568abe146104305780633659cfe6146104505780633733cf49146104705780633ebff44f146104a457610293565b806301ffc9a7146102985780630ca5a052146102cd57806313e8868a146102ef57806315f2081d1461032b578063248a9ca31461037457806329949872146103a4575b600080fd5b3480156102a457600080fd5b506102b86102b33660046140d8565b610a91565b60405190151581526020015b60405180910390f35b3480156102d957600080fd5b506102ed6102e8366004614333565b610aca565b005b3480156102fb57600080fd5b5061031d61030a366004614157565b6101306020526000908152604090205481565b6040519081526020016102c4565b34801561033757600080fd5b5061035f610346366004613e2f565b6101626020526000908152604090205463ffffffff1681565b60405163ffffffff90911681526020016102c4565b34801561038057600080fd5b5061031d61038f36600461409e565b60009081526065602052604090206001015490565b3480156103b057600080fd5b5060fe546103c4906001600160a01b031681565b6040516001600160a01b0390911681526020016102c4565b3480156103e857600080fd5b5061035f6103f7366004613e2f565b6101636020526000908152604090205463ffffffff1681565b34801561041c57600080fd5b506102ed61042b3660046140b6565b610b1f565b34801561043c57600080fd5b506102ed61044b3660046140b6565b610b4b565b34801561045c57600080fd5b506102ed61046b366004613e2f565b610bce565b34801561047c57600080fd5b5061031d7fce9a6d3180818296cf6add4d55c45a6cd9e315597ee1da1e2313c503391736cd81565b3480156104b057600080fd5b506104ec6104bf366004614333565b61019260209081526000928352604080842090915290825290208054600182015460029092015490919083565b604080519384526020840192909252908201526060016102c4565b6102ed610515366004613f0a565b610c97565b34801561052657600080fd5b5061031d60fd5481565b34801561053c57600080fd5b5061031d61054b366004614171565b6101c060209081526000928352604080842090915290825290205481565b34801561057557600080fd5b5061031d610584366004614157565b61012e6020526000908152604090205481565b3480156105a357600080fd5b50610100546103c4906001600160a01b031681565b3480156105c457600080fd5b506102ed6105d33660046142ab565b610d4d565b3480156105e457600080fd5b506102ed6105f3366004613ff0565b611247565b34801561060457600080fd5b5061031d7fa49807205ce4d355092ef5a8a18f56e8913cf4a201fbe287825b095693c2177581565b34801561063857600080fd5b5061031d610647366004614157565b6101336020526000908152604090205481565b34801561066657600080fd5b5061031d6cd73d4c35b9df8aa7d6c3003573602c1b81565b34801561068a57600080fd5b506102ed610699366004613e7b565b6112b6565b3480156106aa57600080fd5b506102b86106b93660046140b6565b61149b565b3480156106ca57600080fd5b5061031d6106d9366004614232565b6101f060209081526000938452604080852082529284528284209052825290205481565b34801561070957600080fd5b506102ed61071836600461409e565b6114c8565b34801561072957600080fd5b5061031d600081565b34801561073e57600080fd5b506102ed61074d3660046141fc565b61150f565b34801561075e57600080fd5b506103c461076d3660046141fc565b6101346020908152600092835260408084209091529082529020546001600160a01b031681565b3480156107a057600080fd5b506102ed6107af36600461418c565b611606565b3480156107c057600080fd5b5061031d6107cf366004614171565b6101ef60209081526000928352604080842090915290825290205481565b3480156107f957600080fd5b5060fb546103c4906001600160a01b031681565b34801561081957600080fd5b506102ed610828366004614386565b611806565b34801561083957600080fd5b506102ed61084836600461434e565b6118b1565b34801561085957600080fd5b5060fc546103c4906001600160a01b031681565b34801561087957600080fd5b5061031d610888366004613e49565b6101c160209081526000928352604080842090915290825290205481565b3480156108b257600080fd5b5061031d6108c1366004614232565b6101f160209081526000938452604080852082529284528284209052825290205481565b3480156108f157600080fd5b506102ed6109003660046140b6565b611919565b34801561091157600080fd5b5061031d610920366004614157565b6101326020526000908152604090205481565b34801561093f57600080fd5b5061031d61094e366004614157565b6101916020526000908152604090205481565b34801561096d57600080fd5b506102ed61097c366004613fc7565b61193f565b34801561098d57600080fd5b506102ed61099c36600461426d565b611b7d565b3480156109ad57600080fd5b5060ff546103c4906001600160a01b031681565b3480156109cd57600080fd5b506102ed6109dc366004614118565b611bc7565b3480156109ed57600080fd5b5061031d6109fc366004614157565b61012f6020526000908152604090205481565b348015610a1b57600080fd5b506102ed610a2a366004614030565b611e7a565b348015610a3b57600080fd5b5061031d7f189ab7a9244df0848122154315af71fe140f3db0fe014031783b0946b8c9d2e381565b348015610a6f57600080fd5b5061031d610a7e366004614157565b6101316020526000908152604090205481565b60006001600160e01b03198216637965db0b60e01b1480610ac257506301ffc9a760e01b6001600160e01b03198316145b90505b919050565b610ad2611ee9565b610adc8282611f15565b6040805163ffffffff84168152602081018390527feb76801ec75076256b8590fd7c621c2541531e6b9ac568389fa5cdf72e664844910160405180910390a15050565b600082815260656020526040902060010154610b3c81335b611f43565b610b468383611fa7565b505050565b6001600160a01b0381163314610bc05760405162461bcd60e51b815260206004820152602f60248201527f416363657373436f6e74726f6c3a2063616e206f6e6c792072656e6f756e636560448201526e103937b632b9903337b91039b2b63360891b60648201526084015b60405180910390fd5b610bca828261202d565b5050565b306001600160a01b037f0000000000000000000000000000000000000000000000000000000000000000161415610c175760405162461bcd60e51b8152600401610bb79061454b565b7f00000000000000000000000000000000000000000000000000000000000000006001600160a01b0316610c49612094565b6001600160a01b031614610c6f5760405162461bcd60e51b8152600401610bb790614597565b610c78816120c2565b60408051600080825260208201909252610c94918391906120ed565b50565b306001600160a01b037f0000000000000000000000000000000000000000000000000000000000000000161415610ce05760405162461bcd60e51b8152600401610bb79061454b565b7f00000000000000000000000000000000000000000000000000000000000000006001600160a01b0316610d12612094565b6001600160a01b031614610d385760405162461bcd60e51b8152600401610bb790614597565b610d41826120c2565b610bca828260016120ed565b610100546040516324b4085360e21b81523360048201819052916001600160a01b0316906392d0214c90602401600060405180830381600087803b158015610d9457600080fd5b505af1158015610da8573d6000803e3d6000fd5b5050505060008811610dcc5760405162461bcd60e51b8152600401610bb790614505565b604080516001600160e01b031960e08d901b166020808301919091528b151560f81b60248301526bffffffffffffffffffffffff193360601b166025830152603982018b9052605982018a90526079820189905260998083018990528351808403909101815260b9830184528051908201207f19457468657265756d205369676e6564204d6573736167653a0a33320000000060d984015260f5808401919091528351808403909101815261011590920190925280519101206000906001906040805160008152602081018083529290925260ff881690820152606081018690526080810185905260a0016020604051602081039080840390855afa158015610ed9573d6000803e3d6000fd5b505050602060405103519050610f0f7fce9a6d3180818296cf6add4d55c45a6cd9e315597ee1da1e2313c503391736cd8261149b565b50874210610f505760405162461bcd60e51b815260206004820152600e60248201526d18dbdd5c1bdb88195e1c1a5c995960921b6044820152606401610bb7565b336000908152610163602052604090205463ffffffff168714610fa55760405162461bcd60e51b815260206004820152600d60248201526c696e76616c6964206e6f6e636560981b6044820152606401610bb7565b63ffffffff8b16600090815261013060205260409020548610610ffd5760405162461bcd60e51b815260206004820152601060248201526f62616420646973636f756e742066656560801b6044820152606401610bb7565b336000908152610163602052604090205461101f9063ffffffff16600161468a565b33600090815261016360209081526040808320805463ffffffff191663ffffffff958616179055928e16825261013481528282208d15158352905220546001600160a01b03166110718c8c8c84612231565b6000670de0b6b3a7640000611086898d61488b565b61109091906146e0565b60fc5460405163a9059cbb60e01b81526001600160a01b0391821660048201526024810183905291925083169063a9059cbb90604401602060405180830381600087803b1580156110e057600080fd5b505af11580156110f4573d6000803e3d6000fd5b505050506040513d601f19601f820116820180604052508101906111189190614082565b506001600160a01b03821663a9059cbb33611133848f6148e9565b6040516001600160e01b031960e085901b1681526001600160a01b0390921660048301526024820152604401602060405180830381600087803b15801561117957600080fd5b505af115801561118d573d6000803e3d6000fd5b505050506040513d601f19601f820116820180604052508101906111b19190614082565b50604080513381526001600160a01b03841660208201529081018c90527fb7c918e0e249f999e965cafeb6c664271b3f4317d296461500e71da39f0cbda39060600160405180910390a17f51166d74b9041059d05669e5c6db433bc09909bd98b6014d1f4f29a9812ee0fd33838d846040516112309493929190614460565b60405180910390a150505050505050505050505050565b60fe54604051636c8d2b9760e01b81526001600160a01b0390911690636c8d2b97906112799085908590600401614489565b600060405180830381600087803b15801561129357600080fd5b505af11580156112a7573d6000803e3d6000fd5b50505050610bca828233612363565b600054610100900460ff16806112cf575060005460ff16155b6112eb5760405162461bcd60e51b8152600401610bb7906145e3565b600054610100900460ff1615801561130d576000805461ffff19166101011790555b6001600160a01b0389161580159061132d57506001600160a01b03881615155b801561134157506001600160a01b03871615155b801561135557506001600160a01b03861615155b801561136957506001600160a01b03851615155b801561137d57506001600160a01b03821615155b801561138857508215155b61139157600080fd5b60fb80546001600160a01b03199081166001600160a01b038881169190911790925560fc8054821689841617905560fe805482168b841617905560ff805482168a841617905561010080549091169184169190911790556113f18961252a565b61141b7fce9a6d3180818296cf6add4d55c45a6cd9e315597ee1da1e2313c503391736cd856125af565b611424836125b9565b604080516001600160a01b038b81168252888116602083015287811682840152891660608201526080810185905290517faf92ca815edd9a90dc4aa1dfc722fb1624d5b5f914b25ae3cf979ce6600f0a969181900360a00190a18015611490576000805461ff00191690555b505050505050505050565b60008281526065602090815260408083206001600160a01b038516845290915290205460ff165b92915050565b6114d0611ee9565b6114d9816125b9565b6040518181527f062ffcd555faf2b2c81f26010ee6db2e23106941bfed5ae979abd111975d815d9060200160405180910390a150565b60fe546040516305c8146f60e01b815263ffffffff841660048201526001600160a01b03909116906305c8146f90602401600060405180830381600087803b15801561155a57600080fd5b505af115801561156e573d6000803e3d6000fd5b5050505061157c82336125df565b63ffffffff8216600081815261013460209081526040808320851515808552908352818420546001600160a01b03168085526101c184528285203380875281865284872080549888526101f087528588209488529386528487209087528552929094205491909252908190559091906115ff85846115fa84866148e9565b612686565b5050505050565b61160e6128e9565b670de0b6b3a76400008510156116715760405162461bcd60e51b815260206004820152602260248201527f6b496e697469616c4d756c7469706c696572206d757374206265203e3d203165604482015261062760f31b6064820152608401610bb7565b6001600160a01b03808816600081815261016260209081526040808320805463ffffffff8f1663ffffffff199182168117909255958c168085528285208054909716821790965580845261019283528184208480528352818420429055835261013482528083206001845280835281842080546001600160a01b03199081169096179055838052909152902080549091169091179055603261171589848484612933565b63ffffffff8916600090815261012e6020908152604080832088905561012f90915290208690556117468985611f15565b6040805163ffffffff8b16815260208101869052908101869052606081018790526080810184905260a0810183905260c081018290527fe0bc2edbe91b35919ee6608af52675476a1cb964af5d671c9e2c018d3cae98919060e00160405180910390a16040805163ffffffff8b16815260006020820181905291810182905260608101919091527f65663e89e16ccfe470dd659bacdf6fddae8185e108d00bc980d34be7e86466d0906080015b60405180910390a1505050505050505050565b61180e6128e9565b6000806118298861182060018a6148e9565b88888888612c4d565b63ffffffff8a166000818152610192602090815260408083208d8452825280832060018101879055600281018690554281558484526101918352928190208d905580519384529083018c90528201849052606082018390529294509092507f65663e89e16ccfe470dd659bacdf6fddae8185e108d00bc980d34be7e86466d0906080016117f3565b6118b9611ee9565b6118c584848484612933565b6040805163ffffffff8616815260208101859052908101839052606081018290527f940844064f9f8938ffe6a879f6143788f9f7e81daf872fee4fe2387b7cf9448d9060800160405180910390a150505050565b6000828152606560205260409020600101546119358133610b37565b610b46838361202d565b3361194981612cf6565b610100546040516324b4085360e21b81526001600160a01b038086166004830152859216906392d0214c90602401600060405180830381600087803b15801561199157600080fd5b505af11580156119a5573d6000803e3d6000fd5b5050505060008311611a055760405162461bcd60e51b815260206004820152602360248201527f5374616b6520616d6f756e74206d75737420626520677265617465722074686160448201526206e20360ec1b6064820152608401610bb7565b3360009081526101626020526040908190205460fe5491516305c8146f60e01b815263ffffffff90911660048201819052916001600160a01b0316906305c8146f90602401600060405180830381600087803b158015611a6457600080fd5b505af1158015611a78573d6000803e3d6000fd5b5050505063ffffffff811660008181526101c0602090815260408083206001600160a01b038a1684528252808320549383526101919091529020548115801590611ac157508082105b15611ad057611ad083886125df565b3360009081526101c1602090815260408083206001600160a01b038b16845290915281208054889290611b04908490614672565b909155505063ffffffff831660009081526101c0602090815260408083206001600160a01b038b16845290915290819020829055517fef7c8dfef14cbefdf829b8f066b068b677992411137321d64b3ed4538c2b363790611b6c90899033908a908690614460565b60405180910390a150505050505050565b63ffffffff831660009081526101346020908152604080832085151584529091529020546001600160a01b0316611bb684848484612231565b611bc1848284612686565b50505050565b81611bd181612d54565b610100546040516324b4085360e21b81523360048201819052916001600160a01b0316906392d0214c90602401600060405180830381600087803b158015611c1857600080fd5b505af1158015611c2c573d6000803e3d6000fd5b5050505060008511611c725760405162461bcd60e51b815260206004820152600f60248201526e2737903d32b9379039b434b33a399760891b6044820152606401610bb7565b63ffffffff8416600081815261013460209081526040808320871515808552908352818420549484526101f0835281842090845282528083203384529091528120546001600160a01b0390921691611cca9088614672565b6001600160a01b03831660009081526101c160209081526040808320338452909152902054909150811115611d415760405162461bcd60e51b815260206004820152601a60248201527f4e6f7420656e6f75676820746f6b656e7320746f2073686966740000000000006044820152606401610bb7565b60fe546040516371fd962360e01b815263ffffffff881660048201526024810189905286151560448201526001600160a01b03909116906371fd962390606401600060405180830381600087803b158015611d9b57600080fd5b505af1158015611daf573d6000803e3d6000fd5b5050505063ffffffff861660008181526101f060209081526040808320891515845282528083203384528252808320859055928252610191905290812054611df8906001614672565b63ffffffff881660008181526101ef6020908152604080832033808552908352928190208590558051928352908201929092529081018a90528715156060820152608081018290529091507f1393b60b20fc61ac59730bbda202288e21de9c963502cfe81fcb843b427d46e29060a00160405180910390a15050505050505050565b60fe54604051636c8d2b9760e01b81526001600160a01b0390911690636c8d2b9790611eac9086908690600401614489565b600060405180830381600087803b158015611ec657600080fd5b505af1158015611eda573d6000803e3d6000fd5b50505050610b46838383612363565b611f137fa49807205ce4d355092ef5a8a18f56e8913cf4a201fbe287825b095693c2177533611f43565b565b66b1a2bc2ec50000811115611f2957600080fd5b63ffffffff90911660009081526101306020526040902055565b611f4d828261149b565b610bca57611f65816001600160a01b03166014612dbd565b611f70836020612dbd565b604051602001611f819291906143eb565b60408051601f198184030181529082905262461bcd60e51b8252610bb7916004016144d2565b611fb1828261149b565b610bca5760008281526065602090815260408083206001600160a01b03851684529091529020805460ff19166001179055611fe93390565b6001600160a01b0316816001600160a01b0316837f2f8788117e7eff1d82e926ec794901d17c78024a50270940304540a733656f0d60405160405180910390a45050565b612037828261149b565b15610bca5760008281526065602090815260408083206001600160a01b0385168085529252808320805460ff1916905551339285917ff6391f5c32d9c69d2a47ea670b442974b53935d1edc7fd64eb21e047a839171b9190a45050565b7f360894a13ba1a3210667c828492db98dca3e2076cc3735a920a3ca505d382bbc546001600160a01b031690565b7f189ab7a9244df0848122154315af71fe140f3db0fe014031783b0946b8c9d2e3610bca8133610b37565b60006120f7612094565b905061210284612fa6565b60008351118061210f5750815b156121205761211e848461304b565b505b7f4910fdfa16fed3260ed0e7147f7cc6da11a60208b5b9406d12a635614ffd9143805460ff166115ff57805460ff191660011781556040516001600160a01b038316602482015261219f90869060440160408051601f198184030181529190526020810180516001600160e01b0316631b2ce7f360e11b17905261304b565b50805460ff191681556121b0612094565b6001600160a01b0316826001600160a01b0316146122285760405162461bcd60e51b815260206004820152602f60248201527f45524331393637557067726164653a207570677261646520627265616b73206660448201526e75727468657220757067726164657360881b6064820152608401610bb7565b6115ff85613136565b60fe546040516305c8146f60e01b815263ffffffff861660048201526001600160a01b03909116906305c8146f90602401600060405180830381600087803b15801561227c57600080fd5b505af1158015612290573d6000803e3d6000fd5b5050505061229e84336125df565b6001600160a01b03811660009081526101c160209081526040808320338085529083528184205463ffffffff891685526101f08452828520881515865284528285209185529252909120548381018210156123345760405162461bcd60e51b81526020600482015260166024820152756e6f7420656e6f75676820746f20776974686472617760501b6044820152606401610bb7565b506001600160a01b0390911660009081526101c160209081526040808320338452909152902091900390555050565b600082815b818110156125195760006123b087878481811061239557634e487b7160e01b600052603260045260246000fd5b90506020020160208101906123aa9190614157565b86613176565b905080156125065761019160008888858181106123dd57634e487b7160e01b600052603260045260246000fd5b90506020020160208101906123f29190614157565b63ffffffff1663ffffffff168152602001908152602001600020546101c0600089898681811061243257634e487b7160e01b600052603260045260246000fd5b90506020020160208101906124479190614157565b63ffffffff168152602080820192909252604090810160009081206001600160a01b038a16825290925290205561247e8185614672565b93507f2f0b57f663333228518fca119813fe0f6daeb5f19d087965f56b45fecf2d5205858888858181106124c257634e487b7160e01b600052603260045260246000fd5b90506020020160208101906124d79190614157565b604080516001600160a01b03909316835263ffffffff9091166020830152810183905260600160405180910390a15b508061251181614943565b915050612368565b5081156115ff576115ff838361359a565b600054610100900460ff1680612543575060005460ff16155b61255f5760405162461bcd60e51b8152600401610bb7906145e3565b600054610100900460ff16158015612581576000805461ffff19166101011790555b61258961369e565b612591613721565b61259a8261377f565b8015610bca576000805461ff00191690555050565b610bca8282611fa7565b670de0b6b3a764000081111580156125d15750600081115b6125da57600080fd5b60fd55565b60006125eb8383613176565b90508015610b465763ffffffff8316600090815261019160209081526040808320546101c083528184206001600160a01b038716855290925290912055612632828261359a565b604080516001600160a01b038416815263ffffffff851660208201529081018290527f2f0b57f663333228518fca119813fe0f6daeb5f19d087965f56b45fecf2d52059060600160405180910390a1505050565b610100546040516324b4085360e21b81523360048201819052916001600160a01b0316906392d0214c90602401600060405180830381600087803b1580156126cd57600080fd5b505af11580156126e1573d6000803e3d6000fd5b50505050600082116127055760405162461bcd60e51b8152600401610bb790614505565b63ffffffff841660009081526101306020526040812054670de0b6b3a764000090612730908561488b565b61273a91906146e0565b60fc5460405163a9059cbb60e01b81526001600160a01b0391821660048201526024810183905291925085169063a9059cbb90604401602060405180830381600087803b15801561278a57600080fd5b505af115801561279e573d6000803e3d6000fd5b505050506040513d601f19601f820116820180604052508101906127c29190614082565b506001600160a01b03841663a9059cbb336127dd84876148e9565b6040516001600160e01b031960e085901b1681526001600160a01b0390921660048301526024820152604401602060405180830381600087803b15801561282357600080fd5b505af1158015612837573d6000803e3d6000fd5b505050506040513d601f19601f8201168201806040525081019061285b9190614082565b50604080513381526001600160a01b03861660208201529081018490527fb7c918e0e249f999e965cafeb6c664271b3f4317d296461500e71da39f0cbda39060600160405180910390a17f51166d74b9041059d05669e5c6db433bc09909bd98b6014d1f4f29a9812ee0fd338585846040516128da9493929190614460565b60405180910390a15050505050565b60fe546001600160a01b03163314611f135760405162461bcd60e51b815260206004820152600d60248201526c1b9bdd08131bdb99d4da1bdc9d609a1b6044820152606401610bb7565b670c7d713b49d9ffff19821380156129525750670c7d713b49da000082125b6129bc5760405162461bcd60e51b815260206004820152603560248201527f62616c616e6365496e63656e7469766543757276655f657175696c69627269756044820152746d4f6666736574206f7574206f6620626f756e647360581b6064820152608401610bb7565b60008311612a215760405162461bcd60e51b815260206004820152602c60248201527f62616c616e6365496e63656e7469766543757276655f6578706f6e656e74206f60448201526b7574206f6620626f756e647360a01b6064820152608401610bb7565b60648110612a7f5760405162461bcd60e51b815260206004820152602560248201527f736166654578706f6e656e744269745368696674696e67206f7574206f6620626044820152646f756e647360d81b6064820152608401610bb7565b60fe54604051631678fc4360e31b815263ffffffff86166004820152600060248201819052916001600160a01b03169063b3c7e2189060440160206040518083038186803b158015612ad057600080fd5b505afa158015612ae4573d6000803e3d6000fd5b505050506040513d601f19601f82011682018060405250810190612b089190614100565b60fe54604051631678fc4360e31b815263ffffffff88166004820152600160248201526001600160a01b039091169063b3c7e2189060440160206040518083038186803b158015612b5857600080fd5b505afa158015612b6c573d6000803e3d6000fd5b505050506040513d601f19601f82011682018060405250810190612b909190614100565b612b9a9190614672565b90508382612baa836101f461488b565b612bb592911c61473a565b50606481831c11612c185760405162461bcd60e51b815260206004820152602760248201527f626974207368696674696e6720746f6f206c6172676520666f7220746f74616c604482015266081b1bd8dad95960ca1b6064820152608401610bb7565b5063ffffffff909316600090815261013160209081526040808320949094556101328152838220929092556101339091522055565b600080600080612c608a89898989613848565b915091506000612c708b8b613af1565b9050612c7c838261488b565b63ffffffff8c166000908152610192602090815260408083208e8452909152902060010154612cab9190614672565b612cb5838361488b565b63ffffffff8d166000908152610192602090815260408083208f8452909152902060020154612ce49190614672565b94509450505050965096945050505050565b6001600160a01b0381166000908152610162602052604090205463ffffffff16610c945760405162461bcd60e51b815260206004820152600f60248201526e0dcdee840ecc2d8d2c840e6f2dce8d608b1b6044820152606401610bb7565b63ffffffff811660009081526101ef6020908152604080832033845290915290205415801590612dae575063ffffffff8116600090815261019160209081526040808320546101ef83528184203385529092529091205411155b15610c9457610c9481336125df565b60606000612dcc83600261488b565b612dd7906002614672565b67ffffffffffffffff811115612dfd57634e487b7160e01b600052604160045260246000fd5b6040519080825280601f01601f191660200182016040528015612e27576020820181803683370190505b509050600360fc1b81600081518110612e5057634e487b7160e01b600052603260045260246000fd5b60200101906001600160f81b031916908160001a905350600f60fb1b81600181518110612e8d57634e487b7160e01b600052603260045260246000fd5b60200101906001600160f81b031916908160001a9053506000612eb184600261488b565b612ebc906001614672565b90505b6001811115612f50576f181899199a1a9b1b9c1cb0b131b232b360811b85600f1660108110612efe57634e487b7160e01b600052603260045260246000fd5b1a60f81b828281518110612f2257634e487b7160e01b600052603260045260246000fd5b60200101906001600160f81b031916908160001a90535060049490941c93612f498161492c565b9050612ebf565b508315612f9f5760405162461bcd60e51b815260206004820181905260248201527f537472696e67733a20686578206c656e67746820696e73756666696369656e746044820152606401610bb7565b9392505050565b803b61300a5760405162461bcd60e51b815260206004820152602d60248201527f455243313936373a206e657720696d706c656d656e746174696f6e206973206e60448201526c1bdd08184818dbdb9d1c9858dd609a1b6064820152608401610bb7565b7f360894a13ba1a3210667c828492db98dca3e2076cc3735a920a3ca505d382bbc80546001600160a01b0319166001600160a01b0392909216919091179055565b6060823b6130aa5760405162461bcd60e51b815260206004820152602660248201527f416464726573733a2064656c65676174652063616c6c20746f206e6f6e2d636f6044820152651b9d1c9858dd60d21b6064820152608401610bb7565b600080846001600160a01b0316846040516130c591906143cf565b600060405180830381855af49150503d8060008114613100576040519150601f19603f3d011682016040523d82523d6000602084013e613105565b606091505b509150915061312d82826040518060600160405280602781526020016149c960279139613b1d565b95945050505050565b61313f81612fa6565b6040516001600160a01b038216907fbc7cd75a20ee27fd9adebab32041f755214dbc6bffa90cc0225b39da2e5c2d3b90600090a250565b63ffffffff821660008181526101346020908152604080832060018452825280832054838052818420546001600160a01b039182168086526101c180865284872089851680895290875285882054949093168088529086528487208388528652848720548888526101c08752858820938852928652848720549787526101919095529285205494959294919290918082141561321b57600096505050505050506114c2565b63ffffffff891660009081526101ef602090815260408083206001600160a01b038c16845290915290205480158015906132555750818111155b1561357d576132678a86868685613b56565b63ffffffff8b1660009081526101f0602090815260408083206001845282528083206001600160a01b038e16845290915290205490985080156133875760fe54604051630125edfd60e71b815263ffffffff8d1660048201526024810183905260016044820152606481018490526001600160a01b03909116906392f6fe809060840160206040518083038186803b15801561330257600080fd5b505afa158015613316573d6000803e3d6000fd5b505050506040513d601f19601f8201168201806040525081019061333a9190614100565b6133449086614672565b945061335081876148e9565b63ffffffff8c1660009081526101f0602090815260408083206001845282528083206001600160a01b038f16845290915281205595505b5063ffffffff8a1660009081526101f06020908152604080832083805282528083206001600160a01b038d16845290915290205480156134a35760fe54604051630125edfd60e71b815263ffffffff8d1660048201526024810183905260006044820152606481018490526001600160a01b03909116906392f6fe809060840160206040518083038186803b15801561341f57600080fd5b505afa158015613433573d6000803e3d6000fd5b505050506040513d601f19601f820116820180604052508101906134579190614100565b6134619087614672565b955061346d81866148e9565b63ffffffff8c1660009081526101f06020908152604080832083805282528083206001600160a01b038f16845290915281205594505b6001600160a01b0388811660009081526101c1602081815260408084208f86168086529083528185208c9055948c168452918152818320848452815291819020889055805192835263ffffffff8e16918301919091528101879052606081018690527fea2b4628943d2a0a2c85f85b60007fb6f8273d91c0eaff6f8b140a5007637b359060800160405180910390a161353f8b87878587613b56565b613549908a614672565b63ffffffff8c1660009081526101ef602090815260408083206001600160a01b038f168452909152812055985061358d9050565b61358a8a86868686613b56565b97505b5050505050505092915050565b60ff546040516340c10f1960e01b81526001600160a01b03848116600483015260248201849052909116906340c10f1990604401600060405180830381600087803b1580156135e857600080fd5b505af11580156135fc573d6000803e3d6000fd5b505060ff5460fb5460fd546001600160a01b0392831694506340c10f199350911690670de0b6b3a764000090613632908661488b565b61363c91906146e0565b6040516001600160e01b031960e085901b1681526001600160a01b0390921660048301526024820152604401600060405180830381600087803b15801561368257600080fd5b505af1158015613696573d6000803e3d6000fd5b505050505050565b600054610100900460ff16806136b7575060005460ff16155b6136d35760405162461bcd60e51b8152600401610bb7906145e3565b600054610100900460ff161580156136f5576000805461ffff19166101011790555b6136fd613c49565b613705613c49565b61370d613c49565b8015610c94576000805461ff001916905550565b600054610100900460ff168061373a575060005460ff16155b6137565760405162461bcd60e51b8152600401610bb7906145e3565b600054610100900460ff161580156136fd576000805461ffff1916610101179055613705613c49565b600054610100900460ff1680613798575060005460ff16155b6137b45760405162461bcd60e51b8152600401610bb7906145e3565b600054610100900460ff161580156137d6576000805461ffff19166101011790555b6001600160a01b0382166137e957600080fd5b6137f46000836125af565b61381e7fa49807205ce4d355092ef5a8a18f56e8913cf4a201fbe287825b095693c21775836125af565b61259a7f189ab7a9244df0848122154315af71fe140f3db0fe014031783b0946b8c9d2e3836125af565b600080600061385688613cb3565b905060006138648587614672565b63ffffffff8a166000908152610132602052604081205491925090671bc16d674ec8000090613894908490614808565b61389e91906146b2565b63ffffffff8b1660009081526101336020526040902054909150876138c4836002614808565b6138ce90896148aa565b12156139ec578682126138f45760006138e78a8661488b565b9550955050505050613ae7565b63ffffffff8b16600090815261013160205260408120546139166001846148e9565b613920858b6148aa565b61392b92911c61473a565b63ffffffff8d1660009081526101316020526040812054919250906139529086851c61473a565b9050600081613969846706f05b59d3b2000061488b565b61397391906146e0565b9050600061398982670de0b6b3a76400006148e9565b9050670de0b6b3a76400008e61399f8a8561488b565b6139a9919061488b565b6139b391906146e0565b670de0b6b3a76400008e6139c78b8561488b565b6139d1919061488b565b6139db91906146e0565b995099505050505050505050613ae7565b876139f68361495e565b12613a1457613a058a8561488b565b60009550955050505050613ae7565b63ffffffff8b1660009081526101316020526040812054613a366001846148e9565b613a40858c614631565b613a4b92911c61473a565b63ffffffff8d166000908152610131602052604081205491925090613a729086851c61473a565b9050600081613a89846706f05b59d3b2000061488b565b613a9391906146e0565b90506000613aa982670de0b6b3a76400006148e9565b9050670de0b6b3a76400008e613abf8a8461488b565b613ac9919061488b565b613ad391906146e0565b670de0b6b3a76400008e6139c78b8661488b565b9550959350505050565b63ffffffff8216600090815261019260209081526040808320848452909152812054612f9f90426148e9565b60608315613b2c575081612f9f565b825115613b3c5782518084602001fd5b8160405162461bcd60e51b8152600401610bb791906144d2565b60008415613bcd5763ffffffff86166000908152610192602090815260408083208684529091528082206001908101548584529183200154613b9891906148e9565b90506cd73d4c35b9df8aa7d6c3003573602c1b613bb5878361488b565b613bbf91906146e0565b613bc99083614672565b9150505b831561312d5763ffffffff86166000908152610192602090815260408083208684529091528082206002908101548584529183200154613c0d91906148e9565b90506cd73d4c35b9df8aa7d6c3003573602c1b613c2a868361488b565b613c3491906146e0565b613c3e9083614672565b979650505050505050565b600054610100900460ff1680613c62575060005460ff16155b613c7e5760405162461bcd60e51b8152600401610bb7906145e3565b600054610100900460ff1615801561370d576000805461ffff19166101011790558015610c94576000805461ff001916905550565b6000806000613cc184613d76565b91509150670de0b6b3a7640000811015613ceb57634e487b7160e01b600052600160045260246000fd5b63ffffffff841660009081526101926020908152604080832083805290915290205482613d1882426148e9565b1015613d635782613d2982426148e9565b613d3b670de0b6b3a7640000856148e9565b613d45919061488b565b613d4f91906146e0565b613d5990836148e9565b9350505050610ac5565b670de0b6b3a76400009350505050610ac5565b63ffffffff8116600090815261012e602090815260408083205461012f90925290912054670de0b6b3a7640000811015613db55750670de0b6b3a76400005b915091565b80356001600160a01b0381168114610ac557600080fd5b60008083601f840112613de2578081fd5b50813567ffffffffffffffff811115613df9578182fd5b6020830191508360208260051b8501011115613e1457600080fd5b9250929050565b803563ffffffff81168114610ac557600080fd5b600060208284031215613e40578081fd5b612f9f82613dba565b60008060408385031215613e5b578081fd5b613e6483613dba565b9150613e7260208401613dba565b90509250929050565b600080600080600080600080610100898b031215613e97578384fd5b613ea089613dba565b9750613eae60208a01613dba565b9650613ebc60408a01613dba565b9550613eca60608a01613dba565b9450613ed860808a01613dba565b9350613ee660a08a01613dba565b925060c08901359150613efb60e08a01613dba565b90509295985092959890939650565b60008060408385031215613f1c578182fd5b613f2583613dba565b9150602083013567ffffffffffffffff80821115613f41578283fd5b818501915085601f830112613f54578283fd5b813581811115613f6657613f666149a4565b604051601f8201601f19908116603f01168101908382118183101715613f8e57613f8e6149a4565b81604052828152886020848701011115613fa6578586fd5b82602086016020830137856020848301015280955050505050509250929050565b60008060408385031215613fd9578182fd5b613fe283613dba565b946020939093013593505050565b60008060208385031215614002578182fd5b823567ffffffffffffffff811115614018578283fd5b61402485828601613dd1565b90969095509350505050565b600080600060408486031215614044578283fd5b833567ffffffffffffffff81111561405a578384fd5b61406686828701613dd1565b9094509250614079905060208501613dba565b90509250925092565b600060208284031215614093578081fd5b8151612f9f816149ba565b6000602082840312156140af578081fd5b5035919050565b600080604083850312156140c8578182fd5b82359150613e7260208401613dba565b6000602082840312156140e9578081fd5b81356001600160e01b031981168114612f9f578182fd5b600060208284031215614111578081fd5b5051919050565b60008060006060848603121561412c578081fd5b8335925061413c60208501613e1b565b9150604084013561414c816149ba565b809150509250925092565b600060208284031215614168578081fd5b612f9f82613e1b565b60008060408385031215614183578182fd5b613e6483613e1b565b600080600080600080600080610100898b0312156141a8578182fd5b6141b189613e1b565b97506141bf60208a01613dba565b96506141cd60408a01613dba565b979a96995096976060810135975060808101359660a0820135965060c0820135955060e0909101359350915050565b6000806040838503121561420e578182fd5b61421783613e1b565b91506020830135614227816149ba565b809150509250929050565b600080600060608486031215614246578081fd5b61424f84613e1b565b9250602084013561425f816149ba565b915061407960408501613dba565b600080600060608486031215614281578081fd5b61428a84613e1b565b9250602084013561429a816149ba565b929592945050506040919091013590565b60008060008060008060008060006101208a8c0312156142c9578283fd5b6142d28a613e1b565b985060208a01356142e2816149ba565b975060408a0135965060608a0135955060808a0135945060a08a0135935060c08a013560ff81168114614313578384fd5b8093505060e08a013591506101008a013590509295985092959850929598565b60008060408385031215614345578182fd5b613fe283613e1b565b60008060008060808587031215614363578182fd5b61436c85613e1b565b966020860135965060408601359560600135945092505050565b60008060008060008060c0878903121561439e578384fd5b6143a787613e1b565b9860208801359850604088013597606081013597506080810135965060a00135945092505050565b600082516143e1818460208701614900565b9190910192915050565b60007f416363657373436f6e74726f6c3a206163636f756e742000000000000000000082528351614423816017850160208801614900565b7001034b99036b4b9b9b4b733903937b6329607d1b6017918401918201528351614454816028840160208801614900565b01602801949350505050565b6001600160a01b0394851681529290931660208301526040820152606081019190915260800190565b60208082528181018390526000908460408401835b868110156144c75763ffffffff6144b484613e1b565b168252918301919083019060010161449e565b509695505050505050565b60006020825282518060208401526144f1816040850160208701614900565b601f01601f19169190910160400192915050565b60208082526026908201527f576974686472617720616d6f756e74206d75737420626520677265617465722060408201526507468616e20360d41b606082015260800190565b6020808252602c908201527f46756e6374696f6e206d7573742062652063616c6c6564207468726f7567682060408201526b19195b1959d85d1958d85b1b60a21b606082015260800190565b6020808252602c908201527f46756e6374696f6e206d7573742062652063616c6c6564207468726f7567682060408201526b6163746976652070726f787960a01b606082015260800190565b6020808252602e908201527f496e697469616c697a61626c653a20636f6e747261637420697320616c72656160408201526d191e481a5b9a5d1a585b1a5e995960921b606082015260800190565b600080821280156001600160ff1b038490038513161561465357614653614978565b600160ff1b839003841281161561466c5761466c614978565b50500190565b6000821982111561468557614685614978565b500190565b600063ffffffff8083168185168083038211156146a9576146a9614978565b01949350505050565b6000826146c1576146c161498e565b600160ff1b8214600019841416156146db576146db614978565b500590565b6000826146ef576146ef61498e565b500490565b80825b60018086116147065750614731565b81870482111561471857614718614978565b8086161561472557918102915b9490941c9380026146f7565b94509492505050565b6000612f9f600019848460008261475357506001612f9f565b8161476057506000612f9f565b81600181146147765760028114614780576147ad565b6001915050612f9f565b60ff84111561479157614791614978565b6001841b9150848211156147a7576147a7614978565b50612f9f565b5060208310610133831016604e8410600b84101617156147e0575081810a838111156147db576147db614978565b612f9f565b6147ed84848460016146f4565b8086048211156147ff576147ff614978565b02949350505050565b60006001600160ff1b038184138284138082168684048611161561482e5761482e614978565b600160ff1b8487128281168783058912161561484c5761484c614978565b85871292508782058712848416161561486757614867614978565b8785058712818416161561487d5761487d614978565b505050929093029392505050565b60008160001904831182151516156148a5576148a5614978565b500290565b60008083128015600160ff1b8501841216156148c8576148c8614978565b6001600160ff1b03840183138116156148e3576148e3614978565b50500390565b6000828210156148fb576148fb614978565b500390565b60005b8381101561491b578181015183820152602001614903565b83811115611bc15750506000910152565b60008161493b5761493b614978565b506000190190565b600060001982141561495757614957614978565b5060010190565b6000600160ff1b82141561497457614974614978565b0390565b634e487b7160e01b600052601160045260246000fd5b634e487b7160e01b600052601260045260246000fd5b634e487b7160e01b600052604160045260246000fd5b8015158114610c9457600080fdfe416464726573733a206c6f772d6c6576656c2064656c65676174652063616c6c206661696c6564a264697066735822122011e61ec9f8f3fa6ca04e8faffe0e743ba98ccd337972ac50d3ce6a2eca4d93d564736f6c63430008030033",
  "devdoc": {
    "kind": "dev",
    "methods": {
      "addNewStakingFund(uint32,address,address,uint256,uint256,uint256,uint256,int256)": {
        "params": {
          "_balanceIncentiveCurve_equilibriumOffset": "Offset for balance curve (see _calculateFloatPerSecond)",
          "_balanceIncentiveCurve_exponent": "Exponent for balance curve (see _calculateFloatPerSecond)",
          "kInitialMultiplier": "Initial boost on float generation for the market.",
          "kPeriod": "Period which the boost should last.",
          "longToken": "Address of the long token for the market.",
          "marketIndex": "Identifies the market.",
          "shortToken": "Address of the short token for the market.",
          "unstakeFee_e18": "Percentage of tokens that are levied on unstaking in base 1e18."
        }
      },
      "changeBalanceIncentiveParameters(uint32,uint256,int256,uint256)": {
        "params": {
          "_balanceIncentiveCurve_equilibriumOffset": "The new offset.",
          "_balanceIncentiveCurve_exponent": "The new exponent for the curve.",
          "_safeExponentBitShifting": "The new bitshifting applied to the curve.",
          "marketIndex": "Identifies the market."
        }
      },
      "changeFloatPercentage(uint256)": {
        "params": {
          "newFloatPercentage": "The new float percentage in base 1e18."
        }
      },
      "changeUnstakeFee(uint32,uint256)": {
        "params": {
          "marketIndex": "Identifies the market.",
          "newMarketUnstakeFee_e18": "The new unstake fee."
        }
      },
      "claimFloatCustom(uint32[])": {
        "params": {
          "marketIndexes": "Identifiers for the markets for which to mint float."
        }
      },
      "claimFloatCustomFor(uint32[],address)": {
        "params": {
          "marketIndexes": "Identifiers for the markets for which to mint float.",
          "user": "The address of the user."
        }
      },
      "getRoleAdmin(bytes32)": {
        "details": "Returns the admin role that controls `role`. See {grantRole} and {revokeRole}. To change a role's admin, use {_setRoleAdmin}."
      },
      "grantRole(bytes32,address)": {
        "details": "Grants `role` to `account`. If `account` had not been already granted `role`, emits a {RoleGranted} event. Requirements: - the caller must have ``role``'s admin role."
      },
      "hasRole(bytes32,address)": {
        "details": "Returns `true` if `account` has been granted `role`."
      },
      "initialize(address,address,address,address,address,address,uint256,address)": {
        "details": "Calls OpenZeppelin's initializer modifier.",
        "params": {
          "_admin": "Address of the admin role.",
          "_floatCapital": "Address of the contract which earns a fixed percentage of Float.",
          "_floatPercentage": "Determines the float percentage that gets minted for Float Capital, base 1e18.",
          "_floatToken": "Address of the Float token earned by staking.",
          "_floatTreasury": "Address of the treasury contract for managing fees.",
          "_longShort": "Address of the LongShort contract, a deployed LongShort.sol"
        }
      },
      "pushUpdatedMarketPricesToUpdateFloatIssuanceCalculations(uint32,uint256,uint256,uint256,uint256,uint256)": {
        "params": {
          "longPrice": "The price of the long token as defined in LongShort.sol",
          "longValue": "The value locked in the long side of the market.",
          "marketIndex": "An identifier for the market.",
          "marketUpdateIndex": "Current update index in the LongShort contract for this market.",
          "shortPrice": "The price of the short token as defined in LongShort.sol",
          "shortValue": "The value locked in the short side of the market."
        }
      },
      "renounceRole(bytes32,address)": {
        "details": "Revokes `role` from the calling account. Roles are often managed via {grantRole} and {revokeRole}: this function's purpose is to provide a mechanism for accounts to lose their privileges if they are compromised (such as when a trusted device is misplaced). If the calling account had been granted `role`, emits a {RoleRevoked} event. Requirements: - the caller must be `account`."
      },
      "revokeRole(bytes32,address)": {
        "details": "Revokes `role` from `account`. If `account` had been granted `role`, emits a {RoleRevoked} event. Requirements: - the caller must have ``role``'s admin role."
      },
      "shiftTokens(uint256,uint32,bool)": {
        "params": {
          "amountSyntheticTokensToShift": "Amount of tokens to shift.",
          "isShiftFromLong": "Whether the shift is from long to short or short to long.",
          "marketIndex": "Identifier for the market."
        }
      },
      "stakeFromUser(address,uint256)": {
        "params": {
          "amount": "Amount to stake.",
          "from": "Address to stake for."
        }
      },
      "supportsInterface(bytes4)": {
        "details": "See {IERC165-supportsInterface}."
      },
      "upgradeTo(address)": {
        "details": "Upgrade the implementation of the proxy to `newImplementation`. Calls {_authorizeUpgrade}. Emits an {Upgraded} event."
      },
      "upgradeToAndCall(address,bytes)": {
        "details": "Upgrade the implementation of the proxy to `newImplementation`, and subsequently execute the function call encoded in `data`. Calls {_authorizeUpgrade}. Emits an {Upgraded} event."
      },
      "withdraw(uint32,bool,uint256)": {
        "params": {
          "amount": "Amount to withdraw.",
          "isWithdrawFromLong": "is synthetic token to be withdrawn long or short",
          "marketIndex": "Market index of staked synthetic token"
        }
      },
      "withdrawAll(uint32,bool)": {
        "params": {
          "isWithdrawFromLong": "is synthetic token to be withdrawn long or short",
          "marketIndex": "Market index of staked synthetic token"
        }
      }
    },
    "stateVariables": {
      "userNextPrice_amountStakedSyntheticToken_toShiftAwayFrom": {
        "details": "marketIndex => usersAddress => amountUserRequestedToShiftAwayFromLongOnNextUpdate"
      },
      "userNextPrice_paymentToken_depositAmount": {
        "details": "marketIndex => usersAddress => stakedActionIndex"
      },
      "userNextPrice_stakedActionIndex": {
        "details": "marketIndex => usersAddress => stakedActionIndex"
      }
    },
    "version": 1
  },
  "userdoc": {
    "kind": "user",
    "methods": {
      "addNewStakingFund(uint32,address,address,uint256,uint256,uint256,uint256,int256)": {
        "notice": "Sets this contract to track staking for a market in LongShort.sol"
      },
      "changeBalanceIncentiveParameters(uint32,uint256,int256,uint256)": {
        "notice": "Changes the balance incentive exponent for a market"
      },
      "changeFloatPercentage(uint256)": {
        "notice": "Changes percentage of float that is minted for float capital."
      },
      "changeUnstakeFee(uint32,uint256)": {
        "notice": "Changes unstake fee for a market"
      },
      "claimFloatCustom(uint32[])": {
        "notice": "Mints outstanding float for msg.sender."
      },
      "claimFloatCustomFor(uint32[],address)": {
        "notice": "Mints outstanding float on behalf of another user."
      },
      "initialize(address,address,address,address,address,address,uint256,address)": {
        "notice": "Initializes the contract."
      },
      "pushUpdatedMarketPricesToUpdateFloatIssuanceCalculations(uint32,uint256,uint256,uint256,uint256,uint256)": {
        "notice": "Adds new accumulativeIssuancePerStakedSynthSnapshots for the given long/short tokens. Called by the ILongShort contract whenever there is a state change for a market."
      },
      "shiftTokens(uint256,uint32,bool)": {
        "notice": "Allows users to shift their staked tokens from one side of the market to the other at the next price."
      },
      "stakeFromUser(address,uint256)": {
        "notice": "A user with synthetic tokens stakes by calling stake on the token contract which calls this function. We need to first update the state of the LongShort contract for this market before staking to correctly calculate user rewards."
      },
      "withdraw(uint32,bool,uint256)": {
        "notice": "Withdraw function. Allows users to unstake."
      },
      "withdrawAll(uint32,bool)": {
        "notice": "Allows users to withdraw their entire stake for a token."
      }
    },
    "version": 1
  },
  "storageLayout": {
    "storage": [
      {
        "astId": 1102,
        "contract": "contracts/Staker.sol:Staker",
        "label": "_initialized",
        "offset": 0,
        "slot": "0",
        "type": "t_bool"
      },
      {
        "astId": 1105,
        "contract": "contracts/Staker.sol:Staker",
        "label": "_initializing",
        "offset": 1,
        "slot": "0",
        "type": "t_bool"
      },
      {
        "astId": 3571,
        "contract": "contracts/Staker.sol:Staker",
        "label": "__gap",
        "offset": 0,
        "slot": "1",
        "type": "t_array(t_uint256)50_storage"
      },
      {
        "astId": 4470,
        "contract": "contracts/Staker.sol:Staker",
        "label": "__gap",
        "offset": 0,
        "slot": "51",
        "type": "t_array(t_uint256)50_storage"
      },
      {
        "astId": 304,
        "contract": "contracts/Staker.sol:Staker",
        "label": "_roles",
        "offset": 0,
        "slot": "101",
        "type": "t_mapping(t_bytes32,t_struct(RoleData)299_storage)"
      },
      {
        "astId": 589,
        "contract": "contracts/Staker.sol:Staker",
        "label": "__gap",
        "offset": 0,
        "slot": "102",
        "type": "t_array(t_uint256)49_storage"
      },
      {
        "astId": 1085,
        "contract": "contracts/Staker.sol:Staker",
        "label": "__gap",
        "offset": 0,
        "slot": "151",
        "type": "t_array(t_uint256)50_storage"
      },
      {
        "astId": 1252,
        "contract": "contracts/Staker.sol:Staker",
        "label": "__gap",
        "offset": 0,
        "slot": "201",
        "type": "t_array(t_uint256)50_storage"
      },
      {
        "astId": 14067,
        "contract": "contracts/Staker.sol:Staker",
        "label": "floatCapital",
        "offset": 0,
        "slot": "251",
        "type": "t_address"
      },
      {
        "astId": 14069,
        "contract": "contracts/Staker.sol:Staker",
        "label": "floatTreasury",
        "offset": 0,
        "slot": "252",
        "type": "t_address"
      },
      {
        "astId": 14071,
        "contract": "contracts/Staker.sol:Staker",
        "label": "floatPercentage",
        "offset": 0,
        "slot": "253",
        "type": "t_uint256"
      },
      {
        "astId": 14073,
        "contract": "contracts/Staker.sol:Staker",
        "label": "longShort",
        "offset": 0,
        "slot": "254",
        "type": "t_address"
      },
      {
        "astId": 14075,
        "contract": "contracts/Staker.sol:Staker",
        "label": "floatToken",
        "offset": 0,
        "slot": "255",
        "type": "t_address"
      },
      {
        "astId": 14077,
        "contract": "contracts/Staker.sol:Staker",
        "label": "gems",
        "offset": 0,
        "slot": "256",
        "type": "t_address"
      },
      {
        "astId": 14081,
        "contract": "contracts/Staker.sol:Staker",
        "label": "__globalStateGap",
        "offset": 0,
        "slot": "257",
        "type": "t_array(t_uint256)45_storage"
      },
      {
        "astId": 14085,
        "contract": "contracts/Staker.sol:Staker",
        "label": "marketLaunchIncentive_period",
        "offset": 0,
        "slot": "302",
        "type": "t_mapping(t_uint32,t_uint256)"
      },
      {
        "astId": 14089,
        "contract": "contracts/Staker.sol:Staker",
        "label": "marketLaunchIncentive_multipliers",
        "offset": 0,
        "slot": "303",
        "type": "t_mapping(t_uint32,t_uint256)"
      },
      {
        "astId": 14093,
        "contract": "contracts/Staker.sol:Staker",
        "label": "marketUnstakeFee_e18",
        "offset": 0,
        "slot": "304",
        "type": "t_mapping(t_uint32,t_uint256)"
      },
      {
        "astId": 14097,
        "contract": "contracts/Staker.sol:Staker",
        "label": "balanceIncentiveCurve_exponent",
        "offset": 0,
        "slot": "305",
        "type": "t_mapping(t_uint32,t_uint256)"
      },
      {
        "astId": 14101,
        "contract": "contracts/Staker.sol:Staker",
        "label": "balanceIncentiveCurve_equilibriumOffset",
        "offset": 0,
        "slot": "306",
        "type": "t_mapping(t_uint32,t_int256)"
      },
      {
        "astId": 14105,
        "contract": "contracts/Staker.sol:Staker",
        "label": "safeExponentBitShifting",
        "offset": 0,
        "slot": "307",
        "type": "t_mapping(t_uint32,t_uint256)"
      },
      {
        "astId": 14111,
        "contract": "contracts/Staker.sol:Staker",
        "label": "syntheticTokens",
        "offset": 0,
        "slot": "308",
        "type": "t_mapping(t_uint32,t_mapping(t_bool,t_address))"
      },
      {
        "astId": 14115,
        "contract": "contracts/Staker.sol:Staker",
        "label": "__marketStateGap",
        "offset": 0,
        "slot": "309",
        "type": "t_array(t_uint256)45_storage"
      },
      {
        "astId": 14119,
        "contract": "contracts/Staker.sol:Staker",
        "label": "marketIndexOfToken",
        "offset": 0,
        "slot": "354",
        "type": "t_mapping(t_address,t_uint32)"
      },
      {
        "astId": 14123,
        "contract": "contracts/Staker.sol:Staker",
        "label": "userNonce",
        "offset": 0,
        "slot": "355",
        "type": "t_mapping(t_address,t_uint32)"
      },
      {
        "astId": 14127,
        "contract": "contracts/Staker.sol:Staker",
        "label": "__synthStateGap",
        "offset": 0,
        "slot": "356",
        "type": "t_array(t_uint256)45_storage"
      },
      {
        "astId": 14132,
        "contract": "contracts/Staker.sol:Staker",
        "label": "latestRewardIndex",
        "offset": 0,
        "slot": "401",
        "type": "t_mapping(t_uint32,t_uint256)"
      },
      {
        "astId": 14140,
        "contract": "contracts/Staker.sol:Staker",
        "label": "accumulativeFloatPerSyntheticTokenSnapshots",
        "offset": 0,
        "slot": "402",
        "type": "t_mapping(t_uint32,t_mapping(t_uint256,t_struct(AccumulativeIssuancePerStakedSynthSnapshot)14147_storage))"
      },
      {
        "astId": 14151,
        "contract": "contracts/Staker.sol:Staker",
        "label": "__rewardStateGap",
        "offset": 0,
        "slot": "403",
        "type": "t_array(t_uint256)45_storage"
      },
      {
        "astId": 14157,
        "contract": "contracts/Staker.sol:Staker",
        "label": "userIndexOfLastClaimedReward",
        "offset": 0,
        "slot": "448",
        "type": "t_mapping(t_uint32,t_mapping(t_address,t_uint256))"
      },
      {
        "astId": 14164,
        "contract": "contracts/Staker.sol:Staker",
        "label": "userAmountStaked",
        "offset": 0,
        "slot": "449",
        "type": "t_mapping(t_address,t_mapping(t_address,t_uint256))"
      },
      {
        "astId": 14168,
        "contract": "contracts/Staker.sol:Staker",
        "label": "__userStateGap",
        "offset": 0,
        "slot": "450",
        "type": "t_array(t_uint256)45_storage"
      },
      {
        "astId": 14175,
        "contract": "contracts/Staker.sol:Staker",
        "label": "userNextPrice_stakedActionIndex",
        "offset": 0,
        "slot": "495",
        "type": "t_mapping(t_uint32,t_mapping(t_address,t_uint256))"
      },
      {
        "astId": 14184,
        "contract": "contracts/Staker.sol:Staker",
        "label": "userNextPrice_amountStakedSyntheticToken_toShiftAwayFrom",
        "offset": 0,
        "slot": "496",
        "type": "t_mapping(t_uint32,t_mapping(t_bool,t_mapping(t_address,t_uint256)))"
      },
      {
        "astId": 14193,
        "contract": "contracts/Staker.sol:Staker",
        "label": "userNextPrice_paymentToken_depositAmount",
        "offset": 0,
        "slot": "497",
        "type": "t_mapping(t_uint32,t_mapping(t_bool,t_mapping(t_address,t_uint256)))"
      }
    ],
    "types": {
      "t_address": {
        "encoding": "inplace",
        "label": "address",
        "numberOfBytes": "20"
      },
      "t_array(t_uint256)45_storage": {
        "base": "t_uint256",
        "encoding": "inplace",
        "label": "uint256[45]",
        "numberOfBytes": "1440"
      },
      "t_array(t_uint256)49_storage": {
        "base": "t_uint256",
        "encoding": "inplace",
        "label": "uint256[49]",
        "numberOfBytes": "1568"
      },
      "t_array(t_uint256)50_storage": {
        "base": "t_uint256",
        "encoding": "inplace",
        "label": "uint256[50]",
        "numberOfBytes": "1600"
      },
      "t_bool": {
        "encoding": "inplace",
        "label": "bool",
        "numberOfBytes": "1"
      },
      "t_bytes32": {
        "encoding": "inplace",
        "label": "bytes32",
        "numberOfBytes": "32"
      },
      "t_int256": {
        "encoding": "inplace",
        "label": "int256",
        "numberOfBytes": "32"
      },
      "t_mapping(t_address,t_bool)": {
        "encoding": "mapping",
        "key": "t_address",
        "label": "mapping(address => bool)",
        "numberOfBytes": "32",
        "value": "t_bool"
      },
      "t_mapping(t_address,t_mapping(t_address,t_uint256))": {
        "encoding": "mapping",
        "key": "t_address",
        "label": "mapping(address => mapping(address => uint256))",
        "numberOfBytes": "32",
        "value": "t_mapping(t_address,t_uint256)"
      },
      "t_mapping(t_address,t_uint256)": {
        "encoding": "mapping",
        "key": "t_address",
        "label": "mapping(address => uint256)",
        "numberOfBytes": "32",
        "value": "t_uint256"
      },
      "t_mapping(t_address,t_uint32)": {
        "encoding": "mapping",
        "key": "t_address",
        "label": "mapping(address => uint32)",
        "numberOfBytes": "32",
        "value": "t_uint32"
      },
      "t_mapping(t_bool,t_address)": {
        "encoding": "mapping",
        "key": "t_bool",
        "label": "mapping(bool => address)",
        "numberOfBytes": "32",
        "value": "t_address"
      },
      "t_mapping(t_bool,t_mapping(t_address,t_uint256))": {
        "encoding": "mapping",
        "key": "t_bool",
        "label": "mapping(bool => mapping(address => uint256))",
        "numberOfBytes": "32",
        "value": "t_mapping(t_address,t_uint256)"
      },
      "t_mapping(t_bytes32,t_struct(RoleData)299_storage)": {
        "encoding": "mapping",
        "key": "t_bytes32",
        "label": "mapping(bytes32 => struct AccessControlUpgradeable.RoleData)",
        "numberOfBytes": "32",
        "value": "t_struct(RoleData)299_storage"
      },
      "t_mapping(t_uint256,t_struct(AccumulativeIssuancePerStakedSynthSnapshot)14147_storage)": {
        "encoding": "mapping",
        "key": "t_uint256",
        "label": "mapping(uint256 => struct Staker.AccumulativeIssuancePerStakedSynthSnapshot)",
        "numberOfBytes": "32",
        "value": "t_struct(AccumulativeIssuancePerStakedSynthSnapshot)14147_storage"
      },
      "t_mapping(t_uint32,t_int256)": {
        "encoding": "mapping",
        "key": "t_uint32",
        "label": "mapping(uint32 => int256)",
        "numberOfBytes": "32",
        "value": "t_int256"
      },
      "t_mapping(t_uint32,t_mapping(t_address,t_uint256))": {
        "encoding": "mapping",
        "key": "t_uint32",
        "label": "mapping(uint32 => mapping(address => uint256))",
        "numberOfBytes": "32",
        "value": "t_mapping(t_address,t_uint256)"
      },
      "t_mapping(t_uint32,t_mapping(t_bool,t_address))": {
        "encoding": "mapping",
        "key": "t_uint32",
        "label": "mapping(uint32 => mapping(bool => address))",
        "numberOfBytes": "32",
        "value": "t_mapping(t_bool,t_address)"
      },
      "t_mapping(t_uint32,t_mapping(t_bool,t_mapping(t_address,t_uint256)))": {
        "encoding": "mapping",
        "key": "t_uint32",
        "label": "mapping(uint32 => mapping(bool => mapping(address => uint256)))",
        "numberOfBytes": "32",
        "value": "t_mapping(t_bool,t_mapping(t_address,t_uint256))"
      },
      "t_mapping(t_uint32,t_mapping(t_uint256,t_struct(AccumulativeIssuancePerStakedSynthSnapshot)14147_storage))": {
        "encoding": "mapping",
        "key": "t_uint32",
        "label": "mapping(uint32 => mapping(uint256 => struct Staker.AccumulativeIssuancePerStakedSynthSnapshot))",
        "numberOfBytes": "32",
        "value": "t_mapping(t_uint256,t_struct(AccumulativeIssuancePerStakedSynthSnapshot)14147_storage)"
      },
      "t_mapping(t_uint32,t_uint256)": {
        "encoding": "mapping",
        "key": "t_uint32",
        "label": "mapping(uint32 => uint256)",
        "numberOfBytes": "32",
        "value": "t_uint256"
      },
      "t_struct(AccumulativeIssuancePerStakedSynthSnapshot)14147_storage": {
        "encoding": "inplace",
        "label": "struct Staker.AccumulativeIssuancePerStakedSynthSnapshot",
        "members": [
          {
            "astId": 14142,
            "contract": "contracts/Staker.sol:Staker",
            "label": "timestamp",
            "offset": 0,
            "slot": "0",
            "type": "t_uint256"
          },
          {
            "astId": 14144,
            "contract": "contracts/Staker.sol:Staker",
            "label": "accumulativeFloatPerSyntheticToken_long",
            "offset": 0,
            "slot": "1",
            "type": "t_uint256"
          },
          {
            "astId": 14146,
            "contract": "contracts/Staker.sol:Staker",
            "label": "accumulativeFloatPerSyntheticToken_short",
            "offset": 0,
            "slot": "2",
            "type": "t_uint256"
          }
        ],
        "numberOfBytes": "96"
      },
      "t_struct(RoleData)299_storage": {
        "encoding": "inplace",
        "label": "struct AccessControlUpgradeable.RoleData",
        "members": [
          {
            "astId": 296,
            "contract": "contracts/Staker.sol:Staker",
            "label": "members",
            "offset": 0,
            "slot": "0",
            "type": "t_mapping(t_address,t_bool)"
          },
          {
            "astId": 298,
            "contract": "contracts/Staker.sol:Staker",
            "label": "adminRole",
            "offset": 0,
            "slot": "1",
            "type": "t_bytes32"
          }
        ],
        "numberOfBytes": "64"
      },
      "t_uint256": {
        "encoding": "inplace",
        "label": "uint256",
        "numberOfBytes": "32"
      },
      "t_uint32": {
        "encoding": "inplace",
        "label": "uint32",
        "numberOfBytes": "4"
      }
    }
  }
}