{
  "address": "0xF204c0961a2C46AC35A1dFaB4432922b75DF631d",
  "abi": [
    {
      "inputs": [
        {
          "internalType": "string",
          "name": "message",
          "type": "string"
        },
        {
          "internalType": "uint256",
          "name": "errorCode",
          "type": "uint256"
        }
      ],
      "name": "CompoundError",
      "type": "error"
    },
    {
      "anonymous": false,
      "inputs": [
        {
          "indexed": false,
          "internalType": "address",
          "name": "previousAdmin",
          "type": "address"
        },
        {
          "indexed": false,
          "internalType": "address",
          "name": "newAdmin",
          "type": "address"
        }
      ],
      "name": "AdminChanged",
      "type": "event"
    },
    {
      "anonymous": false,
      "inputs": [
        {
          "indexed": true,
          "internalType": "address",
          "name": "beacon",
          "type": "address"
        }
      ],
      "name": "BeaconUpgraded",
      "type": "event"
    },
    {
      "anonymous": false,
      "inputs": [
        {
          "indexed": false,
          "internalType": "uint256",
          "name": "amount",
          "type": "uint256"
        }
      ],
      "name": "ClaimAaveRewardTokenToTreasury",
      "type": "event"
    },
    {
      "anonymous": false,
      "inputs": [
        {
          "indexed": true,
          "internalType": "bytes32",
          "name": "role",
          "type": "bytes32"
        },
        {
          "indexed": true,
          "internalType": "bytes32",
          "name": "previousAdminRole",
          "type": "bytes32"
        },
        {
          "indexed": true,
          "internalType": "bytes32",
          "name": "newAdminRole",
          "type": "bytes32"
        }
      ],
      "name": "RoleAdminChanged",
      "type": "event"
    },
    {
      "anonymous": false,
      "inputs": [
        {
          "indexed": true,
          "internalType": "bytes32",
          "name": "role",
          "type": "bytes32"
        },
        {
          "indexed": true,
          "internalType": "address",
          "name": "account",
          "type": "address"
        },
        {
          "indexed": true,
          "internalType": "address",
          "name": "sender",
          "type": "address"
        }
      ],
      "name": "RoleGranted",
      "type": "event"
    },
    {
      "anonymous": false,
      "inputs": [
        {
          "indexed": true,
          "internalType": "bytes32",
          "name": "role",
          "type": "bytes32"
        },
        {
          "indexed": true,
          "internalType": "address",
          "name": "account",
          "type": "address"
        },
        {
          "indexed": true,
          "internalType": "address",
          "name": "sender",
          "type": "address"
        }
      ],
      "name": "RoleRevoked",
      "type": "event"
    },
    {
      "anonymous": false,
      "inputs": [
        {
          "indexed": true,
          "internalType": "address",
          "name": "implementation",
          "type": "address"
        }
      ],
      "name": "Upgraded",
      "type": "event"
    },
    {
      "anonymous": false,
      "inputs": [],
      "name": "WithdrawTreasuryFunds",
      "type": "event"
    },
    {
      "anonymous": false,
      "inputs": [
        {
          "indexed": false,
          "internalType": "uint256",
          "name": "unrealizedYield",
          "type": "uint256"
        },
        {
          "indexed": false,
          "internalType": "uint256",
          "name": "treasuryYieldPercent_e18",
          "type": "uint256"
        }
      ],
      "name": "YieldDistributed",
      "type": "event"
    },
    {
      "inputs": [],
      "name": "ADMIN_ROLE",
      "outputs": [
        {
          "internalType": "bytes32",
          "name": "",
          "type": "bytes32"
        }
      ],
      "stateMutability": "view",
      "type": "function"
    },
    {
      "inputs": [],
      "name": "DEFAULT_ADMIN_ROLE",
      "outputs": [
        {
          "internalType": "bytes32",
          "name": "",
          "type": "bytes32"
        }
      ],
      "stateMutability": "view",
      "type": "function"
    },
    {
      "inputs": [],
      "name": "UPGRADER_ROLE",
      "outputs": [
        {
          "internalType": "bytes32",
          "name": "",
          "type": "bytes32"
        }
      ],
      "stateMutability": "view",
      "type": "function"
    },
    {
      "inputs": [],
      "name": "amountReservedInCaseOfInsufficientYieldProviderLiquidity",
      "outputs": [
        {
          "internalType": "uint256",
          "name": "",
          "type": "uint256"
        }
      ],
      "stateMutability": "view",
      "type": "function"
    },
    {
      "inputs": [],
      "name": "cToken",
      "outputs": [
        {
          "internalType": "contract CErc20",
          "name": "",
          "type": "address"
        }
      ],
      "stateMutability": "view",
      "type": "function"
    },
    {
      "inputs": [
        {
          "internalType": "uint256",
          "name": "amount",
          "type": "uint256"
        }
      ],
      "name": "depositPaymentToken",
      "outputs": [],
      "stateMutability": "nonpayable",
      "type": "function"
    },
    {
      "inputs": [
        {
          "internalType": "uint256",
          "name": "totalValueRealizedForMarket",
          "type": "uint256"
        },
        {
          "internalType": "uint256",
          "name": "treasuryYieldPercent_e18",
          "type": "uint256"
        }
      ],
      "name": "distributeYieldForTreasuryAndReturnMarketAllocation",
      "outputs": [
        {
          "internalType": "uint256",
          "name": "",
          "type": "uint256"
        }
      ],
      "stateMutability": "nonpayable",
      "type": "function"
    },
    {
      "inputs": [
        {
          "internalType": "bytes32",
          "name": "role",
          "type": "bytes32"
        }
      ],
      "name": "getRoleAdmin",
      "outputs": [
        {
          "internalType": "bytes32",
          "name": "",
          "type": "bytes32"
        }
      ],
      "stateMutability": "view",
      "type": "function"
    },
    {
      "inputs": [
        {
          "internalType": "bytes32",
          "name": "role",
          "type": "bytes32"
        },
        {
          "internalType": "address",
          "name": "account",
          "type": "address"
        }
      ],
      "name": "grantRole",
      "outputs": [],
      "stateMutability": "nonpayable",
      "type": "function"
    },
    {
      "inputs": [
        {
          "internalType": "bytes32",
          "name": "role",
          "type": "bytes32"
        },
        {
          "internalType": "address",
          "name": "account",
          "type": "address"
        }
      ],
      "name": "hasRole",
      "outputs": [
        {
          "internalType": "bool",
          "name": "",
          "type": "bool"
        }
      ],
      "stateMutability": "view",
      "type": "function"
    },
    {
      "inputs": [
        {
          "internalType": "address",
          "name": "_longShort",
          "type": "address"
        },
        {
          "internalType": "address",
          "name": "_treasury",
          "type": "address"
        },
        {
          "internalType": "address",
          "name": "_paymentToken",
          "type": "address"
        },
        {
          "internalType": "address",
          "name": "_cToken",
          "type": "address"
        },
        {
          "internalType": "address",
          "name": "_admin",
          "type": "address"
        }
      ],
      "name": "initialize",
      "outputs": [],
      "stateMutability": "nonpayable",
      "type": "function"
    },
    {
      "inputs": [],
      "name": "initializeForMarket",
      "outputs": [],
      "stateMutability": "nonpayable",
      "type": "function"
    },
    {
      "inputs": [],
      "name": "isInitialized",
      "outputs": [
        {
          "internalType": "bool",
          "name": "",
          "type": "bool"
        }
      ],
      "stateMutability": "view",
      "type": "function"
    },
    {
      "inputs": [],
      "name": "longShort",
      "outputs": [
        {
          "internalType": "address",
          "name": "",
          "type": "address"
        }
      ],
      "stateMutability": "view",
      "type": "function"
    },
    {
      "inputs": [],
      "name": "paymentToken",
      "outputs": [
        {
          "internalType": "contract IERC20",
          "name": "",
          "type": "address"
        }
      ],
      "stateMutability": "view",
      "type": "function"
    },
    {
      "inputs": [],
      "name": "paymentTokenNotInYieldManager",
      "outputs": [
        {
          "internalType": "uint256",
          "name": "",
          "type": "uint256"
        }
      ],
      "stateMutability": "view",
      "type": "function"
    },
    {
      "inputs": [
        {
          "internalType": "uint256",
          "name": "amount",
          "type": "uint256"
        }
      ],
      "name": "removePaymentTokenFromMarket",
      "outputs": [],
      "stateMutability": "nonpayable",
      "type": "function"
    },
    {
      "inputs": [
        {
          "internalType": "bytes32",
          "name": "role",
          "type": "bytes32"
        },
        {
          "internalType": "address",
          "name": "account",
          "type": "address"
        }
      ],
      "name": "renounceRole",
      "outputs": [],
      "stateMutability": "nonpayable",
      "type": "function"
    },
    {
      "inputs": [
        {
          "internalType": "bytes32",
          "name": "role",
          "type": "bytes32"
        },
        {
          "internalType": "address",
          "name": "account",
          "type": "address"
        }
      ],
      "name": "revokeRole",
      "outputs": [],
      "stateMutability": "nonpayable",
      "type": "function"
    },
    {
      "inputs": [
        {
          "internalType": "bytes4",
          "name": "interfaceId",
          "type": "bytes4"
        }
      ],
      "name": "supportsInterface",
      "outputs": [
        {
          "internalType": "bool",
          "name": "",
          "type": "bool"
        }
      ],
      "stateMutability": "view",
      "type": "function"
    },
    {
      "inputs": [],
      "name": "totalReservedForTreasury",
      "outputs": [
        {
          "internalType": "uint256",
          "name": "",
          "type": "uint256"
        }
      ],
      "stateMutability": "view",
      "type": "function"
    },
    {
      "inputs": [
        {
          "internalType": "address",
          "name": "user",
          "type": "address"
        },
        {
          "internalType": "uint256",
          "name": "amount",
          "type": "uint256"
        }
      ],
      "name": "transferPaymentTokensToUser",
      "outputs": [],
      "stateMutability": "nonpayable",
      "type": "function"
    },
    {
      "inputs": [],
      "name": "treasury",
      "outputs": [
        {
          "internalType": "address",
          "name": "",
          "type": "address"
        }
      ],
      "stateMutability": "view",
      "type": "function"
    },
    {
      "inputs": [
        {
          "internalType": "address",
          "name": "newImplementation",
          "type": "address"
        }
      ],
      "name": "upgradeTo",
      "outputs": [],
      "stateMutability": "nonpayable",
      "type": "function"
    },
    {
      "inputs": [
        {
          "internalType": "address",
          "name": "newImplementation",
          "type": "address"
        },
        {
          "internalType": "bytes",
          "name": "data",
          "type": "bytes"
        }
      ],
      "name": "upgradeToAndCall",
      "outputs": [],
      "stateMutability": "payable",
      "type": "function"
    },
    {
      "inputs": [],
      "name": "withdrawTreasuryFunds",
      "outputs": [],
      "stateMutability": "nonpayable",
      "type": "function"
    }
  ],
  "transactionHash": "0xc61706146d59fd10af15e195aad191b771217ba92b17fcc19db54aeccac4e8fd",
  "args": [],
  "solcInputHash": "e3eee6b04df9ab3134f28472afac17d9",
  "bytecode": "0x60a06040523060805234801561001457600080fd5b50608051612158610045600039600081816107b5015281816107f50152818161094a015261098a01526121586000f3fe6080604052600436106101815760003560e01c806361d027b3116100d1578063a217fddf1161008a578063e622494711610064578063e622494714610472578063eb6bffa214610489578063edf565cc146104a9578063f72c0d8b146104be57600080fd5b8063a217fddf14610426578063ac76456c1461043b578063d547741f1461045257600080fd5b806361d027b31461035257806369e527da1461037257806375b238fc146103925780638a5599b2146103c65780639063ee20146103e657806391d148541461040657600080fd5b80632f2ff15d1161013e5780633659cfe6116101185780633659cfe6146102e9578063392e53cd14610309578063447479db1461032a5780634f1ef2861461033f57600080fd5b80632f2ff15d146102895780633013ce29146102a957806336568abe146102c957600080fd5b806301ffc9a7146101865780631459457a146101bb5780631c499b55146101dd5780632429e535146101fd578063248a9ca3146102215780632994987214610251575b600080fd5b34801561019257600080fd5b506101a66101a1366004611b3c565b6104f2565b60405190151581526020015b60405180910390f35b3480156101c757600080fd5b506101db6101d6366004611b82565b610529565b005b3480156101e957600080fd5b506101db6101f8366004611be7565b61062b565b34801561020957600080fd5b5061021360ff5481565b6040519081526020016101b2565b34801561022d57600080fd5b5061021361023c366004611be7565b60009081526065602052604090206001015490565b34801561025d57600080fd5b5060fb54610271906001600160a01b031681565b6040516001600160a01b0390911681526020016101b2565b34801561029557600080fd5b506101db6102a4366004611c00565b61070a565b3480156102b557600080fd5b5060fd54610271906001600160a01b031681565b3480156102d557600080fd5b506101db6102e4366004611c00565b610730565b3480156102f557600080fd5b506101db610304366004611c2c565b6107aa565b34801561031557600080fd5b5060fc546101a690600160a01b900460ff1681565b34801561033657600080fd5b506101db610873565b6101db61034d366004611c5d565b61093f565b34801561035e57600080fd5b5060fc54610271906001600160a01b031681565b34801561037e57600080fd5b5060fe54610271906001600160a01b031681565b34801561039e57600080fd5b506102137fa49807205ce4d355092ef5a8a18f56e8913cf4a201fbe287825b095693c2177581565b3480156103d257600080fd5b506102136103e1366004611d1f565b6109f5565b3480156103f257600080fd5b506101db610401366004611be7565b610b67565b34801561041257600080fd5b506101a6610421366004611c00565b610cf2565b34801561043257600080fd5b50610213600081565b34801561044757600080fd5b506102136101005481565b34801561045e57600080fd5b506101db61046d366004611c00565b610d1d565b34801561047e57600080fd5b5061021361012e5481565b34801561049557600080fd5b506101db6104a4366004611d41565b610d43565b3480156104b557600080fd5b506101db610e4f565b3480156104ca57600080fd5b506102137f189ab7a9244df0848122154315af71fe140f3db0fe014031783b0946b8c9d2e381565b60006001600160e01b03198216637965db0b60e01b148061052357506301ffc9a760e01b6001600160e01b03198316145b92915050565b600054610100900460ff166105445760005460ff1615610548565b303b155b61056d5760405162461bcd60e51b815260040161056490611d6b565b60405180910390fd5b600054610100900460ff1615801561058f576000805461ffff19166101011790555b61059c8686868686610ee8565b60405163095ea7b360e01b81526001600160a01b038481166004830152600019602483015285169063095ea7b3906044016020604051808303816000875af11580156105ec573d6000803e3d6000fd5b505050506040513d601f19601f820116820180604052508101906106109190611db9565b508015610623576000805461ff00191690555b505050505050565b60fb546001600160a01b031633146106555760405162461bcd60e51b815260040161056490611ddb565b61012e54818110156106f75760fe5460405163852a12e360e01b8152600481018490526000916001600160a01b03169063852a12e3906024016020604051808303816000875af11580156106ad573d6000803e3d6000fd5b505050506040513d601f19601f820116820180604052508101906106d19190611e02565b905080156106f2578261010060008282546106ec9190611e31565b90915550505b505050565b6107018282611e49565b61012e555b5050565b600082815260656020526040902060010154610726813361102c565b6106f28383611090565b6001600160a01b03811633146107a05760405162461bcd60e51b815260206004820152602f60248201527f416363657373436f6e74726f6c3a2063616e206f6e6c792072656e6f756e636560448201526e103937b632b9903337b91039b2b63360891b6064820152608401610564565b6107068282611116565b306001600160a01b037f00000000000000000000000000000000000000000000000000000000000000001614156107f35760405162461bcd60e51b815260040161056490611e60565b7f00000000000000000000000000000000000000000000000000000000000000006001600160a01b031661082561117d565b6001600160a01b03161461084b5760405162461bcd60e51b815260040161056490611eac565b610854816111ab565b60408051600080825260208201909252610870918391906111d6565b50565b60ff805460009182905560fe5460405163852a12e360e01b8152600481018390529192916001600160a01b039091169063852a12e3906024016020604051808303816000875af11580156108cb573d6000803e3d6000fd5b505050506040513d601f19601f820116820180604052508101906108ef9190611e02565b905080156109125780604051633c93df3360e11b81526004016105649190611ef8565b6040517f5b1d5b57337c7653ccd178787bc6e5aa6f8a6ee09b781e7a624d776e69d044cb90600090a15050565b306001600160a01b037f00000000000000000000000000000000000000000000000000000000000000001614156109885760405162461bcd60e51b815260040161056490611e60565b7f00000000000000000000000000000000000000000000000000000000000000006001600160a01b03166109ba61117d565b6001600160a01b0316146109e05760405162461bcd60e51b815260040161056490611eac565b6109e9826111ab565b610706828260016111d6565b60fb546000906001600160a01b03163314610a225760405162461bcd60e51b815260040161056490611ddb565b61012e5460fe54604051633af9e66960e01b8152306004820152600092916001600160a01b031690633af9e669906024016020604051808303816000875af1158015610a72573d6000803e3d6000fd5b505050506040513d601f19601f82011682018060405250810190610a969190611e02565b610aa09190611e31565b60ff546101005491925090600090610ab88388611e31565b610ac29190611e31565b905082811415610ad85760009350505050610523565b6000610ae48285611e49565b90506000670de0b6b3a7640000610afb8884611f4e565b610b059190611f6d565b90506000610b138284611e49565b9050610b1f8286611e31565b60ff5560408051848152602081018a90527ffe4996cd48c364c468cee70dd6b9061874ff01b05c5ea49311cbcabd9b9cb615910160405180910390a198975050505050505050565b60fb546001600160a01b03163314610b915760405162461bcd60e51b815260040161056490611ddb565b6101005415610bd957806101005410610bc257806101006000828254610bb79190611e49565b909155506108709050565b61010054610bd09082611e49565b60006101005590505b60008161012e54610bea9190611e31565b9050678ac7230489e80000811015610c035761012e5550565b671bc16d674ec8000061012e5560fe546000906001600160a01b031663a0712d68671bc16d674ec80000610c379085611e49565b6040518263ffffffff1660e01b8152600401610c5591815260200190565b6020604051808303816000875af1158015610c74573d6000803e3d6000fd5b505050506040513d601f19601f82011682018060405250810190610c989190611e02565b905080156106f25760408051633c93df3360e11b81526004810191909152601f60448201527f556e61626c6520746f206465706f73697420696e746f20636f6d706f756e6400606482015260248101829052608401610564565b60009182526065602090815260408084206001600160a01b0393909316845291905290205460ff1690565b600082815260656020526040902060010154610d39813361102c565b6106f28383611116565b60fb546001600160a01b03163314610d6d5760405162461bcd60e51b815260040161056490611ddb565b60fd54610d84906001600160a01b03168383611321565b15610d8d575050565b806101006000828254610da09190611e49565b909155505060fe5460405163852a12e360e01b8152600481018390526000916001600160a01b03169063852a12e3906024016020604051808303816000875af1158015610df1573d6000803e3d6000fd5b505050506040513d601f19601f82011682018060405250810190610e159190611e02565b90508015610e385780604051633c93df3360e11b81526004016105649190611ef8565b60fd546106f2906001600160a01b031684846113a6565b60fb546001600160a01b03163314610e795760405162461bcd60e51b815260040161056490611ddb565b60fc54600160a01b900460ff1615610ed35760405162461bcd60e51b815260206004820152601f60248201527f5969656c64204d616e6167657220697320616c726561647920696e20757365006044820152606401610564565b60fc805460ff60a01b1916600160a01b179055565b600054610100900460ff16610f035760005460ff1615610f07565b303b155b610f235760405162461bcd60e51b815260040161056490611d6b565b600054610100900460ff16158015610f45576000805461ffff19166101011790555b6001600160a01b03861615801590610f6557506001600160a01b03851615155b8015610f7957506001600160a01b03841615155b8015610f8d57506001600160a01b03831615155b8015610fa157506001600160a01b03821615155b610faa57600080fd5b60fb80546001600160a01b038089166001600160a01b03199283161790925560fc805492881692909116919091179055610fe3826113f8565b60fd80546001600160a01b038087166001600160a01b03199283161790925560fe8054928616929091169190911790558015610623576000805461ff0019169055505050505050565b6110368282610cf2565b6107065761104e816001600160a01b03166014611483565b611059836020611483565b60405160200161106a929190611fbf565b60408051601f198184030181529082905262461bcd60e51b825261056491600401612034565b61109a8282610cf2565b6107065760008281526065602090815260408083206001600160a01b03851684529091529020805460ff191660011790556110d23390565b6001600160a01b0316816001600160a01b0316837f2f8788117e7eff1d82e926ec794901d17c78024a50270940304540a733656f0d60405160405180910390a45050565b6111208282610cf2565b156107065760008281526065602090815260408083206001600160a01b0385168085529252808320805460ff1916905551339285917ff6391f5c32d9c69d2a47ea670b442974b53935d1edc7fd64eb21e047a839171b9190a45050565b7f360894a13ba1a3210667c828492db98dca3e2076cc3735a920a3ca505d382bbc546001600160a01b031690565b7f189ab7a9244df0848122154315af71fe140f3db0fe014031783b0946b8c9d2e3610706813361102c565b60006111e061117d565b90506111eb8461161f565b6000835111806111f85750815b156112095761120784846116c4565b505b7f4910fdfa16fed3260ed0e7147f7cc6da11a60208b5b9406d12a635614ffd9143805460ff1661131a57805460ff191660011781556040516001600160a01b038316602482015261128890869060440160408051601f198184030181529190526020810180516001600160e01b0316631b2ce7f360e11b1790526116c4565b50805460ff1916815561129961117d565b6001600160a01b0316826001600160a01b0316146113115760405162461bcd60e51b815260206004820152602f60248201527f45524331393637557067726164653a207570677261646520627265616b73206660448201526e75727468657220757067726164657360881b6064820152608401610564565b61131a856117af565b5050505050565b60405163a9059cbb60e01b81526001600160a01b038381166004830152602482018390526000919085169063a9059cbb906044016020604051808303816000875af1925050508015611390575060408051601f3d908101601f1916820190925261138d91810190611db9565b60015b61139c5750600061139f565b90505b9392505050565b604080516001600160a01b038416602482015260448082018490528251808303909101815260649091019091526020810180516001600160e01b031663a9059cbb60e01b1790526106f29084906117ef565b600054610100900460ff166114135760005460ff1615611417565b303b155b6114335760405162461bcd60e51b815260040161056490611d6b565b600054610100900460ff16158015611455576000805461ffff19166101011790555b61145d6118c1565b611465611902565b61146e82611929565b8015610706576000805461ff00191690555050565b60606000611492836002611f4e565b61149d906002611e31565b67ffffffffffffffff8111156114b5576114b5611c47565b6040519080825280601f01601f1916602001820160405280156114df576020820181803683370190505b509050600360fc1b816000815181106114fa576114fa612067565b60200101906001600160f81b031916908160001a905350600f60fb1b8160018151811061152957611529612067565b60200101906001600160f81b031916908160001a905350600061154d846002611f4e565b611558906001611e31565b90505b60018111156115d0576f181899199a1a9b1b9c1cb0b131b232b360811b85600f166010811061158c5761158c612067565b1a60f81b8282815181106115a2576115a2612067565b60200101906001600160f81b031916908160001a90535060049490941c936115c98161207d565b905061155b565b50831561139f5760405162461bcd60e51b815260206004820181905260248201527f537472696e67733a20686578206c656e67746820696e73756666696369656e746044820152606401610564565b803b6116835760405162461bcd60e51b815260206004820152602d60248201527f455243313936373a206e657720696d706c656d656e746174696f6e206973206e60448201526c1bdd08184818dbdb9d1c9858dd609a1b6064820152608401610564565b7f360894a13ba1a3210667c828492db98dca3e2076cc3735a920a3ca505d382bbc80546001600160a01b0319166001600160a01b0392909216919091179055565b6060823b6117235760405162461bcd60e51b815260206004820152602660248201527f416464726573733a2064656c65676174652063616c6c20746f206e6f6e2d636f6044820152651b9d1c9858dd60d21b6064820152608401610564565b600080846001600160a01b03168460405161173e9190612094565b600060405180830381855af49150503d8060008114611779576040519150601f19603f3d011682016040523d82523d6000602084013e61177e565b606091505b50915091506117a682826040518060600160405280602781526020016120fc6027913961199b565b95945050505050565b6117b88161161f565b6040516001600160a01b038216907fbc7cd75a20ee27fd9adebab32041f755214dbc6bffa90cc0225b39da2e5c2d3b90600090a250565b6000611844826040518060400160405280602081526020017f5361666545524332303a206c6f772d6c6576656c2063616c6c206661696c6564815250856001600160a01b03166119d49092919063ffffffff16565b8051909150156106f257808060200190518101906118629190611db9565b6106f25760405162461bcd60e51b815260206004820152602a60248201527f5361666545524332303a204552433230206f7065726174696f6e20646964206e6044820152691bdd081cdd58d8d9595960b21b6064820152608401610564565b600054610100900460ff166118e85760405162461bcd60e51b8152600401610564906120b0565b6118f06119e3565b6118f86119e3565b6119006119e3565b565b600054610100900460ff166118f05760405162461bcd60e51b8152600401610564906120b0565b6001600160a01b03811661193c57600080fd5b611947600082611a0a565b6119717fa49807205ce4d355092ef5a8a18f56e8913cf4a201fbe287825b095693c2177582611a0a565b6108707f189ab7a9244df0848122154315af71fe140f3db0fe014031783b0946b8c9d2e382611a0a565b606083156119aa57508161139f565b8251156119ba5782518084602001fd5b8160405162461bcd60e51b81526004016105649190612034565b606061139c8484600085611a14565b600054610100900460ff166119005760405162461bcd60e51b8152600401610564906120b0565b6107068282611090565b606082471015611a755760405162461bcd60e51b815260206004820152602660248201527f416464726573733a20696e73756666696369656e742062616c616e636520666f6044820152651c8818d85b1b60d21b6064820152608401610564565b843b611ac35760405162461bcd60e51b815260206004820152601d60248201527f416464726573733a2063616c6c20746f206e6f6e2d636f6e74726163740000006044820152606401610564565b600080866001600160a01b03168587604051611adf9190612094565b60006040518083038185875af1925050503d8060008114611b1c576040519150601f19603f3d011682016040523d82523d6000602084013e611b21565b606091505b5091509150611b3182828661199b565b979650505050505050565b600060208284031215611b4e57600080fd5b81356001600160e01b03198116811461139f57600080fd5b80356001600160a01b0381168114611b7d57600080fd5b919050565b600080600080600060a08688031215611b9a57600080fd5b611ba386611b66565b9450611bb160208701611b66565b9350611bbf60408701611b66565b9250611bcd60608701611b66565b9150611bdb60808701611b66565b90509295509295909350565b600060208284031215611bf957600080fd5b5035919050565b60008060408385031215611c1357600080fd5b82359150611c2360208401611b66565b90509250929050565b600060208284031215611c3e57600080fd5b61139f82611b66565b634e487b7160e01b600052604160045260246000fd5b60008060408385031215611c7057600080fd5b611c7983611b66565b9150602083013567ffffffffffffffff80821115611c9657600080fd5b818501915085601f830112611caa57600080fd5b813581811115611cbc57611cbc611c47565b604051601f8201601f19908116603f01168101908382118183101715611ce457611ce4611c47565b81604052828152886020848701011115611cfd57600080fd5b8260208601602083013760006020848301015280955050505050509250929050565b60008060408385031215611d3257600080fd5b50508035926020909101359150565b60008060408385031215611d5457600080fd5b611d5d83611b66565b946020939093013593505050565b6020808252602e908201527f496e697469616c697a61626c653a20636f6e747261637420697320616c72656160408201526d191e481a5b9a5d1a585b1a5e995960921b606082015260800190565b600060208284031215611dcb57600080fd5b8151801515811461139f57600080fd5b6020808252600d908201526c139bdd081b1bdb99d4da1bdc9d609a1b604082015260600190565b600060208284031215611e1457600080fd5b5051919050565b634e487b7160e01b600052601160045260246000fd5b60008219821115611e4457611e44611e1b565b500190565b600082821015611e5b57611e5b611e1b565b500390565b6020808252602c908201527f46756e6374696f6e206d7573742062652063616c6c6564207468726f7567682060408201526b19195b1959d85d1958d85b1b60a21b606082015260800190565b6020808252602c908201527f46756e6374696f6e206d7573742062652063616c6c6564207468726f7567682060408201526b6163746976652070726f787960a01b606082015260800190565b6040808252602e908201527f556e61626c6520746f2072656465656d20726571756972656420616d6f756e7460608201526d08199c9bdb4818dbdb5c1bdd5b9d60921b6080820152602081019190915260a00190565b6000816000190483118215151615611f6857611f68611e1b565b500290565b600082611f8a57634e487b7160e01b600052601260045260246000fd5b500490565b60005b83811015611faa578181015183820152602001611f92565b83811115611fb9576000848401525b50505050565b7f416363657373436f6e74726f6c3a206163636f756e7420000000000000000000815260008351611ff7816017850160208801611f8f565b7001034b99036b4b9b9b4b733903937b6329607d1b6017918401918201528351612028816028840160208801611f8f565b01602801949350505050565b6020815260008251806020840152612053816040850160208701611f8f565b601f01601f19169190910160400192915050565b634e487b7160e01b600052603260045260246000fd5b60008161208c5761208c611e1b565b506000190190565b600082516120a6818460208701611f8f565b9190910192915050565b6020808252602b908201527f496e697469616c697a61626c653a20636f6e7472616374206973206e6f74206960408201526a6e697469616c697a696e6760a81b60608201526080019056fe416464726573733a206c6f772d6c6576656c2064656c65676174652063616c6c206661696c6564a264697066735822122020188d4b79f275e1d8cebf8a73246935d430220d23fdad1765c0884c846a4bf264736f6c634300080a0033",
  "devdoc": {
    "kind": "dev",
    "methods": {
      "depositPaymentToken(uint256)": {
        "params": {
          "amount": "Amount of payment token to deposit"
        }
      },
      "distributeYieldForTreasuryAndReturnMarketAllocation(uint256,uint256)": {
        "details": "treasuryPercent = 1 - marketPercent",
        "params": {
          "totalValueRealizedForMarket": "total value of long and short side of the market",
          "treasuryYieldPercent_e18": "Percentage of yield in base 1e18 that is allocated to the treasury"
        },
        "returns": {
          "_0": "The market allocation of the yield"
        }
      },
      "getRoleAdmin(bytes32)": {
        "details": "Returns the admin role that controls `role`. See {grantRole} and {revokeRole}. To change a role's admin, use {_setRoleAdmin}."
      },
      "grantRole(bytes32,address)": {
        "details": "Grants `role` to `account`. If `account` had not been already granted `role`, emits a {RoleGranted} event. Requirements: - the caller must have ``role``'s admin role."
      },
      "hasRole(bytes32,address)": {
        "details": "Returns `true` if `account` has been granted `role`."
      },
      "initialize(address,address,address,address,address)": {
        "params": {
          "_admin": "admin for the contract",
          "_cToken": "address of the interest accruing token linked to the payment token",
          "_longShort": "address of the longShort contract",
          "_paymentToken": "address of the payment token",
          "_treasury": "address of the treasury contract"
        }
      },
      "removePaymentTokenFromMarket(uint256)": {
        "details": "This will update the amountReservedInCaseOfInsufficientYieldProviderLiquidity if not enough liquidity is avaiable on compound.      This means that our system can continue to operate even if there is insufficient liquidity in Compound for any reason.",
        "params": {
          "amount": "Amount of payment token to withdraw"
        }
      },
      "renounceRole(bytes32,address)": {
        "details": "Revokes `role` from the calling account. Roles are often managed via {grantRole} and {revokeRole}: this function's purpose is to provide a mechanism for accounts to lose their privileges if they are compromised (such as when a trusted device is misplaced). If the calling account had been revoked `role`, emits a {RoleRevoked} event. Requirements: - the caller must be `account`."
      },
      "revokeRole(bytes32,address)": {
        "details": "Revokes `role` from `account`. If `account` had been granted `role`, emits a {RoleRevoked} event. Requirements: - the caller must have ``role``'s admin role."
      },
      "supportsInterface(bytes4)": {
        "details": "See {IERC165-supportsInterface}."
      },
      "transferPaymentTokensToUser(address,uint256)": {
        "params": {
          "amount": "Amount of payment token to pay to user",
          "user": "User to recieve the payout"
        }
      },
      "upgradeTo(address)": {
        "details": "Upgrade the implementation of the proxy to `newImplementation`. Calls {_authorizeUpgrade}. Emits an {Upgraded} event."
      },
      "upgradeToAndCall(address,bytes)": {
        "details": "Upgrade the implementation of the proxy to `newImplementation`, and subsequently execute the function call encoded in `data`. Calls {_authorizeUpgrade}. Emits an {Upgraded} event."
      }
    },
    "title": "YieldManagerBenqiTest",
    "version": 1
  },
  "userdoc": {
    "kind": "user",
    "methods": {
      "cToken()": {
        "notice": "The token representing the interest accruing payment token position from Compound"
      },
      "depositPaymentToken(uint256)": {
        "notice": "Allows the LongShort contract to deposit tokens into the compound pool"
      },
      "distributeYieldForTreasuryAndReturnMarketAllocation(uint256,uint256)": {
        "notice": "Calculates and updates the yield allocation to the treasury and the market"
      },
      "initialize(address,address,address,address,address)": {
        "notice": "Constructor for initializing the compound yield manager with a given payment token and corresponding Compound contracts"
      },
      "initializeForMarket()": {
        "notice": "Initializes a specific yield manager to a given market"
      },
      "isInitialized()": {
        "notice": "boolean to prevent markets using an already initialized market"
      },
      "longShort()": {
        "notice": "address of longShort contract"
      },
      "paymentToken()": {
        "notice": "The payment token the yield manager supports"
      },
      "removePaymentTokenFromMarket(uint256)": {
        "notice": "Allows the LongShort contract to redeem cTokens for the payment token"
      },
      "totalReservedForTreasury()": {
        "notice": "distributed yield not yet transferred to the treasury"
      },
      "transferPaymentTokensToUser(address,uint256)": {
        "notice": "Allows the LongShort pay out a user from tokens already withdrawn from Compound"
      },
      "treasury()": {
        "notice": "address of treasury contract - this is the address that can claim compound incentives rewards"
      },
      "withdrawTreasuryFunds()": {
        "notice": "Withdraw treasury allocated accrued yield from the lending pool to the treasury contract"
      }
    },
    "notice": "Used to manually test the benqi yield manager",
    "version": 1
  },
  "storageLayout": {
    "storage": [
      {
        "astId": 1051,
        "contract": "contracts/testing/YieldManagerBenqiTest.sol:YieldManagerBenqiTest",
        "label": "_initialized",
        "offset": 0,
        "slot": "0",
        "type": "t_bool"
      },
      {
        "astId": 1054,
        "contract": "contracts/testing/YieldManagerBenqiTest.sol:YieldManagerBenqiTest",
        "label": "_initializing",
        "offset": 1,
        "slot": "0",
        "type": "t_bool"
      },
      {
        "astId": 5350,
        "contract": "contracts/testing/YieldManagerBenqiTest.sol:YieldManagerBenqiTest",
        "label": "__gap",
        "offset": 0,
        "slot": "1",
        "type": "t_array(t_uint256)50_storage"
      },
      {
        "astId": 6272,
        "contract": "contracts/testing/YieldManagerBenqiTest.sol:YieldManagerBenqiTest",
        "label": "__gap",
        "offset": 0,
        "slot": "51",
        "type": "t_array(t_uint256)50_storage"
      },
      {
        "astId": 250,
        "contract": "contracts/testing/YieldManagerBenqiTest.sol:YieldManagerBenqiTest",
        "label": "_roles",
        "offset": 0,
        "slot": "101",
        "type": "t_mapping(t_bytes32,t_struct(RoleData)245_storage)"
      },
      {
        "astId": 537,
        "contract": "contracts/testing/YieldManagerBenqiTest.sol:YieldManagerBenqiTest",
        "label": "__gap",
        "offset": 0,
        "slot": "102",
        "type": "t_array(t_uint256)49_storage"
      },
      {
        "astId": 1033,
        "contract": "contracts/testing/YieldManagerBenqiTest.sol:YieldManagerBenqiTest",
        "label": "__gap",
        "offset": 0,
        "slot": "151",
        "type": "t_array(t_uint256)50_storage"
      },
      {
        "astId": 1228,
        "contract": "contracts/testing/YieldManagerBenqiTest.sol:YieldManagerBenqiTest",
        "label": "__gap",
        "offset": 0,
        "slot": "201",
        "type": "t_array(t_uint256)50_storage"
      },
      {
        "astId": 22689,
        "contract": "contracts/testing/YieldManagerBenqiTest.sol:YieldManagerBenqiTest",
        "label": "longShort",
        "offset": 0,
        "slot": "251",
        "type": "t_address"
      },
      {
        "astId": 22692,
        "contract": "contracts/testing/YieldManagerBenqiTest.sol:YieldManagerBenqiTest",
        "label": "treasury",
        "offset": 0,
        "slot": "252",
        "type": "t_address"
      },
      {
        "astId": 22695,
        "contract": "contracts/testing/YieldManagerBenqiTest.sol:YieldManagerBenqiTest",
        "label": "isInitialized",
        "offset": 20,
        "slot": "252",
        "type": "t_bool"
      },
      {
        "astId": 22699,
        "contract": "contracts/testing/YieldManagerBenqiTest.sol:YieldManagerBenqiTest",
        "label": "paymentToken",
        "offset": 0,
        "slot": "253",
        "type": "t_contract(IERC20)9077"
      },
      {
        "astId": 22703,
        "contract": "contracts/testing/YieldManagerBenqiTest.sol:YieldManagerBenqiTest",
        "label": "cToken",
        "offset": 0,
        "slot": "254",
        "type": "t_contract(CErc20)23319"
      },
      {
        "astId": 22707,
        "contract": "contracts/testing/YieldManagerBenqiTest.sol:YieldManagerBenqiTest",
        "label": "totalReservedForTreasury",
        "offset": 0,
        "slot": "255",
        "type": "t_uint256"
      },
      {
        "astId": 22710,
        "contract": "contracts/testing/YieldManagerBenqiTest.sol:YieldManagerBenqiTest",
        "label": "amountReservedInCaseOfInsufficientYieldProviderLiquidity",
        "offset": 0,
        "slot": "256",
        "type": "t_uint256"
      },
      {
        "astId": 22714,
        "contract": "contracts/testing/YieldManagerBenqiTest.sol:YieldManagerBenqiTest",
        "label": "__variableGap",
        "offset": 0,
        "slot": "257",
        "type": "t_array(t_uint256)45_storage"
      },
      {
        "astId": 22717,
        "contract": "contracts/testing/YieldManagerBenqiTest.sol:YieldManagerBenqiTest",
        "label": "paymentTokenNotInYieldManager",
        "offset": 0,
        "slot": "302",
        "type": "t_uint256"
      }
    ],
    "types": {
      "t_address": {
        "encoding": "inplace",
        "label": "address",
        "numberOfBytes": "20"
      },
      "t_array(t_uint256)45_storage": {
        "base": "t_uint256",
        "encoding": "inplace",
        "label": "uint256[45]",
        "numberOfBytes": "1440"
      },
      "t_array(t_uint256)49_storage": {
        "base": "t_uint256",
        "encoding": "inplace",
        "label": "uint256[49]",
        "numberOfBytes": "1568"
      },
      "t_array(t_uint256)50_storage": {
        "base": "t_uint256",
        "encoding": "inplace",
        "label": "uint256[50]",
        "numberOfBytes": "1600"
      },
      "t_bool": {
        "encoding": "inplace",
        "label": "bool",
        "numberOfBytes": "1"
      },
      "t_bytes32": {
        "encoding": "inplace",
        "label": "bytes32",
        "numberOfBytes": "32"
      },
      "t_contract(CErc20)23319": {
        "encoding": "inplace",
        "label": "contract CErc20",
        "numberOfBytes": "20"
      },
      "t_contract(IERC20)9077": {
        "encoding": "inplace",
        "label": "contract IERC20",
        "numberOfBytes": "20"
      },
      "t_mapping(t_address,t_bool)": {
        "encoding": "mapping",
        "key": "t_address",
        "label": "mapping(address => bool)",
        "numberOfBytes": "32",
        "value": "t_bool"
      },
      "t_mapping(t_bytes32,t_struct(RoleData)245_storage)": {
        "encoding": "mapping",
        "key": "t_bytes32",
        "label": "mapping(bytes32 => struct AccessControlUpgradeable.RoleData)",
        "numberOfBytes": "32",
        "value": "t_struct(RoleData)245_storage"
      },
      "t_struct(RoleData)245_storage": {
        "encoding": "inplace",
        "label": "struct AccessControlUpgradeable.RoleData",
        "members": [
          {
            "astId": 242,
            "contract": "contracts/testing/YieldManagerBenqiTest.sol:YieldManagerBenqiTest",
            "label": "members",
            "offset": 0,
            "slot": "0",
            "type": "t_mapping(t_address,t_bool)"
          },
          {
            "astId": 244,
            "contract": "contracts/testing/YieldManagerBenqiTest.sol:YieldManagerBenqiTest",
            "label": "adminRole",
            "offset": 0,
            "slot": "1",
            "type": "t_bytes32"
          }
        ],
        "numberOfBytes": "64"
      },
      "t_uint256": {
        "encoding": "inplace",
        "label": "uint256",
        "numberOfBytes": "32"
      }
    }
  }
}