{
  "address": "0x5aafDD30b738d189936989d2655b9ECACa7155Da",
  "abi": [
    {
      "anonymous": false,
      "inputs": [
        {
          "indexed": false,
          "internalType": "address",
          "name": "previousAdmin",
          "type": "address"
        },
        {
          "indexed": false,
          "internalType": "address",
          "name": "newAdmin",
          "type": "address"
        }
      ],
      "name": "AdminChanged",
      "type": "event"
    },
    {
      "anonymous": false,
      "inputs": [
        {
          "indexed": true,
          "internalType": "address",
          "name": "beacon",
          "type": "address"
        }
      ],
      "name": "BeaconUpgraded",
      "type": "event"
    },
    {
      "anonymous": false,
      "inputs": [
        {
          "indexed": false,
          "internalType": "uint256",
          "name": "amount",
          "type": "uint256"
        }
      ],
      "name": "ClaimAaveRewardTokenToTreasury",
      "type": "event"
    },
    {
      "anonymous": false,
      "inputs": [
        {
          "indexed": true,
          "internalType": "bytes32",
          "name": "role",
          "type": "bytes32"
        },
        {
          "indexed": true,
          "internalType": "bytes32",
          "name": "previousAdminRole",
          "type": "bytes32"
        },
        {
          "indexed": true,
          "internalType": "bytes32",
          "name": "newAdminRole",
          "type": "bytes32"
        }
      ],
      "name": "RoleAdminChanged",
      "type": "event"
    },
    {
      "anonymous": false,
      "inputs": [
        {
          "indexed": true,
          "internalType": "bytes32",
          "name": "role",
          "type": "bytes32"
        },
        {
          "indexed": true,
          "internalType": "address",
          "name": "account",
          "type": "address"
        },
        {
          "indexed": true,
          "internalType": "address",
          "name": "sender",
          "type": "address"
        }
      ],
      "name": "RoleGranted",
      "type": "event"
    },
    {
      "anonymous": false,
      "inputs": [
        {
          "indexed": true,
          "internalType": "bytes32",
          "name": "role",
          "type": "bytes32"
        },
        {
          "indexed": true,
          "internalType": "address",
          "name": "account",
          "type": "address"
        },
        {
          "indexed": true,
          "internalType": "address",
          "name": "sender",
          "type": "address"
        }
      ],
      "name": "RoleRevoked",
      "type": "event"
    },
    {
      "anonymous": false,
      "inputs": [
        {
          "indexed": true,
          "internalType": "address",
          "name": "implementation",
          "type": "address"
        }
      ],
      "name": "Upgraded",
      "type": "event"
    },
    {
      "anonymous": false,
      "inputs": [],
      "name": "WithdrawTreasuryFunds",
      "type": "event"
    },
    {
      "anonymous": false,
      "inputs": [
        {
          "indexed": false,
          "internalType": "uint256",
          "name": "unrealizedYield",
          "type": "uint256"
        },
        {
          "indexed": false,
          "internalType": "uint256",
          "name": "treasuryYieldPercent_e18",
          "type": "uint256"
        }
      ],
      "name": "YieldDistributed",
      "type": "event"
    },
    {
      "inputs": [],
      "name": "ADMIN_ROLE",
      "outputs": [
        {
          "internalType": "bytes32",
          "name": "",
          "type": "bytes32"
        }
      ],
      "stateMutability": "view",
      "type": "function"
    },
    {
      "inputs": [],
      "name": "DEFAULT_ADMIN_ROLE",
      "outputs": [
        {
          "internalType": "bytes32",
          "name": "",
          "type": "bytes32"
        }
      ],
      "stateMutability": "view",
      "type": "function"
    },
    {
      "inputs": [],
      "name": "UPGRADER_ROLE",
      "outputs": [
        {
          "internalType": "bytes32",
          "name": "",
          "type": "bytes32"
        }
      ],
      "stateMutability": "view",
      "type": "function"
    },
    {
      "inputs": [],
      "name": "aToken",
      "outputs": [
        {
          "internalType": "contract IERC20Upgradeable",
          "name": "",
          "type": "address"
        }
      ],
      "stateMutability": "view",
      "type": "function"
    },
    {
      "inputs": [],
      "name": "aaveIncentivesController",
      "outputs": [
        {
          "internalType": "contract IAaveIncentivesController",
          "name": "",
          "type": "address"
        }
      ],
      "stateMutability": "view",
      "type": "function"
    },
    {
      "inputs": [],
      "name": "amountReservedInCaseOfInsufficientAaveLiquidity",
      "outputs": [
        {
          "internalType": "uint256",
          "name": "",
          "type": "uint256"
        }
      ],
      "stateMutability": "view",
      "type": "function"
    },
    {
      "inputs": [],
      "name": "claimAaveRewardsToTreasury",
      "outputs": [],
      "stateMutability": "nonpayable",
      "type": "function"
    },
    {
      "inputs": [
        {
          "internalType": "uint256",
          "name": "amount",
          "type": "uint256"
        }
      ],
      "name": "depositPaymentToken",
      "outputs": [],
      "stateMutability": "nonpayable",
      "type": "function"
    },
    {
      "inputs": [
        {
          "internalType": "uint256",
          "name": "totalValueRealizedForMarket",
          "type": "uint256"
        },
        {
          "internalType": "uint256",
          "name": "treasuryYieldPercent_e18",
          "type": "uint256"
        }
      ],
      "name": "distributeYieldForTreasuryAndReturnMarketAllocation",
      "outputs": [
        {
          "internalType": "uint256",
          "name": "",
          "type": "uint256"
        }
      ],
      "stateMutability": "nonpayable",
      "type": "function"
    },
    {
      "inputs": [
        {
          "internalType": "bytes32",
          "name": "role",
          "type": "bytes32"
        }
      ],
      "name": "getRoleAdmin",
      "outputs": [
        {
          "internalType": "bytes32",
          "name": "",
          "type": "bytes32"
        }
      ],
      "stateMutability": "view",
      "type": "function"
    },
    {
      "inputs": [
        {
          "internalType": "bytes32",
          "name": "role",
          "type": "bytes32"
        },
        {
          "internalType": "address",
          "name": "account",
          "type": "address"
        }
      ],
      "name": "grantRole",
      "outputs": [],
      "stateMutability": "nonpayable",
      "type": "function"
    },
    {
      "inputs": [
        {
          "internalType": "bytes32",
          "name": "role",
          "type": "bytes32"
        },
        {
          "internalType": "address",
          "name": "account",
          "type": "address"
        }
      ],
      "name": "hasRole",
      "outputs": [
        {
          "internalType": "bool",
          "name": "",
          "type": "bool"
        }
      ],
      "stateMutability": "view",
      "type": "function"
    },
    {
      "inputs": [
        {
          "internalType": "address",
          "name": "_longShort",
          "type": "address"
        },
        {
          "internalType": "address",
          "name": "_treasury",
          "type": "address"
        },
        {
          "internalType": "address",
          "name": "_paymentToken",
          "type": "address"
        },
        {
          "internalType": "address",
          "name": "_aToken",
          "type": "address"
        },
        {
          "internalType": "address",
          "name": "_lendingPoolAddressesProvider",
          "type": "address"
        },
        {
          "internalType": "address",
          "name": "_aaveIncentivesController",
          "type": "address"
        },
        {
          "internalType": "uint16",
          "name": "_aaveReferralCode",
          "type": "uint16"
        },
        {
          "internalType": "address",
          "name": "_admin",
          "type": "address"
        }
      ],
      "name": "initialize",
      "outputs": [],
      "stateMutability": "nonpayable",
      "type": "function"
    },
    {
      "inputs": [],
      "name": "initializeForMarket",
      "outputs": [],
      "stateMutability": "nonpayable",
      "type": "function"
    },
    {
      "inputs": [],
      "name": "isInitialized",
      "outputs": [
        {
          "internalType": "bool",
          "name": "",
          "type": "bool"
        }
      ],
      "stateMutability": "view",
      "type": "function"
    },
    {
      "inputs": [],
      "name": "lendingPoolAddressesProvider",
      "outputs": [
        {
          "internalType": "contract ILendingPoolAddressesProvider",
          "name": "",
          "type": "address"
        }
      ],
      "stateMutability": "view",
      "type": "function"
    },
    {
      "inputs": [],
      "name": "longShort",
      "outputs": [
        {
          "internalType": "address",
          "name": "",
          "type": "address"
        }
      ],
      "stateMutability": "view",
      "type": "function"
    },
    {
      "inputs": [],
      "name": "paymentToken",
      "outputs": [
        {
          "internalType": "contract IERC20",
          "name": "",
          "type": "address"
        }
      ],
      "stateMutability": "view",
      "type": "function"
    },
    {
      "inputs": [
        {
          "internalType": "uint256",
          "name": "amount",
          "type": "uint256"
        }
      ],
      "name": "removePaymentTokenFromMarket",
      "outputs": [],
      "stateMutability": "nonpayable",
      "type": "function"
    },
    {
      "inputs": [
        {
          "internalType": "bytes32",
          "name": "role",
          "type": "bytes32"
        },
        {
          "internalType": "address",
          "name": "account",
          "type": "address"
        }
      ],
      "name": "renounceRole",
      "outputs": [],
      "stateMutability": "nonpayable",
      "type": "function"
    },
    {
      "inputs": [
        {
          "internalType": "bytes32",
          "name": "role",
          "type": "bytes32"
        },
        {
          "internalType": "address",
          "name": "account",
          "type": "address"
        }
      ],
      "name": "revokeRole",
      "outputs": [],
      "stateMutability": "nonpayable",
      "type": "function"
    },
    {
      "inputs": [
        {
          "internalType": "bytes4",
          "name": "interfaceId",
          "type": "bytes4"
        }
      ],
      "name": "supportsInterface",
      "outputs": [
        {
          "internalType": "bool",
          "name": "",
          "type": "bool"
        }
      ],
      "stateMutability": "view",
      "type": "function"
    },
    {
      "inputs": [],
      "name": "totalReservedForTreasury",
      "outputs": [
        {
          "internalType": "uint256",
          "name": "",
          "type": "uint256"
        }
      ],
      "stateMutability": "view",
      "type": "function"
    },
    {
      "inputs": [
        {
          "internalType": "address",
          "name": "user",
          "type": "address"
        },
        {
          "internalType": "uint256",
          "name": "amount",
          "type": "uint256"
        }
      ],
      "name": "transferPaymentTokensToUser",
      "outputs": [],
      "stateMutability": "nonpayable",
      "type": "function"
    },
    {
      "inputs": [],
      "name": "treasury",
      "outputs": [
        {
          "internalType": "address",
          "name": "",
          "type": "address"
        }
      ],
      "stateMutability": "view",
      "type": "function"
    },
    {
      "inputs": [],
      "name": "updateLatestLendingPoolAddress",
      "outputs": [],
      "stateMutability": "nonpayable",
      "type": "function"
    },
    {
      "inputs": [
        {
          "internalType": "address",
          "name": "newImplementation",
          "type": "address"
        }
      ],
      "name": "upgradeTo",
      "outputs": [],
      "stateMutability": "nonpayable",
      "type": "function"
    },
    {
      "inputs": [
        {
          "internalType": "address",
          "name": "newImplementation",
          "type": "address"
        },
        {
          "internalType": "bytes",
          "name": "data",
          "type": "bytes"
        }
      ],
      "name": "upgradeToAndCall",
      "outputs": [],
      "stateMutability": "payable",
      "type": "function"
    },
    {
      "inputs": [],
      "name": "withdrawTreasuryFunds",
      "outputs": [],
      "stateMutability": "nonpayable",
      "type": "function"
    }
  ],
  "transactionHash": "0x232a20bd8fdd4ad333e30aeef5b5d266b5f3ce495ab3c6f22731231eed9f43c8",
  "args": [],
  "solcInputHash": "8eb3db1ebad73600fe854988a31b02ce",
  "bytecode": "0x60a06040523060805234801561001457600080fd5b5060805161249961004560003960008181610a1601528181610a5601528181610c020152610c4201526124996000f3fe6080604052600436106101c25760003560e01c80634f1ef286116100f757806391d1485411610095578063d547741f11610064578063d547741f146104ff578063eb6bffa21461051f578063edf565cc1461053f578063f72c0d8b1461055457600080fd5b806391d148541461048a578063a0c1f15e146104aa578063a217fddf146104ca578063bba00ba5146104df57600080fd5b806361d027b3116100d157806361d027b3146103f657806375b238fc146104165780638a5599b21461044a5780639063ee201461046a57600080fd5b80634f1ef286146103a25780635d3a3890146103b55780635f2475ca146103d557600080fd5b80632f2ff15d1161016457806336568abe1161013e57806336568abe1461032c5780633659cfe61461034c578063392e53cd1461036c578063447479db1461038d57600080fd5b80632f2ff15d146102d75780633013ce29146102f757806334944bb01461031757600080fd5b80632429e535116101a05780632429e53514610233578063248a9ca31461025857806329949872146102885780632ae320cb146102c057600080fd5b806301ffc9a7146101c757806315429969146101fc5780631c499b5514610213575b600080fd5b3480156101d357600080fd5b506101e76101e2366004611e4f565b610588565b60405190151581526020015b60405180910390f35b34801561020857600080fd5b506102116105bf565b005b34801561021f57600080fd5b5061021161022e366004611e79565b6106ac565b34801561023f57600080fd5b5061024a6101015481565b6040519081526020016101f3565b34801561026457600080fd5b5061024a610273366004611e79565b60009081526065602052604090206001015490565b34801561029457600080fd5b5060fb546102a8906001600160a01b031681565b6040516001600160a01b0390911681526020016101f3565b3480156102cc57600080fd5b5061024a6101025481565b3480156102e357600080fd5b506102116102f2366004611ea7565b6107f0565b34801561030357600080fd5b5060fd546102a8906001600160a01b031681565b34801561032357600080fd5b5061021161081b565b34801561033857600080fd5b50610211610347366004611ea7565b610991565b34801561035857600080fd5b50610211610367366004611ed7565b610a0b565b34801561037857600080fd5b5060fc546101e790600160a01b900460ff1681565b34801561039957600080fd5b50610211610ad1565b6102116103b0366004611f0a565b610bf7565b3480156103c157600080fd5b506102116103d0366004611fce565b610cad565b3480156103e157600080fd5b50610100546102a8906001600160a01b031681565b34801561040257600080fd5b5060fc546102a8906001600160a01b031681565b34801561042257600080fd5b5061024a7fa49807205ce4d355092ef5a8a18f56e8913cf4a201fbe287825b095693c2177581565b34801561045657600080fd5b5061024a61046536600461207e565b610e15565b34801561047657600080fd5b50610211610485366004611e79565b610f78565b34801561049657600080fd5b506101e76104a5366004611ea7565b6110d9565b3480156104b657600080fd5b5060fe546102a8906001600160a01b031681565b3480156104d657600080fd5b5061024a600081565b3480156104eb57600080fd5b5060ff546102a8906001600160a01b031681565b34801561050b57600080fd5b5061021161051a366004611ea7565b611104565b34801561052b57600080fd5b5061021161053a3660046120a0565b61112a565b34801561054b57600080fd5b506102116112dd565b34801561056057600080fd5b5061024a7f189ab7a9244df0848122154315af71fe140f3db0fe014031783b0946b8c9d2e381565b60006001600160e01b03198216637965db0b60e01b14806105b957506301ffc9a760e01b6001600160e01b03198316145b92915050565b60fd5460ff5460408051630261bf8b60e01b815290516001600160a01b039384169363095ea7b3931691630261bf8b9160048083019260209291908290030181865afa158015610613573d6000803e3d6000fd5b505050506040513d601f19601f8201168201806040525081019061063791906120cc565b6040516001600160e01b031960e084901b1681526001600160a01b03909116600482015260001960248201526044016020604051808303816000875af1158015610685573d6000803e3d6000fd5b505050506040513d601f19601f820116820180604052508101906106a991906120e9565b50565b60fb546001600160a01b031633146106df5760405162461bcd60e51b81526004016106d69061210b565b60405180910390fd5b60ff60009054906101000a90046001600160a01b03166001600160a01b0316630261bf8b6040518163ffffffff1660e01b8152600401602060405180830381865afa158015610732573d6000803e3d6000fd5b505050506040513d601f19601f8201168201806040525081019061075691906120cc565b60fd54604051631a4ca37b60e21b81526001600160a01b039182166004820152602481018490523060448201529116906369328dec906064016020604051808303816000875af19250505080156107ca575060408051601f3d908101601f191682019092526107c791810190612132565b60015b6107ec578061010260008282546107e19190612161565b909155506106a99050565b5050565b60008281526065602052604090206001015461080c8133611376565b61081683836113da565b505050565b61010054604051630cc7d40f60e11b81523060048201526001600160a01b0390911690600090829063198fa81e90602401602060405180830381865afa158015610869573d6000803e3d6000fd5b505050506040513d601f19601f8201168201806040525081019061088d9190612132565b6040805160018082528183019092529192506000919060208083019080368337505060fe5482519293506001600160a01b0316918391506000906108d3576108d3612179565b6001600160a01b03928316602091820292909201015260fc54604051633111e7b360e01b815285831692633111e7b3926109159286928892169060040161218f565b6020604051808303816000875af1158015610934573d6000803e3d6000fd5b505050506040513d601f19601f820116820180604052508101906109589190612132565b506040518281527fbdeb6031c2eac1ba6d1bd54a501b8942cf452ed6eb9f9a58512591a1faea22a49060200160405180910390a1505050565b6001600160a01b0381163314610a015760405162461bcd60e51b815260206004820152602f60248201527f416363657373436f6e74726f6c3a2063616e206f6e6c792072656e6f756e636560448201526e103937b632b9903337b91039b2b63360891b60648201526084016106d6565b6107ec8282611460565b306001600160a01b037f0000000000000000000000000000000000000000000000000000000000000000161415610a545760405162461bcd60e51b81526004016106d6906121f3565b7f00000000000000000000000000000000000000000000000000000000000000006001600160a01b0316610a866114c7565b6001600160a01b031614610aac5760405162461bcd60e51b81526004016106d69061223f565b610ab5816114f5565b604080516000808252602082019092526106a991839190611520565b6101018054600090915560ff5460408051630261bf8b60e01b815290516001600160a01b0390921691630261bf8b916004808201926020929091908290030181865afa158015610b25573d6000803e3d6000fd5b505050506040513d601f19601f82011682018060405250810190610b4991906120cc565b60fd5460fc54604051631a4ca37b60e21b81526001600160a01b0392831660048201526024810185905290821660448201529116906369328dec906064016020604051808303816000875af1158015610ba6573d6000803e3d6000fd5b505050506040513d601f19601f82011682018060405250810190610bca9190612132565b506040517f5b1d5b57337c7653ccd178787bc6e5aa6f8a6ee09b781e7a624d776e69d044cb90600090a150565b306001600160a01b037f0000000000000000000000000000000000000000000000000000000000000000161415610c405760405162461bcd60e51b81526004016106d6906121f3565b7f00000000000000000000000000000000000000000000000000000000000000006001600160a01b0316610c726114c7565b6001600160a01b031614610c985760405162461bcd60e51b81526004016106d69061223f565b610ca1826114f5565b6107ec82826001611520565b600054610100900460ff1680610cc6575060005460ff16155b610ce25760405162461bcd60e51b81526004016106d69061228b565b600054610100900460ff16158015610d04576000805461ffff19166101011790555b610d148989898989898989611664565b866001600160a01b031663095ea7b3866001600160a01b0316630261bf8b6040518163ffffffff1660e01b8152600401602060405180830381865afa158015610d61573d6000803e3d6000fd5b505050506040513d601f19601f82011682018060405250810190610d8591906120cc565b6040516001600160e01b031960e084901b1681526001600160a01b03909116600482015260001960248201526044016020604051808303816000875af1158015610dd3573d6000803e3d6000fd5b505050506040513d601f19601f82011682018060405250810190610df791906120e9565b508015610e0a576000805461ff00191690555b505050505050505050565b60fb546000906001600160a01b03163314610e425760405162461bcd60e51b81526004016106d69061210b565b60fe546040516370a0823160e01b81523060048201526000916001600160a01b0316906370a0823190602401602060405180830381865afa158015610e8b573d6000803e3d6000fd5b505050506040513d601f19601f82011682018060405250810190610eaf9190612132565b610101546101025491925090600090610ec88388612161565b610ed29190612161565b905082811415610ee857600093505050506105b9565b6000610ef482856122d9565b90506000670de0b6b3a7640000610f0b88846122f0565b610f15919061230f565b90506000610f2382846122d9565b9050610f2f8286612161565b6101015560408051848152602081018a90527ffe4996cd48c364c468cee70dd6b9061874ff01b05c5ea49311cbcabd9b9cb615910160405180910390a198975050505050505050565b60fb546001600160a01b03163314610fa25760405162461bcd60e51b81526004016106d69061210b565b6101025415610fdf57806101025410610fc8578061010260008282546107e191906122d9565b61010254610fd690826122d9565b60006101025590505b60ff60009054906101000a90046001600160a01b03166001600160a01b0316630261bf8b6040518163ffffffff1660e01b8152600401602060405180830381865afa158015611032573d6000803e3d6000fd5b505050506040513d601f19601f8201168201806040525081019061105691906120cc565b60fd546101005460405163e8eda9df60e01b81526001600160a01b03928316600482015260248101859052306044820152600160a01b90910461ffff16606482015291169063e8eda9df90608401600060405180830381600087803b1580156110be57600080fd5b505af11580156110d2573d6000803e3d6000fd5b5050505050565b60009182526065602090815260408084206001600160a01b0393909316845291905290205460ff1690565b6000828152606560205260409020600101546111208133611376565b6108168383611460565b60fb546001600160a01b031633146111545760405162461bcd60e51b81526004016106d69061210b565b60fd5460405163a9059cbb60e01b81526001600160a01b038481166004830152602482018490529091169063a9059cbb906044016020604051808303816000875af19250505080156111c3575060408051601f3d908101601f191682019092526111c0918101906120e9565b60015b6111cc576111d9565b80156111d757505050565b505b8061010260008282546111ec91906122d9565b909155505060ff5460408051630261bf8b60e01b815290516001600160a01b0390921691630261bf8b916004808201926020929091908290030181865afa15801561123b573d6000803e3d6000fd5b505050506040513d601f19601f8201168201806040525081019061125f91906120cc565b60fd54604051631a4ca37b60e21b81526001600160a01b0391821660048201526024810184905284821660448201529116906369328dec906064016020604051808303816000875af11580156112b9573d6000803e3d6000fd5b505050506040513d601f19601f820116820180604052508101906108169190612132565b60fb546001600160a01b031633146113075760405162461bcd60e51b81526004016106d69061210b565b60fc54600160a01b900460ff16156113615760405162461bcd60e51b815260206004820152601f60248201527f5969656c64204d616e6167657220697320616c726561647920696e207573650060448201526064016106d6565b60fc805460ff60a01b1916600160a01b179055565b61138082826110d9565b6107ec57611398816001600160a01b03166014611800565b6113a3836020611800565b6040516020016113b4929190612361565b60408051601f198184030181529082905262461bcd60e51b82526106d6916004016123d6565b6113e482826110d9565b6107ec5760008281526065602090815260408083206001600160a01b03851684529091529020805460ff1916600117905561141c3390565b6001600160a01b0316816001600160a01b0316837f2f8788117e7eff1d82e926ec794901d17c78024a50270940304540a733656f0d60405160405180910390a45050565b61146a82826110d9565b156107ec5760008281526065602090815260408083206001600160a01b0385168085529252808320805460ff1916905551339285917ff6391f5c32d9c69d2a47ea670b442974b53935d1edc7fd64eb21e047a839171b9190a45050565b7f360894a13ba1a3210667c828492db98dca3e2076cc3735a920a3ca505d382bbc546001600160a01b031690565b7f189ab7a9244df0848122154315af71fe140f3db0fe014031783b0946b8c9d2e36107ec8133611376565b600061152a6114c7565b9050611535846119a3565b6000835111806115425750815b15611553576115518484611a48565b505b7f4910fdfa16fed3260ed0e7147f7cc6da11a60208b5b9406d12a635614ffd9143805460ff166110d257805460ff191660011781556040516001600160a01b03831660248201526115d290869060440160408051601f198184030181529190526020810180516001600160e01b0316631b2ce7f360e11b179052611a48565b50805460ff191681556115e36114c7565b6001600160a01b0316826001600160a01b03161461165b5760405162461bcd60e51b815260206004820152602f60248201527f45524331393637557067726164653a207570677261646520627265616b73206660448201526e75727468657220757067726164657360881b60648201526084016106d6565b6110d285611b33565b600054610100900460ff168061167d575060005460ff16155b6116995760405162461bcd60e51b81526004016106d69061228b565b600054610100900460ff161580156116bb576000805461ffff19166101011790555b6001600160a01b038916158015906116db57506001600160a01b03881615155b80156116ef57506001600160a01b03871615155b801561170357506001600160a01b03861615155b801561171757506001600160a01b03851615155b801561172b57506001600160a01b03841615155b801561173f57506001600160a01b03821615155b61174857600080fd5b60fb80546001600160a01b03808c166001600160a01b03199283161790925560fc8054928b169290911691909117905561178182611b73565b610100805460fd80546001600160a01b03808c166001600160a01b03199283161790925560fe80548b841690831617905560ff80548a841690831617905590871661ffff8716600160a01b02919091166001600160b01b0319909216919091171790558015610e0a576000805461ff0019169055505050505050505050565b6060600061180f8360026122f0565b61181a906002612161565b67ffffffffffffffff81111561183257611832611ef4565b6040519080825280601f01601f19166020018201604052801561185c576020820181803683370190505b509050600360fc1b8160008151811061187757611877612179565b60200101906001600160f81b031916908160001a905350600f60fb1b816001815181106118a6576118a6612179565b60200101906001600160f81b031916908160001a90535060006118ca8460026122f0565b6118d5906001612161565b90505b600181111561194d576f181899199a1a9b1b9c1cb0b131b232b360811b85600f166010811061190957611909612179565b1a60f81b82828151811061191f5761191f612179565b60200101906001600160f81b031916908160001a90535060049490941c9361194681612409565b90506118d8565b50831561199c5760405162461bcd60e51b815260206004820181905260248201527f537472696e67733a20686578206c656e67746820696e73756666696369656e7460448201526064016106d6565b9392505050565b803b611a075760405162461bcd60e51b815260206004820152602d60248201527f455243313936373a206e657720696d706c656d656e746174696f6e206973206e60448201526c1bdd08184818dbdb9d1c9858dd609a1b60648201526084016106d6565b7f360894a13ba1a3210667c828492db98dca3e2076cc3735a920a3ca505d382bbc80546001600160a01b0319166001600160a01b0392909216919091179055565b6060823b611aa75760405162461bcd60e51b815260206004820152602660248201527f416464726573733a2064656c65676174652063616c6c20746f206e6f6e2d636f6044820152651b9d1c9858dd60d21b60648201526084016106d6565b600080846001600160a01b031684604051611ac29190612420565b600060405180830381855af49150503d8060008114611afd576040519150601f19603f3d011682016040523d82523d6000602084013e611b02565b606091505b5091509150611b2a828260405180606001604052806027815260200161243d60279139611bf8565b95945050505050565b611b3c816119a3565b6040516001600160a01b038216907fbc7cd75a20ee27fd9adebab32041f755214dbc6bffa90cc0225b39da2e5c2d3b90600090a250565b600054610100900460ff1680611b8c575060005460ff16155b611ba85760405162461bcd60e51b81526004016106d69061228b565b600054610100900460ff16158015611bca576000805461ffff19166101011790555b611bd2611c31565b611bda611cb4565b611be382611d12565b80156107ec576000805461ff00191690555050565b60608315611c0757508161199c565b825115611c175782518084602001fd5b8160405162461bcd60e51b81526004016106d691906123d6565b600054610100900460ff1680611c4a575060005460ff16155b611c665760405162461bcd60e51b81526004016106d69061228b565b600054610100900460ff16158015611c88576000805461ffff19166101011790555b611c90611ddb565b611c98611ddb565b611ca0611ddb565b80156106a9576000805461ff001916905550565b600054610100900460ff1680611ccd575060005460ff16155b611ce95760405162461bcd60e51b81526004016106d69061228b565b600054610100900460ff16158015611c90576000805461ffff1916610101179055611c98611ddb565b600054610100900460ff1680611d2b575060005460ff16155b611d475760405162461bcd60e51b81526004016106d69061228b565b600054610100900460ff16158015611d69576000805461ffff19166101011790555b6001600160a01b038216611d7c57600080fd5b611d87600083611e45565b611db17fa49807205ce4d355092ef5a8a18f56e8913cf4a201fbe287825b095693c2177583611e45565b611be37f189ab7a9244df0848122154315af71fe140f3db0fe014031783b0946b8c9d2e383611e45565b600054610100900460ff1680611df4575060005460ff16155b611e105760405162461bcd60e51b81526004016106d69061228b565b600054610100900460ff16158015611ca0576000805461ffff191661010117905580156106a9576000805461ff001916905550565b6107ec82826113da565b600060208284031215611e6157600080fd5b81356001600160e01b03198116811461199c57600080fd5b600060208284031215611e8b57600080fd5b5035919050565b6001600160a01b03811681146106a957600080fd5b60008060408385031215611eba57600080fd5b823591506020830135611ecc81611e92565b809150509250929050565b600060208284031215611ee957600080fd5b813561199c81611e92565b634e487b7160e01b600052604160045260246000fd5b60008060408385031215611f1d57600080fd5b8235611f2881611e92565b9150602083013567ffffffffffffffff80821115611f4557600080fd5b818501915085601f830112611f5957600080fd5b813581811115611f6b57611f6b611ef4565b604051601f8201601f19908116603f01168101908382118183101715611f9357611f93611ef4565b81604052828152886020848701011115611fac57600080fd5b8260208601602083013760006020848301015280955050505050509250929050565b600080600080600080600080610100898b031215611feb57600080fd5b8835611ff681611e92565b9750602089013561200681611e92565b9650604089013561201681611e92565b9550606089013561202681611e92565b9450608089013561203681611e92565b935060a089013561204681611e92565b925060c089013561ffff8116811461205d57600080fd5b915060e089013561206d81611e92565b809150509295985092959890939650565b6000806040838503121561209157600080fd5b50508035926020909101359150565b600080604083850312156120b357600080fd5b82356120be81611e92565b946020939093013593505050565b6000602082840312156120de57600080fd5b815161199c81611e92565b6000602082840312156120fb57600080fd5b8151801515811461199c57600080fd5b6020808252600d908201526c139bdd081b1bdb99d4da1bdc9d609a1b604082015260600190565b60006020828403121561214457600080fd5b5051919050565b634e487b7160e01b600052601160045260246000fd5b600082198211156121745761217461214b565b500190565b634e487b7160e01b600052603260045260246000fd5b606080825284519082018190526000906020906080840190828801845b828110156121d15781516001600160a01b0316845292840192908401906001016121ac565b50505090830194909452506001600160a01b0391909116604090910152919050565b6020808252602c908201527f46756e6374696f6e206d7573742062652063616c6c6564207468726f7567682060408201526b19195b1959d85d1958d85b1b60a21b606082015260800190565b6020808252602c908201527f46756e6374696f6e206d7573742062652063616c6c6564207468726f7567682060408201526b6163746976652070726f787960a01b606082015260800190565b6020808252602e908201527f496e697469616c697a61626c653a20636f6e747261637420697320616c72656160408201526d191e481a5b9a5d1a585b1a5e995960921b606082015260800190565b6000828210156122eb576122eb61214b565b500390565b600081600019048311821515161561230a5761230a61214b565b500290565b60008261232c57634e487b7160e01b600052601260045260246000fd5b500490565b60005b8381101561234c578181015183820152602001612334565b8381111561235b576000848401525b50505050565b7f416363657373436f6e74726f6c3a206163636f756e7420000000000000000000815260008351612399816017850160208801612331565b7001034b99036b4b9b9b4b733903937b6329607d1b60179184019182015283516123ca816028840160208801612331565b01602801949350505050565b60208152600082518060208401526123f5816040850160208701612331565b601f01601f19169190910160400192915050565b6000816124185761241861214b565b506000190190565b60008251612432818460208701612331565b919091019291505056fe416464726573733a206c6f772d6c6576656c2064656c65676174652063616c6c206661696c6564a26469706673582212200c2be60d6205c44f47e8448c10f6f92051978d2541b0f297a236ef6e4cfab88764736f6c634300080a0033",
  "devdoc": {
    "details": "https://docs.aave.com/portal/",
    "kind": "dev",
    "methods": {
      "claimAaveRewardsToTreasury()": {
        "details": "This is specifically implemented to allow withdrawal of aave reward wMatic tokens accrued"
      },
      "depositPaymentToken(uint256)": {
        "params": {
          "amount": "Amount of payment token to deposit"
        }
      },
      "distributeYieldForTreasuryAndReturnMarketAllocation(uint256,uint256)": {
        "details": "treasuryPercent = 1 - marketPercent",
        "params": {
          "totalValueRealizedForMarket": "total value of long and short side of the market",
          "treasuryYieldPercent_e18": "Percentage of yield in base 1e18 that is allocated to the treasury"
        },
        "returns": {
          "_0": "The market allocation of the yield"
        }
      },
      "getRoleAdmin(bytes32)": {
        "details": "Returns the admin role that controls `role`. See {grantRole} and {revokeRole}. To change a role's admin, use {_setRoleAdmin}."
      },
      "grantRole(bytes32,address)": {
        "details": "Grants `role` to `account`. If `account` had not been already granted `role`, emits a {RoleGranted} event. Requirements: - the caller must have ``role``'s admin role."
      },
      "hasRole(bytes32,address)": {
        "details": "Returns `true` if `account` has been granted `role`."
      },
      "initialize(address,address,address,address,address,address,uint16,address)": {
        "details": "referral code will be set to 0, depricated Aave feature",
        "params": {
          "_aToken": "address of the interest accruing token linked to the payment token",
          "_aaveReferralCode": "unique code for aave referrals",
          "_admin": "admin for the contract",
          "_lendingPoolAddressesProvider": "address of the aave lending pool address provider contract",
          "_longShort": "address of the longShort contract",
          "_paymentToken": "address of the payment token",
          "_treasury": "address of the treasury contract"
        }
      },
      "removePaymentTokenFromMarket(uint256)": {
        "details": "This will update the amountReservedInCaseOfInsufficientAaveLiquidity if not enough liquidity is avaiable on aave.      This means that our system can continue to operate even if there is insufficient liquidity in Aave for any reason.",
        "params": {
          "amount": "Amount of payment token to withdraw"
        }
      },
      "renounceRole(bytes32,address)": {
        "details": "Revokes `role` from the calling account. Roles are often managed via {grantRole} and {revokeRole}: this function's purpose is to provide a mechanism for accounts to lose their privileges if they are compromised (such as when a trusted device is misplaced). If the calling account had been revoked `role`, emits a {RoleRevoked} event. Requirements: - the caller must be `account`."
      },
      "revokeRole(bytes32,address)": {
        "details": "Revokes `role` from `account`. If `account` had been granted `role`, emits a {RoleRevoked} event. Requirements: - the caller must have ``role``'s admin role."
      },
      "supportsInterface(bytes4)": {
        "details": "See {IERC165-supportsInterface}."
      },
      "transferPaymentTokensToUser(address,uint256)": {
        "params": {
          "amount": "Amount of payment token to pay to user",
          "user": "User to recieve the payout"
        }
      },
      "upgradeTo(address)": {
        "details": "Upgrade the implementation of the proxy to `newImplementation`. Calls {_authorizeUpgrade}. Emits an {Upgraded} event."
      },
      "upgradeToAndCall(address,bytes)": {
        "details": "Upgrade the implementation of the proxy to `newImplementation`, and subsequently execute the function call encoded in `data`. Calls {_authorizeUpgrade}. Emits an {Upgraded} event."
      }
    },
    "stateVariables": {
      "aToken": {
        "details": "ADAI token"
      },
      "amountReservedInCaseOfInsufficientAaveLiquidity": {
        "details": "This value will likely remain zero forever. It exists to handle the rare edge case that Aave doesn't have enough liquidity for a withdrawal.      In this case this variable would keep track of that so that the withdrawal can happen after the fact when liquidity becomes available."
      },
      "paymentToken": {
        "details": "DAI token"
      },
      "referralCode": {
        "details": "An aave specific referralCode that has been a depricated feature. This will be set to 0 for \"no referral\" at deployment"
      }
    },
    "title": "YieldManagerAave",
    "version": 1
  },
  "userdoc": {
    "kind": "user",
    "methods": {
      "aToken()": {
        "notice": "The token representing the interest accruing payment token position from Aave"
      },
      "aaveIncentivesController()": {
        "notice": "The specific Aave incentives controller contract"
      },
      "claimAaveRewardsToTreasury()": {
        "notice": "Allows for withdrawal of aave rewards to the treasury contract"
      },
      "depositPaymentToken(uint256)": {
        "notice": "Allows the LongShort contract to deposit tokens into the aave pool"
      },
      "distributeYieldForTreasuryAndReturnMarketAllocation(uint256,uint256)": {
        "notice": "Calculates and updates the yield allocation to the treasury and the market"
      },
      "initialize(address,address,address,address,address,address,uint16,address)": {
        "notice": "Constructor for initializing the aave yield manager with a given payment token and corresponding Aave contracts"
      },
      "initializeForMarket()": {
        "notice": "Initializes a specific yield manager to a given market"
      },
      "isInitialized()": {
        "notice": "boolean to prevent markets using an already initialized market"
      },
      "lendingPoolAddressesProvider()": {
        "notice": "The specific Aave lending pool address provider contract"
      },
      "longShort()": {
        "notice": "address of longShort contract"
      },
      "paymentToken()": {
        "notice": "The payment token the yield manager supports"
      },
      "removePaymentTokenFromMarket(uint256)": {
        "notice": "Allows the LongShort contract to redeem aTokens for the payment token"
      },
      "totalReservedForTreasury()": {
        "notice": "distributed yield not yet transferred to the treasury"
      },
      "transferPaymentTokensToUser(address,uint256)": {
        "notice": "Allows the LongShort pay out a user from tokens already withdrawn from Aave"
      },
      "treasury()": {
        "notice": "address of treasury contract - this is the address that can claim aave incentives rewards"
      },
      "withdrawTreasuryFunds()": {
        "notice": "Withdraw treasury allocated accrued yield from the lending pool to the treasury contract"
      }
    },
    "notice": "contract is used to manage the yield generated by the underlying tokens. YieldManagerAave is an implementation of a yield manager that earns APY from the Aave protocol. Each fund's payment token (such as DAI) has a corresponding aToken (such as aDAI) that continuously accrues interest based on a lend/borrow liquidity ratio.",
    "version": 1
  },
  "storageLayout": {
    "storage": [
      {
        "astId": 1050,
        "contract": "contracts/YieldManagerAaveBasic.sol:YieldManagerAaveBasic",
        "label": "_initialized",
        "offset": 0,
        "slot": "0",
        "type": "t_bool"
      },
      {
        "astId": 1053,
        "contract": "contracts/YieldManagerAaveBasic.sol:YieldManagerAaveBasic",
        "label": "_initializing",
        "offset": 1,
        "slot": "0",
        "type": "t_bool"
      },
      {
        "astId": 5322,
        "contract": "contracts/YieldManagerAaveBasic.sol:YieldManagerAaveBasic",
        "label": "__gap",
        "offset": 0,
        "slot": "1",
        "type": "t_array(t_uint256)50_storage"
      },
      {
        "astId": 6244,
        "contract": "contracts/YieldManagerAaveBasic.sol:YieldManagerAaveBasic",
        "label": "__gap",
        "offset": 0,
        "slot": "51",
        "type": "t_array(t_uint256)50_storage"
      },
      {
        "astId": 250,
        "contract": "contracts/YieldManagerAaveBasic.sol:YieldManagerAaveBasic",
        "label": "_roles",
        "offset": 0,
        "slot": "101",
        "type": "t_mapping(t_bytes32,t_struct(RoleData)245_storage)"
      },
      {
        "astId": 537,
        "contract": "contracts/YieldManagerAaveBasic.sol:YieldManagerAaveBasic",
        "label": "__gap",
        "offset": 0,
        "slot": "102",
        "type": "t_array(t_uint256)49_storage"
      },
      {
        "astId": 1033,
        "contract": "contracts/YieldManagerAaveBasic.sol:YieldManagerAaveBasic",
        "label": "__gap",
        "offset": 0,
        "slot": "151",
        "type": "t_array(t_uint256)50_storage"
      },
      {
        "astId": 1200,
        "contract": "contracts/YieldManagerAaveBasic.sol:YieldManagerAaveBasic",
        "label": "__gap",
        "offset": 0,
        "slot": "201",
        "type": "t_array(t_uint256)50_storage"
      },
      {
        "astId": 21818,
        "contract": "contracts/YieldManagerAaveBasic.sol:YieldManagerAaveBasic",
        "label": "longShort",
        "offset": 0,
        "slot": "251",
        "type": "t_address"
      },
      {
        "astId": 21821,
        "contract": "contracts/YieldManagerAaveBasic.sol:YieldManagerAaveBasic",
        "label": "treasury",
        "offset": 0,
        "slot": "252",
        "type": "t_address"
      },
      {
        "astId": 21824,
        "contract": "contracts/YieldManagerAaveBasic.sol:YieldManagerAaveBasic",
        "label": "isInitialized",
        "offset": 20,
        "slot": "252",
        "type": "t_bool"
      },
      {
        "astId": 21828,
        "contract": "contracts/YieldManagerAaveBasic.sol:YieldManagerAaveBasic",
        "label": "paymentToken",
        "offset": 0,
        "slot": "253",
        "type": "t_contract(IERC20)9049"
      },
      {
        "astId": 21832,
        "contract": "contracts/YieldManagerAaveBasic.sol:YieldManagerAaveBasic",
        "label": "aToken",
        "offset": 0,
        "slot": "254",
        "type": "t_contract(IERC20Upgradeable)1965"
      },
      {
        "astId": 21836,
        "contract": "contracts/YieldManagerAaveBasic.sol:YieldManagerAaveBasic",
        "label": "lendingPoolAddressesProvider",
        "offset": 0,
        "slot": "255",
        "type": "t_contract(ILendingPoolAddressesProvider)23610"
      },
      {
        "astId": 21840,
        "contract": "contracts/YieldManagerAaveBasic.sol:YieldManagerAaveBasic",
        "label": "aaveIncentivesController",
        "offset": 0,
        "slot": "256",
        "type": "t_contract(IAaveIncentivesController)23223"
      },
      {
        "astId": 21843,
        "contract": "contracts/YieldManagerAaveBasic.sol:YieldManagerAaveBasic",
        "label": "referralCode",
        "offset": 20,
        "slot": "256",
        "type": "t_uint16"
      },
      {
        "astId": 21847,
        "contract": "contracts/YieldManagerAaveBasic.sol:YieldManagerAaveBasic",
        "label": "totalReservedForTreasury",
        "offset": 0,
        "slot": "257",
        "type": "t_uint256"
      },
      {
        "astId": 21850,
        "contract": "contracts/YieldManagerAaveBasic.sol:YieldManagerAaveBasic",
        "label": "amountReservedInCaseOfInsufficientAaveLiquidity",
        "offset": 0,
        "slot": "258",
        "type": "t_uint256"
      }
    ],
    "types": {
      "t_address": {
        "encoding": "inplace",
        "label": "address",
        "numberOfBytes": "20"
      },
      "t_array(t_uint256)49_storage": {
        "base": "t_uint256",
        "encoding": "inplace",
        "label": "uint256[49]",
        "numberOfBytes": "1568"
      },
      "t_array(t_uint256)50_storage": {
        "base": "t_uint256",
        "encoding": "inplace",
        "label": "uint256[50]",
        "numberOfBytes": "1600"
      },
      "t_bool": {
        "encoding": "inplace",
        "label": "bool",
        "numberOfBytes": "1"
      },
      "t_bytes32": {
        "encoding": "inplace",
        "label": "bytes32",
        "numberOfBytes": "32"
      },
      "t_contract(IAaveIncentivesController)23223": {
        "encoding": "inplace",
        "label": "contract IAaveIncentivesController",
        "numberOfBytes": "20"
      },
      "t_contract(IERC20)9049": {
        "encoding": "inplace",
        "label": "contract IERC20",
        "numberOfBytes": "20"
      },
      "t_contract(IERC20Upgradeable)1965": {
        "encoding": "inplace",
        "label": "contract IERC20Upgradeable",
        "numberOfBytes": "20"
      },
      "t_contract(ILendingPoolAddressesProvider)23610": {
        "encoding": "inplace",
        "label": "contract ILendingPoolAddressesProvider",
        "numberOfBytes": "20"
      },
      "t_mapping(t_address,t_bool)": {
        "encoding": "mapping",
        "key": "t_address",
        "label": "mapping(address => bool)",
        "numberOfBytes": "32",
        "value": "t_bool"
      },
      "t_mapping(t_bytes32,t_struct(RoleData)245_storage)": {
        "encoding": "mapping",
        "key": "t_bytes32",
        "label": "mapping(bytes32 => struct AccessControlUpgradeable.RoleData)",
        "numberOfBytes": "32",
        "value": "t_struct(RoleData)245_storage"
      },
      "t_struct(RoleData)245_storage": {
        "encoding": "inplace",
        "label": "struct AccessControlUpgradeable.RoleData",
        "members": [
          {
            "astId": 242,
            "contract": "contracts/YieldManagerAaveBasic.sol:YieldManagerAaveBasic",
            "label": "members",
            "offset": 0,
            "slot": "0",
            "type": "t_mapping(t_address,t_bool)"
          },
          {
            "astId": 244,
            "contract": "contracts/YieldManagerAaveBasic.sol:YieldManagerAaveBasic",
            "label": "adminRole",
            "offset": 0,
            "slot": "1",
            "type": "t_bytes32"
          }
        ],
        "numberOfBytes": "64"
      },
      "t_uint16": {
        "encoding": "inplace",
        "label": "uint16",
        "numberOfBytes": "2"
      },
      "t_uint256": {
        "encoding": "inplace",
        "label": "uint256",
        "numberOfBytes": "32"
      }
    }
  }
}