{
  "address": "0x8cA4C66Ca03b72fA0374FC8B32E558d6fa162411",
  "abi": [
    {
      "anonymous": false,
      "inputs": [
        {
          "indexed": false,
          "internalType": "address",
          "name": "previousAdmin",
          "type": "address"
        },
        {
          "indexed": false,
          "internalType": "address",
          "name": "newAdmin",
          "type": "address"
        }
      ],
      "name": "AdminChanged",
      "type": "event"
    },
    {
      "anonymous": false,
      "inputs": [
        {
          "indexed": true,
          "internalType": "address",
          "name": "owner",
          "type": "address"
        },
        {
          "indexed": true,
          "internalType": "address",
          "name": "spender",
          "type": "address"
        },
        {
          "indexed": false,
          "internalType": "uint256",
          "name": "value",
          "type": "uint256"
        }
      ],
      "name": "Approval",
      "type": "event"
    },
    {
      "anonymous": false,
      "inputs": [
        {
          "indexed": true,
          "internalType": "address",
          "name": "beacon",
          "type": "address"
        }
      ],
      "name": "BeaconUpgraded",
      "type": "event"
    },
    {
      "anonymous": false,
      "inputs": [
        {
          "indexed": true,
          "internalType": "address",
          "name": "delegator",
          "type": "address"
        },
        {
          "indexed": true,
          "internalType": "address",
          "name": "fromDelegate",
          "type": "address"
        },
        {
          "indexed": true,
          "internalType": "address",
          "name": "toDelegate",
          "type": "address"
        }
      ],
      "name": "DelegateChanged",
      "type": "event"
    },
    {
      "anonymous": false,
      "inputs": [
        {
          "indexed": true,
          "internalType": "address",
          "name": "delegate",
          "type": "address"
        },
        {
          "indexed": false,
          "internalType": "uint256",
          "name": "previousBalance",
          "type": "uint256"
        },
        {
          "indexed": false,
          "internalType": "uint256",
          "name": "newBalance",
          "type": "uint256"
        }
      ],
      "name": "DelegateVotesChanged",
      "type": "event"
    },
    {
      "anonymous": false,
      "inputs": [
        {
          "indexed": false,
          "internalType": "address",
          "name": "account",
          "type": "address"
        }
      ],
      "name": "Paused",
      "type": "event"
    },
    {
      "anonymous": false,
      "inputs": [
        {
          "indexed": true,
          "internalType": "bytes32",
          "name": "role",
          "type": "bytes32"
        },
        {
          "indexed": true,
          "internalType": "bytes32",
          "name": "previousAdminRole",
          "type": "bytes32"
        },
        {
          "indexed": true,
          "internalType": "bytes32",
          "name": "newAdminRole",
          "type": "bytes32"
        }
      ],
      "name": "RoleAdminChanged",
      "type": "event"
    },
    {
      "anonymous": false,
      "inputs": [
        {
          "indexed": true,
          "internalType": "bytes32",
          "name": "role",
          "type": "bytes32"
        },
        {
          "indexed": true,
          "internalType": "address",
          "name": "account",
          "type": "address"
        },
        {
          "indexed": true,
          "internalType": "address",
          "name": "sender",
          "type": "address"
        }
      ],
      "name": "RoleGranted",
      "type": "event"
    },
    {
      "anonymous": false,
      "inputs": [
        {
          "indexed": true,
          "internalType": "bytes32",
          "name": "role",
          "type": "bytes32"
        },
        {
          "indexed": true,
          "internalType": "address",
          "name": "account",
          "type": "address"
        },
        {
          "indexed": true,
          "internalType": "address",
          "name": "sender",
          "type": "address"
        }
      ],
      "name": "RoleRevoked",
      "type": "event"
    },
    {
      "anonymous": false,
      "inputs": [
        {
          "indexed": true,
          "internalType": "address",
          "name": "from",
          "type": "address"
        },
        {
          "indexed": true,
          "internalType": "address",
          "name": "to",
          "type": "address"
        },
        {
          "indexed": false,
          "internalType": "uint256",
          "name": "value",
          "type": "uint256"
        }
      ],
      "name": "Transfer",
      "type": "event"
    },
    {
      "anonymous": false,
      "inputs": [
        {
          "indexed": false,
          "internalType": "address",
          "name": "account",
          "type": "address"
        }
      ],
      "name": "Unpaused",
      "type": "event"
    },
    {
      "anonymous": false,
      "inputs": [
        {
          "indexed": true,
          "internalType": "address",
          "name": "implementation",
          "type": "address"
        }
      ],
      "name": "Upgraded",
      "type": "event"
    },
    {
      "inputs": [],
      "name": "DEFAULT_ADMIN_ROLE",
      "outputs": [
        {
          "internalType": "bytes32",
          "name": "",
          "type": "bytes32"
        }
      ],
      "stateMutability": "view",
      "type": "function"
    },
    {
      "inputs": [],
      "name": "DOMAIN_SEPARATOR",
      "outputs": [
        {
          "internalType": "bytes32",
          "name": "",
          "type": "bytes32"
        }
      ],
      "stateMutability": "view",
      "type": "function"
    },
    {
      "inputs": [],
      "name": "MINTER_ROLE",
      "outputs": [
        {
          "internalType": "bytes32",
          "name": "",
          "type": "bytes32"
        }
      ],
      "stateMutability": "view",
      "type": "function"
    },
    {
      "inputs": [],
      "name": "PAUSER_ROLE",
      "outputs": [
        {
          "internalType": "bytes32",
          "name": "",
          "type": "bytes32"
        }
      ],
      "stateMutability": "view",
      "type": "function"
    },
    {
      "inputs": [],
      "name": "UPGRADER_ROLE",
      "outputs": [
        {
          "internalType": "bytes32",
          "name": "",
          "type": "bytes32"
        }
      ],
      "stateMutability": "view",
      "type": "function"
    },
    {
      "inputs": [
        {
          "internalType": "address",
          "name": "owner",
          "type": "address"
        },
        {
          "internalType": "address",
          "name": "spender",
          "type": "address"
        }
      ],
      "name": "allowance",
      "outputs": [
        {
          "internalType": "uint256",
          "name": "",
          "type": "uint256"
        }
      ],
      "stateMutability": "view",
      "type": "function"
    },
    {
      "inputs": [
        {
          "internalType": "address",
          "name": "spender",
          "type": "address"
        },
        {
          "internalType": "uint256",
          "name": "amount",
          "type": "uint256"
        }
      ],
      "name": "approve",
      "outputs": [
        {
          "internalType": "bool",
          "name": "",
          "type": "bool"
        }
      ],
      "stateMutability": "nonpayable",
      "type": "function"
    },
    {
      "inputs": [
        {
          "internalType": "address",
          "name": "account",
          "type": "address"
        }
      ],
      "name": "balanceOf",
      "outputs": [
        {
          "internalType": "uint256",
          "name": "",
          "type": "uint256"
        }
      ],
      "stateMutability": "view",
      "type": "function"
    },
    {
      "inputs": [
        {
          "internalType": "uint256",
          "name": "amount",
          "type": "uint256"
        }
      ],
      "name": "burn",
      "outputs": [],
      "stateMutability": "nonpayable",
      "type": "function"
    },
    {
      "inputs": [
        {
          "internalType": "address",
          "name": "account",
          "type": "address"
        },
        {
          "internalType": "uint256",
          "name": "amount",
          "type": "uint256"
        }
      ],
      "name": "burnFrom",
      "outputs": [],
      "stateMutability": "nonpayable",
      "type": "function"
    },
    {
      "inputs": [
        {
          "internalType": "address",
          "name": "account",
          "type": "address"
        },
        {
          "internalType": "uint32",
          "name": "pos",
          "type": "uint32"
        }
      ],
      "name": "checkpoints",
      "outputs": [
        {
          "components": [
            {
              "internalType": "uint32",
              "name": "fromBlock",
              "type": "uint32"
            },
            {
              "internalType": "uint224",
              "name": "votes",
              "type": "uint224"
            }
          ],
          "internalType": "struct ERC20VotesUpgradeable.Checkpoint",
          "name": "",
          "type": "tuple"
        }
      ],
      "stateMutability": "view",
      "type": "function"
    },
    {
      "inputs": [],
      "name": "decimals",
      "outputs": [
        {
          "internalType": "uint8",
          "name": "",
          "type": "uint8"
        }
      ],
      "stateMutability": "view",
      "type": "function"
    },
    {
      "inputs": [
        {
          "internalType": "address",
          "name": "spender",
          "type": "address"
        },
        {
          "internalType": "uint256",
          "name": "subtractedValue",
          "type": "uint256"
        }
      ],
      "name": "decreaseAllowance",
      "outputs": [
        {
          "internalType": "bool",
          "name": "",
          "type": "bool"
        }
      ],
      "stateMutability": "nonpayable",
      "type": "function"
    },
    {
      "inputs": [
        {
          "internalType": "address",
          "name": "delegatee",
          "type": "address"
        }
      ],
      "name": "delegate",
      "outputs": [],
      "stateMutability": "nonpayable",
      "type": "function"
    },
    {
      "inputs": [
        {
          "internalType": "address",
          "name": "delegatee",
          "type": "address"
        },
        {
          "internalType": "uint256",
          "name": "nonce",
          "type": "uint256"
        },
        {
          "internalType": "uint256",
          "name": "expiry",
          "type": "uint256"
        },
        {
          "internalType": "uint8",
          "name": "v",
          "type": "uint8"
        },
        {
          "internalType": "bytes32",
          "name": "r",
          "type": "bytes32"
        },
        {
          "internalType": "bytes32",
          "name": "s",
          "type": "bytes32"
        }
      ],
      "name": "delegateBySig",
      "outputs": [],
      "stateMutability": "nonpayable",
      "type": "function"
    },
    {
      "inputs": [
        {
          "internalType": "address",
          "name": "account",
          "type": "address"
        }
      ],
      "name": "delegates",
      "outputs": [
        {
          "internalType": "address",
          "name": "",
          "type": "address"
        }
      ],
      "stateMutability": "view",
      "type": "function"
    },
    {
      "inputs": [
        {
          "internalType": "uint256",
          "name": "blockNumber",
          "type": "uint256"
        }
      ],
      "name": "getPastTotalSupply",
      "outputs": [
        {
          "internalType": "uint256",
          "name": "",
          "type": "uint256"
        }
      ],
      "stateMutability": "view",
      "type": "function"
    },
    {
      "inputs": [
        {
          "internalType": "address",
          "name": "account",
          "type": "address"
        },
        {
          "internalType": "uint256",
          "name": "blockNumber",
          "type": "uint256"
        }
      ],
      "name": "getPastVotes",
      "outputs": [
        {
          "internalType": "uint256",
          "name": "",
          "type": "uint256"
        }
      ],
      "stateMutability": "view",
      "type": "function"
    },
    {
      "inputs": [
        {
          "internalType": "bytes32",
          "name": "role",
          "type": "bytes32"
        }
      ],
      "name": "getRoleAdmin",
      "outputs": [
        {
          "internalType": "bytes32",
          "name": "",
          "type": "bytes32"
        }
      ],
      "stateMutability": "view",
      "type": "function"
    },
    {
      "inputs": [
        {
          "internalType": "address",
          "name": "account",
          "type": "address"
        }
      ],
      "name": "getVotes",
      "outputs": [
        {
          "internalType": "uint256",
          "name": "",
          "type": "uint256"
        }
      ],
      "stateMutability": "view",
      "type": "function"
    },
    {
      "inputs": [
        {
          "internalType": "bytes32",
          "name": "role",
          "type": "bytes32"
        },
        {
          "internalType": "address",
          "name": "account",
          "type": "address"
        }
      ],
      "name": "grantRole",
      "outputs": [],
      "stateMutability": "nonpayable",
      "type": "function"
    },
    {
      "inputs": [
        {
          "internalType": "bytes32",
          "name": "role",
          "type": "bytes32"
        },
        {
          "internalType": "address",
          "name": "account",
          "type": "address"
        }
      ],
      "name": "hasRole",
      "outputs": [
        {
          "internalType": "bool",
          "name": "",
          "type": "bool"
        }
      ],
      "stateMutability": "view",
      "type": "function"
    },
    {
      "inputs": [
        {
          "internalType": "address",
          "name": "spender",
          "type": "address"
        },
        {
          "internalType": "uint256",
          "name": "addedValue",
          "type": "uint256"
        }
      ],
      "name": "increaseAllowance",
      "outputs": [
        {
          "internalType": "bool",
          "name": "",
          "type": "bool"
        }
      ],
      "stateMutability": "nonpayable",
      "type": "function"
    },
    {
      "inputs": [
        {
          "internalType": "string",
          "name": "name",
          "type": "string"
        },
        {
          "internalType": "string",
          "name": "symbol",
          "type": "string"
        },
        {
          "internalType": "address",
          "name": "stakerAddress",
          "type": "address"
        },
        {
          "internalType": "address",
          "name": "treasuryAddress",
          "type": "address"
        }
      ],
      "name": "initialize",
      "outputs": [],
      "stateMutability": "nonpayable",
      "type": "function"
    },
    {
      "inputs": [
        {
          "internalType": "address",
          "name": "to",
          "type": "address"
        },
        {
          "internalType": "uint256",
          "name": "amount",
          "type": "uint256"
        }
      ],
      "name": "mint",
      "outputs": [],
      "stateMutability": "nonpayable",
      "type": "function"
    },
    {
      "inputs": [],
      "name": "name",
      "outputs": [
        {
          "internalType": "string",
          "name": "",
          "type": "string"
        }
      ],
      "stateMutability": "view",
      "type": "function"
    },
    {
      "inputs": [
        {
          "internalType": "address",
          "name": "owner",
          "type": "address"
        }
      ],
      "name": "nonces",
      "outputs": [
        {
          "internalType": "uint256",
          "name": "",
          "type": "uint256"
        }
      ],
      "stateMutability": "view",
      "type": "function"
    },
    {
      "inputs": [
        {
          "internalType": "address",
          "name": "account",
          "type": "address"
        }
      ],
      "name": "numCheckpoints",
      "outputs": [
        {
          "internalType": "uint32",
          "name": "",
          "type": "uint32"
        }
      ],
      "stateMutability": "view",
      "type": "function"
    },
    {
      "inputs": [],
      "name": "pause",
      "outputs": [],
      "stateMutability": "nonpayable",
      "type": "function"
    },
    {
      "inputs": [],
      "name": "paused",
      "outputs": [
        {
          "internalType": "bool",
          "name": "",
          "type": "bool"
        }
      ],
      "stateMutability": "view",
      "type": "function"
    },
    {
      "inputs": [
        {
          "internalType": "address",
          "name": "owner",
          "type": "address"
        },
        {
          "internalType": "address",
          "name": "spender",
          "type": "address"
        },
        {
          "internalType": "uint256",
          "name": "value",
          "type": "uint256"
        },
        {
          "internalType": "uint256",
          "name": "deadline",
          "type": "uint256"
        },
        {
          "internalType": "uint8",
          "name": "v",
          "type": "uint8"
        },
        {
          "internalType": "bytes32",
          "name": "r",
          "type": "bytes32"
        },
        {
          "internalType": "bytes32",
          "name": "s",
          "type": "bytes32"
        }
      ],
      "name": "permit",
      "outputs": [],
      "stateMutability": "nonpayable",
      "type": "function"
    },
    {
      "inputs": [
        {
          "internalType": "bytes32",
          "name": "role",
          "type": "bytes32"
        },
        {
          "internalType": "address",
          "name": "account",
          "type": "address"
        }
      ],
      "name": "renounceRole",
      "outputs": [],
      "stateMutability": "nonpayable",
      "type": "function"
    },
    {
      "inputs": [
        {
          "internalType": "bytes32",
          "name": "role",
          "type": "bytes32"
        },
        {
          "internalType": "address",
          "name": "account",
          "type": "address"
        }
      ],
      "name": "revokeRole",
      "outputs": [],
      "stateMutability": "nonpayable",
      "type": "function"
    },
    {
      "inputs": [
        {
          "internalType": "bytes4",
          "name": "interfaceId",
          "type": "bytes4"
        }
      ],
      "name": "supportsInterface",
      "outputs": [
        {
          "internalType": "bool",
          "name": "",
          "type": "bool"
        }
      ],
      "stateMutability": "view",
      "type": "function"
    },
    {
      "inputs": [],
      "name": "symbol",
      "outputs": [
        {
          "internalType": "string",
          "name": "",
          "type": "string"
        }
      ],
      "stateMutability": "view",
      "type": "function"
    },
    {
      "inputs": [],
      "name": "totalSupply",
      "outputs": [
        {
          "internalType": "uint256",
          "name": "",
          "type": "uint256"
        }
      ],
      "stateMutability": "view",
      "type": "function"
    },
    {
      "inputs": [
        {
          "internalType": "address",
          "name": "recipient",
          "type": "address"
        },
        {
          "internalType": "uint256",
          "name": "amount",
          "type": "uint256"
        }
      ],
      "name": "transfer",
      "outputs": [
        {
          "internalType": "bool",
          "name": "",
          "type": "bool"
        }
      ],
      "stateMutability": "nonpayable",
      "type": "function"
    },
    {
      "inputs": [
        {
          "internalType": "address",
          "name": "sender",
          "type": "address"
        },
        {
          "internalType": "address",
          "name": "recipient",
          "type": "address"
        },
        {
          "internalType": "uint256",
          "name": "amount",
          "type": "uint256"
        }
      ],
      "name": "transferFrom",
      "outputs": [
        {
          "internalType": "bool",
          "name": "",
          "type": "bool"
        }
      ],
      "stateMutability": "nonpayable",
      "type": "function"
    },
    {
      "inputs": [],
      "name": "treasury",
      "outputs": [
        {
          "internalType": "address",
          "name": "",
          "type": "address"
        }
      ],
      "stateMutability": "view",
      "type": "function"
    },
    {
      "inputs": [],
      "name": "unpause",
      "outputs": [],
      "stateMutability": "nonpayable",
      "type": "function"
    },
    {
      "inputs": [
        {
          "internalType": "address",
          "name": "newImplementation",
          "type": "address"
        }
      ],
      "name": "upgradeTo",
      "outputs": [],
      "stateMutability": "nonpayable",
      "type": "function"
    },
    {
      "inputs": [
        {
          "internalType": "address",
          "name": "newImplementation",
          "type": "address"
        },
        {
          "internalType": "bytes",
          "name": "data",
          "type": "bytes"
        }
      ],
      "name": "upgradeToAndCall",
      "outputs": [],
      "stateMutability": "payable",
      "type": "function"
    }
  ],
  "transactionHash": "0x45a480beafb43b64896816cabf00ed495db5330238c915ae6b98dd4652184f30",
  "args": [],
  "solcInputHash": "f992b3c18d8822e024711f3a6d00ccf4",
  "bytecode": "0x608060405234801561001057600080fd5b5061380f806100206000396000f3fe6080604052600436106102515760003560e01c80636fcfff4511610139578063a217fddf116100b6578063d53913931161007a578063d539139314610710578063d547741f14610732578063dd62ed3e14610752578063e63ab1e914610798578063f1127ed8146107ba578063f72c0d8b1461080457610251565b8063a217fddf1461067b578063a457c2d714610690578063a9059cbb146106b0578063c3cda520146106d0578063d505accf146106f057610251565b80638e539e8c116100fd5780638e539e8c146105e65780638f15b4141461060657806391d148541461062657806395d89b41146106465780639ab24eb01461065b57610251565b80636fcfff451461052657806370a082311461055b57806379cc6790146105915780637ecebe00146105b15780638456cb59146105d157610251565b80633659cfe6116101d257806342966c681161019657806342966c68146104485780634f1ef28614610468578063587cde1e1461047b5780635c19a95c146104cd5780635c975abb146104ed57806361d027b31461050557610251565b80633659cfe6146103b357806339509351146103d35780633a46b1a8146103f35780633f4ba83a1461041357806340c10f191461042857610251565b8063248a9ca311610219578063248a9ca3146103105780632f2ff15d14610340578063313ce567146103625780633644e5151461037e57806336568abe1461039357610251565b806301ffc9a71461025657806306fdde031461028b578063095ea7b3146102ad57806318160ddd146102cd57806323b872dd146102f0575b600080fd5b34801561026257600080fd5b50610276610271366004613499565b610838565b60405190151581526020015b60405180910390f35b34801561029757600080fd5b506102a0610871565b60405161028291906135df565b3480156102b957600080fd5b506102766102c83660046133a1565b610903565b3480156102d957600080fd5b506102e2610919565b604051908152602001610282565b3480156102fc57600080fd5b5061027661030b366004613240565b610929565b34801561031c57600080fd5b506102e261032b36600461345f565b600090815260fb602052604090206001015490565b34801561034c57600080fd5b5061036061035b366004613477565b6109da565b005b34801561036e57600080fd5b5060405160128152602001610282565b34801561038a57600080fd5b506102e2610a06565b34801561039f57600080fd5b506103606103ae366004613477565b610a10565b3480156103bf57600080fd5b506103606103ce3660046131f4565b610a8e565b3480156103df57600080fd5b506102766103ee3660046133a1565b610ab5565b3480156103ff57600080fd5b506102e261040e3660046133a1565b610af1565b34801561041f57600080fd5b50610360610b65565b34801561043457600080fd5b506103606104433660046133a1565b610b86565b34801561045457600080fd5b5061036061046336600461345f565b610ba9565b6103606104763660046132e4565b610bb3565b34801561048757600080fd5b506104b56104963660046131f4565b6001600160a01b03908116600090815261019460205260409020541690565b6040516001600160a01b039091168152602001610282565b3480156104d957600080fd5b506103606104e83660046131f4565b610bc8565b3480156104f957600080fd5b5060975460ff16610276565b34801561051157600080fd5b5061022a546104b5906001600160a01b031681565b34801561053257600080fd5b506105466105413660046131f4565b610bd2565b60405163ffffffff9091168152602001610282565b34801561056757600080fd5b506102e26105763660046131f4565b6001600160a01b031660009081526033602052604090205490565b34801561059d57600080fd5b506103606105ac3660046133a1565b610bf5565b3480156105bd57600080fd5b506102e26105cc3660046131f4565b610c22565b3480156105dd57600080fd5b50610360610c41565b3480156105f257600080fd5b506102e261060136600461345f565b610c62565b34801561061257600080fd5b506103606106213660046134c1565b610cbf565b34801561063257600080fd5b50610276610641366004613477565b610ebf565b34801561065257600080fd5b506102a0610eea565b34801561066757600080fd5b506102e26106763660046131f4565b610ef9565b34801561068757600080fd5b506102e2600081565b34801561069c57600080fd5b506102766106ab3660046133a1565b610f90565b3480156106bc57600080fd5b506102766106cb3660046133a1565b611029565b3480156106dc57600080fd5b506103606106eb3660046133ca565b611035565b3480156106fc57600080fd5b5061036061070b36600461327b565b611162565b34801561071c57600080fd5b506102e26000805160206137ba83398151915281565b34801561073e57600080fd5b5061036061074d366004613477565b6112a9565b34801561075e57600080fd5b506102e261076d36600461320e565b6001600160a01b03918216600090815260346020908152604080832093909416825291909152205490565b3480156107a457600080fd5b506102e260008051602061377383398151915281565b3480156107c657600080fd5b506107da6107d5366004613421565b6112cf565b60408051825163ffffffff1681526020928301516001600160e01b03169281019290925201610282565b34801561081057600080fd5b506102e27f189ab7a9244df0848122154315af71fe140f3db0fe014031783b0946b8c9d2e381565b60006001600160e01b03198216637965db0b60e01b148061086957506301ffc9a760e01b6001600160e01b03198316145b90505b919050565b60606036805461088090613711565b80601f01602080910402602001604051908101604052809291908181526020018280546108ac90613711565b80156108f95780601f106108ce576101008083540402835291602001916108f9565b820191906000526020600020905b8154815290600101906020018083116108dc57829003601f168201915b5050505050905090565b6000610910338484611362565b50600192915050565b600061092460355490565b905090565b6000610936848484611486565b6001600160a01b0384166000908152603460209081526040808320338452909152902054828110156109c05760405162461bcd60e51b815260206004820152602860248201527f45524332303a207472616e7366657220616d6f756e74206578636565647320616044820152676c6c6f77616e636560c01b60648201526084015b60405180910390fd5b6109cd8533858403611362565b60019150505b9392505050565b600082815260fb60205260409020600101546109f781335b61166b565b610a0183836116cf565b505050565b6000610924611755565b6001600160a01b0381163314610a805760405162461bcd60e51b815260206004820152602f60248201527f416363657373436f6e74726f6c3a2063616e206f6e6c792072656e6f756e636560448201526e103937b632b9903337b91039b2b63360891b60648201526084016109b7565b610a8a82826117d2565b5050565b610a9781611839565b610ab281604051806020016040528060008152506000611864565b50565b3360008181526034602090815260408083206001600160a01b03871684529091528120549091610910918590610aec908690613660565b611362565b6000438210610b425760405162461bcd60e51b815260206004820152601f60248201527f4552433230566f7465733a20626c6f636b206e6f7420796574206d696e65640060448201526064016109b7565b6001600160a01b0383166000908152610195602052604090206109d390836119ec565b600080516020613773833981519152610b7e81336109f2565b610ab2611ac5565b6000805160206137ba833981519152610b9f81336109f2565b610a018383611b58565b610ab23382611b62565b610bbc82611839565b610a8a82826001611864565b610ab23382611b6c565b6001600160a01b0381166000908152610195602052604081205461086990611be7565b61022a546001600160a01b0316331415610c1857610c138282611b62565b610a8a565b610a8a8282611c50565b6001600160a01b03811660009081526101616020526040812054610869565b600080516020613773833981519152610c5a81336109f2565b610ab2611cd1565b6000438210610cb35760405162461bcd60e51b815260206004820152601f60248201527f4552433230566f7465733a20626c6f636b206e6f7420796574206d696e65640060448201526064016109b7565b610869610196836119ec565b600054610100900460ff1680610cd8575060005460ff16155b610cf45760405162461bcd60e51b81526004016109b790613612565b600054610100900460ff16158015610d16576000805461ffff19166101011790555b610d8987878080601f01602080910402602001604051908101604052809392919081815260200183838082843760009201919091525050604080516020601f8b018190048102820181019092528981529250899150889081908401838280828437600092019190915250611d4c92505050565b610d91611dcb565b610d99611e46565b610da1611ead565b610de087878080601f016020809104026020016040519081016040528093929190818152602001838380828437600092019190915250611f0c92505050565b610de8611dcb565b61022a80546001600160a01b0319166001600160a01b038416179055610e0f600033610a10565b610e276000805160206137ba83398151915233610a10565b610e3f60008051602061377383398151915233610a10565b610e4a600084611fac565b610e626000805160206137ba83398151915284611fac565b610e7a60008051602061377383398151915284611fac565b610ea47f189ab7a9244df0848122154315af71fe140f3db0fe014031783b0946b8c9d2e333611fac565b8015610eb6576000805461ff00191690555b50505050505050565b600091825260fb602090815260408084206001600160a01b0393909316845291905290205460ff1690565b60606037805461088090613711565b6001600160a01b038116600090815261019560205260408120548015610f7d576001600160a01b038316600090815261019560205260409020610f3d6001836136b7565b81548110610f5b57634e487b7160e01b600052603260045260246000fd5b60009182526020909120015464010000000090046001600160e01b0316610f80565b60005b6001600160e01b03169392505050565b3360009081526034602090815260408083206001600160a01b0386168452909152812054828110156110125760405162461bcd60e51b815260206004820152602560248201527f45524332303a2064656372656173656420616c6c6f77616e63652062656c6f77604482015264207a65726f60d81b60648201526084016109b7565b61101f3385858403611362565b5060019392505050565b60006109d38383611fb6565b834211156110855760405162461bcd60e51b815260206004820152601d60248201527f4552433230566f7465733a207369676e6174757265206578706972656400000060448201526064016109b7565b604080517fe48329057bfd03d55e49b547132e39cffd9c1820ad7b9d4c5307691425d15adf60208201526001600160a01b0388169181019190915260608101869052608081018590526000906110ff906110f79060a00160405160208183030381529060405280519060200120611fc3565b858585612011565b905061110a81612039565b86146111585760405162461bcd60e51b815260206004820152601960248201527f4552433230566f7465733a20696e76616c6964206e6f6e63650000000000000060448201526064016109b7565b610eb68188611b6c565b834211156111b25760405162461bcd60e51b815260206004820152601d60248201527f45524332305065726d69743a206578706972656420646561646c696e6500000060448201526064016109b7565b6000610162548888886111c48c612039565b6040805160208101969096526001600160a01b0394851690860152929091166060840152608083015260a082015260c0810186905260e001604051602081830303815290604052805190602001209050600061121f82611fc3565b9050600061122f82878787612011565b9050896001600160a01b0316816001600160a01b0316146112925760405162461bcd60e51b815260206004820152601e60248201527f45524332305065726d69743a20696e76616c6964207369676e6174757265000060448201526064016109b7565b61129d8a8a8a611362565b50505050505050505050565b600082815260fb60205260409020600101546112c581336109f2565b610a0183836117d2565b60408051808201909152600080825260208201526001600160a01b038316600090815261019560205260409020805463ffffffff841690811061132257634e487b7160e01b600052603260045260246000fd5b60009182526020918290206040805180820190915291015463ffffffff8116825264010000000090046001600160e01b0316918101919091529392505050565b6001600160a01b0383166113c45760405162461bcd60e51b8152602060048201526024808201527f45524332303a20617070726f76652066726f6d20746865207a65726f206164646044820152637265737360e01b60648201526084016109b7565b6001600160a01b0382166114255760405162461bcd60e51b815260206004820152602260248201527f45524332303a20617070726f766520746f20746865207a65726f206164647265604482015261737360f01b60648201526084016109b7565b6001600160a01b0383811660008181526034602090815260408083209487168084529482529182902085905590518481527f8c5be1e5ebec7d5bd14f71427d1e84f3dd0314c0f7b2291e5b200ac8c7c3b925910160405180910390a3505050565b6001600160a01b0383166114ea5760405162461bcd60e51b815260206004820152602560248201527f45524332303a207472616e736665722066726f6d20746865207a65726f206164604482015264647265737360d81b60648201526084016109b7565b6001600160a01b03821661154c5760405162461bcd60e51b815260206004820152602360248201527f45524332303a207472616e7366657220746f20746865207a65726f206164647260448201526265737360e81b60648201526084016109b7565b611557838383612062565b6001600160a01b038316600090815260336020526040902054818110156115cf5760405162461bcd60e51b815260206004820152602660248201527f45524332303a207472616e7366657220616d6f756e7420657863656564732062604482015265616c616e636560d01b60648201526084016109b7565b6001600160a01b03808516600090815260336020526040808220858503905591851681529081208054849290611606908490613660565b92505081905550826001600160a01b0316846001600160a01b03167fddf252ad1be2c89b69c2b068fc378daa952ba7f163c4a11628f55a4df523b3ef8460405161165291815260200190565b60405180910390a36116658484846120d0565b50505050565b6116758282610ebf565b610a8a5761168d816001600160a01b031660146120db565b6116988360206120db565b6040516020016116a992919061356a565b60408051601f198184030181529082905262461bcd60e51b82526109b7916004016135df565b6116d98282610ebf565b610a8a57600082815260fb602090815260408083206001600160a01b03851684529091529020805460ff191660011790556117113390565b6001600160a01b0316816001600160a01b0316837f2f8788117e7eff1d82e926ec794901d17c78024a50270940304540a733656f0d60405160405180910390a45050565b60006109247f8b73c3c69bb8fe3d512ecc4cf759cc79239f7b179b0ffacaa9a75d522b39400f61178561012d5490565b61012e546040805160208101859052908101839052606081018290524660808201523060a082015260009060c0016040516020818303038152906040528051906020012090509392505050565b6117dc8282610ebf565b15610a8a57600082815260fb602090815260408083206001600160a01b0385168085529252808320805460ff1916905551339285917ff6391f5c32d9c69d2a47ea670b442974b53935d1edc7fd64eb21e047a839171b9190a45050565b7f189ab7a9244df0848122154315af71fe140f3db0fe014031783b0946b8c9d2e3610a8a81336109f2565b60006118977f360894a13ba1a3210667c828492db98dca3e2076cc3735a920a3ca505d382bbc546001600160a01b031690565b90506118a2846122bd565b6000835111806118af5750815b156118c0576118be8484612362565b505b7f4910fdfa16fed3260ed0e7147f7cc6da11a60208b5b9406d12a635614ffd9143805460ff166119e557805460ff191660011781556040516001600160a01b038316602482015261193f90869060440160408051601f198184030181529190526020810180516001600160e01b0316631b2ce7f360e11b179052612362565b50805460ff191681557f360894a13ba1a3210667c828492db98dca3e2076cc3735a920a3ca505d382bbc546001600160a01b038381169116146119dc5760405162461bcd60e51b815260206004820152602f60248201527f45524331393637557067726164653a207570677261646520627265616b73206660448201526e75727468657220757067726164657360881b60648201526084016109b7565b6119e58561244d565b5050505050565b8154600090815b81811015611a5e576000611a07828461248d565b905084868281548110611a2a57634e487b7160e01b600052603260045260246000fd5b60009182526020909120015463ffffffff161115611a4a57809250611a58565b611a55816001613660565b91505b506119f3565b8115611ab05784611a706001846136b7565b81548110611a8e57634e487b7160e01b600052603260045260246000fd5b60009182526020909120015464010000000090046001600160e01b0316611ab3565b60005b6001600160e01b031695945050505050565b60975460ff16611b0e5760405162461bcd60e51b815260206004820152601460248201527314185d5cd8589b194e881b9bdd081c185d5cd95960621b60448201526064016109b7565b6097805460ff191690557f5db9ee0a495bf2e6ff9c91a7834c1ba4fdd244a5e8aa4e537bd38aeae4b073aa335b6040516001600160a01b03909116815260200160405180910390a1565b610a8a82826124a8565b610a8a8282612538565b6001600160a01b0382811660008181526101946020818152604080842080546033845282862054949093528787166001600160a01b03198416811790915590519190951694919391928592917f3134e8a2e6d97e929a7e54011ea5485d7d196dd5f0ba4d4ef95803e8e3fc257f9190a4611665828483612551565b600063ffffffff821115611c4c5760405162461bcd60e51b815260206004820152602660248201527f53616665436173743a2076616c756520646f65736e27742066697420696e203360448201526532206269747360d01b60648201526084016109b7565b5090565b6000611c5c833361076d565b905081811015611cba5760405162461bcd60e51b8152602060048201526024808201527f45524332303a206275726e20616d6f756e74206578636565647320616c6c6f77604482015263616e636560e01b60648201526084016109b7565b611cc78333848403611362565b610a018383611b62565b60975460ff1615611d175760405162461bcd60e51b815260206004820152601060248201526f14185d5cd8589b194e881c185d5cd95960821b60448201526064016109b7565b6097805460ff191660011790557f62e78cea01bee320cd4e420270b5ea74000d11b0c9f74754ebdbfc544b05a258611b3b3390565b600054610100900460ff1680611d65575060005460ff16155b611d815760405162461bcd60e51b81526004016109b790613612565b600054610100900460ff16158015611da3576000805461ffff19166101011790555b611dab612690565b611db583836126fa565b8015610a01576000805461ff0019169055505050565b600054610100900460ff1680611de4575060005460ff16155b611e005760405162461bcd60e51b81526004016109b790613612565b600054610100900460ff16158015611e22576000805461ffff19166101011790555b611e2a612690565b611e32612690565b8015610ab2576000805461ff001916905550565b600054610100900460ff1680611e5f575060005460ff16155b611e7b5760405162461bcd60e51b81526004016109b790613612565b600054610100900460ff16158015611e9d576000805461ffff19166101011790555b611ea5612690565b611e3261278f565b600054610100900460ff1680611ec6575060005460ff16155b611ee25760405162461bcd60e51b81526004016109b790613612565b600054610100900460ff16158015611f04576000805461ffff19166101011790555b611e22612690565b600054610100900460ff1680611f25575060005460ff16155b611f415760405162461bcd60e51b81526004016109b790613612565b600054610100900460ff16158015611f63576000805461ffff19166101011790555b611f6b612690565b611f8e82604051806040016040528060018152602001603160f81b815250612804565b611f9782612890565b8015610a8a576000805461ff00191690555050565b610a8a82826116cf565b6000610910338484611486565b6000610869611fd0611755565b8360405161190160f01b6020820152602281018390526042810182905260009060620160405160208183030381529060405280519060200120905092915050565b600080600061202287878787612921565b9150915061202f81612a0e565b5095945050505050565b6001600160a01b0381166000908152610161602052604090208054600181018255905b50919050565b60975460ff16158061208757506120876000805160206137ba83398151915233610641565b6120cb5760405162461bcd60e51b81526020600482015260156024820152742830bab9b2b21030b732103737ba1036b4b73a32b960591b60448201526064016109b7565b610a01565b610a01838383612c11565b606060006120ea836002613698565b6120f5906002613660565b67ffffffffffffffff81111561211b57634e487b7160e01b600052604160045260246000fd5b6040519080825280601f01601f191660200182016040528015612145576020820181803683370190505b509050600360fc1b8160008151811061216e57634e487b7160e01b600052603260045260246000fd5b60200101906001600160f81b031916908160001a905350600f60fb1b816001815181106121ab57634e487b7160e01b600052603260045260246000fd5b60200101906001600160f81b031916908160001a90535060006121cf846002613698565b6121da906001613660565b90505b600181111561226e576f181899199a1a9b1b9c1cb0b131b232b360811b85600f166010811061221c57634e487b7160e01b600052603260045260246000fd5b1a60f81b82828151811061224057634e487b7160e01b600052603260045260246000fd5b60200101906001600160f81b031916908160001a90535060049490941c93612267816136fa565b90506121dd565b5083156109d35760405162461bcd60e51b815260206004820181905260248201527f537472696e67733a20686578206c656e67746820696e73756666696369656e7460448201526064016109b7565b803b6123215760405162461bcd60e51b815260206004820152602d60248201527f455243313936373a206e657720696d706c656d656e746174696f6e206973206e60448201526c1bdd08184818dbdb9d1c9858dd609a1b60648201526084016109b7565b7f360894a13ba1a3210667c828492db98dca3e2076cc3735a920a3ca505d382bbc80546001600160a01b0319166001600160a01b0392909216919091179055565b6060823b6123c15760405162461bcd60e51b815260206004820152602660248201527f416464726573733a2064656c65676174652063616c6c20746f206e6f6e2d636f6044820152651b9d1c9858dd60d21b60648201526084016109b7565b600080846001600160a01b0316846040516123dc919061354e565b600060405180830381855af49150503d8060008114612417576040519150601f19603f3d011682016040523d82523d6000602084013e61241c565b606091505b5091509150612444828260405180606001604052806027815260200161379360279139612c44565b95945050505050565b612456816122bd565b6040516001600160a01b038216907fbc7cd75a20ee27fd9adebab32041f755214dbc6bffa90cc0225b39da2e5c2d3b90600090a250565b600061249c6002848418613678565b6109d390848416613660565b6124b28282612c7d565b6001600160e01b036124c2610919565b11156125295760405162461bcd60e51b815260206004820152603060248201527f4552433230566f7465733a20746f74616c20737570706c79207269736b73206f60448201526f766572666c6f77696e6720766f74657360801b60648201526084016109b7565b611665610196612d7083612d7c565b6125428282612f1f565b61166561019661308083612d7c565b816001600160a01b0316836001600160a01b0316141580156125735750600081115b15610a01576001600160a01b03831615612602576001600160a01b03831660009081526101956020526040812081906125af9061308085612d7c565b91509150846001600160a01b03167fdec2bacdd2f05b59de34da9b523dff8be42e5e38e818c82fdb0bae774387a72483836040516125f7929190918252602082015260400190565b60405180910390a250505b6001600160a01b03821615610a01576001600160a01b038216600090815261019560205260408120819061263990612d7085612d7c565b91509150836001600160a01b03167fdec2bacdd2f05b59de34da9b523dff8be42e5e38e818c82fdb0bae774387a7248383604051612681929190918252602082015260400190565b60405180910390a25050505050565b600054610100900460ff16806126a9575060005460ff16155b6126c55760405162461bcd60e51b81526004016109b790613612565b600054610100900460ff16158015611e32576000805461ffff19166101011790558015610ab2576000805461ff001916905550565b600054610100900460ff1680612713575060005460ff16155b61272f5760405162461bcd60e51b81526004016109b790613612565b600054610100900460ff16158015612751576000805461ffff19166101011790555b82516127649060369060208601906130f5565b5081516127789060379060208501906130f5565b508015610a01576000805461ff0019169055505050565b600054610100900460ff16806127a8575060005460ff16155b6127c45760405162461bcd60e51b81526004016109b790613612565b600054610100900460ff161580156127e6576000805461ffff19166101011790555b6097805460ff191690558015610ab2576000805461ff001916905550565b600054610100900460ff168061281d575060005460ff16155b6128395760405162461bcd60e51b81526004016109b790613612565b600054610100900460ff1615801561285b576000805461ffff19166101011790555b825160208085019190912083519184019190912061012d9190915561012e558015610a01576000805461ff0019169055505050565b600054610100900460ff16806128a9575060005460ff16155b6128c55760405162461bcd60e51b81526004016109b790613612565b600054610100900460ff161580156128e7576000805461ffff19166101011790555b7f6e71edae12b1b97f4d1f60370fef10105fa2faae0126114a169c64845d6126c9610162558015610a8a576000805461ff00191690555050565b6000807f7fffffffffffffffffffffffffffffff5d576e7357a4501ddfe92f46681b20a08311156129585750600090506003612a05565b8460ff16601b1415801561297057508460ff16601c14155b156129815750600090506004612a05565b6040805160008082526020820180845289905260ff881692820192909252606081018690526080810185905260019060a0016020604051602081039080840390855afa1580156129d5573d6000803e3d6000fd5b5050604051601f1901519150506001600160a01b0381166129fe57600060019250925050612a05565b9150600090505b94509492505050565b6000816004811115612a3057634e487b7160e01b600052602160045260246000fd5b1415612a3b57610ab2565b6001816004811115612a5d57634e487b7160e01b600052602160045260246000fd5b1415612aab5760405162461bcd60e51b815260206004820152601860248201527f45434453413a20696e76616c6964207369676e6174757265000000000000000060448201526064016109b7565b6002816004811115612acd57634e487b7160e01b600052602160045260246000fd5b1415612b1b5760405162461bcd60e51b815260206004820152601f60248201527f45434453413a20696e76616c6964207369676e6174757265206c656e6774680060448201526064016109b7565b6003816004811115612b3d57634e487b7160e01b600052602160045260246000fd5b1415612b965760405162461bcd60e51b815260206004820152602260248201527f45434453413a20696e76616c6964207369676e6174757265202773272076616c604482015261756560f01b60648201526084016109b7565b6004816004811115612bb857634e487b7160e01b600052602160045260246000fd5b1415610ab25760405162461bcd60e51b815260206004820152602260248201527f45434453413a20696e76616c6964207369676e6174757265202776272076616c604482015261756560f01b60648201526084016109b7565b6001600160a01b0383811660009081526101946020526040808220548584168352912054610a0192918216911683612551565b60608315612c535750816109d3565b825115612c635782518084602001fd5b8160405162461bcd60e51b81526004016109b791906135df565b6001600160a01b038216612cd35760405162461bcd60e51b815260206004820152601f60248201527f45524332303a206d696e7420746f20746865207a65726f20616464726573730060448201526064016109b7565b612cdf60008383612062565b8060356000828254612cf19190613660565b90915550506001600160a01b03821660009081526033602052604081208054839290612d1e908490613660565b90915550506040518181526001600160a01b038316906000907fddf252ad1be2c89b69c2b068fc378daa952ba7f163c4a11628f55a4df523b3ef9060200160405180910390a3610a8a600083836120d0565b60006109d38284613660565b825460009081908015612dd55785612d956001836136b7565b81548110612db357634e487b7160e01b600052603260045260246000fd5b60009182526020909120015464010000000090046001600160e01b0316612dd8565b60005b6001600160e01b03169250612df183858763ffffffff16565b9150600081118015612e3d57504386612e0b6001846136b7565b81548110612e2957634e487b7160e01b600052603260045260246000fd5b60009182526020909120015463ffffffff16145b15612eab57612e4b8261308c565b86612e576001846136b7565b81548110612e7557634e487b7160e01b600052603260045260246000fd5b9060005260206000200160000160046101000a8154816001600160e01b0302191690836001600160e01b03160217905550612f16565b856040518060400160405280612ec043611be7565b63ffffffff168152602001612ed48561308c565b6001600160e01b0390811690915282546001810184556000938452602093849020835194909301519091166401000000000263ffffffff909316929092179101555b50935093915050565b6001600160a01b038216612f7f5760405162461bcd60e51b815260206004820152602160248201527f45524332303a206275726e2066726f6d20746865207a65726f206164647265736044820152607360f81b60648201526084016109b7565b612f8b82600083612062565b6001600160a01b03821660009081526033602052604090205481811015612fff5760405162461bcd60e51b815260206004820152602260248201527f45524332303a206275726e20616d6f756e7420657863656564732062616c616e604482015261636560f01b60648201526084016109b7565b6001600160a01b038316600090815260336020526040812083830390556035805484929061302e9084906136b7565b90915550506040518281526000906001600160a01b038516907fddf252ad1be2c89b69c2b068fc378daa952ba7f163c4a11628f55a4df523b3ef9060200160405180910390a3610a01836000846120d0565b60006109d382846136b7565b60006001600160e01b03821115611c4c5760405162461bcd60e51b815260206004820152602760248201527f53616665436173743a2076616c756520646f65736e27742066697420696e20326044820152663234206269747360c81b60648201526084016109b7565b82805461310190613711565b90600052602060002090601f0160209004810192826131235760008555613169565b82601f1061313c57805160ff1916838001178555613169565b82800160010185558215613169579182015b8281111561316957825182559160200191906001019061314e565b50611c4c9291505b80821115611c4c5760008155600101613171565b80356001600160a01b038116811461086c57600080fd5b60008083601f8401126131ad578182fd5b50813567ffffffffffffffff8111156131c4578182fd5b6020830191508360208285010111156131dc57600080fd5b9250929050565b803560ff8116811461086c57600080fd5b600060208284031215613205578081fd5b6109d382613185565b60008060408385031215613220578081fd5b61322983613185565b915061323760208401613185565b90509250929050565b600080600060608486031215613254578081fd5b61325d84613185565b925061326b60208501613185565b9150604084013590509250925092565b600080600080600080600060e0888a031215613295578283fd5b61329e88613185565b96506132ac60208901613185565b955060408801359450606088013593506132c8608089016131e3565b925060a0880135915060c0880135905092959891949750929550565b600080604083850312156132f6578182fd5b6132ff83613185565b9150602083013567ffffffffffffffff8082111561331b578283fd5b818501915085601f83011261332e578283fd5b8135818111156133405761334061375c565b604051601f8201601f19908116603f011681019083821181831017156133685761336861375c565b81604052828152886020848701011115613380578586fd5b82602086016020830137856020848301015280955050505050509250929050565b600080604083850312156133b3578182fd5b6133bc83613185565b946020939093013593505050565b60008060008060008060c087890312156133e2578182fd5b6133eb87613185565b95506020870135945060408701359350613407606088016131e3565b92506080870135915060a087013590509295509295509295565b60008060408385031215613433578182fd5b61343c83613185565b9150602083013563ffffffff81168114613454578182fd5b809150509250929050565b600060208284031215613470578081fd5b5035919050565b60008060408385031215613489578182fd5b8235915061323760208401613185565b6000602082840312156134aa578081fd5b81356001600160e01b0319811681146109d3578182fd5b600080600080600080608087890312156134d9578182fd5b863567ffffffffffffffff808211156134f0578384fd5b6134fc8a838b0161319c565b90985096506020890135915080821115613514578384fd5b5061352189828a0161319c565b9095509350613534905060408801613185565b915061354260608801613185565b90509295509295509295565b600082516135608184602087016136ce565b9190910192915050565b60007f416363657373436f6e74726f6c3a206163636f756e7420000000000000000000825283516135a28160178501602088016136ce565b7001034b99036b4b9b9b4b733903937b6329607d1b60179184019182015283516135d38160288401602088016136ce565b01602801949350505050565b60006020825282518060208401526135fe8160408501602087016136ce565b601f01601f19169190910160400192915050565b6020808252602e908201527f496e697469616c697a61626c653a20636f6e747261637420697320616c72656160408201526d191e481a5b9a5d1a585b1a5e995960921b606082015260800190565b6000821982111561367357613673613746565b500190565b60008261369357634e487b7160e01b81526012600452602481fd5b500490565b60008160001904831182151516156136b2576136b2613746565b500290565b6000828210156136c9576136c9613746565b500390565b60005b838110156136e95781810151838201526020016136d1565b838111156116655750506000910152565b60008161370957613709613746565b506000190190565b600181811c9082168061372557607f821691505b6020821081141561205c57634e487b7160e01b600052602260045260246000fd5b634e487b7160e01b600052601160045260246000fd5b634e487b7160e01b600052604160045260246000fdfe65d7a28e3265b37a6474929f336521b332c1681b933f6cb9f3376673440d862a416464726573733a206c6f772d6c6576656c2064656c65676174652063616c6c206661696c65649f2df0fed2c77648de5860a4cc508cd0818c85b8b8a1ab4ceeef8d981c8956a6a26469706673582212203bfc12096307f01a458c12dfe8df26fd0aab6ddb91bc6c6277ab2630a746650d64736f6c63430008030033",
  "devdoc": {
    "kind": "dev",
    "methods": {
      "DOMAIN_SEPARATOR()": {
        "details": "See {IERC20Permit-DOMAIN_SEPARATOR}."
      },
      "allowance(address,address)": {
        "details": "See {IERC20-allowance}."
      },
      "approve(address,uint256)": {
        "details": "See {IERC20-approve}. Requirements: - `spender` cannot be the zero address."
      },
      "balanceOf(address)": {
        "details": "See {IERC20-balanceOf}."
      },
      "burn(uint256)": {
        "details": "Destroys `amount` tokens from the caller. See {ERC20-_burn}."
      },
      "checkpoints(address,uint32)": {
        "details": "Get the `pos`-th checkpoint for `account`."
      },
      "decimals()": {
        "details": "Returns the number of decimals used to get its user representation. For example, if `decimals` equals `2`, a balance of `505` tokens should be displayed to a user as `5.05` (`505 / 10 ** 2`). Tokens usually opt for a value of 18, imitating the relationship between Ether and Wei. This is the value {ERC20} uses, unless this function is overridden; NOTE: This information is only used for _display_ purposes: it in no way affects any of the arithmetic of the contract, including {IERC20-balanceOf} and {IERC20-transfer}."
      },
      "decreaseAllowance(address,uint256)": {
        "details": "Atomically decreases the allowance granted to `spender` by the caller. This is an alternative to {approve} that can be used as a mitigation for problems described in {IERC20-approve}. Emits an {Approval} event indicating the updated allowance. Requirements: - `spender` cannot be the zero address. - `spender` must have allowance for the caller of at least `subtractedValue`."
      },
      "delegate(address)": {
        "details": "Delegate votes from the sender to `delegatee`."
      },
      "delegateBySig(address,uint256,uint256,uint8,bytes32,bytes32)": {
        "details": "Delegates votes from signer to `delegatee`"
      },
      "delegates(address)": {
        "details": "Get the address `account` is currently delegating to."
      },
      "getPastTotalSupply(uint256)": {
        "details": "Retrieve the `totalSupply` at the end of `blockNumber`. Note, this value is the sum of all balances. It is but NOT the sum of all the delegated votes! Requirements: - `blockNumber` must have been already mined"
      },
      "getPastVotes(address,uint256)": {
        "details": "Retrieve the number of votes for `account` at the end of `blockNumber`. Requirements: - `blockNumber` must have been already mined"
      },
      "getRoleAdmin(bytes32)": {
        "details": "Returns the admin role that controls `role`. See {grantRole} and {revokeRole}. To change a role's admin, use {_setRoleAdmin}."
      },
      "getVotes(address)": {
        "details": "Gets the current votes balance for `account`"
      },
      "grantRole(bytes32,address)": {
        "details": "Grants `role` to `account`. If `account` had not been already granted `role`, emits a {RoleGranted} event. Requirements: - the caller must have ``role``'s admin role."
      },
      "hasRole(bytes32,address)": {
        "details": "Returns `true` if `account` has been granted `role`."
      },
      "increaseAllowance(address,uint256)": {
        "details": "Atomically increases the allowance granted to `spender` by the caller. This is an alternative to {approve} that can be used as a mitigation for problems described in {IERC20-approve}. Emits an {Approval} event indicating the updated allowance. Requirements: - `spender` cannot be the zero address."
      },
      "initialize(string,string,address,address)": {
        "details": "This function is called `initialize` to differentiate it from `initialize(string,string)` in the parent contract which should NOT be called to initialize this contract. ",
        "params": {
          "name": "The name of the Float governance token",
          "stakerAddress": "The staker contract that controls minting of the token",
          "symbol": "The ticker representing the token"
        }
      },
      "mint(address,uint256)": {
        "details": "Can only be called by addresses with a MINTER_ROLE.  This should correspond to the Staker contract.",
        "params": {
          "amount": "Amount of synthetic tokens to mint in wei.",
          "to": "The address for which to mint the tokens for."
        }
      },
      "name()": {
        "details": "Returns the name of the token."
      },
      "nonces(address)": {
        "details": "See {IERC20Permit-nonces}."
      },
      "numCheckpoints(address)": {
        "details": "Get number of checkpoints for `account`."
      },
      "paused()": {
        "details": "Returns true if the contract is paused, and false otherwise."
      },
      "permit(address,address,uint256,uint256,uint8,bytes32,bytes32)": {
        "details": "See {IERC20Permit-permit}."
      },
      "renounceRole(bytes32,address)": {
        "details": "Revokes `role` from the calling account. Roles are often managed via {grantRole} and {revokeRole}: this function's purpose is to provide a mechanism for accounts to lose their privileges if they are compromised (such as when a trusted device is misplaced). If the calling account had been granted `role`, emits a {RoleRevoked} event. Requirements: - the caller must be `account`."
      },
      "revokeRole(bytes32,address)": {
        "details": "Revokes `role` from `account`. If `account` had been granted `role`, emits a {RoleRevoked} event. Requirements: - the caller must have ``role``'s admin role."
      },
      "supportsInterface(bytes4)": {
        "details": "See {IERC165-supportsInterface}."
      },
      "symbol()": {
        "details": "Returns the symbol of the token, usually a shorter version of the name."
      },
      "transferFrom(address,address,uint256)": {
        "details": "See {IERC20-transferFrom}. Emits an {Approval} event indicating the updated allowance. This is not required by the EIP. See the note at the beginning of {ERC20}. Requirements: - `sender` and `recipient` cannot be the zero address. - `sender` must have a balance of at least `amount`. - the caller must have allowance for ``sender``'s tokens of at least `amount`."
      },
      "upgradeTo(address)": {
        "details": "Upgrade the implementation of the proxy to `newImplementation`. Calls {_authorizeUpgrade}. Emits an {Upgraded} event."
      },
      "upgradeToAndCall(address,bytes)": {
        "details": "Upgrade the implementation of the proxy to `newImplementation`, and subsequently execute the function call encoded in `data`. Calls {_authorizeUpgrade}. Emits an {Upgraded} event."
      }
    },
    "title": "FloatToken",
    "version": 1
  },
  "userdoc": {
    "kind": "user",
    "methods": {
      "initialize(string,string,address,address)": {
        "notice": "Initialize the Float Token with relevant"
      },
      "mint(address,uint256)": {
        "notice": "Mints an amount of Float tokens for an address."
      }
    },
    "notice": "The Float Token is the governance token for the Float Capital protocol",
    "version": 1
  },
  "storageLayout": {
    "storage": [
      {
        "astId": 1102,
        "contract": "contracts/AlphaTestFLT.sol:AlphaTestFLT",
        "label": "_initialized",
        "offset": 0,
        "slot": "0",
        "type": "t_bool"
      },
      {
        "astId": 1105,
        "contract": "contracts/AlphaTestFLT.sol:AlphaTestFLT",
        "label": "_initializing",
        "offset": 1,
        "slot": "0",
        "type": "t_bool"
      },
      {
        "astId": 3537,
        "contract": "contracts/AlphaTestFLT.sol:AlphaTestFLT",
        "label": "__gap",
        "offset": 0,
        "slot": "1",
        "type": "t_array(t_uint256)50_storage"
      },
      {
        "astId": 1351,
        "contract": "contracts/AlphaTestFLT.sol:AlphaTestFLT",
        "label": "_balances",
        "offset": 0,
        "slot": "51",
        "type": "t_mapping(t_address,t_uint256)"
      },
      {
        "astId": 1357,
        "contract": "contracts/AlphaTestFLT.sol:AlphaTestFLT",
        "label": "_allowances",
        "offset": 0,
        "slot": "52",
        "type": "t_mapping(t_address,t_mapping(t_address,t_uint256))"
      },
      {
        "astId": 1359,
        "contract": "contracts/AlphaTestFLT.sol:AlphaTestFLT",
        "label": "_totalSupply",
        "offset": 0,
        "slot": "53",
        "type": "t_uint256"
      },
      {
        "astId": 1361,
        "contract": "contracts/AlphaTestFLT.sol:AlphaTestFLT",
        "label": "_name",
        "offset": 0,
        "slot": "54",
        "type": "t_string_storage"
      },
      {
        "astId": 1363,
        "contract": "contracts/AlphaTestFLT.sol:AlphaTestFLT",
        "label": "_symbol",
        "offset": 0,
        "slot": "55",
        "type": "t_string_storage"
      },
      {
        "astId": 1904,
        "contract": "contracts/AlphaTestFLT.sol:AlphaTestFLT",
        "label": "__gap",
        "offset": 0,
        "slot": "56",
        "type": "t_array(t_uint256)45_storage"
      },
      {
        "astId": 2069,
        "contract": "contracts/AlphaTestFLT.sol:AlphaTestFLT",
        "label": "__gap",
        "offset": 0,
        "slot": "101",
        "type": "t_array(t_uint256)50_storage"
      },
      {
        "astId": 1240,
        "contract": "contracts/AlphaTestFLT.sol:AlphaTestFLT",
        "label": "_paused",
        "offset": 0,
        "slot": "151",
        "type": "t_bool"
      },
      {
        "astId": 1331,
        "contract": "contracts/AlphaTestFLT.sol:AlphaTestFLT",
        "label": "__gap",
        "offset": 0,
        "slot": "152",
        "type": "t_array(t_uint256)49_storage"
      },
      {
        "astId": 4436,
        "contract": "contracts/AlphaTestFLT.sol:AlphaTestFLT",
        "label": "__gap",
        "offset": 0,
        "slot": "201",
        "type": "t_array(t_uint256)50_storage"
      },
      {
        "astId": 304,
        "contract": "contracts/AlphaTestFLT.sol:AlphaTestFLT",
        "label": "_roles",
        "offset": 0,
        "slot": "251",
        "type": "t_mapping(t_bytes32,t_struct(RoleData)299_storage)"
      },
      {
        "astId": 589,
        "contract": "contracts/AlphaTestFLT.sol:AlphaTestFLT",
        "label": "__gap",
        "offset": 0,
        "slot": "252",
        "type": "t_array(t_uint256)49_storage"
      },
      {
        "astId": 4251,
        "contract": "contracts/AlphaTestFLT.sol:AlphaTestFLT",
        "label": "_HASHED_NAME",
        "offset": 0,
        "slot": "301",
        "type": "t_bytes32"
      },
      {
        "astId": 4253,
        "contract": "contracts/AlphaTestFLT.sol:AlphaTestFLT",
        "label": "_HASHED_VERSION",
        "offset": 0,
        "slot": "302",
        "type": "t_bytes32"
      },
      {
        "astId": 4390,
        "contract": "contracts/AlphaTestFLT.sol:AlphaTestFLT",
        "label": "__gap",
        "offset": 0,
        "slot": "303",
        "type": "t_array(t_uint256)50_storage"
      },
      {
        "astId": 2845,
        "contract": "contracts/AlphaTestFLT.sol:AlphaTestFLT",
        "label": "_nonces",
        "offset": 0,
        "slot": "353",
        "type": "t_mapping(t_address,t_struct(Counter)3544_storage)"
      },
      {
        "astId": 2847,
        "contract": "contracts/AlphaTestFLT.sol:AlphaTestFLT",
        "label": "_PERMIT_TYPEHASH",
        "offset": 0,
        "slot": "354",
        "type": "t_bytes32"
      },
      {
        "astId": 3015,
        "contract": "contracts/AlphaTestFLT.sol:AlphaTestFLT",
        "label": "__gap",
        "offset": 0,
        "slot": "355",
        "type": "t_array(t_uint256)49_storage"
      },
      {
        "astId": 2167,
        "contract": "contracts/AlphaTestFLT.sol:AlphaTestFLT",
        "label": "_delegates",
        "offset": 0,
        "slot": "404",
        "type": "t_mapping(t_address,t_address)"
      },
      {
        "astId": 2173,
        "contract": "contracts/AlphaTestFLT.sol:AlphaTestFLT",
        "label": "_checkpoints",
        "offset": 0,
        "slot": "405",
        "type": "t_mapping(t_address,t_array(t_struct(Checkpoint)2158_storage)dyn_storage)"
      },
      {
        "astId": 2177,
        "contract": "contracts/AlphaTestFLT.sol:AlphaTestFLT",
        "label": "_totalSupplyCheckpoints",
        "offset": 0,
        "slot": "406",
        "type": "t_array(t_struct(Checkpoint)2158_storage)dyn_storage"
      },
      {
        "astId": 2793,
        "contract": "contracts/AlphaTestFLT.sol:AlphaTestFLT",
        "label": "__gap",
        "offset": 0,
        "slot": "407",
        "type": "t_array(t_uint256)47_storage"
      },
      {
        "astId": 1085,
        "contract": "contracts/AlphaTestFLT.sol:AlphaTestFLT",
        "label": "__gap",
        "offset": 0,
        "slot": "454",
        "type": "t_array(t_uint256)50_storage"
      },
      {
        "astId": 1218,
        "contract": "contracts/AlphaTestFLT.sol:AlphaTestFLT",
        "label": "__gap",
        "offset": 0,
        "slot": "504",
        "type": "t_array(t_uint256)50_storage"
      },
      {
        "astId": 9914,
        "contract": "contracts/AlphaTestFLT.sol:AlphaTestFLT",
        "label": "treasury",
        "offset": 0,
        "slot": "554",
        "type": "t_address"
      }
    ],
    "types": {
      "t_address": {
        "encoding": "inplace",
        "label": "address",
        "numberOfBytes": "20"
      },
      "t_array(t_struct(Checkpoint)2158_storage)dyn_storage": {
        "base": "t_struct(Checkpoint)2158_storage",
        "encoding": "dynamic_array",
        "label": "struct ERC20VotesUpgradeable.Checkpoint[]",
        "numberOfBytes": "32"
      },
      "t_array(t_uint256)45_storage": {
        "base": "t_uint256",
        "encoding": "inplace",
        "label": "uint256[45]",
        "numberOfBytes": "1440"
      },
      "t_array(t_uint256)47_storage": {
        "base": "t_uint256",
        "encoding": "inplace",
        "label": "uint256[47]",
        "numberOfBytes": "1504"
      },
      "t_array(t_uint256)49_storage": {
        "base": "t_uint256",
        "encoding": "inplace",
        "label": "uint256[49]",
        "numberOfBytes": "1568"
      },
      "t_array(t_uint256)50_storage": {
        "base": "t_uint256",
        "encoding": "inplace",
        "label": "uint256[50]",
        "numberOfBytes": "1600"
      },
      "t_bool": {
        "encoding": "inplace",
        "label": "bool",
        "numberOfBytes": "1"
      },
      "t_bytes32": {
        "encoding": "inplace",
        "label": "bytes32",
        "numberOfBytes": "32"
      },
      "t_mapping(t_address,t_address)": {
        "encoding": "mapping",
        "key": "t_address",
        "label": "mapping(address => address)",
        "numberOfBytes": "32",
        "value": "t_address"
      },
      "t_mapping(t_address,t_array(t_struct(Checkpoint)2158_storage)dyn_storage)": {
        "encoding": "mapping",
        "key": "t_address",
        "label": "mapping(address => struct ERC20VotesUpgradeable.Checkpoint[])",
        "numberOfBytes": "32",
        "value": "t_array(t_struct(Checkpoint)2158_storage)dyn_storage"
      },
      "t_mapping(t_address,t_bool)": {
        "encoding": "mapping",
        "key": "t_address",
        "label": "mapping(address => bool)",
        "numberOfBytes": "32",
        "value": "t_bool"
      },
      "t_mapping(t_address,t_mapping(t_address,t_uint256))": {
        "encoding": "mapping",
        "key": "t_address",
        "label": "mapping(address => mapping(address => uint256))",
        "numberOfBytes": "32",
        "value": "t_mapping(t_address,t_uint256)"
      },
      "t_mapping(t_address,t_struct(Counter)3544_storage)": {
        "encoding": "mapping",
        "key": "t_address",
        "label": "mapping(address => struct CountersUpgradeable.Counter)",
        "numberOfBytes": "32",
        "value": "t_struct(Counter)3544_storage"
      },
      "t_mapping(t_address,t_uint256)": {
        "encoding": "mapping",
        "key": "t_address",
        "label": "mapping(address => uint256)",
        "numberOfBytes": "32",
        "value": "t_uint256"
      },
      "t_mapping(t_bytes32,t_struct(RoleData)299_storage)": {
        "encoding": "mapping",
        "key": "t_bytes32",
        "label": "mapping(bytes32 => struct AccessControlUpgradeable.RoleData)",
        "numberOfBytes": "32",
        "value": "t_struct(RoleData)299_storage"
      },
      "t_string_storage": {
        "encoding": "bytes",
        "label": "string",
        "numberOfBytes": "32"
      },
      "t_struct(Checkpoint)2158_storage": {
        "encoding": "inplace",
        "label": "struct ERC20VotesUpgradeable.Checkpoint",
        "members": [
          {
            "astId": 2155,
            "contract": "contracts/AlphaTestFLT.sol:AlphaTestFLT",
            "label": "fromBlock",
            "offset": 0,
            "slot": "0",
            "type": "t_uint32"
          },
          {
            "astId": 2157,
            "contract": "contracts/AlphaTestFLT.sol:AlphaTestFLT",
            "label": "votes",
            "offset": 4,
            "slot": "0",
            "type": "t_uint224"
          }
        ],
        "numberOfBytes": "32"
      },
      "t_struct(Counter)3544_storage": {
        "encoding": "inplace",
        "label": "struct CountersUpgradeable.Counter",
        "members": [
          {
            "astId": 3543,
            "contract": "contracts/AlphaTestFLT.sol:AlphaTestFLT",
            "label": "_value",
            "offset": 0,
            "slot": "0",
            "type": "t_uint256"
          }
        ],
        "numberOfBytes": "32"
      },
      "t_struct(RoleData)299_storage": {
        "encoding": "inplace",
        "label": "struct AccessControlUpgradeable.RoleData",
        "members": [
          {
            "astId": 296,
            "contract": "contracts/AlphaTestFLT.sol:AlphaTestFLT",
            "label": "members",
            "offset": 0,
            "slot": "0",
            "type": "t_mapping(t_address,t_bool)"
          },
          {
            "astId": 298,
            "contract": "contracts/AlphaTestFLT.sol:AlphaTestFLT",
            "label": "adminRole",
            "offset": 0,
            "slot": "1",
            "type": "t_bytes32"
          }
        ],
        "numberOfBytes": "64"
      },
      "t_uint224": {
        "encoding": "inplace",
        "label": "uint224",
        "numberOfBytes": "28"
      },
      "t_uint256": {
        "encoding": "inplace",
        "label": "uint256",
        "numberOfBytes": "32"
      },
      "t_uint32": {
        "encoding": "inplace",
        "label": "uint32",
        "numberOfBytes": "4"
      }
    }
  }
}