{
  "address": "0x010577B40B6e08ff269BeD519765342231F87985",
  "abi": [
    {
      "anonymous": false,
      "inputs": [
        {
          "indexed": false,
          "internalType": "address",
          "name": "previousAdmin",
          "type": "address"
        },
        {
          "indexed": false,
          "internalType": "address",
          "name": "newAdmin",
          "type": "address"
        }
      ],
      "name": "AdminChanged",
      "type": "event"
    },
    {
      "anonymous": false,
      "inputs": [
        {
          "indexed": true,
          "internalType": "address",
          "name": "beacon",
          "type": "address"
        }
      ],
      "name": "BeaconUpgraded",
      "type": "event"
    },
    {
      "anonymous": false,
      "inputs": [
        {
          "indexed": true,
          "internalType": "bytes32",
          "name": "role",
          "type": "bytes32"
        },
        {
          "indexed": true,
          "internalType": "bytes32",
          "name": "previousAdminRole",
          "type": "bytes32"
        },
        {
          "indexed": true,
          "internalType": "bytes32",
          "name": "newAdminRole",
          "type": "bytes32"
        }
      ],
      "name": "RoleAdminChanged",
      "type": "event"
    },
    {
      "anonymous": false,
      "inputs": [
        {
          "indexed": true,
          "internalType": "bytes32",
          "name": "role",
          "type": "bytes32"
        },
        {
          "indexed": true,
          "internalType": "address",
          "name": "account",
          "type": "address"
        },
        {
          "indexed": true,
          "internalType": "address",
          "name": "sender",
          "type": "address"
        }
      ],
      "name": "RoleGranted",
      "type": "event"
    },
    {
      "anonymous": false,
      "inputs": [
        {
          "indexed": true,
          "internalType": "bytes32",
          "name": "role",
          "type": "bytes32"
        },
        {
          "indexed": true,
          "internalType": "address",
          "name": "account",
          "type": "address"
        },
        {
          "indexed": true,
          "internalType": "address",
          "name": "sender",
          "type": "address"
        }
      ],
      "name": "RoleRevoked",
      "type": "event"
    },
    {
      "anonymous": false,
      "inputs": [
        {
          "indexed": true,
          "internalType": "address",
          "name": "implementation",
          "type": "address"
        }
      ],
      "name": "Upgraded",
      "type": "event"
    },
    {
      "inputs": [],
      "name": "ADMIN_ROLE",
      "outputs": [
        {
          "internalType": "bytes32",
          "name": "",
          "type": "bytes32"
        }
      ],
      "stateMutability": "view",
      "type": "function"
    },
    {
      "inputs": [],
      "name": "DEFAULT_ADMIN_ROLE",
      "outputs": [
        {
          "internalType": "bytes32",
          "name": "",
          "type": "bytes32"
        }
      ],
      "stateMutability": "view",
      "type": "function"
    },
    {
      "inputs": [],
      "name": "UPGRADER_ROLE",
      "outputs": [
        {
          "internalType": "bytes32",
          "name": "",
          "type": "bytes32"
        }
      ],
      "stateMutability": "view",
      "type": "function"
    },
    {
      "inputs": [
        {
          "internalType": "bytes32",
          "name": "role",
          "type": "bytes32"
        }
      ],
      "name": "getRoleAdmin",
      "outputs": [
        {
          "internalType": "bytes32",
          "name": "",
          "type": "bytes32"
        }
      ],
      "stateMutability": "view",
      "type": "function"
    },
    {
      "inputs": [
        {
          "internalType": "bytes32",
          "name": "role",
          "type": "bytes32"
        },
        {
          "internalType": "address",
          "name": "account",
          "type": "address"
        }
      ],
      "name": "grantRole",
      "outputs": [],
      "stateMutability": "nonpayable",
      "type": "function"
    },
    {
      "inputs": [
        {
          "internalType": "bytes32",
          "name": "role",
          "type": "bytes32"
        },
        {
          "internalType": "address",
          "name": "account",
          "type": "address"
        }
      ],
      "name": "hasRole",
      "outputs": [
        {
          "internalType": "bool",
          "name": "",
          "type": "bool"
        }
      ],
      "stateMutability": "view",
      "type": "function"
    },
    {
      "inputs": [
        {
          "internalType": "address",
          "name": "_admin",
          "type": "address"
        }
      ],
      "name": "initialize",
      "outputs": [],
      "stateMutability": "nonpayable",
      "type": "function"
    },
    {
      "inputs": [
        {
          "internalType": "bytes32",
          "name": "role",
          "type": "bytes32"
        },
        {
          "internalType": "address",
          "name": "account",
          "type": "address"
        }
      ],
      "name": "renounceRole",
      "outputs": [],
      "stateMutability": "nonpayable",
      "type": "function"
    },
    {
      "inputs": [
        {
          "internalType": "bytes32",
          "name": "role",
          "type": "bytes32"
        },
        {
          "internalType": "address",
          "name": "account",
          "type": "address"
        }
      ],
      "name": "revokeRole",
      "outputs": [],
      "stateMutability": "nonpayable",
      "type": "function"
    },
    {
      "inputs": [
        {
          "internalType": "bytes4",
          "name": "interfaceId",
          "type": "bytes4"
        }
      ],
      "name": "supportsInterface",
      "outputs": [
        {
          "internalType": "bool",
          "name": "",
          "type": "bool"
        }
      ],
      "stateMutability": "view",
      "type": "function"
    },
    {
      "inputs": [
        {
          "internalType": "address",
          "name": "newImplementation",
          "type": "address"
        }
      ],
      "name": "upgradeTo",
      "outputs": [],
      "stateMutability": "nonpayable",
      "type": "function"
    },
    {
      "inputs": [
        {
          "internalType": "address",
          "name": "newImplementation",
          "type": "address"
        },
        {
          "internalType": "bytes",
          "name": "data",
          "type": "bytes"
        }
      ],
      "name": "upgradeToAndCall",
      "outputs": [],
      "stateMutability": "payable",
      "type": "function"
    }
  ],
  "transactionHash": "0xaba4412d4512aa53eba540c8fb970c44ee61e8827fb460717c6d8c9e5758259f",
  "args": [],
  "solcInputHash": "9579e97d8e3309f43c75fdbfb23b7abd",
  "bytecode": "0x60a06040523060805234801561001457600080fd5b5060805161123d61004560003960008181610361015281816103a10152818161042a015261046a015261123d6000f3fe6080604052600436106100a75760003560e01c806375b238fc1161006457806375b238fc1461019457806391d14854146101c8578063a217fddf146101e8578063c4d66de8146101fd578063d547741f1461021d578063f72c0d8b1461023d57600080fd5b806301ffc9a7146100ac578063248a9ca3146100e15780632f2ff15d1461011f57806336568abe146101415780633659cfe6146101615780634f1ef28614610181575b600080fd5b3480156100b857600080fd5b506100cc6100c7366004610dc3565b610271565b60405190151581526020015b60405180910390f35b3480156100ed57600080fd5b506101116100fc366004610ded565b60009081526065602052604090206001015490565b6040519081526020016100d8565b34801561012b57600080fd5b5061013f61013a366004610e22565b6102a8565b005b34801561014d57600080fd5b5061013f61015c366004610e22565b6102d3565b34801561016d57600080fd5b5061013f61017c366004610e4e565b610356565b61013f61018f366004610e7f565b61041f565b3480156101a057600080fd5b506101117fa49807205ce4d355092ef5a8a18f56e8913cf4a201fbe287825b095693c2177581565b3480156101d457600080fd5b506100cc6101e3366004610e22565b6104d5565b3480156101f457600080fd5b50610111600081565b34801561020957600080fd5b5061013f610218366004610e4e565b610500565b34801561022957600080fd5b5061013f610238366004610e22565b61057b565b34801561024957600080fd5b506101117f189ab7a9244df0848122154315af71fe140f3db0fe014031783b0946b8c9d2e381565b60006001600160e01b03198216637965db0b60e01b14806102a257506301ffc9a760e01b6001600160e01b03198316145b92915050565b6000828152606560205260409020600101546102c481336105a1565b6102ce8383610605565b505050565b6001600160a01b03811633146103485760405162461bcd60e51b815260206004820152602f60248201527f416363657373436f6e74726f6c3a2063616e206f6e6c792072656e6f756e636560448201526e103937b632b9903337b91039b2b63360891b60648201526084015b60405180910390fd5b610352828261068b565b5050565b306001600160a01b037f000000000000000000000000000000000000000000000000000000000000000016141561039f5760405162461bcd60e51b815260040161033f90610f41565b7f00000000000000000000000000000000000000000000000000000000000000006001600160a01b03166103d16106f2565b6001600160a01b0316146103f75760405162461bcd60e51b815260040161033f90610f8d565b61040081610720565b6040805160008082526020820190925261041c9183919061074b565b50565b306001600160a01b037f00000000000000000000000000000000000000000000000000000000000000001614156104685760405162461bcd60e51b815260040161033f90610f41565b7f00000000000000000000000000000000000000000000000000000000000000006001600160a01b031661049a6106f2565b6001600160a01b0316146104c05760405162461bcd60e51b815260040161033f90610f8d565b6104c982610720565b6103528282600161074b565b60009182526065602090815260408084206001600160a01b0393909316845291905290205460ff1690565b600054610100900460ff1661051b5760005460ff161561051f565b303b155b61053b5760405162461bcd60e51b815260040161033f90610fd9565b600054610100900460ff1615801561055d576000805461ffff19166101011790555b61056682610896565b8015610352576000805461ff00191690555050565b60008281526065602052604090206001015461059781336105a1565b6102ce838361068b565b6105ab82826104d5565b610352576105c3816001600160a01b0316601461090c565b6105ce83602061090c565b6040516020016105df929190611057565b60408051601f198184030181529082905262461bcd60e51b825261033f916004016110cc565b61060f82826104d5565b6103525760008281526065602090815260408083206001600160a01b03851684529091529020805460ff191660011790556106473390565b6001600160a01b0316816001600160a01b0316837f2f8788117e7eff1d82e926ec794901d17c78024a50270940304540a733656f0d60405160405180910390a45050565b61069582826104d5565b156103525760008281526065602090815260408083206001600160a01b0385168085529252808320805460ff1916905551339285917ff6391f5c32d9c69d2a47ea670b442974b53935d1edc7fd64eb21e047a839171b9190a45050565b7f360894a13ba1a3210667c828492db98dca3e2076cc3735a920a3ca505d382bbc546001600160a01b031690565b7f189ab7a9244df0848122154315af71fe140f3db0fe014031783b0946b8c9d2e361035281336105a1565b60006107556106f2565b905061076084610aaf565b60008351118061076d5750815b1561077e5761077c8484610b54565b505b7f4910fdfa16fed3260ed0e7147f7cc6da11a60208b5b9406d12a635614ffd9143805460ff1661088f57805460ff191660011781556040516001600160a01b03831660248201526107fd90869060440160408051601f198184030181529190526020810180516001600160e01b0316631b2ce7f360e11b179052610b54565b50805460ff1916815561080e6106f2565b6001600160a01b0316826001600160a01b0316146108865760405162461bcd60e51b815260206004820152602f60248201527f45524331393637557067726164653a207570677261646520627265616b73206660448201526e75727468657220757067726164657360881b606482015260840161033f565b61088f85610c3f565b5050505050565b600054610100900460ff166108b15760005460ff16156108b5565b303b155b6108d15760405162461bcd60e51b815260040161033f90610fd9565b600054610100900460ff161580156108f3576000805461ffff19166101011790555b6108fb610c7f565b610903610cc0565b61056682610ce7565b6060600061091b836002611115565b610926906002611134565b67ffffffffffffffff81111561093e5761093e610e69565b6040519080825280601f01601f191660200182016040528015610968576020820181803683370190505b509050600360fc1b816000815181106109835761098361114c565b60200101906001600160f81b031916908160001a905350600f60fb1b816001815181106109b2576109b261114c565b60200101906001600160f81b031916908160001a90535060006109d6846002611115565b6109e1906001611134565b90505b6001811115610a59576f181899199a1a9b1b9c1cb0b131b232b360811b85600f1660108110610a1557610a1561114c565b1a60f81b828281518110610a2b57610a2b61114c565b60200101906001600160f81b031916908160001a90535060049490941c93610a5281611162565b90506109e4565b508315610aa85760405162461bcd60e51b815260206004820181905260248201527f537472696e67733a20686578206c656e67746820696e73756666696369656e74604482015260640161033f565b9392505050565b803b610b135760405162461bcd60e51b815260206004820152602d60248201527f455243313936373a206e657720696d706c656d656e746174696f6e206973206e60448201526c1bdd08184818dbdb9d1c9858dd609a1b606482015260840161033f565b7f360894a13ba1a3210667c828492db98dca3e2076cc3735a920a3ca505d382bbc80546001600160a01b0319166001600160a01b0392909216919091179055565b6060823b610bb35760405162461bcd60e51b815260206004820152602660248201527f416464726573733a2064656c65676174652063616c6c20746f206e6f6e2d636f6044820152651b9d1c9858dd60d21b606482015260840161033f565b600080846001600160a01b031684604051610bce9190611179565b600060405180830381855af49150503d8060008114610c09576040519150601f19603f3d011682016040523d82523d6000602084013e610c0e565b606091505b5091509150610c3682826040518060600160405280602781526020016111e160279139610d59565b95945050505050565b610c4881610aaf565b6040516001600160a01b038216907fbc7cd75a20ee27fd9adebab32041f755214dbc6bffa90cc0225b39da2e5c2d3b90600090a250565b600054610100900460ff16610ca65760405162461bcd60e51b815260040161033f90611195565b610cae610d92565b610cb6610d92565b610cbe610d92565b565b600054610100900460ff16610cae5760405162461bcd60e51b815260040161033f90611195565b6001600160a01b038116610cfa57600080fd5b610d05600082610db9565b610d2f7fa49807205ce4d355092ef5a8a18f56e8913cf4a201fbe287825b095693c2177582610db9565b61041c7f189ab7a9244df0848122154315af71fe140f3db0fe014031783b0946b8c9d2e382610db9565b60608315610d68575081610aa8565b825115610d785782518084602001fd5b8160405162461bcd60e51b815260040161033f91906110cc565b600054610100900460ff16610cbe5760405162461bcd60e51b815260040161033f90611195565b6103528282610605565b600060208284031215610dd557600080fd5b81356001600160e01b031981168114610aa857600080fd5b600060208284031215610dff57600080fd5b5035919050565b80356001600160a01b0381168114610e1d57600080fd5b919050565b60008060408385031215610e3557600080fd5b82359150610e4560208401610e06565b90509250929050565b600060208284031215610e6057600080fd5b610aa882610e06565b634e487b7160e01b600052604160045260246000fd5b60008060408385031215610e9257600080fd5b610e9b83610e06565b9150602083013567ffffffffffffffff80821115610eb857600080fd5b818501915085601f830112610ecc57600080fd5b813581811115610ede57610ede610e69565b604051601f8201601f19908116603f01168101908382118183101715610f0657610f06610e69565b81604052828152886020848701011115610f1f57600080fd5b8260208601602083013760006020848301015280955050505050509250929050565b6020808252602c908201527f46756e6374696f6e206d7573742062652063616c6c6564207468726f7567682060408201526b19195b1959d85d1958d85b1b60a21b606082015260800190565b6020808252602c908201527f46756e6374696f6e206d7573742062652063616c6c6564207468726f7567682060408201526b6163746976652070726f787960a01b606082015260800190565b6020808252602e908201527f496e697469616c697a61626c653a20636f6e747261637420697320616c72656160408201526d191e481a5b9a5d1a585b1a5e995960921b606082015260800190565b60005b8381101561104257818101518382015260200161102a565b83811115611051576000848401525b50505050565b7f416363657373436f6e74726f6c3a206163636f756e742000000000000000000081526000835161108f816017850160208801611027565b7001034b99036b4b9b9b4b733903937b6329607d1b60179184019182015283516110c0816028840160208801611027565b01602801949350505050565b60208152600082518060208401526110eb816040850160208701611027565b601f01601f19169190910160400192915050565b634e487b7160e01b600052601160045260246000fd5b600081600019048311821515161561112f5761112f6110ff565b500290565b60008219821115611147576111476110ff565b500190565b634e487b7160e01b600052603260045260246000fd5b600081611171576111716110ff565b506000190190565b6000825161118b818460208701611027565b9190910192915050565b6020808252602b908201527f496e697469616c697a61626c653a20636f6e7472616374206973206e6f74206960408201526a6e697469616c697a696e6760a81b60608201526080019056fe416464726573733a206c6f772d6c6576656c2064656c65676174652063616c6c206661696c6564a264697066735822122003414da4991930a34f3b42a6c68b255a05ae2afefcf41bf2185843b4c42c52ad64736f6c634300080a0033",
  "devdoc": {
    "kind": "dev",
    "methods": {
      "getRoleAdmin(bytes32)": {
        "details": "Returns the admin role that controls `role`. See {grantRole} and {revokeRole}. To change a role's admin, use {_setRoleAdmin}."
      },
      "grantRole(bytes32,address)": {
        "details": "Grants `role` to `account`. If `account` had not been already granted `role`, emits a {RoleGranted} event. Requirements: - the caller must have ``role``'s admin role."
      },
      "hasRole(bytes32,address)": {
        "details": "Returns `true` if `account` has been granted `role`."
      },
      "renounceRole(bytes32,address)": {
        "details": "Revokes `role` from the calling account. Roles are often managed via {grantRole} and {revokeRole}: this function's purpose is to provide a mechanism for accounts to lose their privileges if they are compromised (such as when a trusted device is misplaced). If the calling account had been revoked `role`, emits a {RoleRevoked} event. Requirements: - the caller must be `account`."
      },
      "revokeRole(bytes32,address)": {
        "details": "Revokes `role` from `account`. If `account` had been granted `role`, emits a {RoleRevoked} event. Requirements: - the caller must have ``role``'s admin role."
      },
      "supportsInterface(bytes4)": {
        "details": "See {IERC165-supportsInterface}."
      },
      "upgradeTo(address)": {
        "details": "Upgrade the implementation of the proxy to `newImplementation`. Calls {_authorizeUpgrade}. Emits an {Upgraded} event."
      },
      "upgradeToAndCall(address,bytes)": {
        "details": "Upgrade the implementation of the proxy to `newImplementation`, and subsequently execute the function call encoded in `data`. Calls {_authorizeUpgrade}. Emits an {Upgraded} event."
      }
    },
    "title": "Float Capital Contract ",
    "version": 1
  },
  "userdoc": {
    "kind": "user",
    "methods": {},
    "version": 1
  },
  "storageLayout": {
    "storage": [
      {
        "astId": 1051,
        "contract": "contracts/FloatCapital_v0.sol:FloatCapital_v0",
        "label": "_initialized",
        "offset": 0,
        "slot": "0",
        "type": "t_bool"
      },
      {
        "astId": 1054,
        "contract": "contracts/FloatCapital_v0.sol:FloatCapital_v0",
        "label": "_initializing",
        "offset": 1,
        "slot": "0",
        "type": "t_bool"
      },
      {
        "astId": 5350,
        "contract": "contracts/FloatCapital_v0.sol:FloatCapital_v0",
        "label": "__gap",
        "offset": 0,
        "slot": "1",
        "type": "t_array(t_uint256)50_storage"
      },
      {
        "astId": 6272,
        "contract": "contracts/FloatCapital_v0.sol:FloatCapital_v0",
        "label": "__gap",
        "offset": 0,
        "slot": "51",
        "type": "t_array(t_uint256)50_storage"
      },
      {
        "astId": 250,
        "contract": "contracts/FloatCapital_v0.sol:FloatCapital_v0",
        "label": "_roles",
        "offset": 0,
        "slot": "101",
        "type": "t_mapping(t_bytes32,t_struct(RoleData)245_storage)"
      },
      {
        "astId": 537,
        "contract": "contracts/FloatCapital_v0.sol:FloatCapital_v0",
        "label": "__gap",
        "offset": 0,
        "slot": "102",
        "type": "t_array(t_uint256)49_storage"
      },
      {
        "astId": 1033,
        "contract": "contracts/FloatCapital_v0.sol:FloatCapital_v0",
        "label": "__gap",
        "offset": 0,
        "slot": "151",
        "type": "t_array(t_uint256)50_storage"
      },
      {
        "astId": 1228,
        "contract": "contracts/FloatCapital_v0.sol:FloatCapital_v0",
        "label": "__gap",
        "offset": 0,
        "slot": "201",
        "type": "t_array(t_uint256)50_storage"
      }
    ],
    "types": {
      "t_address": {
        "encoding": "inplace",
        "label": "address",
        "numberOfBytes": "20"
      },
      "t_array(t_uint256)49_storage": {
        "base": "t_uint256",
        "encoding": "inplace",
        "label": "uint256[49]",
        "numberOfBytes": "1568"
      },
      "t_array(t_uint256)50_storage": {
        "base": "t_uint256",
        "encoding": "inplace",
        "label": "uint256[50]",
        "numberOfBytes": "1600"
      },
      "t_bool": {
        "encoding": "inplace",
        "label": "bool",
        "numberOfBytes": "1"
      },
      "t_bytes32": {
        "encoding": "inplace",
        "label": "bytes32",
        "numberOfBytes": "32"
      },
      "t_mapping(t_address,t_bool)": {
        "encoding": "mapping",
        "key": "t_address",
        "label": "mapping(address => bool)",
        "numberOfBytes": "32",
        "value": "t_bool"
      },
      "t_mapping(t_bytes32,t_struct(RoleData)245_storage)": {
        "encoding": "mapping",
        "key": "t_bytes32",
        "label": "mapping(bytes32 => struct AccessControlUpgradeable.RoleData)",
        "numberOfBytes": "32",
        "value": "t_struct(RoleData)245_storage"
      },
      "t_struct(RoleData)245_storage": {
        "encoding": "inplace",
        "label": "struct AccessControlUpgradeable.RoleData",
        "members": [
          {
            "astId": 242,
            "contract": "contracts/FloatCapital_v0.sol:FloatCapital_v0",
            "label": "members",
            "offset": 0,
            "slot": "0",
            "type": "t_mapping(t_address,t_bool)"
          },
          {
            "astId": 244,
            "contract": "contracts/FloatCapital_v0.sol:FloatCapital_v0",
            "label": "adminRole",
            "offset": 0,
            "slot": "1",
            "type": "t_bytes32"
          }
        ],
        "numberOfBytes": "64"
      },
      "t_uint256": {
        "encoding": "inplace",
        "label": "uint256",
        "numberOfBytes": "32"
      }
    }
  }
}