{
  "address": "0xC07E87191a95Bc44444c15C4C599240bf219f592",
  "abi": [
    {
      "anonymous": false,
      "inputs": [
        {
          "indexed": true,
          "internalType": "address",
          "name": "owner",
          "type": "address"
        },
        {
          "indexed": true,
          "internalType": "address",
          "name": "approved",
          "type": "address"
        },
        {
          "indexed": true,
          "internalType": "uint256",
          "name": "tokenId",
          "type": "uint256"
        }
      ],
      "name": "Approval",
      "type": "event"
    },
    {
      "anonymous": false,
      "inputs": [
        {
          "indexed": true,
          "internalType": "address",
          "name": "owner",
          "type": "address"
        },
        {
          "indexed": true,
          "internalType": "address",
          "name": "operator",
          "type": "address"
        },
        {
          "indexed": false,
          "internalType": "bool",
          "name": "approved",
          "type": "bool"
        }
      ],
      "name": "ApprovalForAll",
      "type": "event"
    },
    {
      "anonymous": false,
      "inputs": [
        {
          "indexed": false,
          "internalType": "address",
          "name": "user",
          "type": "address"
        },
        {
          "indexed": false,
          "internalType": "address",
          "name": "receiver",
          "type": "address"
        },
        {
          "indexed": false,
          "internalType": "uint256",
          "name": "levelId",
          "type": "uint256"
        },
        {
          "indexed": false,
          "internalType": "uint256",
          "name": "tokenId",
          "type": "uint256"
        }
      ],
      "name": "NFTMinted",
      "type": "event"
    },
    {
      "anonymous": false,
      "inputs": [
        {
          "indexed": false,
          "internalType": "address",
          "name": "account",
          "type": "address"
        }
      ],
      "name": "Paused",
      "type": "event"
    },
    {
      "anonymous": false,
      "inputs": [
        {
          "indexed": true,
          "internalType": "bytes32",
          "name": "role",
          "type": "bytes32"
        },
        {
          "indexed": true,
          "internalType": "bytes32",
          "name": "previousAdminRole",
          "type": "bytes32"
        },
        {
          "indexed": true,
          "internalType": "bytes32",
          "name": "newAdminRole",
          "type": "bytes32"
        }
      ],
      "name": "RoleAdminChanged",
      "type": "event"
    },
    {
      "anonymous": false,
      "inputs": [
        {
          "indexed": true,
          "internalType": "bytes32",
          "name": "role",
          "type": "bytes32"
        },
        {
          "indexed": true,
          "internalType": "address",
          "name": "account",
          "type": "address"
        },
        {
          "indexed": true,
          "internalType": "address",
          "name": "sender",
          "type": "address"
        }
      ],
      "name": "RoleGranted",
      "type": "event"
    },
    {
      "anonymous": false,
      "inputs": [
        {
          "indexed": true,
          "internalType": "bytes32",
          "name": "role",
          "type": "bytes32"
        },
        {
          "indexed": true,
          "internalType": "address",
          "name": "account",
          "type": "address"
        },
        {
          "indexed": true,
          "internalType": "address",
          "name": "sender",
          "type": "address"
        }
      ],
      "name": "RoleRevoked",
      "type": "event"
    },
    {
      "anonymous": false,
      "inputs": [
        {
          "indexed": false,
          "internalType": "uint256",
          "name": "levelId",
          "type": "uint256"
        },
        {
          "indexed": false,
          "internalType": "string",
          "name": "tokenURI",
          "type": "string"
        },
        {
          "indexed": false,
          "internalType": "uint256",
          "name": "minGems",
          "type": "uint256"
        }
      ],
      "name": "TokenAdded",
      "type": "event"
    },
    {
      "anonymous": false,
      "inputs": [
        {
          "indexed": true,
          "internalType": "address",
          "name": "from",
          "type": "address"
        },
        {
          "indexed": true,
          "internalType": "address",
          "name": "to",
          "type": "address"
        },
        {
          "indexed": true,
          "internalType": "uint256",
          "name": "tokenId",
          "type": "uint256"
        }
      ],
      "name": "Transfer",
      "type": "event"
    },
    {
      "anonymous": false,
      "inputs": [
        {
          "indexed": false,
          "internalType": "address",
          "name": "account",
          "type": "address"
        }
      ],
      "name": "Unpaused",
      "type": "event"
    },
    {
      "inputs": [],
      "name": "DEFAULT_ADMIN_ROLE",
      "outputs": [
        {
          "internalType": "bytes32",
          "name": "",
          "type": "bytes32"
        }
      ],
      "stateMutability": "view",
      "type": "function"
    },
    {
      "inputs": [],
      "name": "MINTER_ROLE",
      "outputs": [
        {
          "internalType": "bytes32",
          "name": "",
          "type": "bytes32"
        }
      ],
      "stateMutability": "view",
      "type": "function"
    },
    {
      "inputs": [],
      "name": "PAUSER_ROLE",
      "outputs": [
        {
          "internalType": "bytes32",
          "name": "",
          "type": "bytes32"
        }
      ],
      "stateMutability": "view",
      "type": "function"
    },
    {
      "inputs": [],
      "name": "UPGRADER_ROLE",
      "outputs": [
        {
          "internalType": "bytes32",
          "name": "",
          "type": "bytes32"
        }
      ],
      "stateMutability": "view",
      "type": "function"
    },
    {
      "inputs": [
        {
          "internalType": "string",
          "name": "tokenUri",
          "type": "string"
        },
        {
          "internalType": "uint256",
          "name": "minGems",
          "type": "uint256"
        }
      ],
      "name": "addToken",
      "outputs": [],
      "stateMutability": "nonpayable",
      "type": "function"
    },
    {
      "inputs": [
        {
          "internalType": "address",
          "name": "to",
          "type": "address"
        },
        {
          "internalType": "uint256",
          "name": "tokenId",
          "type": "uint256"
        }
      ],
      "name": "approve",
      "outputs": [],
      "stateMutability": "nonpayable",
      "type": "function"
    },
    {
      "inputs": [
        {
          "internalType": "address",
          "name": "owner",
          "type": "address"
        }
      ],
      "name": "balanceOf",
      "outputs": [
        {
          "internalType": "uint256",
          "name": "",
          "type": "uint256"
        }
      ],
      "stateMutability": "view",
      "type": "function"
    },
    {
      "inputs": [
        {
          "internalType": "uint256",
          "name": "tokenId",
          "type": "uint256"
        }
      ],
      "name": "burn",
      "outputs": [],
      "stateMutability": "nonpayable",
      "type": "function"
    },
    {
      "inputs": [],
      "name": "gems",
      "outputs": [
        {
          "internalType": "address",
          "name": "",
          "type": "address"
        }
      ],
      "stateMutability": "view",
      "type": "function"
    },
    {
      "inputs": [
        {
          "internalType": "uint256",
          "name": "tokenId",
          "type": "uint256"
        }
      ],
      "name": "getApproved",
      "outputs": [
        {
          "internalType": "address",
          "name": "",
          "type": "address"
        }
      ],
      "stateMutability": "view",
      "type": "function"
    },
    {
      "inputs": [
        {
          "internalType": "bytes32",
          "name": "role",
          "type": "bytes32"
        }
      ],
      "name": "getRoleAdmin",
      "outputs": [
        {
          "internalType": "bytes32",
          "name": "",
          "type": "bytes32"
        }
      ],
      "stateMutability": "view",
      "type": "function"
    },
    {
      "inputs": [
        {
          "internalType": "bytes32",
          "name": "role",
          "type": "bytes32"
        },
        {
          "internalType": "uint256",
          "name": "index",
          "type": "uint256"
        }
      ],
      "name": "getRoleMember",
      "outputs": [
        {
          "internalType": "address",
          "name": "",
          "type": "address"
        }
      ],
      "stateMutability": "view",
      "type": "function"
    },
    {
      "inputs": [
        {
          "internalType": "bytes32",
          "name": "role",
          "type": "bytes32"
        }
      ],
      "name": "getRoleMemberCount",
      "outputs": [
        {
          "internalType": "uint256",
          "name": "",
          "type": "uint256"
        }
      ],
      "stateMutability": "view",
      "type": "function"
    },
    {
      "inputs": [
        {
          "internalType": "bytes32",
          "name": "role",
          "type": "bytes32"
        },
        {
          "internalType": "address",
          "name": "account",
          "type": "address"
        }
      ],
      "name": "grantRole",
      "outputs": [],
      "stateMutability": "nonpayable",
      "type": "function"
    },
    {
      "inputs": [
        {
          "internalType": "address",
          "name": "",
          "type": "address"
        },
        {
          "internalType": "uint256",
          "name": "",
          "type": "uint256"
        }
      ],
      "name": "hasMinted",
      "outputs": [
        {
          "internalType": "bool",
          "name": "",
          "type": "bool"
        }
      ],
      "stateMutability": "view",
      "type": "function"
    },
    {
      "inputs": [
        {
          "internalType": "bytes32",
          "name": "role",
          "type": "bytes32"
        },
        {
          "internalType": "address",
          "name": "account",
          "type": "address"
        }
      ],
      "name": "hasRole",
      "outputs": [
        {
          "internalType": "bool",
          "name": "",
          "type": "bool"
        }
      ],
      "stateMutability": "view",
      "type": "function"
    },
    {
      "inputs": [
        {
          "internalType": "string",
          "name": "name",
          "type": "string"
        },
        {
          "internalType": "string",
          "name": "symbol",
          "type": "string"
        },
        {
          "internalType": "string",
          "name": "baseTokenURI",
          "type": "string"
        }
      ],
      "name": "initialize",
      "outputs": [],
      "stateMutability": "nonpayable",
      "type": "function"
    },
    {
      "inputs": [
        {
          "internalType": "address",
          "name": "_admin",
          "type": "address"
        },
        {
          "internalType": "address",
          "name": "_gems",
          "type": "address"
        },
        {
          "internalType": "string",
          "name": "name",
          "type": "string"
        },
        {
          "internalType": "string",
          "name": "symbol",
          "type": "string"
        }
      ],
      "name": "initializeNFT",
      "outputs": [],
      "stateMutability": "nonpayable",
      "type": "function"
    },
    {
      "inputs": [
        {
          "internalType": "address",
          "name": "owner",
          "type": "address"
        },
        {
          "internalType": "address",
          "name": "operator",
          "type": "address"
        }
      ],
      "name": "isApprovedForAll",
      "outputs": [
        {
          "internalType": "bool",
          "name": "",
          "type": "bool"
        }
      ],
      "stateMutability": "view",
      "type": "function"
    },
    {
      "inputs": [
        {
          "internalType": "uint256",
          "name": "",
          "type": "uint256"
        }
      ],
      "name": "levelIdToTokenData",
      "outputs": [
        {
          "internalType": "string",
          "name": "tokenUri",
          "type": "string"
        },
        {
          "internalType": "uint256",
          "name": "minRequiredGemsToMintToken",
          "type": "uint256"
        }
      ],
      "stateMutability": "view",
      "type": "function"
    },
    {
      "inputs": [],
      "name": "levelIds",
      "outputs": [
        {
          "internalType": "uint256",
          "name": "_value",
          "type": "uint256"
        }
      ],
      "stateMutability": "view",
      "type": "function"
    },
    {
      "inputs": [
        {
          "internalType": "address",
          "name": "to",
          "type": "address"
        }
      ],
      "name": "mint",
      "outputs": [],
      "stateMutability": "nonpayable",
      "type": "function"
    },
    {
      "inputs": [
        {
          "internalType": "uint256",
          "name": "levelId",
          "type": "uint256"
        },
        {
          "internalType": "address",
          "name": "receiver",
          "type": "address"
        }
      ],
      "name": "mint",
      "outputs": [
        {
          "internalType": "uint256",
          "name": "",
          "type": "uint256"
        }
      ],
      "stateMutability": "nonpayable",
      "type": "function"
    },
    {
      "inputs": [],
      "name": "name",
      "outputs": [
        {
          "internalType": "string",
          "name": "",
          "type": "string"
        }
      ],
      "stateMutability": "view",
      "type": "function"
    },
    {
      "inputs": [
        {
          "internalType": "uint256",
          "name": "tokenId",
          "type": "uint256"
        }
      ],
      "name": "ownerOf",
      "outputs": [
        {
          "internalType": "address",
          "name": "",
          "type": "address"
        }
      ],
      "stateMutability": "view",
      "type": "function"
    },
    {
      "inputs": [],
      "name": "pause",
      "outputs": [],
      "stateMutability": "nonpayable",
      "type": "function"
    },
    {
      "inputs": [],
      "name": "paused",
      "outputs": [
        {
          "internalType": "bool",
          "name": "",
          "type": "bool"
        }
      ],
      "stateMutability": "view",
      "type": "function"
    },
    {
      "inputs": [
        {
          "internalType": "bytes32",
          "name": "role",
          "type": "bytes32"
        },
        {
          "internalType": "address",
          "name": "account",
          "type": "address"
        }
      ],
      "name": "renounceRole",
      "outputs": [],
      "stateMutability": "nonpayable",
      "type": "function"
    },
    {
      "inputs": [
        {
          "internalType": "bytes32",
          "name": "role",
          "type": "bytes32"
        },
        {
          "internalType": "address",
          "name": "account",
          "type": "address"
        }
      ],
      "name": "revokeRole",
      "outputs": [],
      "stateMutability": "nonpayable",
      "type": "function"
    },
    {
      "inputs": [
        {
          "internalType": "address",
          "name": "from",
          "type": "address"
        },
        {
          "internalType": "address",
          "name": "to",
          "type": "address"
        },
        {
          "internalType": "uint256",
          "name": "tokenId",
          "type": "uint256"
        }
      ],
      "name": "safeTransferFrom",
      "outputs": [],
      "stateMutability": "nonpayable",
      "type": "function"
    },
    {
      "inputs": [
        {
          "internalType": "address",
          "name": "from",
          "type": "address"
        },
        {
          "internalType": "address",
          "name": "to",
          "type": "address"
        },
        {
          "internalType": "uint256",
          "name": "tokenId",
          "type": "uint256"
        },
        {
          "internalType": "bytes",
          "name": "_data",
          "type": "bytes"
        }
      ],
      "name": "safeTransferFrom",
      "outputs": [],
      "stateMutability": "nonpayable",
      "type": "function"
    },
    {
      "inputs": [
        {
          "internalType": "address",
          "name": "operator",
          "type": "address"
        },
        {
          "internalType": "bool",
          "name": "approved",
          "type": "bool"
        }
      ],
      "name": "setApprovalForAll",
      "outputs": [],
      "stateMutability": "nonpayable",
      "type": "function"
    },
    {
      "inputs": [
        {
          "internalType": "bytes4",
          "name": "interfaceId",
          "type": "bytes4"
        }
      ],
      "name": "supportsInterface",
      "outputs": [
        {
          "internalType": "bool",
          "name": "",
          "type": "bool"
        }
      ],
      "stateMutability": "view",
      "type": "function"
    },
    {
      "inputs": [],
      "name": "symbol",
      "outputs": [
        {
          "internalType": "string",
          "name": "",
          "type": "string"
        }
      ],
      "stateMutability": "view",
      "type": "function"
    },
    {
      "inputs": [
        {
          "internalType": "uint256",
          "name": "index",
          "type": "uint256"
        }
      ],
      "name": "tokenByIndex",
      "outputs": [
        {
          "internalType": "uint256",
          "name": "",
          "type": "uint256"
        }
      ],
      "stateMutability": "view",
      "type": "function"
    },
    {
      "inputs": [],
      "name": "tokenIds",
      "outputs": [
        {
          "internalType": "uint256",
          "name": "_value",
          "type": "uint256"
        }
      ],
      "stateMutability": "view",
      "type": "function"
    },
    {
      "inputs": [
        {
          "internalType": "address",
          "name": "owner",
          "type": "address"
        },
        {
          "internalType": "uint256",
          "name": "index",
          "type": "uint256"
        }
      ],
      "name": "tokenOfOwnerByIndex",
      "outputs": [
        {
          "internalType": "uint256",
          "name": "",
          "type": "uint256"
        }
      ],
      "stateMutability": "view",
      "type": "function"
    },
    {
      "inputs": [
        {
          "internalType": "uint256",
          "name": "tokenId",
          "type": "uint256"
        }
      ],
      "name": "tokenURI",
      "outputs": [
        {
          "internalType": "string",
          "name": "",
          "type": "string"
        }
      ],
      "stateMutability": "view",
      "type": "function"
    },
    {
      "inputs": [],
      "name": "totalSupply",
      "outputs": [
        {
          "internalType": "uint256",
          "name": "",
          "type": "uint256"
        }
      ],
      "stateMutability": "view",
      "type": "function"
    },
    {
      "inputs": [
        {
          "internalType": "address",
          "name": "from",
          "type": "address"
        },
        {
          "internalType": "address",
          "name": "to",
          "type": "address"
        },
        {
          "internalType": "uint256",
          "name": "tokenId",
          "type": "uint256"
        }
      ],
      "name": "transferFrom",
      "outputs": [],
      "stateMutability": "nonpayable",
      "type": "function"
    },
    {
      "inputs": [],
      "name": "unpause",
      "outputs": [],
      "stateMutability": "nonpayable",
      "type": "function"
    }
  ],
  "transactionHash": "0x587c006eccae843f864d216387ecc268946b3eedcf74bc6599f05a87d31de420",
  "args": [],
  "solcInputHash": "d7091de1b4dcc91dee7dd9d67ee8b9c9",
  "bytecode": "0x608060405234801561001057600080fd5b50613620806100206000396000f3fe608060405234801561001057600080fd5b50600436106102535760003560e01c8063714cff5611610146578063a22cb465116100c3578063d539139311610087578063d5391393146104fd578063d547741f14610512578063e63ab1e914610525578063e985e9c51461053a578063f72c0d8b14610576578063f8f1147d1461059d57610253565b8063a22cb4651461049e578063a6487c53146104b1578063b88d4fde146104c4578063c87b56dd146104d7578063ca15c873146104ea57610253565b806391d148541161010a57806391d1485414610447578063922ff0ce1461045a57806394bf804d1461047b57806395d89b411461048e578063a217fddf1461049657610253565b8063714cff56146104035780637c5d730e1461040e5780638456cb59146104195780638ca132f7146104215780639010d07c1461043457610253565b806336568abe116101d45780635c975abb116101985780635c975abb146103aa5780636352211e146103b65780636a627842146103c95780636c305055146103dc57806370a08231146103f057610253565b806336568abe146103565780633f4ba83a1461036957806342842e0e1461037157806342966c68146103845780634f6ccce71461039757610253565b806318160ddd1161021b57806318160ddd146102e857806323b872dd146102fa578063248a9ca31461030d5780632f2ff15d146103305780632f745c591461034357610253565b806301ffc9a71461025857806306fdde0314610280578063081812fc14610295578063095ea7b3146102c05780631313be4b146102d5575b600080fd5b61026b61026636600461308a565b6105cc565b60405190151581526020015b60405180910390f35b6102886105df565b60405161027791906132de565b6102a86102a336600461302f565b610671565b6040516001600160a01b039091168152602001610277565b6102d36102ce366004613006565b6106fe565b005b6102d36102e3366004612ea2565b610814565b60fd545b604051908152602001610277565b6102d3610308366004612f24565b610942565b6102ec61031b36600461302f565b60009081526065602052604090206001015490565b6102d361033e366004613047565b610974565b6102ec610351366004613006565b610996565b6102d3610364366004613047565b610a2f565b6102d3610a51565b6102d361037f366004612f24565b610ae7565b6102d361039236600461302f565b610b02565b6102ec6103a536600461302f565b610b7c565b61015f5460ff1661026b565b6102a86103c436600461302f565b610c1d565b6102d36103d7366004612e56565b610c94565b6101f7546102a8906001600160a01b031681565b6102ec6103fe366004612e56565b610d40565b6101f5546102ec9081565b6101f6546102ec9081565b6102d3610dc7565b6102d361042f3660046130c2565b610e59565b6102a8610442366004613069565b610f8b565b61026b610455366004613047565b610faa565b61046d61046836600461302f565b610fd5565b6040516102779291906132f1565b6102ec610489366004613047565b61107a565b61028861136b565b6102ec600081565b6102d36104ac366004612fcc565b61137a565b6102d36104bf366004613135565b61144c565b6102d36104d2366004612f5f565b6114c6565b6102886104e536600461302f565b6114f8565b6102ec6104f836600461302f565b61164a565b6102ec6000805160206135cb83398151915281565b6102d3610520366004613047565b611661565b6102ec6000805160206135ab83398151915281565b61026b610548366004612e70565b6001600160a01b03918216600090815260ce6020908152604080832093909416825291909152205460ff1690565b6102ec7f189ab7a9244df0848122154315af71fe140f3db0fe014031783b0946b8c9d2e381565b61026b6105ab366004613006565b6101fa60209081526000928352604080842090915290825290205460ff1681565b60006105d78261166b565b90505b919050565b606060c980546105ee906134e8565b80601f016020809104026020016040519081016040528092919081815260200182805461061a906134e8565b80156106675780601f1061063c57610100808354040283529160200191610667565b820191906000526020600020905b81548152906001019060200180831161064a57829003601f168201915b5050505050905090565b600061067c82611690565b6106e25760405162461bcd60e51b815260206004820152602c60248201527f4552433732313a20617070726f76656420717565727920666f72206e6f6e657860448201526b34b9ba32b73a103a37b5b2b760a11b60648201526084015b60405180910390fd5b50600090815260cd60205260409020546001600160a01b031690565b600061070982610c1d565b9050806001600160a01b0316836001600160a01b031614156107775760405162461bcd60e51b815260206004820152602160248201527f4552433732313a20617070726f76616c20746f2063757272656e74206f776e656044820152603960f91b60648201526084016106d9565b336001600160a01b038216148061079357506107938133610548565b6108055760405162461bcd60e51b815260206004820152603860248201527f4552433732313a20617070726f76652063616c6c6572206973206e6f74206f7760448201527f6e6572206e6f7220617070726f76656420666f7220616c6c000000000000000060648201526084016106d9565b61080f83836116ad565b505050565b600054610100900460ff168061082d575060005460ff16155b6108495760405162461bcd60e51b81526004016106d990613365565b600054610100900460ff1615801561086b576000805461ffff19166101011790555b61088583836040518060200160405280600081525061171b565b610890600033610a2f565b6108a86000805160206135cb83398151915233610a2f565b6108b36000866117c7565b6108cb6000805160206135cb833981519152866117c7565b6108e36000805160206135ab833981519152866117c7565b61090d7f189ab7a9244df0848122154315af71fe140f3db0fe014031783b0946b8c9d2e3336117c7565b6101f780546001600160a01b0319166001600160a01b038616179055801561093b576000805461ff00191690555b5050505050565b61094d335b826117d1565b6109695760405162461bcd60e51b81526004016106d9906133b3565b61080f8383836118b7565b61097e8282611a62565b600082815260976020526040902061080f9082611a89565b60006109a183610d40565b8210610a035760405162461bcd60e51b815260206004820152602b60248201527f455243373231456e756d657261626c653a206f776e657220696e646578206f7560448201526a74206f6620626f756e647360a81b60648201526084016106d9565b506001600160a01b038216600090815260fb602090815260408083208484529091529020545b92915050565b610a398282611a9e565b600082815260976020526040902061080f9082611b1c565b610a696000805160206135ab83398151915233610455565b610add576040805162461bcd60e51b81526020600482015260248101919091527f4552433732315072657365744d696e7465725061757365724175746f49643a2060448201527f6d75737420686176652070617573657220726f6c6520746f20756e706175736560648201526084016106d9565b610ae5611b31565b565b61080f838383604051806020016040528060008152506114c6565b610b0b33610947565b610b705760405162461bcd60e51b815260206004820152603060248201527f4552433732314275726e61626c653a2063616c6c6572206973206e6f74206f7760448201526f1b995c881b9bdc88185c1c1c9bdd995960821b60648201526084016106d9565b610b7981611bc6565b50565b6000610b8760fd5490565b8210610bea5760405162461bcd60e51b815260206004820152602c60248201527f455243373231456e756d657261626c653a20676c6f62616c20696e646578206f60448201526b7574206f6620626f756e647360a01b60648201526084016106d9565b60fd8281548110610c0b57634e487b7160e01b600052603260045260246000fd5b90600052602060002001549050919050565b600081815260cb60205260408120546001600160a01b0316806105d75760405162461bcd60e51b815260206004820152602960248201527f4552433732313a206f776e657220717565727920666f72206e6f6e657869737460448201526832b73a103a37b5b2b760b91b60648201526084016106d9565b610cac6000805160206135cb83398151915233610455565b610d1e5760405162461bcd60e51b815260206004820152603d60248201527f4552433732315072657365744d696e7465725061757365724175746f49643a2060448201527f6d7573742068617665206d696e74657220726f6c6520746f206d696e7400000060648201526084016106d9565b610d3181610d2c6101c35490565b611c6d565b610b796101c380546001019055565b60006001600160a01b038216610dab5760405162461bcd60e51b815260206004820152602a60248201527f4552433732313a2062616c616e636520717565727920666f7220746865207a65604482015269726f206164647265737360b01b60648201526084016106d9565b506001600160a01b0316600090815260cc602052604090205490565b610ddf6000805160206135ab83398151915233610455565b610e515760405162461bcd60e51b815260206004820152603e60248201527f4552433732315072657365744d696e7465725061757365724175746f49643a2060448201527f6d75737420686176652070617573657220726f6c6520746f207061757365000060648201526084016106d9565b610ae5611dac565b610e64600033611e29565b670de0b6b3a76400008111610ebb5760405162461bcd60e51b815260206004820152601e60248201527f47656d73206d696e20726571756972656d656e7420746f6f20736d616c6c000060448201526064016106d9565b81610ef95760405162461bcd60e51b815260206004820152600e60248201526d456d70747920746f6b656e55726960901b60448201526064016106d9565b610f086101f680546001019055565b6000610f146101f65490565b60008181526101f860205260409020909150610f31908585612c9d565b5060008181526101f8602052604090819020600101839055517ff7e000085d12a04e401e1cd12c8c06bba7997ca081c9874eec34621f4c9a199190610f7d908390879087908790613404565b60405180910390a150505050565b6000828152609760205260408120610fa39083611e8d565b9392505050565b60009182526065602090815260408084206001600160a01b0393909316845291905290205460ff1690565b6101f860205260009081526040902080548190610ff1906134e8565b80601f016020809104026020016040519081016040528092919081815260200182805461101d906134e8565b801561106a5780601f1061103f5761010080835404028352916020019161106a565b820191906000526020600020905b81548152906001019060200180831161104d57829003601f168201915b5050505050908060010154905082565b60006110866101f65490565b8311156110ce5760405162461bcd60e51b81526020600482015260166024820152751b195d995b081a5908191bd95cdb89dd08195e1a5cdd60521b60448201526064016106d9565b3360009081526101fa6020908152604080832086845290915290205460ff161561113a5760405162461bcd60e51b815260206004820152601760248201527f416c7265616479206d696e7465642074686973206e667400000000000000000060448201526064016106d9565b60008381526101f8602052604090819020600101546101f7549151631c04a33f60e11b815233600482015290916001600160a01b031690633809467e9060240160206040518083038186803b15801561119257600080fd5b505afa1580156111a6573d6000803e3d6000fd5b505050506040513d601f19601f820116820180604052508101906111ca91906131b9565b10156112245760405162461bcd60e51b8152602060048201526024808201527f4e6f7420656e6f7567682067656d7320746f206d696e74207468697320746f6b604482015263195b925960e21b60648201526084016106d9565b3360009081526101fa602090815260408083208684529091529020805460ff191660011790556112596101f580546001019055565b60006112656101f55490565b90506112718382611c6d565b60008481526101f8602052604090208054611314918391611291906134e8565b80601f01602080910402602001604051908101604052809291908181526020018280546112bd906134e8565b801561130a5780601f106112df5761010080835404028352916020019161130a565b820191906000526020600020905b8154815290600101906020018083116112ed57829003601f168201915b5050505050611e99565b604080513381526001600160a01b0385166020820152908101859052606081018290527f9e8a709a89b83b7026f9ebab1f1b5b04c5edf5339369ea5ae302868f443aead79060800160405180910390a19392505050565b606060ca80546105ee906134e8565b6001600160a01b0382163314156113d35760405162461bcd60e51b815260206004820152601960248201527f4552433732313a20617070726f766520746f2063616c6c65720000000000000060448201526064016106d9565b33600081815260ce602090815260408083206001600160a01b0387168085529252909120805460ff1916841515179055906001600160a01b03167f17307eab39ab6107e8899845ad3d59bd9653f200f220920489ca2b5937696c3183604051611440911515815260200190565b60405180910390a35050565b600054610100900460ff1680611465575060005460ff16155b6114815760405162461bcd60e51b81526004016106d990613365565b600054610100900460ff161580156114a3576000805461ffff19166101011790555b6114ae84848461171b565b80156114c0576000805461ff00191690555b50505050565b6114d033836117d1565b6114ec5760405162461bcd60e51b81526004016106d9906133b3565b6114c084848484611f0e565b606061150382611690565b61154f5760405162461bcd60e51b815260206004820152601f60248201527f55524920717565727920666f72206e6f6e6578697374656e7420746f6b656e0060448201526064016106d9565b60008281526101f9602052604081208054611569906134e8565b80601f0160208091040260200160405190810160405280929190818152602001828054611595906134e8565b80156115e25780601f106115b7576101008083540402835291602001916115e2565b820191906000526020600020905b8154815290600101906020018083116115c557829003601f168201915b5050505050905060006115f3611f41565b9050805160001415611607575090506105da565b8151156116395780826040516020016116219291906131fd565b604051602081830303815290604052925050506105da565b61164284611f51565b949350505050565b60008181526097602052604081206105d79061201b565b610a398282612025565b60006001600160e01b0319821663780e9d6360e01b14806105d757506105d78261204b565b600090815260cb60205260409020546001600160a01b0316151590565b600081815260cd6020526040902080546001600160a01b0319166001600160a01b03841690811790915581906116e282610c1d565b6001600160a01b03167f8c5be1e5ebec7d5bd14f71427d1e84f3dd0314c0f7b2291e5b200ac8c7c3b92560405160405180910390a45050565b600054610100900460ff1680611734575060005460ff16155b6117505760405162461bcd60e51b81526004016106d990613365565b600054610100900460ff16158015611772576000805461ffff19166101011790555b61177a61208b565b61178261208b565b61178a61208b565b61179261208b565b61179c84846120f6565b6117a461208b565b6117ac61208b565b6117b461218b565b6117bc61208b565b6114ae848484612201565b61097e82826122a9565b60006117dc82611690565b61183d5760405162461bcd60e51b815260206004820152602c60248201527f4552433732313a206f70657261746f7220717565727920666f72206e6f6e657860448201526b34b9ba32b73a103a37b5b2b760a11b60648201526084016106d9565b600061184883610c1d565b9050806001600160a01b0316846001600160a01b031614806118835750836001600160a01b031661187884610671565b6001600160a01b0316145b8061164257506001600160a01b03808216600090815260ce602090815260408083209388168352929052205460ff16611642565b826001600160a01b03166118ca82610c1d565b6001600160a01b0316146119325760405162461bcd60e51b815260206004820152602960248201527f4552433732313a207472616e73666572206f6620746f6b656e2074686174206960448201526839903737ba1037bbb760b91b60648201526084016106d9565b6001600160a01b0382166119945760405162461bcd60e51b8152602060048201526024808201527f4552433732313a207472616e7366657220746f20746865207a65726f206164646044820152637265737360e01b60648201526084016106d9565b61199f8383836122b3565b6119aa6000826116ad565b6001600160a01b038316600090815260cc602052604081208054600192906119d390849061348e565b90915550506001600160a01b038216600090815260cc60205260408120805460019290611a01908490613443565b9091555050600081815260cb602052604080822080546001600160a01b0319166001600160a01b0386811691821790925591518493918716917fddf252ad1be2c89b69c2b068fc378daa952ba7f163c4a11628f55a4df523b3ef91a4505050565b600082815260656020526040902060010154611a7f81335b611e29565b61080f83836122be565b6000610fa3836001600160a01b038416612344565b6001600160a01b0381163314611b0e5760405162461bcd60e51b815260206004820152602f60248201527f416363657373436f6e74726f6c3a2063616e206f6e6c792072656e6f756e636560448201526e103937b632b9903337b91039b2b63360891b60648201526084016106d9565b611b188282612393565b5050565b6000610fa3836001600160a01b0384166123fa565b61015f5460ff16611b7b5760405162461bcd60e51b815260206004820152601460248201527314185d5cd8589b194e881b9bdd081c185d5cd95960621b60448201526064016106d9565b61015f805460ff191690557f5db9ee0a495bf2e6ff9c91a7834c1ba4fdd244a5e8aa4e537bd38aeae4b073aa335b6040516001600160a01b03909116815260200160405180910390a1565b6000611bd182610c1d565b9050611bdf816000846122b3565b611bea6000836116ad565b6001600160a01b038116600090815260cc60205260408120805460019290611c1390849061348e565b9091555050600082815260cb602052604080822080546001600160a01b0319169055518391906001600160a01b038416907fddf252ad1be2c89b69c2b068fc378daa952ba7f163c4a11628f55a4df523b3ef908390a45050565b6001600160a01b038216611cc35760405162461bcd60e51b815260206004820181905260248201527f4552433732313a206d696e7420746f20746865207a65726f206164647265737360448201526064016106d9565b611ccc81611690565b15611d195760405162461bcd60e51b815260206004820152601c60248201527f4552433732313a20746f6b656e20616c7265616479206d696e7465640000000060448201526064016106d9565b611d25600083836122b3565b6001600160a01b038216600090815260cc60205260408120805460019290611d4e908490613443565b9091555050600081815260cb602052604080822080546001600160a01b0319166001600160a01b03861690811790915590518392907fddf252ad1be2c89b69c2b068fc378daa952ba7f163c4a11628f55a4df523b3ef908290a45050565b61015f5460ff1615611df35760405162461bcd60e51b815260206004820152601060248201526f14185d5cd8589b194e881c185d5cd95960821b60448201526064016106d9565b61015f805460ff191660011790557f62e78cea01bee320cd4e420270b5ea74000d11b0c9f74754ebdbfc544b05a258611ba93390565b611e338282610faa565b611b1857611e4b816001600160a01b03166014612517565b611e56836020612517565b604051602001611e6792919061322c565b60408051601f198184030181529082905262461bcd60e51b82526106d9916004016132de565b6000610fa383836126f9565b611ea282611690565b611eee5760405162461bcd60e51b815260206004820152601c60248201527f55524920736574206f66206e6f6e6578697374656e7420746f6b656e0000000060448201526064016106d9565b60008281526101f960209081526040909120825161080f92840190612d21565b611f198484846118b7565b611f2584848484612731565b6114c05760405162461bcd60e51b81526004016106d990613313565b60606101c480546105ee906134e8565b6060611f5c82611690565b611fc05760405162461bcd60e51b815260206004820152602f60248201527f4552433732314d657461646174613a2055524920717565727920666f72206e6f60448201526e3732bc34b9ba32b73a103a37b5b2b760891b60648201526084016106d9565b6000611fca611f41565b90506000815111611fea5760405180602001604052806000815250610fa3565b80611ff48461283e565b6040516020016120059291906131fd565b6040516020818303038152906040529392505050565b60006105d7825490565b6000828152606560205260409020600101546120418133611a7a565b61080f8383612393565b60006001600160e01b031982166380ac58cd60e01b148061207c57506001600160e01b03198216635b5e139f60e01b145b806105d757506105d782612959565b600054610100900460ff16806120a4575060005460ff16155b6120c05760405162461bcd60e51b81526004016106d990613365565b600054610100900460ff161580156120e2576000805461ffff19166101011790555b8015610b79576000805461ff001916905550565b600054610100900460ff168061210f575060005460ff16155b61212b5760405162461bcd60e51b81526004016106d990613365565b600054610100900460ff1615801561214d576000805461ffff19166101011790555b82516121609060c9906020860190612d21565b5081516121749060ca906020850190612d21565b50801561080f576000805461ff0019169055505050565b600054610100900460ff16806121a4575060005460ff16155b6121c05760405162461bcd60e51b81526004016106d990613365565b600054610100900460ff161580156121e2576000805461ffff19166101011790555b61015f805460ff191690558015610b79576000805461ff001916905550565b600054610100900460ff168061221a575060005460ff16155b6122365760405162461bcd60e51b81526004016106d990613365565b600054610100900460ff16158015612258576000805461ffff19166101011790555b815161226c906101c4906020850190612d21565b506122796000335b6117c7565b6122916000805160206135cb83398151915233612274565b6114ae6000805160206135ab83398151915233612274565b611b1882826122be565b61080f83838361297e565b6122c88282610faa565b611b185760008281526065602090815260408083206001600160a01b03851684529091529020805460ff191660011790556123003390565b6001600160a01b0316816001600160a01b0316837f2f8788117e7eff1d82e926ec794901d17c78024a50270940304540a733656f0d60405160405180910390a45050565b600081815260018301602052604081205461238b57508154600181810184556000848152602080822090930184905584548482528286019093526040902091909155610a29565b506000610a29565b61239d8282610faa565b15611b185760008281526065602090815260408083206001600160a01b0385168085529252808320805460ff1916905551339285917ff6391f5c32d9c69d2a47ea670b442974b53935d1edc7fd64eb21e047a839171b9190a45050565b6000818152600183016020526040812054801561250d57600061241e60018361348e565b85549091506000906124329060019061348e565b90508181146124b357600086600001828154811061246057634e487b7160e01b600052603260045260246000fd5b906000526020600020015490508087600001848154811061249157634e487b7160e01b600052603260045260246000fd5b6000918252602080832090910192909255918252600188019052604090208390555b85548690806124d257634e487b7160e01b600052603160045260246000fd5b600190038181906000526020600020016000905590558560010160008681526020019081526020016000206000905560019350505050610a29565b6000915050610a29565b6060600061252683600261346f565b612531906002613443565b67ffffffffffffffff81111561255757634e487b7160e01b600052604160045260246000fd5b6040519080825280601f01601f191660200182016040528015612581576020820181803683370190505b509050600360fc1b816000815181106125aa57634e487b7160e01b600052603260045260246000fd5b60200101906001600160f81b031916908160001a905350600f60fb1b816001815181106125e757634e487b7160e01b600052603260045260246000fd5b60200101906001600160f81b031916908160001a905350600061260b84600261346f565b612616906001613443565b90505b60018111156126aa576f181899199a1a9b1b9c1cb0b131b232b360811b85600f166010811061265857634e487b7160e01b600052603260045260246000fd5b1a60f81b82828151811061267c57634e487b7160e01b600052603260045260246000fd5b60200101906001600160f81b031916908160001a90535060049490941c936126a3816134d1565b9050612619565b508315610fa35760405162461bcd60e51b815260206004820181905260248201527f537472696e67733a20686578206c656e67746820696e73756666696369656e7460448201526064016106d9565b600082600001828154811061271e57634e487b7160e01b600052603260045260246000fd5b9060005260206000200154905092915050565b60006001600160a01b0384163b1561283357604051630a85bd0160e11b81526001600160a01b0385169063150b7a02906127759033908990889088906004016132a1565b602060405180830381600087803b15801561278f57600080fd5b505af19250505080156127bf575060408051601f3d908101601f191682019092526127bc918101906130a6565b60015b612819573d8080156127ed576040519150601f19603f3d011682016040523d82523d6000602084013e6127f2565b606091505b5080516128115760405162461bcd60e51b81526004016106d990613313565b805181602001fd5b6001600160e01b031916630a85bd0160e11b149050611642565b506001949350505050565b60608161286357506040805180820190915260018152600360fc1b60208201526105da565b8160005b811561288d578061287781613523565b91506128869050600a8361345b565b9150612867565b60008167ffffffffffffffff8111156128b657634e487b7160e01b600052604160045260246000fd5b6040519080825280601f01601f1916602001820160405280156128e0576020820181803683370190505b5090505b8415611642576128f560018361348e565b9150612902600a8661353e565b61290d906030613443565b60f81b81838151811061293057634e487b7160e01b600052603260045260246000fd5b60200101906001600160f81b031916908160001a905350612952600a8661345b565b94506128e4565b60006001600160e01b03198216635a05180f60e01b14806105d757506105d7826129f1565b612989838383612a26565b61015f5460ff161561080f5760405162461bcd60e51b815260206004820152602b60248201527f4552433732315061757361626c653a20746f6b656e207472616e73666572207760448201526a1a1a5b19481c185d5cd95960aa1b60648201526084016106d9565b60006001600160e01b03198216637965db0b60e01b14806105d757506301ffc9a760e01b6001600160e01b03198316146105d7565b6001600160a01b038316612a8157612a7c8160fd8054600083815260fe60205260408120829055600182018355919091527f9346ac6dd7de6b96975fec380d4d994c4c12e6a8897544f22915316cc6cca2800155565b612aa4565b816001600160a01b0316836001600160a01b031614612aa457612aa48382612ae3565b6001600160a01b038216612ac057612abb81612b80565b61080f565b826001600160a01b0316826001600160a01b03161461080f5761080f8282612c59565b60006001612af084610d40565b612afa919061348e565b600083815260fc6020526040902054909150808214612b4d576001600160a01b038416600090815260fb60209081526040808320858452825280832054848452818420819055835260fc90915290208190555b50600091825260fc602090815260408084208490556001600160a01b03909416835260fb81528383209183525290812055565b60fd54600090612b929060019061348e565b600083815260fe602052604081205460fd8054939450909284908110612bc857634e487b7160e01b600052603260045260246000fd5b906000526020600020015490508060fd8381548110612bf757634e487b7160e01b600052603260045260246000fd5b600091825260208083209091019290925582815260fe909152604080822084905585825281205560fd805480612c3d57634e487b7160e01b600052603160045260246000fd5b6001900381819060005260206000200160009055905550505050565b6000612c6483610d40565b6001600160a01b03909316600090815260fb60209081526040808320868452825280832085905593825260fc9052919091209190915550565b828054612ca9906134e8565b90600052602060002090601f016020900481019282612ccb5760008555612d11565b82601f10612ce45782800160ff19823516178555612d11565b82800160010185558215612d11579182015b82811115612d11578235825591602001919060010190612cf6565b50612d1d929150612d95565b5090565b828054612d2d906134e8565b90600052602060002090601f016020900481019282612d4f5760008555612d11565b82601f10612d6857805160ff1916838001178555612d11565b82800160010185558215612d11579182015b82811115612d11578251825591602001919060010190612d7a565b5b80821115612d1d5760008155600101612d96565b600067ffffffffffffffff80841115612dc557612dc561357e565b604051601f8501601f19908116603f01168101908282118183101715612ded57612ded61357e565b81604052809350858152868686011115612e0657600080fd5b858560208301376000602087830101525050509392505050565b80356001600160a01b03811681146105da57600080fd5b600082601f830112612e47578081fd5b610fa383833560208501612daa565b600060208284031215612e67578081fd5b610fa382612e20565b60008060408385031215612e82578081fd5b612e8b83612e20565b9150612e9960208401612e20565b90509250929050565b60008060008060808587031215612eb7578182fd5b612ec085612e20565b9350612ece60208601612e20565b9250604085013567ffffffffffffffff80821115612eea578384fd5b612ef688838901612e37565b93506060870135915080821115612f0b578283fd5b50612f1887828801612e37565b91505092959194509250565b600080600060608486031215612f38578283fd5b612f4184612e20565b9250612f4f60208501612e20565b9150604084013590509250925092565b60008060008060808587031215612f74578384fd5b612f7d85612e20565b9350612f8b60208601612e20565b925060408501359150606085013567ffffffffffffffff811115612fad578182fd5b8501601f81018713612fbd578182fd5b612f1887823560208401612daa565b60008060408385031215612fde578182fd5b612fe783612e20565b915060208301358015158114612ffb578182fd5b809150509250929050565b60008060408385031215613018578182fd5b61302183612e20565b946020939093013593505050565b600060208284031215613040578081fd5b5035919050565b60008060408385031215613059578182fd5b82359150612e9960208401612e20565b6000806040838503121561307b578182fd5b50508035926020909101359150565b60006020828403121561309b578081fd5b8135610fa381613594565b6000602082840312156130b7578081fd5b8151610fa381613594565b6000806000604084860312156130d6578081fd5b833567ffffffffffffffff808211156130ed578283fd5b818601915086601f830112613100578283fd5b81358181111561310e578384fd5b87602082850101111561311f578384fd5b6020928301989097509590910135949350505050565b600080600060608486031215613149578081fd5b833567ffffffffffffffff80821115613160578283fd5b61316c87838801612e37565b94506020860135915080821115613181578283fd5b61318d87838801612e37565b935060408601359150808211156131a2578283fd5b506131af86828701612e37565b9150509250925092565b6000602082840312156131ca578081fd5b5051919050565b600081518084526131e98160208601602086016134a5565b601f01601f19169290920160200192915050565b6000835161320f8184602088016134a5565b8351908301906132238183602088016134a5565b01949350505050565b60007f416363657373436f6e74726f6c3a206163636f756e7420000000000000000000825283516132648160178501602088016134a5565b7001034b99036b4b9b9b4b733903937b6329607d1b60179184019182015283516132958160288401602088016134a5565b01602801949350505050565b6001600160a01b03858116825284166020820152604081018390526080606082018190526000906132d4908301846131d1565b9695505050505050565b600060208252610fa360208301846131d1565b60006040825261330460408301856131d1565b90508260208301529392505050565b60208082526032908201527f4552433732313a207472616e7366657220746f206e6f6e20455243373231526560408201527131b2b4bb32b91034b6b83632b6b2b73a32b960711b606082015260800190565b6020808252602e908201527f496e697469616c697a61626c653a20636f6e747261637420697320616c72656160408201526d191e481a5b9a5d1a585b1a5e995960921b606082015260800190565b60208082526031908201527f4552433732313a207472616e736665722063616c6c6572206973206e6f74206f6040820152701ddb995c881b9bdc88185c1c1c9bdd9959607a1b606082015260800190565b6000858252606060208301528360608301528385608084013780608085840101526080601f19601f860116830101905082604083015295945050505050565b6000821982111561345657613456613552565b500190565b60008261346a5761346a613568565b500490565b600081600019048311821515161561348957613489613552565b500290565b6000828210156134a0576134a0613552565b500390565b60005b838110156134c05781810151838201526020016134a8565b838111156114c05750506000910152565b6000816134e0576134e0613552565b506000190190565b600181811c908216806134fc57607f821691505b6020821081141561351d57634e487b7160e01b600052602260045260246000fd5b50919050565b600060001982141561353757613537613552565b5060010190565b60008261354d5761354d613568565b500690565b634e487b7160e01b600052601160045260246000fd5b634e487b7160e01b600052601260045260246000fd5b634e487b7160e01b600052604160045260246000fd5b6001600160e01b031981168114610b7957600080fdfe65d7a28e3265b37a6474929f336521b332c1681b933f6cb9f3376673440d862a9f2df0fed2c77648de5860a4cc508cd0818c85b8b8a1ab4ceeef8d981c8956a6a26469706673582212202fb31447cbe57905cbf775ccb4ef09a2d41f7d02a8eac566f191e07a7295fbe664736f6c63430008030033",
  "devdoc": {
    "kind": "dev",
    "methods": {
      "approve(address,uint256)": {
        "details": "See {IERC721-approve}."
      },
      "balanceOf(address)": {
        "details": "See {IERC721-balanceOf}."
      },
      "burn(uint256)": {
        "details": "Burns `tokenId`. See {ERC721-_burn}. Requirements: - The caller must own `tokenId` or be an approved operator."
      },
      "getApproved(uint256)": {
        "details": "See {IERC721-getApproved}."
      },
      "getRoleAdmin(bytes32)": {
        "details": "Returns the admin role that controls `role`. See {grantRole} and {revokeRole}. To change a role's admin, use {_setRoleAdmin}."
      },
      "getRoleMember(bytes32,uint256)": {
        "details": "Returns one of the accounts that have `role`. `index` must be a value between 0 and {getRoleMemberCount}, non-inclusive. Role bearers are not sorted in any particular way, and their ordering may change at any point. WARNING: When using {getRoleMember} and {getRoleMemberCount}, make sure you perform all queries on the same block. See the following https://forum.openzeppelin.com/t/iterating-over-elements-on-enumerableset-in-openzeppelin-contracts/2296[forum post] for more information."
      },
      "getRoleMemberCount(bytes32)": {
        "details": "Returns the number of accounts that have `role`. Can be used together with {getRoleMember} to enumerate all bearers of a role."
      },
      "grantRole(bytes32,address)": {
        "details": "Overload {grantRole} to track enumerable memberships"
      },
      "hasRole(bytes32,address)": {
        "details": "Returns `true` if `account` has been granted `role`."
      },
      "isApprovedForAll(address,address)": {
        "details": "See {IERC721-isApprovedForAll}."
      },
      "mint(address)": {
        "details": "Creates a new token for `to`. Its token ID will be automatically assigned (and available on the emitted {IERC721-Transfer} event), and the token URI autogenerated based on the base URI passed at construction. See {ERC721-_mint}. Requirements: - the caller must have the `MINTER_ROLE`."
      },
      "name()": {
        "details": "See {IERC721Metadata-name}."
      },
      "ownerOf(uint256)": {
        "details": "See {IERC721-ownerOf}."
      },
      "pause()": {
        "details": "Pauses all token transfers. See {ERC721Pausable} and {Pausable-_pause}. Requirements: - the caller must have the `PAUSER_ROLE`."
      },
      "paused()": {
        "details": "Returns true if the contract is paused, and false otherwise."
      },
      "renounceRole(bytes32,address)": {
        "details": "Overload {renounceRole} to track enumerable memberships"
      },
      "revokeRole(bytes32,address)": {
        "details": "Overload {revokeRole} to track enumerable memberships"
      },
      "safeTransferFrom(address,address,uint256)": {
        "details": "See {IERC721-safeTransferFrom}."
      },
      "safeTransferFrom(address,address,uint256,bytes)": {
        "details": "See {IERC721-safeTransferFrom}."
      },
      "setApprovalForAll(address,bool)": {
        "details": "See {IERC721-setApprovalForAll}."
      },
      "supportsInterface(bytes4)": {
        "details": "See {IERC165-supportsInterface}."
      },
      "symbol()": {
        "details": "See {IERC721Metadata-symbol}."
      },
      "tokenByIndex(uint256)": {
        "details": "See {IERC721Enumerable-tokenByIndex}."
      },
      "tokenOfOwnerByIndex(address,uint256)": {
        "details": "See {IERC721Enumerable-tokenOfOwnerByIndex}."
      },
      "tokenURI(uint256)": {
        "details": "See {IERC721Metadata-tokenURI}."
      },
      "totalSupply()": {
        "details": "See {IERC721Enumerable-totalSupply}."
      },
      "transferFrom(address,address,uint256)": {
        "details": "See {IERC721-transferFrom}."
      },
      "unpause()": {
        "details": "Unpauses all token transfers. See {ERC721Pausable} and {Pausable-_unpause}. Requirements: - the caller must have the `PAUSER_ROLE`."
      }
    },
    "title": "GemCollectorNFT ",
    "version": 1
  },
  "userdoc": {
    "kind": "user",
    "methods": {},
    "version": 1
  },
  "storageLayout": {
    "storage": [
      {
        "astId": 1102,
        "contract": "contracts/GemCollectorNFT.sol:GemCollectorNFT",
        "label": "_initialized",
        "offset": 0,
        "slot": "0",
        "type": "t_bool"
      },
      {
        "astId": 1105,
        "contract": "contracts/GemCollectorNFT.sol:GemCollectorNFT",
        "label": "_initializing",
        "offset": 1,
        "slot": "0",
        "type": "t_bool"
      },
      {
        "astId": 5359,
        "contract": "contracts/GemCollectorNFT.sol:GemCollectorNFT",
        "label": "__gap",
        "offset": 0,
        "slot": "1",
        "type": "t_array(t_uint256)50_storage"
      },
      {
        "astId": 6258,
        "contract": "contracts/GemCollectorNFT.sol:GemCollectorNFT",
        "label": "__gap",
        "offset": 0,
        "slot": "51",
        "type": "t_array(t_uint256)50_storage"
      },
      {
        "astId": 304,
        "contract": "contracts/GemCollectorNFT.sol:GemCollectorNFT",
        "label": "_roles",
        "offset": 0,
        "slot": "101",
        "type": "t_mapping(t_bytes32,t_struct(RoleData)299_storage)"
      },
      {
        "astId": 589,
        "contract": "contracts/GemCollectorNFT.sol:GemCollectorNFT",
        "label": "__gap",
        "offset": 0,
        "slot": "102",
        "type": "t_array(t_uint256)49_storage"
      },
      {
        "astId": 91,
        "contract": "contracts/GemCollectorNFT.sol:GemCollectorNFT",
        "label": "_roleMembers",
        "offset": 0,
        "slot": "151",
        "type": "t_mapping(t_bytes32,t_struct(AddressSet)7064_storage)"
      },
      {
        "astId": 254,
        "contract": "contracts/GemCollectorNFT.sol:GemCollectorNFT",
        "label": "__gap",
        "offset": 0,
        "slot": "152",
        "type": "t_array(t_uint256)49_storage"
      },
      {
        "astId": 3312,
        "contract": "contracts/GemCollectorNFT.sol:GemCollectorNFT",
        "label": "_name",
        "offset": 0,
        "slot": "201",
        "type": "t_string_storage"
      },
      {
        "astId": 3314,
        "contract": "contracts/GemCollectorNFT.sol:GemCollectorNFT",
        "label": "_symbol",
        "offset": 0,
        "slot": "202",
        "type": "t_string_storage"
      },
      {
        "astId": 3318,
        "contract": "contracts/GemCollectorNFT.sol:GemCollectorNFT",
        "label": "_owners",
        "offset": 0,
        "slot": "203",
        "type": "t_mapping(t_uint256,t_address)"
      },
      {
        "astId": 3322,
        "contract": "contracts/GemCollectorNFT.sol:GemCollectorNFT",
        "label": "_balances",
        "offset": 0,
        "slot": "204",
        "type": "t_mapping(t_address,t_uint256)"
      },
      {
        "astId": 3326,
        "contract": "contracts/GemCollectorNFT.sol:GemCollectorNFT",
        "label": "_tokenApprovals",
        "offset": 0,
        "slot": "205",
        "type": "t_mapping(t_uint256,t_address)"
      },
      {
        "astId": 3332,
        "contract": "contracts/GemCollectorNFT.sol:GemCollectorNFT",
        "label": "_operatorApprovals",
        "offset": 0,
        "slot": "206",
        "type": "t_mapping(t_address,t_mapping(t_address,t_bool))"
      },
      {
        "astId": 4128,
        "contract": "contracts/GemCollectorNFT.sol:GemCollectorNFT",
        "label": "__gap",
        "offset": 0,
        "slot": "207",
        "type": "t_array(t_uint256)44_storage"
      },
      {
        "astId": 4360,
        "contract": "contracts/GemCollectorNFT.sol:GemCollectorNFT",
        "label": "_ownedTokens",
        "offset": 0,
        "slot": "251",
        "type": "t_mapping(t_address,t_mapping(t_uint256,t_uint256))"
      },
      {
        "astId": 4364,
        "contract": "contracts/GemCollectorNFT.sol:GemCollectorNFT",
        "label": "_ownedTokensIndex",
        "offset": 0,
        "slot": "252",
        "type": "t_mapping(t_uint256,t_uint256)"
      },
      {
        "astId": 4367,
        "contract": "contracts/GemCollectorNFT.sol:GemCollectorNFT",
        "label": "_allTokens",
        "offset": 0,
        "slot": "253",
        "type": "t_array(t_uint256)dyn_storage"
      },
      {
        "astId": 4371,
        "contract": "contracts/GemCollectorNFT.sol:GemCollectorNFT",
        "label": "_allTokensIndex",
        "offset": 0,
        "slot": "254",
        "type": "t_mapping(t_uint256,t_uint256)"
      },
      {
        "astId": 4686,
        "contract": "contracts/GemCollectorNFT.sol:GemCollectorNFT",
        "label": "__gap",
        "offset": 0,
        "slot": "255",
        "type": "t_array(t_uint256)46_storage"
      },
      {
        "astId": 4320,
        "contract": "contracts/GemCollectorNFT.sol:GemCollectorNFT",
        "label": "__gap",
        "offset": 0,
        "slot": "301",
        "type": "t_array(t_uint256)50_storage"
      },
      {
        "astId": 1274,
        "contract": "contracts/GemCollectorNFT.sol:GemCollectorNFT",
        "label": "_paused",
        "offset": 0,
        "slot": "351",
        "type": "t_bool"
      },
      {
        "astId": 1365,
        "contract": "contracts/GemCollectorNFT.sol:GemCollectorNFT",
        "label": "__gap",
        "offset": 0,
        "slot": "352",
        "type": "t_array(t_uint256)49_storage"
      },
      {
        "astId": 4754,
        "contract": "contracts/GemCollectorNFT.sol:GemCollectorNFT",
        "label": "__gap",
        "offset": 0,
        "slot": "401",
        "type": "t_array(t_uint256)50_storage"
      },
      {
        "astId": 4871,
        "contract": "contracts/GemCollectorNFT.sol:GemCollectorNFT",
        "label": "_tokenIdTracker",
        "offset": 0,
        "slot": "451",
        "type": "t_struct(Counter)5366_storage"
      },
      {
        "astId": 4873,
        "contract": "contracts/GemCollectorNFT.sol:GemCollectorNFT",
        "label": "_baseTokenURI",
        "offset": 0,
        "slot": "452",
        "type": "t_string_storage"
      },
      {
        "astId": 5070,
        "contract": "contracts/GemCollectorNFT.sol:GemCollectorNFT",
        "label": "__gap",
        "offset": 0,
        "slot": "453",
        "type": "t_array(t_uint256)48_storage"
      },
      {
        "astId": 12708,
        "contract": "contracts/GemCollectorNFT.sol:GemCollectorNFT",
        "label": "tokenIds",
        "offset": 0,
        "slot": "501",
        "type": "t_struct(Counter)5366_storage"
      },
      {
        "astId": 12711,
        "contract": "contracts/GemCollectorNFT.sol:GemCollectorNFT",
        "label": "levelIds",
        "offset": 0,
        "slot": "502",
        "type": "t_struct(Counter)5366_storage"
      },
      {
        "astId": 12718,
        "contract": "contracts/GemCollectorNFT.sol:GemCollectorNFT",
        "label": "gems",
        "offset": 0,
        "slot": "503",
        "type": "t_address"
      },
      {
        "astId": 12728,
        "contract": "contracts/GemCollectorNFT.sol:GemCollectorNFT",
        "label": "levelIdToTokenData",
        "offset": 0,
        "slot": "504",
        "type": "t_mapping(t_uint256,t_struct(TokenData)12723_storage)"
      },
      {
        "astId": 12732,
        "contract": "contracts/GemCollectorNFT.sol:GemCollectorNFT",
        "label": "_tokenURIs",
        "offset": 0,
        "slot": "505",
        "type": "t_mapping(t_uint256,t_string_storage)"
      },
      {
        "astId": 12738,
        "contract": "contracts/GemCollectorNFT.sol:GemCollectorNFT",
        "label": "hasMinted",
        "offset": 0,
        "slot": "506",
        "type": "t_mapping(t_address,t_mapping(t_uint256,t_bool))"
      }
    ],
    "types": {
      "t_address": {
        "encoding": "inplace",
        "label": "address",
        "numberOfBytes": "20"
      },
      "t_array(t_bytes32)dyn_storage": {
        "base": "t_bytes32",
        "encoding": "dynamic_array",
        "label": "bytes32[]",
        "numberOfBytes": "32"
      },
      "t_array(t_uint256)44_storage": {
        "base": "t_uint256",
        "encoding": "inplace",
        "label": "uint256[44]",
        "numberOfBytes": "1408"
      },
      "t_array(t_uint256)46_storage": {
        "base": "t_uint256",
        "encoding": "inplace",
        "label": "uint256[46]",
        "numberOfBytes": "1472"
      },
      "t_array(t_uint256)48_storage": {
        "base": "t_uint256",
        "encoding": "inplace",
        "label": "uint256[48]",
        "numberOfBytes": "1536"
      },
      "t_array(t_uint256)49_storage": {
        "base": "t_uint256",
        "encoding": "inplace",
        "label": "uint256[49]",
        "numberOfBytes": "1568"
      },
      "t_array(t_uint256)50_storage": {
        "base": "t_uint256",
        "encoding": "inplace",
        "label": "uint256[50]",
        "numberOfBytes": "1600"
      },
      "t_array(t_uint256)dyn_storage": {
        "base": "t_uint256",
        "encoding": "dynamic_array",
        "label": "uint256[]",
        "numberOfBytes": "32"
      },
      "t_bool": {
        "encoding": "inplace",
        "label": "bool",
        "numberOfBytes": "1"
      },
      "t_bytes32": {
        "encoding": "inplace",
        "label": "bytes32",
        "numberOfBytes": "32"
      },
      "t_mapping(t_address,t_bool)": {
        "encoding": "mapping",
        "key": "t_address",
        "label": "mapping(address => bool)",
        "numberOfBytes": "32",
        "value": "t_bool"
      },
      "t_mapping(t_address,t_mapping(t_address,t_bool))": {
        "encoding": "mapping",
        "key": "t_address",
        "label": "mapping(address => mapping(address => bool))",
        "numberOfBytes": "32",
        "value": "t_mapping(t_address,t_bool)"
      },
      "t_mapping(t_address,t_mapping(t_uint256,t_bool))": {
        "encoding": "mapping",
        "key": "t_address",
        "label": "mapping(address => mapping(uint256 => bool))",
        "numberOfBytes": "32",
        "value": "t_mapping(t_uint256,t_bool)"
      },
      "t_mapping(t_address,t_mapping(t_uint256,t_uint256))": {
        "encoding": "mapping",
        "key": "t_address",
        "label": "mapping(address => mapping(uint256 => uint256))",
        "numberOfBytes": "32",
        "value": "t_mapping(t_uint256,t_uint256)"
      },
      "t_mapping(t_address,t_uint256)": {
        "encoding": "mapping",
        "key": "t_address",
        "label": "mapping(address => uint256)",
        "numberOfBytes": "32",
        "value": "t_uint256"
      },
      "t_mapping(t_bytes32,t_struct(AddressSet)7064_storage)": {
        "encoding": "mapping",
        "key": "t_bytes32",
        "label": "mapping(bytes32 => struct EnumerableSetUpgradeable.AddressSet)",
        "numberOfBytes": "32",
        "value": "t_struct(AddressSet)7064_storage"
      },
      "t_mapping(t_bytes32,t_struct(RoleData)299_storage)": {
        "encoding": "mapping",
        "key": "t_bytes32",
        "label": "mapping(bytes32 => struct AccessControlUpgradeable.RoleData)",
        "numberOfBytes": "32",
        "value": "t_struct(RoleData)299_storage"
      },
      "t_mapping(t_bytes32,t_uint256)": {
        "encoding": "mapping",
        "key": "t_bytes32",
        "label": "mapping(bytes32 => uint256)",
        "numberOfBytes": "32",
        "value": "t_uint256"
      },
      "t_mapping(t_uint256,t_address)": {
        "encoding": "mapping",
        "key": "t_uint256",
        "label": "mapping(uint256 => address)",
        "numberOfBytes": "32",
        "value": "t_address"
      },
      "t_mapping(t_uint256,t_bool)": {
        "encoding": "mapping",
        "key": "t_uint256",
        "label": "mapping(uint256 => bool)",
        "numberOfBytes": "32",
        "value": "t_bool"
      },
      "t_mapping(t_uint256,t_string_storage)": {
        "encoding": "mapping",
        "key": "t_uint256",
        "label": "mapping(uint256 => string)",
        "numberOfBytes": "32",
        "value": "t_string_storage"
      },
      "t_mapping(t_uint256,t_struct(TokenData)12723_storage)": {
        "encoding": "mapping",
        "key": "t_uint256",
        "label": "mapping(uint256 => struct GemCollectorNFT.TokenData)",
        "numberOfBytes": "32",
        "value": "t_struct(TokenData)12723_storage"
      },
      "t_mapping(t_uint256,t_uint256)": {
        "encoding": "mapping",
        "key": "t_uint256",
        "label": "mapping(uint256 => uint256)",
        "numberOfBytes": "32",
        "value": "t_uint256"
      },
      "t_string_storage": {
        "encoding": "bytes",
        "label": "string",
        "numberOfBytes": "32"
      },
      "t_struct(AddressSet)7064_storage": {
        "encoding": "inplace",
        "label": "struct EnumerableSetUpgradeable.AddressSet",
        "members": [
          {
            "astId": 7063,
            "contract": "contracts/GemCollectorNFT.sol:GemCollectorNFT",
            "label": "_inner",
            "offset": 0,
            "slot": "0",
            "type": "t_struct(Set)6763_storage"
          }
        ],
        "numberOfBytes": "64"
      },
      "t_struct(Counter)5366_storage": {
        "encoding": "inplace",
        "label": "struct CountersUpgradeable.Counter",
        "members": [
          {
            "astId": 5365,
            "contract": "contracts/GemCollectorNFT.sol:GemCollectorNFT",
            "label": "_value",
            "offset": 0,
            "slot": "0",
            "type": "t_uint256"
          }
        ],
        "numberOfBytes": "32"
      },
      "t_struct(RoleData)299_storage": {
        "encoding": "inplace",
        "label": "struct AccessControlUpgradeable.RoleData",
        "members": [
          {
            "astId": 296,
            "contract": "contracts/GemCollectorNFT.sol:GemCollectorNFT",
            "label": "members",
            "offset": 0,
            "slot": "0",
            "type": "t_mapping(t_address,t_bool)"
          },
          {
            "astId": 298,
            "contract": "contracts/GemCollectorNFT.sol:GemCollectorNFT",
            "label": "adminRole",
            "offset": 0,
            "slot": "1",
            "type": "t_bytes32"
          }
        ],
        "numberOfBytes": "64"
      },
      "t_struct(Set)6763_storage": {
        "encoding": "inplace",
        "label": "struct EnumerableSetUpgradeable.Set",
        "members": [
          {
            "astId": 6758,
            "contract": "contracts/GemCollectorNFT.sol:GemCollectorNFT",
            "label": "_values",
            "offset": 0,
            "slot": "0",
            "type": "t_array(t_bytes32)dyn_storage"
          },
          {
            "astId": 6762,
            "contract": "contracts/GemCollectorNFT.sol:GemCollectorNFT",
            "label": "_indexes",
            "offset": 0,
            "slot": "1",
            "type": "t_mapping(t_bytes32,t_uint256)"
          }
        ],
        "numberOfBytes": "64"
      },
      "t_struct(TokenData)12723_storage": {
        "encoding": "inplace",
        "label": "struct GemCollectorNFT.TokenData",
        "members": [
          {
            "astId": 12720,
            "contract": "contracts/GemCollectorNFT.sol:GemCollectorNFT",
            "label": "tokenUri",
            "offset": 0,
            "slot": "0",
            "type": "t_string_storage"
          },
          {
            "astId": 12722,
            "contract": "contracts/GemCollectorNFT.sol:GemCollectorNFT",
            "label": "minRequiredGemsToMintToken",
            "offset": 0,
            "slot": "1",
            "type": "t_uint256"
          }
        ],
        "numberOfBytes": "64"
      },
      "t_uint256": {
        "encoding": "inplace",
        "label": "uint256",
        "numberOfBytes": "32"
      }
    }
  }
}