{
  "address": "0x40E0ac695d3Eb3DFF172D358f40a59028f939861",
  "abi": [
    {
      "anonymous": false,
      "inputs": [
        {
          "indexed": false,
          "internalType": "address",
          "name": "previousAdmin",
          "type": "address"
        },
        {
          "indexed": false,
          "internalType": "address",
          "name": "newAdmin",
          "type": "address"
        }
      ],
      "name": "AdminChanged",
      "type": "event"
    },
    {
      "anonymous": false,
      "inputs": [
        {
          "indexed": true,
          "internalType": "address",
          "name": "beacon",
          "type": "address"
        }
      ],
      "name": "BeaconUpgraded",
      "type": "event"
    },
    {
      "anonymous": false,
      "inputs": [
        {
          "indexed": false,
          "internalType": "address",
          "name": "nft",
          "type": "address"
        },
        {
          "indexed": false,
          "internalType": "string",
          "name": "name",
          "type": "string"
        },
        {
          "indexed": false,
          "internalType": "string",
          "name": "ticker",
          "type": "string"
        },
        {
          "indexed": false,
          "internalType": "string",
          "name": "tokenURI",
          "type": "string"
        },
        {
          "indexed": false,
          "internalType": "uint256",
          "name": "minAmount",
          "type": "uint256"
        }
      ],
      "name": "NFTAdded",
      "type": "event"
    },
    {
      "anonymous": false,
      "inputs": [
        {
          "indexed": false,
          "internalType": "address",
          "name": "user",
          "type": "address"
        },
        {
          "indexed": false,
          "internalType": "address",
          "name": "nft",
          "type": "address"
        }
      ],
      "name": "NFTMinted",
      "type": "event"
    },
    {
      "anonymous": false,
      "inputs": [
        {
          "indexed": true,
          "internalType": "bytes32",
          "name": "role",
          "type": "bytes32"
        },
        {
          "indexed": true,
          "internalType": "bytes32",
          "name": "previousAdminRole",
          "type": "bytes32"
        },
        {
          "indexed": true,
          "internalType": "bytes32",
          "name": "newAdminRole",
          "type": "bytes32"
        }
      ],
      "name": "RoleAdminChanged",
      "type": "event"
    },
    {
      "anonymous": false,
      "inputs": [
        {
          "indexed": true,
          "internalType": "bytes32",
          "name": "role",
          "type": "bytes32"
        },
        {
          "indexed": true,
          "internalType": "address",
          "name": "account",
          "type": "address"
        },
        {
          "indexed": true,
          "internalType": "address",
          "name": "sender",
          "type": "address"
        }
      ],
      "name": "RoleGranted",
      "type": "event"
    },
    {
      "anonymous": false,
      "inputs": [
        {
          "indexed": true,
          "internalType": "bytes32",
          "name": "role",
          "type": "bytes32"
        },
        {
          "indexed": true,
          "internalType": "address",
          "name": "account",
          "type": "address"
        },
        {
          "indexed": true,
          "internalType": "address",
          "name": "sender",
          "type": "address"
        }
      ],
      "name": "RoleRevoked",
      "type": "event"
    },
    {
      "anonymous": false,
      "inputs": [
        {
          "indexed": true,
          "internalType": "address",
          "name": "implementation",
          "type": "address"
        }
      ],
      "name": "Upgraded",
      "type": "event"
    },
    {
      "inputs": [],
      "name": "ADMIN_ROLE",
      "outputs": [
        {
          "internalType": "bytes32",
          "name": "",
          "type": "bytes32"
        }
      ],
      "stateMutability": "view",
      "type": "function"
    },
    {
      "inputs": [],
      "name": "DEFAULT_ADMIN_ROLE",
      "outputs": [
        {
          "internalType": "bytes32",
          "name": "",
          "type": "bytes32"
        }
      ],
      "stateMutability": "view",
      "type": "function"
    },
    {
      "inputs": [
        {
          "internalType": "address",
          "name": "",
          "type": "address"
        }
      ],
      "name": "NFTs",
      "outputs": [
        {
          "internalType": "uint256",
          "name": "",
          "type": "uint256"
        }
      ],
      "stateMutability": "view",
      "type": "function"
    },
    {
      "inputs": [],
      "name": "UPGRADER_ROLE",
      "outputs": [
        {
          "internalType": "bytes32",
          "name": "",
          "type": "bytes32"
        }
      ],
      "stateMutability": "view",
      "type": "function"
    },
    {
      "inputs": [
        {
          "internalType": "string",
          "name": "name",
          "type": "string"
        },
        {
          "internalType": "string",
          "name": "ticker",
          "type": "string"
        },
        {
          "internalType": "string",
          "name": "tokenURI",
          "type": "string"
        },
        {
          "internalType": "uint256",
          "name": "minGems",
          "type": "uint256"
        }
      ],
      "name": "addNFT",
      "outputs": [],
      "stateMutability": "nonpayable",
      "type": "function"
    },
    {
      "inputs": [],
      "name": "gems",
      "outputs": [
        {
          "internalType": "address",
          "name": "",
          "type": "address"
        }
      ],
      "stateMutability": "view",
      "type": "function"
    },
    {
      "inputs": [
        {
          "internalType": "bytes32",
          "name": "role",
          "type": "bytes32"
        }
      ],
      "name": "getRoleAdmin",
      "outputs": [
        {
          "internalType": "bytes32",
          "name": "",
          "type": "bytes32"
        }
      ],
      "stateMutability": "view",
      "type": "function"
    },
    {
      "inputs": [
        {
          "internalType": "bytes32",
          "name": "role",
          "type": "bytes32"
        },
        {
          "internalType": "address",
          "name": "account",
          "type": "address"
        }
      ],
      "name": "grantRole",
      "outputs": [],
      "stateMutability": "nonpayable",
      "type": "function"
    },
    {
      "inputs": [
        {
          "internalType": "address",
          "name": "",
          "type": "address"
        },
        {
          "internalType": "address",
          "name": "",
          "type": "address"
        }
      ],
      "name": "hasMinted",
      "outputs": [
        {
          "internalType": "bool",
          "name": "",
          "type": "bool"
        }
      ],
      "stateMutability": "view",
      "type": "function"
    },
    {
      "inputs": [
        {
          "internalType": "bytes32",
          "name": "role",
          "type": "bytes32"
        },
        {
          "internalType": "address",
          "name": "account",
          "type": "address"
        }
      ],
      "name": "hasRole",
      "outputs": [
        {
          "internalType": "bool",
          "name": "",
          "type": "bool"
        }
      ],
      "stateMutability": "view",
      "type": "function"
    },
    {
      "inputs": [
        {
          "internalType": "address",
          "name": "_admin",
          "type": "address"
        },
        {
          "internalType": "address",
          "name": "_gems",
          "type": "address"
        }
      ],
      "name": "initialize",
      "outputs": [],
      "stateMutability": "nonpayable",
      "type": "function"
    },
    {
      "inputs": [
        {
          "internalType": "address",
          "name": "nft",
          "type": "address"
        }
      ],
      "name": "mint",
      "outputs": [],
      "stateMutability": "nonpayable",
      "type": "function"
    },
    {
      "inputs": [
        {
          "internalType": "bytes32",
          "name": "role",
          "type": "bytes32"
        },
        {
          "internalType": "address",
          "name": "account",
          "type": "address"
        }
      ],
      "name": "renounceRole",
      "outputs": [],
      "stateMutability": "nonpayable",
      "type": "function"
    },
    {
      "inputs": [
        {
          "internalType": "bytes32",
          "name": "role",
          "type": "bytes32"
        },
        {
          "internalType": "address",
          "name": "account",
          "type": "address"
        }
      ],
      "name": "revokeRole",
      "outputs": [],
      "stateMutability": "nonpayable",
      "type": "function"
    },
    {
      "inputs": [
        {
          "internalType": "bytes4",
          "name": "interfaceId",
          "type": "bytes4"
        }
      ],
      "name": "supportsInterface",
      "outputs": [
        {
          "internalType": "bool",
          "name": "",
          "type": "bool"
        }
      ],
      "stateMutability": "view",
      "type": "function"
    },
    {
      "inputs": [
        {
          "internalType": "address",
          "name": "newImplementation",
          "type": "address"
        }
      ],
      "name": "upgradeTo",
      "outputs": [],
      "stateMutability": "nonpayable",
      "type": "function"
    },
    {
      "inputs": [
        {
          "internalType": "address",
          "name": "newImplementation",
          "type": "address"
        },
        {
          "internalType": "bytes",
          "name": "data",
          "type": "bytes"
        }
      ],
      "name": "upgradeToAndCall",
      "outputs": [],
      "stateMutability": "payable",
      "type": "function"
    }
  ],
  "transactionHash": "0x89f23f46de01aeccbe7db5be27080b2de1245177ed5de26a7b66367500729b73",
  "args": [],
  "solcInputHash": "09af83d5501e3ee05f53fadc7b34516d",
  "bytecode": "0x60a06040523060601b60805234801561001757600080fd5b5060805160601c6143a561004b6000396000818161049b015281816104db015281816105f5015261063501526143a56000f3fe6080604052600436106100fe5760003560e01c80636c305055116100955780639a7ae5aa116100645780639a7ae5aa146102d7578063a217fddf14610312578063b4e63f6914610327578063d547741f14610354578063f72c0d8b14610374576100fe565b80636c3050551461022b5780636f5395f21461026357806375b238fc1461028357806391d14854146102b7576100fe565b80633659cfe6116100d15780633659cfe6146101b8578063485cc955146101d85780634f1ef286146101f85780636a6278421461020b576100fe565b806301ffc9a714610103578063248a9ca3146101385780632f2ff15d1461017657806336568abe14610198575b600080fd5b34801561010f57600080fd5b5061012361011e366004611567565b6103a8565b60405190151581526020015b60405180910390f35b34801561014457600080fd5b5061016861015336600461152d565b60009081526065602052604090206001015490565b60405190815260200161012f565b34801561018257600080fd5b50610196610191366004611545565b6103e1565b005b3480156101a457600080fd5b506101966101b3366004611545565b61040d565b3480156101c457600080fd5b506101966101d3366004611482565b610490565b3480156101e457600080fd5b506101966101f336600461149c565b610559565b6101966102063660046114ce565b6105ea565b34801561021757600080fd5b50610196610226366004611482565b6106a0565b34801561023757600080fd5b5060fb5461024b906001600160a01b031681565b6040516001600160a01b03909116815260200161012f565b34801561026f57600080fd5b5061019661027e36600461158f565b610878565b34801561028f57600080fd5b506101687fa49807205ce4d355092ef5a8a18f56e8913cf4a201fbe287825b095693c2177581565b3480156102c357600080fd5b506101236102d2366004611545565b6109ee565b3480156102e357600080fd5b506101236102f236600461149c565b60fc60209081526000928352604080842090915290825290205460ff1681565b34801561031e57600080fd5b50610168600081565b34801561033357600080fd5b50610168610342366004611482565b60fd6020526000908152604090205481565b34801561036057600080fd5b5061019661036f366004611545565b610a19565b34801561038057600080fd5b506101687f189ab7a9244df0848122154315af71fe140f3db0fe014031783b0946b8c9d2e381565b60006001600160e01b03198216637965db0b60e01b14806103d957506301ffc9a760e01b6001600160e01b03198316145b90505b919050565b6000828152606560205260409020600101546103fe81335b610a3f565b6104088383610aa3565b505050565b6001600160a01b03811633146104825760405162461bcd60e51b815260206004820152602f60248201527f416363657373436f6e74726f6c3a2063616e206f6e6c792072656e6f756e636560448201526e103937b632b9903337b91039b2b63360891b60648201526084015b60405180910390fd5b61048c8282610b29565b5050565b306001600160a01b037f00000000000000000000000000000000000000000000000000000000000000001614156104d95760405162461bcd60e51b8152600401610479906117a3565b7f00000000000000000000000000000000000000000000000000000000000000006001600160a01b031661050b610b90565b6001600160a01b0316146105315760405162461bcd60e51b8152600401610479906117ef565b61053a81610bbe565b6040805160008082526020820190925261055691839190610be9565b50565b600054610100900460ff1680610572575060005460ff16155b61058e5760405162461bcd60e51b81526004016104799061183b565b600054610100900460ff161580156105b0576000805461ffff19166101011790555b6105b983610d34565b60fb80546001600160a01b0319166001600160a01b0384161790558015610408576000805461ff0019169055505050565b306001600160a01b037f00000000000000000000000000000000000000000000000000000000000000001614156106335760405162461bcd60e51b8152600401610479906117a3565b7f00000000000000000000000000000000000000000000000000000000000000006001600160a01b0316610665610b90565b6001600160a01b03161461068b5760405162461bcd60e51b8152600401610479906117ef565b61069482610bbe565b61048c82826001610be9565b33600090815260fc602090815260408083206001600160a01b038516845290915290205460ff16156107145760405162461bcd60e51b815260206004820152601760248201527f416c7265616479206d696e7465642074686973206e66740000000000000000006044820152606401610479565b60fb54604051631c04a33f60e11b81523360048201526000916001600160a01b031690633809467e9060240160206040518083038186803b15801561075857600080fd5b505afa15801561076c573d6000803e3d6000fd5b505050506040513d601f19601f82011682018060405250810190610790919061161b565b6001600160a01b038316600090815260fd6020526040902054909150811061048c5733600081815260fc602090815260408083206001600160a01b038716808552925291829020805460ff1916600117905590516335313c2160e11b8152600481019290925290636a62784290602401600060405180830381600087803b15801561081a57600080fd5b505af115801561082e573d6000803e3d6000fd5b5050604080513381526001600160a01b03861660208201527f4765472e8d7a205f24a8863709e382af628b1267cefb31a8d59dfeec4c042433935001905060405180910390a15050565b6108a27fa49807205ce4d355092ef5a8a18f56e8913cf4a201fbe287825b095693c2177533610a3f565b670de0b6b3a764000081116108f95760405162461bcd60e51b815260206004820152601e60248201527f47656d73206d696e20726571756972656d656e7420746f6f20736d616c6c00006044820152606401610479565b6000604051610907906113c9565b604051809103906000f080158015610923573d6000803e3d6000fd5b5060405163a6487c5360e01b81529091506001600160a01b0382169063a6487c539061095790889088908890600401611760565b600060405180830381600087803b15801561097157600080fd5b505af1158015610985573d6000803e3d6000fd5b5050506001600160a01b038216600090815260fd602052604090819020849055518291507f82d81a1e18ffc9649a4a4721009d97f325bb1fdb0132c212cb661f9c3dcd1834906109de90839089908990899089906116f0565b60405180910390a1505050505050565b60009182526065602090815260408084206001600160a01b0393909316845291905290205460ff1690565b600082815260656020526040902060010154610a3581336103f9565b6104088383610b29565b610a4982826109ee565b61048c57610a61816001600160a01b03166014610db9565b610a6c836020610db9565b604051602001610a7d92919061167b565b60408051601f198184030181529082905262461bcd60e51b82526104799160040161174d565b610aad82826109ee565b61048c5760008281526065602090815260408083206001600160a01b03851684529091529020805460ff19166001179055610ae53390565b6001600160a01b0316816001600160a01b0316837f2f8788117e7eff1d82e926ec794901d17c78024a50270940304540a733656f0d60405160405180910390a45050565b610b3382826109ee565b1561048c5760008281526065602090815260408083206001600160a01b0385168085529252808320805460ff1916905551339285917ff6391f5c32d9c69d2a47ea670b442974b53935d1edc7fd64eb21e047a839171b9190a45050565b7f360894a13ba1a3210667c828492db98dca3e2076cc3735a920a3ca505d382bbc546001600160a01b031690565b7f189ab7a9244df0848122154315af71fe140f3db0fe014031783b0946b8c9d2e361048c81336103f9565b6000610bf3610b90565b9050610bfe84610fa2565b600083511180610c0b5750815b15610c1c57610c1a8484611047565b505b7f4910fdfa16fed3260ed0e7147f7cc6da11a60208b5b9406d12a635614ffd9143805460ff16610d2d57805460ff191660011781556040516001600160a01b0383166024820152610c9b90869060440160408051601f198184030181529190526020810180516001600160e01b0316631b2ce7f360e11b179052611047565b50805460ff19168155610cac610b90565b6001600160a01b0316826001600160a01b031614610d245760405162461bcd60e51b815260206004820152602f60248201527f45524331393637557067726164653a207570677261646520627265616b73206660448201526e75727468657220757067726164657360881b6064820152608401610479565b610d2d85611132565b5050505050565b600054610100900460ff1680610d4d575060005460ff16155b610d695760405162461bcd60e51b81526004016104799061183b565b600054610100900460ff16158015610d8b576000805461ffff19166101011790555b610d93611172565b610d9b6111f5565b610da482611253565b801561048c576000805461ff00191690555050565b60606000610dc88360026118a1565b610dd3906002611889565b67ffffffffffffffff811115610df957634e487b7160e01b600052604160045260246000fd5b6040519080825280601f01601f191660200182016040528015610e23576020820181803683370190505b509050600360fc1b81600081518110610e4c57634e487b7160e01b600052603260045260246000fd5b60200101906001600160f81b031916908160001a905350600f60fb1b81600181518110610e8957634e487b7160e01b600052603260045260246000fd5b60200101906001600160f81b031916908160001a9053506000610ead8460026118a1565b610eb8906001611889565b90505b6001811115610f4c576f181899199a1a9b1b9c1cb0b131b232b360811b85600f1660108110610efa57634e487b7160e01b600052603260045260246000fd5b1a60f81b828281518110610f1e57634e487b7160e01b600052603260045260246000fd5b60200101906001600160f81b031916908160001a90535060049490941c93610f45816118f0565b9050610ebb565b508315610f9b5760405162461bcd60e51b815260206004820181905260248201527f537472696e67733a20686578206c656e67746820696e73756666696369656e746044820152606401610479565b9392505050565b803b6110065760405162461bcd60e51b815260206004820152602d60248201527f455243313936373a206e657720696d706c656d656e746174696f6e206973206e60448201526c1bdd08184818dbdb9d1c9858dd609a1b6064820152608401610479565b7f360894a13ba1a3210667c828492db98dca3e2076cc3735a920a3ca505d382bbc80546001600160a01b0319166001600160a01b0392909216919091179055565b6060823b6110a65760405162461bcd60e51b815260206004820152602660248201527f416464726573733a2064656c65676174652063616c6c20746f206e6f6e2d636f6044820152651b9d1c9858dd60d21b6064820152608401610479565b600080846001600160a01b0316846040516110c1919061165f565b600060405180830381855af49150503d80600081146110fc576040519150601f19603f3d011682016040523d82523d6000602084013e611101565b606091505b509150915061112982826040518060600160405280602781526020016143496027913961131c565b95945050505050565b61113b81610fa2565b6040516001600160a01b038216907fbc7cd75a20ee27fd9adebab32041f755214dbc6bffa90cc0225b39da2e5c2d3b90600090a250565b600054610100900460ff168061118b575060005460ff16155b6111a75760405162461bcd60e51b81526004016104799061183b565b600054610100900460ff161580156111c9576000805461ffff19166101011790555b6111d1611355565b6111d9611355565b6111e1611355565b8015610556576000805461ff001916905550565b600054610100900460ff168061120e575060005460ff16155b61122a5760405162461bcd60e51b81526004016104799061183b565b600054610100900460ff161580156111d1576000805461ffff19166101011790556111d9611355565b600054610100900460ff168061126c575060005460ff16155b6112885760405162461bcd60e51b81526004016104799061183b565b600054610100900460ff161580156112aa576000805461ffff19166101011790555b6001600160a01b0382166112bd57600080fd5b6112c86000836113bf565b6112f27fa49807205ce4d355092ef5a8a18f56e8913cf4a201fbe287825b095693c21775836113bf565b610da47f189ab7a9244df0848122154315af71fe140f3db0fe014031783b0946b8c9d2e3836113bf565b6060831561132b575081610f9b565b82511561133b5782518084602001fd5b8160405162461bcd60e51b8152600401610479919061174d565b600054610100900460ff168061136e575060005460ff16155b61138a5760405162461bcd60e51b81526004016104799061183b565b600054610100900460ff161580156111e1576000805461ffff19166101011790558015610556576000805461ff001916905550565b61048c8282610aa3565b612a158061193483390190565b600067ffffffffffffffff808411156113f1576113f161191d565b604051601f8501601f19908116603f011681019082821181831017156114195761141961191d565b8160405280935085815286868601111561143257600080fd5b858560208301376000602087830101525050509392505050565b80356001600160a01b03811681146103dc57600080fd5b600082601f830112611473578081fd5b610f9b838335602085016113d6565b600060208284031215611493578081fd5b610f9b8261144c565b600080604083850312156114ae578081fd5b6114b78361144c565b91506114c56020840161144c565b90509250929050565b600080604083850312156114e0578182fd5b6114e98361144c565b9150602083013567ffffffffffffffff811115611504578182fd5b8301601f81018513611514578182fd5b611523858235602084016113d6565b9150509250929050565b60006020828403121561153e578081fd5b5035919050565b60008060408385031215611557578182fd5b823591506114c56020840161144c565b600060208284031215611578578081fd5b81356001600160e01b031981168114610f9b578182fd5b600080600080608085870312156115a4578182fd5b843567ffffffffffffffff808211156115bb578384fd5b6115c788838901611463565b955060208701359150808211156115dc578384fd5b6115e888838901611463565b945060408701359150808211156115fd578384fd5b5061160a87828801611463565b949793965093946060013593505050565b60006020828403121561162c578081fd5b5051919050565b6000815180845261164b8160208601602086016118c0565b601f01601f19169290920160200192915050565b600082516116718184602087016118c0565b9190910192915050565b60007f416363657373436f6e74726f6c3a206163636f756e7420000000000000000000825283516116b38160178501602088016118c0565b7001034b99036b4b9b9b4b733903937b6329607d1b60179184019182015283516116e48160288401602088016118c0565b01602801949350505050565b6001600160a01b038616815260a06020820181905260009061171490830187611633565b82810360408401526117268187611633565b9050828103606084015261173a8186611633565b9150508260808301529695505050505050565b600060208252610f9b6020830184611633565b6000606082526117736060830186611633565b82810360208401526117858186611633565b905082810360408401526117998185611633565b9695505050505050565b6020808252602c908201527f46756e6374696f6e206d7573742062652063616c6c6564207468726f7567682060408201526b19195b1959d85d1958d85b1b60a21b606082015260800190565b6020808252602c908201527f46756e6374696f6e206d7573742062652063616c6c6564207468726f7567682060408201526b6163746976652070726f787960a01b606082015260800190565b6020808252602e908201527f496e697469616c697a61626c653a20636f6e747261637420697320616c72656160408201526d191e481a5b9a5d1a585b1a5e995960921b606082015260800190565b6000821982111561189c5761189c611907565b500190565b60008160001904831182151516156118bb576118bb611907565b500290565b60005b838110156118db5781810151838201526020016118c3565b838111156118ea576000848401525b50505050565b6000816118ff576118ff611907565b506000190190565b634e487b7160e01b600052601160045260246000fd5b634e487b7160e01b600052604160045260246000fdfe608060405234801561001057600080fd5b506129f5806100206000396000f3fe608060405234801561001057600080fd5b50600436106101f05760003560e01c80636a6278421161010f578063a6487c53116100a2578063d539139311610071578063d539139314610416578063d547741f1461043d578063e63ab1e914610450578063e985e9c514610465576101f0565b8063a6487c53146103ca578063b88d4fde146103dd578063c87b56dd146103f0578063ca15c87314610403576101f0565b806391d14854116100de57806391d148541461039457806395d89b41146103a7578063a217fddf146103af578063a22cb465146103b7576101f0565b80636a6278421461035357806370a08231146103665780638456cb59146103795780639010d07c14610381576101f0565b80632f745c591161018757806342966c681161015657806342966c681461030e5780634f6ccce7146103215780635c975abb146103345780636352211e14610340576101f0565b80632f745c59146102cd57806336568abe146102e05780633f4ba83a146102f357806342842e0e146102fb576101f0565b806318160ddd116101c357806318160ddd1461027257806323b872dd14610284578063248a9ca3146102975780632f2ff15d146102ba576101f0565b806301ffc9a7146101f557806306fdde031461021d578063081812fc14610232578063095ea7b31461025d575b600080fd5b6102086102033660046125d7565b6104a1565b60405190151581526020015b60405180910390f35b6102256104b4565b604051610214919061278d565b61024561024036600461257c565b610546565b6040516001600160a01b039091168152602001610214565b61027061026b366004612553565b6105e0565b005b60fd545b604051908152602001610214565b610270610292366004612465565b6106f6565b6102766102a536600461257c565b60009081526065602052604090206001015490565b6102706102c8366004612594565b610728565b6102766102db366004612553565b61074a565b6102706102ee366004612594565b6107e3565b610270610805565b610270610309366004612465565b61089b565b61027061031c36600461257c565b6108b6565b61027661032f36600461257c565b610930565b61015f5460ff16610208565b61024561034e36600461257c565b6109d1565b610270610361366004612419565b610a48565b610276610374366004612419565b610b06565b610270610b8d565b61024561038f3660046125b6565b610c1f565b6102086103a2366004612594565b610c3e565b610225610c69565b610276600081565b6102706103c5366004612519565b610c78565b6102706103d836600461260f565b610d4a565b6102706103eb3660046124a0565b610dc4565b6102256103fe36600461257c565b610df6565b61027661041136600461257c565b610ec6565b6102767f9f2df0fed2c77648de5860a4cc508cd0818c85b8b8a1ab4ceeef8d981c8956a681565b61027061044b366004612594565b610edd565b6102766000805160206129a083398151915281565b610208610473366004612433565b6001600160a01b03918216600090815260ce6020908152604080832093909416825291909152205460ff1690565b60006104ac82610ee7565b90505b919050565b606060c980546104c390612922565b80601f01602080910402602001604051908101604052809291908181526020018280546104ef90612922565b801561053c5780601f106105115761010080835404028352916020019161053c565b820191906000526020600020905b81548152906001019060200180831161051f57829003601f168201915b5050505050905090565b600081815260cb60205260408120546001600160a01b03166105c45760405162461bcd60e51b815260206004820152602c60248201527f4552433732313a20617070726f76656420717565727920666f72206e6f6e657860448201526b34b9ba32b73a103a37b5b2b760a11b60648201526084015b60405180910390fd5b50600090815260cd60205260409020546001600160a01b031690565b60006105eb826109d1565b9050806001600160a01b0316836001600160a01b031614156106595760405162461bcd60e51b815260206004820152602160248201527f4552433732313a20617070726f76616c20746f2063757272656e74206f776e656044820152603960f91b60648201526084016105bb565b336001600160a01b038216148061067557506106758133610473565b6106e75760405162461bcd60e51b815260206004820152603860248201527f4552433732313a20617070726f76652063616c6c6572206973206e6f74206f7760448201527f6e6572206e6f7220617070726f76656420666f7220616c6c000000000000000060648201526084016105bb565b6106f18383610f0c565b505050565b610701335b82610f7a565b61071d5760405162461bcd60e51b81526004016105bb90612840565b6106f1838383611071565b610732828261121c565b60008281526097602052604090206106f19082611243565b600061075583610b06565b82106107b75760405162461bcd60e51b815260206004820152602b60248201527f455243373231456e756d657261626c653a206f776e657220696e646578206f7560448201526a74206f6620626f756e647360a81b60648201526084016105bb565b506001600160a01b038216600090815260fb602090815260408083208484529091529020545b92915050565b6107ed8282611258565b60008281526097602052604090206106f190826112d6565b61081d6000805160206129a0833981519152336103a2565b610891576040805162461bcd60e51b81526020600482015260248101919091527f4552433732315072657365744d696e7465725061757365724175746f49643a2060448201527f6d75737420686176652070617573657220726f6c6520746f20756e706175736560648201526084016105bb565b6108996112eb565b565b6106f183838360405180602001604052806000815250610dc4565b6108bf336106fb565b6109245760405162461bcd60e51b815260206004820152603060248201527f4552433732314275726e61626c653a2063616c6c6572206973206e6f74206f7760448201526f1b995c881b9bdc88185c1c1c9bdd995960821b60648201526084016105bb565b61092d81611380565b50565b600061093b60fd5490565b821061099e5760405162461bcd60e51b815260206004820152602c60248201527f455243373231456e756d657261626c653a20676c6f62616c20696e646578206f60448201526b7574206f6620626f756e647360a01b60648201526084016105bb565b60fd82815481106109bf57634e487b7160e01b600052603260045260246000fd5b90600052602060002001549050919050565b600081815260cb60205260408120546001600160a01b0316806104ac5760405162461bcd60e51b815260206004820152602960248201527f4552433732313a206f776e657220717565727920666f72206e6f6e657869737460448201526832b73a103a37b5b2b760b91b60648201526084016105bb565b610a727f9f2df0fed2c77648de5860a4cc508cd0818c85b8b8a1ab4ceeef8d981c8956a6336103a2565b610ae45760405162461bcd60e51b815260206004820152603d60248201527f4552433732315072657365744d696e7465725061757365724175746f49643a2060448201527f6d7573742068617665206d696e74657220726f6c6520746f206d696e7400000060648201526084016105bb565b610af781610af26101c35490565b611427565b61092d6101c380546001019055565b60006001600160a01b038216610b715760405162461bcd60e51b815260206004820152602a60248201527f4552433732313a2062616c616e636520717565727920666f7220746865207a65604482015269726f206164647265737360b01b60648201526084016105bb565b506001600160a01b0316600090815260cc602052604090205490565b610ba56000805160206129a0833981519152336103a2565b610c175760405162461bcd60e51b815260206004820152603e60248201527f4552433732315072657365744d696e7465725061757365724175746f49643a2060448201527f6d75737420686176652070617573657220726f6c6520746f207061757365000060648201526084016105bb565b610899611575565b6000828152609760205260408120610c3790836115f2565b9392505050565b60009182526065602090815260408084206001600160a01b0393909316845291905290205460ff1690565b606060ca80546104c390612922565b6001600160a01b038216331415610cd15760405162461bcd60e51b815260206004820152601960248201527f4552433732313a20617070726f766520746f2063616c6c65720000000000000060448201526064016105bb565b33600081815260ce602090815260408083206001600160a01b0387168085529252909120805460ff1916841515179055906001600160a01b03167f17307eab39ab6107e8899845ad3d59bd9653f200f220920489ca2b5937696c3183604051610d3e911515815260200190565b60405180910390a35050565b600054610100900460ff1680610d63575060005460ff16155b610d7f5760405162461bcd60e51b81526004016105bb906127f2565b600054610100900460ff16158015610da1576000805461ffff19166101011790555b610dac8484846115fe565b8015610dbe576000805461ff00191690555b50505050565b610dce3383610f7a565b610dea5760405162461bcd60e51b81526004016105bb90612840565b610dbe848484846116aa565b600081815260cb60205260409020546060906001600160a01b0316610e755760405162461bcd60e51b815260206004820152602f60248201527f4552433732314d657461646174613a2055524920717565727920666f72206e6f60448201526e3732bc34b9ba32b73a103a37b5b2b760891b60648201526084016105bb565b6000610e7f6116dd565b90506000815111610e9f5760405180602001604052806000815250610c37565b80604051602001610eb091906126bf565b6040516020818303038152906040529392505050565b60008181526097602052604081206104ac906116ed565b6107ed82826116f7565b60006001600160e01b0319821663780e9d6360e01b14806104ac57506104ac8261171d565b600081815260cd6020526040902080546001600160a01b0319166001600160a01b0384169081179091558190610f41826109d1565b6001600160a01b03167f8c5be1e5ebec7d5bd14f71427d1e84f3dd0314c0f7b2291e5b200ac8c7c3b92560405160405180910390a45050565b600081815260cb60205260408120546001600160a01b0316610ff35760405162461bcd60e51b815260206004820152602c60248201527f4552433732313a206f70657261746f7220717565727920666f72206e6f6e657860448201526b34b9ba32b73a103a37b5b2b760a11b60648201526084016105bb565b6000610ffe836109d1565b9050806001600160a01b0316846001600160a01b031614806110395750836001600160a01b031661102e84610546565b6001600160a01b0316145b8061106957506001600160a01b03808216600090815260ce602090815260408083209388168352929052205460ff165b949350505050565b826001600160a01b0316611084826109d1565b6001600160a01b0316146110ec5760405162461bcd60e51b815260206004820152602960248201527f4552433732313a207472616e73666572206f6620746f6b656e2074686174206960448201526839903737ba1037bbb760b91b60648201526084016105bb565b6001600160a01b03821661114e5760405162461bcd60e51b8152602060048201526024808201527f4552433732313a207472616e7366657220746f20746865207a65726f206164646044820152637265737360e01b60648201526084016105bb565b61115983838361175d565b611164600082610f0c565b6001600160a01b038316600090815260cc6020526040812080546001929061118d9084906128c8565b90915550506001600160a01b038216600090815260cc602052604081208054600192906111bb908490612891565b9091555050600081815260cb602052604080822080546001600160a01b0319166001600160a01b0386811691821790925591518493918716917fddf252ad1be2c89b69c2b068fc378daa952ba7f163c4a11628f55a4df523b3ef91a4505050565b60008281526065602052604090206001015461123981335b611768565b6106f183836117cc565b6000610c37836001600160a01b038416611852565b6001600160a01b03811633146112c85760405162461bcd60e51b815260206004820152602f60248201527f416363657373436f6e74726f6c3a2063616e206f6e6c792072656e6f756e636560448201526e103937b632b9903337b91039b2b63360891b60648201526084016105bb565b6112d282826118a1565b5050565b6000610c37836001600160a01b038416611908565b61015f5460ff166113355760405162461bcd60e51b815260206004820152601460248201527314185d5cd8589b194e881b9bdd081c185d5cd95960621b60448201526064016105bb565b61015f805460ff191690557f5db9ee0a495bf2e6ff9c91a7834c1ba4fdd244a5e8aa4e537bd38aeae4b073aa335b6040516001600160a01b03909116815260200160405180910390a1565b600061138b826109d1565b90506113998160008461175d565b6113a4600083610f0c565b6001600160a01b038116600090815260cc602052604081208054600192906113cd9084906128c8565b9091555050600082815260cb602052604080822080546001600160a01b0319169055518391906001600160a01b038416907fddf252ad1be2c89b69c2b068fc378daa952ba7f163c4a11628f55a4df523b3ef908390a45050565b6001600160a01b03821661147d5760405162461bcd60e51b815260206004820181905260248201527f4552433732313a206d696e7420746f20746865207a65726f206164647265737360448201526064016105bb565b600081815260cb60205260409020546001600160a01b0316156114e25760405162461bcd60e51b815260206004820152601c60248201527f4552433732313a20746f6b656e20616c7265616479206d696e7465640000000060448201526064016105bb565b6114ee6000838361175d565b6001600160a01b038216600090815260cc60205260408120805460019290611517908490612891565b9091555050600081815260cb602052604080822080546001600160a01b0319166001600160a01b03861690811790915590518392907fddf252ad1be2c89b69c2b068fc378daa952ba7f163c4a11628f55a4df523b3ef908290a45050565b61015f5460ff16156115bc5760405162461bcd60e51b815260206004820152601060248201526f14185d5cd8589b194e881c185d5cd95960821b60448201526064016105bb565b61015f805460ff191660011790557f62e78cea01bee320cd4e420270b5ea74000d11b0c9f74754ebdbfc544b05a2586113633390565b6000610c378383611a25565b600054610100900460ff1680611617575060005460ff16155b6116335760405162461bcd60e51b81526004016105bb906127f2565b600054610100900460ff16158015611655576000805461ffff19166101011790555b61165d611a5d565b611665611a5d565b61166d611a5d565b611675611a5d565b61167f8484611ac8565b611687611a5d565b61168f611a5d565b611697611b5d565b61169f611a5d565b610dac848484611bd3565b6116b5848484611071565b6116c184848484611c8d565b610dbe5760405162461bcd60e51b81526004016105bb906127a0565b60606101c480546104c390612922565b60006104ac825490565b6000828152606560205260409020600101546117138133611234565b6106f183836118a1565b60006001600160e01b031982166380ac58cd60e01b148061174e57506001600160e01b03198216635b5e139f60e01b145b806104ac57506104ac82611d9a565b6106f1838383611dbf565b6117728282610c3e565b6112d25761178a816001600160a01b03166014611e32565b611795836020611e32565b6040516020016117a69291906126db565b60408051601f198184030181529082905262461bcd60e51b82526105bb9160040161278d565b6117d68282610c3e565b6112d25760008281526065602090815260408083206001600160a01b03851684529091529020805460ff1916600117905561180e3390565b6001600160a01b0316816001600160a01b0316837f2f8788117e7eff1d82e926ec794901d17c78024a50270940304540a733656f0d60405160405180910390a45050565b6000818152600183016020526040812054611899575081546001818101845560008481526020808220909301849055845484825282860190935260409020919091556107dd565b5060006107dd565b6118ab8282610c3e565b156112d25760008281526065602090815260408083206001600160a01b0385168085529252808320805460ff1916905551339285917ff6391f5c32d9c69d2a47ea670b442974b53935d1edc7fd64eb21e047a839171b9190a45050565b60008181526001830160205260408120548015611a1b57600061192c6001836128c8565b8554909150600090611940906001906128c8565b90508181146119c157600086600001828154811061196e57634e487b7160e01b600052603260045260246000fd5b906000526020600020015490508087600001848154811061199f57634e487b7160e01b600052603260045260246000fd5b6000918252602080832090910192909255918252600188019052604090208390555b85548690806119e057634e487b7160e01b600052603160045260246000fd5b6001900381819060005260206000200160009055905585600101600086815260200190815260200160002060009055600193505050506107dd565b60009150506107dd565b6000826000018281548110611a4a57634e487b7160e01b600052603260045260246000fd5b9060005260206000200154905092915050565b600054610100900460ff1680611a76575060005460ff16155b611a925760405162461bcd60e51b81526004016105bb906127f2565b600054610100900460ff16158015611ab4576000805461ffff19166101011790555b801561092d576000805461ff001916905550565b600054610100900460ff1680611ae1575060005460ff16155b611afd5760405162461bcd60e51b81526004016105bb906127f2565b600054610100900460ff16158015611b1f576000805461ffff19166101011790555b8251611b329060c99060208601906122d4565b508151611b469060ca9060208501906122d4565b5080156106f1576000805461ff0019169055505050565b600054610100900460ff1680611b76575060005460ff16155b611b925760405162461bcd60e51b81526004016105bb906127f2565b600054610100900460ff16158015611bb4576000805461ffff19166101011790555b61015f805460ff19169055801561092d576000805461ff001916905550565b600054610100900460ff1680611bec575060005460ff16155b611c085760405162461bcd60e51b81526004016105bb906127f2565b600054610100900460ff16158015611c2a576000805461ffff19166101011790555b8151611c3e906101c49060208501906122d4565b50611c4b6000335b612014565b611c757f9f2df0fed2c77648de5860a4cc508cd0818c85b8b8a1ab4ceeef8d981c8956a633611c46565b610dac6000805160206129a083398151915233611c46565b60006001600160a01b0384163b15611d8f57604051630a85bd0160e11b81526001600160a01b0385169063150b7a0290611cd1903390899088908890600401612750565b602060405180830381600087803b158015611ceb57600080fd5b505af1925050508015611d1b575060408051601f3d908101601f19168201909252611d18918101906125f3565b60015b611d75573d808015611d49576040519150601f19603f3d011682016040523d82523d6000602084013e611d4e565b606091505b508051611d6d5760405162461bcd60e51b81526004016105bb906127a0565b805181602001fd5b6001600160e01b031916630a85bd0160e11b149050611069565b506001949350505050565b60006001600160e01b03198216635a05180f60e01b14806104ac57506104ac8261201e565b611dca838383612053565b61015f5460ff16156106f15760405162461bcd60e51b815260206004820152602b60248201527f4552433732315061757361626c653a20746f6b656e207472616e73666572207760448201526a1a1a5b19481c185d5cd95960aa1b60648201526084016105bb565b60606000611e418360026128a9565b611e4c906002612891565b67ffffffffffffffff811115611e7257634e487b7160e01b600052604160045260246000fd5b6040519080825280601f01601f191660200182016040528015611e9c576020820181803683370190505b509050600360fc1b81600081518110611ec557634e487b7160e01b600052603260045260246000fd5b60200101906001600160f81b031916908160001a905350600f60fb1b81600181518110611f0257634e487b7160e01b600052603260045260246000fd5b60200101906001600160f81b031916908160001a9053506000611f268460026128a9565b611f31906001612891565b90505b6001811115611fc5576f181899199a1a9b1b9c1cb0b131b232b360811b85600f1660108110611f7357634e487b7160e01b600052603260045260246000fd5b1a60f81b828281518110611f9757634e487b7160e01b600052603260045260246000fd5b60200101906001600160f81b031916908160001a90535060049490941c93611fbe8161290b565b9050611f34565b508315610c375760405162461bcd60e51b815260206004820181905260248201527f537472696e67733a20686578206c656e67746820696e73756666696369656e7460448201526064016105bb565b6107328282612110565b60006001600160e01b03198216637965db0b60e01b14806104ac57506301ffc9a760e01b6001600160e01b03198316146104ac565b6001600160a01b0383166120ae576120a98160fd8054600083815260fe60205260408120829055600182018355919091527f9346ac6dd7de6b96975fec380d4d994c4c12e6a8897544f22915316cc6cca2800155565b6120d1565b816001600160a01b0316836001600160a01b0316146120d1576120d1838261211a565b6001600160a01b0382166120ed576120e8816121b7565b6106f1565b826001600160a01b0316826001600160a01b0316146106f1576106f18282612290565b6112d282826117cc565b6000600161212784610b06565b61213191906128c8565b600083815260fc6020526040902054909150808214612184576001600160a01b038416600090815260fb60209081526040808320858452825280832054848452818420819055835260fc90915290208190555b50600091825260fc602090815260408084208490556001600160a01b03909416835260fb81528383209183525290812055565b60fd546000906121c9906001906128c8565b600083815260fe602052604081205460fd80549394509092849081106121ff57634e487b7160e01b600052603260045260246000fd5b906000526020600020015490508060fd838154811061222e57634e487b7160e01b600052603260045260246000fd5b600091825260208083209091019290925582815260fe909152604080822084905585825281205560fd80548061227457634e487b7160e01b600052603160045260246000fd5b6001900381819060005260206000200160009055905550505050565b600061229b83610b06565b6001600160a01b03909316600090815260fb60209081526040808320868452825280832085905593825260fc9052919091209190915550565b8280546122e090612922565b90600052602060002090601f0160209004810192826123025760008555612348565b82601f1061231b57805160ff1916838001178555612348565b82800160010185558215612348579182015b8281111561234857825182559160200191906001019061232d565b50612354929150612358565b5090565b5b808211156123545760008155600101612359565b600067ffffffffffffffff8084111561238857612388612973565b604051601f8501601f19908116603f011681019082821181831017156123b0576123b0612973565b816040528093508581528686860111156123c957600080fd5b858560208301376000602087830101525050509392505050565b80356001600160a01b03811681146104af57600080fd5b600082601f83011261240a578081fd5b610c378383356020850161236d565b60006020828403121561242a578081fd5b610c37826123e3565b60008060408385031215612445578081fd5b61244e836123e3565b915061245c602084016123e3565b90509250929050565b600080600060608486031215612479578081fd5b612482846123e3565b9250612490602085016123e3565b9150604084013590509250925092565b600080600080608085870312156124b5578081fd5b6124be856123e3565b93506124cc602086016123e3565b925060408501359150606085013567ffffffffffffffff8111156124ee578182fd5b8501601f810187136124fe578182fd5b61250d8782356020840161236d565b91505092959194509250565b6000806040838503121561252b578182fd5b612534836123e3565b915060208301358015158114612548578182fd5b809150509250929050565b60008060408385031215612565578182fd5b61256e836123e3565b946020939093013593505050565b60006020828403121561258d578081fd5b5035919050565b600080604083850312156125a6578182fd5b8235915061245c602084016123e3565b600080604083850312156125c8578182fd5b50508035926020909101359150565b6000602082840312156125e8578081fd5b8135610c3781612989565b600060208284031215612604578081fd5b8151610c3781612989565b600080600060608486031215612623578283fd5b833567ffffffffffffffff8082111561263a578485fd5b612646878388016123fa565b9450602086013591508082111561265b578384fd5b612667878388016123fa565b9350604086013591508082111561267c578283fd5b50612689868287016123fa565b9150509250925092565b600081518084526126ab8160208601602086016128df565b601f01601f19169290920160200192915050565b600082516126d18184602087016128df565b9190910192915050565b60007f416363657373436f6e74726f6c3a206163636f756e7420000000000000000000825283516127138160178501602088016128df565b7001034b99036b4b9b9b4b733903937b6329607d1b60179184019182015283516127448160288401602088016128df565b01602801949350505050565b6001600160a01b038581168252841660208201526040810183905260806060820181905260009061278390830184612693565b9695505050505050565b600060208252610c376020830184612693565b60208082526032908201527f4552433732313a207472616e7366657220746f206e6f6e20455243373231526560408201527131b2b4bb32b91034b6b83632b6b2b73a32b960711b606082015260800190565b6020808252602e908201527f496e697469616c697a61626c653a20636f6e747261637420697320616c72656160408201526d191e481a5b9a5d1a585b1a5e995960921b606082015260800190565b60208082526031908201527f4552433732313a207472616e736665722063616c6c6572206973206e6f74206f6040820152701ddb995c881b9bdc88185c1c1c9bdd9959607a1b606082015260800190565b600082198211156128a4576128a461295d565b500190565b60008160001904831182151516156128c3576128c361295d565b500290565b6000828210156128da576128da61295d565b500390565b60005b838110156128fa5781810151838201526020016128e2565b83811115610dbe5750506000910152565b60008161291a5761291a61295d565b506000190190565b600181811c9082168061293657607f821691505b6020821081141561295757634e487b7160e01b600052602260045260246000fd5b50919050565b634e487b7160e01b600052601160045260246000fd5b634e487b7160e01b600052604160045260246000fd5b6001600160e01b03198116811461092d57600080fdfe65d7a28e3265b37a6474929f336521b332c1681b933f6cb9f3376673440d862aa26469706673582212205163dee831ab7d37876ebdabaf985146d5f7225fba43ba693d558dd88f83f50f64736f6c63430008030033416464726573733a206c6f772d6c6576656c2064656c65676174652063616c6c206661696c6564a2646970667358221220e0db8ef8f093763ea2a733bbffe940ac7e91eef50104746841654267abe82af864736f6c63430008030033",
  "devdoc": {
    "kind": "dev",
    "methods": {
      "getRoleAdmin(bytes32)": {
        "details": "Returns the admin role that controls `role`. See {grantRole} and {revokeRole}. To change a role's admin, use {_setRoleAdmin}."
      },
      "grantRole(bytes32,address)": {
        "details": "Grants `role` to `account`. If `account` had not been already granted `role`, emits a {RoleGranted} event. Requirements: - the caller must have ``role``'s admin role."
      },
      "hasRole(bytes32,address)": {
        "details": "Returns `true` if `account` has been granted `role`."
      },
      "renounceRole(bytes32,address)": {
        "details": "Revokes `role` from the calling account. Roles are often managed via {grantRole} and {revokeRole}: this function's purpose is to provide a mechanism for accounts to lose their privileges if they are compromised (such as when a trusted device is misplaced). If the calling account had been granted `role`, emits a {RoleRevoked} event. Requirements: - the caller must be `account`."
      },
      "revokeRole(bytes32,address)": {
        "details": "Revokes `role` from `account`. If `account` had been granted `role`, emits a {RoleRevoked} event. Requirements: - the caller must have ``role``'s admin role."
      },
      "supportsInterface(bytes4)": {
        "details": "See {IERC165-supportsInterface}."
      },
      "upgradeTo(address)": {
        "details": "Upgrade the implementation of the proxy to `newImplementation`. Calls {_authorizeUpgrade}. Emits an {Upgraded} event."
      },
      "upgradeToAndCall(address,bytes)": {
        "details": "Upgrade the implementation of the proxy to `newImplementation`, and subsequently execute the function call encoded in `data`. Calls {_authorizeUpgrade}. Emits an {Upgraded} event."
      }
    },
    "title": "GemCollectorNFTMinter ",
    "version": 1
  },
  "userdoc": {
    "kind": "user",
    "methods": {},
    "version": 1
  },
  "storageLayout": {
    "storage": [
      {
        "astId": 1102,
        "contract": "contracts/GemCollectorNFTWarden.sol:GemCollectorNFTWarden",
        "label": "_initialized",
        "offset": 0,
        "slot": "0",
        "type": "t_bool"
      },
      {
        "astId": 1105,
        "contract": "contracts/GemCollectorNFTWarden.sol:GemCollectorNFTWarden",
        "label": "_initializing",
        "offset": 1,
        "slot": "0",
        "type": "t_bool"
      },
      {
        "astId": 5359,
        "contract": "contracts/GemCollectorNFTWarden.sol:GemCollectorNFTWarden",
        "label": "__gap",
        "offset": 0,
        "slot": "1",
        "type": "t_array(t_uint256)50_storage"
      },
      {
        "astId": 6258,
        "contract": "contracts/GemCollectorNFTWarden.sol:GemCollectorNFTWarden",
        "label": "__gap",
        "offset": 0,
        "slot": "51",
        "type": "t_array(t_uint256)50_storage"
      },
      {
        "astId": 304,
        "contract": "contracts/GemCollectorNFTWarden.sol:GemCollectorNFTWarden",
        "label": "_roles",
        "offset": 0,
        "slot": "101",
        "type": "t_mapping(t_bytes32,t_struct(RoleData)299_storage)"
      },
      {
        "astId": 589,
        "contract": "contracts/GemCollectorNFTWarden.sol:GemCollectorNFTWarden",
        "label": "__gap",
        "offset": 0,
        "slot": "102",
        "type": "t_array(t_uint256)49_storage"
      },
      {
        "astId": 1085,
        "contract": "contracts/GemCollectorNFTWarden.sol:GemCollectorNFTWarden",
        "label": "__gap",
        "offset": 0,
        "slot": "151",
        "type": "t_array(t_uint256)50_storage"
      },
      {
        "astId": 1252,
        "contract": "contracts/GemCollectorNFTWarden.sol:GemCollectorNFTWarden",
        "label": "__gap",
        "offset": 0,
        "slot": "201",
        "type": "t_array(t_uint256)50_storage"
      },
      {
        "astId": 12745,
        "contract": "contracts/GemCollectorNFTWarden.sol:GemCollectorNFTWarden",
        "label": "gems",
        "offset": 0,
        "slot": "251",
        "type": "t_address"
      },
      {
        "astId": 12751,
        "contract": "contracts/GemCollectorNFTWarden.sol:GemCollectorNFTWarden",
        "label": "hasMinted",
        "offset": 0,
        "slot": "252",
        "type": "t_mapping(t_address,t_mapping(t_address,t_bool))"
      },
      {
        "astId": 12755,
        "contract": "contracts/GemCollectorNFTWarden.sol:GemCollectorNFTWarden",
        "label": "NFTs",
        "offset": 0,
        "slot": "253",
        "type": "t_mapping(t_address,t_uint256)"
      }
    ],
    "types": {
      "t_address": {
        "encoding": "inplace",
        "label": "address",
        "numberOfBytes": "20"
      },
      "t_array(t_uint256)49_storage": {
        "base": "t_uint256",
        "encoding": "inplace",
        "label": "uint256[49]",
        "numberOfBytes": "1568"
      },
      "t_array(t_uint256)50_storage": {
        "base": "t_uint256",
        "encoding": "inplace",
        "label": "uint256[50]",
        "numberOfBytes": "1600"
      },
      "t_bool": {
        "encoding": "inplace",
        "label": "bool",
        "numberOfBytes": "1"
      },
      "t_bytes32": {
        "encoding": "inplace",
        "label": "bytes32",
        "numberOfBytes": "32"
      },
      "t_mapping(t_address,t_bool)": {
        "encoding": "mapping",
        "key": "t_address",
        "label": "mapping(address => bool)",
        "numberOfBytes": "32",
        "value": "t_bool"
      },
      "t_mapping(t_address,t_mapping(t_address,t_bool))": {
        "encoding": "mapping",
        "key": "t_address",
        "label": "mapping(address => mapping(address => bool))",
        "numberOfBytes": "32",
        "value": "t_mapping(t_address,t_bool)"
      },
      "t_mapping(t_address,t_uint256)": {
        "encoding": "mapping",
        "key": "t_address",
        "label": "mapping(address => uint256)",
        "numberOfBytes": "32",
        "value": "t_uint256"
      },
      "t_mapping(t_bytes32,t_struct(RoleData)299_storage)": {
        "encoding": "mapping",
        "key": "t_bytes32",
        "label": "mapping(bytes32 => struct AccessControlUpgradeable.RoleData)",
        "numberOfBytes": "32",
        "value": "t_struct(RoleData)299_storage"
      },
      "t_struct(RoleData)299_storage": {
        "encoding": "inplace",
        "label": "struct AccessControlUpgradeable.RoleData",
        "members": [
          {
            "astId": 296,
            "contract": "contracts/GemCollectorNFTWarden.sol:GemCollectorNFTWarden",
            "label": "members",
            "offset": 0,
            "slot": "0",
            "type": "t_mapping(t_address,t_bool)"
          },
          {
            "astId": 298,
            "contract": "contracts/GemCollectorNFTWarden.sol:GemCollectorNFTWarden",
            "label": "adminRole",
            "offset": 0,
            "slot": "1",
            "type": "t_bytes32"
          }
        ],
        "numberOfBytes": "64"
      },
      "t_uint256": {
        "encoding": "inplace",
        "label": "uint256",
        "numberOfBytes": "32"
      }
    }
  }
}