{
  "address": "0x938594112b92841244183fd1A8A504Fb15B5D278",
  "abi": [
    {
      "anonymous": false,
      "inputs": [
        {
          "indexed": false,
          "internalType": "address",
          "name": "previousAdmin",
          "type": "address"
        },
        {
          "indexed": false,
          "internalType": "address",
          "name": "newAdmin",
          "type": "address"
        }
      ],
      "name": "AdminChanged",
      "type": "event"
    },
    {
      "anonymous": false,
      "inputs": [
        {
          "indexed": true,
          "internalType": "address",
          "name": "beacon",
          "type": "address"
        }
      ],
      "name": "BeaconUpgraded",
      "type": "event"
    },
    {
      "anonymous": false,
      "inputs": [
        {
          "indexed": true,
          "internalType": "bytes32",
          "name": "role",
          "type": "bytes32"
        },
        {
          "indexed": true,
          "internalType": "bytes32",
          "name": "previousAdminRole",
          "type": "bytes32"
        },
        {
          "indexed": true,
          "internalType": "bytes32",
          "name": "newAdminRole",
          "type": "bytes32"
        }
      ],
      "name": "RoleAdminChanged",
      "type": "event"
    },
    {
      "anonymous": false,
      "inputs": [
        {
          "indexed": true,
          "internalType": "bytes32",
          "name": "role",
          "type": "bytes32"
        },
        {
          "indexed": true,
          "internalType": "address",
          "name": "account",
          "type": "address"
        },
        {
          "indexed": true,
          "internalType": "address",
          "name": "sender",
          "type": "address"
        }
      ],
      "name": "RoleGranted",
      "type": "event"
    },
    {
      "anonymous": false,
      "inputs": [
        {
          "indexed": true,
          "internalType": "bytes32",
          "name": "role",
          "type": "bytes32"
        },
        {
          "indexed": true,
          "internalType": "address",
          "name": "account",
          "type": "address"
        },
        {
          "indexed": true,
          "internalType": "address",
          "name": "sender",
          "type": "address"
        }
      ],
      "name": "RoleRevoked",
      "type": "event"
    },
    {
      "anonymous": false,
      "inputs": [
        {
          "indexed": true,
          "internalType": "address",
          "name": "implementation",
          "type": "address"
        }
      ],
      "name": "Upgraded",
      "type": "event"
    },
    {
      "inputs": [],
      "name": "ADMIN_ROLE",
      "outputs": [
        {
          "internalType": "bytes32",
          "name": "",
          "type": "bytes32"
        }
      ],
      "stateMutability": "view",
      "type": "function"
    },
    {
      "inputs": [],
      "name": "DEFAULT_ADMIN_ROLE",
      "outputs": [
        {
          "internalType": "bytes32",
          "name": "",
          "type": "bytes32"
        }
      ],
      "stateMutability": "view",
      "type": "function"
    },
    {
      "inputs": [],
      "name": "UPGRADER_ROLE",
      "outputs": [
        {
          "internalType": "bytes32",
          "name": "",
          "type": "bytes32"
        }
      ],
      "stateMutability": "view",
      "type": "function"
    },
    {
      "inputs": [
        {
          "internalType": "bytes32",
          "name": "role",
          "type": "bytes32"
        }
      ],
      "name": "getRoleAdmin",
      "outputs": [
        {
          "internalType": "bytes32",
          "name": "",
          "type": "bytes32"
        }
      ],
      "stateMutability": "view",
      "type": "function"
    },
    {
      "inputs": [
        {
          "internalType": "bytes32",
          "name": "role",
          "type": "bytes32"
        },
        {
          "internalType": "address",
          "name": "account",
          "type": "address"
        }
      ],
      "name": "grantRole",
      "outputs": [],
      "stateMutability": "nonpayable",
      "type": "function"
    },
    {
      "inputs": [
        {
          "internalType": "bytes32",
          "name": "role",
          "type": "bytes32"
        },
        {
          "internalType": "address",
          "name": "account",
          "type": "address"
        }
      ],
      "name": "hasRole",
      "outputs": [
        {
          "internalType": "bool",
          "name": "",
          "type": "bool"
        }
      ],
      "stateMutability": "view",
      "type": "function"
    },
    {
      "inputs": [
        {
          "internalType": "address",
          "name": "_admin",
          "type": "address"
        },
        {
          "internalType": "address",
          "name": "_longShort",
          "type": "address"
        },
        {
          "internalType": "address",
          "name": "_staker",
          "type": "address"
        }
      ],
      "name": "initialize",
      "outputs": [],
      "stateMutability": "nonpayable",
      "type": "function"
    },
    {
      "inputs": [],
      "name": "longShortAddress",
      "outputs": [
        {
          "internalType": "address",
          "name": "",
          "type": "address"
        }
      ],
      "stateMutability": "view",
      "type": "function"
    },
    {
      "inputs": [
        {
          "internalType": "uint32",
          "name": "",
          "type": "uint32"
        }
      ],
      "name": "percentChangeThreshold",
      "outputs": [
        {
          "internalType": "uint256",
          "name": "",
          "type": "uint256"
        }
      ],
      "stateMutability": "view",
      "type": "function"
    },
    {
      "inputs": [
        {
          "internalType": "bytes32",
          "name": "role",
          "type": "bytes32"
        },
        {
          "internalType": "address",
          "name": "account",
          "type": "address"
        }
      ],
      "name": "renounceRole",
      "outputs": [],
      "stateMutability": "nonpayable",
      "type": "function"
    },
    {
      "inputs": [
        {
          "internalType": "bytes32",
          "name": "role",
          "type": "bytes32"
        },
        {
          "internalType": "address",
          "name": "account",
          "type": "address"
        }
      ],
      "name": "revokeRole",
      "outputs": [],
      "stateMutability": "nonpayable",
      "type": "function"
    },
    {
      "inputs": [
        {
          "internalType": "uint32",
          "name": "marketIndex",
          "type": "uint32"
        }
      ],
      "name": "shouldUpdateOracle",
      "outputs": [
        {
          "internalType": "bool",
          "name": "",
          "type": "bool"
        }
      ],
      "stateMutability": "view",
      "type": "function"
    },
    {
      "inputs": [
        {
          "internalType": "uint32",
          "name": "marketIndex",
          "type": "uint32"
        }
      ],
      "name": "shouldUpdateOracleNotView",
      "outputs": [
        {
          "internalType": "bool",
          "name": "",
          "type": "bool"
        }
      ],
      "stateMutability": "nonpayable",
      "type": "function"
    },
    {
      "inputs": [],
      "name": "stakerAddress",
      "outputs": [
        {
          "internalType": "address",
          "name": "",
          "type": "address"
        }
      ],
      "stateMutability": "view",
      "type": "function"
    },
    {
      "inputs": [
        {
          "internalType": "bytes4",
          "name": "interfaceId",
          "type": "bytes4"
        }
      ],
      "name": "supportsInterface",
      "outputs": [
        {
          "internalType": "bool",
          "name": "",
          "type": "bool"
        }
      ],
      "stateMutability": "view",
      "type": "function"
    },
    {
      "inputs": [
        {
          "internalType": "uint32",
          "name": "marketIndex",
          "type": "uint32"
        },
        {
          "internalType": "uint256",
          "name": "heartbeatInSeconds",
          "type": "uint256"
        }
      ],
      "name": "updateHeartbeatThresholdForMarket",
      "outputs": [],
      "stateMutability": "nonpayable",
      "type": "function"
    },
    {
      "inputs": [
        {
          "internalType": "uint32",
          "name": "marketIndex",
          "type": "uint32"
        },
        {
          "internalType": "uint256",
          "name": "_percentChangeThreshold",
          "type": "uint256"
        }
      ],
      "name": "updatePercentChangeThresholdForMarket",
      "outputs": [],
      "stateMutability": "nonpayable",
      "type": "function"
    },
    {
      "inputs": [
        {
          "internalType": "uint32",
          "name": "",
          "type": "uint32"
        }
      ],
      "name": "updateTimeThresholdInSeconds",
      "outputs": [
        {
          "internalType": "uint256",
          "name": "",
          "type": "uint256"
        }
      ],
      "stateMutability": "view",
      "type": "function"
    },
    {
      "inputs": [
        {
          "internalType": "address",
          "name": "newImplementation",
          "type": "address"
        }
      ],
      "name": "upgradeTo",
      "outputs": [],
      "stateMutability": "nonpayable",
      "type": "function"
    },
    {
      "inputs": [
        {
          "internalType": "address",
          "name": "newImplementation",
          "type": "address"
        },
        {
          "internalType": "bytes",
          "name": "data",
          "type": "bytes"
        }
      ],
      "name": "upgradeToAndCall",
      "outputs": [],
      "stateMutability": "payable",
      "type": "function"
    }
  ],
  "transactionHash": "0x6eb19528e47482a718146453e8bc6f32b26a9d164c82f1a71c9cac3555feb60e",
  "args": [],
  "solcInputHash": "3b3b95bfe2520f395b3c7c2f17e8b2fc",
  "bytecode": "0x608060405234801561001057600080fd5b50611e14806100206000396000f3fe60806040526004361061011f5760003560e01c806391d14854116100a0578063c0c53b8b11610064578063c0c53b8b14610348578063d470316b14610368578063d547741f14610388578063f72c0d8b146103a8578063fb21062e146103dc5761011f565b806391d148541461028e5780639d34fa44146102ae578063a217fddf146102ce578063b777453a146102e3578063b8e42ae31461031b5761011f565b80633659cfe6116100e75780633659cfe6146101f95780634f1ef2861461021957806375b238fc1461022c5780637d2dcbbc1461024e5780637f53e9401461026e5761011f565b806301ffc9a714610124578063248a9ca3146101595780632510723e146101975780632f2ff15d146101b957806336568abe146101d9575b600080fd5b34801561013057600080fd5b5061014461013f366004611a04565b610409565b60405190151581526020015b60405180910390f35b34801561016557600080fd5b506101896101743660046119bd565b60009081526065602052604090206001015490565b604051908152602001610150565b3480156101a357600080fd5b506101b76101b2366004611a8b565b610442565b005b3480156101c557600080fd5b506101b76101d43660046119d5565b610476565b3480156101e557600080fd5b506101b76101f43660046119d5565b6104a1565b34801561020557600080fd5b506101b761021436600461187c565b610524565b6101b76102273660046118fe565b61054b565b34801561023857600080fd5b50610189600080516020611dbf83398151915281565b34801561025a57600080fd5b50610144610269366004611a71565b610560565b34801561027a57600080fd5b506101b7610289366004611a8b565b6105a4565b34801561029a57600080fd5b506101446102a93660046119d5565b6105d7565b3480156102ba57600080fd5b506101446102c9366004611a71565b610602565b3480156102da57600080fd5b50610189600081565b3480156102ef57600080fd5b5060fb54610303906001600160a01b031681565b6040516001600160a01b039091168152602001610150565b34801561032757600080fd5b50610189610336366004611a71565b60fd6020526000908152604090205481565b34801561035457600080fd5b506101b76103633660046118b4565b610623565b34801561037457600080fd5b5060fc54610303906001600160a01b031681565b34801561039457600080fd5b506101b76103a33660046119d5565b6106cb565b3480156103b457600080fd5b506101897f189ab7a9244df0848122154315af71fe140f3db0fe014031783b0946b8c9d2e381565b3480156103e857600080fd5b506101896103f7366004611a71565b60fe6020526000908152604090205481565b60006001600160e01b03198216637965db0b60e01b148061043a57506301ffc9a760e01b6001600160e01b03198316145b90505b919050565b600080516020611dbf83398151915261045c81335b6106f1565b5063ffffffff909116600090815260fe6020526040902055565b6000828152606560205260409020600101546104928133610457565b61049c8383610755565b505050565b6001600160a01b03811633146105165760405162461bcd60e51b815260206004820152602f60248201527f416363657373436f6e74726f6c3a2063616e206f6e6c792072656e6f756e636560448201526e103937b632b9903337b91039b2b63360891b60648201526084015b60405180910390fd5b61052082826107db565b5050565b61052d81610842565b6105488160405180602001604052806000815250600061086d565b50565b61055482610842565b6105208282600161086d565b600061056b826109f5565b156105785750600161043d565b61058182610b39565b1561058e5750600161043d565b61059782610d1e565b1561043d5750600161043d565b600080516020611dbf8339815191526105bd8133610457565b5063ffffffff909116600090815260fd6020526040902055565b60009182526065602090815260408084206001600160a01b0393909316845291905290205460ff1690565b600061060d826109f5565b1561061a5750600161043d565b61058182611086565b600054610100900460ff168061063c575060005460ff16155b6106585760405162461bcd60e51b815260040161050d90611b78565b600054610100900460ff1615801561067a576000805461ffff19166101011790555b60fb80546001600160a01b038086166001600160a01b03199283161790925560fc8054928516929091169190911790556106b3846111e5565b80156106c5576000805461ff00191690555b50505050565b6000828152606560205260409020600101546106e78133610457565b61049c83836107db565b6106fb82826105d7565b61052057610713816001600160a01b0316601461126a565b61071e83602061126a565b60405160200161072f929190611ad0565b60408051601f198184030181529082905262461bcd60e51b825261050d91600401611b45565b61075f82826105d7565b6105205760008281526065602090815260408083206001600160a01b03851684529091529020805460ff191660011790556107973390565b6001600160a01b0316816001600160a01b0316837f2f8788117e7eff1d82e926ec794901d17c78024a50270940304540a733656f0d60405160405180910390a45050565b6107e582826105d7565b156105205760008281526065602090815260408083206001600160a01b0385168085529252808320805460ff1916905551339285917ff6391f5c32d9c69d2a47ea670b442974b53935d1edc7fd64eb21e047a839171b9190a45050565b7f189ab7a9244df0848122154315af71fe140f3db0fe014031783b0946b8c9d2e36105208133610457565b60006108a07f360894a13ba1a3210667c828492db98dca3e2076cc3735a920a3ca505d382bbc546001600160a01b031690565b90506108ab84611453565b6000835111806108b85750815b156108c9576108c784846114f8565b505b7f4910fdfa16fed3260ed0e7147f7cc6da11a60208b5b9406d12a635614ffd9143805460ff166109ee57805460ff191660011781556040516001600160a01b038316602482015261094890869060440160408051601f198184030181529190526020810180516001600160e01b0316631b2ce7f360e11b1790526114f8565b50805460ff191681557f360894a13ba1a3210667c828492db98dca3e2076cc3735a920a3ca505d382bbc546001600160a01b038381169116146109e55760405162461bcd60e51b815260206004820152602f60248201527f45524331393637557067726164653a207570677261646520627265616b73206660448201526e75727468657220757067726164657360881b606482015260840161050d565b6109ee856115e3565b5050505050565b60fc546040516338e6b01160e21b815263ffffffff8316600482015260009182916001600160a01b039091169063e39ac0449060240160206040518083038186803b158015610a4357600080fd5b505afa158015610a57573d6000803e3d6000fd5b505050506040513d601f19601f82011682018060405250810190610a7b9190611a2c565b60fc54604051633ebff44f60e01b815263ffffffff86166004820152602481018390529192506000916001600160a01b0390911690633ebff44f9060440160606040518083038186803b158015610ad157600080fd5b505afa158015610ae5573d6000803e3d6000fd5b505050506040513d601f19601f82011682018060405250810190610b099190611a44565b505063ffffffff8516600090815260fd60205260409020549091504290610b309083611bc6565b10949350505050565b60fb546040516344805efd60e11b815263ffffffff8316600482015260009182916001600160a01b0390911690638900bdfa9060240160206040518083038186803b158015610b8757600080fd5b505afa158015610b9b573d6000803e3d6000fd5b505050506040513d601f19601f82011682018060405250810190610bbf9190611a2c565b60fb54604051626eb7d760e61b815263ffffffff861660048201529192506000916001600160a01b0390911690631badf5c09060240160206040518083038186803b158015610c0d57600080fd5b505afa158015610c21573d6000803e3d6000fd5b505050506040513d601f19601f82011682018060405250810190610c459190611898565b90506000816001600160a01b0316638e15f4736040518163ffffffff1660e01b815260040160206040518083038186803b158015610c8257600080fd5b505afa158015610c96573d6000803e3d6000fd5b505050506040513d601f19601f82011682018060405250810190610cba9190611a2c565b9050600083610cc98382611cba565b610cdb90670de0b6b3a7640000611c18565b610ce59190611bde565b63ffffffff8716600090815260fe602052604090205490915080821380610d13575080610d1183611d3c565b135b979650505050505050565b60fb546040516364e4a81d60e01b815263ffffffff831660048201526001602482015260009182916001600160a01b03909116906364e4a81d9060440160206040518083038186803b158015610d7357600080fd5b505afa158015610d87573d6000803e3d6000fd5b505050506040513d601f19601f82011682018060405250810190610dab9190611a2c565b1180610e3d575060fb546040516334daaa2560e01b815263ffffffff84166004820152600160248201526000916001600160a01b0316906334daaa259060440160206040518083038186803b158015610e0357600080fd5b505afa158015610e17573d6000803e3d6000fd5b505050506040513d601f19601f82011682018060405250810190610e3b9190611a2c565b115b80610ece575060fb54604051637c064dc960e11b815263ffffffff84166004820152600160248201526000916001600160a01b03169063f80c9b929060440160206040518083038186803b158015610e9457600080fd5b505afa158015610ea8573d6000803e3d6000fd5b505050506040513d601f19601f82011682018060405250810190610ecc9190611a2c565b115b80610f5f575060fb546040516364e4a81d60e01b815263ffffffff84166004820152600060248201819052916001600160a01b0316906364e4a81d9060440160206040518083038186803b158015610f2557600080fd5b505afa158015610f39573d6000803e3d6000fd5b505050506040513d601f19601f82011682018060405250810190610f5d9190611a2c565b115b80610ff0575060fb546040516334daaa2560e01b815263ffffffff84166004820152600060248201819052916001600160a01b0316906334daaa259060440160206040518083038186803b158015610fb657600080fd5b505afa158015610fca573d6000803e3d6000fd5b505050506040513d601f19601f82011682018060405250810190610fee9190611a2c565b115b8061043a575060fb54604051637c064dc960e11b815263ffffffff84166004820152600060248201819052916001600160a01b03169063f80c9b929060440160206040518083038186803b15801561104757600080fd5b505afa15801561105b573d6000803e3d6000fd5b505050506040513d601f19601f8201168201806040525081019061107f9190611a2c565b1192915050565b60fb546040516344805efd60e11b815263ffffffff8316600482015260009182916001600160a01b0390911690638900bdfa9060240160206040518083038186803b1580156110d457600080fd5b505afa1580156110e8573d6000803e3d6000fd5b505050506040513d601f19601f8201168201806040525081019061110c9190611a2c565b60fb54604051626eb7d760e61b815263ffffffff861660048201529192506000916001600160a01b0390911690631badf5c09060240160206040518083038186803b15801561115a57600080fd5b505afa15801561116e573d6000803e3d6000fd5b505050506040513d601f19601f820116820180604052508101906111929190611898565b90506000816001600160a01b031663673a7e286040518163ffffffff1660e01b8152600401602060405180830381600087803b1580156111d157600080fd5b505af1158015610c96573d6000803e3d6000fd5b600054610100900460ff16806111fe575060005460ff16155b61121a5760405162461bcd60e51b815260040161050d90611b78565b600054610100900460ff1615801561123c576000805461ffff19166101011790555b611244611623565b61124c6116a6565b61125582611704565b8015610520576000805461ff00191690555050565b60606000611279836002611c9b565b611284906002611bc6565b67ffffffffffffffff8111156112aa57634e487b7160e01b600052604160045260246000fd5b6040519080825280601f01601f1916602001820160405280156112d4576020820181803683370190505b509050600360fc1b816000815181106112fd57634e487b7160e01b600052603260045260246000fd5b60200101906001600160f81b031916908160001a905350600f60fb1b8160018151811061133a57634e487b7160e01b600052603260045260246000fd5b60200101906001600160f81b031916908160001a905350600061135e846002611c9b565b611369906001611bc6565b90505b60018111156113fd576f181899199a1a9b1b9c1cb0b131b232b360811b85600f16601081106113ab57634e487b7160e01b600052603260045260246000fd5b1a60f81b8282815181106113cf57634e487b7160e01b600052603260045260246000fd5b60200101906001600160f81b031916908160001a90535060049490941c936113f681611d25565b905061136c565b50831561144c5760405162461bcd60e51b815260206004820181905260248201527f537472696e67733a20686578206c656e67746820696e73756666696369656e74604482015260640161050d565b9392505050565b803b6114b75760405162461bcd60e51b815260206004820152602d60248201527f455243313936373a206e657720696d706c656d656e746174696f6e206973206e60448201526c1bdd08184818dbdb9d1c9858dd609a1b606482015260840161050d565b7f360894a13ba1a3210667c828492db98dca3e2076cc3735a920a3ca505d382bbc80546001600160a01b0319166001600160a01b0392909216919091179055565b6060823b6115575760405162461bcd60e51b815260206004820152602660248201527f416464726573733a2064656c65676174652063616c6c20746f206e6f6e2d636f6044820152651b9d1c9858dd60d21b606482015260840161050d565b600080846001600160a01b0316846040516115729190611ab4565b600060405180830381855af49150503d80600081146115ad576040519150601f19603f3d011682016040523d82523d6000602084013e6115b2565b606091505b50915091506115da8282604051806060016040528060278152602001611d98602791396117bb565b95945050505050565b6115ec81611453565b6040516001600160a01b038216907fbc7cd75a20ee27fd9adebab32041f755214dbc6bffa90cc0225b39da2e5c2d3b90600090a250565b600054610100900460ff168061163c575060005460ff16155b6116585760405162461bcd60e51b815260040161050d90611b78565b600054610100900460ff1615801561167a576000805461ffff19166101011790555b6116826117f4565b61168a6117f4565b6116926117f4565b8015610548576000805461ff001916905550565b600054610100900460ff16806116bf575060005460ff16155b6116db5760405162461bcd60e51b815260040161050d90611b78565b600054610100900460ff16158015611682576000805461ffff191661010117905561168a6117f4565b600054610100900460ff168061171d575060005460ff16155b6117395760405162461bcd60e51b815260040161050d90611b78565b600054610100900460ff1615801561175b576000805461ffff19166101011790555b6001600160a01b03821661176e57600080fd5b61177960008361185e565b611791600080516020611dbf8339815191528361185e565b6112557f189ab7a9244df0848122154315af71fe140f3db0fe014031783b0946b8c9d2e38361185e565b606083156117ca57508161144c565b8251156117da5782518084602001fd5b8160405162461bcd60e51b815260040161050d9190611b45565b600054610100900460ff168061180d575060005460ff16155b6118295760405162461bcd60e51b815260040161050d90611b78565b600054610100900460ff16158015611692576000805461ffff19166101011790558015610548576000805461ff001916905550565b6105208282610755565b803563ffffffff8116811461043d57600080fd5b60006020828403121561188d578081fd5b813561144c81611d82565b6000602082840312156118a9578081fd5b815161144c81611d82565b6000806000606084860312156118c8578182fd5b83356118d381611d82565b925060208401356118e381611d82565b915060408401356118f381611d82565b809150509250925092565b60008060408385031215611910578182fd5b823561191b81611d82565b9150602083013567ffffffffffffffff80821115611937578283fd5b818501915085601f83011261194a578283fd5b81358181111561195c5761195c611d6c565b604051601f8201601f19908116603f0116810190838211818310171561198457611984611d6c565b8160405282815288602084870101111561199c578586fd5b82602086016020830137856020848301015280955050505050509250929050565b6000602082840312156119ce578081fd5b5035919050565b600080604083850312156119e7578182fd5b8235915060208301356119f981611d82565b809150509250929050565b600060208284031215611a15578081fd5b81356001600160e01b03198116811461144c578182fd5b600060208284031215611a3d578081fd5b5051919050565b600080600060608486031215611a58578283fd5b8351925060208401519150604084015190509250925092565b600060208284031215611a82578081fd5b61144c82611868565b60008060408385031215611a9d578182fd5b611aa683611868565b946020939093013593505050565b60008251611ac6818460208701611cf9565b9190910192915050565b60007f416363657373436f6e74726f6c3a206163636f756e742000000000000000000082528351611b08816017850160208801611cf9565b7001034b99036b4b9b9b4b733903937b6329607d1b6017918401918201528351611b39816028840160208801611cf9565b01602801949350505050565b6000602082528251806020840152611b64816040850160208701611cf9565b601f01601f19169190910160400192915050565b6020808252602e908201527f496e697469616c697a61626c653a20636f6e747261637420697320616c72656160408201526d191e481a5b9a5d1a585b1a5e995960921b606082015260800190565b60008219821115611bd957611bd9611d56565b500190565b600082611bf957634e487b7160e01b81526012600452602481fd5b600160ff1b821460001984141615611c1357611c13611d56565b500590565b60006001600160ff1b0381841382841380821686840486111615611c3e57611c3e611d56565b600160ff1b84871282811687830589121615611c5c57611c5c611d56565b858712925087820587128484161615611c7757611c77611d56565b87850587128184161615611c8d57611c8d611d56565b505050929093029392505050565b6000816000190483118215151615611cb557611cb5611d56565b500290565b60008083128015600160ff1b850184121615611cd857611cd8611d56565b6001600160ff1b0384018313811615611cf357611cf3611d56565b50500390565b60005b83811015611d14578181015183820152602001611cfc565b838111156106c55750506000910152565b600081611d3457611d34611d56565b506000190190565b6000600160ff1b821415611d5257611d52611d56565b0390565b634e487b7160e01b600052601160045260246000fd5b634e487b7160e01b600052604160045260246000fd5b6001600160a01b038116811461054857600080fdfe416464726573733a206c6f772d6c6576656c2064656c65676174652063616c6c206661696c6564a49807205ce4d355092ef5a8a18f56e8913cf4a201fbe287825b095693c21775a2646970667358221220f5658458c3b8b5463fb606d2a75404d8d2ef91fae9b4f1b72da1d0e3cc46001364736f6c63430008030033",
  "devdoc": {
    "kind": "dev",
    "methods": {
      "getRoleAdmin(bytes32)": {
        "details": "Returns the admin role that controls `role`. See {grantRole} and {revokeRole}. To change a role's admin, use {_setRoleAdmin}."
      },
      "grantRole(bytes32,address)": {
        "details": "Grants `role` to `account`. If `account` had not been already granted `role`, emits a {RoleGranted} event. Requirements: - the caller must have ``role``'s admin role."
      },
      "hasRole(bytes32,address)": {
        "details": "Returns `true` if `account` has been granted `role`."
      },
      "renounceRole(bytes32,address)": {
        "details": "Revokes `role` from the calling account. Roles are often managed via {grantRole} and {revokeRole}: this function's purpose is to provide a mechanism for accounts to lose their privileges if they are compromised (such as when a trusted device is misplaced). If the calling account had been granted `role`, emits a {RoleRevoked} event. Requirements: - the caller must be `account`."
      },
      "revokeRole(bytes32,address)": {
        "details": "Revokes `role` from `account`. If `account` had been granted `role`, emits a {RoleRevoked} event. Requirements: - the caller must have ``role``'s admin role."
      },
      "supportsInterface(bytes4)": {
        "details": "See {IERC165-supportsInterface}."
      },
      "upgradeTo(address)": {
        "details": "Upgrade the implementation of the proxy to `newImplementation`. Calls {_authorizeUpgrade}. Emits an {Upgraded} event."
      },
      "upgradeToAndCall(address,bytes)": {
        "details": "Upgrade the implementation of the proxy to `newImplementation`, and subsequently execute the function call encoded in `data`. Calls {_authorizeUpgrade}. Emits an {Upgraded} event."
      }
    },
    "version": 1
  },
  "userdoc": {
    "kind": "user",
    "methods": {},
    "version": 1
  },
  "storageLayout": {
    "storage": [
      {
        "astId": 1102,
        "contract": "contracts/KeeperExperiment.sol:KeeperExperiment",
        "label": "_initialized",
        "offset": 0,
        "slot": "0",
        "type": "t_bool"
      },
      {
        "astId": 1105,
        "contract": "contracts/KeeperExperiment.sol:KeeperExperiment",
        "label": "_initializing",
        "offset": 1,
        "slot": "0",
        "type": "t_bool"
      },
      {
        "astId": 3537,
        "contract": "contracts/KeeperExperiment.sol:KeeperExperiment",
        "label": "__gap",
        "offset": 0,
        "slot": "1",
        "type": "t_array(t_uint256)50_storage"
      },
      {
        "astId": 4436,
        "contract": "contracts/KeeperExperiment.sol:KeeperExperiment",
        "label": "__gap",
        "offset": 0,
        "slot": "51",
        "type": "t_array(t_uint256)50_storage"
      },
      {
        "astId": 304,
        "contract": "contracts/KeeperExperiment.sol:KeeperExperiment",
        "label": "_roles",
        "offset": 0,
        "slot": "101",
        "type": "t_mapping(t_bytes32,t_struct(RoleData)299_storage)"
      },
      {
        "astId": 589,
        "contract": "contracts/KeeperExperiment.sol:KeeperExperiment",
        "label": "__gap",
        "offset": 0,
        "slot": "102",
        "type": "t_array(t_uint256)49_storage"
      },
      {
        "astId": 1085,
        "contract": "contracts/KeeperExperiment.sol:KeeperExperiment",
        "label": "__gap",
        "offset": 0,
        "slot": "151",
        "type": "t_array(t_uint256)50_storage"
      },
      {
        "astId": 1218,
        "contract": "contracts/KeeperExperiment.sol:KeeperExperiment",
        "label": "__gap",
        "offset": 0,
        "slot": "201",
        "type": "t_array(t_uint256)50_storage"
      },
      {
        "astId": 10680,
        "contract": "contracts/KeeperExperiment.sol:KeeperExperiment",
        "label": "longShortAddress",
        "offset": 0,
        "slot": "251",
        "type": "t_address"
      },
      {
        "astId": 10682,
        "contract": "contracts/KeeperExperiment.sol:KeeperExperiment",
        "label": "stakerAddress",
        "offset": 0,
        "slot": "252",
        "type": "t_address"
      },
      {
        "astId": 10686,
        "contract": "contracts/KeeperExperiment.sol:KeeperExperiment",
        "label": "updateTimeThresholdInSeconds",
        "offset": 0,
        "slot": "253",
        "type": "t_mapping(t_uint32,t_uint256)"
      },
      {
        "astId": 10690,
        "contract": "contracts/KeeperExperiment.sol:KeeperExperiment",
        "label": "percentChangeThreshold",
        "offset": 0,
        "slot": "254",
        "type": "t_mapping(t_uint32,t_uint256)"
      }
    ],
    "types": {
      "t_address": {
        "encoding": "inplace",
        "label": "address",
        "numberOfBytes": "20"
      },
      "t_array(t_uint256)49_storage": {
        "base": "t_uint256",
        "encoding": "inplace",
        "label": "uint256[49]",
        "numberOfBytes": "1568"
      },
      "t_array(t_uint256)50_storage": {
        "base": "t_uint256",
        "encoding": "inplace",
        "label": "uint256[50]",
        "numberOfBytes": "1600"
      },
      "t_bool": {
        "encoding": "inplace",
        "label": "bool",
        "numberOfBytes": "1"
      },
      "t_bytes32": {
        "encoding": "inplace",
        "label": "bytes32",
        "numberOfBytes": "32"
      },
      "t_mapping(t_address,t_bool)": {
        "encoding": "mapping",
        "key": "t_address",
        "label": "mapping(address => bool)",
        "numberOfBytes": "32",
        "value": "t_bool"
      },
      "t_mapping(t_bytes32,t_struct(RoleData)299_storage)": {
        "encoding": "mapping",
        "key": "t_bytes32",
        "label": "mapping(bytes32 => struct AccessControlUpgradeable.RoleData)",
        "numberOfBytes": "32",
        "value": "t_struct(RoleData)299_storage"
      },
      "t_mapping(t_uint32,t_uint256)": {
        "encoding": "mapping",
        "key": "t_uint32",
        "label": "mapping(uint32 => uint256)",
        "numberOfBytes": "32",
        "value": "t_uint256"
      },
      "t_struct(RoleData)299_storage": {
        "encoding": "inplace",
        "label": "struct AccessControlUpgradeable.RoleData",
        "members": [
          {
            "astId": 296,
            "contract": "contracts/KeeperExperiment.sol:KeeperExperiment",
            "label": "members",
            "offset": 0,
            "slot": "0",
            "type": "t_mapping(t_address,t_bool)"
          },
          {
            "astId": 298,
            "contract": "contracts/KeeperExperiment.sol:KeeperExperiment",
            "label": "adminRole",
            "offset": 0,
            "slot": "1",
            "type": "t_bytes32"
          }
        ],
        "numberOfBytes": "64"
      },
      "t_uint256": {
        "encoding": "inplace",
        "label": "uint256",
        "numberOfBytes": "32"
      },
      "t_uint32": {
        "encoding": "inplace",
        "label": "uint32",
        "numberOfBytes": "4"
      }
    }
  }
}