{
  "address": "0x82f2f0aD506D717cf49464C6c4FE8eb811f1631F",
  "abi": [
    {
      "anonymous": false,
      "inputs": [
        {
          "indexed": false,
          "internalType": "address",
          "name": "previousAdmin",
          "type": "address"
        },
        {
          "indexed": false,
          "internalType": "address",
          "name": "newAdmin",
          "type": "address"
        }
      ],
      "name": "AdminChanged",
      "type": "event"
    },
    {
      "anonymous": false,
      "inputs": [
        {
          "indexed": true,
          "internalType": "address",
          "name": "beacon",
          "type": "address"
        }
      ],
      "name": "BeaconUpgraded",
      "type": "event"
    },
    {
      "anonymous": false,
      "inputs": [
        {
          "indexed": true,
          "internalType": "bytes32",
          "name": "role",
          "type": "bytes32"
        },
        {
          "indexed": true,
          "internalType": "bytes32",
          "name": "previousAdminRole",
          "type": "bytes32"
        },
        {
          "indexed": true,
          "internalType": "bytes32",
          "name": "newAdminRole",
          "type": "bytes32"
        }
      ],
      "name": "RoleAdminChanged",
      "type": "event"
    },
    {
      "anonymous": false,
      "inputs": [
        {
          "indexed": true,
          "internalType": "bytes32",
          "name": "role",
          "type": "bytes32"
        },
        {
          "indexed": true,
          "internalType": "address",
          "name": "account",
          "type": "address"
        },
        {
          "indexed": true,
          "internalType": "address",
          "name": "sender",
          "type": "address"
        }
      ],
      "name": "RoleGranted",
      "type": "event"
    },
    {
      "anonymous": false,
      "inputs": [
        {
          "indexed": true,
          "internalType": "bytes32",
          "name": "role",
          "type": "bytes32"
        },
        {
          "indexed": true,
          "internalType": "address",
          "name": "account",
          "type": "address"
        },
        {
          "indexed": true,
          "internalType": "address",
          "name": "sender",
          "type": "address"
        }
      ],
      "name": "RoleRevoked",
      "type": "event"
    },
    {
      "anonymous": false,
      "inputs": [
        {
          "indexed": true,
          "internalType": "address",
          "name": "implementation",
          "type": "address"
        }
      ],
      "name": "Upgraded",
      "type": "event"
    },
    {
      "inputs": [],
      "name": "ADMIN_ROLE",
      "outputs": [
        {
          "internalType": "bytes32",
          "name": "",
          "type": "bytes32"
        }
      ],
      "stateMutability": "view",
      "type": "function"
    },
    {
      "inputs": [],
      "name": "DEFAULT_ADMIN_ROLE",
      "outputs": [
        {
          "internalType": "bytes32",
          "name": "",
          "type": "bytes32"
        }
      ],
      "stateMutability": "view",
      "type": "function"
    },
    {
      "inputs": [],
      "name": "UPGRADER_ROLE",
      "outputs": [
        {
          "internalType": "bytes32",
          "name": "",
          "type": "bytes32"
        }
      ],
      "stateMutability": "view",
      "type": "function"
    },
    {
      "inputs": [
        {
          "internalType": "uint32",
          "name": "marketIndex",
          "type": "uint32"
        }
      ],
      "name": "areTherePendingNextPriceActions",
      "outputs": [
        {
          "internalType": "bool",
          "name": "",
          "type": "bool"
        }
      ],
      "stateMutability": "view",
      "type": "function"
    },
    {
      "inputs": [
        {
          "internalType": "bytes32",
          "name": "role",
          "type": "bytes32"
        }
      ],
      "name": "getRoleAdmin",
      "outputs": [
        {
          "internalType": "bytes32",
          "name": "",
          "type": "bytes32"
        }
      ],
      "stateMutability": "view",
      "type": "function"
    },
    {
      "inputs": [
        {
          "internalType": "bytes32",
          "name": "role",
          "type": "bytes32"
        },
        {
          "internalType": "address",
          "name": "account",
          "type": "address"
        }
      ],
      "name": "grantRole",
      "outputs": [],
      "stateMutability": "nonpayable",
      "type": "function"
    },
    {
      "inputs": [
        {
          "internalType": "bytes32",
          "name": "role",
          "type": "bytes32"
        },
        {
          "internalType": "address",
          "name": "account",
          "type": "address"
        }
      ],
      "name": "hasRole",
      "outputs": [
        {
          "internalType": "bool",
          "name": "",
          "type": "bool"
        }
      ],
      "stateMutability": "view",
      "type": "function"
    },
    {
      "inputs": [
        {
          "internalType": "address",
          "name": "_admin",
          "type": "address"
        },
        {
          "internalType": "address",
          "name": "_longShort",
          "type": "address"
        },
        {
          "internalType": "address",
          "name": "_staker",
          "type": "address"
        }
      ],
      "name": "initialize",
      "outputs": [],
      "stateMutability": "nonpayable",
      "type": "function"
    },
    {
      "inputs": [
        {
          "internalType": "uint32",
          "name": "marketIndex",
          "type": "uint32"
        }
      ],
      "name": "isPriceChangeOverThreshold",
      "outputs": [
        {
          "internalType": "bool",
          "name": "",
          "type": "bool"
        }
      ],
      "stateMutability": "view",
      "type": "function"
    },
    {
      "inputs": [
        {
          "internalType": "uint32",
          "name": "marketIndex",
          "type": "uint32"
        }
      ],
      "name": "isPriceChangeOverThresholdNotView",
      "outputs": [
        {
          "internalType": "bool",
          "name": "",
          "type": "bool"
        },
        {
          "internalType": "int256",
          "name": "",
          "type": "int256"
        }
      ],
      "stateMutability": "nonpayable",
      "type": "function"
    },
    {
      "inputs": [],
      "name": "longShortAddress",
      "outputs": [
        {
          "internalType": "address",
          "name": "",
          "type": "address"
        }
      ],
      "stateMutability": "view",
      "type": "function"
    },
    {
      "inputs": [
        {
          "internalType": "uint32",
          "name": "marketIndex",
          "type": "uint32"
        }
      ],
      "name": "pendingNextPriceActionsBreakdown",
      "outputs": [
        {
          "internalType": "uint256",
          "name": "",
          "type": "uint256"
        },
        {
          "internalType": "uint256",
          "name": "",
          "type": "uint256"
        },
        {
          "internalType": "uint256",
          "name": "",
          "type": "uint256"
        },
        {
          "internalType": "uint256",
          "name": "",
          "type": "uint256"
        },
        {
          "internalType": "uint256",
          "name": "",
          "type": "uint256"
        },
        {
          "internalType": "uint256",
          "name": "",
          "type": "uint256"
        }
      ],
      "stateMutability": "view",
      "type": "function"
    },
    {
      "inputs": [
        {
          "internalType": "uint32",
          "name": "marketIndex",
          "type": "uint32"
        }
      ],
      "name": "pendingNextPriceActionsBreakdownCall",
      "outputs": [],
      "stateMutability": "nonpayable",
      "type": "function"
    },
    {
      "inputs": [
        {
          "internalType": "uint32",
          "name": "",
          "type": "uint32"
        }
      ],
      "name": "percentChangeThreshold",
      "outputs": [
        {
          "internalType": "uint256",
          "name": "",
          "type": "uint256"
        }
      ],
      "stateMutability": "view",
      "type": "function"
    },
    {
      "inputs": [
        {
          "internalType": "bytes32",
          "name": "role",
          "type": "bytes32"
        },
        {
          "internalType": "address",
          "name": "account",
          "type": "address"
        }
      ],
      "name": "renounceRole",
      "outputs": [],
      "stateMutability": "nonpayable",
      "type": "function"
    },
    {
      "inputs": [
        {
          "internalType": "bytes32",
          "name": "role",
          "type": "bytes32"
        },
        {
          "internalType": "address",
          "name": "account",
          "type": "address"
        }
      ],
      "name": "revokeRole",
      "outputs": [],
      "stateMutability": "nonpayable",
      "type": "function"
    },
    {
      "inputs": [
        {
          "internalType": "uint32",
          "name": "marketIndex",
          "type": "uint32"
        }
      ],
      "name": "shouldUpdateOracle",
      "outputs": [
        {
          "internalType": "bool",
          "name": "",
          "type": "bool"
        }
      ],
      "stateMutability": "view",
      "type": "function"
    },
    {
      "inputs": [
        {
          "internalType": "uint32",
          "name": "marketIndex",
          "type": "uint32"
        }
      ],
      "name": "shouldUpdateOracleNotView",
      "outputs": [
        {
          "internalType": "bool",
          "name": "",
          "type": "bool"
        }
      ],
      "stateMutability": "nonpayable",
      "type": "function"
    },
    {
      "inputs": [
        {
          "internalType": "uint32",
          "name": "marketIndex",
          "type": "uint32"
        }
      ],
      "name": "shouldUpdateOracleNotViewBreakdown",
      "outputs": [
        {
          "internalType": "bool",
          "name": "",
          "type": "bool"
        },
        {
          "internalType": "bool",
          "name": "",
          "type": "bool"
        },
        {
          "internalType": "int256",
          "name": "",
          "type": "int256"
        },
        {
          "internalType": "bool",
          "name": "",
          "type": "bool"
        }
      ],
      "stateMutability": "nonpayable",
      "type": "function"
    },
    {
      "inputs": [
        {
          "internalType": "uint32",
          "name": "marketIndex",
          "type": "uint32"
        }
      ],
      "name": "shouldUpdateOracleNotViewBreakdownWithUpdateIndex",
      "outputs": [
        {
          "internalType": "bool",
          "name": "",
          "type": "bool"
        },
        {
          "internalType": "bool",
          "name": "",
          "type": "bool"
        },
        {
          "internalType": "int256",
          "name": "",
          "type": "int256"
        },
        {
          "internalType": "bool",
          "name": "",
          "type": "bool"
        },
        {
          "internalType": "uint256",
          "name": "",
          "type": "uint256"
        }
      ],
      "stateMutability": "nonpayable",
      "type": "function"
    },
    {
      "inputs": [],
      "name": "stakerAddress",
      "outputs": [
        {
          "internalType": "address",
          "name": "",
          "type": "address"
        }
      ],
      "stateMutability": "view",
      "type": "function"
    },
    {
      "inputs": [
        {
          "internalType": "bytes4",
          "name": "interfaceId",
          "type": "bytes4"
        }
      ],
      "name": "supportsInterface",
      "outputs": [
        {
          "internalType": "bool",
          "name": "",
          "type": "bool"
        }
      ],
      "stateMutability": "view",
      "type": "function"
    },
    {
      "inputs": [
        {
          "internalType": "uint32",
          "name": "marketIndex",
          "type": "uint32"
        },
        {
          "internalType": "uint256",
          "name": "heartbeatInSeconds",
          "type": "uint256"
        }
      ],
      "name": "updateHeartbeatThresholdForMarket",
      "outputs": [],
      "stateMutability": "nonpayable",
      "type": "function"
    },
    {
      "inputs": [
        {
          "internalType": "uint32",
          "name": "marketIndex",
          "type": "uint32"
        },
        {
          "internalType": "uint256",
          "name": "_percentChangeThreshold",
          "type": "uint256"
        }
      ],
      "name": "updatePercentChangeThresholdForMarket",
      "outputs": [],
      "stateMutability": "nonpayable",
      "type": "function"
    },
    {
      "inputs": [
        {
          "internalType": "uint32",
          "name": "",
          "type": "uint32"
        }
      ],
      "name": "updateTimeThresholdInSeconds",
      "outputs": [
        {
          "internalType": "uint256",
          "name": "",
          "type": "uint256"
        }
      ],
      "stateMutability": "view",
      "type": "function"
    },
    {
      "inputs": [
        {
          "internalType": "address",
          "name": "newImplementation",
          "type": "address"
        }
      ],
      "name": "upgradeTo",
      "outputs": [],
      "stateMutability": "nonpayable",
      "type": "function"
    },
    {
      "inputs": [
        {
          "internalType": "address",
          "name": "newImplementation",
          "type": "address"
        },
        {
          "internalType": "bytes",
          "name": "data",
          "type": "bytes"
        }
      ],
      "name": "upgradeToAndCall",
      "outputs": [],
      "stateMutability": "payable",
      "type": "function"
    },
    {
      "inputs": [
        {
          "internalType": "uint32",
          "name": "marketIndex",
          "type": "uint32"
        }
      ],
      "name": "wasLastUpdateOlderThanThreshold",
      "outputs": [
        {
          "internalType": "bool",
          "name": "",
          "type": "bool"
        }
      ],
      "stateMutability": "view",
      "type": "function"
    }
  ],
  "transactionHash": "0x3e5cf585c1787308c5edc619e16f1ae0708e9b5973abdb9fcf6adf400f688d47",
  "args": [],
  "solcInputHash": "9579e97d8e3309f43c75fdbfb23b7abd",
  "bytecode": "0x60a06040523060805234801561001457600080fd5b506080516124fe61004560003960008181610b0001528181610b4001528181610bc90152610c0901526124fe6000f3fe6080604052600436106101b75760003560e01c80639d34fa44116100ec578063c0d6c1801161008a578063d547741f11610064578063d547741f14610594578063ec0e8145146105b4578063f72c0d8b146105d4578063fb21062e1461060857600080fd5b8063c0d6c18014610534578063c3fc3fec14610554578063d470316b1461057457600080fd5b8063b3b4bfc3116100c6578063b3b4bfc314610462578063b777453a146104af578063b8e42ae3146104e7578063c0c53b8b1461051457600080fd5b80639d34fa44146103e9578063a217fddf14610409578063a95d4baa1461041e57600080fd5b806336568abe1161015957806375b238fc1161013357806375b238fc146103675780637d2dcbbc146103895780637f53e940146103a957806391d14854146103c957600080fd5b806336568abe146103145780633659cfe6146103345780634f1ef2861461035457600080fd5b8063248a9ca311610195578063248a9ca3146102745780632510723e146102b25780632862f1b2146102d45780632f2ff15d146102f457600080fd5b806301ffc9a7146101bc57806314993a70146101f157806319c6dd711461023d575b600080fd5b3480156101c857600080fd5b506101dc6101d7366004611e70565b610635565b60405190151581526020015b60405180910390f35b3480156101fd57600080fd5b5061021161020c366004611eae565b61066c565b60408051951515865293151560208601529284019190915215156060830152608082015260a0016101e8565b34801561024957600080fd5b5061025d610258366004611eae565b610733565b6040805192151583526020830191909152016101e8565b34801561028057600080fd5b506102a461028f366004611ec9565b60009081526065602052604090206001015490565b6040519081526020016101e8565b3480156102be57600080fd5b506102d26102cd366004611ee2565b6108f0565b005b3480156102e057600080fd5b506101dc6102ef366004611eae565b610923565b34801561030057600080fd5b506102d261030f366004611f21565b610a47565b34801561032057600080fd5b506102d261032f366004611f21565b610a72565b34801561034057600080fd5b506102d261034f366004611f51565b610af5565b6102d2610362366004611f84565b610bbe565b34801561037357600080fd5b506102a46000805160206124a983398151915281565b34801561039557600080fd5b506101dc6103a4366004611eae565b610c74565b3480156103b557600080fd5b506102d26103c4366004611ee2565b610cbd565b3480156103d557600080fd5b506101dc6103e4366004611f21565b610cf0565b3480156103f557600080fd5b506101dc610404366004611eae565b610d1b565b34801561041557600080fd5b506102a4600081565b34801561042a57600080fd5b5061043e610439366004611eae565b610d6d565b604080519415158552921515602085015291830152151560608201526080016101e8565b34801561046e57600080fd5b5061048261047d366004611eae565b610da8565b604080519687526020870195909552938501929092526060840152608083015260a082015260c0016101e8565b3480156104bb57600080fd5b5060fb546104cf906001600160a01b031681565b6040516001600160a01b0390911681526020016101e8565b3480156104f357600080fd5b506102a4610502366004611eae565b60fd6020526000908152604090205481565b34801561052057600080fd5b506102d261052f366004612048565b61109f565b34801561054057600080fd5b506101dc61054f366004611eae565b61114d565b34801561056057600080fd5b506101dc61056f366004611eae565b61145b565b34801561058057600080fd5b5060fc546104cf906001600160a01b031681565b3480156105a057600080fd5b506102d26105af366004611f21565b611613565b3480156105c057600080fd5b506102d26105cf366004611eae565b611639565b3480156105e057600080fd5b506102a47f189ab7a9244df0848122154315af71fe140f3db0fe014031783b0946b8c9d2e381565b34801561061457600080fd5b506102a4610623366004611eae565b60fe6020526000908152604090205481565b60006001600160e01b03198216637965db0b60e01b148061066657506301ffc9a760e01b6001600160e01b03198316145b92915050565b60008060008060008060008060006106838a610d6d565b93509350935093508383838360fb60009054906101000a90046001600160a01b03166001600160a01b03166314c88ffa8f6040518263ffffffff1660e01b81526004016106dc919063ffffffff91909116815260200190565b602060405180830381865afa1580156106f9573d6000803e3d6000fd5b505050506040513d601f19601f8201168201806040525081019061071d9190612093565b939e929d50909b50995090975095505050505050565b60fb546040516344805efd60e11b815263ffffffff83166004820152600091829182916001600160a01b031690638900bdfa90602401602060405180830381865afa158015610786573d6000803e3d6000fd5b505050506040513d601f19601f820116820180604052508101906107aa9190612093565b60fb54604051626eb7d760e61b815263ffffffff871660048201529192506000916001600160a01b0390911690631badf5c090602401602060405180830381865afa1580156107fd573d6000803e3d6000fd5b505050506040513d601f19601f8201168201806040525081019061082191906120ac565b90506000816001600160a01b031663673a7e286040518163ffffffff1660e01b81526004016020604051808303816000875af1158015610865573d6000803e3d6000fd5b505050506040513d601f19601f820116820180604052508101906108899190612093565b905060008361089883826120df565b6108aa90670de0b6b3a764000061211e565b6108b491906121a3565b63ffffffff8816600090815260fe6020526040902054909150808213806108e25750806108e0836121df565b135b989197509095505050505050565b6000805160206124a9833981519152610909813361164b565b5063ffffffff909116600090815260fe6020526040902055565b60fc546040516338e6b01160e21b815263ffffffff8316600482015260009182916001600160a01b039091169063e39ac04490602401602060405180830381865afa158015610976573d6000803e3d6000fd5b505050506040513d601f19601f8201168201806040525081019061099a9190612093565b60fc54604051633d016d9b60e11b815263ffffffff86166004820152602481018390529192506000916001600160a01b0390911690637a02db3690604401602060405180830381865afa1580156109f5573d6000803e3d6000fd5b505050506040513d601f19601f82011682018060405250810190610a199190612093565b63ffffffff8516600090815260fd60205260409020549091504290610a3e90836121fc565b10949350505050565b600082815260656020526040902060010154610a63813361164b565b610a6d83836116af565b505050565b6001600160a01b0381163314610ae75760405162461bcd60e51b815260206004820152602f60248201527f416363657373436f6e74726f6c3a2063616e206f6e6c792072656e6f756e636560448201526e103937b632b9903337b91039b2b63360891b60648201526084015b60405180910390fd5b610af18282611735565b5050565b306001600160a01b037f0000000000000000000000000000000000000000000000000000000000000000161415610b3e5760405162461bcd60e51b8152600401610ade90612214565b7f00000000000000000000000000000000000000000000000000000000000000006001600160a01b0316610b7061179c565b6001600160a01b031614610b965760405162461bcd60e51b8152600401610ade90612260565b610b9f816117ca565b60408051600080825260208201909252610bbb918391906117f5565b50565b306001600160a01b037f0000000000000000000000000000000000000000000000000000000000000000161415610c075760405162461bcd60e51b8152600401610ade90612214565b7f00000000000000000000000000000000000000000000000000000000000000006001600160a01b0316610c3961179c565b6001600160a01b031614610c5f5760405162461bcd60e51b8152600401610ade90612260565b610c68826117ca565b610af1828260016117f5565b6000610c7f82610923565b15610c8c57506001919050565b610c958261145b565b15610ca257506001919050565b610cab8261114d565b15610cb857506001919050565b919050565b6000805160206124a9833981519152610cd6813361164b565b5063ffffffff909116600090815260fd6020526040902055565b60009182526065602090815260408084206001600160a01b0393909316845291905290205460ff1690565b6000610d2682610923565b15610d3357506001919050565b6000610d3e83610733565b5090508015610d505750600192915050565b610d598361114d565b15610d675750600192915050565b50919050565b600080600080600080610d7f87610733565b91509150610d8c87610923565b8282610d978a61114d565b955095509550955050509193509193565b60fb546040516364e4a81d60e01b815263ffffffff8316600482015260016024820152600091829182918291829182916001600160a01b03909116906364e4a81d90604401602060405180830381865afa158015610e0a573d6000803e3d6000fd5b505050506040513d601f19601f82011682018060405250810190610e2e9190612093565b60fb546040516334daaa2560e01b815263ffffffff8a166004820152600160248201526001600160a01b03909116906334daaa2590604401602060405180830381865afa158015610e83573d6000803e3d6000fd5b505050506040513d601f19601f82011682018060405250810190610ea79190612093565b60fb54604051637c064dc960e11b815263ffffffff8b166004820152600160248201526001600160a01b039091169063f80c9b9290604401602060405180830381865afa158015610efc573d6000803e3d6000fd5b505050506040513d601f19601f82011682018060405250810190610f209190612093565b60fb546040516364e4a81d60e01b815263ffffffff8c166004820152600060248201526001600160a01b03909116906364e4a81d90604401602060405180830381865afa158015610f75573d6000803e3d6000fd5b505050506040513d601f19601f82011682018060405250810190610f999190612093565b60fb546040516334daaa2560e01b815263ffffffff8d166004820152600060248201526001600160a01b03909116906334daaa2590604401602060405180830381865afa158015610fee573d6000803e3d6000fd5b505050506040513d601f19601f820116820180604052508101906110129190612093565b60fb54604051637c064dc960e11b815263ffffffff8e166004820152600060248201526001600160a01b039091169063f80c9b9290604401602060405180830381865afa158015611067573d6000803e3d6000fd5b505050506040513d601f19601f8201168201806040525081019061108b9190612093565b949c939b5091995097509550909350915050565b600054610100900460ff166110ba5760005460ff16156110be565b303b155b6110da5760405162461bcd60e51b8152600401610ade906122ac565b600054610100900460ff161580156110fc576000805461ffff19166101011790555b60fb80546001600160a01b038086166001600160a01b03199283161790925560fc80549285169290911691909117905561113584611940565b8015611147576000805461ff00191690555b50505050565b60fb546040516364e4a81d60e01b815263ffffffff831660048201526001602482015260009182916001600160a01b03909116906364e4a81d90604401602060405180830381865afa1580156111a7573d6000803e3d6000fd5b505050506040513d601f19601f820116820180604052508101906111cb9190612093565b118061124e575060fb546040516334daaa2560e01b815263ffffffff84166004820152600160248201526000916001600160a01b0316906334daaa2590604401602060405180830381865afa158015611228573d6000803e3d6000fd5b505050506040513d601f19601f8201168201806040525081019061124c9190612093565b115b806112d0575060fb54604051637c064dc960e11b815263ffffffff84166004820152600160248201526000916001600160a01b03169063f80c9b9290604401602060405180830381865afa1580156112aa573d6000803e3d6000fd5b505050506040513d601f19601f820116820180604052508101906112ce9190612093565b115b80611352575060fb546040516364e4a81d60e01b815263ffffffff84166004820152600060248201819052916001600160a01b0316906364e4a81d90604401602060405180830381865afa15801561132c573d6000803e3d6000fd5b505050506040513d601f19601f820116820180604052508101906113509190612093565b115b806113d4575060fb546040516334daaa2560e01b815263ffffffff84166004820152600060248201819052916001600160a01b0316906334daaa2590604401602060405180830381865afa1580156113ae573d6000803e3d6000fd5b505050506040513d601f19601f820116820180604052508101906113d29190612093565b115b80610666575060fb54604051637c064dc960e11b815263ffffffff84166004820152600060248201819052916001600160a01b03169063f80c9b9290604401602060405180830381865afa158015611430573d6000803e3d6000fd5b505050506040513d601f19601f820116820180604052508101906114549190612093565b1192915050565b60fb546040516344805efd60e11b815263ffffffff8316600482015260009182916001600160a01b0390911690638900bdfa90602401602060405180830381865afa1580156114ae573d6000803e3d6000fd5b505050506040513d601f19601f820116820180604052508101906114d29190612093565b60fb54604051626eb7d760e61b815263ffffffff861660048201529192506000916001600160a01b0390911690631badf5c090602401602060405180830381865afa158015611525573d6000803e3d6000fd5b505050506040513d601f19601f8201168201806040525081019061154991906120ac565b90506000816001600160a01b0316638e15f4736040518163ffffffff1660e01b8152600401602060405180830381865afa15801561158b573d6000803e3d6000fd5b505050506040513d601f19601f820116820180604052508101906115af9190612093565b90506000836115be83826120df565b6115d090670de0b6b3a764000061211e565b6115da91906121a3565b63ffffffff8716600090815260fe602052604090205490915080821380611608575080611606836121df565b135b979650505050505050565b60008281526065602052604090206001015461162f813361164b565b610a6d8383611735565b61164281610da8565b50505050505050565b6116558282610cf0565b610af15761166d816001600160a01b031660146119cb565b6116788360206119cb565b604051602001611689929190612326565b60408051601f198184030181529082905262461bcd60e51b8252610ade9160040161239b565b6116b98282610cf0565b610af15760008281526065602090815260408083206001600160a01b03851684529091529020805460ff191660011790556116f13390565b6001600160a01b0316816001600160a01b0316837f2f8788117e7eff1d82e926ec794901d17c78024a50270940304540a733656f0d60405160405180910390a45050565b61173f8282610cf0565b15610af15760008281526065602090815260408083206001600160a01b0385168085529252808320805460ff1916905551339285917ff6391f5c32d9c69d2a47ea670b442974b53935d1edc7fd64eb21e047a839171b9190a45050565b7f360894a13ba1a3210667c828492db98dca3e2076cc3735a920a3ca505d382bbc546001600160a01b031690565b7f189ab7a9244df0848122154315af71fe140f3db0fe014031783b0946b8c9d2e3610af1813361164b565b60006117ff61179c565b905061180a84611b6e565b6000835111806118175750815b15611828576118268484611c13565b505b7f4910fdfa16fed3260ed0e7147f7cc6da11a60208b5b9406d12a635614ffd9143805460ff1661193957805460ff191660011781556040516001600160a01b03831660248201526118a790869060440160408051601f198184030181529190526020810180516001600160e01b0316631b2ce7f360e11b179052611c13565b50805460ff191681556118b861179c565b6001600160a01b0316826001600160a01b0316146119305760405162461bcd60e51b815260206004820152602f60248201527f45524331393637557067726164653a207570677261646520627265616b73206660448201526e75727468657220757067726164657360881b6064820152608401610ade565b61193985611cfe565b5050505050565b600054610100900460ff1661195b5760005460ff161561195f565b303b155b61197b5760405162461bcd60e51b8152600401610ade906122ac565b600054610100900460ff1615801561199d576000805461ffff19166101011790555b6119a5611d3e565b6119ad611d7f565b6119b682611da6565b8015610af1576000805461ff00191690555050565b606060006119da8360026123ce565b6119e59060026121fc565b67ffffffffffffffff8111156119fd576119fd611f6e565b6040519080825280601f01601f191660200182016040528015611a27576020820181803683370190505b509050600360fc1b81600081518110611a4257611a426123ed565b60200101906001600160f81b031916908160001a905350600f60fb1b81600181518110611a7157611a716123ed565b60200101906001600160f81b031916908160001a9053506000611a958460026123ce565b611aa09060016121fc565b90505b6001811115611b18576f181899199a1a9b1b9c1cb0b131b232b360811b85600f1660108110611ad457611ad46123ed565b1a60f81b828281518110611aea57611aea6123ed565b60200101906001600160f81b031916908160001a90535060049490941c93611b1181612403565b9050611aa3565b508315611b675760405162461bcd60e51b815260206004820181905260248201527f537472696e67733a20686578206c656e67746820696e73756666696369656e746044820152606401610ade565b9392505050565b803b611bd25760405162461bcd60e51b815260206004820152602d60248201527f455243313936373a206e657720696d706c656d656e746174696f6e206973206e60448201526c1bdd08184818dbdb9d1c9858dd609a1b6064820152608401610ade565b7f360894a13ba1a3210667c828492db98dca3e2076cc3735a920a3ca505d382bbc80546001600160a01b0319166001600160a01b0392909216919091179055565b6060823b611c725760405162461bcd60e51b815260206004820152602660248201527f416464726573733a2064656c65676174652063616c6c20746f206e6f6e2d636f6044820152651b9d1c9858dd60d21b6064820152608401610ade565b600080846001600160a01b031684604051611c8d919061241a565b600060405180830381855af49150503d8060008114611cc8576040519150601f19603f3d011682016040523d82523d6000602084013e611ccd565b606091505b5091509150611cf5828260405180606001604052806027815260200161248260279139611e06565b95945050505050565b611d0781611b6e565b6040516001600160a01b038216907fbc7cd75a20ee27fd9adebab32041f755214dbc6bffa90cc0225b39da2e5c2d3b90600090a250565b600054610100900460ff16611d655760405162461bcd60e51b8152600401610ade90612436565b611d6d611e3f565b611d75611e3f565b611d7d611e3f565b565b600054610100900460ff16611d6d5760405162461bcd60e51b8152600401610ade90612436565b6001600160a01b038116611db957600080fd5b611dc4600082611e66565b611ddc6000805160206124a983398151915282611e66565b610bbb7f189ab7a9244df0848122154315af71fe140f3db0fe014031783b0946b8c9d2e382611e66565b60608315611e15575081611b67565b825115611e255782518084602001fd5b8160405162461bcd60e51b8152600401610ade919061239b565b600054610100900460ff16611d7d5760405162461bcd60e51b8152600401610ade90612436565b610af182826116af565b600060208284031215611e8257600080fd5b81356001600160e01b031981168114611b6757600080fd5b803563ffffffff81168114610cb857600080fd5b600060208284031215611ec057600080fd5b611b6782611e9a565b600060208284031215611edb57600080fd5b5035919050565b60008060408385031215611ef557600080fd5b611efe83611e9a565b946020939093013593505050565b6001600160a01b0381168114610bbb57600080fd5b60008060408385031215611f3457600080fd5b823591506020830135611f4681611f0c565b809150509250929050565b600060208284031215611f6357600080fd5b8135611b6781611f0c565b634e487b7160e01b600052604160045260246000fd5b60008060408385031215611f9757600080fd5b8235611fa281611f0c565b9150602083013567ffffffffffffffff80821115611fbf57600080fd5b818501915085601f830112611fd357600080fd5b813581811115611fe557611fe5611f6e565b604051601f8201601f19908116603f0116810190838211818310171561200d5761200d611f6e565b8160405282815288602084870101111561202657600080fd5b8260208601602083013760006020848301015280955050505050509250929050565b60008060006060848603121561205d57600080fd5b833561206881611f0c565b9250602084013561207881611f0c565b9150604084013561208881611f0c565b809150509250925092565b6000602082840312156120a557600080fd5b5051919050565b6000602082840312156120be57600080fd5b8151611b6781611f0c565b634e487b7160e01b600052601160045260246000fd5b60008083128015600160ff1b8501841216156120fd576120fd6120c9565b6001600160ff1b0384018313811615612118576121186120c9565b50500390565b60006001600160ff1b0381841382841380821686840486111615612144576121446120c9565b600160ff1b6000871282811687830589121615612163576121636120c9565b6000871292508782058712848416161561217f5761217f6120c9565b87850587128184161615612195576121956120c9565b505050929093029392505050565b6000826121c057634e487b7160e01b600052601260045260246000fd5b600160ff1b8214600019841416156121da576121da6120c9565b500590565b6000600160ff1b8214156121f5576121f56120c9565b5060000390565b6000821982111561220f5761220f6120c9565b500190565b6020808252602c908201527f46756e6374696f6e206d7573742062652063616c6c6564207468726f7567682060408201526b19195b1959d85d1958d85b1b60a21b606082015260800190565b6020808252602c908201527f46756e6374696f6e206d7573742062652063616c6c6564207468726f7567682060408201526b6163746976652070726f787960a01b606082015260800190565b6020808252602e908201527f496e697469616c697a61626c653a20636f6e747261637420697320616c72656160408201526d191e481a5b9a5d1a585b1a5e995960921b606082015260800190565b60005b838110156123155781810151838201526020016122fd565b838111156111475750506000910152565b7f416363657373436f6e74726f6c3a206163636f756e742000000000000000000081526000835161235e8160178501602088016122fa565b7001034b99036b4b9b9b4b733903937b6329607d1b601791840191820152835161238f8160288401602088016122fa565b01602801949350505050565b60208152600082518060208401526123ba8160408501602087016122fa565b601f01601f19169190910160400192915050565b60008160001904831182151516156123e8576123e86120c9565b500290565b634e487b7160e01b600052603260045260246000fd5b600081612412576124126120c9565b506000190190565b6000825161242c8184602087016122fa565b9190910192915050565b6020808252602b908201527f496e697469616c697a61626c653a20636f6e7472616374206973206e6f74206960408201526a6e697469616c697a696e6760a81b60608201526080019056fe416464726573733a206c6f772d6c6576656c2064656c65676174652063616c6c206661696c6564a49807205ce4d355092ef5a8a18f56e8913cf4a201fbe287825b095693c21775a2646970667358221220b7b53f5babcd710d5bfe914f472d22d99d2e92318ddf28de099989f1db30888764736f6c634300080a0033",
  "devdoc": {
    "kind": "dev",
    "methods": {
      "getRoleAdmin(bytes32)": {
        "details": "Returns the admin role that controls `role`. See {grantRole} and {revokeRole}. To change a role's admin, use {_setRoleAdmin}."
      },
      "grantRole(bytes32,address)": {
        "details": "Grants `role` to `account`. If `account` had not been already granted `role`, emits a {RoleGranted} event. Requirements: - the caller must have ``role``'s admin role."
      },
      "hasRole(bytes32,address)": {
        "details": "Returns `true` if `account` has been granted `role`."
      },
      "renounceRole(bytes32,address)": {
        "details": "Revokes `role` from the calling account. Roles are often managed via {grantRole} and {revokeRole}: this function's purpose is to provide a mechanism for accounts to lose their privileges if they are compromised (such as when a trusted device is misplaced). If the calling account had been revoked `role`, emits a {RoleRevoked} event. Requirements: - the caller must be `account`."
      },
      "revokeRole(bytes32,address)": {
        "details": "Revokes `role` from `account`. If `account` had been granted `role`, emits a {RoleRevoked} event. Requirements: - the caller must have ``role``'s admin role."
      },
      "supportsInterface(bytes4)": {
        "details": "See {IERC165-supportsInterface}."
      },
      "upgradeTo(address)": {
        "details": "Upgrade the implementation of the proxy to `newImplementation`. Calls {_authorizeUpgrade}. Emits an {Upgraded} event."
      },
      "upgradeToAndCall(address,bytes)": {
        "details": "Upgrade the implementation of the proxy to `newImplementation`, and subsequently execute the function call encoded in `data`. Calls {_authorizeUpgrade}. Emits an {Upgraded} event."
      }
    },
    "version": 1
  },
  "userdoc": {
    "kind": "user",
    "methods": {},
    "version": 1
  },
  "storageLayout": {
    "storage": [
      {
        "astId": 1051,
        "contract": "contracts/KeeperExperiment.sol:KeeperExperiment",
        "label": "_initialized",
        "offset": 0,
        "slot": "0",
        "type": "t_bool"
      },
      {
        "astId": 1054,
        "contract": "contracts/KeeperExperiment.sol:KeeperExperiment",
        "label": "_initializing",
        "offset": 1,
        "slot": "0",
        "type": "t_bool"
      },
      {
        "astId": 5350,
        "contract": "contracts/KeeperExperiment.sol:KeeperExperiment",
        "label": "__gap",
        "offset": 0,
        "slot": "1",
        "type": "t_array(t_uint256)50_storage"
      },
      {
        "astId": 6272,
        "contract": "contracts/KeeperExperiment.sol:KeeperExperiment",
        "label": "__gap",
        "offset": 0,
        "slot": "51",
        "type": "t_array(t_uint256)50_storage"
      },
      {
        "astId": 250,
        "contract": "contracts/KeeperExperiment.sol:KeeperExperiment",
        "label": "_roles",
        "offset": 0,
        "slot": "101",
        "type": "t_mapping(t_bytes32,t_struct(RoleData)245_storage)"
      },
      {
        "astId": 537,
        "contract": "contracts/KeeperExperiment.sol:KeeperExperiment",
        "label": "__gap",
        "offset": 0,
        "slot": "102",
        "type": "t_array(t_uint256)49_storage"
      },
      {
        "astId": 1033,
        "contract": "contracts/KeeperExperiment.sol:KeeperExperiment",
        "label": "__gap",
        "offset": 0,
        "slot": "151",
        "type": "t_array(t_uint256)50_storage"
      },
      {
        "astId": 1228,
        "contract": "contracts/KeeperExperiment.sol:KeeperExperiment",
        "label": "__gap",
        "offset": 0,
        "slot": "201",
        "type": "t_array(t_uint256)50_storage"
      },
      {
        "astId": 13420,
        "contract": "contracts/KeeperExperiment.sol:KeeperExperiment",
        "label": "longShortAddress",
        "offset": 0,
        "slot": "251",
        "type": "t_address"
      },
      {
        "astId": 13422,
        "contract": "contracts/KeeperExperiment.sol:KeeperExperiment",
        "label": "stakerAddress",
        "offset": 0,
        "slot": "252",
        "type": "t_address"
      },
      {
        "astId": 13426,
        "contract": "contracts/KeeperExperiment.sol:KeeperExperiment",
        "label": "updateTimeThresholdInSeconds",
        "offset": 0,
        "slot": "253",
        "type": "t_mapping(t_uint32,t_uint256)"
      },
      {
        "astId": 13430,
        "contract": "contracts/KeeperExperiment.sol:KeeperExperiment",
        "label": "percentChangeThreshold",
        "offset": 0,
        "slot": "254",
        "type": "t_mapping(t_uint32,t_uint256)"
      }
    ],
    "types": {
      "t_address": {
        "encoding": "inplace",
        "label": "address",
        "numberOfBytes": "20"
      },
      "t_array(t_uint256)49_storage": {
        "base": "t_uint256",
        "encoding": "inplace",
        "label": "uint256[49]",
        "numberOfBytes": "1568"
      },
      "t_array(t_uint256)50_storage": {
        "base": "t_uint256",
        "encoding": "inplace",
        "label": "uint256[50]",
        "numberOfBytes": "1600"
      },
      "t_bool": {
        "encoding": "inplace",
        "label": "bool",
        "numberOfBytes": "1"
      },
      "t_bytes32": {
        "encoding": "inplace",
        "label": "bytes32",
        "numberOfBytes": "32"
      },
      "t_mapping(t_address,t_bool)": {
        "encoding": "mapping",
        "key": "t_address",
        "label": "mapping(address => bool)",
        "numberOfBytes": "32",
        "value": "t_bool"
      },
      "t_mapping(t_bytes32,t_struct(RoleData)245_storage)": {
        "encoding": "mapping",
        "key": "t_bytes32",
        "label": "mapping(bytes32 => struct AccessControlUpgradeable.RoleData)",
        "numberOfBytes": "32",
        "value": "t_struct(RoleData)245_storage"
      },
      "t_mapping(t_uint32,t_uint256)": {
        "encoding": "mapping",
        "key": "t_uint32",
        "label": "mapping(uint32 => uint256)",
        "numberOfBytes": "32",
        "value": "t_uint256"
      },
      "t_struct(RoleData)245_storage": {
        "encoding": "inplace",
        "label": "struct AccessControlUpgradeable.RoleData",
        "members": [
          {
            "astId": 242,
            "contract": "contracts/KeeperExperiment.sol:KeeperExperiment",
            "label": "members",
            "offset": 0,
            "slot": "0",
            "type": "t_mapping(t_address,t_bool)"
          },
          {
            "astId": 244,
            "contract": "contracts/KeeperExperiment.sol:KeeperExperiment",
            "label": "adminRole",
            "offset": 0,
            "slot": "1",
            "type": "t_bytes32"
          }
        ],
        "numberOfBytes": "64"
      },
      "t_uint256": {
        "encoding": "inplace",
        "label": "uint256",
        "numberOfBytes": "32"
      },
      "t_uint32": {
        "encoding": "inplace",
        "label": "uint32",
        "numberOfBytes": "4"
      }
    }
  }
}