{
  "address": "0x41e3d5b198fd4fF2B392Fcc421e3A9D6f4b3B526",
  "abi": [
    {
      "inputs": [
        {
          "internalType": "address",
          "name": "_admin",
          "type": "address"
        },
        {
          "internalType": "address",
          "name": "_chainlinkOracle",
          "type": "address"
        },
        {
          "internalType": "uint256",
          "name": "_maxUpdateIntervalSeconds",
          "type": "uint256"
        }
      ],
      "stateMutability": "nonpayable",
      "type": "constructor"
    },
    {
      "inputs": [],
      "name": "admin",
      "outputs": [
        {
          "internalType": "address",
          "name": "",
          "type": "address"
        }
      ],
      "stateMutability": "view",
      "type": "function"
    },
    {
      "inputs": [],
      "name": "chainlinkOracle",
      "outputs": [
        {
          "internalType": "contract AggregatorV3Interface",
          "name": "",
          "type": "address"
        }
      ],
      "stateMutability": "view",
      "type": "function"
    },
    {
      "inputs": [
        {
          "internalType": "address",
          "name": "_admin",
          "type": "address"
        }
      ],
      "name": "changeAdmin",
      "outputs": [],
      "stateMutability": "nonpayable",
      "type": "function"
    },
    {
      "inputs": [],
      "name": "getLatestPrice",
      "outputs": [
        {
          "internalType": "int256",
          "name": "",
          "type": "int256"
        }
      ],
      "stateMutability": "view",
      "type": "function"
    },
    {
      "inputs": [],
      "name": "oracleDecimals",
      "outputs": [
        {
          "internalType": "uint8",
          "name": "",
          "type": "uint8"
        }
      ],
      "stateMutability": "view",
      "type": "function"
    },
    {
      "inputs": [
        {
          "internalType": "uint256",
          "name": "newMaxUpdateIntervalSeconds",
          "type": "uint256"
        }
      ],
      "name": "setMaxUpdateInterval",
      "outputs": [],
      "stateMutability": "nonpayable",
      "type": "function"
    },
    {
      "inputs": [],
      "name": "updatePrice",
      "outputs": [
        {
          "internalType": "int256",
          "name": "",
          "type": "int256"
        }
      ],
      "stateMutability": "nonpayable",
      "type": "function"
    }
  ],
  "transactionHash": "0x99ab572b7b94afa4f674d00e4d75ae5607618b6ababff01ff1540c9b8d0944b9",
  "args": [
    "0x2740EA9F72B23372621D8D718F52609b80c24E61",
    "0x007A22900a3B98143368Bd5906f8E17e9867581b",
    "27"
  ],
  "solcInputHash": "f992b3c18d8822e024711f3a6d00ccf4",
  "bytecode": "0x608060405234801561001057600080fd5b506040516105ef3803806105ef83398101604081905261002f91610119565b600080546001600160a01b038086166001600160a01b0319928316179092556001805492851692909116821790556040805163313ce56760e01b8152905185928592909163313ce56791600480820192602092909190829003018186803b15801561009957600080fd5b505afa1580156100ad573d6000803e3d6000fd5b505050506040513d601f19601f820116820180604052508101906100d19190610154565b6001805460ff92909216600160a01b0260ff60a01b1990921691909117905550506003555061017c9050565b80516001600160a01b038116811461011457600080fd5b919050565b60008060006060848603121561012d578283fd5b610136846100fd565b9250610144602085016100fd565b9150604084015190509250925092565b600060208284031215610165578081fd5b815160ff81168114610175578182fd5b9392505050565b6104648061018b6000396000f3fe608060405234801561001057600080fd5b506004361061007d5760003560e01c80638f2839701161005b5780638f283970146100ba578063e68b52e7146100cd578063ef06e72c146100f3578063f851a4401461011e5761007d565b80635babb13214610082578063673a7e28146100975780638e15f473146100b2575b600080fd5b610095610090366004610338565b610131565b005b61009f610181565b6040519081526020015b60405180910390f35b61009f6101e0565b6100956100c836600461030a565b6101ef565b6001546100e190600160a01b900460ff1681565b60405160ff90911681526020016100a9565b600154610106906001600160a01b031681565b6040516001600160a01b0390911681526020016100a9565b600054610106906001600160a01b031681565b6000546001600160a01b0316331461017c5760405162461bcd60e51b81526020600482015260096024820152682737ba1030b236b4b760b91b60448201526064015b60405180910390fd5b600355565b60008061018c610257565b905060006004549050426003546002546101a691906103e0565b10156101cf5760026101b982600161039f565b6101c391906103f8565b60048190554260025590505b6101d9818361039f565b9250505090565b60006101ea610257565b905090565b6000546001600160a01b031633146102355760405162461bcd60e51b81526020600482015260096024820152682737ba1030b236b4b760b91b6044820152606401610173565b600080546001600160a01b0319166001600160a01b0392909216919091179055565b600080600160009054906101000a90046001600160a01b03166001600160a01b031663feaf968c6040518163ffffffff1660e01b815260040160a06040518083038186803b1580156102a857600080fd5b505afa1580156102bc573d6000803e3d6000fd5b505050506040513d601f19601f820116820180604052508101906102e09190610350565b509194505050505090565b805169ffffffffffffffffffff8116811461030557600080fd5b919050565b60006020828403121561031b578081fd5b81356001600160a01b0381168114610331578182fd5b9392505050565b600060208284031215610349578081fd5b5035919050565b600080600080600060a08688031215610367578081fd5b610370866102eb565b9450602086015193506040860151925060608601519150610393608087016102eb565b90509295509295909350565b600080821280156001600160ff1b03849003851316156103c1576103c1610418565b600160ff1b83900384128116156103da576103da610418565b50500190565b600082198211156103f3576103f3610418565b500190565b60008261041357634e487b7160e01b81526012600452602481fd5b500790565b634e487b7160e01b600052601160045260246000fdfea2646970667358221220bb95385226c02418a765cfd0adf9555a26ad1da701bbf9026bcd2f06edd1688464736f6c63430008030033",
  "devdoc": {
    "kind": "dev",
    "methods": {},
    "version": 1
  },
  "userdoc": {
    "kind": "user",
    "methods": {
      "changeAdmin(address)": {
        "notice": "MULTISIG ADMIN FUNCTIONS ///////"
      }
    },
    "version": 1
  },
  "storageLayout": {
    "storage": [
      {
        "astId": 19622,
        "contract": "contracts/oracles/OracleManagerChainlinkTestnet.sol:OracleManagerChainlinkTestnet",
        "label": "admin",
        "offset": 0,
        "slot": "0",
        "type": "t_address"
      },
      {
        "astId": 19625,
        "contract": "contracts/oracles/OracleManagerChainlinkTestnet.sol:OracleManagerChainlinkTestnet",
        "label": "chainlinkOracle",
        "offset": 0,
        "slot": "1",
        "type": "t_contract(AggregatorV3Interface)45"
      },
      {
        "astId": 19627,
        "contract": "contracts/oracles/OracleManagerChainlinkTestnet.sol:OracleManagerChainlinkTestnet",
        "label": "oracleDecimals",
        "offset": 20,
        "slot": "1",
        "type": "t_uint8"
      },
      {
        "astId": 19718,
        "contract": "contracts/oracles/OracleManagerChainlinkTestnet.sol:OracleManagerChainlinkTestnet",
        "label": "lastUpdate",
        "offset": 0,
        "slot": "2",
        "type": "t_uint256"
      },
      {
        "astId": 19720,
        "contract": "contracts/oracles/OracleManagerChainlinkTestnet.sol:OracleManagerChainlinkTestnet",
        "label": "maxUpdateIntervalSeconds",
        "offset": 0,
        "slot": "3",
        "type": "t_uint256"
      },
      {
        "astId": 19722,
        "contract": "contracts/oracles/OracleManagerChainlinkTestnet.sol:OracleManagerChainlinkTestnet",
        "label": "forcedPriceAdjustment",
        "offset": 0,
        "slot": "4",
        "type": "t_int256"
      }
    ],
    "types": {
      "t_address": {
        "encoding": "inplace",
        "label": "address",
        "numberOfBytes": "20"
      },
      "t_contract(AggregatorV3Interface)45": {
        "encoding": "inplace",
        "label": "contract AggregatorV3Interface",
        "numberOfBytes": "20"
      },
      "t_int256": {
        "encoding": "inplace",
        "label": "int256",
        "numberOfBytes": "32"
      },
      "t_uint256": {
        "encoding": "inplace",
        "label": "uint256",
        "numberOfBytes": "32"
      },
      "t_uint8": {
        "encoding": "inplace",
        "label": "uint8",
        "numberOfBytes": "1"
      }
    }
  }
}