{
  "address": "0x5DF1C01167f6c4354AAa8DdEb151A55d067Fed5A",
  "abi": [
    {
      "inputs": [
        {
          "internalType": "address",
          "name": "_admin",
          "type": "address"
        },
        {
          "internalType": "address",
          "name": "_chainlinkOracle",
          "type": "address"
        },
        {
          "internalType": "uint256",
          "name": "_maxUpdateIntervalSeconds",
          "type": "uint256"
        }
      ],
      "stateMutability": "nonpayable",
      "type": "constructor"
    },
    {
      "inputs": [],
      "name": "admin",
      "outputs": [
        {
          "internalType": "address",
          "name": "",
          "type": "address"
        }
      ],
      "stateMutability": "view",
      "type": "function"
    },
    {
      "inputs": [],
      "name": "chainlinkOracle",
      "outputs": [
        {
          "internalType": "contract AggregatorV3Interface",
          "name": "",
          "type": "address"
        }
      ],
      "stateMutability": "view",
      "type": "function"
    },
    {
      "inputs": [
        {
          "internalType": "address",
          "name": "_admin",
          "type": "address"
        }
      ],
      "name": "changeAdmin",
      "outputs": [],
      "stateMutability": "nonpayable",
      "type": "function"
    },
    {
      "inputs": [],
      "name": "getLatestPrice",
      "outputs": [
        {
          "internalType": "int256",
          "name": "",
          "type": "int256"
        }
      ],
      "stateMutability": "view",
      "type": "function"
    },
    {
      "inputs": [],
      "name": "oracleDecimals",
      "outputs": [
        {
          "internalType": "uint8",
          "name": "",
          "type": "uint8"
        }
      ],
      "stateMutability": "view",
      "type": "function"
    },
    {
      "inputs": [
        {
          "internalType": "uint256",
          "name": "newMaxUpdateIntervalSeconds",
          "type": "uint256"
        }
      ],
      "name": "setMaxUpdateInterval",
      "outputs": [],
      "stateMutability": "nonpayable",
      "type": "function"
    },
    {
      "inputs": [],
      "name": "updatePrice",
      "outputs": [
        {
          "internalType": "int256",
          "name": "",
          "type": "int256"
        }
      ],
      "stateMutability": "nonpayable",
      "type": "function"
    }
  ],
  "transactionHash": "0xbac4ade5c8789751d53e80f1a63b56db3af83a1acd8e30595168aa50c5461ce7",
  "args": [
    "0x2740EA9F72B23372621D8D718F52609b80c24E61",
    "0xd0D5e3DB44DE05E9F294BB0a3bEEaF030DE24Ada",
    "27"
  ],
  "solcInputHash": "9579e97d8e3309f43c75fdbfb23b7abd",
  "bytecode": "0x608060405234801561001057600080fd5b506040516105da3803806105da83398101604081905261002f9161010a565b600080546001600160a01b038086166001600160a01b0319928316179092556001805492851692909116821790556040805163313ce56760e01b8152905185928592909163313ce567916004808201926020929091908290030181865afa15801561009e573d6000803e3d6000fd5b505050506040513d601f19601f820116820180604052508101906100c29190610146565b6001805460ff92909216600160a01b0260ff60a01b199092169190911790555050600355506101709050565b80516001600160a01b038116811461010557600080fd5b919050565b60008060006060848603121561011f57600080fd5b610128846100ee565b9250610136602085016100ee565b9150604084015190509250925092565b60006020828403121561015857600080fd5b815160ff8116811461016957600080fd5b9392505050565b61045b8061017f6000396000f3fe608060405234801561001057600080fd5b506004361061007d5760003560e01c80638f2839701161005b5780638f283970146100ba578063e68b52e7146100cd578063ef06e72c146100f3578063f851a4401461011e57600080fd5b80635babb13214610082578063673a7e28146100975780638e15f473146100b2575b600080fd5b6100956100903660046102dc565b610131565b005b61009f610181565b6040519081526020015b60405180910390f35b61009f6101e0565b6100956100c83660046102f5565b6101ef565b6001546100e190600160a01b900460ff1681565b60405160ff90911681526020016100a9565b600154610106906001600160a01b031681565b6040516001600160a01b0390911681526020016100a9565b600054610106906001600160a01b031681565b6000546001600160a01b0316331461017c5760405162461bcd60e51b81526020600482015260096024820152682737ba1030b236b4b760b91b60448201526064015b60405180910390fd5b600355565b60008061018c610257565b905060006004549050426003546002546101a6919061033b565b10156101cf5760026101b9826001610353565b6101c39190610394565b60048190554260025590505b6101d98183610353565b9250505090565b60006101ea610257565b905090565b6000546001600160a01b031633146102355760405162461bcd60e51b81526020600482015260096024820152682737ba1030b236b4b760b91b6044820152606401610173565b600080546001600160a01b0319166001600160a01b0392909216919091179055565b600080600160009054906101000a90046001600160a01b03166001600160a01b031663feaf968c6040518163ffffffff1660e01b815260040160a060405180830381865afa1580156102ad573d6000803e3d6000fd5b505050506040513d601f19601f820116820180604052508101906102d191906103d5565b509195945050505050565b6000602082840312156102ee57600080fd5b5035919050565b60006020828403121561030757600080fd5b81356001600160a01b038116811461031e57600080fd5b9392505050565b634e487b7160e01b600052601160045260246000fd5b6000821982111561034e5761034e610325565b500190565b600080821280156001600160ff1b038490038513161561037557610375610325565b600160ff1b839003841281161561038e5761038e610325565b50500190565b6000826103b157634e487b7160e01b600052601260045260246000fd5b500790565b805169ffffffffffffffffffff811681146103d057600080fd5b919050565b600080600080600060a086880312156103ed57600080fd5b6103f6866103b6565b9450602086015193506040860151925060608601519150610419608087016103b6565b9050929550929590935056fea26469706673582212204b441135ed384f0ad84d22fa8739c218fac02ec7e241126cba7913c0efb2820b64736f6c634300080a0033",
  "devdoc": {
    "kind": "dev",
    "methods": {},
    "version": 1
  },
  "userdoc": {
    "kind": "user",
    "methods": {
      "changeAdmin(address)": {
        "notice": "MULTISIG ADMIN FUNCTIONS ///////"
      }
    },
    "version": 1
  },
  "storageLayout": {
    "storage": [
      {
        "astId": 24610,
        "contract": "contracts/oracles/OracleManagerChainlinkTestnet.sol:OracleManagerChainlinkTestnet",
        "label": "admin",
        "offset": 0,
        "slot": "0",
        "type": "t_address"
      },
      {
        "astId": 24613,
        "contract": "contracts/oracles/OracleManagerChainlinkTestnet.sol:OracleManagerChainlinkTestnet",
        "label": "chainlinkOracle",
        "offset": 0,
        "slot": "1",
        "type": "t_contract(AggregatorV3Interface)45"
      },
      {
        "astId": 24615,
        "contract": "contracts/oracles/OracleManagerChainlinkTestnet.sol:OracleManagerChainlinkTestnet",
        "label": "oracleDecimals",
        "offset": 20,
        "slot": "1",
        "type": "t_uint8"
      },
      {
        "astId": 24706,
        "contract": "contracts/oracles/OracleManagerChainlinkTestnet.sol:OracleManagerChainlinkTestnet",
        "label": "lastUpdate",
        "offset": 0,
        "slot": "2",
        "type": "t_uint256"
      },
      {
        "astId": 24708,
        "contract": "contracts/oracles/OracleManagerChainlinkTestnet.sol:OracleManagerChainlinkTestnet",
        "label": "maxUpdateIntervalSeconds",
        "offset": 0,
        "slot": "3",
        "type": "t_uint256"
      },
      {
        "astId": 24710,
        "contract": "contracts/oracles/OracleManagerChainlinkTestnet.sol:OracleManagerChainlinkTestnet",
        "label": "forcedPriceAdjustment",
        "offset": 0,
        "slot": "4",
        "type": "t_int256"
      }
    ],
    "types": {
      "t_address": {
        "encoding": "inplace",
        "label": "address",
        "numberOfBytes": "20"
      },
      "t_contract(AggregatorV3Interface)45": {
        "encoding": "inplace",
        "label": "contract AggregatorV3Interface",
        "numberOfBytes": "20"
      },
      "t_int256": {
        "encoding": "inplace",
        "label": "int256",
        "numberOfBytes": "32"
      },
      "t_uint256": {
        "encoding": "inplace",
        "label": "uint256",
        "numberOfBytes": "32"
      },
      "t_uint8": {
        "encoding": "inplace",
        "label": "uint8",
        "numberOfBytes": "1"
      }
    }
  }
}