{
  "address": "0x4D7471bbC672698B278A9F6a225D16A3fFd15E9B",
  "abi": [
    {
      "anonymous": false,
      "inputs": [
        {
          "indexed": false,
          "internalType": "address",
          "name": "previousAdmin",
          "type": "address"
        },
        {
          "indexed": false,
          "internalType": "address",
          "name": "newAdmin",
          "type": "address"
        }
      ],
      "name": "AdminChanged",
      "type": "event"
    },
    {
      "anonymous": false,
      "inputs": [
        {
          "indexed": true,
          "internalType": "address",
          "name": "owner",
          "type": "address"
        },
        {
          "indexed": true,
          "internalType": "address",
          "name": "spender",
          "type": "address"
        },
        {
          "indexed": false,
          "internalType": "uint256",
          "name": "value",
          "type": "uint256"
        }
      ],
      "name": "Approval",
      "type": "event"
    },
    {
      "anonymous": false,
      "inputs": [
        {
          "indexed": true,
          "internalType": "address",
          "name": "beacon",
          "type": "address"
        }
      ],
      "name": "BeaconUpgraded",
      "type": "event"
    },
    {
      "anonymous": false,
      "inputs": [
        {
          "indexed": true,
          "internalType": "bytes32",
          "name": "role",
          "type": "bytes32"
        },
        {
          "indexed": true,
          "internalType": "bytes32",
          "name": "previousAdminRole",
          "type": "bytes32"
        },
        {
          "indexed": true,
          "internalType": "bytes32",
          "name": "newAdminRole",
          "type": "bytes32"
        }
      ],
      "name": "RoleAdminChanged",
      "type": "event"
    },
    {
      "anonymous": false,
      "inputs": [
        {
          "indexed": true,
          "internalType": "bytes32",
          "name": "role",
          "type": "bytes32"
        },
        {
          "indexed": true,
          "internalType": "address",
          "name": "account",
          "type": "address"
        },
        {
          "indexed": true,
          "internalType": "address",
          "name": "sender",
          "type": "address"
        }
      ],
      "name": "RoleGranted",
      "type": "event"
    },
    {
      "anonymous": false,
      "inputs": [
        {
          "indexed": true,
          "internalType": "bytes32",
          "name": "role",
          "type": "bytes32"
        },
        {
          "indexed": true,
          "internalType": "address",
          "name": "account",
          "type": "address"
        },
        {
          "indexed": true,
          "internalType": "address",
          "name": "sender",
          "type": "address"
        }
      ],
      "name": "RoleRevoked",
      "type": "event"
    },
    {
      "anonymous": false,
      "inputs": [
        {
          "indexed": true,
          "internalType": "address",
          "name": "from",
          "type": "address"
        },
        {
          "indexed": true,
          "internalType": "address",
          "name": "to",
          "type": "address"
        },
        {
          "indexed": false,
          "internalType": "uint256",
          "name": "value",
          "type": "uint256"
        }
      ],
      "name": "Transfer",
      "type": "event"
    },
    {
      "anonymous": false,
      "inputs": [
        {
          "indexed": true,
          "internalType": "address",
          "name": "implementation",
          "type": "address"
        }
      ],
      "name": "Upgraded",
      "type": "event"
    },
    {
      "inputs": [],
      "name": "DEFAULT_ADMIN_ROLE",
      "outputs": [
        {
          "internalType": "bytes32",
          "name": "",
          "type": "bytes32"
        }
      ],
      "stateMutability": "view",
      "type": "function"
    },
    {
      "inputs": [],
      "name": "DOMAIN_SEPARATOR",
      "outputs": [
        {
          "internalType": "bytes32",
          "name": "",
          "type": "bytes32"
        }
      ],
      "stateMutability": "view",
      "type": "function"
    },
    {
      "inputs": [],
      "name": "MINTER_ROLE",
      "outputs": [
        {
          "internalType": "bytes32",
          "name": "",
          "type": "bytes32"
        }
      ],
      "stateMutability": "view",
      "type": "function"
    },
    {
      "inputs": [],
      "name": "UPGRADER_ROLE",
      "outputs": [
        {
          "internalType": "bytes32",
          "name": "",
          "type": "bytes32"
        }
      ],
      "stateMutability": "view",
      "type": "function"
    },
    {
      "inputs": [
        {
          "internalType": "address",
          "name": "owner",
          "type": "address"
        },
        {
          "internalType": "address",
          "name": "spender",
          "type": "address"
        }
      ],
      "name": "allowance",
      "outputs": [
        {
          "internalType": "uint256",
          "name": "",
          "type": "uint256"
        }
      ],
      "stateMutability": "view",
      "type": "function"
    },
    {
      "inputs": [
        {
          "internalType": "address",
          "name": "spender",
          "type": "address"
        },
        {
          "internalType": "uint256",
          "name": "amount",
          "type": "uint256"
        }
      ],
      "name": "approve",
      "outputs": [
        {
          "internalType": "bool",
          "name": "",
          "type": "bool"
        }
      ],
      "stateMutability": "nonpayable",
      "type": "function"
    },
    {
      "inputs": [
        {
          "internalType": "address",
          "name": "account",
          "type": "address"
        }
      ],
      "name": "balanceOf",
      "outputs": [
        {
          "internalType": "uint256",
          "name": "",
          "type": "uint256"
        }
      ],
      "stateMutability": "view",
      "type": "function"
    },
    {
      "inputs": [
        {
          "internalType": "uint256",
          "name": "amount",
          "type": "uint256"
        }
      ],
      "name": "burn",
      "outputs": [],
      "stateMutability": "nonpayable",
      "type": "function"
    },
    {
      "inputs": [
        {
          "internalType": "address",
          "name": "account",
          "type": "address"
        },
        {
          "internalType": "uint256",
          "name": "amount",
          "type": "uint256"
        }
      ],
      "name": "burnFrom",
      "outputs": [],
      "stateMutability": "nonpayable",
      "type": "function"
    },
    {
      "inputs": [],
      "name": "decimals",
      "outputs": [
        {
          "internalType": "uint8",
          "name": "",
          "type": "uint8"
        }
      ],
      "stateMutability": "view",
      "type": "function"
    },
    {
      "inputs": [
        {
          "internalType": "address",
          "name": "spender",
          "type": "address"
        },
        {
          "internalType": "uint256",
          "name": "subtractedValue",
          "type": "uint256"
        }
      ],
      "name": "decreaseAllowance",
      "outputs": [
        {
          "internalType": "bool",
          "name": "",
          "type": "bool"
        }
      ],
      "stateMutability": "nonpayable",
      "type": "function"
    },
    {
      "inputs": [
        {
          "internalType": "bytes32",
          "name": "role",
          "type": "bytes32"
        }
      ],
      "name": "getRoleAdmin",
      "outputs": [
        {
          "internalType": "bytes32",
          "name": "",
          "type": "bytes32"
        }
      ],
      "stateMutability": "view",
      "type": "function"
    },
    {
      "inputs": [
        {
          "internalType": "bytes32",
          "name": "role",
          "type": "bytes32"
        },
        {
          "internalType": "address",
          "name": "account",
          "type": "address"
        }
      ],
      "name": "grantRole",
      "outputs": [],
      "stateMutability": "nonpayable",
      "type": "function"
    },
    {
      "inputs": [
        {
          "internalType": "bytes32",
          "name": "role",
          "type": "bytes32"
        },
        {
          "internalType": "address",
          "name": "account",
          "type": "address"
        }
      ],
      "name": "hasRole",
      "outputs": [
        {
          "internalType": "bool",
          "name": "",
          "type": "bool"
        }
      ],
      "stateMutability": "view",
      "type": "function"
    },
    {
      "inputs": [
        {
          "internalType": "address",
          "name": "spender",
          "type": "address"
        },
        {
          "internalType": "uint256",
          "name": "addedValue",
          "type": "uint256"
        }
      ],
      "name": "increaseAllowance",
      "outputs": [
        {
          "internalType": "bool",
          "name": "",
          "type": "bool"
        }
      ],
      "stateMutability": "nonpayable",
      "type": "function"
    },
    {
      "inputs": [
        {
          "internalType": "string",
          "name": "name",
          "type": "string"
        },
        {
          "internalType": "string",
          "name": "symbol",
          "type": "string"
        },
        {
          "internalType": "address",
          "name": "_longShort",
          "type": "address"
        },
        {
          "internalType": "address",
          "name": "_staker",
          "type": "address"
        },
        {
          "internalType": "uint32",
          "name": "_marketIndex",
          "type": "uint32"
        },
        {
          "internalType": "bool",
          "name": "_isLong",
          "type": "bool"
        }
      ],
      "name": "initialize",
      "outputs": [],
      "stateMutability": "nonpayable",
      "type": "function"
    },
    {
      "inputs": [],
      "name": "isLong",
      "outputs": [
        {
          "internalType": "bool",
          "name": "",
          "type": "bool"
        }
      ],
      "stateMutability": "view",
      "type": "function"
    },
    {
      "inputs": [],
      "name": "longShort",
      "outputs": [
        {
          "internalType": "address",
          "name": "",
          "type": "address"
        }
      ],
      "stateMutability": "view",
      "type": "function"
    },
    {
      "inputs": [],
      "name": "marketIndex",
      "outputs": [
        {
          "internalType": "uint32",
          "name": "",
          "type": "uint32"
        }
      ],
      "stateMutability": "view",
      "type": "function"
    },
    {
      "inputs": [
        {
          "internalType": "address",
          "name": "to",
          "type": "address"
        },
        {
          "internalType": "uint256",
          "name": "amount",
          "type": "uint256"
        }
      ],
      "name": "mint",
      "outputs": [],
      "stateMutability": "nonpayable",
      "type": "function"
    },
    {
      "inputs": [],
      "name": "name",
      "outputs": [
        {
          "internalType": "string",
          "name": "",
          "type": "string"
        }
      ],
      "stateMutability": "view",
      "type": "function"
    },
    {
      "inputs": [
        {
          "internalType": "address",
          "name": "owner",
          "type": "address"
        }
      ],
      "name": "nonces",
      "outputs": [
        {
          "internalType": "uint256",
          "name": "",
          "type": "uint256"
        }
      ],
      "stateMutability": "view",
      "type": "function"
    },
    {
      "inputs": [
        {
          "internalType": "address",
          "name": "owner",
          "type": "address"
        },
        {
          "internalType": "address",
          "name": "spender",
          "type": "address"
        },
        {
          "internalType": "uint256",
          "name": "value",
          "type": "uint256"
        },
        {
          "internalType": "uint256",
          "name": "deadline",
          "type": "uint256"
        },
        {
          "internalType": "uint8",
          "name": "v",
          "type": "uint8"
        },
        {
          "internalType": "bytes32",
          "name": "r",
          "type": "bytes32"
        },
        {
          "internalType": "bytes32",
          "name": "s",
          "type": "bytes32"
        }
      ],
      "name": "permit",
      "outputs": [],
      "stateMutability": "nonpayable",
      "type": "function"
    },
    {
      "inputs": [
        {
          "internalType": "bytes32",
          "name": "role",
          "type": "bytes32"
        },
        {
          "internalType": "address",
          "name": "account",
          "type": "address"
        }
      ],
      "name": "renounceRole",
      "outputs": [],
      "stateMutability": "nonpayable",
      "type": "function"
    },
    {
      "inputs": [
        {
          "internalType": "bytes32",
          "name": "role",
          "type": "bytes32"
        },
        {
          "internalType": "address",
          "name": "account",
          "type": "address"
        }
      ],
      "name": "revokeRole",
      "outputs": [],
      "stateMutability": "nonpayable",
      "type": "function"
    },
    {
      "inputs": [
        {
          "internalType": "uint256",
          "name": "amount",
          "type": "uint256"
        }
      ],
      "name": "stake",
      "outputs": [],
      "stateMutability": "nonpayable",
      "type": "function"
    },
    {
      "inputs": [],
      "name": "staker",
      "outputs": [
        {
          "internalType": "address",
          "name": "",
          "type": "address"
        }
      ],
      "stateMutability": "view",
      "type": "function"
    },
    {
      "inputs": [
        {
          "internalType": "bytes4",
          "name": "interfaceId",
          "type": "bytes4"
        }
      ],
      "name": "supportsInterface",
      "outputs": [
        {
          "internalType": "bool",
          "name": "",
          "type": "bool"
        }
      ],
      "stateMutability": "view",
      "type": "function"
    },
    {
      "inputs": [],
      "name": "symbol",
      "outputs": [
        {
          "internalType": "string",
          "name": "",
          "type": "string"
        }
      ],
      "stateMutability": "view",
      "type": "function"
    },
    {
      "inputs": [],
      "name": "totalSupply",
      "outputs": [
        {
          "internalType": "uint256",
          "name": "",
          "type": "uint256"
        }
      ],
      "stateMutability": "view",
      "type": "function"
    },
    {
      "inputs": [
        {
          "internalType": "address",
          "name": "recipient",
          "type": "address"
        },
        {
          "internalType": "uint256",
          "name": "amount",
          "type": "uint256"
        }
      ],
      "name": "transfer",
      "outputs": [
        {
          "internalType": "bool",
          "name": "",
          "type": "bool"
        }
      ],
      "stateMutability": "nonpayable",
      "type": "function"
    },
    {
      "inputs": [
        {
          "internalType": "address",
          "name": "sender",
          "type": "address"
        },
        {
          "internalType": "address",
          "name": "recipient",
          "type": "address"
        },
        {
          "internalType": "uint256",
          "name": "amount",
          "type": "uint256"
        }
      ],
      "name": "transferFrom",
      "outputs": [
        {
          "internalType": "bool",
          "name": "",
          "type": "bool"
        }
      ],
      "stateMutability": "nonpayable",
      "type": "function"
    },
    {
      "inputs": [
        {
          "internalType": "address",
          "name": "newImplementation",
          "type": "address"
        }
      ],
      "name": "upgradeTo",
      "outputs": [],
      "stateMutability": "nonpayable",
      "type": "function"
    },
    {
      "inputs": [
        {
          "internalType": "address",
          "name": "newImplementation",
          "type": "address"
        },
        {
          "internalType": "bytes",
          "name": "data",
          "type": "bytes"
        }
      ],
      "name": "upgradeToAndCall",
      "outputs": [],
      "stateMutability": "payable",
      "type": "function"
    }
  ],
  "transactionHash": "0x68be7e773408f553d723858da4afa427243a0b87e7fc744f95098072c6f277cd",
  "args": [],
  "solcInputHash": "f992b3c18d8822e024711f3a6d00ccf4",
  "bytecode": "0x608060405234801561001057600080fd5b50612b5f806100206000396000f3fe6080604052600436106101f95760003560e01c80635ebaf1db1161010d578063a457c2d7116100a0578063d505accf1161006f578063d505accf146105ce578063d5391393146105ee578063d547741f14610610578063dd62ed3e14610630578063f72c0d8b14610676576101f9565b8063a457c2d71461054e578063a694fc3a1461056e578063a9059cbb1461058e578063aa432dad146105ae576101f9565b80638c7adc15116100dc5780638c7adc15146104ca57806391d148541461050457806395d89b4114610524578063a217fddf14610539576101f9565b80635ebaf1db1461044957806370a082311461046a57806379cc67901461048a5780637ecebe00146104aa576101f9565b80632f2ff15d116101905780633659cfe61161015f5780633659cfe6146103b657806339509351146103d657806340c10f19146103f657806342966c68146104165780634f1ef28614610436576101f9565b80632f2ff15d14610343578063313ce567146103655780633644e5151461038157806336568abe14610396576101f9565b8063202a61a1116101cc578063202a61a11461029857806323b872dd146102ba578063248a9ca3146102da578063299498721461030a576101f9565b806301ffc9a7146101fe57806306fdde0314610233578063095ea7b31461025557806318160ddd14610275575b600080fd5b34801561020a57600080fd5b5061021e6102193660046127ea565b6106aa565b60405190151581526020015b60405180910390f35b34801561023f57600080fd5b506102486106e3565b60405161022a919061296f565b34801561026157600080fd5b5061021e610270366004612787565b610775565b34801561028157600080fd5b5061028a61078b565b60405190815260200161022a565b3480156102a457600080fd5b506101c75461021e90600160c01b900460ff1681565b3480156102c657600080fd5b5061021e6102d536600461267c565b61079b565b3480156102e657600080fd5b5061028a6102f53660046127b0565b600090815260c9602052604090206001015490565b34801561031657600080fd5b506101c65461032b906001600160a01b031681565b6040516001600160a01b03909116815260200161022a565b34801561034f57600080fd5b5061036361035e3660046127c8565b6107f4565b005b34801561037157600080fd5b506040516012815260200161022a565b34801561038d57600080fd5b5061028a610820565b3480156103a257600080fd5b506103636103b13660046127c8565b61082a565b3480156103c257600080fd5b506103636103d1366004612630565b6108ad565b3480156103e257600080fd5b5061021e6103f1366004612787565b6108d4565b34801561040257600080fd5b50610363610411366004612787565b610910565b34801561042257600080fd5b506103636104313660046127b0565b610933565b610363610444366004612728565b610998565b34801561045557600080fd5b506101c75461032b906001600160a01b031681565b34801561047657600080fd5b5061028a610485366004612630565b6109ad565b34801561049657600080fd5b506103636104a5366004612787565b610a7a565b3480156104b657600080fd5b5061028a6104c5366004612630565b610afb565b3480156104d657600080fd5b506101c7546104ef90600160a01b900463ffffffff1681565b60405163ffffffff909116815260200161022a565b34801561051057600080fd5b5061021e61051f3660046127c8565b610b1a565b34801561053057600080fd5b50610248610b45565b34801561054557600080fd5b5061028a600081565b34801561055a57600080fd5b5061021e610569366004612787565b610b54565b34801561057a57600080fd5b506103636105893660046127b0565b610bed565b34801561059a57600080fd5b5061021e6105a9366004612787565b610c6e565b3480156105ba57600080fd5b506103636105c9366004612812565b610c7a565b3480156105da57600080fd5b506103636105e93660046126b7565b610de1565b3480156105fa57600080fd5b5061028a600080516020612b0a83398151915281565b34801561061c57600080fd5b5061036361062b3660046127c8565b610f28565b34801561063c57600080fd5b5061028a61064b36600461264a565b6001600160a01b03918216600090815260346020908152604080832093909416825291909152205490565b34801561068257600080fd5b5061028a7f189ab7a9244df0848122154315af71fe140f3db0fe014031783b0946b8c9d2e381565b60006001600160e01b03198216637965db0b60e01b14806106db57506301ffc9a760e01b6001600160e01b03198316145b90505b919050565b6060603680546106f290612a81565b80601f016020809104026020016040519081016040528092919081815260200182805461071e90612a81565b801561076b5780601f106107405761010080835404028352916020019161076b565b820191906000526020600020905b81548152906001019060200180831161074e57829003601f168201915b5050505050905090565b6000610782338484610f4e565b50600192915050565b600061079660355490565b905090565b6101c6546000906001600160a01b0384811691161480156107c757506101c6546001600160a01b031633145b156107df576107d7848484611072565b5060016107ed565b6107ea84848461124d565b90505b9392505050565b600082815260c9602052604090206001015461081181335b6112f7565b61081b838361135b565b505050565b60006107966113e1565b6001600160a01b038116331461089f5760405162461bcd60e51b815260206004820152602f60248201527f416363657373436f6e74726f6c3a2063616e206f6e6c792072656e6f756e636560448201526e103937b632b9903337b91039b2b63360891b60648201526084015b60405180910390fd5b6108a9828261145c565b5050565b6108b6816114c3565b6108d1816040518060200160405280600081525060006114ee565b50565b3360008181526034602090815260408083206001600160a01b0387168452909152812054909161078291859061090b9086906129f0565b610f4e565b600080516020612b0a833981519152610929813361080c565b61081b838361166f565b6101c6546001600160a01b0316331461098e5760405162461bcd60e51b815260206004820152601760248201527f4f6e6c79204c6f6e6753686f727420636f6e74726163740000000000000000006044820152606401610896565b6108d1338261175b565b6109a1826114c3565b6108a9828260016114ee565b6101c6546101c75460405163f68a327f60e01b81526001600160a01b038481166004830152600160a01b830463ffffffff166024830152600160c01b90920460ff1615156044820152600092919091169063f68a327f9060640160206040518083038186803b158015610a1f57600080fd5b505afa158015610a33573d6000803e3d6000fd5b505050506040513d601f19601f82011682018060405250810190610a5791906128c6565b6001600160a01b0383166000908152603360205260409020546106db91906129f0565b6000610a86833361064b565b905081811015610ae45760405162461bcd60e51b8152602060048201526024808201527f45524332303a206275726e20616d6f756e74206578636565647320616c6c6f77604482015263616e636560e01b6064820152608401610896565b610af18333848403610f4e565b61081b838361175b565b6001600160a01b038116600090815261012f60205260408120546106db565b600091825260c9602090815260408084206001600160a01b0393909316845291905290205460ff1690565b6060603780546106f290612a81565b3360009081526034602090815260408083206001600160a01b038616845290915281205482811015610bd65760405162461bcd60e51b815260206004820152602560248201527f45524332303a2064656372656173656420616c6c6f77616e63652062656c6f77604482015264207a65726f60d81b6064820152608401610896565b610be33385858403610f4e565b5060019392505050565b6101c754610c069033906001600160a01b031683611072565b6101c7546040516373479edf60e11b8152336004820152602481018390526001600160a01b039091169063e68f3dbe90604401600060405180830381600087803b158015610c5357600080fd5b505af1158015610c67573d6000803e3d6000fd5b5050505050565b60006107ed83836118b5565b600054610100900460ff1680610c93575060005460ff16155b610caf5760405162461bcd60e51b8152600401610896906129a2565b600054610100900460ff16158015610cd1576000805461ffff19166101011790555b610cdb87876118c2565b610ce3611941565b610ceb6119bc565b610cf487611a1b565b610cfc611941565b610d0760003361082a565b610d1f600080516020612b0a8339815191523361082a565b610d2a600086611abb565b610d42600080516020612b0a83398151915286611abb565b610d6c7f189ab7a9244df0848122154315af71fe140f3db0fe014031783b0946b8c9d2e333611abb565b6101c680546001600160a01b0319166001600160a01b03878116919091179091556101c780549186166001600160c01b031990921691909117600160a01b63ffffffff8616021760ff60c01b1916600160c01b841515021790558015610dd8576000805461ff00191690555b50505050505050565b83421115610e315760405162461bcd60e51b815260206004820152601d60248201527f45524332305065726d69743a206578706972656420646561646c696e650000006044820152606401610896565b600061013054888888610e438c611ac5565b6040805160208101969096526001600160a01b0394851690860152929091166060840152608083015260a082015260c0810186905260e0016040516020818303038152906040528051906020012090506000610e9e82611aee565b90506000610eae82878787611b3c565b9050896001600160a01b0316816001600160a01b031614610f115760405162461bcd60e51b815260206004820152601e60248201527f45524332305065726d69743a20696e76616c6964207369676e617475726500006044820152606401610896565b610f1c8a8a8a610f4e565b50505050505050505050565b600082815260c96020526040902060010154610f44813361080c565b61081b838361145c565b6001600160a01b038316610fb05760405162461bcd60e51b8152602060048201526024808201527f45524332303a20617070726f76652066726f6d20746865207a65726f206164646044820152637265737360e01b6064820152608401610896565b6001600160a01b0382166110115760405162461bcd60e51b815260206004820152602260248201527f45524332303a20617070726f766520746f20746865207a65726f206164647265604482015261737360f01b6064820152608401610896565b6001600160a01b0383811660008181526034602090815260408083209487168084529482529182902085905590518481527f8c5be1e5ebec7d5bd14f71427d1e84f3dd0314c0f7b2291e5b200ac8c7c3b925910160405180910390a3505050565b6001600160a01b0383166110d65760405162461bcd60e51b815260206004820152602560248201527f45524332303a207472616e736665722066726f6d20746865207a65726f206164604482015264647265737360d81b6064820152608401610896565b6001600160a01b0382166111385760405162461bcd60e51b815260206004820152602360248201527f45524332303a207472616e7366657220746f20746865207a65726f206164647260448201526265737360e81b6064820152608401610896565b611143838383611b64565b6001600160a01b038316600090815260336020526040902054818110156111bb5760405162461bcd60e51b815260206004820152602660248201527f45524332303a207472616e7366657220616d6f756e7420657863656564732062604482015265616c616e636560d01b6064820152608401610896565b6001600160a01b038085166000908152603360205260408082208585039055918516815290812080548492906111f29084906129f0565b92505081905550826001600160a01b0316846001600160a01b03167fddf252ad1be2c89b69c2b068fc378daa952ba7f163c4a11628f55a4df523b3ef8460405161123e91815260200190565b60405180910390a35b50505050565b600061125a848484611072565b6001600160a01b0384166000908152603460209081526040808320338452909152902054828110156112df5760405162461bcd60e51b815260206004820152602860248201527f45524332303a207472616e7366657220616d6f756e74206578636565647320616044820152676c6c6f77616e636560c01b6064820152608401610896565b6112ec8533858403610f4e565b506001949350505050565b6113018282610b1a565b6108a957611319816001600160a01b03166014611bf6565b611324836020611bf6565b6040516020016113359291906128fa565b60408051601f198184030181529082905262461bcd60e51b82526108969160040161296f565b6113658282610b1a565b6108a957600082815260c9602090815260408083206001600160a01b03851684529091529020805460ff1916600117905561139d3390565b6001600160a01b0316816001600160a01b0316837f2f8788117e7eff1d82e926ec794901d17c78024a50270940304540a733656f0d60405160405180910390a45050565b60006107967f8b73c3c69bb8fe3d512ecc4cf759cc79239f7b179b0ffacaa9a75d522b39400f61141060fb5490565b60fc546040805160208101859052908101839052606081018290524660808201523060a082015260009060c0016040516020818303038152906040528051906020012090509392505050565b6114668282610b1a565b156108a957600082815260c9602090815260408083206001600160a01b0385168085529252808320805460ff1916905551339285917ff6391f5c32d9c69d2a47ea670b442974b53935d1edc7fd64eb21e047a839171b9190a45050565b7f189ab7a9244df0848122154315af71fe140f3db0fe014031783b0946b8c9d2e36108a9813361080c565b60006115217f360894a13ba1a3210667c828492db98dca3e2076cc3735a920a3ca505d382bbc546001600160a01b031690565b905061152c84611dd8565b6000835111806115395750815b1561154a576115488484611e7d565b505b7f4910fdfa16fed3260ed0e7147f7cc6da11a60208b5b9406d12a635614ffd9143805460ff16610c6757805460ff191660011781556040516001600160a01b03831660248201526115c990869060440160408051601f198184030181529190526020810180516001600160e01b0316631b2ce7f360e11b179052611e7d565b50805460ff191681557f360894a13ba1a3210667c828492db98dca3e2076cc3735a920a3ca505d382bbc546001600160a01b038381169116146116665760405162461bcd60e51b815260206004820152602f60248201527f45524331393637557067726164653a207570677261646520627265616b73206660448201526e75727468657220757067726164657360881b6064820152608401610896565b610c6785611f68565b6001600160a01b0382166116c55760405162461bcd60e51b815260206004820152601f60248201527f45524332303a206d696e7420746f20746865207a65726f2061646472657373006044820152606401610896565b6116d160008383611b64565b80603560008282546116e391906129f0565b90915550506001600160a01b038216600090815260336020526040812080548392906117109084906129f0565b90915550506040518181526001600160a01b038316906000907fddf252ad1be2c89b69c2b068fc378daa952ba7f163c4a11628f55a4df523b3ef9060200160405180910390a36108a9565b6001600160a01b0382166117bb5760405162461bcd60e51b815260206004820152602160248201527f45524332303a206275726e2066726f6d20746865207a65726f206164647265736044820152607360f81b6064820152608401610896565b6117c782600083611b64565b6001600160a01b0382166000908152603360205260409020548181101561183b5760405162461bcd60e51b815260206004820152602260248201527f45524332303a206275726e20616d6f756e7420657863656564732062616c616e604482015261636560f01b6064820152608401610896565b6001600160a01b038316600090815260336020526040812083830390556035805484929061186a908490612a27565b90915550506040518281526000906001600160a01b038516907fddf252ad1be2c89b69c2b068fc378daa952ba7f163c4a11628f55a4df523b3ef9060200160405180910390a361081b565b6000610782338484611072565b600054610100900460ff16806118db575060005460ff16155b6118f75760405162461bcd60e51b8152600401610896906129a2565b600054610100900460ff16158015611919576000805461ffff19166101011790555b611921611fa8565b61192b8383612012565b801561081b576000805461ff0019169055505050565b600054610100900460ff168061195a575060005460ff16155b6119765760405162461bcd60e51b8152600401610896906129a2565b600054610100900460ff16158015611998576000805461ffff19166101011790555b6119a0611fa8565b6119a8611fa8565b80156108d1576000805461ff001916905550565b600054610100900460ff16806119d5575060005460ff16155b6119f15760405162461bcd60e51b8152600401610896906129a2565b600054610100900460ff16158015611a13576000805461ffff19166101011790555b611998611fa8565b600054610100900460ff1680611a34575060005460ff16155b611a505760405162461bcd60e51b8152600401610896906129a2565b600054610100900460ff16158015611a72576000805461ffff19166101011790555b611a7a611fa8565b611a9d82604051806040016040528060018152602001603160f81b8152506120a7565b611aa682612131565b80156108a9576000805461ff00191690555050565b6108a9828261135b565b6001600160a01b038116600090815261012f602052604090208054600181018255905b50919050565b60006106db611afb6113e1565b8360405161190160f01b6020820152602281018390526042810182905260009060620160405160208183030381529060405280519060200120905092915050565b6000806000611b4d878787876121c2565b91509150611b5a816122af565b5095945050505050565b6101c6546001600160a01b03848116911614611bf1576101c6546101c7546040516344bd03c360e11b81526001600160a01b038681166004830152600160a01b90920463ffffffff16602482015291169063897a078690604401600060405180830381600087803b158015611bd857600080fd5b505af1158015611bec573d6000803e3d6000fd5b505050505b61081b565b60606000611c05836002612a08565b611c109060026129f0565b67ffffffffffffffff811115611c3657634e487b7160e01b600052604160045260246000fd5b6040519080825280601f01601f191660200182016040528015611c60576020820181803683370190505b509050600360fc1b81600081518110611c8957634e487b7160e01b600052603260045260246000fd5b60200101906001600160f81b031916908160001a905350600f60fb1b81600181518110611cc657634e487b7160e01b600052603260045260246000fd5b60200101906001600160f81b031916908160001a9053506000611cea846002612a08565b611cf59060016129f0565b90505b6001811115611d89576f181899199a1a9b1b9c1cb0b131b232b360811b85600f1660108110611d3757634e487b7160e01b600052603260045260246000fd5b1a60f81b828281518110611d5b57634e487b7160e01b600052603260045260246000fd5b60200101906001600160f81b031916908160001a90535060049490941c93611d8281612a6a565b9050611cf8565b5083156107ed5760405162461bcd60e51b815260206004820181905260248201527f537472696e67733a20686578206c656e67746820696e73756666696369656e746044820152606401610896565b803b611e3c5760405162461bcd60e51b815260206004820152602d60248201527f455243313936373a206e657720696d706c656d656e746174696f6e206973206e60448201526c1bdd08184818dbdb9d1c9858dd609a1b6064820152608401610896565b7f360894a13ba1a3210667c828492db98dca3e2076cc3735a920a3ca505d382bbc80546001600160a01b0319166001600160a01b0392909216919091179055565b6060823b611edc5760405162461bcd60e51b815260206004820152602660248201527f416464726573733a2064656c65676174652063616c6c20746f206e6f6e2d636f6044820152651b9d1c9858dd60d21b6064820152608401610896565b600080846001600160a01b031684604051611ef791906128de565b600060405180830381855af49150503d8060008114611f32576040519150601f19603f3d011682016040523d82523d6000602084013e611f37565b606091505b5091509150611f5f8282604051806060016040528060278152602001612ae3602791396124b2565b95945050505050565b611f7181611dd8565b6040516001600160a01b038216907fbc7cd75a20ee27fd9adebab32041f755214dbc6bffa90cc0225b39da2e5c2d3b90600090a250565b600054610100900460ff1680611fc1575060005460ff16155b611fdd5760405162461bcd60e51b8152600401610896906129a2565b600054610100900460ff161580156119a8576000805461ffff191661010117905580156108d1576000805461ff001916905550565b600054610100900460ff168061202b575060005460ff16155b6120475760405162461bcd60e51b8152600401610896906129a2565b600054610100900460ff16158015612069576000805461ffff19166101011790555b825161207c9060369060208601906124eb565b5081516120909060379060208501906124eb565b50801561081b576000805461ff0019169055505050565b600054610100900460ff16806120c0575060005460ff16155b6120dc5760405162461bcd60e51b8152600401610896906129a2565b600054610100900460ff161580156120fe576000805461ffff19166101011790555b825160208085019190912083519184019190912060fb9190915560fc55801561081b576000805461ff0019169055505050565b600054610100900460ff168061214a575060005460ff16155b6121665760405162461bcd60e51b8152600401610896906129a2565b600054610100900460ff16158015612188576000805461ffff19166101011790555b7f6e71edae12b1b97f4d1f60370fef10105fa2faae0126114a169c64845d6126c96101305580156108a9576000805461ff00191690555050565b6000807f7fffffffffffffffffffffffffffffff5d576e7357a4501ddfe92f46681b20a08311156121f957506000905060036122a6565b8460ff16601b1415801561221157508460ff16601c14155b1561222257506000905060046122a6565b6040805160008082526020820180845289905260ff881692820192909252606081018690526080810185905260019060a0016020604051602081039080840390855afa158015612276573d6000803e3d6000fd5b5050604051601f1901519150506001600160a01b03811661229f576000600192509250506122a6565b9150600090505b94509492505050565b60008160048111156122d157634e487b7160e01b600052602160045260246000fd5b14156122dc576108d1565b60018160048111156122fe57634e487b7160e01b600052602160045260246000fd5b141561234c5760405162461bcd60e51b815260206004820152601860248201527f45434453413a20696e76616c6964207369676e617475726500000000000000006044820152606401610896565b600281600481111561236e57634e487b7160e01b600052602160045260246000fd5b14156123bc5760405162461bcd60e51b815260206004820152601f60248201527f45434453413a20696e76616c6964207369676e6174757265206c656e677468006044820152606401610896565b60038160048111156123de57634e487b7160e01b600052602160045260246000fd5b14156124375760405162461bcd60e51b815260206004820152602260248201527f45434453413a20696e76616c6964207369676e6174757265202773272076616c604482015261756560f01b6064820152608401610896565b600481600481111561245957634e487b7160e01b600052602160045260246000fd5b14156108d15760405162461bcd60e51b815260206004820152602260248201527f45434453413a20696e76616c6964207369676e6174757265202776272076616c604482015261756560f01b6064820152608401610896565b606083156124c15750816107ed565b8251156124d15782518084602001fd5b8160405162461bcd60e51b8152600401610896919061296f565b8280546124f790612a81565b90600052602060002090601f016020900481019282612519576000855561255f565b82601f1061253257805160ff191683800117855561255f565b8280016001018555821561255f579182015b8281111561255f578251825591602001919060010190612544565b5061256b92915061256f565b5090565b5b8082111561256b5760008155600101612570565b600067ffffffffffffffff8084111561259f5761259f612acc565b604051601f8501601f19908116603f011681019082821181831017156125c7576125c7612acc565b816040528093508581528686860111156125e057600080fd5b858560208301376000602087830101525050509392505050565b80356001600160a01b03811681146106de57600080fd5b600082601f830112612621578081fd5b6107ed83833560208501612584565b600060208284031215612641578081fd5b6107ed826125fa565b6000806040838503121561265c578081fd5b612665836125fa565b9150612673602084016125fa565b90509250929050565b600080600060608486031215612690578081fd5b612699846125fa565b92506126a7602085016125fa565b9150604084013590509250925092565b600080600080600080600060e0888a0312156126d1578283fd5b6126da886125fa565b96506126e8602089016125fa565b95506040880135945060608801359350608088013560ff8116811461270b578384fd5b9699959850939692959460a0840135945060c09093013592915050565b6000806040838503121561273a578182fd5b612743836125fa565b9150602083013567ffffffffffffffff81111561275e578182fd5b8301601f8101851361276e578182fd5b61277d85823560208401612584565b9150509250929050565b60008060408385031215612799578182fd5b6127a2836125fa565b946020939093013593505050565b6000602082840312156127c1578081fd5b5035919050565b600080604083850312156127da578182fd5b82359150612673602084016125fa565b6000602082840312156127fb578081fd5b81356001600160e01b0319811681146107ed578182fd5b60008060008060008060c0878903121561282a578182fd5b863567ffffffffffffffff80821115612841578384fd5b61284d8a838b01612611565b97506020890135915080821115612862578384fd5b5061286f89828a01612611565b95505061287e604088016125fa565b935061288c606088016125fa565b9250608087013563ffffffff811681146128a4578283fd5b915060a087013580151581146128b8578182fd5b809150509295509295509295565b6000602082840312156128d7578081fd5b5051919050565b600082516128f0818460208701612a3e565b9190910192915050565b60007f416363657373436f6e74726f6c3a206163636f756e742000000000000000000082528351612932816017850160208801612a3e565b7001034b99036b4b9b9b4b733903937b6329607d1b6017918401918201528351612963816028840160208801612a3e565b01602801949350505050565b600060208252825180602084015261298e816040850160208701612a3e565b601f01601f19169190910160400192915050565b6020808252602e908201527f496e697469616c697a61626c653a20636f6e747261637420697320616c72656160408201526d191e481a5b9a5d1a585b1a5e995960921b606082015260800190565b60008219821115612a0357612a03612ab6565b500190565b6000816000190483118215151615612a2257612a22612ab6565b500290565b600082821015612a3957612a39612ab6565b500390565b60005b83811015612a59578181015183820152602001612a41565b838111156112475750506000910152565b600081612a7957612a79612ab6565b506000190190565b600181811c90821680612a9557607f821691505b60208210811415611ae857634e487b7160e01b600052602260045260246000fd5b634e487b7160e01b600052601160045260246000fd5b634e487b7160e01b600052604160045260246000fdfe416464726573733a206c6f772d6c6576656c2064656c65676174652063616c6c206661696c65649f2df0fed2c77648de5860a4cc508cd0818c85b8b8a1ab4ceeef8d981c8956a6a264697066735822122078f05f461fc68df4fceda4f1f6156eefed213a05c19ca9f3a9c52d279e54416864736f6c63430008030033",
  "devdoc": {
    "details": "Logic for price tracking contained in LongShort.sol.  The contract inherits from ERC20PresetMinterPauser.sol",
    "kind": "dev",
    "methods": {
      "DOMAIN_SEPARATOR()": {
        "details": "See {IERC20Permit-DOMAIN_SEPARATOR}."
      },
      "allowance(address,address)": {
        "details": "See {IERC20-allowance}."
      },
      "approve(address,uint256)": {
        "details": "See {IERC20-approve}. Requirements: - `spender` cannot be the zero address."
      },
      "balanceOf(address)": {
        "details": "To automatically account for next price actions which have been confirmed but not settled, includes any outstanding tokens owed by longShort.",
        "params": {
          "account": "The address for which to get the balance of."
        }
      },
      "burn(uint256)": {
        "details": "Modified to only allow Long Short to burn tokens on redeem.",
        "params": {
          "amount": "The amount of tokens to burn in wei."
        }
      },
      "burnFrom(address,uint256)": {
        "details": "Destroys `amount` tokens from `account`, deducting from the caller's allowance. See {ERC20-_burn} and {ERC20-allowance}. Requirements: - the caller must have allowance for ``accounts``'s tokens of at least `amount`."
      },
      "decimals()": {
        "details": "Returns the number of decimals used to get its user representation. For example, if `decimals` equals `2`, a balance of `505` tokens should be displayed to a user as `5.05` (`505 / 10 ** 2`). Tokens usually opt for a value of 18, imitating the relationship between Ether and Wei. This is the value {ERC20} uses, unless this function is overridden; NOTE: This information is only used for _display_ purposes: it in no way affects any of the arithmetic of the contract, including {IERC20-balanceOf} and {IERC20-transfer}."
      },
      "decreaseAllowance(address,uint256)": {
        "details": "Atomically decreases the allowance granted to `spender` by the caller. This is an alternative to {approve} that can be used as a mitigation for problems described in {IERC20-approve}. Emits an {Approval} event indicating the updated allowance. Requirements: - `spender` cannot be the zero address. - `spender` must have allowance for the caller of at least `subtractedValue`."
      },
      "getRoleAdmin(bytes32)": {
        "details": "Returns the admin role that controls `role`. See {grantRole} and {revokeRole}. To change a role's admin, use {_setRoleAdmin}."
      },
      "grantRole(bytes32,address)": {
        "details": "Grants `role` to `account`. If `account` had not been already granted `role`, emits a {RoleGranted} event. Requirements: - the caller must have ``role``'s admin role."
      },
      "hasRole(bytes32,address)": {
        "details": "Returns `true` if `account` has been granted `role`."
      },
      "increaseAllowance(address,uint256)": {
        "details": "Atomically increases the allowance granted to `spender` by the caller. This is an alternative to {approve} that can be used as a mitigation for problems described in {IERC20-approve}. Emits an {Approval} event indicating the updated allowance. Requirements: - `spender` cannot be the zero address."
      },
      "initialize(string,string,address,address,uint32,bool)": {
        "details": "Should only be called by TokenFactory.sol for our system.",
        "params": {
          "_isLong": "Whether the token is long or short for its market.",
          "_longShort": "Address of the core LongShort contract.",
          "_marketIndex": "Which market the token is for.",
          "_staker": "Address of the staker contract.",
          "name": "The name of the token.",
          "symbol": "The symbol for the token."
        }
      },
      "mint(address,uint256)": {
        "details": "Can only be called by addresses with a minter role.  This should correspond to the Long Short contract.",
        "params": {
          "amount": "Amount of synthetic tokens to mint in wei.",
          "to": "The address for which to mint the tokens for."
        }
      },
      "name()": {
        "details": "Returns the name of the token."
      },
      "nonces(address)": {
        "details": "See {IERC20Permit-nonces}."
      },
      "permit(address,address,uint256,uint256,uint8,bytes32,bytes32)": {
        "details": "See {IERC20Permit-permit}."
      },
      "renounceRole(bytes32,address)": {
        "details": "Revokes `role` from the calling account. Roles are often managed via {grantRole} and {revokeRole}: this function's purpose is to provide a mechanism for accounts to lose their privileges if they are compromised (such as when a trusted device is misplaced). If the calling account had been granted `role`, emits a {RoleRevoked} event. Requirements: - the caller must be `account`."
      },
      "revokeRole(bytes32,address)": {
        "details": "Revokes `role` from `account`. If `account` had been granted `role`, emits a {RoleRevoked} event. Requirements: - the caller must have ``role``'s admin role."
      },
      "stake(uint256)": {
        "details": "Core staking logic contained in Staker.sol",
        "params": {
          "amount": "Amount to stake in wei."
        }
      },
      "supportsInterface(bytes4)": {
        "details": "See {IERC165-supportsInterface}."
      },
      "symbol()": {
        "details": "Returns the symbol of the token, usually a shorter version of the name."
      },
      "transferFrom(address,address,uint256)": {
        "details": "To allow users to avoid approving LongShort when redeeming tokens, longShort has a virtual infinite allowance.",
        "params": {
          "amount": "Amount of tokens to transfer in wei.",
          "recipient": "Recipient of the transferred tokens.",
          "sender": "User for which to transfer tokens."
        }
      },
      "upgradeTo(address)": {
        "details": "Upgrade the implementation of the proxy to `newImplementation`. Calls {_authorizeUpgrade}. Emits an {Upgraded} event."
      },
      "upgradeToAndCall(address,bytes)": {
        "details": "Upgrade the implementation of the proxy to `newImplementation`, and subsequently execute the function call encoded in `data`. Calls {_authorizeUpgrade}. Emits an {Upgraded} event."
      }
    },
    "title": "SyntheticTokenUpgradeable",
    "version": 1
  },
  "userdoc": {
    "kind": "user",
    "methods": {
      "balanceOf(address)": {
        "notice": "Gets the synthetic token balance of the user in wei."
      },
      "burn(uint256)": {
        "notice": "Burns or destroys a number of held synthetic tokens for an address."
      },
      "initialize(string,string,address,address,uint32,bool)": {
        "notice": "Creates an instance of the contract."
      },
      "isLong()": {
        "notice": "Whether the token is a long token or short token for its market."
      },
      "longShort()": {
        "notice": "Address of the LongShort contract, a deployed LongShort.sol"
      },
      "marketIndex()": {
        "notice": "Identifies which market in longShort the token is for."
      },
      "mint(address,uint256)": {
        "notice": "Mints a number of synthetic tokens for an address."
      },
      "stake(uint256)": {
        "notice": "Allows users to stake their synthetic tokens to earn Float."
      },
      "staker()": {
        "notice": "Address of the Staker contract, a deployed Staker.sol"
      },
      "transferFrom(address,address,uint256)": {
        "notice": "Overrides the default ERC20 transferFrom."
      }
    },
    "notice": "An ERC20 token that tracks or inversely tracks the price of an underlying asset with floating exposure.",
    "version": 1
  },
  "storageLayout": {
    "storage": [
      {
        "astId": 1102,
        "contract": "contracts/SyntheticTokenUpgradeable.sol:SyntheticTokenUpgradeable",
        "label": "_initialized",
        "offset": 0,
        "slot": "0",
        "type": "t_bool"
      },
      {
        "astId": 1105,
        "contract": "contracts/SyntheticTokenUpgradeable.sol:SyntheticTokenUpgradeable",
        "label": "_initializing",
        "offset": 1,
        "slot": "0",
        "type": "t_bool"
      },
      {
        "astId": 3537,
        "contract": "contracts/SyntheticTokenUpgradeable.sol:SyntheticTokenUpgradeable",
        "label": "__gap",
        "offset": 0,
        "slot": "1",
        "type": "t_array(t_uint256)50_storage"
      },
      {
        "astId": 1351,
        "contract": "contracts/SyntheticTokenUpgradeable.sol:SyntheticTokenUpgradeable",
        "label": "_balances",
        "offset": 0,
        "slot": "51",
        "type": "t_mapping(t_address,t_uint256)"
      },
      {
        "astId": 1357,
        "contract": "contracts/SyntheticTokenUpgradeable.sol:SyntheticTokenUpgradeable",
        "label": "_allowances",
        "offset": 0,
        "slot": "52",
        "type": "t_mapping(t_address,t_mapping(t_address,t_uint256))"
      },
      {
        "astId": 1359,
        "contract": "contracts/SyntheticTokenUpgradeable.sol:SyntheticTokenUpgradeable",
        "label": "_totalSupply",
        "offset": 0,
        "slot": "53",
        "type": "t_uint256"
      },
      {
        "astId": 1361,
        "contract": "contracts/SyntheticTokenUpgradeable.sol:SyntheticTokenUpgradeable",
        "label": "_name",
        "offset": 0,
        "slot": "54",
        "type": "t_string_storage"
      },
      {
        "astId": 1363,
        "contract": "contracts/SyntheticTokenUpgradeable.sol:SyntheticTokenUpgradeable",
        "label": "_symbol",
        "offset": 0,
        "slot": "55",
        "type": "t_string_storage"
      },
      {
        "astId": 1904,
        "contract": "contracts/SyntheticTokenUpgradeable.sol:SyntheticTokenUpgradeable",
        "label": "__gap",
        "offset": 0,
        "slot": "56",
        "type": "t_array(t_uint256)45_storage"
      },
      {
        "astId": 2069,
        "contract": "contracts/SyntheticTokenUpgradeable.sol:SyntheticTokenUpgradeable",
        "label": "__gap",
        "offset": 0,
        "slot": "101",
        "type": "t_array(t_uint256)50_storage"
      },
      {
        "astId": 4436,
        "contract": "contracts/SyntheticTokenUpgradeable.sol:SyntheticTokenUpgradeable",
        "label": "__gap",
        "offset": 0,
        "slot": "151",
        "type": "t_array(t_uint256)50_storage"
      },
      {
        "astId": 304,
        "contract": "contracts/SyntheticTokenUpgradeable.sol:SyntheticTokenUpgradeable",
        "label": "_roles",
        "offset": 0,
        "slot": "201",
        "type": "t_mapping(t_bytes32,t_struct(RoleData)299_storage)"
      },
      {
        "astId": 589,
        "contract": "contracts/SyntheticTokenUpgradeable.sol:SyntheticTokenUpgradeable",
        "label": "__gap",
        "offset": 0,
        "slot": "202",
        "type": "t_array(t_uint256)49_storage"
      },
      {
        "astId": 4251,
        "contract": "contracts/SyntheticTokenUpgradeable.sol:SyntheticTokenUpgradeable",
        "label": "_HASHED_NAME",
        "offset": 0,
        "slot": "251",
        "type": "t_bytes32"
      },
      {
        "astId": 4253,
        "contract": "contracts/SyntheticTokenUpgradeable.sol:SyntheticTokenUpgradeable",
        "label": "_HASHED_VERSION",
        "offset": 0,
        "slot": "252",
        "type": "t_bytes32"
      },
      {
        "astId": 4390,
        "contract": "contracts/SyntheticTokenUpgradeable.sol:SyntheticTokenUpgradeable",
        "label": "__gap",
        "offset": 0,
        "slot": "253",
        "type": "t_array(t_uint256)50_storage"
      },
      {
        "astId": 2845,
        "contract": "contracts/SyntheticTokenUpgradeable.sol:SyntheticTokenUpgradeable",
        "label": "_nonces",
        "offset": 0,
        "slot": "303",
        "type": "t_mapping(t_address,t_struct(Counter)3544_storage)"
      },
      {
        "astId": 2847,
        "contract": "contracts/SyntheticTokenUpgradeable.sol:SyntheticTokenUpgradeable",
        "label": "_PERMIT_TYPEHASH",
        "offset": 0,
        "slot": "304",
        "type": "t_bytes32"
      },
      {
        "astId": 3015,
        "contract": "contracts/SyntheticTokenUpgradeable.sol:SyntheticTokenUpgradeable",
        "label": "__gap",
        "offset": 0,
        "slot": "305",
        "type": "t_array(t_uint256)49_storage"
      },
      {
        "astId": 1085,
        "contract": "contracts/SyntheticTokenUpgradeable.sol:SyntheticTokenUpgradeable",
        "label": "__gap",
        "offset": 0,
        "slot": "354",
        "type": "t_array(t_uint256)50_storage"
      },
      {
        "astId": 1218,
        "contract": "contracts/SyntheticTokenUpgradeable.sol:SyntheticTokenUpgradeable",
        "label": "__gap",
        "offset": 0,
        "slot": "404",
        "type": "t_array(t_uint256)50_storage"
      },
      {
        "astId": 16544,
        "contract": "contracts/SyntheticTokenUpgradeable.sol:SyntheticTokenUpgradeable",
        "label": "longShort",
        "offset": 0,
        "slot": "454",
        "type": "t_address"
      },
      {
        "astId": 16547,
        "contract": "contracts/SyntheticTokenUpgradeable.sol:SyntheticTokenUpgradeable",
        "label": "staker",
        "offset": 0,
        "slot": "455",
        "type": "t_address"
      },
      {
        "astId": 16550,
        "contract": "contracts/SyntheticTokenUpgradeable.sol:SyntheticTokenUpgradeable",
        "label": "marketIndex",
        "offset": 20,
        "slot": "455",
        "type": "t_uint32"
      },
      {
        "astId": 16553,
        "contract": "contracts/SyntheticTokenUpgradeable.sol:SyntheticTokenUpgradeable",
        "label": "isLong",
        "offset": 24,
        "slot": "455",
        "type": "t_bool"
      }
    ],
    "types": {
      "t_address": {
        "encoding": "inplace",
        "label": "address",
        "numberOfBytes": "20"
      },
      "t_array(t_uint256)45_storage": {
        "base": "t_uint256",
        "encoding": "inplace",
        "label": "uint256[45]",
        "numberOfBytes": "1440"
      },
      "t_array(t_uint256)49_storage": {
        "base": "t_uint256",
        "encoding": "inplace",
        "label": "uint256[49]",
        "numberOfBytes": "1568"
      },
      "t_array(t_uint256)50_storage": {
        "base": "t_uint256",
        "encoding": "inplace",
        "label": "uint256[50]",
        "numberOfBytes": "1600"
      },
      "t_bool": {
        "encoding": "inplace",
        "label": "bool",
        "numberOfBytes": "1"
      },
      "t_bytes32": {
        "encoding": "inplace",
        "label": "bytes32",
        "numberOfBytes": "32"
      },
      "t_mapping(t_address,t_bool)": {
        "encoding": "mapping",
        "key": "t_address",
        "label": "mapping(address => bool)",
        "numberOfBytes": "32",
        "value": "t_bool"
      },
      "t_mapping(t_address,t_mapping(t_address,t_uint256))": {
        "encoding": "mapping",
        "key": "t_address",
        "label": "mapping(address => mapping(address => uint256))",
        "numberOfBytes": "32",
        "value": "t_mapping(t_address,t_uint256)"
      },
      "t_mapping(t_address,t_struct(Counter)3544_storage)": {
        "encoding": "mapping",
        "key": "t_address",
        "label": "mapping(address => struct CountersUpgradeable.Counter)",
        "numberOfBytes": "32",
        "value": "t_struct(Counter)3544_storage"
      },
      "t_mapping(t_address,t_uint256)": {
        "encoding": "mapping",
        "key": "t_address",
        "label": "mapping(address => uint256)",
        "numberOfBytes": "32",
        "value": "t_uint256"
      },
      "t_mapping(t_bytes32,t_struct(RoleData)299_storage)": {
        "encoding": "mapping",
        "key": "t_bytes32",
        "label": "mapping(bytes32 => struct AccessControlUpgradeable.RoleData)",
        "numberOfBytes": "32",
        "value": "t_struct(RoleData)299_storage"
      },
      "t_string_storage": {
        "encoding": "bytes",
        "label": "string",
        "numberOfBytes": "32"
      },
      "t_struct(Counter)3544_storage": {
        "encoding": "inplace",
        "label": "struct CountersUpgradeable.Counter",
        "members": [
          {
            "astId": 3543,
            "contract": "contracts/SyntheticTokenUpgradeable.sol:SyntheticTokenUpgradeable",
            "label": "_value",
            "offset": 0,
            "slot": "0",
            "type": "t_uint256"
          }
        ],
        "numberOfBytes": "32"
      },
      "t_struct(RoleData)299_storage": {
        "encoding": "inplace",
        "label": "struct AccessControlUpgradeable.RoleData",
        "members": [
          {
            "astId": 296,
            "contract": "contracts/SyntheticTokenUpgradeable.sol:SyntheticTokenUpgradeable",
            "label": "members",
            "offset": 0,
            "slot": "0",
            "type": "t_mapping(t_address,t_bool)"
          },
          {
            "astId": 298,
            "contract": "contracts/SyntheticTokenUpgradeable.sol:SyntheticTokenUpgradeable",
            "label": "adminRole",
            "offset": 0,
            "slot": "1",
            "type": "t_bytes32"
          }
        ],
        "numberOfBytes": "64"
      },
      "t_uint256": {
        "encoding": "inplace",
        "label": "uint256",
        "numberOfBytes": "32"
      },
      "t_uint32": {
        "encoding": "inplace",
        "label": "uint32",
        "numberOfBytes": "4"
      }
    }
  }
}