{
  "address": "0x2C3Ce1D1DEbb4771e3A8e824A7830fbFd6Ca1b34",
  "abi": [
    {
      "anonymous": false,
      "inputs": [
        {
          "indexed": false,
          "internalType": "uint32",
          "name": "marketIndex",
          "type": "uint32"
        },
        {
          "indexed": false,
          "internalType": "uint256",
          "name": "accumulativeFloatIssuanceSnapshotIndex",
          "type": "uint256"
        },
        {
          "indexed": false,
          "internalType": "uint256",
          "name": "accumulativeLong",
          "type": "uint256"
        },
        {
          "indexed": false,
          "internalType": "uint256",
          "name": "accumulativeShort",
          "type": "uint256"
        }
      ],
      "name": "AccumulativeIssuancePerStakedSynthSnapshotCreated",
      "type": "event"
    },
    {
      "anonymous": false,
      "inputs": [
        {
          "indexed": false,
          "internalType": "address",
          "name": "previousAdmin",
          "type": "address"
        },
        {
          "indexed": false,
          "internalType": "address",
          "name": "newAdmin",
          "type": "address"
        }
      ],
      "name": "AdminChanged",
      "type": "event"
    },
    {
      "anonymous": false,
      "inputs": [
        {
          "indexed": false,
          "internalType": "uint32",
          "name": "marketIndex",
          "type": "uint32"
        },
        {
          "indexed": false,
          "internalType": "uint256",
          "name": "balanceIncentiveExponent",
          "type": "uint256"
        },
        {
          "indexed": false,
          "internalType": "int256",
          "name": "balanceIncentiveCurve_equilibriumOffset",
          "type": "int256"
        },
        {
          "indexed": false,
          "internalType": "uint256",
          "name": "safeExponentBitShifting",
          "type": "uint256"
        }
      ],
      "name": "BalanceIncentiveParamsUpdated",
      "type": "event"
    },
    {
      "anonymous": false,
      "inputs": [
        {
          "indexed": true,
          "internalType": "address",
          "name": "beacon",
          "type": "address"
        }
      ],
      "name": "BeaconUpgraded",
      "type": "event"
    },
    {
      "anonymous": false,
      "inputs": [
        {
          "indexed": false,
          "internalType": "address",
          "name": "user",
          "type": "address"
        },
        {
          "indexed": false,
          "internalType": "uint32",
          "name": "marketIndex",
          "type": "uint32"
        },
        {
          "indexed": false,
          "internalType": "uint256",
          "name": "amountFloatMinted",
          "type": "uint256"
        }
      ],
      "name": "FloatMinted",
      "type": "event"
    },
    {
      "anonymous": false,
      "inputs": [
        {
          "indexed": false,
          "internalType": "uint256",
          "name": "floatPercentage",
          "type": "uint256"
        }
      ],
      "name": "FloatPercentageUpdated",
      "type": "event"
    },
    {
      "anonymous": false,
      "inputs": [
        {
          "indexed": false,
          "internalType": "uint32",
          "name": "marketIndex",
          "type": "uint32"
        },
        {
          "indexed": false,
          "internalType": "uint256",
          "name": "exitFee_e18",
          "type": "uint256"
        },
        {
          "indexed": false,
          "internalType": "uint256",
          "name": "period",
          "type": "uint256"
        },
        {
          "indexed": false,
          "internalType": "uint256",
          "name": "multiplier",
          "type": "uint256"
        },
        {
          "indexed": false,
          "internalType": "uint256",
          "name": "balanceIncentiveExponent",
          "type": "uint256"
        },
        {
          "indexed": false,
          "internalType": "int256",
          "name": "balanceIncentiveEquilibriumOffset",
          "type": "int256"
        },
        {
          "indexed": false,
          "internalType": "uint256",
          "name": "safeExponentBitShifting",
          "type": "uint256"
        }
      ],
      "name": "MarketAddedToStaker",
      "type": "event"
    },
    {
      "anonymous": false,
      "inputs": [
        {
          "indexed": false,
          "internalType": "uint32",
          "name": "marketIndex",
          "type": "uint32"
        },
        {
          "indexed": false,
          "internalType": "uint256",
          "name": "period",
          "type": "uint256"
        },
        {
          "indexed": false,
          "internalType": "uint256",
          "name": "multiplier",
          "type": "uint256"
        }
      ],
      "name": "MarketLaunchIncentiveParametersChanges",
      "type": "event"
    },
    {
      "anonymous": false,
      "inputs": [
        {
          "indexed": false,
          "internalType": "address",
          "name": "user",
          "type": "address"
        },
        {
          "indexed": false,
          "internalType": "uint32",
          "name": "marketIndex",
          "type": "uint32"
        },
        {
          "indexed": false,
          "internalType": "uint256",
          "name": "amount",
          "type": "uint256"
        },
        {
          "indexed": false,
          "internalType": "bool",
          "name": "isShiftFromLong",
          "type": "bool"
        },
        {
          "indexed": false,
          "internalType": "uint256",
          "name": "userShiftIndex",
          "type": "uint256"
        }
      ],
      "name": "NextPriceStakeShift",
      "type": "event"
    },
    {
      "anonymous": false,
      "inputs": [
        {
          "indexed": true,
          "internalType": "bytes32",
          "name": "role",
          "type": "bytes32"
        },
        {
          "indexed": true,
          "internalType": "bytes32",
          "name": "previousAdminRole",
          "type": "bytes32"
        },
        {
          "indexed": true,
          "internalType": "bytes32",
          "name": "newAdminRole",
          "type": "bytes32"
        }
      ],
      "name": "RoleAdminChanged",
      "type": "event"
    },
    {
      "anonymous": false,
      "inputs": [
        {
          "indexed": true,
          "internalType": "bytes32",
          "name": "role",
          "type": "bytes32"
        },
        {
          "indexed": true,
          "internalType": "address",
          "name": "account",
          "type": "address"
        },
        {
          "indexed": true,
          "internalType": "address",
          "name": "sender",
          "type": "address"
        }
      ],
      "name": "RoleGranted",
      "type": "event"
    },
    {
      "anonymous": false,
      "inputs": [
        {
          "indexed": true,
          "internalType": "bytes32",
          "name": "role",
          "type": "bytes32"
        },
        {
          "indexed": true,
          "internalType": "address",
          "name": "account",
          "type": "address"
        },
        {
          "indexed": true,
          "internalType": "address",
          "name": "sender",
          "type": "address"
        }
      ],
      "name": "RoleRevoked",
      "type": "event"
    },
    {
      "anonymous": false,
      "inputs": [
        {
          "indexed": false,
          "internalType": "address",
          "name": "user",
          "type": "address"
        },
        {
          "indexed": false,
          "internalType": "address",
          "name": "token",
          "type": "address"
        },
        {
          "indexed": false,
          "internalType": "uint256",
          "name": "amount",
          "type": "uint256"
        },
        {
          "indexed": false,
          "internalType": "uint256",
          "name": "lastMintIndex",
          "type": "uint256"
        }
      ],
      "name": "StakeAdded",
      "type": "event"
    },
    {
      "anonymous": false,
      "inputs": [
        {
          "indexed": false,
          "internalType": "address",
          "name": "user",
          "type": "address"
        },
        {
          "indexed": false,
          "internalType": "uint32",
          "name": "marketIndex",
          "type": "uint32"
        },
        {
          "indexed": false,
          "internalType": "uint256",
          "name": "newAmountStakedLong",
          "type": "uint256"
        },
        {
          "indexed": false,
          "internalType": "uint256",
          "name": "newAmountStakedShort",
          "type": "uint256"
        }
      ],
      "name": "StakeShifted",
      "type": "event"
    },
    {
      "anonymous": false,
      "inputs": [
        {
          "indexed": false,
          "internalType": "uint32",
          "name": "marketIndex",
          "type": "uint32"
        },
        {
          "indexed": false,
          "internalType": "uint256",
          "name": "stakeWithdralFee",
          "type": "uint256"
        }
      ],
      "name": "StakeWithdrawalFeeUpdated",
      "type": "event"
    },
    {
      "anonymous": false,
      "inputs": [
        {
          "indexed": false,
          "internalType": "address",
          "name": "user",
          "type": "address"
        },
        {
          "indexed": false,
          "internalType": "address",
          "name": "token",
          "type": "address"
        },
        {
          "indexed": false,
          "internalType": "uint256",
          "name": "amount",
          "type": "uint256"
        }
      ],
      "name": "StakeWithdrawn",
      "type": "event"
    },
    {
      "anonymous": false,
      "inputs": [
        {
          "indexed": false,
          "internalType": "address",
          "name": "admin",
          "type": "address"
        },
        {
          "indexed": false,
          "internalType": "address",
          "name": "floatTreasury",
          "type": "address"
        },
        {
          "indexed": false,
          "internalType": "address",
          "name": "floatCapital",
          "type": "address"
        },
        {
          "indexed": false,
          "internalType": "address",
          "name": "floatToken",
          "type": "address"
        },
        {
          "indexed": false,
          "internalType": "uint256",
          "name": "floatPercentage",
          "type": "uint256"
        }
      ],
      "name": "StakerV1",
      "type": "event"
    },
    {
      "anonymous": false,
      "inputs": [
        {
          "indexed": true,
          "internalType": "address",
          "name": "implementation",
          "type": "address"
        }
      ],
      "name": "Upgraded",
      "type": "event"
    },
    {
      "inputs": [],
      "name": "ADMIN_ROLE",
      "outputs": [
        {
          "internalType": "bytes32",
          "name": "",
          "type": "bytes32"
        }
      ],
      "stateMutability": "view",
      "type": "function"
    },
    {
      "inputs": [],
      "name": "DEFAULT_ADMIN_ROLE",
      "outputs": [
        {
          "internalType": "bytes32",
          "name": "",
          "type": "bytes32"
        }
      ],
      "stateMutability": "view",
      "type": "function"
    },
    {
      "inputs": [],
      "name": "DISCOUNT_ROLE",
      "outputs": [
        {
          "internalType": "bytes32",
          "name": "",
          "type": "bytes32"
        }
      ],
      "stateMutability": "view",
      "type": "function"
    },
    {
      "inputs": [],
      "name": "FLOAT_ISSUANCE_FIXED_DECIMAL",
      "outputs": [
        {
          "internalType": "uint256",
          "name": "",
          "type": "uint256"
        }
      ],
      "stateMutability": "view",
      "type": "function"
    },
    {
      "inputs": [],
      "name": "UPGRADER_ROLE",
      "outputs": [
        {
          "internalType": "bytes32",
          "name": "",
          "type": "bytes32"
        }
      ],
      "stateMutability": "view",
      "type": "function"
    },
    {
      "inputs": [
        {
          "internalType": "uint32",
          "name": "",
          "type": "uint32"
        },
        {
          "internalType": "uint256",
          "name": "",
          "type": "uint256"
        }
      ],
      "name": "accumulativeFloatPerSyntheticTokenSnapshots",
      "outputs": [
        {
          "internalType": "uint256",
          "name": "timestamp",
          "type": "uint256"
        },
        {
          "internalType": "uint256",
          "name": "accumulativeFloatPerSyntheticToken_long",
          "type": "uint256"
        },
        {
          "internalType": "uint256",
          "name": "accumulativeFloatPerSyntheticToken_short",
          "type": "uint256"
        }
      ],
      "stateMutability": "view",
      "type": "function"
    },
    {
      "inputs": [
        {
          "internalType": "uint32",
          "name": "marketIndex",
          "type": "uint32"
        },
        {
          "internalType": "address",
          "name": "longToken",
          "type": "address"
        },
        {
          "internalType": "address",
          "name": "shortToken",
          "type": "address"
        },
        {
          "internalType": "uint256",
          "name": "kInitialMultiplier",
          "type": "uint256"
        },
        {
          "internalType": "uint256",
          "name": "kPeriod",
          "type": "uint256"
        },
        {
          "internalType": "uint256",
          "name": "unstakeFee_e18",
          "type": "uint256"
        },
        {
          "internalType": "uint256",
          "name": "_balanceIncentiveCurve_exponent",
          "type": "uint256"
        },
        {
          "internalType": "int256",
          "name": "_balanceIncentiveCurve_equilibriumOffset",
          "type": "int256"
        }
      ],
      "name": "addNewStakingFund",
      "outputs": [],
      "stateMutability": "nonpayable",
      "type": "function"
    },
    {
      "inputs": [
        {
          "internalType": "uint32",
          "name": "",
          "type": "uint32"
        }
      ],
      "name": "balanceIncentiveCurve_equilibriumOffset",
      "outputs": [
        {
          "internalType": "int256",
          "name": "",
          "type": "int256"
        }
      ],
      "stateMutability": "view",
      "type": "function"
    },
    {
      "inputs": [
        {
          "internalType": "uint32",
          "name": "",
          "type": "uint32"
        }
      ],
      "name": "balanceIncentiveCurve_exponent",
      "outputs": [
        {
          "internalType": "uint256",
          "name": "",
          "type": "uint256"
        }
      ],
      "stateMutability": "view",
      "type": "function"
    },
    {
      "inputs": [
        {
          "internalType": "uint32",
          "name": "marketIndex",
          "type": "uint32"
        },
        {
          "internalType": "uint256",
          "name": "_balanceIncentiveCurve_exponent",
          "type": "uint256"
        },
        {
          "internalType": "int256",
          "name": "_balanceIncentiveCurve_equilibriumOffset",
          "type": "int256"
        },
        {
          "internalType": "uint256",
          "name": "_safeExponentBitShifting",
          "type": "uint256"
        }
      ],
      "name": "changeBalanceIncentiveParameters",
      "outputs": [],
      "stateMutability": "nonpayable",
      "type": "function"
    },
    {
      "inputs": [
        {
          "internalType": "uint256",
          "name": "newFloatPercentage",
          "type": "uint256"
        }
      ],
      "name": "changeFloatPercentage",
      "outputs": [],
      "stateMutability": "nonpayable",
      "type": "function"
    },
    {
      "inputs": [
        {
          "internalType": "uint32",
          "name": "marketIndex",
          "type": "uint32"
        },
        {
          "internalType": "uint256",
          "name": "newMarketUnstakeFee_e18",
          "type": "uint256"
        }
      ],
      "name": "changeUnstakeFee",
      "outputs": [],
      "stateMutability": "nonpayable",
      "type": "function"
    },
    {
      "inputs": [
        {
          "internalType": "uint32[]",
          "name": "marketIndexes",
          "type": "uint32[]"
        }
      ],
      "name": "claimFloatCustom",
      "outputs": [],
      "stateMutability": "nonpayable",
      "type": "function"
    },
    {
      "inputs": [
        {
          "internalType": "uint32[]",
          "name": "marketIndexes",
          "type": "uint32[]"
        },
        {
          "internalType": "address",
          "name": "user",
          "type": "address"
        }
      ],
      "name": "claimFloatCustomFor",
      "outputs": [],
      "stateMutability": "nonpayable",
      "type": "function"
    },
    {
      "inputs": [],
      "name": "floatCapital",
      "outputs": [
        {
          "internalType": "address",
          "name": "",
          "type": "address"
        }
      ],
      "stateMutability": "view",
      "type": "function"
    },
    {
      "inputs": [],
      "name": "floatPercentage",
      "outputs": [
        {
          "internalType": "uint256",
          "name": "",
          "type": "uint256"
        }
      ],
      "stateMutability": "view",
      "type": "function"
    },
    {
      "inputs": [],
      "name": "floatToken",
      "outputs": [
        {
          "internalType": "address",
          "name": "",
          "type": "address"
        }
      ],
      "stateMutability": "view",
      "type": "function"
    },
    {
      "inputs": [],
      "name": "floatTreasury",
      "outputs": [
        {
          "internalType": "address",
          "name": "",
          "type": "address"
        }
      ],
      "stateMutability": "view",
      "type": "function"
    },
    {
      "inputs": [],
      "name": "gems",
      "outputs": [
        {
          "internalType": "address",
          "name": "",
          "type": "address"
        }
      ],
      "stateMutability": "view",
      "type": "function"
    },
    {
      "inputs": [
        {
          "internalType": "bytes32",
          "name": "role",
          "type": "bytes32"
        }
      ],
      "name": "getRoleAdmin",
      "outputs": [
        {
          "internalType": "bytes32",
          "name": "",
          "type": "bytes32"
        }
      ],
      "stateMutability": "view",
      "type": "function"
    },
    {
      "inputs": [
        {
          "internalType": "bytes32",
          "name": "role",
          "type": "bytes32"
        },
        {
          "internalType": "address",
          "name": "account",
          "type": "address"
        }
      ],
      "name": "grantRole",
      "outputs": [],
      "stateMutability": "nonpayable",
      "type": "function"
    },
    {
      "inputs": [
        {
          "internalType": "bytes32",
          "name": "role",
          "type": "bytes32"
        },
        {
          "internalType": "address",
          "name": "account",
          "type": "address"
        }
      ],
      "name": "hasRole",
      "outputs": [
        {
          "internalType": "bool",
          "name": "",
          "type": "bool"
        }
      ],
      "stateMutability": "view",
      "type": "function"
    },
    {
      "inputs": [
        {
          "internalType": "address",
          "name": "_admin",
          "type": "address"
        },
        {
          "internalType": "address",
          "name": "_longShort",
          "type": "address"
        },
        {
          "internalType": "address",
          "name": "_floatToken",
          "type": "address"
        },
        {
          "internalType": "address",
          "name": "_floatTreasury",
          "type": "address"
        },
        {
          "internalType": "address",
          "name": "_floatCapital",
          "type": "address"
        },
        {
          "internalType": "address",
          "name": "_discountSigner",
          "type": "address"
        },
        {
          "internalType": "uint256",
          "name": "_floatPercentage",
          "type": "uint256"
        },
        {
          "internalType": "address",
          "name": "_gems",
          "type": "address"
        }
      ],
      "name": "initialize",
      "outputs": [],
      "stateMutability": "nonpayable",
      "type": "function"
    },
    {
      "inputs": [
        {
          "internalType": "uint32",
          "name": "",
          "type": "uint32"
        }
      ],
      "name": "latestRewardIndex",
      "outputs": [
        {
          "internalType": "uint256",
          "name": "",
          "type": "uint256"
        }
      ],
      "stateMutability": "view",
      "type": "function"
    },
    {
      "inputs": [],
      "name": "longShort",
      "outputs": [
        {
          "internalType": "address",
          "name": "",
          "type": "address"
        }
      ],
      "stateMutability": "view",
      "type": "function"
    },
    {
      "inputs": [
        {
          "internalType": "address",
          "name": "",
          "type": "address"
        }
      ],
      "name": "marketIndexOfToken",
      "outputs": [
        {
          "internalType": "uint32",
          "name": "",
          "type": "uint32"
        }
      ],
      "stateMutability": "view",
      "type": "function"
    },
    {
      "inputs": [
        {
          "internalType": "uint32",
          "name": "",
          "type": "uint32"
        }
      ],
      "name": "marketLaunchIncentive_multipliers",
      "outputs": [
        {
          "internalType": "uint256",
          "name": "",
          "type": "uint256"
        }
      ],
      "stateMutability": "view",
      "type": "function"
    },
    {
      "inputs": [
        {
          "internalType": "uint32",
          "name": "",
          "type": "uint32"
        }
      ],
      "name": "marketLaunchIncentive_period",
      "outputs": [
        {
          "internalType": "uint256",
          "name": "",
          "type": "uint256"
        }
      ],
      "stateMutability": "view",
      "type": "function"
    },
    {
      "inputs": [
        {
          "internalType": "uint32",
          "name": "",
          "type": "uint32"
        }
      ],
      "name": "marketUnstakeFee_e18",
      "outputs": [
        {
          "internalType": "uint256",
          "name": "",
          "type": "uint256"
        }
      ],
      "stateMutability": "view",
      "type": "function"
    },
    {
      "inputs": [
        {
          "internalType": "uint32",
          "name": "marketIndex",
          "type": "uint32"
        },
        {
          "internalType": "uint256",
          "name": "marketUpdateIndex",
          "type": "uint256"
        },
        {
          "internalType": "uint256",
          "name": "longPrice",
          "type": "uint256"
        },
        {
          "internalType": "uint256",
          "name": "shortPrice",
          "type": "uint256"
        },
        {
          "internalType": "uint256",
          "name": "longValue",
          "type": "uint256"
        },
        {
          "internalType": "uint256",
          "name": "shortValue",
          "type": "uint256"
        }
      ],
      "name": "pushUpdatedMarketPricesToUpdateFloatIssuanceCalculations",
      "outputs": [],
      "stateMutability": "nonpayable",
      "type": "function"
    },
    {
      "inputs": [
        {
          "internalType": "bytes32",
          "name": "role",
          "type": "bytes32"
        },
        {
          "internalType": "address",
          "name": "account",
          "type": "address"
        }
      ],
      "name": "renounceRole",
      "outputs": [],
      "stateMutability": "nonpayable",
      "type": "function"
    },
    {
      "inputs": [
        {
          "internalType": "bytes32",
          "name": "role",
          "type": "bytes32"
        },
        {
          "internalType": "address",
          "name": "account",
          "type": "address"
        }
      ],
      "name": "revokeRole",
      "outputs": [],
      "stateMutability": "nonpayable",
      "type": "function"
    },
    {
      "inputs": [
        {
          "internalType": "uint32",
          "name": "",
          "type": "uint32"
        }
      ],
      "name": "safeExponentBitShifting",
      "outputs": [
        {
          "internalType": "uint256",
          "name": "",
          "type": "uint256"
        }
      ],
      "stateMutability": "view",
      "type": "function"
    },
    {
      "inputs": [
        {
          "internalType": "uint256",
          "name": "amountSyntheticTokensToShift",
          "type": "uint256"
        },
        {
          "internalType": "uint32",
          "name": "marketIndex",
          "type": "uint32"
        },
        {
          "internalType": "bool",
          "name": "isShiftFromLong",
          "type": "bool"
        }
      ],
      "name": "shiftTokens",
      "outputs": [],
      "stateMutability": "nonpayable",
      "type": "function"
    },
    {
      "inputs": [
        {
          "internalType": "address",
          "name": "from",
          "type": "address"
        },
        {
          "internalType": "uint256",
          "name": "amount",
          "type": "uint256"
        }
      ],
      "name": "stakeFromUser",
      "outputs": [],
      "stateMutability": "nonpayable",
      "type": "function"
    },
    {
      "inputs": [
        {
          "internalType": "bytes4",
          "name": "interfaceId",
          "type": "bytes4"
        }
      ],
      "name": "supportsInterface",
      "outputs": [
        {
          "internalType": "bool",
          "name": "",
          "type": "bool"
        }
      ],
      "stateMutability": "view",
      "type": "function"
    },
    {
      "inputs": [
        {
          "internalType": "uint32",
          "name": "",
          "type": "uint32"
        },
        {
          "internalType": "bool",
          "name": "",
          "type": "bool"
        }
      ],
      "name": "syntheticTokens",
      "outputs": [
        {
          "internalType": "address",
          "name": "",
          "type": "address"
        }
      ],
      "stateMutability": "view",
      "type": "function"
    },
    {
      "inputs": [
        {
          "internalType": "address",
          "name": "newImplementation",
          "type": "address"
        }
      ],
      "name": "upgradeTo",
      "outputs": [],
      "stateMutability": "nonpayable",
      "type": "function"
    },
    {
      "inputs": [
        {
          "internalType": "address",
          "name": "newImplementation",
          "type": "address"
        },
        {
          "internalType": "bytes",
          "name": "data",
          "type": "bytes"
        }
      ],
      "name": "upgradeToAndCall",
      "outputs": [],
      "stateMutability": "payable",
      "type": "function"
    },
    {
      "inputs": [
        {
          "internalType": "address",
          "name": "",
          "type": "address"
        },
        {
          "internalType": "address",
          "name": "",
          "type": "address"
        }
      ],
      "name": "userAmountStaked",
      "outputs": [
        {
          "internalType": "uint256",
          "name": "",
          "type": "uint256"
        }
      ],
      "stateMutability": "view",
      "type": "function"
    },
    {
      "inputs": [
        {
          "internalType": "uint32",
          "name": "",
          "type": "uint32"
        },
        {
          "internalType": "address",
          "name": "",
          "type": "address"
        }
      ],
      "name": "userIndexOfLastClaimedReward",
      "outputs": [
        {
          "internalType": "uint256",
          "name": "",
          "type": "uint256"
        }
      ],
      "stateMutability": "view",
      "type": "function"
    },
    {
      "inputs": [
        {
          "internalType": "uint32",
          "name": "",
          "type": "uint32"
        },
        {
          "internalType": "bool",
          "name": "",
          "type": "bool"
        },
        {
          "internalType": "address",
          "name": "",
          "type": "address"
        }
      ],
      "name": "userNextPrice_amountStakedSyntheticToken_toShiftAwayFrom",
      "outputs": [
        {
          "internalType": "uint256",
          "name": "",
          "type": "uint256"
        }
      ],
      "stateMutability": "view",
      "type": "function"
    },
    {
      "inputs": [
        {
          "internalType": "uint32",
          "name": "",
          "type": "uint32"
        },
        {
          "internalType": "bool",
          "name": "",
          "type": "bool"
        },
        {
          "internalType": "address",
          "name": "",
          "type": "address"
        }
      ],
      "name": "userNextPrice_paymentToken_depositAmount",
      "outputs": [
        {
          "internalType": "uint256",
          "name": "",
          "type": "uint256"
        }
      ],
      "stateMutability": "view",
      "type": "function"
    },
    {
      "inputs": [
        {
          "internalType": "uint32",
          "name": "",
          "type": "uint32"
        },
        {
          "internalType": "address",
          "name": "",
          "type": "address"
        }
      ],
      "name": "userNextPrice_stakedActionIndex",
      "outputs": [
        {
          "internalType": "uint256",
          "name": "",
          "type": "uint256"
        }
      ],
      "stateMutability": "view",
      "type": "function"
    },
    {
      "inputs": [
        {
          "internalType": "address",
          "name": "",
          "type": "address"
        }
      ],
      "name": "userNonce",
      "outputs": [
        {
          "internalType": "uint32",
          "name": "",
          "type": "uint32"
        }
      ],
      "stateMutability": "view",
      "type": "function"
    },
    {
      "inputs": [
        {
          "internalType": "uint32",
          "name": "marketIndex",
          "type": "uint32"
        },
        {
          "internalType": "bool",
          "name": "isWithdrawFromLong",
          "type": "bool"
        },
        {
          "internalType": "uint256",
          "name": "amount",
          "type": "uint256"
        }
      ],
      "name": "withdraw",
      "outputs": [],
      "stateMutability": "nonpayable",
      "type": "function"
    },
    {
      "inputs": [
        {
          "internalType": "uint32",
          "name": "marketIndex",
          "type": "uint32"
        },
        {
          "internalType": "bool",
          "name": "isWithdrawFromLong",
          "type": "bool"
        }
      ],
      "name": "withdrawAll",
      "outputs": [],
      "stateMutability": "nonpayable",
      "type": "function"
    },
    {
      "inputs": [
        {
          "internalType": "uint32",
          "name": "marketIndex",
          "type": "uint32"
        },
        {
          "internalType": "bool",
          "name": "isWithdrawFromLong",
          "type": "bool"
        },
        {
          "internalType": "uint256",
          "name": "withdrawAmount",
          "type": "uint256"
        },
        {
          "internalType": "uint256",
          "name": "expiry",
          "type": "uint256"
        },
        {
          "internalType": "uint256",
          "name": "nonce",
          "type": "uint256"
        },
        {
          "internalType": "uint256",
          "name": "discountWithdrawFee",
          "type": "uint256"
        },
        {
          "internalType": "uint8",
          "name": "v",
          "type": "uint8"
        },
        {
          "internalType": "bytes32",
          "name": "r",
          "type": "bytes32"
        },
        {
          "internalType": "bytes32",
          "name": "s",
          "type": "bytes32"
        }
      ],
      "name": "withdrawWithVoucher",
      "outputs": [],
      "stateMutability": "nonpayable",
      "type": "function"
    }
  ],
  "transactionHash": "0x8fd0f8b7ac973e2784fca9c54fefecde0e78606fb8081081d9bae00ebec6a69d",
  "args": [],
  "solcInputHash": "f992b3c18d8822e024711f3a6d00ccf4",
  "bytecode": "0x608060405234801561001057600080fd5b506146d6806100206000396000f3fe6080604052600436106102935760003560e01c80639441752f1161015a578063c2b80072116100c1578063eae5a8d91161007a578063eae5a8d9146109a1578063edb010d7146109c1578063ef9c3052146109e1578063f344acc914610a0f578063f72c0d8b14610a2f578063f9fe734e14610a6357610293565b8063c2b80072146108a6578063d547741f146108e5578063dc86fe5014610905578063e39ac04414610933578063e68f3dbe14610961578063e955a3481461098157610293565b8063b45e86cf11610113578063b45e86cf146107b4578063ba89f7b8146107ed578063bda69fd81461080d578063be751cb71461082d578063c16199e31461084d578063c17f8ce91461086d57610293565b80639441752f146106be5780639e59fd0f146106fd578063a217fddf1461071d578063a538415c14610732578063b054c4a114610752578063b0956b5f1461079457610293565b80634f1ef286116101fe578063738f4b8e116101b7578063738f4b8e146105d857806375b238fc146105f857806385fcb8e31461062c57806386cbde1f1461065a5780638e659c081461067e57806391d148541461069e57610293565b80634f1ef286146105075780635892457d1461051a5780635ac76ce1146105305780636a5304df146105695780636c3050551461059757806372b124da146105b857610293565b80632e04b8e7116102505780632e04b8e7146103dc5780632f2ff15d1461041057806336568abe146104305780633659cfe6146104505780633733cf49146104705780633ebff44f146104a457610293565b806301ffc9a7146102985780630ca5a052146102cd57806313e8868a146102ef57806315f2081d1461032b578063248a9ca31461037457806329949872146103a4575b600080fd5b3480156102a457600080fd5b506102b86102b3366004613e90565b610a91565b60405190151581526020015b60405180910390f35b3480156102d957600080fd5b506102ed6102e83660046140eb565b610aca565b005b3480156102fb57600080fd5b5061031d61030a366004613f0f565b6101306020526000908152604090205481565b6040519081526020016102c4565b34801561033757600080fd5b5061035f610346366004613be7565b6101626020526000908152604090205463ffffffff1681565b60405163ffffffff90911681526020016102c4565b34801561038057600080fd5b5061031d61038f366004613e56565b60009081526065602052604090206001015490565b3480156103b057600080fd5b5060fe546103c4906001600160a01b031681565b6040516001600160a01b0390911681526020016102c4565b3480156103e857600080fd5b5061035f6103f7366004613be7565b6101636020526000908152604090205463ffffffff1681565b34801561041c57600080fd5b506102ed61042b366004613e6e565b610b1f565b34801561043c57600080fd5b506102ed61044b366004613e6e565b610b4b565b34801561045c57600080fd5b506102ed61046b366004613be7565b610bce565b34801561047c57600080fd5b5061031d7fce9a6d3180818296cf6add4d55c45a6cd9e315597ee1da1e2313c503391736cd81565b3480156104b057600080fd5b506104ec6104bf3660046140eb565b61019260209081526000928352604080842090915290825290208054600182015460029092015490919083565b604080519384526020840192909252908201526060016102c4565b6102ed610515366004613cc2565b610bf5565b34801561052657600080fd5b5061031d60fd5481565b34801561053c57600080fd5b5061031d61054b366004613f29565b6101c060209081526000928352604080842090915290825290205481565b34801561057557600080fd5b5061031d610584366004613f0f565b61012e6020526000908152604090205481565b3480156105a357600080fd5b50610100546103c4906001600160a01b031681565b3480156105c457600080fd5b506102ed6105d3366004614063565b610c0a565b3480156105e457600080fd5b506102ed6105f3366004613da8565b6110a7565b34801561060457600080fd5b5061031d7fa49807205ce4d355092ef5a8a18f56e8913cf4a201fbe287825b095693c2177581565b34801561063857600080fd5b5061031d610647366004613f0f565b6101336020526000908152604090205481565b34801561066657600080fd5b5061031d6cd73d4c35b9df8aa7d6c3003573602c1b81565b34801561068a57600080fd5b506102ed610699366004613c33565b611116565b3480156106aa57600080fd5b506102b86106b9366004613e6e565b6112fb565b3480156106ca57600080fd5b5061031d6106d9366004613fea565b6101f060209081526000938452604080852082529284528284209052825290205481565b34801561070957600080fd5b506102ed610718366004613e56565b611328565b34801561072957600080fd5b5061031d600081565b34801561073e57600080fd5b506102ed61074d366004613fb4565b61136f565b34801561075e57600080fd5b506103c461076d366004613fb4565b6101346020908152600092835260408084209091529082529020546001600160a01b031681565b3480156107a057600080fd5b506102ed6107af366004613f44565b611466565b3480156107c057600080fd5b5061031d6107cf366004613f29565b6101ef60209081526000928352604080842090915290825290205481565b3480156107f957600080fd5b5060fb546103c4906001600160a01b031681565b34801561081957600080fd5b506102ed61082836600461413e565b611666565b34801561083957600080fd5b506102ed610848366004614106565b611711565b34801561085957600080fd5b5060fc546103c4906001600160a01b031681565b34801561087957600080fd5b5061031d610888366004613c01565b6101c160209081526000928352604080842090915290825290205481565b3480156108b257600080fd5b5061031d6108c1366004613fea565b6101f160209081526000938452604080852082529284528284209052825290205481565b3480156108f157600080fd5b506102ed610900366004613e6e565b611779565b34801561091157600080fd5b5061031d610920366004613f0f565b6101326020526000908152604090205481565b34801561093f57600080fd5b5061031d61094e366004613f0f565b6101916020526000908152604090205481565b34801561096d57600080fd5b506102ed61097c366004613d7f565b61179f565b34801561098d57600080fd5b506102ed61099c366004614025565b61198e565b3480156109ad57600080fd5b5060ff546103c4906001600160a01b031681565b3480156109cd57600080fd5b506102ed6109dc366004613ed0565b6119d8565b3480156109ed57600080fd5b5061031d6109fc366004613f0f565b61012f6020526000908152604090205481565b348015610a1b57600080fd5b506102ed610a2a366004613de8565b611c80565b348015610a3b57600080fd5b5061031d7f189ab7a9244df0848122154315af71fe140f3db0fe014031783b0946b8c9d2e381565b348015610a6f57600080fd5b5061031d610a7e366004613f0f565b6101316020526000908152604090205481565b60006001600160e01b03198216637965db0b60e01b1480610ac257506301ffc9a760e01b6001600160e01b03198316145b90505b919050565b610ad2611cef565b610adc8282611d1b565b6040805163ffffffff84168152602081018390527feb76801ec75076256b8590fd7c621c2541531e6b9ac568389fa5cdf72e664844910160405180910390a15050565b600082815260656020526040902060010154610b3c81335b611d49565b610b468383611dad565b505050565b6001600160a01b0381163314610bc05760405162461bcd60e51b815260206004820152602f60248201527f416363657373436f6e74726f6c3a2063616e206f6e6c792072656e6f756e636560448201526e103937b632b9903337b91039b2b63360891b60648201526084015b60405180910390fd5b610bca8282611e33565b5050565b610bd781611e9a565b610bf281604051806020016040528060008152506000611ec5565b50565b610bfe82611e9a565b610bca82826001611ec5565b610100546040516324b4085360e21b81523360048201819052916001600160a01b0316906392d0214c90602401600060405180830381600087803b158015610c5157600080fd5b505af1158015610c65573d6000803e3d6000fd5b5050604080516001600160e01b031960e08f901b166020808301919091528d151560f81b60248301526bffffffffffffffffffffffff193360601b166025830152603982018d9052605982018c9052607982018b905260998083018b90528351808403909101815260b9830184528051908201207f19457468657265756d205369676e6564204d6573736167653a0a33320000000060d984015260f58084019190915283518084039091018152610115909201909252805191012060009250600191506040805160008152602081018083529290925260ff881690820152606081018690526080810185905260a0016020604051602081039080840390855afa158015610d76573d6000803e3d6000fd5b505050602060405103519050610dac7fce9a6d3180818296cf6add4d55c45a6cd9e315597ee1da1e2313c503391736cd826112fb565b50874210610ded5760405162461bcd60e51b815260206004820152600e60248201526d18dbdd5c1bdb88195e1c1a5c995960921b6044820152606401610bb7565b336000908152610163602052604090205463ffffffff168714610e425760405162461bcd60e51b815260206004820152600d60248201526c696e76616c6964206e6f6e636560981b6044820152606401610bb7565b63ffffffff8b16600090815261013060205260409020548610610e9a5760405162461bcd60e51b815260206004820152601060248201526f62616420646973636f756e742066656560801b6044820152606401610bb7565b3360009081526101636020526040902054610ebc9063ffffffff16600161433b565b33600090815261016360209081526040808320805463ffffffff191663ffffffff958616179055928e16825261013481528282208d15158352905220546001600160a01b0316610f0e8c8c8c84612046565b6000670de0b6b3a7640000610f23898d61453c565b610f2d9190614391565b60fc5460405163a9059cbb60e01b81526001600160a01b0391821660048201526024810183905291925083169063a9059cbb90604401602060405180830381600087803b158015610f7d57600080fd5b505af1158015610f91573d6000803e3d6000fd5b505050506040513d601f19601f82011682018060405250810190610fb59190613e3a565b506001600160a01b03821663a9059cbb33610fd0848f61459a565b6040516001600160e01b031960e085901b1681526001600160a01b0390921660048301526024820152604401602060405180830381600087803b15801561101657600080fd5b505af115801561102a573d6000803e3d6000fd5b505050506040513d601f19601f8201168201806040525081019061104e9190613e3a565b50604080513381526001600160a01b03841660208201529081018c90527fb7c918e0e249f999e965cafeb6c664271b3f4317d296461500e71da39f0cbda39060600160405180910390a150505050505050505050505050565b60fe54604051636c8d2b9760e01b81526001600160a01b0390911690636c8d2b97906110d99085908590600401614218565b600060405180830381600087803b1580156110f357600080fd5b505af1158015611107573d6000803e3d6000fd5b50505050610bca828233612178565b600054610100900460ff168061112f575060005460ff16155b61114b5760405162461bcd60e51b8152600401610bb790614294565b600054610100900460ff1615801561116d576000805461ffff19166101011790555b6001600160a01b0389161580159061118d57506001600160a01b03881615155b80156111a157506001600160a01b03871615155b80156111b557506001600160a01b03861615155b80156111c957506001600160a01b03851615155b80156111dd57506001600160a01b03821615155b80156111e857508215155b6111f157600080fd5b60fb80546001600160a01b03199081166001600160a01b038881169190911790925560fc8054821689841617905560fe805482168b841617905560ff805482168a841617905561010080549091169184169190911790556112518961233f565b61127b7fce9a6d3180818296cf6add4d55c45a6cd9e315597ee1da1e2313c503391736cd856123c4565b611284836123ce565b604080516001600160a01b038b81168252888116602083015287811682840152891660608201526080810185905290517faf92ca815edd9a90dc4aa1dfc722fb1624d5b5f914b25ae3cf979ce6600f0a969181900360a00190a180156112f0576000805461ff00191690555b505050505050505050565b60008281526065602090815260408083206001600160a01b038516845290915290205460ff165b92915050565b611330611cef565b611339816123ce565b6040518181527f062ffcd555faf2b2c81f26010ee6db2e23106941bfed5ae979abd111975d815d9060200160405180910390a150565b60fe546040516305c8146f60e01b815263ffffffff841660048201526001600160a01b03909116906305c8146f90602401600060405180830381600087803b1580156113ba57600080fd5b505af11580156113ce573d6000803e3d6000fd5b505050506113dc82336123f4565b63ffffffff8216600081815261013460209081526040808320851515808552908352818420546001600160a01b03168085526101c184528285203380875281865284872080549888526101f0875285882094885293865284872090875285529290942054919092529081905590919061145f858461145a848661459a565b61249b565b5050505050565b61146e6126a1565b670de0b6b3a76400008510156114d15760405162461bcd60e51b815260206004820152602260248201527f6b496e697469616c4d756c7469706c696572206d757374206265203e3d203165604482015261062760f31b6064820152608401610bb7565b6001600160a01b03808816600081815261016260209081526040808320805463ffffffff8f1663ffffffff199182168117909255958c168085528285208054909716821790965580845261019283528184208480528352818420429055835261013482528083206001845280835281842080546001600160a01b031990811690961790558380529091529020805490911690911790556032611575898484846126eb565b63ffffffff8916600090815261012e6020908152604080832088905561012f90915290208690556115a68985611d1b565b6040805163ffffffff8b16815260208101869052908101869052606081018790526080810184905260a0810183905260c081018290527fe0bc2edbe91b35919ee6608af52675476a1cb964af5d671c9e2c018d3cae98919060e00160405180910390a16040805163ffffffff8b16815260006020820181905291810182905260608101919091527f65663e89e16ccfe470dd659bacdf6fddae8185e108d00bc980d34be7e86466d0906080015b60405180910390a1505050505050505050565b61166e6126a1565b6000806116898861168060018a61459a565b88888888612a05565b63ffffffff8a166000818152610192602090815260408083208d8452825280832060018101879055600281018690554281558484526101918352928190208d905580519384529083018c90528201849052606082018390529294509092507f65663e89e16ccfe470dd659bacdf6fddae8185e108d00bc980d34be7e86466d090608001611653565b611719611cef565b611725848484846126eb565b6040805163ffffffff8616815260208101859052908101839052606081018290527f940844064f9f8938ffe6a879f6143788f9f7e81daf872fee4fe2387b7cf9448d9060800160405180910390a150505050565b6000828152606560205260409020600101546117958133610b37565b610b468383611e33565b336117a981612aae565b610100546040516324b4085360e21b81526001600160a01b038086166004830152859216906392d0214c90602401600060405180830381600087803b1580156117f157600080fd5b505af1158015611805573d6000803e3d6000fd5b50503360009081526101626020526040908190205460fe5491516305c8146f60e01b815263ffffffff9091166004820181905293506001600160a01b0390911691506305c8146f90602401600060405180830381600087803b15801561186a57600080fd5b505af115801561187e573d6000803e3d6000fd5b5050505063ffffffff811660008181526101c0602090815260408083206001600160a01b038a16845282528083205493835261019190915290205481158015906118c757508082105b156118d6576118d683886123f4565b3360009081526101c1602090815260408083206001600160a01b038b1684529091528120805488929061190a908490614323565b909155505063ffffffff831660009081526101c0602090815260408083206001600160a01b038b1680855290835292819020849055805192835233918301919091528101879052606081018290527fef7c8dfef14cbefdf829b8f066b068b677992411137321d64b3ed4538c2b36379060800160405180910390a150505050505050565b63ffffffff831660009081526101346020908152604080832085151584529091529020546001600160a01b03166119c784848484612046565b6119d284828461249b565b50505050565b81336119e48282612b0c565b610100546040516324b4085360e21b81523360048201819052916001600160a01b0316906392d0214c90602401600060405180830381600087803b158015611a2b57600080fd5b505af1158015611a3f573d6000803e3d6000fd5b5050505060008611611a855760405162461bcd60e51b815260206004820152600f60248201526e2737903d32b9379039b434b33a399760891b6044820152606401610bb7565b63ffffffff8516600081815261013460209081526040808320881515808552908352818420549484526101f0835281842090845282528083203384529091528120546001600160a01b0390921691611add9089614323565b6001600160a01b03831660009081526101c160209081526040808320338452909152902054909150811115611b545760405162461bcd60e51b815260206004820152601a60248201527f4e6f7420656e6f75676820746f6b656e7320746f2073686966740000000000006044820152606401610bb7565b60fe546040516371fd962360e01b815263ffffffff89166004820152602481018a905287151560448201526001600160a01b03909116906371fd962390606401600060405180830381600087803b158015611bae57600080fd5b505af1158015611bc2573d6000803e3d6000fd5b5050505063ffffffff871660008181526101f0602090815260408083208a1515845282528083203384528252808320859055928252610191905290812054611c0b906001614323565b63ffffffff891660008181526101ef6020908152604080832033808552908352928190208590558051928352908201929092529081018b90528815156060820152608081018290529091507f1393b60b20fc61ac59730bbda202288e21de9c963502cfe81fcb843b427d46e29060a001611653565b60fe54604051636c8d2b9760e01b81526001600160a01b0390911690636c8d2b9790611cb29086908690600401614218565b600060405180830381600087803b158015611ccc57600080fd5b505af1158015611ce0573d6000803e3d6000fd5b50505050610b46838383612178565b611d197fa49807205ce4d355092ef5a8a18f56e8913cf4a201fbe287825b095693c2177533611d49565b565b66b1a2bc2ec50000811115611d2f57600080fd5b63ffffffff90911660009081526101306020526040902055565b611d5382826112fb565b610bca57611d6b816001600160a01b03166014612b75565b611d76836020612b75565b604051602001611d879291906141a3565b60408051601f198184030181529082905262461bcd60e51b8252610bb791600401614261565b611db782826112fb565b610bca5760008281526065602090815260408083206001600160a01b03851684529091529020805460ff19166001179055611def3390565b6001600160a01b0316816001600160a01b0316837f2f8788117e7eff1d82e926ec794901d17c78024a50270940304540a733656f0d60405160405180910390a45050565b611e3d82826112fb565b15610bca5760008281526065602090815260408083206001600160a01b0385168085529252808320805460ff1916905551339285917ff6391f5c32d9c69d2a47ea670b442974b53935d1edc7fd64eb21e047a839171b9190a45050565b7f189ab7a9244df0848122154315af71fe140f3db0fe014031783b0946b8c9d2e3610bca8133610b37565b6000611ef87f360894a13ba1a3210667c828492db98dca3e2076cc3735a920a3ca505d382bbc546001600160a01b031690565b9050611f0384612d5e565b600083511180611f105750815b15611f2157611f1f8484612e03565b505b7f4910fdfa16fed3260ed0e7147f7cc6da11a60208b5b9406d12a635614ffd9143805460ff1661145f57805460ff191660011781556040516001600160a01b0383166024820152611fa090869060440160408051601f198184030181529190526020810180516001600160e01b0316631b2ce7f360e11b179052612e03565b50805460ff191681557f360894a13ba1a3210667c828492db98dca3e2076cc3735a920a3ca505d382bbc546001600160a01b0383811691161461203d5760405162461bcd60e51b815260206004820152602f60248201527f45524331393637557067726164653a207570677261646520627265616b73206660448201526e75727468657220757067726164657360881b6064820152608401610bb7565b61145f85612eee565b60fe546040516305c8146f60e01b815263ffffffff861660048201526001600160a01b03909116906305c8146f90602401600060405180830381600087803b15801561209157600080fd5b505af11580156120a5573d6000803e3d6000fd5b505050506120b384336123f4565b6001600160a01b03811660009081526101c160209081526040808320338085529083528184205463ffffffff891685526101f08452828520881515865284528285209185529252909120548381018210156121495760405162461bcd60e51b81526020600482015260166024820152756e6f7420656e6f75676820746f20776974686472617760501b6044820152606401610bb7565b506001600160a01b0390911660009081526101c160209081526040808320338452909152902091900390555050565b600082815b8181101561232e5760006121c58787848181106121aa57634e487b7160e01b600052603260045260246000fd5b90506020020160208101906121bf9190613f0f565b86612f2e565b9050801561231b5761019160008888858181106121f257634e487b7160e01b600052603260045260246000fd5b90506020020160208101906122079190613f0f565b63ffffffff1663ffffffff168152602001908152602001600020546101c0600089898681811061224757634e487b7160e01b600052603260045260246000fd5b905060200201602081019061225c9190613f0f565b63ffffffff168152602080820192909252604090810160009081206001600160a01b038a1682529092529020556122938185614323565b93507f2f0b57f663333228518fca119813fe0f6daeb5f19d087965f56b45fecf2d5205858888858181106122d757634e487b7160e01b600052603260045260246000fd5b90506020020160208101906122ec9190613f0f565b604080516001600160a01b03909316835263ffffffff9091166020830152810183905260600160405180910390a15b5080612326816145f4565b91505061217d565b50811561145f5761145f8383613352565b600054610100900460ff1680612358575060005460ff16155b6123745760405162461bcd60e51b8152600401610bb790614294565b600054610100900460ff16158015612396576000805461ffff19166101011790555b61239e613456565b6123a66134d9565b6123af82613537565b8015610bca576000805461ff00191690555050565b610bca8282611dad565b670de0b6b3a764000081111580156123e65750600081115b6123ef57600080fd5b60fd55565b60006124008383612f2e565b90508015610b465763ffffffff8316600090815261019160209081526040808320546101c083528184206001600160a01b0387168552909252909120556124478282613352565b604080516001600160a01b038416815263ffffffff851660208201529081018290527f2f0b57f663333228518fca119813fe0f6daeb5f19d087965f56b45fecf2d52059060600160405180910390a1505050565b610100546040516324b4085360e21b81523360048201819052916001600160a01b0316906392d0214c90602401600060405180830381600087803b1580156124e257600080fd5b505af11580156124f6573d6000803e3d6000fd5b5050505063ffffffff841660009081526101306020526040812054670de0b6b3a764000090612525908561453c565b61252f9190614391565b60fc5460405163a9059cbb60e01b81526001600160a01b0391821660048201526024810183905291925085169063a9059cbb90604401602060405180830381600087803b15801561257f57600080fd5b505af1158015612593573d6000803e3d6000fd5b505050506040513d601f19601f820116820180604052508101906125b79190613e3a565b506001600160a01b03841663a9059cbb336125d2848761459a565b6040516001600160e01b031960e085901b1681526001600160a01b0390921660048301526024820152604401602060405180830381600087803b15801561261857600080fd5b505af115801561262c573d6000803e3d6000fd5b505050506040513d601f19601f820116820180604052508101906126509190613e3a565b50604080513381526001600160a01b03861660208201529081018490527fb7c918e0e249f999e965cafeb6c664271b3f4317d296461500e71da39f0cbda39060600160405180910390a15050505050565b60fe546001600160a01b03163314611d195760405162461bcd60e51b815260206004820152600d60248201526c1b9bdd08131bdb99d4da1bdc9d609a1b6044820152606401610bb7565b670c7d713b49d9ffff198213801561270a5750670c7d713b49da000082125b6127745760405162461bcd60e51b815260206004820152603560248201527f62616c616e6365496e63656e7469766543757276655f657175696c69627269756044820152746d4f6666736574206f7574206f6620626f756e647360581b6064820152608401610bb7565b600083116127d95760405162461bcd60e51b815260206004820152602c60248201527f62616c616e6365496e63656e7469766543757276655f6578706f6e656e74206f60448201526b7574206f6620626f756e647360a01b6064820152608401610bb7565b606481106128375760405162461bcd60e51b815260206004820152602560248201527f736166654578706f6e656e744269745368696674696e67206f7574206f6620626044820152646f756e647360d81b6064820152608401610bb7565b60fe54604051631678fc4360e31b815263ffffffff86166004820152600060248201819052916001600160a01b03169063b3c7e2189060440160206040518083038186803b15801561288857600080fd5b505afa15801561289c573d6000803e3d6000fd5b505050506040513d601f19601f820116820180604052508101906128c09190613eb8565b60fe54604051631678fc4360e31b815263ffffffff88166004820152600160248201526001600160a01b039091169063b3c7e2189060440160206040518083038186803b15801561291057600080fd5b505afa158015612924573d6000803e3d6000fd5b505050506040513d601f19601f820116820180604052508101906129489190613eb8565b6129529190614323565b90508382612962836101f461453c565b61296d92911c6143eb565b50606481831c116129d05760405162461bcd60e51b815260206004820152602760248201527f626974207368696674696e6720746f6f206c616e676520666f7220746f74616c604482015266081b1bd8dad95960ca1b6064820152608401610bb7565b5063ffffffff909316600090815261013160209081526040808320949094556101328152838220929092556101339091522055565b600080600080612a188a89898989613600565b915091506000612a288b8b6138a9565b9050612a34838261453c565b63ffffffff8c166000908152610192602090815260408083208e8452909152902060010154612a639190614323565b612a6d838361453c565b63ffffffff8d166000908152610192602090815260408083208f8452909152902060020154612a9c9190614323565b94509450505050965096945050505050565b6001600160a01b0381166000908152610162602052604090205463ffffffff16610bf25760405162461bcd60e51b815260206004820152600f60248201526e0dcdee840ecc2d8d2c840e6f2dce8d608b1b6044820152606401610bb7565b63ffffffff821660009081526101ef6020908152604080832033845290915290205415801590612b66575063ffffffff8216600090815261019160209081526040808320546101ef83528184203385529092529091205411155b15610bca57610bca82336123f4565b60606000612b8483600261453c565b612b8f906002614323565b67ffffffffffffffff811115612bb557634e487b7160e01b600052604160045260246000fd5b6040519080825280601f01601f191660200182016040528015612bdf576020820181803683370190505b509050600360fc1b81600081518110612c0857634e487b7160e01b600052603260045260246000fd5b60200101906001600160f81b031916908160001a905350600f60fb1b81600181518110612c4557634e487b7160e01b600052603260045260246000fd5b60200101906001600160f81b031916908160001a9053506000612c6984600261453c565b612c74906001614323565b90505b6001811115612d08576f181899199a1a9b1b9c1cb0b131b232b360811b85600f1660108110612cb657634e487b7160e01b600052603260045260246000fd5b1a60f81b828281518110612cda57634e487b7160e01b600052603260045260246000fd5b60200101906001600160f81b031916908160001a90535060049490941c93612d01816145dd565b9050612c77565b508315612d575760405162461bcd60e51b815260206004820181905260248201527f537472696e67733a20686578206c656e67746820696e73756666696369656e746044820152606401610bb7565b9392505050565b803b612dc25760405162461bcd60e51b815260206004820152602d60248201527f455243313936373a206e657720696d706c656d656e746174696f6e206973206e60448201526c1bdd08184818dbdb9d1c9858dd609a1b6064820152608401610bb7565b7f360894a13ba1a3210667c828492db98dca3e2076cc3735a920a3ca505d382bbc80546001600160a01b0319166001600160a01b0392909216919091179055565b6060823b612e625760405162461bcd60e51b815260206004820152602660248201527f416464726573733a2064656c65676174652063616c6c20746f206e6f6e2d636f6044820152651b9d1c9858dd60d21b6064820152608401610bb7565b600080846001600160a01b031684604051612e7d9190614187565b600060405180830381855af49150503d8060008114612eb8576040519150601f19603f3d011682016040523d82523d6000602084013e612ebd565b606091505b5091509150612ee5828260405180606001604052806027815260200161467a602791396138d5565b95945050505050565b612ef781612d5e565b6040516001600160a01b038216907fbc7cd75a20ee27fd9adebab32041f755214dbc6bffa90cc0225b39da2e5c2d3b90600090a250565b63ffffffff821660008181526101346020908152604080832060018452825280832054838052818420546001600160a01b039182168086526101c180865284872089851680895290875285882054949093168088529086528487208388528652848720548888526101c087528588209388529286528487205497875261019190955292852054949592949192909180821415612fd35760009650505050505050611322565b63ffffffff891660009081526101ef602090815260408083206001600160a01b038c168452909152902054801580159061300d5750818111155b156133355761301f8a8686868561390e565b63ffffffff8b1660009081526101f0602090815260408083206001845282528083206001600160a01b038e168452909152902054909850801561313f5760fe54604051630125edfd60e71b815263ffffffff8d1660048201526024810183905260016044820152606481018490526001600160a01b03909116906392f6fe809060840160206040518083038186803b1580156130ba57600080fd5b505afa1580156130ce573d6000803e3d6000fd5b505050506040513d601f19601f820116820180604052508101906130f29190613eb8565b6130fc9086614323565b9450613108818761459a565b63ffffffff8c1660009081526101f0602090815260408083206001845282528083206001600160a01b038f16845290915281205595505b5063ffffffff8a1660009081526101f06020908152604080832083805282528083206001600160a01b038d168452909152902054801561325b5760fe54604051630125edfd60e71b815263ffffffff8d1660048201526024810183905260006044820152606481018490526001600160a01b03909116906392f6fe809060840160206040518083038186803b1580156131d757600080fd5b505afa1580156131eb573d6000803e3d6000fd5b505050506040513d601f19601f8201168201806040525081019061320f9190613eb8565b6132199087614323565b9550613225818661459a565b63ffffffff8c1660009081526101f06020908152604080832083805282528083206001600160a01b038f16845290915281205594505b6001600160a01b0388811660009081526101c1602081815260408084208f86168086529083528185208c9055948c168452918152818320848452815291819020889055805192835263ffffffff8e16918301919091528101879052606081018690527fea2b4628943d2a0a2c85f85b60007fb6f8273d91c0eaff6f8b140a5007637b359060800160405180910390a16132f78b8787858761390e565b613301908a614323565b63ffffffff8c1660009081526101ef602090815260408083206001600160a01b038f16845290915281205598506133459050565b6133428a8686868661390e565b97505b5050505050505092915050565b60ff546040516340c10f1960e01b81526001600160a01b03848116600483015260248201849052909116906340c10f1990604401600060405180830381600087803b1580156133a057600080fd5b505af11580156133b4573d6000803e3d6000fd5b505060ff5460fb5460fd546001600160a01b0392831694506340c10f199350911690670de0b6b3a7640000906133ea908661453c565b6133f49190614391565b6040516001600160e01b031960e085901b1681526001600160a01b0390921660048301526024820152604401600060405180830381600087803b15801561343a57600080fd5b505af115801561344e573d6000803e3d6000fd5b505050505050565b600054610100900460ff168061346f575060005460ff16155b61348b5760405162461bcd60e51b8152600401610bb790614294565b600054610100900460ff161580156134ad576000805461ffff19166101011790555b6134b5613a01565b6134bd613a01565b6134c5613a01565b8015610bf2576000805461ff001916905550565b600054610100900460ff16806134f2575060005460ff16155b61350e5760405162461bcd60e51b8152600401610bb790614294565b600054610100900460ff161580156134b5576000805461ffff19166101011790556134bd613a01565b600054610100900460ff1680613550575060005460ff16155b61356c5760405162461bcd60e51b8152600401610bb790614294565b600054610100900460ff1615801561358e576000805461ffff19166101011790555b6001600160a01b0382166135a157600080fd5b6135ac6000836123c4565b6135d67fa49807205ce4d355092ef5a8a18f56e8913cf4a201fbe287825b095693c21775836123c4565b6123af7f189ab7a9244df0848122154315af71fe140f3db0fe014031783b0946b8c9d2e3836123c4565b600080600061360e88613a6b565b9050600061361c8587614323565b63ffffffff8a166000908152610132602052604081205491925090671bc16d674ec800009061364c9084906144b9565b6136569190614363565b63ffffffff8b16600090815261013360205260409020549091508761367c8360026144b9565b613686908961455b565b12156137a4578682126136ac57600061369f8a8661453c565b955095505050505061389f565b63ffffffff8b16600090815261013160205260408120546136ce60018461459a565b6136d8858b61455b565b6136e392911c6143eb565b63ffffffff8d16600090815261013160205260408120549192509061370a9086851c6143eb565b9050600081613721846706f05b59d3b2000061453c565b61372b9190614391565b9050600061374182670de0b6b3a764000061459a565b9050670de0b6b3a76400008e6137578a8561453c565b613761919061453c565b61376b9190614391565b670de0b6b3a76400008e61377f8b8561453c565b613789919061453c565b6137939190614391565b99509950505050505050505061389f565b876137ae8361460f565b126137cc576137bd8a8561453c565b6000955095505050505061389f565b63ffffffff8b16600090815261013160205260408120546137ee60018461459a565b6137f8858c6142e2565b61380392911c6143eb565b63ffffffff8d16600090815261013160205260408120549192509061382a9086851c6143eb565b9050600081613841846706f05b59d3b2000061453c565b61384b9190614391565b9050600061386182670de0b6b3a764000061459a565b9050670de0b6b3a76400008e6138778a8461453c565b613881919061453c565b61388b9190614391565b670de0b6b3a76400008e61377f8b8661453c565b9550959350505050565b63ffffffff8216600090815261019260209081526040808320848452909152812054612d57904261459a565b606083156138e4575081612d57565b8251156138f45782518084602001fd5b8160405162461bcd60e51b8152600401610bb79190614261565b600084156139855763ffffffff86166000908152610192602090815260408083208684529091528082206001908101548584529183200154613950919061459a565b90506cd73d4c35b9df8aa7d6c3003573602c1b61396d878361453c565b6139779190614391565b6139819083614323565b9150505b8315612ee55763ffffffff861660009081526101926020908152604080832086845290915280822060029081015485845291832001546139c5919061459a565b90506cd73d4c35b9df8aa7d6c3003573602c1b6139e2868361453c565b6139ec9190614391565b6139f69083614323565b979650505050505050565b600054610100900460ff1680613a1a575060005460ff16155b613a365760405162461bcd60e51b8152600401610bb790614294565b600054610100900460ff161580156134c5576000805461ffff19166101011790558015610bf2576000805461ff001916905550565b6000806000613a7984613b2e565b91509150670de0b6b3a7640000811015613aa357634e487b7160e01b600052600160045260246000fd5b63ffffffff841660009081526101926020908152604080832083805290915290205482613ad0824261459a565b1015613b1b5782613ae1824261459a565b613af3670de0b6b3a76400008561459a565b613afd919061453c565b613b079190614391565b613b11908361459a565b9350505050610ac5565b670de0b6b3a76400009350505050610ac5565b63ffffffff8116600090815261012e602090815260408083205461012f90925290912054670de0b6b3a7640000811015613b6d5750670de0b6b3a76400005b915091565b80356001600160a01b0381168114610ac557600080fd5b60008083601f840112613b9a578081fd5b50813567ffffffffffffffff811115613bb1578182fd5b6020830191508360208260051b8501011115613bcc57600080fd5b9250929050565b803563ffffffff81168114610ac557600080fd5b600060208284031215613bf8578081fd5b612d5782613b72565b60008060408385031215613c13578081fd5b613c1c83613b72565b9150613c2a60208401613b72565b90509250929050565b600080600080600080600080610100898b031215613c4f578384fd5b613c5889613b72565b9750613c6660208a01613b72565b9650613c7460408a01613b72565b9550613c8260608a01613b72565b9450613c9060808a01613b72565b9350613c9e60a08a01613b72565b925060c08901359150613cb360e08a01613b72565b90509295985092959890939650565b60008060408385031215613cd4578182fd5b613cdd83613b72565b9150602083013567ffffffffffffffff80821115613cf9578283fd5b818501915085601f830112613d0c578283fd5b813581811115613d1e57613d1e614655565b604051601f8201601f19908116603f01168101908382118183101715613d4657613d46614655565b81604052828152886020848701011115613d5e578586fd5b82602086016020830137856020848301015280955050505050509250929050565b60008060408385031215613d91578182fd5b613d9a83613b72565b946020939093013593505050565b60008060208385031215613dba578182fd5b823567ffffffffffffffff811115613dd0578283fd5b613ddc85828601613b89565b90969095509350505050565b600080600060408486031215613dfc578283fd5b833567ffffffffffffffff811115613e12578384fd5b613e1e86828701613b89565b9094509250613e31905060208501613b72565b90509250925092565b600060208284031215613e4b578081fd5b8151612d578161466b565b600060208284031215613e67578081fd5b5035919050565b60008060408385031215613e80578182fd5b82359150613c2a60208401613b72565b600060208284031215613ea1578081fd5b81356001600160e01b031981168114612d57578182fd5b600060208284031215613ec9578081fd5b5051919050565b600080600060608486031215613ee4578081fd5b83359250613ef460208501613bd3565b91506040840135613f048161466b565b809150509250925092565b600060208284031215613f20578081fd5b612d5782613bd3565b60008060408385031215613f3b578182fd5b613c1c83613bd3565b600080600080600080600080610100898b031215613f60578182fd5b613f6989613bd3565b9750613f7760208a01613b72565b9650613f8560408a01613b72565b979a96995096976060810135975060808101359660a0820135965060c0820135955060e0909101359350915050565b60008060408385031215613fc6578182fd5b613fcf83613bd3565b91506020830135613fdf8161466b565b809150509250929050565b600080600060608486031215613ffe578081fd5b61400784613bd3565b925060208401356140178161466b565b9150613e3160408501613b72565b600080600060608486031215614039578081fd5b61404284613bd3565b925060208401356140528161466b565b929592945050506040919091013590565b60008060008060008060008060006101208a8c031215614081578283fd5b61408a8a613bd3565b985060208a013561409a8161466b565b975060408a0135965060608a0135955060808a0135945060a08a0135935060c08a013560ff811681146140cb578384fd5b8093505060e08a013591506101008a013590509295985092959850929598565b600080604083850312156140fd578182fd5b613d9a83613bd3565b6000806000806080858703121561411b578182fd5b61412485613bd3565b966020860135965060408601359560600135945092505050565b60008060008060008060c08789031215614156578384fd5b61415f87613bd3565b9860208801359850604088013597606081013597506080810135965060a00135945092505050565b600082516141998184602087016145b1565b9190910192915050565b60007f416363657373436f6e74726f6c3a206163636f756e7420000000000000000000825283516141db8160178501602088016145b1565b7001034b99036b4b9b9b4b733903937b6329607d1b601791840191820152835161420c8160288401602088016145b1565b01602801949350505050565b60208082528181018390526000908460408401835b868110156142565763ffffffff61424384613bd3565b168252918301919083019060010161422d565b509695505050505050565b60006020825282518060208401526142808160408501602087016145b1565b601f01601f19169190910160400192915050565b6020808252602e908201527f496e697469616c697a61626c653a20636f6e747261637420697320616c72656160408201526d191e481a5b9a5d1a585b1a5e995960921b606082015260800190565b600080821280156001600160ff1b038490038513161561430457614304614629565b600160ff1b839003841281161561431d5761431d614629565b50500190565b6000821982111561433657614336614629565b500190565b600063ffffffff80831681851680830382111561435a5761435a614629565b01949350505050565b6000826143725761437261463f565b600160ff1b82146000198414161561438c5761438c614629565b500590565b6000826143a0576143a061463f565b500490565b80825b60018086116143b757506143e2565b8187048211156143c9576143c9614629565b808616156143d657918102915b9490941c9380026143a8565b94509492505050565b6000612d57600019848460008261440457506001612d57565b8161441157506000612d57565b816001811461442757600281146144315761445e565b6001915050612d57565b60ff84111561444257614442614629565b6001841b91508482111561445857614458614629565b50612d57565b5060208310610133831016604e8410600b8410161715614491575081810a8381111561448c5761448c614629565b612d57565b61449e84848460016143a5565b8086048211156144b0576144b0614629565b02949350505050565b60006001600160ff1b03818413828413808216868404861116156144df576144df614629565b600160ff1b848712828116878305891216156144fd576144fd614629565b85871292508782058712848416161561451857614518614629565b8785058712818416161561452e5761452e614629565b505050929093029392505050565b600081600019048311821515161561455657614556614629565b500290565b60008083128015600160ff1b85018412161561457957614579614629565b6001600160ff1b038401831381161561459457614594614629565b50500390565b6000828210156145ac576145ac614629565b500390565b60005b838110156145cc5781810151838201526020016145b4565b838111156119d25750506000910152565b6000816145ec576145ec614629565b506000190190565b600060001982141561460857614608614629565b5060010190565b6000600160ff1b82141561462557614625614629565b0390565b634e487b7160e01b600052601160045260246000fd5b634e487b7160e01b600052601260045260246000fd5b634e487b7160e01b600052604160045260246000fd5b8015158114610bf257600080fdfe416464726573733a206c6f772d6c6576656c2064656c65676174652063616c6c206661696c6564a2646970667358221220b175c49c6bf4f04d46105468d1265f2a92d0e33399c8a2812fa6620a61cf51d064736f6c63430008030033",
  "devdoc": {
    "kind": "dev",
    "methods": {
      "addNewStakingFund(uint32,address,address,uint256,uint256,uint256,uint256,int256)": {
        "params": {
          "_balanceIncentiveCurve_equilibriumOffset": "Offset for balance curve (see _calculateFloatPerSecond)",
          "_balanceIncentiveCurve_exponent": "Exponent for balance curve (see _calculateFloatPerSecond)",
          "kInitialMultiplier": "Initial boost on float generation for the market.",
          "kPeriod": "Period which the boost should last.",
          "longToken": "Address of the long token for the market.",
          "marketIndex": "Identifies the market.",
          "shortToken": "Address of the short token for the market.",
          "unstakeFee_e18": "Percentage of tokens that are levied on unstaking in base 1e18."
        }
      },
      "changeBalanceIncentiveParameters(uint32,uint256,int256,uint256)": {
        "params": {
          "_balanceIncentiveCurve_equilibriumOffset": "The new offset.",
          "_balanceIncentiveCurve_exponent": "The new exponent for the curve.",
          "_safeExponentBitShifting": "The new bitshifting applied to the curve.",
          "marketIndex": "Identifies the market."
        }
      },
      "changeFloatPercentage(uint256)": {
        "params": {
          "newFloatPercentage": "The new float percentage in base 1e18."
        }
      },
      "changeUnstakeFee(uint32,uint256)": {
        "params": {
          "marketIndex": "Identifies the market.",
          "newMarketUnstakeFee_e18": "The new unstake fee."
        }
      },
      "claimFloatCustom(uint32[])": {
        "params": {
          "marketIndexes": "Identifiers for the markets for which to mint float."
        }
      },
      "claimFloatCustomFor(uint32[],address)": {
        "params": {
          "marketIndexes": "Identifiers for the markets for which to mint float.",
          "user": "The address of the user."
        }
      },
      "getRoleAdmin(bytes32)": {
        "details": "Returns the admin role that controls `role`. See {grantRole} and {revokeRole}. To change a role's admin, use {_setRoleAdmin}."
      },
      "grantRole(bytes32,address)": {
        "details": "Grants `role` to `account`. If `account` had not been already granted `role`, emits a {RoleGranted} event. Requirements: - the caller must have ``role``'s admin role."
      },
      "hasRole(bytes32,address)": {
        "details": "Returns `true` if `account` has been granted `role`."
      },
      "initialize(address,address,address,address,address,address,uint256,address)": {
        "details": "Calls OpenZeppelin's initializer modifier.",
        "params": {
          "_admin": "Address of the admin role.",
          "_floatCapital": "Address of the contract which earns a fixed percentage of Float.",
          "_floatPercentage": "Determines the float percentage that gets minted for Float Capital, base 1e18.",
          "_floatToken": "Address of the Float token earned by staking.",
          "_floatTreasury": "Address of the treasury contract for managing fees.",
          "_longShort": "Address of the LongShort contract, a deployed LongShort.sol"
        }
      },
      "pushUpdatedMarketPricesToUpdateFloatIssuanceCalculations(uint32,uint256,uint256,uint256,uint256,uint256)": {
        "params": {
          "longPrice": "The price of the long token as defined in LongShort.sol",
          "longValue": "The value locked in the long side of the market.",
          "marketIndex": "An identifier for the market.",
          "marketUpdateIndex": "Current update index in the LongShort contract for this market.",
          "shortPrice": "The price of the short token as defined in LongShort.sol",
          "shortValue": "The value locked in the short side of the market."
        }
      },
      "renounceRole(bytes32,address)": {
        "details": "Revokes `role` from the calling account. Roles are often managed via {grantRole} and {revokeRole}: this function's purpose is to provide a mechanism for accounts to lose their privileges if they are compromised (such as when a trusted device is misplaced). If the calling account had been granted `role`, emits a {RoleRevoked} event. Requirements: - the caller must be `account`."
      },
      "revokeRole(bytes32,address)": {
        "details": "Revokes `role` from `account`. If `account` had been granted `role`, emits a {RoleRevoked} event. Requirements: - the caller must have ``role``'s admin role."
      },
      "shiftTokens(uint256,uint32,bool)": {
        "params": {
          "amountSyntheticTokensToShift": "Amount of tokens to shift.",
          "isShiftFromLong": "Whether the shift is from long to short or short to long.",
          "marketIndex": "Identifier for the market."
        }
      },
      "stakeFromUser(address,uint256)": {
        "params": {
          "amount": "Amount to stake.",
          "from": "Address to stake for."
        }
      },
      "supportsInterface(bytes4)": {
        "details": "See {IERC165-supportsInterface}."
      },
      "upgradeTo(address)": {
        "details": "Upgrade the implementation of the proxy to `newImplementation`. Calls {_authorizeUpgrade}. Emits an {Upgraded} event."
      },
      "upgradeToAndCall(address,bytes)": {
        "details": "Upgrade the implementation of the proxy to `newImplementation`, and subsequently execute the function call encoded in `data`. Calls {_authorizeUpgrade}. Emits an {Upgraded} event."
      },
      "withdraw(uint32,bool,uint256)": {
        "params": {
          "amount": "Amount to withdraw.",
          "isWithdrawFromLong": "is synthetic token to be withdrawn long or short",
          "marketIndex": "Market index of staked synthetic token"
        }
      },
      "withdrawAll(uint32,bool)": {
        "params": {
          "isWithdrawFromLong": "is synthetic token to be withdrawn long or short",
          "marketIndex": "Market index of staked synthetic token"
        }
      }
    },
    "stateVariables": {
      "userNextPrice_amountStakedSyntheticToken_toShiftAwayFrom": {
        "details": "marketIndex => usersAddress => amountUserRequestedToShiftAwayFromLongOnNextUpdate"
      },
      "userNextPrice_paymentToken_depositAmount": {
        "details": "marketIndex => usersAddress => stakedActionIndex"
      },
      "userNextPrice_stakedActionIndex": {
        "details": "marketIndex => usersAddress => stakedActionIndex"
      }
    },
    "version": 1
  },
  "userdoc": {
    "kind": "user",
    "methods": {
      "addNewStakingFund(uint32,address,address,uint256,uint256,uint256,uint256,int256)": {
        "notice": "Sets this contract to track staking for a market in LongShort.sol"
      },
      "changeBalanceIncentiveParameters(uint32,uint256,int256,uint256)": {
        "notice": "Changes the balance incentive exponent for a market"
      },
      "changeFloatPercentage(uint256)": {
        "notice": "Changes percentage of float that is minted for float capital."
      },
      "changeUnstakeFee(uint32,uint256)": {
        "notice": "Changes unstake fee for a market"
      },
      "claimFloatCustom(uint32[])": {
        "notice": "Mints outstanding float for msg.sender."
      },
      "claimFloatCustomFor(uint32[],address)": {
        "notice": "Mints outstanding float on behalf of another user."
      },
      "initialize(address,address,address,address,address,address,uint256,address)": {
        "notice": "Initializes the contract."
      },
      "pushUpdatedMarketPricesToUpdateFloatIssuanceCalculations(uint32,uint256,uint256,uint256,uint256,uint256)": {
        "notice": "Adds new accumulativeIssuancePerStakedSynthSnapshots for the given long/short tokens. Called by the ILongShort contract whenever there is a state change for a market."
      },
      "shiftTokens(uint256,uint32,bool)": {
        "notice": "Allows users to shift their staked tokens from one side of the market to the other at the next price."
      },
      "stakeFromUser(address,uint256)": {
        "notice": "A user with synthetic tokens stakes by calling stake on the token contract which calls this function. We need to first update the state of the LongShort contract for this market before staking to correctly calculate user rewards."
      },
      "withdraw(uint32,bool,uint256)": {
        "notice": "Withdraw function. Allows users to unstake."
      },
      "withdrawAll(uint32,bool)": {
        "notice": "Allows users to withdraw their entire stake for a token."
      }
    },
    "version": 1
  },
  "storageLayout": {
    "storage": [
      {
        "astId": 1102,
        "contract": "contracts/Staker.sol:Staker",
        "label": "_initialized",
        "offset": 0,
        "slot": "0",
        "type": "t_bool"
      },
      {
        "astId": 1105,
        "contract": "contracts/Staker.sol:Staker",
        "label": "_initializing",
        "offset": 1,
        "slot": "0",
        "type": "t_bool"
      },
      {
        "astId": 3537,
        "contract": "contracts/Staker.sol:Staker",
        "label": "__gap",
        "offset": 0,
        "slot": "1",
        "type": "t_array(t_uint256)50_storage"
      },
      {
        "astId": 4436,
        "contract": "contracts/Staker.sol:Staker",
        "label": "__gap",
        "offset": 0,
        "slot": "51",
        "type": "t_array(t_uint256)50_storage"
      },
      {
        "astId": 304,
        "contract": "contracts/Staker.sol:Staker",
        "label": "_roles",
        "offset": 0,
        "slot": "101",
        "type": "t_mapping(t_bytes32,t_struct(RoleData)299_storage)"
      },
      {
        "astId": 589,
        "contract": "contracts/Staker.sol:Staker",
        "label": "__gap",
        "offset": 0,
        "slot": "102",
        "type": "t_array(t_uint256)49_storage"
      },
      {
        "astId": 1085,
        "contract": "contracts/Staker.sol:Staker",
        "label": "__gap",
        "offset": 0,
        "slot": "151",
        "type": "t_array(t_uint256)50_storage"
      },
      {
        "astId": 1218,
        "contract": "contracts/Staker.sol:Staker",
        "label": "__gap",
        "offset": 0,
        "slot": "201",
        "type": "t_array(t_uint256)50_storage"
      },
      {
        "astId": 13326,
        "contract": "contracts/Staker.sol:Staker",
        "label": "floatCapital",
        "offset": 0,
        "slot": "251",
        "type": "t_address"
      },
      {
        "astId": 13328,
        "contract": "contracts/Staker.sol:Staker",
        "label": "floatTreasury",
        "offset": 0,
        "slot": "252",
        "type": "t_address"
      },
      {
        "astId": 13330,
        "contract": "contracts/Staker.sol:Staker",
        "label": "floatPercentage",
        "offset": 0,
        "slot": "253",
        "type": "t_uint256"
      },
      {
        "astId": 13332,
        "contract": "contracts/Staker.sol:Staker",
        "label": "longShort",
        "offset": 0,
        "slot": "254",
        "type": "t_address"
      },
      {
        "astId": 13334,
        "contract": "contracts/Staker.sol:Staker",
        "label": "floatToken",
        "offset": 0,
        "slot": "255",
        "type": "t_address"
      },
      {
        "astId": 13336,
        "contract": "contracts/Staker.sol:Staker",
        "label": "gems",
        "offset": 0,
        "slot": "256",
        "type": "t_address"
      },
      {
        "astId": 13340,
        "contract": "contracts/Staker.sol:Staker",
        "label": "__globalStateGap",
        "offset": 0,
        "slot": "257",
        "type": "t_array(t_uint256)45_storage"
      },
      {
        "astId": 13344,
        "contract": "contracts/Staker.sol:Staker",
        "label": "marketLaunchIncentive_period",
        "offset": 0,
        "slot": "302",
        "type": "t_mapping(t_uint32,t_uint256)"
      },
      {
        "astId": 13348,
        "contract": "contracts/Staker.sol:Staker",
        "label": "marketLaunchIncentive_multipliers",
        "offset": 0,
        "slot": "303",
        "type": "t_mapping(t_uint32,t_uint256)"
      },
      {
        "astId": 13352,
        "contract": "contracts/Staker.sol:Staker",
        "label": "marketUnstakeFee_e18",
        "offset": 0,
        "slot": "304",
        "type": "t_mapping(t_uint32,t_uint256)"
      },
      {
        "astId": 13356,
        "contract": "contracts/Staker.sol:Staker",
        "label": "balanceIncentiveCurve_exponent",
        "offset": 0,
        "slot": "305",
        "type": "t_mapping(t_uint32,t_uint256)"
      },
      {
        "astId": 13360,
        "contract": "contracts/Staker.sol:Staker",
        "label": "balanceIncentiveCurve_equilibriumOffset",
        "offset": 0,
        "slot": "306",
        "type": "t_mapping(t_uint32,t_int256)"
      },
      {
        "astId": 13364,
        "contract": "contracts/Staker.sol:Staker",
        "label": "safeExponentBitShifting",
        "offset": 0,
        "slot": "307",
        "type": "t_mapping(t_uint32,t_uint256)"
      },
      {
        "astId": 13370,
        "contract": "contracts/Staker.sol:Staker",
        "label": "syntheticTokens",
        "offset": 0,
        "slot": "308",
        "type": "t_mapping(t_uint32,t_mapping(t_bool,t_address))"
      },
      {
        "astId": 13374,
        "contract": "contracts/Staker.sol:Staker",
        "label": "__marketStateGap",
        "offset": 0,
        "slot": "309",
        "type": "t_array(t_uint256)45_storage"
      },
      {
        "astId": 13378,
        "contract": "contracts/Staker.sol:Staker",
        "label": "marketIndexOfToken",
        "offset": 0,
        "slot": "354",
        "type": "t_mapping(t_address,t_uint32)"
      },
      {
        "astId": 13382,
        "contract": "contracts/Staker.sol:Staker",
        "label": "userNonce",
        "offset": 0,
        "slot": "355",
        "type": "t_mapping(t_address,t_uint32)"
      },
      {
        "astId": 13386,
        "contract": "contracts/Staker.sol:Staker",
        "label": "__synthStateGap",
        "offset": 0,
        "slot": "356",
        "type": "t_array(t_uint256)45_storage"
      },
      {
        "astId": 13390,
        "contract": "contracts/Staker.sol:Staker",
        "label": "latestRewardIndex",
        "offset": 0,
        "slot": "401",
        "type": "t_mapping(t_uint32,t_uint256)"
      },
      {
        "astId": 13397,
        "contract": "contracts/Staker.sol:Staker",
        "label": "accumulativeFloatPerSyntheticTokenSnapshots",
        "offset": 0,
        "slot": "402",
        "type": "t_mapping(t_uint32,t_mapping(t_uint256,t_struct(AccumulativeIssuancePerStakedSynthSnapshot)13404_storage))"
      },
      {
        "astId": 13408,
        "contract": "contracts/Staker.sol:Staker",
        "label": "__rewardStateGap",
        "offset": 0,
        "slot": "403",
        "type": "t_array(t_uint256)45_storage"
      },
      {
        "astId": 13414,
        "contract": "contracts/Staker.sol:Staker",
        "label": "userIndexOfLastClaimedReward",
        "offset": 0,
        "slot": "448",
        "type": "t_mapping(t_uint32,t_mapping(t_address,t_uint256))"
      },
      {
        "astId": 13421,
        "contract": "contracts/Staker.sol:Staker",
        "label": "userAmountStaked",
        "offset": 0,
        "slot": "449",
        "type": "t_mapping(t_address,t_mapping(t_address,t_uint256))"
      },
      {
        "astId": 13425,
        "contract": "contracts/Staker.sol:Staker",
        "label": "__userStateGap",
        "offset": 0,
        "slot": "450",
        "type": "t_array(t_uint256)45_storage"
      },
      {
        "astId": 13432,
        "contract": "contracts/Staker.sol:Staker",
        "label": "userNextPrice_stakedActionIndex",
        "offset": 0,
        "slot": "495",
        "type": "t_mapping(t_uint32,t_mapping(t_address,t_uint256))"
      },
      {
        "astId": 13441,
        "contract": "contracts/Staker.sol:Staker",
        "label": "userNextPrice_amountStakedSyntheticToken_toShiftAwayFrom",
        "offset": 0,
        "slot": "496",
        "type": "t_mapping(t_uint32,t_mapping(t_bool,t_mapping(t_address,t_uint256)))"
      },
      {
        "astId": 13450,
        "contract": "contracts/Staker.sol:Staker",
        "label": "userNextPrice_paymentToken_depositAmount",
        "offset": 0,
        "slot": "497",
        "type": "t_mapping(t_uint32,t_mapping(t_bool,t_mapping(t_address,t_uint256)))"
      }
    ],
    "types": {
      "t_address": {
        "encoding": "inplace",
        "label": "address",
        "numberOfBytes": "20"
      },
      "t_array(t_uint256)45_storage": {
        "base": "t_uint256",
        "encoding": "inplace",
        "label": "uint256[45]",
        "numberOfBytes": "1440"
      },
      "t_array(t_uint256)49_storage": {
        "base": "t_uint256",
        "encoding": "inplace",
        "label": "uint256[49]",
        "numberOfBytes": "1568"
      },
      "t_array(t_uint256)50_storage": {
        "base": "t_uint256",
        "encoding": "inplace",
        "label": "uint256[50]",
        "numberOfBytes": "1600"
      },
      "t_bool": {
        "encoding": "inplace",
        "label": "bool",
        "numberOfBytes": "1"
      },
      "t_bytes32": {
        "encoding": "inplace",
        "label": "bytes32",
        "numberOfBytes": "32"
      },
      "t_int256": {
        "encoding": "inplace",
        "label": "int256",
        "numberOfBytes": "32"
      },
      "t_mapping(t_address,t_bool)": {
        "encoding": "mapping",
        "key": "t_address",
        "label": "mapping(address => bool)",
        "numberOfBytes": "32",
        "value": "t_bool"
      },
      "t_mapping(t_address,t_mapping(t_address,t_uint256))": {
        "encoding": "mapping",
        "key": "t_address",
        "label": "mapping(address => mapping(address => uint256))",
        "numberOfBytes": "32",
        "value": "t_mapping(t_address,t_uint256)"
      },
      "t_mapping(t_address,t_uint256)": {
        "encoding": "mapping",
        "key": "t_address",
        "label": "mapping(address => uint256)",
        "numberOfBytes": "32",
        "value": "t_uint256"
      },
      "t_mapping(t_address,t_uint32)": {
        "encoding": "mapping",
        "key": "t_address",
        "label": "mapping(address => uint32)",
        "numberOfBytes": "32",
        "value": "t_uint32"
      },
      "t_mapping(t_bool,t_address)": {
        "encoding": "mapping",
        "key": "t_bool",
        "label": "mapping(bool => address)",
        "numberOfBytes": "32",
        "value": "t_address"
      },
      "t_mapping(t_bool,t_mapping(t_address,t_uint256))": {
        "encoding": "mapping",
        "key": "t_bool",
        "label": "mapping(bool => mapping(address => uint256))",
        "numberOfBytes": "32",
        "value": "t_mapping(t_address,t_uint256)"
      },
      "t_mapping(t_bytes32,t_struct(RoleData)299_storage)": {
        "encoding": "mapping",
        "key": "t_bytes32",
        "label": "mapping(bytes32 => struct AccessControlUpgradeable.RoleData)",
        "numberOfBytes": "32",
        "value": "t_struct(RoleData)299_storage"
      },
      "t_mapping(t_uint256,t_struct(AccumulativeIssuancePerStakedSynthSnapshot)13404_storage)": {
        "encoding": "mapping",
        "key": "t_uint256",
        "label": "mapping(uint256 => struct Staker.AccumulativeIssuancePerStakedSynthSnapshot)",
        "numberOfBytes": "32",
        "value": "t_struct(AccumulativeIssuancePerStakedSynthSnapshot)13404_storage"
      },
      "t_mapping(t_uint32,t_int256)": {
        "encoding": "mapping",
        "key": "t_uint32",
        "label": "mapping(uint32 => int256)",
        "numberOfBytes": "32",
        "value": "t_int256"
      },
      "t_mapping(t_uint32,t_mapping(t_address,t_uint256))": {
        "encoding": "mapping",
        "key": "t_uint32",
        "label": "mapping(uint32 => mapping(address => uint256))",
        "numberOfBytes": "32",
        "value": "t_mapping(t_address,t_uint256)"
      },
      "t_mapping(t_uint32,t_mapping(t_bool,t_address))": {
        "encoding": "mapping",
        "key": "t_uint32",
        "label": "mapping(uint32 => mapping(bool => address))",
        "numberOfBytes": "32",
        "value": "t_mapping(t_bool,t_address)"
      },
      "t_mapping(t_uint32,t_mapping(t_bool,t_mapping(t_address,t_uint256)))": {
        "encoding": "mapping",
        "key": "t_uint32",
        "label": "mapping(uint32 => mapping(bool => mapping(address => uint256)))",
        "numberOfBytes": "32",
        "value": "t_mapping(t_bool,t_mapping(t_address,t_uint256))"
      },
      "t_mapping(t_uint32,t_mapping(t_uint256,t_struct(AccumulativeIssuancePerStakedSynthSnapshot)13404_storage))": {
        "encoding": "mapping",
        "key": "t_uint32",
        "label": "mapping(uint32 => mapping(uint256 => struct Staker.AccumulativeIssuancePerStakedSynthSnapshot))",
        "numberOfBytes": "32",
        "value": "t_mapping(t_uint256,t_struct(AccumulativeIssuancePerStakedSynthSnapshot)13404_storage)"
      },
      "t_mapping(t_uint32,t_uint256)": {
        "encoding": "mapping",
        "key": "t_uint32",
        "label": "mapping(uint32 => uint256)",
        "numberOfBytes": "32",
        "value": "t_uint256"
      },
      "t_struct(AccumulativeIssuancePerStakedSynthSnapshot)13404_storage": {
        "encoding": "inplace",
        "label": "struct Staker.AccumulativeIssuancePerStakedSynthSnapshot",
        "members": [
          {
            "astId": 13399,
            "contract": "contracts/Staker.sol:Staker",
            "label": "timestamp",
            "offset": 0,
            "slot": "0",
            "type": "t_uint256"
          },
          {
            "astId": 13401,
            "contract": "contracts/Staker.sol:Staker",
            "label": "accumulativeFloatPerSyntheticToken_long",
            "offset": 0,
            "slot": "1",
            "type": "t_uint256"
          },
          {
            "astId": 13403,
            "contract": "contracts/Staker.sol:Staker",
            "label": "accumulativeFloatPerSyntheticToken_short",
            "offset": 0,
            "slot": "2",
            "type": "t_uint256"
          }
        ],
        "numberOfBytes": "96"
      },
      "t_struct(RoleData)299_storage": {
        "encoding": "inplace",
        "label": "struct AccessControlUpgradeable.RoleData",
        "members": [
          {
            "astId": 296,
            "contract": "contracts/Staker.sol:Staker",
            "label": "members",
            "offset": 0,
            "slot": "0",
            "type": "t_mapping(t_address,t_bool)"
          },
          {
            "astId": 298,
            "contract": "contracts/Staker.sol:Staker",
            "label": "adminRole",
            "offset": 0,
            "slot": "1",
            "type": "t_bytes32"
          }
        ],
        "numberOfBytes": "64"
      },
      "t_uint256": {
        "encoding": "inplace",
        "label": "uint256",
        "numberOfBytes": "32"
      },
      "t_uint32": {
        "encoding": "inplace",
        "label": "uint32",
        "numberOfBytes": "4"
      }
    }
  }
}