{
  "address": "0x1334926dD7735ff52017187061e03C2172dd98CE",
  "abi": [
    {
      "inputs": [
        {
          "internalType": "address",
          "name": "_longShort",
          "type": "address"
        }
      ],
      "stateMutability": "nonpayable",
      "type": "constructor"
    },
    {
      "inputs": [
        {
          "internalType": "string",
          "name": "syntheticName",
          "type": "string"
        },
        {
          "internalType": "string",
          "name": "syntheticSymbol",
          "type": "string"
        },
        {
          "internalType": "address",
          "name": "staker",
          "type": "address"
        },
        {
          "internalType": "uint32",
          "name": "marketIndex",
          "type": "uint32"
        },
        {
          "internalType": "bool",
          "name": "isLong",
          "type": "bool"
        }
      ],
      "name": "createSyntheticToken",
      "outputs": [
        {
          "internalType": "address",
          "name": "syntheticToken",
          "type": "address"
        }
      ],
      "stateMutability": "nonpayable",
      "type": "function"
    },
    {
      "inputs": [],
      "name": "longShort",
      "outputs": [
        {
          "internalType": "address",
          "name": "",
          "type": "address"
        }
      ],
      "stateMutability": "view",
      "type": "function"
    }
  ],
  "transactionHash": "0xd7349f94057818e660913787b7945e6c6bb8282c6773cdfa305cd7c34b5f2264",
  "args": [
    "0x4E95db55dbF56ebfebB58090b968b118491800A8"
  ],
  "solcInputHash": "9579e97d8e3309f43c75fdbfb23b7abd",
  "bytecode": "0x60a060405234801561001057600080fd5b5060405161282d38038061282d83398101604081905261002f91610040565b6001600160a01b0316608052610070565b60006020828403121561005257600080fd5b81516001600160a01b038116811461006957600080fd5b9392505050565b608051612797610096600039600081816040015281816099015260c901526127976000f3fe608060405234801561001057600080fd5b50600436106100365760003560e01c8063299498721461003b578063e6d304671461007e575b600080fd5b6100627f000000000000000000000000000000000000000000000000000000000000000081565b6040516001600160a01b03909116815260200160405180910390f35b61006261008c36600461019c565b6000336001600160a01b037f000000000000000000000000000000000000000000000000000000000000000016146100c357600080fd5b878787877f00000000000000000000000000000000000000000000000000000000000000008888886040516100f790610131565b61010898979695949392919061027f565b604051809103906000f080158015610124573d6000803e3d6000fd5b5098975050505050505050565b612482806102e083390190565b60008083601f84011261015057600080fd5b50813567ffffffffffffffff81111561016857600080fd5b60208301915083602082850101111561018057600080fd5b9250929050565b8035801515811461019757600080fd5b919050565b600080600080600080600060a0888a0312156101b757600080fd5b873567ffffffffffffffff808211156101cf57600080fd5b6101db8b838c0161013e565b909950975060208a01359150808211156101f457600080fd5b506102018a828b0161013e565b90965094505060408801356001600160a01b038116811461022157600080fd5b9250606088013563ffffffff8116811461023a57600080fd5b915061024860808901610187565b905092959891949750929550565b81835281816020850137506000828201602090810191909152601f909101601f19169091010190565b60c08152600061029360c083018a8c610256565b82810360208401526102a681898b610256565b6001600160a01b0397881660408501529590961660608301525063ffffffff929092166080830152151560a0909101529594505050505056fe6101e06040527f6e71edae12b1b97f4d1f60370fef10105fa2faae0126114a169c64845d6126c9610140523480156200003757600080fd5b5060405162002482380380620024828339810160408190526200005a91620003eb565b8580604051806040016040528060018152602001603160f81b81525088888160039080519060200190620000909291906200025b565b508051620000a69060049060208401906200025b565b5050825160208085019190912083518483012060e08290526101008190524660a0818152604080517f8b73c3c69bb8fe3d512ecc4cf759cc79239f7b179b0ffacaa9a75d522b39400f81880181905281830187905260608201869052608082019490945230818401528151808203909301835260c0019052805194019390932091935091906080523060c05261012052505050506001600160a01b03858116610160528416610180525063ffffffff82166101a0528015156101c0526200016f600085620001a7565b6200019b7f9f2df0fed2c77648de5860a4cc508cd0818c85b8b8a1ab4ceeef8d981c8956a685620001a7565b505050505050620004ee565b620001b38282620001b7565b5050565b60008281526005602090815260408083206001600160a01b038516845290915290205460ff16620001b35760008281526005602090815260408083206001600160a01b03851684529091529020805460ff19166001179055620002173390565b6001600160a01b0316816001600160a01b0316837f2f8788117e7eff1d82e926ec794901d17c78024a50270940304540a733656f0d60405160405180910390a45050565b8280546200026990620004b1565b90600052602060002090601f0160209004810192826200028d5760008555620002d8565b82601f10620002a857805160ff1916838001178555620002d8565b82800160010185558215620002d8579182015b82811115620002d8578251825591602001919060010190620002bb565b50620002e6929150620002ea565b5090565b5b80821115620002e65760008155600101620002eb565b634e487b7160e01b600052604160045260246000fd5b600082601f8301126200032957600080fd5b81516001600160401b038082111562000346576200034662000301565b604051601f8301601f19908116603f0116810190828211818310171562000371576200037162000301565b816040528381526020925086838588010111156200038e57600080fd5b600091505b83821015620003b2578582018301518183018401529082019062000393565b83821115620003c45760008385830101525b9695505050505050565b80516001600160a01b0381168114620003e657600080fd5b919050565b60008060008060008060c087890312156200040557600080fd5b86516001600160401b03808211156200041d57600080fd5b6200042b8a838b0162000317565b975060208901519150808211156200044257600080fd5b506200045189828a0162000317565b9550506200046260408801620003ce565b93506200047260608801620003ce565b9250608087015163ffffffff811681146200048c57600080fd5b60a08801519092508015158114620004a357600080fd5b809150509295509295509295565b600181811c90821680620004c657607f821691505b60208210811415620004e857634e487b7160e01b600052602260045260246000fd5b50919050565b60805160a05160c05160e05161010051610120516101405161016051610180516101a0516101c051611ec0620005c26000396000818161024a01526108570152600081816103be01528181610830015261163601526000818161035e01528181610a8a0152610acb0152600081816102a7015281816105ca0152818161060f0152818161079201528181610882015281816115db015261165d01526000610b92015260006111e5015260006112340152600061120f0152600061116801526000611192015260006111bc0152611ec06000f3fe608060405234801561001057600080fd5b50600436106101da5760003560e01c80635ebaf1db11610104578063a217fddf116100a2578063d505accf11610071578063d505accf14610451578063d539139314610464578063d547741f1461048b578063dd62ed3e1461049e57600080fd5b8063a217fddf14610410578063a457c2d714610418578063a694fc3a1461042b578063a9059cbb1461043e57600080fd5b80637ecebe00116100de5780637ecebe00146103a65780638c7adc15146103b957806391d14854146103f557806395d89b411461040857600080fd5b80635ebaf1db1461035957806370a082311461038057806379cc67901461039357600080fd5b8063299498721161017c57806336568abe1161014b57806336568abe1461030d578063395093511461032057806340c10f191461033357806342966c681461034657600080fd5b806329949872146102a25780632f2ff15d146102e1578063313ce567146102f65780633644e5151461030557600080fd5b806318160ddd116101b857806318160ddd1461022f578063202a61a11461024557806323b872dd1461026c578063248a9ca31461027f57600080fd5b806301ffc9a7146101df57806306fdde0314610207578063095ea7b31461021c575b600080fd5b6101f26101ed366004611b02565b6104d7565b60405190151581526020015b60405180910390f35b61020f61050e565b6040516101fe9190611b58565b6101f261022a366004611ba7565b6105a0565b6102376105b6565b6040519081526020016101fe565b6101f27f000000000000000000000000000000000000000000000000000000000000000081565b6101f261027a366004611bd1565b6105c6565b61023761028d366004611c0d565b60009081526005602052604090206001015490565b6102c97f000000000000000000000000000000000000000000000000000000000000000081565b6040516001600160a01b0390911681526020016101fe565b6102f46102ef366004611c26565b61065e565b005b604051601281526020016101fe565b610237610689565b6102f461031b366004611c26565b610693565b6101f261032e366004611ba7565b610716565b6102f4610341366004611ba7565b610752565b6102f4610354366004611c0d565b610787565b6102c97f000000000000000000000000000000000000000000000000000000000000000081565b61023761038e366004611c52565b61080c565b6102f46103a1366004611ba7565b610912565b6102376103b4366004611c52565b610993565b6103e07f000000000000000000000000000000000000000000000000000000000000000081565b60405163ffffffff90911681526020016101fe565b6101f2610403366004611c26565b6109b1565b61020f6109dc565b610237600081565b6101f2610426366004611ba7565b6109eb565b6102f4610439366004611c0d565b610a84565b6101f261044c366004611ba7565b610b32565b6102f461045f366004611c6d565b610b3e565b6102377f9f2df0fed2c77648de5860a4cc508cd0818c85b8b8a1ab4ceeef8d981c8956a681565b6102f4610499366004611c26565b610ca2565b6102376104ac366004611ce0565b6001600160a01b03918216600090815260016020908152604080832093909416825291909152205490565b60006001600160e01b03198216637965db0b60e01b148061050857506301ffc9a760e01b6001600160e01b03198316145b92915050565b60606003805461051d90611d0a565b80601f016020809104026020016040519081016040528092919081815260200182805461054990611d0a565b80156105965780601f1061056b57610100808354040283529160200191610596565b820191906000526020600020905b81548152906001019060200180831161057957829003601f168201915b5050505050905090565b60006105ad338484610cc8565b50600192915050565b60006105c160025490565b905090565b60007f00000000000000000000000000000000000000000000000000000000000000006001600160a01b0316836001600160a01b03161480156106315750336001600160a01b037f000000000000000000000000000000000000000000000000000000000000000016145b1561064957610641848484610dec565b506001610657565b610654848484610fc7565b90505b9392505050565b60008281526005602052604090206001015461067a8133611071565b61068483836110d5565b505050565b60006105c161115b565b6001600160a01b03811633146107085760405162461bcd60e51b815260206004820152602f60248201527f416363657373436f6e74726f6c3a2063616e206f6e6c792072656e6f756e636560448201526e103937b632b9903337b91039b2b63360891b60648201526084015b60405180910390fd5b6107128282611282565b5050565b3360008181526001602090815260408083206001600160a01b038716845290915281205490916105ad91859061074d908690611d55565b610cc8565b7f9f2df0fed2c77648de5860a4cc508cd0818c85b8b8a1ab4ceeef8d981c8956a661077d8133611071565b61068483836112e9565b336001600160a01b037f000000000000000000000000000000000000000000000000000000000000000016146107ff5760405162461bcd60e51b815260206004820152601760248201527f4f6e6c79204c6f6e6753686f727420636f6e747261637400000000000000000060448201526064016106ff565b61080933826113d4565b50565b60405163f68a327f60e01b81526001600160a01b03828116600483015263ffffffff7f00000000000000000000000000000000000000000000000000000000000000001660248301527f0000000000000000000000000000000000000000000000000000000000000000151560448301526000917f00000000000000000000000000000000000000000000000000000000000000009091169063f68a327f90606401602060405180830381865afa1580156108cb573d6000803e3d6000fd5b505050506040513d601f19601f820116820180604052508101906108ef9190611d6d565b6001600160a01b0383166000908152602081905260409020546105089190611d55565b600061091e83336104ac565b90508181101561097c5760405162461bcd60e51b8152602060048201526024808201527f45524332303a206275726e20616d6f756e74206578636565647320616c6c6f77604482015263616e636560e01b60648201526084016106ff565b6109898333848403610cc8565b61068483836113d4565b6001600160a01b038116600090815260066020526040812054610508565b60009182526005602090815260408084206001600160a01b0393909316845291905290205460ff1690565b60606004805461051d90611d0a565b3360009081526001602090815260408083206001600160a01b038616845290915281205482811015610a6d5760405162461bcd60e51b815260206004820152602560248201527f45524332303a2064656372656173656420616c6c6f77616e63652062656c6f77604482015264207a65726f60d81b60648201526084016106ff565b610a7a3385858403610cc8565b5060019392505050565b610aaf337f000000000000000000000000000000000000000000000000000000000000000083610dec565b6040516373479edf60e11b8152336004820152602481018290527f00000000000000000000000000000000000000000000000000000000000000006001600160a01b03169063e68f3dbe90604401600060405180830381600087803b158015610b1757600080fd5b505af1158015610b2b573d6000803e3d6000fd5b5050505050565b6000610657838361152e565b83421115610b8e5760405162461bcd60e51b815260206004820152601d60248201527f45524332305065726d69743a206578706972656420646561646c696e6500000060448201526064016106ff565b60007f0000000000000000000000000000000000000000000000000000000000000000888888610bbd8c61153b565b6040805160208101969096526001600160a01b0394851690860152929091166060840152608083015260a082015260c0810186905260e0016040516020818303038152906040528051906020012090506000610c1882611563565b90506000610c28828787876115b1565b9050896001600160a01b0316816001600160a01b031614610c8b5760405162461bcd60e51b815260206004820152601e60248201527f45524332305065726d69743a20696e76616c6964207369676e6174757265000060448201526064016106ff565b610c968a8a8a610cc8565b50505050505050505050565b600082815260056020526040902060010154610cbe8133611071565b6106848383611282565b6001600160a01b038316610d2a5760405162461bcd60e51b8152602060048201526024808201527f45524332303a20617070726f76652066726f6d20746865207a65726f206164646044820152637265737360e01b60648201526084016106ff565b6001600160a01b038216610d8b5760405162461bcd60e51b815260206004820152602260248201527f45524332303a20617070726f766520746f20746865207a65726f206164647265604482015261737360f01b60648201526084016106ff565b6001600160a01b0383811660008181526001602090815260408083209487168084529482529182902085905590518481527f8c5be1e5ebec7d5bd14f71427d1e84f3dd0314c0f7b2291e5b200ac8c7c3b925910160405180910390a3505050565b6001600160a01b038316610e505760405162461bcd60e51b815260206004820152602560248201527f45524332303a207472616e736665722066726f6d20746865207a65726f206164604482015264647265737360d81b60648201526084016106ff565b6001600160a01b038216610eb25760405162461bcd60e51b815260206004820152602360248201527f45524332303a207472616e7366657220746f20746865207a65726f206164647260448201526265737360e81b60648201526084016106ff565b610ebd8383836115d9565b6001600160a01b03831660009081526020819052604090205481811015610f355760405162461bcd60e51b815260206004820152602660248201527f45524332303a207472616e7366657220616d6f756e7420657863656564732062604482015265616c616e636560d01b60648201526084016106ff565b6001600160a01b03808516600090815260208190526040808220858503905591851681529081208054849290610f6c908490611d55565b92505081905550826001600160a01b0316846001600160a01b03167fddf252ad1be2c89b69c2b068fc378daa952ba7f163c4a11628f55a4df523b3ef84604051610fb891815260200190565b60405180910390a35b50505050565b6000610fd4848484610dec565b6001600160a01b0384166000908152600160209081526040808320338452909152902054828110156110595760405162461bcd60e51b815260206004820152602860248201527f45524332303a207472616e7366657220616d6f756e74206578636565647320616044820152676c6c6f77616e636560c01b60648201526084016106ff565b6110668533858403610cc8565b506001949350505050565b61107b82826109b1565b61071257611093816001600160a01b031660146116be565b61109e8360206116be565b6040516020016110af929190611d86565b60408051601f198184030181529082905262461bcd60e51b82526106ff91600401611b58565b6110df82826109b1565b6107125760008281526005602090815260408083206001600160a01b03851684529091529020805460ff191660011790556111173390565b6001600160a01b0316816001600160a01b0316837f2f8788117e7eff1d82e926ec794901d17c78024a50270940304540a733656f0d60405160405180910390a45050565b6000306001600160a01b037f0000000000000000000000000000000000000000000000000000000000000000161480156111b457507f000000000000000000000000000000000000000000000000000000000000000046145b156111de57507f000000000000000000000000000000000000000000000000000000000000000090565b50604080517f00000000000000000000000000000000000000000000000000000000000000006020808301919091527f0000000000000000000000000000000000000000000000000000000000000000828401527f000000000000000000000000000000000000000000000000000000000000000060608301524660808301523060a0808401919091528351808403909101815260c0909201909252805191012090565b61128c82826109b1565b156107125760008281526005602090815260408083206001600160a01b0385168085529252808320805460ff1916905551339285917ff6391f5c32d9c69d2a47ea670b442974b53935d1edc7fd64eb21e047a839171b9190a45050565b6001600160a01b03821661133f5760405162461bcd60e51b815260206004820152601f60248201527f45524332303a206d696e7420746f20746865207a65726f20616464726573730060448201526064016106ff565b61134b600083836115d9565b806002600082825461135d9190611d55565b90915550506001600160a01b0382166000908152602081905260408120805483929061138a908490611d55565b90915550506040518181526001600160a01b038316906000907fddf252ad1be2c89b69c2b068fc378daa952ba7f163c4a11628f55a4df523b3ef9060200160405180910390a35050565b6001600160a01b0382166114345760405162461bcd60e51b815260206004820152602160248201527f45524332303a206275726e2066726f6d20746865207a65726f206164647265736044820152607360f81b60648201526084016106ff565b611440826000836115d9565b6001600160a01b038216600090815260208190526040902054818110156114b45760405162461bcd60e51b815260206004820152602260248201527f45524332303a206275726e20616d6f756e7420657863656564732062616c616e604482015261636560f01b60648201526084016106ff565b6001600160a01b03831660009081526020819052604081208383039055600280548492906114e3908490611dfb565b90915550506040518281526000906001600160a01b038516907fddf252ad1be2c89b69c2b068fc378daa952ba7f163c4a11628f55a4df523b3ef9060200160405180910390a3505050565b60006105ad338484610dec565b6001600160a01b03811660009081526006602052604090208054600181018255905b50919050565b600061050861157061115b565b8360405161190160f01b6020820152602281018390526042810182905260009060620160405160208183030381529060405280519060200120905092915050565b60008060006115c28787878761185a565b915091506115cf81611947565b5095945050505050565b7f00000000000000000000000000000000000000000000000000000000000000006001600160a01b0316836001600160a01b031614610684576040516344bd03c360e11b81526001600160a01b03848116600483015263ffffffff7f00000000000000000000000000000000000000000000000000000000000000001660248301527f0000000000000000000000000000000000000000000000000000000000000000169063897a078690604401600060405180830381600087803b1580156116a157600080fd5b505af11580156116b5573d6000803e3d6000fd5b50505050505050565b606060006116cd836002611e12565b6116d8906002611d55565b67ffffffffffffffff8111156116f0576116f0611e31565b6040519080825280601f01601f19166020018201604052801561171a576020820181803683370190505b509050600360fc1b8160008151811061173557611735611e47565b60200101906001600160f81b031916908160001a905350600f60fb1b8160018151811061176457611764611e47565b60200101906001600160f81b031916908160001a9053506000611788846002611e12565b611793906001611d55565b90505b600181111561180b576f181899199a1a9b1b9c1cb0b131b232b360811b85600f16601081106117c7576117c7611e47565b1a60f81b8282815181106117dd576117dd611e47565b60200101906001600160f81b031916908160001a90535060049490941c9361180481611e5d565b9050611796565b5083156106575760405162461bcd60e51b815260206004820181905260248201527f537472696e67733a20686578206c656e67746820696e73756666696369656e7460448201526064016106ff565b6000807f7fffffffffffffffffffffffffffffff5d576e7357a4501ddfe92f46681b20a0831115611891575060009050600361193e565b8460ff16601b141580156118a957508460ff16601c14155b156118ba575060009050600461193e565b6040805160008082526020820180845289905260ff881692820192909252606081018690526080810185905260019060a0016020604051602081039080840390855afa15801561190e573d6000803e3d6000fd5b5050604051601f1901519150506001600160a01b0381166119375760006001925092505061193e565b9150600090505b94509492505050565b600081600481111561195b5761195b611e74565b14156119645750565b600181600481111561197857611978611e74565b14156119c65760405162461bcd60e51b815260206004820152601860248201527f45434453413a20696e76616c6964207369676e6174757265000000000000000060448201526064016106ff565b60028160048111156119da576119da611e74565b1415611a285760405162461bcd60e51b815260206004820152601f60248201527f45434453413a20696e76616c6964207369676e6174757265206c656e6774680060448201526064016106ff565b6003816004811115611a3c57611a3c611e74565b1415611a955760405162461bcd60e51b815260206004820152602260248201527f45434453413a20696e76616c6964207369676e6174757265202773272076616c604482015261756560f01b60648201526084016106ff565b6004816004811115611aa957611aa9611e74565b14156108095760405162461bcd60e51b815260206004820152602260248201527f45434453413a20696e76616c6964207369676e6174757265202776272076616c604482015261756560f01b60648201526084016106ff565b600060208284031215611b1457600080fd5b81356001600160e01b03198116811461065757600080fd5b60005b83811015611b47578181015183820152602001611b2f565b83811115610fc15750506000910152565b6020815260008251806020840152611b77816040850160208701611b2c565b601f01601f19169190910160400192915050565b80356001600160a01b0381168114611ba257600080fd5b919050565b60008060408385031215611bba57600080fd5b611bc383611b8b565b946020939093013593505050565b600080600060608486031215611be657600080fd5b611bef84611b8b565b9250611bfd60208501611b8b565b9150604084013590509250925092565b600060208284031215611c1f57600080fd5b5035919050565b60008060408385031215611c3957600080fd5b82359150611c4960208401611b8b565b90509250929050565b600060208284031215611c6457600080fd5b61065782611b8b565b600080600080600080600060e0888a031215611c8857600080fd5b611c9188611b8b565b9650611c9f60208901611b8b565b95506040880135945060608801359350608088013560ff81168114611cc357600080fd5b9699959850939692959460a0840135945060c09093013592915050565b60008060408385031215611cf357600080fd5b611cfc83611b8b565b9150611c4960208401611b8b565b600181811c90821680611d1e57607f821691505b6020821081141561155d57634e487b7160e01b600052602260045260246000fd5b634e487b7160e01b600052601160045260246000fd5b60008219821115611d6857611d68611d3f565b500190565b600060208284031215611d7f57600080fd5b5051919050565b7f416363657373436f6e74726f6c3a206163636f756e7420000000000000000000815260008351611dbe816017850160208801611b2c565b7001034b99036b4b9b9b4b733903937b6329607d1b6017918401918201528351611def816028840160208801611b2c565b01602801949350505050565b600082821015611e0d57611e0d611d3f565b500390565b6000816000190483118215151615611e2c57611e2c611d3f565b500290565b634e487b7160e01b600052604160045260246000fd5b634e487b7160e01b600052603260045260246000fd5b600081611e6c57611e6c611d3f565b506000190190565b634e487b7160e01b600052602160045260246000fdfea2646970667358221220be37bd40ee793b53192c6da2a90c85936f9db960dd3e8064b8cdc7a62687ebe264736f6c634300080a0033a2646970667358221220aec429dc95b545c669c3e13bbad12637adbf08ea899d6e0f3c96dd90d26ddedd64736f6c634300080a0033",
  "devdoc": {
    "kind": "dev",
    "methods": {
      "constructor": {
        "params": {
          "_longShort": "address of the longShort contract"
        }
      },
      "createSyntheticToken(string,string,address,uint32,bool)": {
        "params": {
          "isLong": "boolean denoting if the synthetic token is long or short",
          "marketIndex": "market index this synthetic token belongs to",
          "staker": "address of the staker contract",
          "syntheticName": "name of the synthetic token",
          "syntheticSymbol": "ticker symbol of the synthetic token"
        },
        "returns": {
          "syntheticToken": "- address of the created synthetic token"
        }
      }
    },
    "title": "TokenFactory",
    "version": 1
  },
  "userdoc": {
    "kind": "user",
    "methods": {
      "constructor": {
        "notice": "sets the address of the longShort contract on initialization"
      },
      "createSyntheticToken(string,string,address,uint32,bool)": {
        "notice": "creates and sets up a new synthetic token"
      },
      "longShort()": {
        "notice": "address of long short contract"
      }
    },
    "notice": "contract is used to reliably mint the synthetic tokens used by the float protocol.",
    "version": 1
  },
  "storageLayout": {
    "storage": [],
    "types": null
  }
}