{
  "address": "0x1347C5c4A5c582FB3EFC7D82aF3C451167739e22",
  "abi": [
    {
      "inputs": [
        {
          "internalType": "address",
          "name": "_longShort",
          "type": "address"
        }
      ],
      "stateMutability": "nonpayable",
      "type": "constructor"
    },
    {
      "inputs": [
        {
          "internalType": "string",
          "name": "syntheticName",
          "type": "string"
        },
        {
          "internalType": "string",
          "name": "syntheticSymbol",
          "type": "string"
        },
        {
          "internalType": "address",
          "name": "staker",
          "type": "address"
        },
        {
          "internalType": "uint32",
          "name": "marketIndex",
          "type": "uint32"
        },
        {
          "internalType": "bool",
          "name": "isLong",
          "type": "bool"
        }
      ],
      "name": "createSyntheticToken",
      "outputs": [
        {
          "internalType": "address",
          "name": "syntheticToken",
          "type": "address"
        }
      ],
      "stateMutability": "nonpayable",
      "type": "function"
    },
    {
      "inputs": [],
      "name": "longShort",
      "outputs": [
        {
          "internalType": "address",
          "name": "",
          "type": "address"
        }
      ],
      "stateMutability": "view",
      "type": "function"
    }
  ],
  "transactionHash": "0x706554ea063a7a01f565bcff835c7965e247217ed08f687eddaa359b14ff1a91",
  "args": [
    "0x51565F132c5B25BC9EA6e4D112ab6A680d553d2A"
  ],
  "solcInputHash": "f992b3c18d8822e024711f3a6d00ccf4",
  "bytecode": "0x60a060405234801561001057600080fd5b5060405161285238038061285283398101604081905261002f91610044565b60601b6001600160601b031916608052610072565b600060208284031215610055578081fd5b81516001600160a01b038116811461006b578182fd5b9392505050565b60805160601c6127b761009b600039600081816040015281816099015260c901526127b76000f3fe608060405234801561001057600080fd5b50600436106100365760003560e01c8063299498721461003b578063e6d304671461007e575b600080fd5b6100627f000000000000000000000000000000000000000000000000000000000000000081565b6040516001600160a01b03909116815260200160405180910390f35b61006261008c36600461019a565b6000336001600160a01b037f000000000000000000000000000000000000000000000000000000000000000016146100c357600080fd5b878787877f00000000000000000000000000000000000000000000000000000000000000008888886040516100f790610131565b610108989796959493929190610279565b604051809103906000f080158015610124573d6000803e3d6000fd5b5098975050505050505050565b6124a8806102da83390190565b8035801515811461014e57600080fd5b919050565b60008083601f840112610164578182fd5b50813567ffffffffffffffff81111561017b578182fd5b60208301915083602082850101111561019357600080fd5b9250929050565b600080600080600080600060a0888a0312156101b4578283fd5b873567ffffffffffffffff808211156101cb578485fd5b6101d78b838c01610153565b909950975060208a01359150808211156101ef578485fd5b506101fc8a828b01610153565b90965094505060408801356001600160a01b038116811461021b578384fd5b9250606088013563ffffffff81168114610233578283fd5b91506102416080890161013e565b905092959891949750929550565b60008284528282602086013780602084860101526020601f19601f85011685010190509392505050565b600060c0825261028d60c083018a8c61024f565b82810360208401526102a081898b61024f565b6001600160a01b0397881660408501529590961660608301525063ffffffff929092166080830152151560a0909101529594505050505056fe6101c06040527f6e71edae12b1b97f4d1f60370fef10105fa2faae0126114a169c64845d6126c9610120523480156200003757600080fd5b50604051620024a8380380620024a88339810160408190526200005a91620003de565b8580604051806040016040528060018152602001603160f81b815250888881600390805190602001906200009092919062000268565b508051620000a690600490602084019062000268565b5050825160208085019190912083518483012060c082815260e08290524660a0818152604080517f8b73c3c69bb8fe3d512ecc4cf759cc79239f7b179b0ffacaa9a75d522b39400f818901819052818301889052606082018790526080820194909452308184015281518082039093018352909301909252815191909401209193509190608052610100525050506001600160601b0319606087811b82166101405286901b166101605250506001600160e01b031960e083901b166101805280151560f81b6101a0526200017c600085620001b4565b620001a87f9f2df0fed2c77648de5860a4cc508cd0818c85b8b8a1ab4ceeef8d981c8956a685620001b4565b505050505050620004f2565b620001c08282620001c4565b5050565b60008281526005602090815260408083206001600160a01b038516845290915290205460ff16620001c05760008281526005602090815260408083206001600160a01b03851684529091529020805460ff19166001179055620002243390565b6001600160a01b0316816001600160a01b0316837f2f8788117e7eff1d82e926ec794901d17c78024a50270940304540a733656f0d60405160405180910390a45050565b82805462000276906200049f565b90600052602060002090601f0160209004810192826200029a5760008555620002e5565b82601f10620002b557805160ff1916838001178555620002e5565b82800160010185558215620002e5579182015b82811115620002e5578251825591602001919060010190620002c8565b50620002f3929150620002f7565b5090565b5b80821115620002f35760008155600101620002f8565b80516001600160a01b03811681146200032657600080fd5b919050565b600082601f8301126200033c578081fd5b81516001600160401b0380821115620003595762000359620004dc565b604051601f8301601f19908116603f01168101908282118183101715620003845762000384620004dc565b81604052838152602092508683858801011115620003a0578485fd5b8491505b83821015620003c35785820183015181830184015290820190620003a4565b83821115620003d457848385830101525b9695505050505050565b60008060008060008060c08789031215620003f7578182fd5b86516001600160401b03808211156200040e578384fd5b6200041c8a838b016200032b565b9750602089015191508082111562000432578384fd5b506200044189828a016200032b565b95505062000452604088016200030e565b935062000462606088016200030e565b9250608087015163ffffffff811681146200047b578283fd5b60a0880151909250801515811462000491578182fd5b809150509295509295509295565b600181811c90821680620004b457607f821691505b60208210811415620004d657634e487b7160e01b600052602260045260246000fd5b50919050565b634e487b7160e01b600052604160045260246000fd5b60805160a05160c05160e05161010051610120516101405160601c6101605160601c6101805160e01c6101a05160f81c611ee1620005c76000396000818161024a015261085b0152600081816103be01528181610834015261161a01526000818161035e01528181610a9d0152610ade0152600081816102a7015281816105cd015281816106120152818161079601528181610886015281816115bf015261164101526000610ba5015260006111c601526000611215015260006111f0015260006111720152600061119b0152611ee16000f3fe608060405234801561001057600080fd5b50600436106101da5760003560e01c80635ebaf1db11610104578063a217fddf116100a2578063d505accf11610071578063d505accf14610451578063d539139314610464578063d547741f1461048b578063dd62ed3e1461049e576101da565b8063a217fddf14610410578063a457c2d714610418578063a694fc3a1461042b578063a9059cbb1461043e576101da565b80637ecebe00116100de5780637ecebe00146103a65780638c7adc15146103b957806391d14854146103f557806395d89b4114610408576101da565b80635ebaf1db1461035957806370a082311461038057806379cc679014610393576101da565b8063299498721161017c57806336568abe1161014b57806336568abe1461030d578063395093511461032057806340c10f191461033357806342966c6814610346576101da565b806329949872146102a25780632f2ff15d146102e1578063313ce567146102f65780633644e51514610305576101da565b806318160ddd116101b857806318160ddd1461022f578063202a61a11461024557806323b872dd1461026c578063248a9ca31461027f576101da565b806301ffc9a7146101df57806306fdde0314610207578063095ea7b31461021c575b600080fd5b6101f26101ed366004611ce7565b6104d7565b60405190151581526020015b60405180910390f35b61020f610510565b6040516101fe9190611d9c565b6101f261022a366004611c84565b6105a3565b6102376105b9565b6040519081526020016101fe565b6101f27f000000000000000000000000000000000000000000000000000000000000000081565b6101f261027a366004611bd8565b6105c9565b61023761028d366004611cad565b60009081526005602052604090206001015490565b6102c97f000000000000000000000000000000000000000000000000000000000000000081565b6040516001600160a01b0390911681526020016101fe565b6102f46102ef366004611cc5565b610661565b005b604051601281526020016101fe565b61023761068d565b6102f461031b366004611cc5565b610697565b6101f261032e366004611c84565b61071a565b6102f4610341366004611c84565b610756565b6102f4610354366004611cad565b61078b565b6102c97f000000000000000000000000000000000000000000000000000000000000000081565b61023761038e366004611b8c565b610810565b6102f46103a1366004611c84565b610925565b6102376103b4366004611b8c565b6109a6565b6103e07f000000000000000000000000000000000000000000000000000000000000000081565b60405163ffffffff90911681526020016101fe565b6101f2610403366004611cc5565b6109c4565b61020f6109ef565b610237600081565b6101f2610426366004611c84565b6109fe565b6102f4610439366004611cad565b610a97565b6101f261044c366004611c84565b610b45565b6102f461045f366004611c13565b610b51565b6102377f9f2df0fed2c77648de5860a4cc508cd0818c85b8b8a1ab4ceeef8d981c8956a681565b6102f4610499366004611cc5565b610cb5565b6102376104ac366004611ba6565b6001600160a01b03918216600090815260016020908152604080832093909416825291909152205490565b60006001600160e01b03198216637965db0b60e01b148061050857506301ffc9a760e01b6001600160e01b03198316145b90505b919050565b60606003805461051f90611e60565b80601f016020809104026020016040519081016040528092919081815260200182805461054b90611e60565b80156105985780601f1061056d57610100808354040283529160200191610598565b820191906000526020600020905b81548152906001019060200180831161057b57829003601f168201915b505050505090505b90565b60006105b0338484610cdb565b50600192915050565b60006105c460025490565b905090565b60007f00000000000000000000000000000000000000000000000000000000000000006001600160a01b0316836001600160a01b03161480156106345750336001600160a01b037f000000000000000000000000000000000000000000000000000000000000000016145b1561064c57610644848484610dff565b50600161065a565b610657848484610fda565b90505b9392505050565b60008281526005602052604090206001015461067e81335b611084565b61068883836110e8565b505050565b60006105c461116e565b6001600160a01b038116331461070c5760405162461bcd60e51b815260206004820152602f60248201527f416363657373436f6e74726f6c3a2063616e206f6e6c792072656e6f756e636560448201526e103937b632b9903337b91039b2b63360891b60648201526084015b60405180910390fd5b6107168282611265565b5050565b3360008181526001602090815260408083206001600160a01b038716845290915281205490916105b0918590610751908690611dcf565b610cdb565b7f9f2df0fed2c77648de5860a4cc508cd0818c85b8b8a1ab4ceeef8d981c8956a66107818133610679565b61068883836112cc565b336001600160a01b037f000000000000000000000000000000000000000000000000000000000000000016146108035760405162461bcd60e51b815260206004820152601760248201527f4f6e6c79204c6f6e6753686f727420636f6e74726163740000000000000000006044820152606401610703565b61080d33826113b8565b50565b60405163f68a327f60e01b81526001600160a01b03828116600483015263ffffffff7f00000000000000000000000000000000000000000000000000000000000000001660248301527f0000000000000000000000000000000000000000000000000000000000000000151560448301526000917f00000000000000000000000000000000000000000000000000000000000000009091169063f68a327f9060640160206040518083038186803b1580156108ca57600080fd5b505afa1580156108de573d6000803e3d6000fd5b505050506040513d601f19601f820116820180604052508101906109029190611d0f565b6001600160a01b0383166000908152602081905260409020546105089190611dcf565b600061093183336104ac565b90508181101561098f5760405162461bcd60e51b8152602060048201526024808201527f45524332303a206275726e20616d6f756e74206578636565647320616c6c6f77604482015263616e636560e01b6064820152608401610703565b61099c8333848403610cdb565b61068883836113b8565b6001600160a01b038116600090815260066020526040812054610508565b60009182526005602090815260408084206001600160a01b0393909316845291905290205460ff1690565b60606004805461051f90611e60565b3360009081526001602090815260408083206001600160a01b038616845290915281205482811015610a805760405162461bcd60e51b815260206004820152602560248201527f45524332303a2064656372656173656420616c6c6f77616e63652062656c6f77604482015264207a65726f60d81b6064820152608401610703565b610a8d3385858403610cdb565b5060019392505050565b610ac2337f000000000000000000000000000000000000000000000000000000000000000083610dff565b6040516373479edf60e11b8152336004820152602481018290527f00000000000000000000000000000000000000000000000000000000000000006001600160a01b03169063e68f3dbe90604401600060405180830381600087803b158015610b2a57600080fd5b505af1158015610b3e573d6000803e3d6000fd5b5050505050565b600061065a8383611512565b83421115610ba15760405162461bcd60e51b815260206004820152601d60248201527f45524332305065726d69743a206578706972656420646561646c696e650000006044820152606401610703565b60007f0000000000000000000000000000000000000000000000000000000000000000888888610bd08c61151f565b6040805160208101969096526001600160a01b0394851690860152929091166060840152608083015260a082015260c0810186905260e0016040516020818303038152906040528051906020012090506000610c2b82611547565b90506000610c3b82878787611595565b9050896001600160a01b0316816001600160a01b031614610c9e5760405162461bcd60e51b815260206004820152601e60248201527f45524332305065726d69743a20696e76616c6964207369676e617475726500006044820152606401610703565b610ca98a8a8a610cdb565b50505050505050505050565b600082815260056020526040902060010154610cd18133610679565b6106888383611265565b6001600160a01b038316610d3d5760405162461bcd60e51b8152602060048201526024808201527f45524332303a20617070726f76652066726f6d20746865207a65726f206164646044820152637265737360e01b6064820152608401610703565b6001600160a01b038216610d9e5760405162461bcd60e51b815260206004820152602260248201527f45524332303a20617070726f766520746f20746865207a65726f206164647265604482015261737360f01b6064820152608401610703565b6001600160a01b0383811660008181526001602090815260408083209487168084529482529182902085905590518481527f8c5be1e5ebec7d5bd14f71427d1e84f3dd0314c0f7b2291e5b200ac8c7c3b925910160405180910390a3505050565b6001600160a01b038316610e635760405162461bcd60e51b815260206004820152602560248201527f45524332303a207472616e736665722066726f6d20746865207a65726f206164604482015264647265737360d81b6064820152608401610703565b6001600160a01b038216610ec55760405162461bcd60e51b815260206004820152602360248201527f45524332303a207472616e7366657220746f20746865207a65726f206164647260448201526265737360e81b6064820152608401610703565b610ed08383836115bd565b6001600160a01b03831660009081526020819052604090205481811015610f485760405162461bcd60e51b815260206004820152602660248201527f45524332303a207472616e7366657220616d6f756e7420657863656564732062604482015265616c616e636560d01b6064820152608401610703565b6001600160a01b03808516600090815260208190526040808220858503905591851681529081208054849290610f7f908490611dcf565b92505081905550826001600160a01b0316846001600160a01b03167fddf252ad1be2c89b69c2b068fc378daa952ba7f163c4a11628f55a4df523b3ef84604051610fcb91815260200190565b60405180910390a35b50505050565b6000610fe7848484610dff565b6001600160a01b03841660009081526001602090815260408083203384529091529020548281101561106c5760405162461bcd60e51b815260206004820152602860248201527f45524332303a207472616e7366657220616d6f756e74206578636565647320616044820152676c6c6f77616e636560c01b6064820152608401610703565b6110798533858403610cdb565b506001949350505050565b61108e82826109c4565b610716576110a6816001600160a01b031660146116a3565b6110b18360206116a3565b6040516020016110c2929190611d27565b60408051601f198184030181529082905262461bcd60e51b825261070391600401611d9c565b6110f282826109c4565b6107165760008281526005602090815260408083206001600160a01b03851684529091529020805460ff1916600117905561112a3390565b6001600160a01b0316816001600160a01b0316837f2f8788117e7eff1d82e926ec794901d17c78024a50270940304540a733656f0d60405160405180910390a45050565b60007f00000000000000000000000000000000000000000000000000000000000000004614156111bf57507f00000000000000000000000000000000000000000000000000000000000000006105a0565b50604080517f00000000000000000000000000000000000000000000000000000000000000006020808301919091527f0000000000000000000000000000000000000000000000000000000000000000828401527f000000000000000000000000000000000000000000000000000000000000000060608301524660808301523060a0808401919091528351808403909101815260c090920190925280519101206105a0565b61126f82826109c4565b156107165760008281526005602090815260408083206001600160a01b0385168085529252808320805460ff1916905551339285917ff6391f5c32d9c69d2a47ea670b442974b53935d1edc7fd64eb21e047a839171b9190a45050565b6001600160a01b0382166113225760405162461bcd60e51b815260206004820152601f60248201527f45524332303a206d696e7420746f20746865207a65726f2061646472657373006044820152606401610703565b61132e600083836115bd565b80600260008282546113409190611dcf565b90915550506001600160a01b0382166000908152602081905260408120805483929061136d908490611dcf565b90915550506040518181526001600160a01b038316906000907fddf252ad1be2c89b69c2b068fc378daa952ba7f163c4a11628f55a4df523b3ef9060200160405180910390a3610716565b6001600160a01b0382166114185760405162461bcd60e51b815260206004820152602160248201527f45524332303a206275726e2066726f6d20746865207a65726f206164647265736044820152607360f81b6064820152608401610703565b611424826000836115bd565b6001600160a01b038216600090815260208190526040902054818110156114985760405162461bcd60e51b815260206004820152602260248201527f45524332303a206275726e20616d6f756e7420657863656564732062616c616e604482015261636560f01b6064820152608401610703565b6001600160a01b03831660009081526020819052604081208383039055600280548492906114c7908490611e06565b90915550506040518281526000906001600160a01b038516907fddf252ad1be2c89b69c2b068fc378daa952ba7f163c4a11628f55a4df523b3ef9060200160405180910390a3610688565b60006105b0338484610dff565b6001600160a01b03811660009081526006602052604090208054600181018255905b50919050565b600061050861155461116e565b8360405161190160f01b6020820152602281018390526042810182905260009060620160405160208183030381529060405280519060200120905092915050565b60008060006115a687878787611885565b915091506115b381611972565b5095945050505050565b7f00000000000000000000000000000000000000000000000000000000000000006001600160a01b0316836001600160a01b03161461169e576040516344bd03c360e11b81526001600160a01b03848116600483015263ffffffff7f00000000000000000000000000000000000000000000000000000000000000001660248301527f0000000000000000000000000000000000000000000000000000000000000000169063897a078690604401600060405180830381600087803b15801561168557600080fd5b505af1158015611699573d6000803e3d6000fd5b505050505b610688565b606060006116b2836002611de7565b6116bd906002611dcf565b67ffffffffffffffff8111156116e357634e487b7160e01b600052604160045260246000fd5b6040519080825280601f01601f19166020018201604052801561170d576020820181803683370190505b509050600360fc1b8160008151811061173657634e487b7160e01b600052603260045260246000fd5b60200101906001600160f81b031916908160001a905350600f60fb1b8160018151811061177357634e487b7160e01b600052603260045260246000fd5b60200101906001600160f81b031916908160001a9053506000611797846002611de7565b6117a2906001611dcf565b90505b6001811115611836576f181899199a1a9b1b9c1cb0b131b232b360811b85600f16601081106117e457634e487b7160e01b600052603260045260246000fd5b1a60f81b82828151811061180857634e487b7160e01b600052603260045260246000fd5b60200101906001600160f81b031916908160001a90535060049490941c9361182f81611e49565b90506117a5565b50831561065a5760405162461bcd60e51b815260206004820181905260248201527f537472696e67733a20686578206c656e67746820696e73756666696369656e746044820152606401610703565b6000807f7fffffffffffffffffffffffffffffff5d576e7357a4501ddfe92f46681b20a08311156118bc5750600090506003611969565b8460ff16601b141580156118d457508460ff16601c14155b156118e55750600090506004611969565b6040805160008082526020820180845289905260ff881692820192909252606081018690526080810185905260019060a0016020604051602081039080840390855afa158015611939573d6000803e3d6000fd5b5050604051601f1901519150506001600160a01b03811661196257600060019250925050611969565b9150600090505b94509492505050565b600081600481111561199457634e487b7160e01b600052602160045260246000fd5b141561199f5761080d565b60018160048111156119c157634e487b7160e01b600052602160045260246000fd5b1415611a0f5760405162461bcd60e51b815260206004820152601860248201527f45434453413a20696e76616c6964207369676e617475726500000000000000006044820152606401610703565b6002816004811115611a3157634e487b7160e01b600052602160045260246000fd5b1415611a7f5760405162461bcd60e51b815260206004820152601f60248201527f45434453413a20696e76616c6964207369676e6174757265206c656e677468006044820152606401610703565b6003816004811115611aa157634e487b7160e01b600052602160045260246000fd5b1415611afa5760405162461bcd60e51b815260206004820152602260248201527f45434453413a20696e76616c6964207369676e6174757265202773272076616c604482015261756560f01b6064820152608401610703565b6004816004811115611b1c57634e487b7160e01b600052602160045260246000fd5b141561080d5760405162461bcd60e51b815260206004820152602260248201527f45434453413a20696e76616c6964207369676e6174757265202776272076616c604482015261756560f01b6064820152608401610703565b80356001600160a01b038116811461050b57600080fd5b600060208284031215611b9d578081fd5b61065a82611b75565b60008060408385031215611bb8578081fd5b611bc183611b75565b9150611bcf60208401611b75565b90509250929050565b600080600060608486031215611bec578081fd5b611bf584611b75565b9250611c0360208501611b75565b9150604084013590509250925092565b600080600080600080600060e0888a031215611c2d578283fd5b611c3688611b75565b9650611c4460208901611b75565b95506040880135945060608801359350608088013560ff81168114611c67578384fd5b9699959850939692959460a0840135945060c09093013592915050565b60008060408385031215611c96578182fd5b611c9f83611b75565b946020939093013593505050565b600060208284031215611cbe578081fd5b5035919050565b60008060408385031215611cd7578182fd5b82359150611bcf60208401611b75565b600060208284031215611cf8578081fd5b81356001600160e01b03198116811461065a578182fd5b600060208284031215611d20578081fd5b5051919050565b60007f416363657373436f6e74726f6c3a206163636f756e742000000000000000000082528351611d5f816017850160208801611e1d565b7001034b99036b4b9b9b4b733903937b6329607d1b6017918401918201528351611d90816028840160208801611e1d565b01602801949350505050565b6000602082528251806020840152611dbb816040850160208701611e1d565b601f01601f19169190910160400192915050565b60008219821115611de257611de2611e95565b500190565b6000816000190483118215151615611e0157611e01611e95565b500290565b600082821015611e1857611e18611e95565b500390565b60005b83811015611e38578181015183820152602001611e20565b83811115610fd45750506000910152565b600081611e5857611e58611e95565b506000190190565b600181811c90821680611e7457607f821691505b6020821081141561154157634e487b7160e01b600052602260045260246000fd5b634e487b7160e01b600052601160045260246000fdfea2646970667358221220827ed691f8f3f0cb3d61a76172241c75ea94d8b189cf079d9cc596830f26bc9c64736f6c63430008030033a2646970667358221220c39d83bc7b4f49c3057595a6560d5252babde9c06b8f321859918ffc088818c464736f6c63430008030033",
  "devdoc": {
    "kind": "dev",
    "methods": {
      "constructor": {
        "params": {
          "_longShort": "address of the longShort contract"
        }
      },
      "createSyntheticToken(string,string,address,uint32,bool)": {
        "params": {
          "isLong": "boolean denoting if the synthetic token is long or short",
          "marketIndex": "market index this synthetic token belongs to",
          "staker": "address of the staker contract",
          "syntheticName": "name of the synthetic token",
          "syntheticSymbol": "ticker symbol of the synthetic token"
        },
        "returns": {
          "syntheticToken": "- address of the created synthetic token"
        }
      }
    },
    "title": "TokenFactory",
    "version": 1
  },
  "userdoc": {
    "kind": "user",
    "methods": {
      "constructor": {
        "notice": "sets the address of the longShort contract on initialization"
      },
      "createSyntheticToken(string,string,address,uint32,bool)": {
        "notice": "creates and sets up a new synthetic token"
      },
      "longShort()": {
        "notice": "address of long short contract"
      }
    },
    "notice": "contract is used to reliably mint the synthetic tokens used by the float protocol.",
    "version": 1
  },
  "storageLayout": {
    "storage": [],
    "types": null
  }
}