{
  "address": "0xb2f35802Ad697106aBB2618FCc6564f3c041f27f",
  "abi": [
    {
      "anonymous": false,
      "inputs": [
        {
          "indexed": false,
          "internalType": "address",
          "name": "previousAdmin",
          "type": "address"
        },
        {
          "indexed": false,
          "internalType": "address",
          "name": "newAdmin",
          "type": "address"
        }
      ],
      "name": "AdminChanged",
      "type": "event"
    },
    {
      "anonymous": false,
      "inputs": [
        {
          "indexed": false,
          "internalType": "uint256",
          "name": "newBasePrice",
          "type": "uint256"
        }
      ],
      "name": "BasePriceUpdated",
      "type": "event"
    },
    {
      "anonymous": false,
      "inputs": [
        {
          "indexed": true,
          "internalType": "address",
          "name": "beacon",
          "type": "address"
        }
      ],
      "name": "BeaconUpgraded",
      "type": "event"
    },
    {
      "anonymous": false,
      "inputs": [
        {
          "indexed": true,
          "internalType": "bytes32",
          "name": "role",
          "type": "bytes32"
        },
        {
          "indexed": true,
          "internalType": "bytes32",
          "name": "previousAdminRole",
          "type": "bytes32"
        },
        {
          "indexed": true,
          "internalType": "bytes32",
          "name": "newAdminRole",
          "type": "bytes32"
        }
      ],
      "name": "RoleAdminChanged",
      "type": "event"
    },
    {
      "anonymous": false,
      "inputs": [
        {
          "indexed": true,
          "internalType": "bytes32",
          "name": "role",
          "type": "bytes32"
        },
        {
          "indexed": true,
          "internalType": "address",
          "name": "account",
          "type": "address"
        },
        {
          "indexed": true,
          "internalType": "address",
          "name": "sender",
          "type": "address"
        }
      ],
      "name": "RoleGranted",
      "type": "event"
    },
    {
      "anonymous": false,
      "inputs": [
        {
          "indexed": true,
          "internalType": "bytes32",
          "name": "role",
          "type": "bytes32"
        },
        {
          "indexed": true,
          "internalType": "address",
          "name": "account",
          "type": "address"
        },
        {
          "indexed": true,
          "internalType": "address",
          "name": "sender",
          "type": "address"
        }
      ],
      "name": "RoleRevoked",
      "type": "event"
    },
    {
      "anonymous": false,
      "inputs": [
        {
          "indexed": true,
          "internalType": "address",
          "name": "implementation",
          "type": "address"
        }
      ],
      "name": "Upgraded",
      "type": "event"
    },
    {
      "inputs": [],
      "name": "ADMIN_ROLE",
      "outputs": [
        {
          "internalType": "bytes32",
          "name": "",
          "type": "bytes32"
        }
      ],
      "stateMutability": "view",
      "type": "function"
    },
    {
      "inputs": [],
      "name": "DEFAULT_ADMIN_ROLE",
      "outputs": [
        {
          "internalType": "bytes32",
          "name": "",
          "type": "bytes32"
        }
      ],
      "stateMutability": "view",
      "type": "function"
    },
    {
      "inputs": [],
      "name": "UPGRADER_ROLE",
      "outputs": [
        {
          "internalType": "bytes32",
          "name": "",
          "type": "bytes32"
        }
      ],
      "stateMutability": "view",
      "type": "function"
    },
    {
      "inputs": [],
      "name": "activateRedemptions",
      "outputs": [],
      "stateMutability": "nonpayable",
      "type": "function"
    },
    {
      "inputs": [],
      "name": "basePrice",
      "outputs": [
        {
          "internalType": "uint256",
          "name": "",
          "type": "uint256"
        }
      ],
      "stateMutability": "view",
      "type": "function"
    },
    {
      "inputs": [
        {
          "internalType": "uint256",
          "name": "amountOfFloatToBurn",
          "type": "uint256"
        }
      ],
      "name": "burnFloatForShareOfTreasury",
      "outputs": [],
      "stateMutability": "nonpayable",
      "type": "function"
    },
    {
      "inputs": [
        {
          "internalType": "uint32",
          "name": "marketIndex",
          "type": "uint32"
        },
        {
          "internalType": "uint256",
          "name": "tokens_redeem",
          "type": "uint256"
        }
      ],
      "name": "convertSynthsToPaymentTokenNextPriceLong",
      "outputs": [],
      "stateMutability": "nonpayable",
      "type": "function"
    },
    {
      "inputs": [
        {
          "internalType": "uint32",
          "name": "marketIndex",
          "type": "uint32"
        },
        {
          "internalType": "uint256",
          "name": "tokens_redeem",
          "type": "uint256"
        }
      ],
      "name": "convertSynthsToPaymentTokenNextPriceShort",
      "outputs": [],
      "stateMutability": "nonpayable",
      "type": "function"
    },
    {
      "inputs": [],
      "name": "floatToken",
      "outputs": [
        {
          "internalType": "address",
          "name": "",
          "type": "address"
        }
      ],
      "stateMutability": "view",
      "type": "function"
    },
    {
      "inputs": [
        {
          "internalType": "bytes32",
          "name": "role",
          "type": "bytes32"
        }
      ],
      "name": "getRoleAdmin",
      "outputs": [
        {
          "internalType": "bytes32",
          "name": "",
          "type": "bytes32"
        }
      ],
      "stateMutability": "view",
      "type": "function"
    },
    {
      "inputs": [
        {
          "internalType": "bytes32",
          "name": "role",
          "type": "bytes32"
        },
        {
          "internalType": "address",
          "name": "account",
          "type": "address"
        }
      ],
      "name": "grantRole",
      "outputs": [],
      "stateMutability": "nonpayable",
      "type": "function"
    },
    {
      "inputs": [
        {
          "internalType": "bytes32",
          "name": "role",
          "type": "bytes32"
        },
        {
          "internalType": "address",
          "name": "account",
          "type": "address"
        }
      ],
      "name": "hasRole",
      "outputs": [
        {
          "internalType": "bool",
          "name": "",
          "type": "bool"
        }
      ],
      "stateMutability": "view",
      "type": "function"
    },
    {
      "inputs": [
        {
          "internalType": "address",
          "name": "_admin",
          "type": "address"
        },
        {
          "internalType": "address",
          "name": "_paymentToken",
          "type": "address"
        },
        {
          "internalType": "address",
          "name": "_floatToken",
          "type": "address"
        },
        {
          "internalType": "address",
          "name": "_longShort",
          "type": "address"
        }
      ],
      "name": "initialize",
      "outputs": [],
      "stateMutability": "nonpayable",
      "type": "function"
    },
    {
      "inputs": [],
      "name": "longShort",
      "outputs": [
        {
          "internalType": "address",
          "name": "",
          "type": "address"
        }
      ],
      "stateMutability": "view",
      "type": "function"
    },
    {
      "inputs": [],
      "name": "paymentToken",
      "outputs": [
        {
          "internalType": "address",
          "name": "",
          "type": "address"
        }
      ],
      "stateMutability": "view",
      "type": "function"
    },
    {
      "inputs": [],
      "name": "redemptionsActivated",
      "outputs": [
        {
          "internalType": "bool",
          "name": "",
          "type": "bool"
        }
      ],
      "stateMutability": "view",
      "type": "function"
    },
    {
      "inputs": [
        {
          "internalType": "bytes32",
          "name": "role",
          "type": "bytes32"
        },
        {
          "internalType": "address",
          "name": "account",
          "type": "address"
        }
      ],
      "name": "renounceRole",
      "outputs": [],
      "stateMutability": "nonpayable",
      "type": "function"
    },
    {
      "inputs": [
        {
          "internalType": "bytes32",
          "name": "role",
          "type": "bytes32"
        },
        {
          "internalType": "address",
          "name": "account",
          "type": "address"
        }
      ],
      "name": "revokeRole",
      "outputs": [],
      "stateMutability": "nonpayable",
      "type": "function"
    },
    {
      "inputs": [
        {
          "internalType": "bytes4",
          "name": "interfaceId",
          "type": "bytes4"
        }
      ],
      "name": "supportsInterface",
      "outputs": [
        {
          "internalType": "bool",
          "name": "",
          "type": "bool"
        }
      ],
      "stateMutability": "view",
      "type": "function"
    },
    {
      "inputs": [
        {
          "internalType": "uint256",
          "name": "newBasePrice",
          "type": "uint256"
        }
      ],
      "name": "updateBasePrice",
      "outputs": [],
      "stateMutability": "nonpayable",
      "type": "function"
    },
    {
      "inputs": [
        {
          "internalType": "address",
          "name": "newImplementation",
          "type": "address"
        }
      ],
      "name": "upgradeTo",
      "outputs": [],
      "stateMutability": "nonpayable",
      "type": "function"
    },
    {
      "inputs": [
        {
          "internalType": "address",
          "name": "newImplementation",
          "type": "address"
        },
        {
          "internalType": "bytes",
          "name": "data",
          "type": "bytes"
        }
      ],
      "name": "upgradeToAndCall",
      "outputs": [],
      "stateMutability": "payable",
      "type": "function"
    }
  ],
  "transactionHash": "0x00792d879fb1ad384561a0a2596855566aff640393a858799ee1281d3026459e",
  "args": [],
  "solcInputHash": "9579e97d8e3309f43c75fdbfb23b7abd",
  "bytecode": "0x60a06040523060805234801561001457600080fd5b50608051611b226100456000396000818161059a015281816105da0152818161066301526106a30152611b226000f3fe6080604052600436106101355760003560e01c8063941e670f116100ab578063c7876ea41161006f578063c7876ea414610371578063d547741f14610387578063eae5a8d9146103a7578063f72c0d8b146103c7578063f8c8765e146103fb578063fd5baa881461041b57600080fd5b8063941e670f146102ee5780639c0057111461030e578063a217fddf1461032e578063b18c00bd14610343578063ba311ae61461035c57600080fd5b80633013ce29116100fd5780633013ce291461022757806336568abe146102475780633659cfe6146102675780634f1ef2861461028757806375b238fc1461029a57806391d14854146102ce57600080fd5b806301ffc9a71461013a5780630e11b60e1461016f578063248a9ca31461019157806329949872146101cf5780632f2ff15d14610207575b600080fd5b34801561014657600080fd5b5061015a6101553660046115c6565b61043b565b60405190151581526020015b60405180910390f35b34801561017b57600080fd5b5061018f61018a3660046115f0565b610472565b005b34801561019d57600080fd5b506101c16101ac366004611625565b60009081526065602052604090206001015490565b604051908152602001610166565b3480156101db57600080fd5b5060fd546101ef906001600160a01b031681565b6040516001600160a01b039091168152602001610166565b34801561021357600080fd5b5061018f61022236600461165a565b6104e1565b34801561023357600080fd5b5060fb546101ef906001600160a01b031681565b34801561025357600080fd5b5061018f61026236600461165a565b61050c565b34801561027357600080fd5b5061018f610282366004611686565b61058f565b61018f6102953660046116b7565b610658565b3480156102a657600080fd5b506101c17fa49807205ce4d355092ef5a8a18f56e8913cf4a201fbe287825b095693c2177581565b3480156102da57600080fd5b5061015a6102e936600461165a565b61070e565b3480156102fa57600080fd5b5061018f610309366004611625565b610739565b34801561031a57600080fd5b5061018f6103293660046115f0565b610877565b34801561033a57600080fd5b506101c1600081565b34801561034f57600080fd5b5060ff805461015a911681565b34801561036857600080fd5b5061018f6108b4565b34801561037d57600080fd5b506101c160fe5481565b34801561039357600080fd5b5061018f6103a236600461165a565b6108cb565b3480156103b357600080fd5b5060fc546101ef906001600160a01b031681565b3480156103d357600080fd5b506101c17f189ab7a9244df0848122154315af71fe140f3db0fe014031783b0946b8c9d2e381565b34801561040757600080fd5b5061018f610416366004611779565b6108f1565b34801561042757600080fd5b5061018f610436366004611625565b6109ad565b60006001600160e01b03198216637965db0b60e01b148061046c57506301ffc9a760e01b6001600160e01b03198316145b92915050565b60fd5460405163c2e1247160e01b815263ffffffff84166004820152602481018390526001600160a01b039091169063c2e12471906044015b600060405180830381600087803b1580156104c557600080fd5b505af11580156104d9573d6000803e3d6000fd5b505050505050565b6000828152606560205260409020600101546104fd8133610a3c565b6105078383610aa0565b505050565b6001600160a01b03811633146105815760405162461bcd60e51b815260206004820152602f60248201527f416363657373436f6e74726f6c3a2063616e206f6e6c792072656e6f756e636560448201526e103937b632b9903337b91039b2b63360891b60648201526084015b60405180910390fd5b61058b8282610b26565b5050565b306001600160a01b037f00000000000000000000000000000000000000000000000000000000000000001614156105d85760405162461bcd60e51b8152600401610578906117cd565b7f00000000000000000000000000000000000000000000000000000000000000006001600160a01b031661060a610b8d565b6001600160a01b0316146106305760405162461bcd60e51b815260040161057890611819565b61063981610bbb565b6040805160008082526020820190925261065591839190610be6565b50565b306001600160a01b037f00000000000000000000000000000000000000000000000000000000000000001614156106a15760405162461bcd60e51b8152600401610578906117cd565b7f00000000000000000000000000000000000000000000000000000000000000006001600160a01b03166106d3610b8d565b6001600160a01b0316146106f95760405162461bcd60e51b815260040161057890611819565b61070282610bbb565b61058b82826001610be6565b60009182526065602090815260408084206001600160a01b0393909316845291905290205460ff1690565b60ff8054166107955760405162461bcd60e51b815260206004820152602260248201527f726564656d7074696f6e7320686176656e2774206265656e2061637469766174604482015261195960f21b6064820152608401610578565b600061079f610d2a565b6107a7610d9d565b6107b990670de0b6b3a764000061187b565b6107c3919061189a565b905060006107d38260fe54610de6565b90506000670de0b6b3a76400006107ea858461187b565b6107f4919061189a565b60fc5460405163079cc67960e41b8152336004820152602481018790529192506001600160a01b0316906379cc679090604401600060405180830381600087803b15801561084157600080fd5b505af1158015610855573d6000803e3d6000fd5b505060fb5461087192506001600160a01b031690503383610dfe565b50505050565b60fd54604051630735b02760e51b815263ffffffff84166004820152602481018390526001600160a01b039091169063e6b604e0906044016104ab565b6108bc610e50565b60ff805460ff19166001179055565b6000828152606560205260409020600101546108e78133610a3c565b6105078383610b26565b600054610100900460ff1661090c5760005460ff1615610910565b303b155b61092c5760405162461bcd60e51b8152600401610578906118bc565b600054610100900460ff1615801561094e576000805461ffff19166101011790555b61095785610e7c565b60fb80546001600160a01b038087166001600160a01b03199283161790925560fc805486841690831617905560fd80549285169290911691909117905580156109a6576000805461ff00191690555b5050505050565b6109b5610e50565b6702c68af0bb1400008111610a015760405162461bcd60e51b81526020600482015260126024820152716261736520707269636520746f6f206c6f7760701b6044820152606401610578565b60fe8190556040518181527ffab5bcbec79a8b5888e114fd4b378427aa58d9b237d85056f0ee5b3ea57df8c59060200160405180910390a150565b610a46828261070e565b61058b57610a5e816001600160a01b03166014610f07565b610a69836020610f07565b604051602001610a7a929190611936565b60408051601f198184030181529082905262461bcd60e51b8252610578916004016119ab565b610aaa828261070e565b61058b5760008281526065602090815260408083206001600160a01b03851684529091529020805460ff19166001179055610ae23390565b6001600160a01b0316816001600160a01b0316837f2f8788117e7eff1d82e926ec794901d17c78024a50270940304540a733656f0d60405160405180910390a45050565b610b30828261070e565b1561058b5760008281526065602090815260408083206001600160a01b0385168085529252808320805460ff1916905551339285917ff6391f5c32d9c69d2a47ea670b442974b53935d1edc7fd64eb21e047a839171b9190a45050565b7f360894a13ba1a3210667c828492db98dca3e2076cc3735a920a3ca505d382bbc546001600160a01b031690565b7f189ab7a9244df0848122154315af71fe140f3db0fe014031783b0946b8c9d2e361058b8133610a3c565b6000610bf0610b8d565b9050610bfb846110a3565b600083511180610c085750815b15610c1957610c178484611148565b505b7f4910fdfa16fed3260ed0e7147f7cc6da11a60208b5b9406d12a635614ffd9143805460ff166109a657805460ff191660011781556040516001600160a01b0383166024820152610c9890869060440160408051601f198184030181529190526020810180516001600160e01b0316631b2ce7f360e11b179052611148565b50805460ff19168155610ca9610b8d565b6001600160a01b0316826001600160a01b031614610d215760405162461bcd60e51b815260206004820152602f60248201527f45524331393637557067726164653a207570677261646520627265616b73206660448201526e75727468657220757067726164657360881b6064820152608401610578565b6109a685611233565b60fc54604080516318160ddd60e01b815290516000926001600160a01b0316916318160ddd9160048083019260209291908290030181865afa158015610d74573d6000803e3d6000fd5b505050506040513d601f19601f82011682018060405250810190610d9891906119de565b905090565b60fb546040516370a0823160e01b81523060048201526000916001600160a01b0316906370a0823190602401602060405180830381865afa158015610d74573d6000803e3d6000fd5b6000818310610df55781610df7565b825b9392505050565b604080516001600160a01b038416602482015260448082018490528251808303909101815260649091019091526020810180516001600160e01b031663a9059cbb60e01b179052610507908490611273565b610e7a7fa49807205ce4d355092ef5a8a18f56e8913cf4a201fbe287825b095693c2177533610a3c565b565b600054610100900460ff16610e975760005460ff1615610e9b565b303b155b610eb75760405162461bcd60e51b8152600401610578906118bc565b600054610100900460ff16158015610ed9576000805461ffff19166101011790555b610ee1611345565b610ee9611384565b610ef2826113ab565b801561058b576000805461ff00191690555050565b60606000610f1683600261187b565b610f219060026119f7565b67ffffffffffffffff811115610f3957610f396116a1565b6040519080825280601f01601f191660200182016040528015610f63576020820181803683370190505b509050600360fc1b81600081518110610f7e57610f7e611a0f565b60200101906001600160f81b031916908160001a905350600f60fb1b81600181518110610fad57610fad611a0f565b60200101906001600160f81b031916908160001a9053506000610fd184600261187b565b610fdc9060016119f7565b90505b6001811115611054576f181899199a1a9b1b9c1cb0b131b232b360811b85600f166010811061101057611010611a0f565b1a60f81b82828151811061102657611026611a0f565b60200101906001600160f81b031916908160001a90535060049490941c9361104d81611a25565b9050610fdf565b508315610df75760405162461bcd60e51b815260206004820181905260248201527f537472696e67733a20686578206c656e67746820696e73756666696369656e746044820152606401610578565b803b6111075760405162461bcd60e51b815260206004820152602d60248201527f455243313936373a206e657720696d706c656d656e746174696f6e206973206e60448201526c1bdd08184818dbdb9d1c9858dd609a1b6064820152608401610578565b7f360894a13ba1a3210667c828492db98dca3e2076cc3735a920a3ca505d382bbc80546001600160a01b0319166001600160a01b0392909216919091179055565b6060823b6111a75760405162461bcd60e51b815260206004820152602660248201527f416464726573733a2064656c65676174652063616c6c20746f206e6f6e2d636f6044820152651b9d1c9858dd60d21b6064820152608401610578565b600080846001600160a01b0316846040516111c29190611a3c565b600060405180830381855af49150503d80600081146111fd576040519150601f19603f3d011682016040523d82523d6000602084013e611202565b606091505b509150915061122a8282604051806060016040528060278152602001611ac66027913961141d565b95945050505050565b61123c816110a3565b6040516001600160a01b038216907fbc7cd75a20ee27fd9adebab32041f755214dbc6bffa90cc0225b39da2e5c2d3b90600090a250565b60006112c8826040518060400160405280602081526020017f5361666545524332303a206c6f772d6c6576656c2063616c6c206661696c6564815250856001600160a01b03166114569092919063ffffffff16565b80519091501561050757808060200190518101906112e69190611a58565b6105075760405162461bcd60e51b815260206004820152602a60248201527f5361666545524332303a204552433230206f7065726174696f6e20646964206e6044820152691bdd081cdd58d8d9595960b21b6064820152608401610578565b600054610100900460ff1661136c5760405162461bcd60e51b815260040161057890611a7a565b61137461146d565b61137c61146d565b610e7a61146d565b600054610100900460ff166113745760405162461bcd60e51b815260040161057890611a7a565b6001600160a01b0381166113be57600080fd5b6113c9600082611494565b6113f37fa49807205ce4d355092ef5a8a18f56e8913cf4a201fbe287825b095693c2177582611494565b6106557f189ab7a9244df0848122154315af71fe140f3db0fe014031783b0946b8c9d2e382611494565b6060831561142c575081610df7565b82511561143c5782518084602001fd5b8160405162461bcd60e51b815260040161057891906119ab565b6060611465848460008561149e565b949350505050565b600054610100900460ff16610e7a5760405162461bcd60e51b815260040161057890611a7a565b61058b8282610aa0565b6060824710156114ff5760405162461bcd60e51b815260206004820152602660248201527f416464726573733a20696e73756666696369656e742062616c616e636520666f6044820152651c8818d85b1b60d21b6064820152608401610578565b843b61154d5760405162461bcd60e51b815260206004820152601d60248201527f416464726573733a2063616c6c20746f206e6f6e2d636f6e74726163740000006044820152606401610578565b600080866001600160a01b031685876040516115699190611a3c565b60006040518083038185875af1925050503d80600081146115a6576040519150601f19603f3d011682016040523d82523d6000602084013e6115ab565b606091505b50915091506115bb82828661141d565b979650505050505050565b6000602082840312156115d857600080fd5b81356001600160e01b031981168114610df757600080fd5b6000806040838503121561160357600080fd5b823563ffffffff8116811461161757600080fd5b946020939093013593505050565b60006020828403121561163757600080fd5b5035919050565b80356001600160a01b038116811461165557600080fd5b919050565b6000806040838503121561166d57600080fd5b8235915061167d6020840161163e565b90509250929050565b60006020828403121561169857600080fd5b610df78261163e565b634e487b7160e01b600052604160045260246000fd5b600080604083850312156116ca57600080fd5b6116d38361163e565b9150602083013567ffffffffffffffff808211156116f057600080fd5b818501915085601f83011261170457600080fd5b813581811115611716576117166116a1565b604051601f8201601f19908116603f0116810190838211818310171561173e5761173e6116a1565b8160405282815288602084870101111561175757600080fd5b8260208601602083013760006020848301015280955050505050509250929050565b6000806000806080858703121561178f57600080fd5b6117988561163e565b93506117a66020860161163e565b92506117b46040860161163e565b91506117c26060860161163e565b905092959194509250565b6020808252602c908201527f46756e6374696f6e206d7573742062652063616c6c6564207468726f7567682060408201526b19195b1959d85d1958d85b1b60a21b606082015260800190565b6020808252602c908201527f46756e6374696f6e206d7573742062652063616c6c6564207468726f7567682060408201526b6163746976652070726f787960a01b606082015260800190565b634e487b7160e01b600052601160045260246000fd5b600081600019048311821515161561189557611895611865565b500290565b6000826118b757634e487b7160e01b600052601260045260246000fd5b500490565b6020808252602e908201527f496e697469616c697a61626c653a20636f6e747261637420697320616c72656160408201526d191e481a5b9a5d1a585b1a5e995960921b606082015260800190565b60005b8381101561192557818101518382015260200161190d565b838111156108715750506000910152565b7f416363657373436f6e74726f6c3a206163636f756e742000000000000000000081526000835161196e81601785016020880161190a565b7001034b99036b4b9b9b4b733903937b6329607d1b601791840191820152835161199f81602884016020880161190a565b01602801949350505050565b60208152600082518060208401526119ca81604085016020870161190a565b601f01601f19169190910160400192915050565b6000602082840312156119f057600080fd5b5051919050565b60008219821115611a0a57611a0a611865565b500190565b634e487b7160e01b600052603260045260246000fd5b600081611a3457611a34611865565b506000190190565b60008251611a4e81846020870161190a565b9190910192915050565b600060208284031215611a6a57600080fd5b81518015158114610df757600080fd5b6020808252602b908201527f496e697469616c697a61626c653a20636f6e7472616374206973206e6f74206960408201526a6e697469616c697a696e6760a81b60608201526080019056fe416464726573733a206c6f772d6c6576656c2064656c65676174652063616c6c206661696c6564a2646970667358221220644eae5eb91661d692b4d0aa53c68ebff7c916d87d0d98cc27b1f4f3f722e7c364736f6c634300080a0033",
  "devdoc": {
    "kind": "dev",
    "methods": {
      "getRoleAdmin(bytes32)": {
        "details": "Returns the admin role that controls `role`. See {grantRole} and {revokeRole}. To change a role's admin, use {_setRoleAdmin}."
      },
      "grantRole(bytes32,address)": {
        "details": "Grants `role` to `account`. If `account` had not been already granted `role`, emits a {RoleGranted} event. Requirements: - the caller must have ``role``'s admin role."
      },
      "hasRole(bytes32,address)": {
        "details": "Returns `true` if `account` has been granted `role`."
      },
      "renounceRole(bytes32,address)": {
        "details": "Revokes `role` from the calling account. Roles are often managed via {grantRole} and {revokeRole}: this function's purpose is to provide a mechanism for accounts to lose their privileges if they are compromised (such as when a trusted device is misplaced). If the calling account had been revoked `role`, emits a {RoleRevoked} event. Requirements: - the caller must be `account`."
      },
      "revokeRole(bytes32,address)": {
        "details": "Revokes `role` from `account`. If `account` had been granted `role`, emits a {RoleRevoked} event. Requirements: - the caller must have ``role``'s admin role."
      },
      "supportsInterface(bytes4)": {
        "details": "See {IERC165-supportsInterface}."
      },
      "upgradeTo(address)": {
        "details": "Upgrade the implementation of the proxy to `newImplementation`. Calls {_authorizeUpgrade}. Emits an {Upgraded} event."
      },
      "upgradeToAndCall(address,bytes)": {
        "details": "Upgrade the implementation of the proxy to `newImplementation`, and subsequently execute the function call encoded in `data`. Calls {_authorizeUpgrade}. Emits an {Upgraded} event."
      }
    },
    "title": "Treasury Contract ",
    "version": 1
  },
  "userdoc": {
    "kind": "user",
    "methods": {},
    "version": 1
  },
  "storageLayout": {
    "storage": [
      {
        "astId": 1051,
        "contract": "contracts/TreasuryAlpha.sol:TreasuryAlpha",
        "label": "_initialized",
        "offset": 0,
        "slot": "0",
        "type": "t_bool"
      },
      {
        "astId": 1054,
        "contract": "contracts/TreasuryAlpha.sol:TreasuryAlpha",
        "label": "_initializing",
        "offset": 1,
        "slot": "0",
        "type": "t_bool"
      },
      {
        "astId": 5350,
        "contract": "contracts/TreasuryAlpha.sol:TreasuryAlpha",
        "label": "__gap",
        "offset": 0,
        "slot": "1",
        "type": "t_array(t_uint256)50_storage"
      },
      {
        "astId": 6272,
        "contract": "contracts/TreasuryAlpha.sol:TreasuryAlpha",
        "label": "__gap",
        "offset": 0,
        "slot": "51",
        "type": "t_array(t_uint256)50_storage"
      },
      {
        "astId": 250,
        "contract": "contracts/TreasuryAlpha.sol:TreasuryAlpha",
        "label": "_roles",
        "offset": 0,
        "slot": "101",
        "type": "t_mapping(t_bytes32,t_struct(RoleData)245_storage)"
      },
      {
        "astId": 537,
        "contract": "contracts/TreasuryAlpha.sol:TreasuryAlpha",
        "label": "__gap",
        "offset": 0,
        "slot": "102",
        "type": "t_array(t_uint256)49_storage"
      },
      {
        "astId": 1033,
        "contract": "contracts/TreasuryAlpha.sol:TreasuryAlpha",
        "label": "__gap",
        "offset": 0,
        "slot": "151",
        "type": "t_array(t_uint256)50_storage"
      },
      {
        "astId": 1228,
        "contract": "contracts/TreasuryAlpha.sol:TreasuryAlpha",
        "label": "__gap",
        "offset": 0,
        "slot": "201",
        "type": "t_array(t_uint256)50_storage"
      },
      {
        "astId": 21067,
        "contract": "contracts/TreasuryAlpha.sol:TreasuryAlpha",
        "label": "paymentToken",
        "offset": 0,
        "slot": "251",
        "type": "t_address"
      },
      {
        "astId": 21069,
        "contract": "contracts/TreasuryAlpha.sol:TreasuryAlpha",
        "label": "floatToken",
        "offset": 0,
        "slot": "252",
        "type": "t_address"
      },
      {
        "astId": 21071,
        "contract": "contracts/TreasuryAlpha.sol:TreasuryAlpha",
        "label": "longShort",
        "offset": 0,
        "slot": "253",
        "type": "t_address"
      },
      {
        "astId": 21073,
        "contract": "contracts/TreasuryAlpha.sol:TreasuryAlpha",
        "label": "basePrice",
        "offset": 0,
        "slot": "254",
        "type": "t_uint256"
      },
      {
        "astId": 21075,
        "contract": "contracts/TreasuryAlpha.sol:TreasuryAlpha",
        "label": "redemptionsActivated",
        "offset": 0,
        "slot": "255",
        "type": "t_bool"
      }
    ],
    "types": {
      "t_address": {
        "encoding": "inplace",
        "label": "address",
        "numberOfBytes": "20"
      },
      "t_array(t_uint256)49_storage": {
        "base": "t_uint256",
        "encoding": "inplace",
        "label": "uint256[49]",
        "numberOfBytes": "1568"
      },
      "t_array(t_uint256)50_storage": {
        "base": "t_uint256",
        "encoding": "inplace",
        "label": "uint256[50]",
        "numberOfBytes": "1600"
      },
      "t_bool": {
        "encoding": "inplace",
        "label": "bool",
        "numberOfBytes": "1"
      },
      "t_bytes32": {
        "encoding": "inplace",
        "label": "bytes32",
        "numberOfBytes": "32"
      },
      "t_mapping(t_address,t_bool)": {
        "encoding": "mapping",
        "key": "t_address",
        "label": "mapping(address => bool)",
        "numberOfBytes": "32",
        "value": "t_bool"
      },
      "t_mapping(t_bytes32,t_struct(RoleData)245_storage)": {
        "encoding": "mapping",
        "key": "t_bytes32",
        "label": "mapping(bytes32 => struct AccessControlUpgradeable.RoleData)",
        "numberOfBytes": "32",
        "value": "t_struct(RoleData)245_storage"
      },
      "t_struct(RoleData)245_storage": {
        "encoding": "inplace",
        "label": "struct AccessControlUpgradeable.RoleData",
        "members": [
          {
            "astId": 242,
            "contract": "contracts/TreasuryAlpha.sol:TreasuryAlpha",
            "label": "members",
            "offset": 0,
            "slot": "0",
            "type": "t_mapping(t_address,t_bool)"
          },
          {
            "astId": 244,
            "contract": "contracts/TreasuryAlpha.sol:TreasuryAlpha",
            "label": "adminRole",
            "offset": 0,
            "slot": "1",
            "type": "t_bytes32"
          }
        ],
        "numberOfBytes": "64"
      },
      "t_uint256": {
        "encoding": "inplace",
        "label": "uint256",
        "numberOfBytes": "32"
      }
    }
  }
}