{
  "address": "0x1f65033EF6890E63517Fe8fbBcDD5489938C7f99",
  "abi": [
    {
      "anonymous": false,
      "inputs": [
        {
          "indexed": false,
          "internalType": "address",
          "name": "previousAdmin",
          "type": "address"
        },
        {
          "indexed": false,
          "internalType": "address",
          "name": "newAdmin",
          "type": "address"
        }
      ],
      "name": "AdminChanged",
      "type": "event"
    },
    {
      "anonymous": false,
      "inputs": [
        {
          "indexed": true,
          "internalType": "address",
          "name": "beacon",
          "type": "address"
        }
      ],
      "name": "BeaconUpgraded",
      "type": "event"
    },
    {
      "anonymous": false,
      "inputs": [
        {
          "indexed": false,
          "internalType": "uint256",
          "name": "amount",
          "type": "uint256"
        }
      ],
      "name": "ClaimAaveRewardTokenToTreasury",
      "type": "event"
    },
    {
      "anonymous": false,
      "inputs": [
        {
          "indexed": true,
          "internalType": "bytes32",
          "name": "role",
          "type": "bytes32"
        },
        {
          "indexed": true,
          "internalType": "bytes32",
          "name": "previousAdminRole",
          "type": "bytes32"
        },
        {
          "indexed": true,
          "internalType": "bytes32",
          "name": "newAdminRole",
          "type": "bytes32"
        }
      ],
      "name": "RoleAdminChanged",
      "type": "event"
    },
    {
      "anonymous": false,
      "inputs": [
        {
          "indexed": true,
          "internalType": "bytes32",
          "name": "role",
          "type": "bytes32"
        },
        {
          "indexed": true,
          "internalType": "address",
          "name": "account",
          "type": "address"
        },
        {
          "indexed": true,
          "internalType": "address",
          "name": "sender",
          "type": "address"
        }
      ],
      "name": "RoleGranted",
      "type": "event"
    },
    {
      "anonymous": false,
      "inputs": [
        {
          "indexed": true,
          "internalType": "bytes32",
          "name": "role",
          "type": "bytes32"
        },
        {
          "indexed": true,
          "internalType": "address",
          "name": "account",
          "type": "address"
        },
        {
          "indexed": true,
          "internalType": "address",
          "name": "sender",
          "type": "address"
        }
      ],
      "name": "RoleRevoked",
      "type": "event"
    },
    {
      "anonymous": false,
      "inputs": [
        {
          "indexed": true,
          "internalType": "address",
          "name": "implementation",
          "type": "address"
        }
      ],
      "name": "Upgraded",
      "type": "event"
    },
    {
      "anonymous": false,
      "inputs": [],
      "name": "WithdrawTreasuryFunds",
      "type": "event"
    },
    {
      "anonymous": false,
      "inputs": [
        {
          "indexed": false,
          "internalType": "uint256",
          "name": "unrealizedYield",
          "type": "uint256"
        },
        {
          "indexed": false,
          "internalType": "uint256",
          "name": "treasuryYieldPercent_e18",
          "type": "uint256"
        }
      ],
      "name": "YieldDistributed",
      "type": "event"
    },
    {
      "inputs": [],
      "name": "ADMIN_ROLE",
      "outputs": [
        {
          "internalType": "bytes32",
          "name": "",
          "type": "bytes32"
        }
      ],
      "stateMutability": "view",
      "type": "function"
    },
    {
      "inputs": [],
      "name": "DEFAULT_ADMIN_ROLE",
      "outputs": [
        {
          "internalType": "bytes32",
          "name": "",
          "type": "bytes32"
        }
      ],
      "stateMutability": "view",
      "type": "function"
    },
    {
      "inputs": [],
      "name": "UPGRADER_ROLE",
      "outputs": [
        {
          "internalType": "bytes32",
          "name": "",
          "type": "bytes32"
        }
      ],
      "stateMutability": "view",
      "type": "function"
    },
    {
      "inputs": [],
      "name": "aToken",
      "outputs": [
        {
          "internalType": "contract IERC20Upgradeable",
          "name": "",
          "type": "address"
        }
      ],
      "stateMutability": "view",
      "type": "function"
    },
    {
      "inputs": [],
      "name": "aaveIncentivesController",
      "outputs": [
        {
          "internalType": "contract IAaveIncentivesController",
          "name": "",
          "type": "address"
        }
      ],
      "stateMutability": "view",
      "type": "function"
    },
    {
      "inputs": [],
      "name": "amountReservedInCaseOfInsufficientAaveLiquidity",
      "outputs": [
        {
          "internalType": "uint256",
          "name": "",
          "type": "uint256"
        }
      ],
      "stateMutability": "view",
      "type": "function"
    },
    {
      "inputs": [],
      "name": "claimAaveRewardsToTreasury",
      "outputs": [],
      "stateMutability": "nonpayable",
      "type": "function"
    },
    {
      "inputs": [
        {
          "internalType": "uint256",
          "name": "amount",
          "type": "uint256"
        }
      ],
      "name": "depositPaymentToken",
      "outputs": [],
      "stateMutability": "nonpayable",
      "type": "function"
    },
    {
      "inputs": [
        {
          "internalType": "uint256",
          "name": "totalValueRealizedForMarket",
          "type": "uint256"
        },
        {
          "internalType": "uint256",
          "name": "treasuryYieldPercent_e18",
          "type": "uint256"
        }
      ],
      "name": "distributeYieldForTreasuryAndReturnMarketAllocation",
      "outputs": [
        {
          "internalType": "uint256",
          "name": "",
          "type": "uint256"
        }
      ],
      "stateMutability": "nonpayable",
      "type": "function"
    },
    {
      "inputs": [
        {
          "internalType": "bytes32",
          "name": "role",
          "type": "bytes32"
        }
      ],
      "name": "getRoleAdmin",
      "outputs": [
        {
          "internalType": "bytes32",
          "name": "",
          "type": "bytes32"
        }
      ],
      "stateMutability": "view",
      "type": "function"
    },
    {
      "inputs": [
        {
          "internalType": "bytes32",
          "name": "role",
          "type": "bytes32"
        },
        {
          "internalType": "address",
          "name": "account",
          "type": "address"
        }
      ],
      "name": "grantRole",
      "outputs": [],
      "stateMutability": "nonpayable",
      "type": "function"
    },
    {
      "inputs": [
        {
          "internalType": "bytes32",
          "name": "role",
          "type": "bytes32"
        },
        {
          "internalType": "address",
          "name": "account",
          "type": "address"
        }
      ],
      "name": "hasRole",
      "outputs": [
        {
          "internalType": "bool",
          "name": "",
          "type": "bool"
        }
      ],
      "stateMutability": "view",
      "type": "function"
    },
    {
      "inputs": [
        {
          "internalType": "address",
          "name": "_longShort",
          "type": "address"
        },
        {
          "internalType": "address",
          "name": "_treasury",
          "type": "address"
        },
        {
          "internalType": "address",
          "name": "_paymentToken",
          "type": "address"
        },
        {
          "internalType": "address",
          "name": "_aToken",
          "type": "address"
        },
        {
          "internalType": "address",
          "name": "_lendingPoolAddressesProvider",
          "type": "address"
        },
        {
          "internalType": "address",
          "name": "_aaveIncentivesController",
          "type": "address"
        },
        {
          "internalType": "uint16",
          "name": "_aaveReferralCode",
          "type": "uint16"
        },
        {
          "internalType": "address",
          "name": "_admin",
          "type": "address"
        }
      ],
      "name": "initialize",
      "outputs": [],
      "stateMutability": "nonpayable",
      "type": "function"
    },
    {
      "inputs": [],
      "name": "initializeForMarket",
      "outputs": [],
      "stateMutability": "nonpayable",
      "type": "function"
    },
    {
      "inputs": [],
      "name": "isInitialized",
      "outputs": [
        {
          "internalType": "bool",
          "name": "",
          "type": "bool"
        }
      ],
      "stateMutability": "view",
      "type": "function"
    },
    {
      "inputs": [],
      "name": "lendingPoolAddressesProvider",
      "outputs": [
        {
          "internalType": "contract ILendingPoolAddressesProvider",
          "name": "",
          "type": "address"
        }
      ],
      "stateMutability": "view",
      "type": "function"
    },
    {
      "inputs": [],
      "name": "longShort",
      "outputs": [
        {
          "internalType": "address",
          "name": "",
          "type": "address"
        }
      ],
      "stateMutability": "view",
      "type": "function"
    },
    {
      "inputs": [],
      "name": "paymentToken",
      "outputs": [
        {
          "internalType": "contract IERC20",
          "name": "",
          "type": "address"
        }
      ],
      "stateMutability": "view",
      "type": "function"
    },
    {
      "inputs": [
        {
          "internalType": "uint256",
          "name": "amount",
          "type": "uint256"
        }
      ],
      "name": "removePaymentTokenFromMarket",
      "outputs": [],
      "stateMutability": "nonpayable",
      "type": "function"
    },
    {
      "inputs": [
        {
          "internalType": "bytes32",
          "name": "role",
          "type": "bytes32"
        },
        {
          "internalType": "address",
          "name": "account",
          "type": "address"
        }
      ],
      "name": "renounceRole",
      "outputs": [],
      "stateMutability": "nonpayable",
      "type": "function"
    },
    {
      "inputs": [
        {
          "internalType": "bytes32",
          "name": "role",
          "type": "bytes32"
        },
        {
          "internalType": "address",
          "name": "account",
          "type": "address"
        }
      ],
      "name": "revokeRole",
      "outputs": [],
      "stateMutability": "nonpayable",
      "type": "function"
    },
    {
      "inputs": [
        {
          "internalType": "bytes4",
          "name": "interfaceId",
          "type": "bytes4"
        }
      ],
      "name": "supportsInterface",
      "outputs": [
        {
          "internalType": "bool",
          "name": "",
          "type": "bool"
        }
      ],
      "stateMutability": "view",
      "type": "function"
    },
    {
      "inputs": [],
      "name": "totalReservedForTreasury",
      "outputs": [
        {
          "internalType": "uint256",
          "name": "",
          "type": "uint256"
        }
      ],
      "stateMutability": "view",
      "type": "function"
    },
    {
      "inputs": [
        {
          "internalType": "address",
          "name": "user",
          "type": "address"
        },
        {
          "internalType": "uint256",
          "name": "amount",
          "type": "uint256"
        }
      ],
      "name": "transferPaymentTokensToUser",
      "outputs": [],
      "stateMutability": "nonpayable",
      "type": "function"
    },
    {
      "inputs": [],
      "name": "treasury",
      "outputs": [
        {
          "internalType": "address",
          "name": "",
          "type": "address"
        }
      ],
      "stateMutability": "view",
      "type": "function"
    },
    {
      "inputs": [],
      "name": "updateLatestLendingPoolAddress",
      "outputs": [],
      "stateMutability": "nonpayable",
      "type": "function"
    },
    {
      "inputs": [
        {
          "internalType": "address",
          "name": "newImplementation",
          "type": "address"
        }
      ],
      "name": "upgradeTo",
      "outputs": [],
      "stateMutability": "nonpayable",
      "type": "function"
    },
    {
      "inputs": [
        {
          "internalType": "address",
          "name": "newImplementation",
          "type": "address"
        },
        {
          "internalType": "bytes",
          "name": "data",
          "type": "bytes"
        }
      ],
      "name": "upgradeToAndCall",
      "outputs": [],
      "stateMutability": "payable",
      "type": "function"
    },
    {
      "inputs": [],
      "name": "withdrawTreasuryFunds",
      "outputs": [],
      "stateMutability": "nonpayable",
      "type": "function"
    }
  ],
  "transactionHash": "0xa1316dac6bed77b5060c01f11bb7b4acfbd7056c663d5ee5c6efabb21287977f",
  "args": [],
  "solcInputHash": "f992b3c18d8822e024711f3a6d00ccf4",
  "bytecode": "0x608060405234801561001057600080fd5b5061234f806100206000396000f3fe6080604052600436106101c25760003560e01c80634f1ef286116100f757806391d1485411610095578063d547741f11610064578063d547741f146104ff578063eb6bffa21461051f578063edf565cc1461053f578063f72c0d8b14610554576101c2565b806391d148541461048a578063a0c1f15e146104aa578063a217fddf146104ca578063bba00ba5146104df576101c2565b806361d027b3116100d157806361d027b3146103f657806375b238fc146104165780638a5599b21461044a5780639063ee201461046a576101c2565b80634f1ef286146103a25780635d3a3890146103b55780635f2475ca146103d5576101c2565b80632f2ff15d1161016457806336568abe1161013e57806336568abe1461032c5780633659cfe61461034c578063392e53cd1461036c578063447479db1461038d576101c2565b80632f2ff15d146102d75780633013ce29146102f757806334944bb014610317576101c2565b80632429e535116101a05780632429e53514610233578063248a9ca31461025857806329949872146102885780632ae320cb146102c0576101c2565b806301ffc9a7146101c757806315429969146101fc5780631c499b5514610213575b600080fd5b3480156101d357600080fd5b506101e76101e2366004611ffe565b610588565b60405190151581526020015b60405180910390f35b34801561020857600080fd5b506102116105bf565b005b34801561021f57600080fd5b5061021161022e366004611fb7565b6106ca565b34801561023f57600080fd5b5061024a6101015481565b6040519081526020016101f3565b34801561026457600080fd5b5061024a610273366004611fb7565b60009081526065602052604090206001015490565b34801561029457600080fd5b5060fb546102a8906001600160a01b031681565b6040516001600160a01b0390911681526020016101f3565b3480156102cc57600080fd5b5061024a6101025481565b3480156102e357600080fd5b506102116102f2366004611fcf565b61082c565b34801561030357600080fd5b5060fd546102a8906001600160a01b031681565b34801561032357600080fd5b50610211610858565b34801561033857600080fd5b50610211610347366004611fcf565b6109fa565b34801561035857600080fd5b50610211610367366004611dc7565b610a74565b34801561037857600080fd5b5060fc546101e790600160a01b900460ff1681565b34801561039957600080fd5b50610211610a98565b6102116103b0366004611ead565b610bdc565b3480156103c157600080fd5b506102116103d0366004611dff565b610bf1565b3480156103e157600080fd5b50610100546102a8906001600160a01b031681565b34801561040257600080fd5b5060fc546102a8906001600160a01b031681565b34801561042257600080fd5b5061024a7fa49807205ce4d355092ef5a8a18f56e8913cf4a201fbe287825b095693c2177581565b34801561045657600080fd5b5061024a61046536600461203e565b610e88565b34801561047657600080fd5b50610211610485366004611fb7565b610ffa565b34801561049657600080fd5b506101e76104a5366004611fcf565b61116a565b3480156104b657600080fd5b5060fe546102a8906001600160a01b031681565b3480156104d657600080fd5b5061024a600081565b3480156104eb57600080fd5b5060ff546102a8906001600160a01b031681565b34801561050b57600080fd5b5061021161051a366004611fcf565b611195565b34801561052b57600080fd5b5061021161053a366004611f6c565b6111bb565b34801561054b57600080fd5b5061021161139c565b34801561056057600080fd5b5061024a7f189ab7a9244df0848122154315af71fe140f3db0fe014031783b0946b8c9d2e381565b60006001600160e01b03198216637965db0b60e01b14806105b957506301ffc9a760e01b6001600160e01b03198316145b92915050565b60fd5460ff5460408051630261bf8b60e01b815290516001600160a01b039384169363095ea7b3931691630261bf8b916004808301926020929190829003018186803b15801561060e57600080fd5b505afa158015610622573d6000803e3d6000fd5b505050506040513d601f19601f820116820180604052508101906106469190611de3565b6040516001600160e01b031960e084901b1681526001600160a01b0390911660048201526000196024820152604401602060405180830381600087803b15801561068f57600080fd5b505af11580156106a3573d6000803e3d6000fd5b505050506040513d601f19601f820116820180604052508101906106c79190611f97565b50565b60fb546001600160a01b031633146106fd5760405162461bcd60e51b81526004016106f490612187565b60405180910390fd5b60ff60009054906101000a90046001600160a01b03166001600160a01b0316630261bf8b6040518163ffffffff1660e01b815260040160206040518083038186803b15801561074b57600080fd5b505afa15801561075f573d6000803e3d6000fd5b505050506040513d601f19601f820116820180604052508101906107839190611de3565b60fd54604051631a4ca37b60e21b81526001600160a01b039182166004820152602481018490523060448201529116906369328dec90606401602060405180830381600087803b1580156107d657600080fd5b505af1925050508015610806575060408051601f3d908101601f1916820190925261080391810190612026565b60015b6108285780610102600082825461081d91906121fc565b909155506106c79050565b5050565b60008281526065602052604090206001015461084981335b611435565b6108538383611499565b505050565b61010054604051630cc7d40f60e11b81523060048201526001600160a01b0390911690600090829063198fa81e9060240160206040518083038186803b1580156108a157600080fd5b505afa1580156108b5573d6000803e3d6000fd5b505050506040513d601f19601f820116820180604052508101906108d99190612026565b6040805160018082528183019092529192506000919060208083019080368337505060fe5482519293506001600160a01b03169183915060009061092d57634e487b7160e01b600052603260045260246000fd5b6001600160a01b03928316602091820292909201015260fc54604051633111e7b360e01b815285831692633111e7b39261096f928692889216906004016120f0565b602060405180830381600087803b15801561098957600080fd5b505af115801561099d573d6000803e3d6000fd5b505050506040513d601f19601f820116820180604052508101906109c19190612026565b506040518281527fbdeb6031c2eac1ba6d1bd54a501b8942cf452ed6eb9f9a58512591a1faea22a49060200160405180910390a1505050565b6001600160a01b0381163314610a6a5760405162461bcd60e51b815260206004820152602f60248201527f416363657373436f6e74726f6c3a2063616e206f6e6c792072656e6f756e636560448201526e103937b632b9903337b91039b2b63360891b60648201526084016106f4565b610828828261151f565b610a7d81611586565b6106c7816040518060200160405280600081525060006115b1565b6101018054600090915560ff5460408051630261bf8b60e01b815290516001600160a01b0390921691630261bf8b91600480820192602092909190829003018186803b158015610ae757600080fd5b505afa158015610afb573d6000803e3d6000fd5b505050506040513d601f19601f82011682018060405250810190610b1f9190611de3565b60fd5460fc54604051631a4ca37b60e21b81526001600160a01b0392831660048201526024810185905290821660448201529116906369328dec90606401602060405180830381600087803b158015610b7757600080fd5b505af1158015610b8b573d6000803e3d6000fd5b505050506040513d601f19601f82011682018060405250810190610baf9190612026565b506040517f5b1d5b57337c7653ccd178787bc6e5aa6f8a6ee09b781e7a624d776e69d044cb90600090a150565b610be582611586565b610828828260016115b1565b600054610100900460ff1680610c0a575060005460ff16155b610c265760405162461bcd60e51b81526004016106f4906121ae565b600054610100900460ff16158015610c48576000805461ffff19166101011790555b6001600160a01b03891615801590610c6857506001600160a01b03881615155b8015610c7c57506001600160a01b03871615155b8015610c9057506001600160a01b03861615155b8015610ca457506001600160a01b03851615155b8015610cb857506001600160a01b03841615155b8015610ccc57506001600160a01b03821615155b610cd557600080fd5b60fb80546001600160a01b03808c166001600160a01b03199283161790925560fc8054928b1692909116919091179055610d0e82611732565b610100805460fd80546001600160a01b03808c166001600160a01b0319928316811790935560fe80548c831690841617905560ff80548b8316908416811790915590891661ffff8916600160a01b02929092166001600160b01b0319909416939093171790925560408051630261bf8b60e01b8152905163095ea7b39291630261bf8b916004808301926020929190829003018186803b158015610db157600080fd5b505afa158015610dc5573d6000803e3d6000fd5b505050506040513d601f19601f82011682018060405250810190610de99190611de3565b6040516001600160e01b031960e084901b1681526001600160a01b0390911660048201526000196024820152604401602060405180830381600087803b158015610e3257600080fd5b505af1158015610e46573d6000803e3d6000fd5b505050506040513d601f19601f82011682018060405250810190610e6a9190611f97565b508015610e7d576000805461ff00191690555b505050505050505050565b60fb546000906001600160a01b03163314610eb55760405162461bcd60e51b81526004016106f490612187565b60fe546040516370a0823160e01b81523060048201526000916001600160a01b0316906370a082319060240160206040518083038186803b158015610ef957600080fd5b505afa158015610f0d573d6000803e3d6000fd5b505050506040513d601f19601f82011682018060405250810190610f319190612026565b610101546101025491925090600090610f4a83886121fc565b610f5491906121fc565b905082811415610f6a57600093505050506105b9565b6000610f768285612253565b90506000670de0b6b3a7640000610f8d8884612234565b610f979190612214565b90506000610fa58284612253565b9050610fb182866121fc565b6101015560408051848152602081018a90527ffe4996cd48c364c468cee70dd6b9061874ff01b05c5ea49311cbcabd9b9cb615910160405180910390a198975050505050505050565b60fb546001600160a01b031633146110245760405162461bcd60e51b81526004016106f490612187565b61010254156110615780610102541061104a5780610102600082825461081d9190612253565b610102546110589082612253565b60006101025590505b60ff60009054906101000a90046001600160a01b03166001600160a01b0316630261bf8b6040518163ffffffff1660e01b815260040160206040518083038186803b1580156110af57600080fd5b505afa1580156110c3573d6000803e3d6000fd5b505050506040513d601f19601f820116820180604052508101906110e79190611de3565b60fd546101005460405163e8eda9df60e01b81526001600160a01b03928316600482015260248101859052306044820152600160a01b90910461ffff16606482015291169063e8eda9df90608401600060405180830381600087803b15801561114f57600080fd5b505af1158015611163573d6000803e3d6000fd5b5050505050565b60009182526065602090815260408084206001600160a01b0393909316845291905290205460ff1690565b6000828152606560205260409020600101546111b18133610844565b610853838361151f565b60fb546001600160a01b031633146111e55760405162461bcd60e51b81526004016106f490612187565b60fd5460405163a9059cbb60e01b81526001600160a01b038481166004830152602482018490529091169063a9059cbb90604401602060405180830381600087803b15801561123357600080fd5b505af1925050508015611263575060408051601f3d908101601f1916820190925261126091810190611f97565b60015b61126c5761127a565b80156112785750610828565b505b80610102600082825461128d9190612253565b909155505060ff5460408051630261bf8b60e01b815290516001600160a01b0390921691630261bf8b91600480820192602092909190829003018186803b1580156112d757600080fd5b505afa1580156112eb573d6000803e3d6000fd5b505050506040513d601f19601f8201168201806040525081019061130f9190611de3565b60fd54604051631a4ca37b60e21b81526001600160a01b0391821660048201526024810184905284821660448201529116906369328dec90606401602060405180830381600087803b15801561136457600080fd5b505af1158015611378573d6000803e3d6000fd5b505050506040513d601f19601f820116820180604052508101906108539190612026565b60fb546001600160a01b031633146113c65760405162461bcd60e51b81526004016106f490612187565b60fc54600160a01b900460ff16156114205760405162461bcd60e51b815260206004820152601f60248201527f5969656c64204d616e6167657220697320616c726561647920696e207573650060448201526064016106f4565b60fc805460ff60a01b1916600160a01b179055565b61143f828261116a565b61082857611457816001600160a01b031660146117b7565b6114628360206117b7565b60405160200161147392919061207b565b60408051601f198184030181529082905262461bcd60e51b82526106f491600401612154565b6114a3828261116a565b6108285760008281526065602090815260408083206001600160a01b03851684529091529020805460ff191660011790556114db3390565b6001600160a01b0316816001600160a01b0316837f2f8788117e7eff1d82e926ec794901d17c78024a50270940304540a733656f0d60405160405180910390a45050565b611529828261116a565b156108285760008281526065602090815260408083206001600160a01b0385168085529252808320805460ff1916905551339285917ff6391f5c32d9c69d2a47ea670b442974b53935d1edc7fd64eb21e047a839171b9190a45050565b7f189ab7a9244df0848122154315af71fe140f3db0fe014031783b0946b8c9d2e36108288133610844565b60006115e47f360894a13ba1a3210667c828492db98dca3e2076cc3735a920a3ca505d382bbc546001600160a01b031690565b90506115ef846119a0565b6000835111806115fc5750815b1561160d5761160b8484611a45565b505b7f4910fdfa16fed3260ed0e7147f7cc6da11a60208b5b9406d12a635614ffd9143805460ff1661116357805460ff191660011781556040516001600160a01b038316602482015261168c90869060440160408051601f198184030181529190526020810180516001600160e01b0316631b2ce7f360e11b179052611a45565b50805460ff191681557f360894a13ba1a3210667c828492db98dca3e2076cc3735a920a3ca505d382bbc546001600160a01b038381169116146117295760405162461bcd60e51b815260206004820152602f60248201527f45524331393637557067726164653a207570677261646520627265616b73206660448201526e75727468657220757067726164657360881b60648201526084016106f4565b61116385611b30565b600054610100900460ff168061174b575060005460ff16155b6117675760405162461bcd60e51b81526004016106f4906121ae565b600054610100900460ff16158015611789576000805461ffff19166101011790555b611791611b70565b611799611bf3565b6117a282611c51565b8015610828576000805461ff00191690555050565b606060006117c6836002612234565b6117d19060026121fc565b67ffffffffffffffff8111156117f757634e487b7160e01b600052604160045260246000fd5b6040519080825280601f01601f191660200182016040528015611821576020820181803683370190505b509050600360fc1b8160008151811061184a57634e487b7160e01b600052603260045260246000fd5b60200101906001600160f81b031916908160001a905350600f60fb1b8160018151811061188757634e487b7160e01b600052603260045260246000fd5b60200101906001600160f81b031916908160001a90535060006118ab846002612234565b6118b69060016121fc565b90505b600181111561194a576f181899199a1a9b1b9c1cb0b131b232b360811b85600f16601081106118f857634e487b7160e01b600052603260045260246000fd5b1a60f81b82828151811061191c57634e487b7160e01b600052603260045260246000fd5b60200101906001600160f81b031916908160001a90535060049490941c936119438161229a565b90506118b9565b5083156119995760405162461bcd60e51b815260206004820181905260248201527f537472696e67733a20686578206c656e67746820696e73756666696369656e7460448201526064016106f4565b9392505050565b803b611a045760405162461bcd60e51b815260206004820152602d60248201527f455243313936373a206e657720696d706c656d656e746174696f6e206973206e60448201526c1bdd08184818dbdb9d1c9858dd609a1b60648201526084016106f4565b7f360894a13ba1a3210667c828492db98dca3e2076cc3735a920a3ca505d382bbc80546001600160a01b0319166001600160a01b0392909216919091179055565b6060823b611aa45760405162461bcd60e51b815260206004820152602660248201527f416464726573733a2064656c65676174652063616c6c20746f206e6f6e2d636f6044820152651b9d1c9858dd60d21b60648201526084016106f4565b600080846001600160a01b031684604051611abf919061205f565b600060405180830381855af49150503d8060008114611afa576040519150601f19603f3d011682016040523d82523d6000602084013e611aff565b606091505b5091509150611b2782826040518060600160405280602781526020016122f360279139611d1a565b95945050505050565b611b39816119a0565b6040516001600160a01b038216907fbc7cd75a20ee27fd9adebab32041f755214dbc6bffa90cc0225b39da2e5c2d3b90600090a250565b600054610100900460ff1680611b89575060005460ff16155b611ba55760405162461bcd60e51b81526004016106f4906121ae565b600054610100900460ff16158015611bc7576000805461ffff19166101011790555b611bcf611d53565b611bd7611d53565b611bdf611d53565b80156106c7576000805461ff001916905550565b600054610100900460ff1680611c0c575060005460ff16155b611c285760405162461bcd60e51b81526004016106f4906121ae565b600054610100900460ff16158015611bcf576000805461ffff1916610101179055611bd7611d53565b600054610100900460ff1680611c6a575060005460ff16155b611c865760405162461bcd60e51b81526004016106f4906121ae565b600054610100900460ff16158015611ca8576000805461ffff19166101011790555b6001600160a01b038216611cbb57600080fd5b611cc6600083611dbd565b611cf07fa49807205ce4d355092ef5a8a18f56e8913cf4a201fbe287825b095693c2177583611dbd565b6117a27f189ab7a9244df0848122154315af71fe140f3db0fe014031783b0946b8c9d2e383611dbd565b60608315611d29575081611999565b825115611d395782518084602001fd5b8160405162461bcd60e51b81526004016106f49190612154565b600054610100900460ff1680611d6c575060005460ff16155b611d885760405162461bcd60e51b81526004016106f4906121ae565b600054610100900460ff16158015611bdf576000805461ffff191661010117905580156106c7576000805461ff001916905550565b6108288282611499565b600060208284031215611dd8578081fd5b8135611999816122dd565b600060208284031215611df4578081fd5b8151611999816122dd565b600080600080600080600080610100898b031215611e1b578384fd5b8835611e26816122dd565b97506020890135611e36816122dd565b96506040890135611e46816122dd565b95506060890135611e56816122dd565b94506080890135611e66816122dd565b935060a0890135611e76816122dd565b925060c089013561ffff81168114611e8c578283fd5b915060e0890135611e9c816122dd565b809150509295985092959890939650565b60008060408385031215611ebf578182fd5b8235611eca816122dd565b9150602083013567ffffffffffffffff80821115611ee6578283fd5b818501915085601f830112611ef9578283fd5b813581811115611f0b57611f0b6122c7565b604051601f8201601f19908116603f01168101908382118183101715611f3357611f336122c7565b81604052828152886020848701011115611f4b578586fd5b82602086016020830137856020848301015280955050505050509250929050565b60008060408385031215611f7e578182fd5b8235611f89816122dd565b946020939093013593505050565b600060208284031215611fa8578081fd5b81518015158114611999578182fd5b600060208284031215611fc8578081fd5b5035919050565b60008060408385031215611fe1578182fd5b823591506020830135611ff3816122dd565b809150509250929050565b60006020828403121561200f578081fd5b81356001600160e01b031981168114611999578182fd5b600060208284031215612037578081fd5b5051919050565b60008060408385031215612050578182fd5b50508035926020909101359150565b6000825161207181846020870161226a565b9190910192915050565b60007f416363657373436f6e74726f6c3a206163636f756e7420000000000000000000825283516120b381601785016020880161226a565b7001034b99036b4b9b9b4b733903937b6329607d1b60179184019182015283516120e481602884016020880161226a565b01602801949350505050565b606080825284519082018190526000906020906080840190828801845b828110156121325781516001600160a01b03168452928401929084019060010161210d565b50505090830194909452506001600160a01b0391909116604090910152919050565b600060208252825180602084015261217381604085016020870161226a565b601f01601f19169190910160400192915050565b6020808252600d908201526c139bdd081b1bdb99d4da1bdc9d609a1b604082015260600190565b6020808252602e908201527f496e697469616c697a61626c653a20636f6e747261637420697320616c72656160408201526d191e481a5b9a5d1a585b1a5e995960921b606082015260800190565b6000821982111561220f5761220f6122b1565b500190565b60008261222f57634e487b7160e01b81526012600452602481fd5b500490565b600081600019048311821515161561224e5761224e6122b1565b500290565b600082821015612265576122656122b1565b500390565b60005b8381101561228557818101518382015260200161226d565b83811115612294576000848401525b50505050565b6000816122a9576122a96122b1565b506000190190565b634e487b7160e01b600052601160045260246000fd5b634e487b7160e01b600052604160045260246000fd5b6001600160a01b03811681146106c757600080fdfe416464726573733a206c6f772d6c6576656c2064656c65676174652063616c6c206661696c6564a264697066735822122061c70aab4ceb80431078b3b8a133042e3380167471ee409f8beb381cd0e586b464736f6c63430008030033",
  "devdoc": {
    "details": "https://docs.aave.com/portal/",
    "kind": "dev",
    "methods": {
      "claimAaveRewardsToTreasury()": {
        "details": "This is specifically implemented to allow withdrawal of aave reward wMatic tokens accrued"
      },
      "depositPaymentToken(uint256)": {
        "params": {
          "amount": "Amount of payment token to deposit"
        }
      },
      "distributeYieldForTreasuryAndReturnMarketAllocation(uint256,uint256)": {
        "details": "treasuryPercent = 1 - marketPercent",
        "params": {
          "totalValueRealizedForMarket": "total value of long and short side of the market",
          "treasuryYieldPercent_e18": "Percentage of yield in base 1e18 that is allocated to the treasury"
        },
        "returns": {
          "_0": "The market allocation of the yield"
        }
      },
      "getRoleAdmin(bytes32)": {
        "details": "Returns the admin role that controls `role`. See {grantRole} and {revokeRole}. To change a role's admin, use {_setRoleAdmin}."
      },
      "grantRole(bytes32,address)": {
        "details": "Grants `role` to `account`. If `account` had not been already granted `role`, emits a {RoleGranted} event. Requirements: - the caller must have ``role``'s admin role."
      },
      "hasRole(bytes32,address)": {
        "details": "Returns `true` if `account` has been granted `role`."
      },
      "initialize(address,address,address,address,address,address,uint16,address)": {
        "details": "referral code will be set to 0, depricated Aave feature",
        "params": {
          "_aToken": "address of the interest accruing token linked to the payment token",
          "_aaveReferralCode": "unique code for aave referrals",
          "_admin": "admin for the contract",
          "_lendingPoolAddressesProvider": "address of the aave lending pool address provider contract",
          "_longShort": "address of the longShort contract",
          "_paymentToken": "address of the payment token",
          "_treasury": "address of the treasury contract"
        }
      },
      "removePaymentTokenFromMarket(uint256)": {
        "details": "This will update the amountReservedInCaseOfInsufficientAaveLiquidity if not enough liquidity is avaiable on aave.      This means that our system can continue to operate even if there is insufficient liquidity in Aave for any reason.",
        "params": {
          "amount": "Amount of payment token to withdraw"
        }
      },
      "renounceRole(bytes32,address)": {
        "details": "Revokes `role` from the calling account. Roles are often managed via {grantRole} and {revokeRole}: this function's purpose is to provide a mechanism for accounts to lose their privileges if they are compromised (such as when a trusted device is misplaced). If the calling account had been granted `role`, emits a {RoleRevoked} event. Requirements: - the caller must be `account`."
      },
      "revokeRole(bytes32,address)": {
        "details": "Revokes `role` from `account`. If `account` had been granted `role`, emits a {RoleRevoked} event. Requirements: - the caller must have ``role``'s admin role."
      },
      "supportsInterface(bytes4)": {
        "details": "See {IERC165-supportsInterface}."
      },
      "transferPaymentTokensToUser(address,uint256)": {
        "params": {
          "amount": "Amount of payment token to pay to user",
          "user": "User to recieve the payout"
        }
      },
      "upgradeTo(address)": {
        "details": "Upgrade the implementation of the proxy to `newImplementation`. Calls {_authorizeUpgrade}. Emits an {Upgraded} event."
      },
      "upgradeToAndCall(address,bytes)": {
        "details": "Upgrade the implementation of the proxy to `newImplementation`, and subsequently execute the function call encoded in `data`. Calls {_authorizeUpgrade}. Emits an {Upgraded} event."
      }
    },
    "stateVariables": {
      "aToken": {
        "details": "ADAI token"
      },
      "amountReservedInCaseOfInsufficientAaveLiquidity": {
        "details": "This value will likely remain zero forever. It exists to handle the rare edge case that Aave doesn't have enough liquidity for a withdrawal.      In this case this variable would keep track of that so that the withdrawal can happen after the fact when liquidity becomes available."
      },
      "paymentToken": {
        "details": "DAI token"
      },
      "referralCode": {
        "details": "An aave specific referralCode that has been a depricated feature. This will be set to 0 for \"no referral\" at deployment"
      }
    },
    "title": "YieldManagerAave",
    "version": 1
  },
  "userdoc": {
    "kind": "user",
    "methods": {
      "aToken()": {
        "notice": "The token representing the interest accruing payment token position from Aave"
      },
      "aaveIncentivesController()": {
        "notice": "The specific Aave incentives controller contract"
      },
      "claimAaveRewardsToTreasury()": {
        "notice": "Allows for withdrawal of aave rewards to the treasury contract"
      },
      "depositPaymentToken(uint256)": {
        "notice": "Allows the LongShort contract to deposit tokens into the aave pool"
      },
      "distributeYieldForTreasuryAndReturnMarketAllocation(uint256,uint256)": {
        "notice": "Calculates and updates the yield allocation to the treasury and the market"
      },
      "initialize(address,address,address,address,address,address,uint16,address)": {
        "notice": "Constructor for initializing the aave yield manager with a given payment token and corresponding Aave contracts"
      },
      "initializeForMarket()": {
        "notice": "Initializes a specific yield manager to a given market"
      },
      "isInitialized()": {
        "notice": "boolean to prevent markets using an already initialized market"
      },
      "lendingPoolAddressesProvider()": {
        "notice": "The specific Aave lending pool address provider contract"
      },
      "longShort()": {
        "notice": "address of longShort contract"
      },
      "paymentToken()": {
        "notice": "The payment token the yield manager supports"
      },
      "removePaymentTokenFromMarket(uint256)": {
        "notice": "Allows the LongShort contract to redeem aTokens for the payment token"
      },
      "totalReservedForTreasury()": {
        "notice": "distributed yield not yet transferred to the treasury"
      },
      "transferPaymentTokensToUser(address,uint256)": {
        "notice": "Allows the LongShort pay out a user from tokens already withdrawn from Aave"
      },
      "treasury()": {
        "notice": "address of treasury contract - this is the address that can claim aave incentives rewards"
      },
      "withdrawTreasuryFunds()": {
        "notice": "Withdraw treasury allocated accrued yield from the lending pool to the treasury contract"
      }
    },
    "notice": "contract is used to manage the yield generated by the underlying tokens. YieldManagerAave is an implementation of a yield manager that earns APY from the Aave protocol. Each fund's payment token (such as DAI) has a corresponding aToken (such as aDAI) that continuously accrues interest based on a lend/borrow liquidity ratio.",
    "version": 1
  },
  "storageLayout": {
    "storage": [
      {
        "astId": 1102,
        "contract": "contracts/YieldManagerAave.sol:YieldManagerAave",
        "label": "_initialized",
        "offset": 0,
        "slot": "0",
        "type": "t_bool"
      },
      {
        "astId": 1105,
        "contract": "contracts/YieldManagerAave.sol:YieldManagerAave",
        "label": "_initializing",
        "offset": 1,
        "slot": "0",
        "type": "t_bool"
      },
      {
        "astId": 3537,
        "contract": "contracts/YieldManagerAave.sol:YieldManagerAave",
        "label": "__gap",
        "offset": 0,
        "slot": "1",
        "type": "t_array(t_uint256)50_storage"
      },
      {
        "astId": 4436,
        "contract": "contracts/YieldManagerAave.sol:YieldManagerAave",
        "label": "__gap",
        "offset": 0,
        "slot": "51",
        "type": "t_array(t_uint256)50_storage"
      },
      {
        "astId": 304,
        "contract": "contracts/YieldManagerAave.sol:YieldManagerAave",
        "label": "_roles",
        "offset": 0,
        "slot": "101",
        "type": "t_mapping(t_bytes32,t_struct(RoleData)299_storage)"
      },
      {
        "astId": 589,
        "contract": "contracts/YieldManagerAave.sol:YieldManagerAave",
        "label": "__gap",
        "offset": 0,
        "slot": "102",
        "type": "t_array(t_uint256)49_storage"
      },
      {
        "astId": 1085,
        "contract": "contracts/YieldManagerAave.sol:YieldManagerAave",
        "label": "__gap",
        "offset": 0,
        "slot": "151",
        "type": "t_array(t_uint256)50_storage"
      },
      {
        "astId": 1218,
        "contract": "contracts/YieldManagerAave.sol:YieldManagerAave",
        "label": "__gap",
        "offset": 0,
        "slot": "201",
        "type": "t_array(t_uint256)50_storage"
      },
      {
        "astId": 17257,
        "contract": "contracts/YieldManagerAave.sol:YieldManagerAave",
        "label": "longShort",
        "offset": 0,
        "slot": "251",
        "type": "t_address"
      },
      {
        "astId": 17260,
        "contract": "contracts/YieldManagerAave.sol:YieldManagerAave",
        "label": "treasury",
        "offset": 0,
        "slot": "252",
        "type": "t_address"
      },
      {
        "astId": 17263,
        "contract": "contracts/YieldManagerAave.sol:YieldManagerAave",
        "label": "isInitialized",
        "offset": 20,
        "slot": "252",
        "type": "t_bool"
      },
      {
        "astId": 17267,
        "contract": "contracts/YieldManagerAave.sol:YieldManagerAave",
        "label": "paymentToken",
        "offset": 0,
        "slot": "253",
        "type": "t_contract(IERC20)7293"
      },
      {
        "astId": 17271,
        "contract": "contracts/YieldManagerAave.sol:YieldManagerAave",
        "label": "aToken",
        "offset": 0,
        "slot": "254",
        "type": "t_contract(IERC20Upgradeable)1983"
      },
      {
        "astId": 17275,
        "contract": "contracts/YieldManagerAave.sol:YieldManagerAave",
        "label": "lendingPoolAddressesProvider",
        "offset": 0,
        "slot": "255",
        "type": "t_contract(ILendingPoolAddressesProvider)18905"
      },
      {
        "astId": 17279,
        "contract": "contracts/YieldManagerAave.sol:YieldManagerAave",
        "label": "aaveIncentivesController",
        "offset": 0,
        "slot": "256",
        "type": "t_contract(IAaveIncentivesController)18518"
      },
      {
        "astId": 17282,
        "contract": "contracts/YieldManagerAave.sol:YieldManagerAave",
        "label": "referralCode",
        "offset": 20,
        "slot": "256",
        "type": "t_uint16"
      },
      {
        "astId": 17286,
        "contract": "contracts/YieldManagerAave.sol:YieldManagerAave",
        "label": "totalReservedForTreasury",
        "offset": 0,
        "slot": "257",
        "type": "t_uint256"
      },
      {
        "astId": 17289,
        "contract": "contracts/YieldManagerAave.sol:YieldManagerAave",
        "label": "amountReservedInCaseOfInsufficientAaveLiquidity",
        "offset": 0,
        "slot": "258",
        "type": "t_uint256"
      }
    ],
    "types": {
      "t_address": {
        "encoding": "inplace",
        "label": "address",
        "numberOfBytes": "20"
      },
      "t_array(t_uint256)49_storage": {
        "base": "t_uint256",
        "encoding": "inplace",
        "label": "uint256[49]",
        "numberOfBytes": "1568"
      },
      "t_array(t_uint256)50_storage": {
        "base": "t_uint256",
        "encoding": "inplace",
        "label": "uint256[50]",
        "numberOfBytes": "1600"
      },
      "t_bool": {
        "encoding": "inplace",
        "label": "bool",
        "numberOfBytes": "1"
      },
      "t_bytes32": {
        "encoding": "inplace",
        "label": "bytes32",
        "numberOfBytes": "32"
      },
      "t_contract(IAaveIncentivesController)18518": {
        "encoding": "inplace",
        "label": "contract IAaveIncentivesController",
        "numberOfBytes": "20"
      },
      "t_contract(IERC20)7293": {
        "encoding": "inplace",
        "label": "contract IERC20",
        "numberOfBytes": "20"
      },
      "t_contract(IERC20Upgradeable)1983": {
        "encoding": "inplace",
        "label": "contract IERC20Upgradeable",
        "numberOfBytes": "20"
      },
      "t_contract(ILendingPoolAddressesProvider)18905": {
        "encoding": "inplace",
        "label": "contract ILendingPoolAddressesProvider",
        "numberOfBytes": "20"
      },
      "t_mapping(t_address,t_bool)": {
        "encoding": "mapping",
        "key": "t_address",
        "label": "mapping(address => bool)",
        "numberOfBytes": "32",
        "value": "t_bool"
      },
      "t_mapping(t_bytes32,t_struct(RoleData)299_storage)": {
        "encoding": "mapping",
        "key": "t_bytes32",
        "label": "mapping(bytes32 => struct AccessControlUpgradeable.RoleData)",
        "numberOfBytes": "32",
        "value": "t_struct(RoleData)299_storage"
      },
      "t_struct(RoleData)299_storage": {
        "encoding": "inplace",
        "label": "struct AccessControlUpgradeable.RoleData",
        "members": [
          {
            "astId": 296,
            "contract": "contracts/YieldManagerAave.sol:YieldManagerAave",
            "label": "members",
            "offset": 0,
            "slot": "0",
            "type": "t_mapping(t_address,t_bool)"
          },
          {
            "astId": 298,
            "contract": "contracts/YieldManagerAave.sol:YieldManagerAave",
            "label": "adminRole",
            "offset": 0,
            "slot": "1",
            "type": "t_bytes32"
          }
        ],
        "numberOfBytes": "64"
      },
      "t_uint16": {
        "encoding": "inplace",
        "label": "uint16",
        "numberOfBytes": "2"
      },
      "t_uint256": {
        "encoding": "inplace",
        "label": "uint256",
        "numberOfBytes": "32"
      }
    }
  }
}